:020000040800F2
:10000000A8070020590200083D240008A522000886
:10001000392400087D040008752C00080000000049
:10002000000000000000000000000000B1240008F3
:100030008104000800000000AD2400080925000824
:1000400073020008730200087302000873020008BC
:1000500073020008730200087302000873020008AC
:10006000730200087302000873020008730200089C
:10007000730200087302000873020008730200088C
:10008000730200087302000873020008730200087C
:10009000730200087302000873020008730200086C
:1000A000730200087302000873020008730200085C
:1000B0002525000873020008730200087302000877
:1000C000730200087302000873020008730200083C
:1000D00073020008652C0008730200087302000810
:1000E000730200087302000873020008730200081C
:1000F000730200087302000873020008730200080C
:1001000073020008730200087302000873020008FB
:1001100073020008730200087302000873020008EB
:1001200073020008730200087302000873020008DB
:1001300073020008730200087302000873020008CB
:1001400073020008730200087302000873020008BB
:1001500073020008730200087302000873020008AB
:10016000730200087302000873020008730200089B
:100170007302000873020008730200080000000008
:10018000730200087302000800F002F800F054F84F
:1001900014A696E8000CB244B344DA4501D100F04D
:1001A0004BF8BAE80F000FA696E83000A5EB04055F
:1001B00004EB0607AAEB0704A7F101074FEA1515A0
:1001C0004FEA3414A4F10104AC4201D300F034F836
:1001D00013F0010F18BFFB1A43F0010300F001F800
:1001E000DBE71847A82E0000C82E0000103A24BFF5
:1001F00078C878C1FAD8520724BF30C830C144BF8C
:1002000004680C6070470000704700000023002461
:1002100000250026103A28BF78C1FBD8520728BF16
:1002200030C148BF0B6070471FB502F0FBFE00F005
:10023000D5F81FBD10B510BD00F0E6F81146FFF768
:10024000F3FF02F0DFFE00F004F903B4FFF7F2FF62
:1002500003BC00F00BF9000009488047094800473B
:10026000FEE7FEE7FEE7FEE7FEE7FEE7FEE7FEE766
:10027000FEE7FEE704480549054A064B70470000C3
:100280001125000889010008A8010020A807002006
:10029000A8030020A803002053EA020C00F06980A4
:1002A0002DE9F04B4FF00006002B1FBFB3FA83F58A
:1002B00003FA05F424FA05F65E4012BF1643B2FABB
:1002C00082F502FA05F4C5F120051EBF22FA05FCED
:1002D00044EA0C04203556EA044C4FEA144418BF93
:1002E000641C4FF000084FF00009904271EB030CC2
:1002F00039D3002919BFB1FA81F701FA07F6B0FA2C
:1003000080F700FA07F6C7F120071EBF20FA07FCA6
:1003100046EA0C062037B6FBF4FCA7EB0507103FB6
:1003200007F01F0BCBF120062CFA06F60CFA0BFB9C
:1003300044BFB3460026202FA4BF5E464FF0000BFB
:100340005BEA060C08BF4FF0010B19EB0B0948EBF9
:100350000608ABFB027C06FB02CC0BFB03CCC01BEC
:1003600071EB0C01C1E70B46024641464846BDE829
:10037000F08B13B5084318BF4FF0FF300146AFF3C1
:100380000080BDE81C4070474FF0000200B51346E6
:1003900094469646203922BFA0E80C50A0E80C50A5
:1003A000B1F12001BFF4F7AF090728BFA0E80C5056
:1003B00048BF0CC05DF804EB890028BF40F8042B4F
:1003C00008BF704748BF20F8022B11F0804F18BFBC
:1003D00000F8012B704770477047704708487CB59C
:1003E0007844009007487844009C0546019004E05A
:1003F0002046016808448047241DAC42F8D17CBDEA
:10040000C82C0000C62C0000754600F02BF8AE4644
:1004100005006946534620F00700854618B020B510
:10042000FFF728FFBDE820404FF000064FF000071F
:100430004FF000084FF0000BAC46ACE8C009ACE848
:10044000C009ACE8C009ACE8C00921F007018D463D
:10045000704710B50446AFF300802046BDE8104059
:10046000FFF7F3BE00487047100000200149182034
:10047000ABBEFEE72600020070470000FFE7FEE784
:100480007047000072B6FFE7FEE7000080B584B059
:1004900002900298806D019000F084FA009002981A
:1004A00090F8350002280DD0FFE7029980204865BA
:1004B000FFE70299002081F83400FFE701208DF862
:1004C0000F0055E002980168086820F016000860E7
:1004D00002980168486920F0800048610298006C29
:1004E00020B9FFE70298806C38B1FFE702980168F5
:1004F000086820F008000860FFE7029801680868B3
:1005000020F001000860FFE7029800680068C0075B
:10051000C8B1FFE700F046FA0099401A062811D347
:10052000FFE70299202048650299032081F83500F1
:10053000FFE70299002081F83400FFE703208DF8DF
:100540000F0015E0E0E70298C16D3F208840019957
:1005500088600299012081F83500FFE702990020A8
:1005600081F83400FFE7FFE700208DF80F00FFE778
:100570009DF80F0004B080BD82B00090009890F804
:100580003500022807D0FFE7009980204865012048
:100590008DF807000EE00099052081F835000098DD
:1005A0000168086820F001000860FFE700208DF86E
:1005B0000700FFE79DF8070002B070478EB00D906E
:1005C0000C9100200A90099008900B90FFE70B987F
:1005D0000F2800F2CC81FFE70B99012088400A9098
:1005E0000C9800680A990840099009980A9988426D
:1005F00040F0B881FFE70C98406800F00300012844
:1006000007D0FFE70C98406800F0030002282FD1C4
:10061000FFE70D98806808900B984100032000FACE
:1006200001F10898884308900C98C0680B9949001C
:1006300000FA01F108980843089008980D9988601D
:100640000D98406808900B99012000FA01F1089874
:10065000884308900C984068C0F300100B9900FA8A
:1006600001F108980843089008980D994860FFE741
:100670000C98406800F00300032818D0FFE70D989D
:10068000C06808900B984100032000FA01F1089817
:10069000884308900C9880680B99490000FA01F192
:1006A00008980843089008980D99C860FFE70C98CF
:1006B000406800F00300022826D1FFE70D980B994F
:1006C0006FF0030202EA51010844006A08900B9897
:1006D00000F0070081000F2000FA01F1089888431C
:1006E00008900C9800690B9901F00701890000FA45
:1006F00001F108980843089008980D990B9B02EAAD
:10070000530211440862FFE70D98006808900B98A7
:100710004100032000FA01F10898884308900C98E2
:10072000406800F003000B99490000FA01F10898B5
:100730000843089008980D9908600C988079800704
:10074000002800F00E81FFE7FFE70020079043F646
:100750004400C4F20200016841F480410160006875
:1007600000F4804007900798FFE70B9820F0030003
:1007700043F60801C4F20101405808900B9800F0BC
:10078000030081000F2000FA01F1089888430890C7
:100790000D980021C4F20201884203D1FFE7002036
:1007A00006905EE00D9840F20041C4F202018842DA
:1007B00003D1FFE70120059050E00D9840F60001BD
:1007C000C4F20201884203D1FFE70220049042E014
:1007D0000D9840F60041C4F20201884203D1FFE7C0
:1007E0000320039034E00D9841F20001C4F20201AD
:1007F000884203D1FFE70420029026E00D9841F2E1
:100800000041C4F20201884203D1FFE705200190B4
:1008100018E00D9841F60001C4F20201884203D1AC
:10082000FFE7062000900AE00D9941F60042C4F26D
:1008300002020820914208BF07200090FFE70098BD
:100840000190FFE701980290FFE702980390FFE70D
:1008500003980490FFE704980590FFE70598069039
:10086000FFE70698C0B20B9901F00301890000FA76
:1008700001F108980843089008980B9921F00301AA
:1008800043F60802C4F20102885043F60840C4F25D
:1008900001000068089009990898884308900C980E
:1008A0008079C006002805D5FFE709990898084314
:1008B0000890FFE7089843F60841C4F20101086078
:1008C00043F60C40C4F201000068089009990898AA
:1008D000884308900C9880798006002805D5FFE7AA
:1008E0000999089808430890FFE7089843F60C41D7
:1008F000C4F20101086043F60440C4F2010000683C
:10090000089009990898884308900C988079800786
:10091000002805D5FFE70999089808430890FFE7E4
:10092000089843F60441C4F20101086043F6004010
:10093000C4F201000068089009990898884308905B
:100940000C988079C00728B1FFE7099908980843F7
:100950000890FFE7089843F60041C4F201010860DF
:10096000FFE7FFE7FFE70B9801300B902FE60EB093
:100970007047000082B00190ADF802108DF80120A0
:100980009DF8010028B1FFE7BDF8020001998861D8
:1009900005E0BDF80200000401998861FFE702B09C
:1009A0007047000040F2A410C2F2000000687047D7
:1009B00040F20400C2F20000027840F2A411C2F238
:1009C00000010868104408607047000080B543F6D5
:1009D0000041C4F20201086840F400700860086831
:1009E00040F480600860086840F48070086003206C
:1009F00000F08AF80F2000F005F800F03BF8002026
:100A000080BD000080B582B0009040F20000C2F2CC
:100A10000000006840F20401C2F200010A784FF4BD
:100A20007A71B1FBF2F1B0FBF1F000F0A5FD20B15D
:100A3000FFE701208DF8070018E000980F280DD877
:100A4000FFE700994FF0FF30002200F043F80098D4
:100A500040F20801C2F20001086003E001208DF8B5
:100A6000070003E000208DF80700FFE79DF807006E
:100A700002B080BD82B0FFE70020019043F6440041
:100A8000C4F20200016841F480410160006800F492
:100A9000804001900198FFE7FFE70020009043F6B7
:100AA0004000C4F20200016841F08051016000681A
:100AB00000F0805000900098FFE702B070470000FF
:100AC00080B582B08DF807009DF9070002F032FA78
:100AD00002B080BD80B586B08DF8170004910392F6
:100AE0000020029002F03EFA02909DF9170001905A
:100AF00002980499039A01F0A3FC0146019802F0C0
:100B000039FA06B080BD000080B582B0019001982E
:100B100002F052FA02B080BD80B584B0029001911B
:100B2000029820B9FFE701208DF80F0021E101981C
:100B300043F60041C4F20201096801F0070188424E
:100B400012D9FFE7019943F60040C4F20200017098
:100B5000006800F007000199884204D0FFE70120F7
:100B60008DF80F0005E1FFE7029800788007002864
:100B70002AD5FFE7029800784007002809D5FFE74B
:100B800043F60801C4F20201086840F4E05008602E
:100B9000FFE7029800780007002809D5FFE743F631
:100BA0000801C4F20201086840F460400860FFE7F1
:100BB00043F60801C4F20201086820F0F000029A2E
:100BC000926810430860FFE702980078C007002889
:100BD0006ED0FFE702984068012811D1FFE743F685
:100BE0000000C4F20200006800F400310020B0EB05
:100BF000514F04D1FFE701208DF80F00B9E02CE040
:100C000002984068022805D0FFE702984068032850
:100C100011D1FFE743F60000C4F20200006800F0C3
:100C200000710020B0EB516F04D1FFE701208DF877
:100C30000F009EE010E043F60000C4F202000068DE
:100C400000F002010020B0EB510F04D1FFE70120BA
:100C50008DF80F008DE0FFE7FFE743F60801C4F2CF
:100C60000201086820F00300029A526810430860ED
:100C7000FFF798FE0090FFE743F60800C4F2020079
:100C8000006800F00C0002994968B0EB810F0ED0AB
:100C9000FFE7FFF787FE0099401A41F28931884249
:100CA00004D3FFE703208DF80F0062E0E4E7FFE7DD
:100CB000019843F60041C4F20201096801F00701FE
:100CC000884212D2FFE7019943F60040C4F20200C5
:100CD0000170006800F007000199884204D0FFE726
:100CE00001208DF80F0044E0FFE7029800784007EC
:100CF00000280CD5FFE743F60801C4F2020108689A
:100D000020F4E050029AD26810430860FFE702988E
:100D10000078000700280DD5FFE743F60801C4F26C
:100D20000201086820F46040029A126940EAC20099
:100D30000860FFE700F04CF843F60801C4F2020136
:100D40000968C9B20A0943F27301C0F60001895C5F
:100D5000C84040F20001C2F20001086040F2080001
:100D6000C2F200000068FFF74DFE00208DF80F0072
:100D7000FFE79DF80F0004B080BD000040F20000C6
:100D8000C2F200000068704780B5FFF7F7FF43F636
:100D90000801C4F202010968C1F3822243F283010F
:100DA000C0F60001895CC84080BD000080B5FFF737
:100DB000E5FF43F60801C4F20201096889B24A0B53
:100DC00043F28301C0F60001895CC84080BD000089
:100DD00080B586B00020059004900390029043F601
:100DE0000800C4F20200006800F00C000146019106
:100DF00040B1FFE7019804280AD0FFE701980828CE
:100E00000CD04FE042F20040C0F2F40002904FE0FC
:100E100047F64000C0F27D10029049E043F604001E
:100E2000C4F20200016801F03F0105910068400230
:100E3000002813D5FFE743F60400C4F2020000685F
:100E4000C0F3881047F64001C0F27D11A0FB0101FC
:100E5000059A0023FFF720FA049012E043F60400FD
:100E6000C4F202000068C0F3881042F20041C0F2F0
:100E7000F401A0FB0101059A0023FFF70DFA04908D
:100E8000FFE743F60400C4F20200006800F44031BA
:100E9000022000EBD130039004980399B0FBF1F0ED
:100EA000029005E042F20040C0F2F4000290FFE739
:100EB000029806B080BD000080B586B0049004980A
:100EC00020B9FFE701208DF8170050E3049800785F
:100ED000C007002800F0A580FFE743F60800C4F231
:100EE0000200006800F00C00042813D0FFE743F66E
:100EF0000800C4F20200006800F00C0008281ED1AF
:100F0000FFE743F60400C4F2020000684002002834
:100F100015D5FFE743F60000C4F20200006800F4B4
:100F200000310020B0EB514F08D0FFE70498406833
:100F300020B9FFE701208DF8170018E370E0FFE704
:100F400004984068B0F5803F09D1FFE743F60001FF
:100F5000C4F20201086840F48030086020E0049880
:100F60004068B0F5A02F0DD1FFE743F60001C4F2B1
:100F70000201086840F480200860086840F480306E
:100F800008600CE043F60001C4F20201086820F496
:100F900080300860086820F480200860FFE7FFE7E1
:100FA000FFE704984068E8B1FFE7FFF7FBFC039018
:100FB000FFE743F60000C4F20200006800F40031CD
:100FC0000020B0EB514F0CD1FFE7FFF7EBFC03998A
:100FD000401A652804D3FFE703208DF81700C6E206
:100FE000E7E71CE0FFF7DEFC0390FFE743F60000B5
:100FF000C4F20200006800F400310020B0EB514F51
:101000000CD0FFE7FFF7CEFC0399401A652804D304
:10101000FFE703208DF81700A9E2E7E7FFE7FFE706
:10102000FFE7049800788007002840F19680FFE7EA
:1010300043F60800C4F20200006810F00C0F13D051
:10104000FFE743F60800C4F20200006800F00C005D
:1010500008282CD1FFE743F60400C4F20200006820
:101060004002002823D4FFE743F60000C4F2020048
:10107000006800F002010020B0EB510F09D0FFE73B
:101080000498C068012804D0FFE701208DF81700FC
:101090006DE243F60001C4F20201086820F0F80096
:1010A000049A126940EAC2000860FFE754E004981D
:1010B000C06870B3FFE70021C4F247210120086037
:1010C000FFF770FC0390FFE743F60000C4F2020054
:1010D000006800F002010020B0EB510F0CD1FFE7D7
:1010E000FFF760FC0399401A032804D3FFE70320AD
:1010F0008DF817003BE2E7E743F60001C4F2020176
:10110000086820F0F800049A126940EAC2000860FA
:1011100021E00021C4F2472100200860FFF742FCD3
:101120000390FFE743F60000C4F20200006800F0FD
:1011300002010020B0EB510F0CD0FFE7FFF732FCAB
:101140000399401A032804D3FFE703208DF8170002
:101150000DE2E7E7FFE7FFE7FFE704980078000705
:1011600000284BD5FFE70498406918B3FFE740F625
:101170008061C4F2472101200860FFF713FC03904F
:10118000FFE743F67400C4F20200006800F00201B9
:101190000020B0EB510F0CD1FFE7FFF703FC0399E0
:1011A000401A032804D3FFE703208DF81700DEE17F
:1011B000E7E722E040F68061C4F2472100200860A2
:1011C000FFF7F0FB0390FFE743F67400C4F2020060
:1011D000006800F002010020B0EB510F0CD0FFE7D7
:1011E000FFF7E0FB0399401A032804D3FFE703202D
:1011F0008DF81700BBE1E7E7FFE7FFE70498007809
:101200004007002840F1CE80FFE700208DF807005E
:1012100043F64000C4F202000068C000002815D464
:10122000FFE7FFE70020009043F64000C4F2020011
:10123000016841F080510160006800F0805000902A
:101240000098FFE701208DF80700FFE747F2000054
:10125000C4F200000068C005002822D4FFE747F26E
:101260000001C4F20001086840F480700860FFF7D4
:1012700099FB0390FFE747F20000C4F2000000680A
:10128000C00500280CD4FFE7FFF78CFB0399401A38
:10129000032804D3FFE703208DF8170067E1EAE78E
:1012A000FFE7FFE704988068012809D1FFE743F6CC
:1012B0007001C4F20201086840F0010008601FE0FC
:1012C0000498806805280DD1FFE743F67001C4F249
:1012D0000201086840F004000860086840F001005E
:1012E00008600CE043F67001C4F20201086820F0C7
:1012F00001000860086820F004000860FFE7FFE7CD
:10130000FFE704988068F8B1FFE7FFF74BFB039015
:10131000FFE743F67000C4F20200006800F002012B
:101320000020B0EB510F0ED1FFE7FFF73BFB039915
:10133000401A41F28931884204D3FFE703208DF837
:10134000170014E1E5E71EE0FFF72CFB0390FFE731
:1013500043F67000C4F20200006800F002010020B1
:10136000B0EB510F0ED0FFE7FFF71CFB0399401ABB
:1013700041F28931884204D3FFE703208DF817003A
:10138000F5E0E5E7FFE79DF80700012809D1FFE751
:1013900043F64001C4F20201086820F08050086062
:1013A000FFE7FFE704988069002800F0DC80FFE792
:1013B00043F60800C4F20200006800F00C000828A0
:1013C00000F08580FFE70498806902285CD1FFE780
:1013D0006021C4F2472100200860FFF7E3FA039080
:1013E000FFE743F60000C4F20200006800F000715D
:1013F0000020B0EB516F0CD0FFE7FFF7D3FA039951
:10140000401A032804D3FFE703208DF81700AEE04D
:10141000E7E70499C869D1F820C04B6A8A6A40EAB4
:101420000C0040EA8310D2034FF6FF739A43A2F5F3
:1014300080321043C96A40EA016043F60401C4F2F5
:10144000020108606021C4F2472101200860FFF713
:10145000A9FA0390FFE743F60000C4F20200006817
:1014600000F000710020B0EB516F0CD1FFE7FFF7E7
:1014700099FA0399401A032804D3FFE703208DF853
:10148000170074E0E7E721E06021C4F24721002063
:101490000860FFF787FA0390FFE743F60000C4F205
:1014A0000200006800F000710020B0EB516F0CD01A
:1014B000FFE7FFF777FA0399401A032804D3FFE701
:1014C00003208DF8170052E0E7E7FFE74AE00498B1
:1014D0008069012804D1FFE701208DF8170046E05C
:1014E00043F60400C4F20200006802900498806988
:1014F000012831D0FFE7029800F480000499C969FF
:10150000884229D1FFE7029800F03F000499096A58
:10151000884221D1FFE7029847F6C071084004993C
:10152000496AB0EB811F17D1FFE7029800F4403001
:101530000499896AC9034FF6FF729143A1F580317E
:10154000884209D1FFE7029800F070600499C96AE7
:10155000B0EB016F04D0FFE701208DF8170006E023
:10156000FFE7FFE7FFE700208DF81700FFE79DF892
:10157000170006B080BD000080B582B001900198D0
:1015800000F098FF02B080BD81B0009001B07047BC
:1015900081B0009001B0704785B003900291FFE7E1
:1015A000039890F83C00012804D1FFE702208DF851
:1015B00013007EE00399012081F83C00FFE7FFE77C
:1015C0000399022081F83D0003980068406801906B
:1015D0000398006880680090019820F070000190E6
:1015E00002980168019808430190019803990968DD
:1015F0004860039800680021C4F2010188423CD091
:10160000FFE703980068B0F1804F36D0FFE70398FA
:10161000006840F20041C4F2000188422DD0FFE78B
:101620000398006840F60001C4F20001884224D00B
:10163000FFE70398006840F60041C4F200018842C9
:101640001BD0FFE70398006840F20041C4F201019B
:10165000884212D0FFE70398006844F20001C4F208
:101660000101884209D0FFE70398006841F60001B4
:10167000C4F2000188420ED1FFE7009820F08000FC
:1016800000900298416800980843009000980399E0
:1016900009688860FFE70399012081F83D00FFE7B2
:1016A0000399002081F83C00FFE700208DF813002B
:1016B000FFE79DF8130005B07047000080B582B0C9
:1016C0000090009820B9FFE701208DF807003FE067
:1016D000009890F83D0040B9FFE70099002081F89C
:1016E0003C00009800F038F8FFE70099022081F8EC
:1016F0003D00009951F8040B00F01CFF00990120F7
:1017000081F84600FFE70099012081F83E0000992A
:1017100081F83F00009981F84000009981F841006C
:10172000FFE7FFE70099012081F84200009981F866
:101730004300009981F84400009981F84500FFE7D3
:101740000099012081F83D0000208DF80700FFE797
:101750009DF8070002B080BD80B584B00390039867
:101760000068B0F1804F1BD1FFE7FFE70020029037
:1017700043F64000C4F20200016841F0010101603B
:10178000006800F0010002900298FFE71C20019021
:1017900000221146FFF79EF90198FFF791F9FFE744
:1017A00004B080BD83B00190019890F83D000128FD
:1017B00004D0FFE701208DF80B006AE001990220B8
:1017C00081F83D0001980168C86840F00100C860D8
:1017D000019800680021C4F2010188423CD0FFE773
:1017E00001980068B0F1804F36D0FFE7019800689B
:1017F00040F20041C4F2000188422DD0FFE7019879
:10180000006840F60001C4F20001884224D0FFE7DE
:101810000198006840F60041C4F2000188421BD0E4
:10182000FFE70198006840F20041C4F201018842DC
:1018300012D0FFE70198006844F20001C4F20101F0
:10184000884209D0FFE70198006841F60001C4F220
:101850000001884212D1FFE701980068806800F01B
:10186000070000900098062807D0FFE7019801685C
:10187000086840F001000860FFE706E00198016891
:10188000086840F001000860FFE700208DF80B00B9
:10189000FFE79DF80B0003B07047000080B586B0ED
:1018A0000490039100208DF80B00FFE7049890F856
:1018B0003C00012804D1FFE702208DF81700ABE0BF
:1018C0000499012081F83C00FFE7FFE7049902201A
:1018D00081F83D000498006880680190019820F02C
:1018E00077000190019820F47F40019001980499BD
:1018F00009688860039800680090002872D0FFE7AC
:10190000009810286ED0FFE7009820286AD0FFE7E3
:101910000098302866D0FFE70098402855D0FFE7B0
:101920000098502837D0FFE70098602840D0FFE7A4
:10193000009870280BD0FFE70098B0F5805F05D0C5
:10194000FFE70098B0F5005F16D052E055E004982C
:101950000068039B5A689968DB6800F0C3FE04982E
:10196000006880680190019840F07700019001982C
:1019700004990968886040E004980068039B5A68ED
:101980009968DB6800F0AEFE04980168886840F44E
:101990008040886031E004980068039A5168D268FA
:1019A00000F0D0FE04980068502100F0B5FE24E05D
:1019B00004980068039A5168D26800F0EBFE04981E
:1019C0000068602100F0A8FE17E004980068039A00
:1019D0005168D26800F0B6FE04980068402100F01B
:1019E0009BFE0AE0049800680399096800F094FEE1
:1019F00003E001208DF80B00FFE70499012081F836
:101A00003D00FFE70499002081F83C00FFE79DF8C6
:101A10000B008DF81700FFE79DF8170006B080BD9A
:101A200081B0009001B0704780B584B003900398F6
:101A30000068C068029003980068006901909DF8F2
:101A400004008007002824D5FFE79DF808008007E0
:101A500000281DD5FFE7039801686FF002000861B8
:101A6000039901200877039800688069800720B1F6
:101A7000FFE70398FFF7D4FF06E0039800F0E2F8D1
:101A8000039800F0E3F8FFE7039900200877FFE7E9
:101A9000FFE79DF804004007002825D5FFE79DF8E3
:101AA0000800400700281ED5FFE7039801686FF083
:101AB0000400086103990220087703980068806990
:101AC00010F4407F04D0FFE70398FFF7A9FF06E07A
:101AD000039800F0B7F8039800F0B8F8FFE703990F
:101AE00000200877FFE7FFE79DF8040000070028C3
:101AF00024D5FFE79DF80800000700281DD5FFE763
:101B0000039801686FF008000861039904200877C2
:101B100003980068C069800720B1FFE70398FFF7CA
:101B20007FFF06E0039800F08DF8039800F08EF830
:101B3000FFE7039900200877FFE7FFE79DF804001F
:101B4000C006002825D5FFE79DF80800C00600283C
:101B50001ED5FFE7039801686FF010000861039934
:101B60000820087703980068C06910F4407F04D00B
:101B7000FFE70398FFF754FF06E0039800F062F8D0
:101B8000039800F063F8FFE7039900200877FFE768
:101B9000FFE79DF80400C00778B1FFE79DF8080053
:101BA000C00748B1FFE7039801686FF001000861C2
:101BB000039800F04FF8FFE7FFE79DF804000006E8
:101BC000002810D5FFE79DF808000006002809D579
:101BD000FFE7039801686FF0800008610398FFF742
:101BE000D3FCFFE7FFE79DF804004006002810D56E
:101BF000FFE79DF808004006002809D5FFE7039895
:101C000001686FF040000861039800F035F8FFE7C5
:101C1000FFE79DF804008006002810D5FFE79DF837
:101C200008008006002809D5FFE7039801686FF0D7
:101C3000200008610398FFF7ABFCFFE7FFE704B063
:101C400080BD000081B0009001B0704781B000906D
:101C500001B0704781B0009000980068B0F1804FEB
:101C600008D1FFE740F2A011C2F20001086801307C
:101C70000860FFE701B0704781B0009001B0704785
:101C800082B00190ADF8021002B0704781B00090B0
:101C900001B0704780B592B011901198006800684B
:101CA000109011980068C0680F9011980068406902
:101CB0000E9000200D900C90109800F00F000D90E9
:101CC0000D9888B9FFE79DF84000800600280AD5E6
:101CD000FFE79DF83C008006002804D5FFE7119837
:101CE00000F0F0FDEAE1FFE70D98002800F0C28067
:101CF000FFE79DF83800C00738B9FFE7BDF83C00A2
:101D000010F4907F00F0B680FFE79DF84000C00718
:101D100058B1FFE79DF83D00C00730B1FFE71199CA
:101D2000486C40F001004864FFE79DF84000400720
:101D300000280BD5FFE79DF83800C00730B1FFE75A
:101D40001199486C40F002004864FFE79DF840009C
:101D5000800700280BD5FFE79DF83800C00730B199
:101D6000FFE71199486C40F004004864FFE79DF8D4
:101D700040000007002811D5FFE79DF83C008006D1
:101D8000002805D4FFE79DF83800C00730B1FFE711
:101D90001199486C40F008004864FFE71198406CC6
:101DA000002866D0FFE79DF84000800600280AD58D
:101DB000FFE79DF83C008006002804D5FFE7119856
:101DC00000F080FDFFE7119800684069C0F38010C3
:101DD0000C901198406C0007002804D4FFE70C9881
:101DE00000283ED0FFE7119800F00EFD1198006822
:101DF0004069400600282FD5FFE7FFE7FFE711986D
:101E0000006850E8050F20F040000B90FFE70B99A9
:101E10001198026842E805100028F0D1FFE7FFE7BB
:101E20001198C06B98B1FFE71198C16B42F2E9704D
:101E3000C0F6000008651198C06BFEF79DFB28B145
:101E4000FFE71198C06B016D8847FFE703E0119829
:101E5000FFF71CFFFFE703E01198FFF717FFFFE70D
:101E600006E01198FFF712FF119900204864FFE780
:101E7000FFE723E11198006B012840F0FF80FFE7A6
:101E80009DF84000C006002840F1F880FFE79DF86B
:101E90003C00C006002840F1F180FFE7FFE700208A
:101EA0000A901198006800680A90119800684068CC
:101EB0000A900A98FFE711980068406940060028D8
:101EC00040F18280FFE71198C06B00684068ADF870
:101ED0002600BDF82600002875D0FFE7BDF82600D3
:101EE0001199898D88426EDAFFE7BDF826001199B5
:101EF000C8851198C06BC069B0F5807F58D0FFE7E6
:101F0000FFE7FFE71198006850E8030F20F48070A6
:101F10000890FFE708991198026842E8031000282A
:101F2000F0D1FFE7FFE7FFE7FFE71198006850E80F
:101F3000050F20F001000790FFE70799119802684C
:101F400042E805100028F0D1FFE7FFE7FFE7FFE7D1
:101F50001198006850E8050F20F040000690FFE758
:101F600006991198026842E805100028F0D1FFE7B1
:101F7000FFE71199202081F84200119900200863A1
:101F8000FFE7FFE71198006850E8030F20F010000A
:101F90000590FFE705991198026842E803100028B0
:101FA000F0D1FFE7FFE71198C06BFEF76FFAFFE78C
:101FB0001199022048631198818DC28D891A89B2C6
:101FC000FFF75EFEFFE779E01199888DC98D401A11
:101FD000ADF812001198C08D00284ED0FFE7BDF873
:101FE0001200002849D0FFE7FFE7FFE711980068DB
:101FF00050E8030F20F490700390FFE703991198C5
:10200000026842E803100028F0D1FFE7FFE7FFE78E
:10201000FFE71198006850E8050F20F001000290DA
:10202000FFE702991198026842E805100028F0D1F4
:10203000FFE7FFE71199202081F842001199002065
:102040000863FFE7FFE71198006850E8030F20F0EE
:1020500010000190FFE701991198026842E803100F
:102060000028F0D1FFE7FFE711990220486311989B
:10207000BDF81210FFF704FEFFE71FE09DF84000D7
:10208000000600280AD5FFE79DF83C00000600285E
:1020900004D5FFE7119800F09BFD0FE09DF840008C
:1020A000400600280AD5FFE79DF83C0040060028BE
:1020B00004D5FFE7119800F0F1FBFFE712B080BDF7
:1020C00080B582B00090009820B9FFE701208DF81C
:1020D000070040E00098806908B1FFE700E0FFE7F3
:1020E000009890F8410040B9FFE70099002081F87E
:1020F0004000009800F034F8FFE70099242081F8B0
:10210000410000980168C86820F40050C860009839
:1021100000F08EFC00980168086920F49040086186
:1021200000980168486920F02A0048610098016819
:10213000C86840F40050C860009900204864009AC4
:10214000202182F84110009A82F8421000994863D9
:102150008DF80700FFE79DF8070002B080BD000082
:1021600080B58AB0099000200890079006900590ED
:1021700004900998006841F20001C4F2010188420C
:102180003ED1FFE7FFE70020039043F64400C4F28E
:102190000200016841F010010160006800F01000C9
:1021A00003900398FFE7FFE70020029043F630001A
:1021B000C4F20200016841F001010160006800F012
:1021C000010002900298FFE74FF4C06004900220E3
:1021D00005900020009006900320079007200890AB
:1021E0000020C4F2020004A9FEF7E8F9009A2520B5
:1021F00001901146FEF76EFC0198FEF761FCFFE7C7
:102200000AB080BD80B584B002900191ADF8022083
:10221000029890F84200202817D1FFE7019820B1DA
:10222000FFE7BDF8020020B9FFE701208DF80F009D
:102230000FE002990020086302980199BDF802207E
:1022400000F094FC8DF80F0003E002208DF80F00E1
:10225000FFE79DF80F0004B080BD000080B582B09C
:1022600001900198006841F20001C4F20101884226
:1022700011D1FFE740F29C10C2F2000000900078FC
:1022800000F088FD009940F2D800C2F2000001225F
:10229000FFF7B8FFFFE702B080BD000081B00090FB
:1022A00001B07047FFE7FEE780B590B000200F90C7
:1022B0000E900D900C900B90FFE700200A9043F6D3
:1022C0003000C4F20200016841F0200101600068A2
:1022D00000F020000A900A98FFE7FFE7002009902D
:1022E00043F63000C4F20200016841F08001016051
:1022F000006800F0800009900998FFE7FFE70020E0
:10230000089043F63000C4F20200016841F0400139
:102310000160006800F0400008900898FFE7FFE7C0
:102320000020079043F63000C4F20200016841F03B
:1023300001010160006800F0010007900798FFE7C5
:1023400041F20040C4F202000190062100910022F7
:102350000492FEF70FFB049A41F60000C4F202005B
:10236000059002210291FEF705FB009A019804995D
:102370000B92012203920C920D910E910BA90691E2
:10238000FEF71CF9DDF808C0039B049A059806992E
:10239000CDF82CC00C930D920E92FEF70FF910B0F1
:1023A00080BD000080B588B00021019107910691A1
:1023B000059104910391029140F29000C2F2000055
:1023C0004FF080420260A722426081606322C260B7
:1023D00001618161FFF772F918B1FFE7FEF752F86A
:1023E000FFE74FF48050049040F29000C2F20000EA
:1023F00004A9FFF753FA18B1FFE7FEF743F8FFE728
:1024000000200290039040F29000C2F2000002A966
:10241000FFF7C2F818B1FFE7FEF734F8FFE740F224
:102420009000C2F2000002686FF001011161FFF735
:10243000B9F908B080BD0000FFE7FEE7FFE7FEE75F
:1024400088B0079006910592079800F00700049065
:102450000498C0F10700052803D3FFE7042001908A
:1024600004E00498C0F107000190FFE70198039091
:1024700004980430062803D8FFE70020009003E00A
:10248000049803380090FFE700980290069803999B
:10249000012202FA01F101390840029B9840059996
:1024A0009A40013A1140084308B070477047000055
:1024B0007047000080B582B0009000980138B0F1FC
:1024C000807F03D3FFE70120019019E000980138D5
:1024D0004EF21401CEF2000108604FF0FF300F21E0
:1024E00000F048FD4EF21801CEF200010020086015
:1024F0004EF21002CEF20002072111600190FFE7B8
:10250000019802B080BD000080B5FEF751FA80BD91
:102510004EF68851CEF20001086840F47000086061
:102520007047000080B540F29000C2F20000FFF753
:102530007BFA80BD83B00290019102980068009000
:1025400002980021C4F20101884225D0FFE70298D9
:10255000B0F1804F20D0FFE7029840F20041C4F272
:102560000001884218D0FFE7029840F60001C4F24B
:102570000001884210D0FFE7029840F60041C4F203
:102580000001884208D0FFE7029840F20041C4F2FF
:10259000010188420AD1FFE7009820F07000009006
:1025A00001984168009808430090FFE702980021D5
:1025B000C4F20101884255D0FFE70298B0F1804F84
:1025C00050D0FFE7029840F20041C4F20001884277
:1025D00048D0FFE7029840F60001C4F200018842AB
:1025E00040D0FFE7029840F60041C4F20001884263
:1025F00038D0FFE7029840F20041C4F2010188425E
:1026000030D0FFE7029844F20001C4F20101884291
:1026100028D0FFE7029844F20041C4F20101884249
:1026200020D0FFE7029844F60001C4F2010188427D
:1026300018D0FFE7029841F60001C4F20001884279
:1026400010D0FFE7029841F60041C4F20001884231
:1026500008D0FFE7029842F20001C4F2000188426C
:102660000AD1FFE7009820F4407000900198C168FB
:10267000009808430090FFE7009820F0800001993F
:1026800049690843009000980299086001988068A1
:102690000299C86201980068029988620298002134
:1026A000C4F20101884208D0FFE7029840F20041DD
:1026B000C4F20101884205D1FFE70198006902993F
:1026C0000863FFE702990120486102980069C0078A
:1026D00030B1FFE70299086920F001000861FFE7C7
:1026E00003B0704785B0049003910292019304985F
:1026F00080680090009820F47F4000900398029931
:10270000019A41EA02210143009808430090009891
:102710000499886005B0704783B0029001910298D7
:1027200080680090009820F0700000900198009957
:10273000084340F00700009000980299886003B0B9
:102740007047000085B00490039102920498006ADB
:1027500000900499086A20F00100086204988069DA
:102760000190019820F0F00001900299019840EA50
:1027700001100190009820F00A0000900399009841
:1027800008430090019804998861009804990862B0
:1027900005B0704785B00490039102920498006AD6
:1027A00000900499086A20F010000862049880697B
:1027B0000190019820F4704001900299019840EA3C
:1027C00001300190009820F0A0000090039900983B
:1027D00040EA0110009001980499886100980499DA
:1027E000086205B07047000080B582B00190019882
:1027F000806B009000990020C8850099C8840098DB
:10280000FFF744FA02B080BD84B00390FFE7FFE712
:102810000398006850E8030F20F490700290FFE7DF
:1028200002990398026842E803100028F0D1FFE7FC
:10283000FFE7FFE7FFE70398006850E8050F20F087
:1028400001000190FFE701990398026842E8051032
:102850000028F0D1FFE7FFE70398006B012814D1AF
:10286000FFE7FFE7FFE70398006850E8030F20F059
:1028700010000090FFE700990398026842E80310F7
:102880000028F0D1FFE7FFE7FFE70399202081F858
:10289000420003990020086304B0704780B582B0FD
:1028A000019001980168C86820F04000C860019953
:1028B000202081F841000198FFF7F0FC002002B0D1
:1028C00080BD000080B586B00490049890F8420066
:1028D000222840F0A480FFE704988068B0F5805F6C
:1028E00015D1FFE70498006988B9FFE7002003903D
:1028F0000498806A02900498006840686FF35F2033
:10290000029908800499886A0230886225E0049858
:10291000806A03900020029004988068B0F5805F80
:1029200008D0FFE70498806850B9FFE70498006971
:1029300030B9FFE70498006840680399087007E021
:1029400004980068406800F07F0003990870FFE772
:102950000499886A01308862FFE70499C88D0138BC
:10296000C8850004002856D1FFE704980168C868AC
:1029700020F02000C86004980168C86820F48070C6
:10298000C86004980168486920F001004861049912
:10299000202081F842000499002048630498006BCD
:1029A000012830D1FFE7049900200863FFE7FFE723
:1029B0000498006850E8030F20F010000190FFE732
:1029C00001990498026842E803100028F0D1FFE75B
:1029D000FFE7049800680068C00600280ED5FFE7EE
:1029E000FFE70020009004980068006800900498B9
:1029F0000068406800900098FFE7FFE70498818D29
:102A0000FFF73EF903E00498FFF728FCFFE70020FA
:102A10008DF8170007E000208DF8170003E0022072
:102A20008DF81700FFE79DF8170006B080BD000085
:102A300080B586B0059005980068006920F4405084
:102A4000059A1168D26810430861059988680B6976
:102A50004A69C969184310430843049005980068FF
:102A6000C06849F20C6188430499084305990968D4
:102A7000C86005980068406920F44070059A1168A4
:102A80009269104348610598006841F20001C4F260
:102A90000101884209D0FFE70598006841F2004132
:102AA000C4F20101884204D1FFE7FEF77FF90390E9
:102AB00003E0FEF769F90390FFE70598C069B0F5F8
:102AC000004F29D1FFE703981921A0FB0101059AC6
:102AD0001368029353685A00DB0FFDF7DDFB029980
:102AE000864648F21F53C5F2EB13AEFB03204209A2
:102AF00010014FF0640C02FB1CEC322202EBCC0202
:102B0000A2FB0332F82303EA521300EB4300C2F3A3
:102B100042121044886026E003981921A0FB0101AD
:102B2000059A1368019353689A009B0FFDF7B4FB55
:102B30000199844648F21F52C5F2EB12ACFB0230F9
:102B40004309642003FB10CC322000EB0C10A0FBE7
:102B50000202F02000EA521000EB0310C2F343120D
:102B600010448860FFE706B080BD000083B002908B
:102B70000191ADF80220019802998862BDF8020027
:102B800002998885BDF802000299C8850299002043
:102B900048640299222081F842000298006938B105
:102BA000FFE702980168C86840F48070C860FFE7DA
:102BB00002980168486940F0010048610298016884
:102BC000C86840F02000C860002003B070470000D3
:102BD00083B00190019890F8410021283AD1FFE795
:102BE00001988068B0F5805F13D1FFE70198006914
:102BF00078B9FFE70198006A0090009800886FF3A9
:102C00005F200199096848600199086A02300862EA
:102C100008E0019A106A411C116200780199096864
:102C20004860FFE70199C88C0138C884000468B97E
:102C3000FFE701980168C86820F08000C86001982B
:102C40000168C86840F04000C860FFE700208DF8C8
:102C50000B0003E002208DF80B00FFE79DF80B004E
:102C600003B0704780B540F2D800C2F20000FFF711
:102C700011F880BDFFE7FEE780B500F0BBF980BD2D
:102C800080B594B008A83021FDF77EFB00200790A6
:102C90000690059004900390FFE70020029043F611
:102CA0004000C4F20200016841F0805101600068F8
:102CB00000F0805002900298FFE7FFE700200190AB
:102CC00047F20000C4F20000016841F48041016055
:102CD000006800F4804001900198FFE7022008900E
:102CE00001210B9110210C910E9000210F910821D0
:102CF0001091A821119112900420139008A8FEF7BA
:102D0000DBF818B1FFE7FDF7BDFBFFE70F200390ED
:102D100002200490002005904FF4A05006904FF43C
:102D20008050079003A80521FDF7F6FE18B1FFE7D4
:102D3000FDF7A8FBFFE714B080BD000080B582B0AE
:102D400040F2D800C2F20000019041F20001C4F24A
:102D5000010101604FF49641416000218160C16032
:102D600001610C2242618161C161FFF7A9F918B1CB
:102D7000FFE7FDF787FBFFE740F2D800C2F2000053
:102D800040F29C11C2F200010122FFF73BFA02B0AF
:102D900080BD000082B08DF807009DF8071040F25A
:102DA0008C03C2F200031A78501C187040F27800AD
:102DB000C2F2000081540078AB2810D1FFE740F246
:102DC0007800C2F200004078CD280FD0FFE740F233
:102DD0008C00C2F200000078022807DBFFE740F217
:102DE0008C01C2F200010020087044E040F28C0027
:102DF000C2F200000078092801DCFFE73BE040F266
:102E00007801C2F200014A7940F27000C2F200007B
:102E1000009002600268120202608B7902681A4315
:102E20000260026812020260CB7802681A430260F4
:102E30000268120202600A790168114301600068A9
:102E40006FF31F3000EE100AB8EE400A9FED0B1A28
:102E500080EE010A9FED0A1A20EE010A40F274008A
:102E6000C2F2000080ED000A40F28C01C2F20001C3
:102E700000200870FFE702B0704700BF00008045E7
:102E80000000B443B0B588B006900699029107914E
:102E900043F24002C0F60002039210685368D2F871
:102EA00008C0D2F80CE0146955694D610C61C1F895
:102EB0000CE0C1F808C04B6008609069D269CA6133
:102EC000886101F12000403104910590FFE70598E9
:102ED000019000F025F80198049A00F108010846D5
:102EE00091420590F3D1FFE702990020A1F860001C
:102EF000022281F8622081F8740081F875008867E9
:102F00000867C86688664866C8638863486308635C
:102F1000C862886248620862079808B0B0BD0000C5
:102F200081B000900098002101704170416001B0B3
:102F30007047000081B08DF803009DF90300002860
:102F40000ED4FFE79DF9031001F01F02012090400D
:102F50004A094EF20011CEF2000141F82200FFE7CB
:102F600001B070474EF60C50CEF200000068C0F37E
:102F70000220704782B08DF8070000919DF907008C
:102F800000280AD4FFE7009800019DF907104EF2CF
:102F90000042CEF2000288540BE0009800019DF838
:102FA000071001F00F014EF61452CEF200028854C1
:102FB000FFE702B07047000083B00290029800F073
:102FC000070000904EF60C51CEF200010868019007
:102FD00001984FF6FF02104001900198009A40EAD4
:102FE00002200022C0F2FA521043019001980860BA
:102FF00003B0704780B540F22010C2F20000FFF726
:1030000041FF80BD80B582B000200190FDF7DEFC5D
:10301000FFF736FEFFF748F9FFF7C4F9FFF78EFE1A
:10302000FFE7FEE7F1EE100A4FF6FF71C0F2C03184
:1030300020EA010040F04070E1EE100A7047000005
:103040006030000805000000653000080500000041
:103050006A300008050000006F300008040000001E
:103060008006050174FA040C02F4FA040A14E480E0
:1030700006037700000000000000000102030406C0
:10308000070809000000000102030400B030000836
:103090000000002010000000EC010008C030000813
:1030A00010000020980700000C020008CDFBFFFF75
:1030B0000024F400010000001000000000000000E7
:040000050800018965
:00000001FF
