:020000040800F2
:10000000285B0024390300087162000801550008CC
:100010006962000861070008B97400080000000068
:100020000000000000000000000000004165000822
:10003000690700080000000081620008716500087F
:100040005303000853030008530300085303000838
:100050005303000853030008530300085303000828
:100060005303000853030008530300085303000818
:100070005303000853030008530300085303000808
:1000800053030008530300085303000853030008F8
:1000900053030008530300085303000853030008E8
:1000A00053030008530300085303000853030008D8
:1000B00053030008530300085303000853030008C8
:1000C00053030008530300085303000853030008B8
:1000D00053030008530300085303000853030008A8
:1000E00053030008530300080000000053030008F6
:1000F0005303000853030008530300085303000888
:100100005303000853030008530300085303000877
:100110005303000853030008A167000853030008B5
:100120005303000853030008530300085303000857
:100130005303000853030008530300085303000847
:1001400000000000000000000000000000000000AF
:100150005303000853030008530300085303000827
:100160005303000853030008530300085303000817
:100170005303000853030008530300080000000065
:1001800053030008530300085303000853030008F7
:1001900053030008530300085303000853030008E7
:1001A00053030008530300085303000853030008D7
:1001B00053030008530300085303000853030008C7
:1001C00053030008530300085303000853030008B7
:1001D00053030008530300085303000853030008A7
:1001E0005303000853030008530300085303000897
:1001F0005303000853030008530300085303000887
:100200005303000853030008530300085303000876
:100210005303000853030008530300085303000866
:1002200053030008530300085303000800000000B4
:1002300053030008530300080000000053030008A4
:100240005303000853030008530300085303000836
:100250005303000853030008530300085303000826
:100260005303000853030008530300085303000816
:100270005303000853030008530300080000000064
:100280005303000853030008530300080000000054
:10029000000000005303000800F002F800F03CF8F2
:1002A0000AA090E8000C82448344AAF10107DA45D1
:1002B00001D100F031F8AFF2090EBAE80F0013F0E7
:1002C000010F18BFFB1A43F001031847B09200005A
:1002D000D0920000103A24BF78C878C1FAD85207EB
:1002E00024BF30C830C144BF04680C6070470000B0
:1002F0000023002400250026103A28BF78C1FBD82F
:10030000520728BF30C148BF0B6070471FB509F0C6
:10031000C9F81FBD10B510BD00F04FF91146FFF729
:10032000F5FF07F0CDF800F06DF903B4FFF7F2FF29
:1003300003BC00F075F900000948804709480047F0
:10034000FEE7FEE7FEE7FEE7FEE7FEE7FEE7FEE785
:10035000FEE7FEE704480549054A064B70470000E2
:10036000D16600089902000828550024285B002463
:10037000285700242857002453EA020C00F0698013
:100380002DE9F04B4FF00006002B1FBFB3FA83F5A9
:1003900003FA05F424FA05F65E4012BF1643B2FADA
:1003A00082F502FA05F4C5F120051EBF22FA05FC0C
:1003B00044EA0C04203556EA044C4FEA144418BFB2
:1003C000641C4FF000084FF00009904271EB030CE1
:1003D00039D3002919BFB1FA81F701FA07F6B0FA4B
:1003E00080F700FA07F6C7F120071EBF20FA07FCC6
:1003F00046EA0C062037B6FBF4FCA7EB0507103FD6
:1004000007F01F0BCBF120062CFA06F60CFA0BFBBB
:1004100044BFB3460026202FA4BF5E464FF0000B1A
:100420005BEA060C08BF4FF0010B19EB0B0948EB18
:100430000608ABFB027C06FB02CC0BFB03CCC01B0B
:1004400071EB0C01C1E70B46024641464846BDE848
:10045000F08B13B5084318BF4FF0FF300146AFF3E0
:100460000080BDE81C407047032A40F2308010F045
:10047000030C00F0158011F8013BBCF1020F62443F
:1004800098BF11F801CB00F8013B38BF11F8013BD0
:10049000A2F1040298BF00F801CB38BF00F8013B7D
:1004A00011F0030300F05780083AC0F0088051F8BB
:1004B000043B083A51F804CBA0E80810F5E7121DF8
:1004C0005CBF51F8043B40F8043BAFF30080D20717
:1004D00024BF11F8013B11F801CB48BF11F8012BE3
:1004E00024BF00F8013B00F801CB48BF00F8012B06
:1004F000704702F0FF0343EA032242EA024200F09F
:1005000002B84FF0000200B51346944696462039D3
:1005100022BFA0E80C50A0E80C50B1F12001BFF4BC
:10052000F7AF090728BFA0E80C5048BF0CC05DF822
:1005300004EB890028BF40F8042B08BF704748BF70
:1005400020F8022B11F0804F18BF00F8012B7047E4
:1005500070477047704710B5203AC0F00B80B1E883
:100560001850A0E81850B1E81850A0E81850203AE8
:10057000BFF4F5AF5FEA027C24BFB1E81850A0E8F1
:10058000185044BF18C918C0BDE810405FEA827C0B
:1005900024BF51F8043B40F8043B08BF7047D20722
:1005A00028BF31F8023B48BF11F8012B28BF20F8C3
:1005B000023B48BF00F8012B7047754600F02CF84D
:1005C000AE4605006946534620F00700854618B040
:1005D00020B5FFF7BFFEBDE820404FF000064FF00A
:1005E00000074FF000084FF0000BAC46ACE8C00924
:1005F000ACE8C009ACE8C009ACE8C00921F00701CB
:100600008D46704710B50446AFF300802046BDE824
:100610001040FFF78ABE0000004870471800002411
:1006200001491820ABBEFEE726000200704700001B
:10063000B0B50446006842F2001140F48070C4F284
:100640000201884218D142F20830C4F20200006868
:1006500010F4403F18D002F0F7FF61680546B1F58D
:10066000803F05D0B1F5403F2CD0B1F5003F2AD1F5
:10067000080CB5FBF0F526E046F20830C5F602009E
:10068000006810F4403FE6D14FF40020002101F053
:100690005BFE61680546A1F580224FEAB2420A2A54
:1006A00011D8DFE802F0070707070707515355572E
:1006B000590000BF6FF0010000EA5140B5FBF0F5B2
:1006C00001E000BFAD0801F037F841F203018842B4
:1006D0000ED8206842F60151C0F231118D42816876
:1006E0002CBF41F4807121F480718160B0BD00BFE6
:1006F0004BF62140C0F2BE00854205D820688168D3
:1007000021F440718160B0BD47F64100C0F27D1018
:10071000854207D820680122816862F3092181603F
:10072000B0BD00BF20684FF28101C0F2FA218D42B6
:10073000816805D8022262F309218160B0BD00BF43
:1007400041F440718160B0BD2D09BCE76D09BAE785
:10075000AD09B8E7ED09B6E72D0AB4E700000000DF
:10076000FEE70000000000007047000000000000ED
:10077000EFF3108072B600BFFEE70000000000003B
:10078000B0B582B090F85020012A03D1022108466A
:1007900002B0B0BD42F2083200230193C4F202025B
:1007A0000093A2F542740368A34227D14FF6006C70
:1007B0004FF60055CFF6FF7CCFF6FF7552F80C4090
:1007C000535923435B0719D4D1F800E01368BEF1F5
:1007D000000F23F440441DD04B682343136053594A
:1007E00052F80C502B43DB0722D1136840F61F75DB
:1007F0008968AB4341EA0E01194316E0416D41F0AF
:10080000200141650121002280F85020084602B0F5
:10081000B0BD00BF1460515952F80C301943C907DC
:1008200008D1116840F61F73994311600021EAE76F
:100830000021E8E70021E6E7F0B581B00022009250
:1008400090F85020012A03D10221084601B0F0BDE2
:100850000768012380F85030BB685B0700F17E8198
:100860000B684FF6FF7CB3F1FF3FC0F20F0C11DDB8
:1008700093FAA3F413EA0C0FB4FA84F44FF00102D4
:1008800008BF9C0E9B0E04F01F04A240FC6922438B
:10089000FA6100E09B0E4A681F2603F01F03C2F3B3
:1008A000012402F01F02964007EB840403FA02F2CF
:1008B000256B25EA060632432263BA68BB68DB086B
:1008C00043EA9202D20740F07E800A6807258E68CC
:1008D000C2F34063C2F3045207EB830395405C69A3
:1008E00006FA02F224EA05052A435A6141F200029F
:1008F000C5F60042126802F07042B2F1805F09D181
:10090000D1F814E0FA680E2303EA52040B69042BB1
:100910000DD13CE0FA68D1F814E0FB68D2064FEA4A
:1009200053032FD403F00E040B69042B2FD007F1CF
:1009300060020D680EFA04F605F0F84552F82340FF
:100940002E4304F00044264342F823600B694E7E98
:1009500052F82350012E25F0004508BF05F100454F
:1009600042F823500A7E0B693E69013A03F01F03E7
:10097000B2FA82F226F4F0465209D2029A40324389
:100980003A6120E003F008040B69042BCFD13A6EE2
:100990000B6802F0F842B2EB836F4FEA836341D0F9
:1009A0007A6E02F0F8429A4245D0BA6E02F0F842EE
:1009B0009A4249D0FA6E02F0F8429A4203D1FA6E96
:1009C00022F00042FA66BA68D20729D1CA680B68D9
:1009D00002F0180503EA0C042CFA05F540F2000CAD
:1009E000D7F8C060C4F2FF7CA6431D40624545EACB
:1009F0000602C7F8C02057D184B393FAA3F2B2FA23
:100A000082F2013202F01E03092B02F01F032ED8DE
:100A1000012203EB43069A4042EA065333E000BF4B
:100A20000021A0E03A6E22F000423A667A6E02F0AF
:100A3000F8429A42B9D17A6E22F000427A66BA6ED2
:100A400002F0F8429A42B5D1BA6E22F00042BA667C
:100A5000FA6E02F0F8429A42B1D0B4E7012202EBFA
:100A6000936202F01E030A2B02F01F03D0D301226F
:100A700003EB43069A400023CFF6206303EB0653B3
:100A80001A4342F00073C3F340620725C3F30453D3
:100A90008E6807EB82029D40546906FA03F324EA4C
:100AA00005052B4353610B68B3F1FF3F02DD0021C5
:100AB00059E000BF42F2000146F2083CC4F20201D4
:100AC000C5F6020C01F5807201F542769742624646
:100AD00008BF32468F4242F2001508BF324647F443
:100AE0008076C4F20205AE42D2F800E02ED18A68C8
:100AF000D1F808111143C90730D100210EF0E0747C
:100B0000CCF684318B4208BF1EF4000132D00021A4
:100B1000CCF252718B4208BF1EF0807130D0ACF520
:100B200042718F424FF000011DD10022CCF6B87205
:100B3000934208BF1EF4800215D1DCF8001021F0AA
:100B4000E071214341F480015BE000BF4FF60051AA
:100B5000CFF6FF715CF80110C907CED0416D41F0AE
:100B6000200141650121002280F85020084601B093
:100B7000F0BD00BFACF542718F4207D00021F2E713
:100B8000ACF542718F4235D00021ECE7DCF8001063
:100B900042F6635221F0E071C0F23E52214341F42B
:100BA0000001CCF8001040F20801C2F200410968CF
:100BB0008909A1FB02129109022202EB4101009175
:100BC000009919B3009901390091009901B3009976
:100BD000013900910099E9B100990139009100991A
:100BE000D1B1009901390091009900294FF000011D
:100BF000E8D1B8E7DCF8001021F0E071214341F0C2
:100C00008071CCF800100021ADE700BF0021AAE7F9
:100C10000021A8E70021A6E70021A4E700000000CA
:100C2000B0B582B0044600284FF00000019009D012
:100C3000606D58B120688168890012D48168C9004C
:100C400019D54EE00125284602B0B0BD204600F07F
:100C500027F90020A06584F8500020688168890089
:100C6000ECD54FF6C0728168C5F6FF721140816005
:100C70008168C90035D44FF6C0718268C5F6FF712E
:100C800001F18051114042F6635201F180518160BF
:100C900040F20801C0F23E52C2F2004109688909DF
:100CA000A1FB0212012101EB921101910199C1B145
:100CB000019901390191019900291FBF0199013959
:100CC000019101991FBF00290199013901911CBFB0
:100CD0000199002905D00199013901910199002953
:100CE000E6D18168C90009D4616D012541F0100188
:100CF0006165A16D41F00101A16500E000258168F9
:100D0000626D02F01002C1F380018918616D07D095
:100D100041F0100001256065284602B0B0BD00BF5B
:100D200021F48171023161658168C90728D142F2DD
:100D3000001240F48071C4F20202914242F20001BA
:100D4000C4F2020140F0A0808A68D1F808311A4349
:100D5000D20715D101F5807201F5427346F2080CF5
:100D60009042C5F6020C1A4618BF0CF54072884234
:100D700008BF1A466068116821F47C1108431060AE
:100D800000F0DAFC617D41F20402A36890424FEA70
:100D90004131226B0AD3102B08D1207F114341EA45
:100DA000004141F01C01012807D00DE0207F1143D4
:100DB000194341EA0041012806D1206A0022CFF6FA
:100DC000FE7202EB40400143606A28B100F4787083
:100DD000A26A084340EA020120684CF20303CFF6FE
:100DE000F073C2681A401143C16081688268D208FA
:100DF00042EA9101C90733D1217D44F2030CE26A32
:100E0000C36842EA813123EA0C021143C16094F8BD
:100E100038100129016917D14FF61E02CFF60042A2
:100E200001EA020C0021D4E90F23CFF6FF7101EB98
:100E300002414CEA0302636C1143A26C1943114353
:100E400041F0010102E000BF21F0010101610169EF
:100E5000626B21F07041114301612046FFF7E8FB0E
:100E60002068E1680129026B22F00F0102D1A2691A
:100E7000013A114301630121606D61F30100606576
:100E8000284602B0B0BD00BF46F20802C5F6020215
:100E90001268D2073FF45EAF72E700000000000066
:100EA000F0B587B042F200120068C4F202020024DA
:100EB0009042C5F602044FF000010691CDE90411FD
:100EC0000391029162D042F20001C4F20201884211
:100ED00040F0C18040F27C1144F2E040C2F2004197
:100EE000C5F602000A68002A02F101020A600BD16D
:100EF00050F8081C41F0200140F8081C50F8081C6C
:100F000001F0200101910199016802AD41F0010158
:100F100001600168032601F0010101910199016856
:100F200041F0040101600168002701F00401019112
:100F30000199016841F002010160016801F00201BC
:100F400001910199016841F0200101600068294682
:100F500000F0200001900198C020029020460396E6
:100F6000049700F0F5FA02A93020C1C104F5006031
:100F7000294600F0EDFA04F580602946CDE90266C5
:100F8000049700F0E5FA4FF4C0505AE040F27C11AB
:100F900044F2E040C2F20041C5F602000A68002AAD
:100FA00002F101020A600BD150F8081C41F0200147
:100FB00040F8081C50F8081C01F02001019101992B
:100FC000016802AD41F0010101600168032601F0F2
:100FD000010101910199016841F00401016001687A
:100FE000002701F0040101910199016841F002011B
:100FF0000160016801F0020101910199016841F06D
:10100000200101600068294600F02000019001984D
:101010004020029020460396049700F099FA02A916
:101020001020C1C104F50060294600F091FA02A920
:101030000220C1C104F58060294600F089FA4FF40E
:10104000C0400290032003900020049004F5A050BB
:1010500002A900F07DFA07B0F0BD0000000000001A
:101060002DE9F04F85B0A8B34AF200080446C4F257
:1010700000080068404531D094F89810A9B3816900
:1010800021F01001816100F05FFB05462068816955
:10109000090705D500F058FB401B0B28F6D310E0DC
:1010A000816941F00101816100F04EFB054600BFFE
:1010B00020688169C90721D100F046FB401B0B283D
:1010C000F6D3D4F89C0040F00100C4F89C00032043
:1010D00084F89800012005B0BDE8F08F08F5807114
:1010E000616094F898100029C9D1002084F8990013
:1010F000204600F0B9F92068C1E700BF816941F0DE
:1011000002018161217C826922F04002012918BF1D
:1011100040328261617C826922F48042012908BFE9
:1011200002F580428261A17C826922F48052012909
:1011300018BF02F580528261816921F44073D4E9BD
:1011400002120B438361836923F0A4038361036963
:1011500023F010030361AAB1022A0FD0012A03D1A0
:10116000826942F004020CE08369032A43F08003A1
:101170008361036943F01002026103D1826942F086
:1011800020028261D4E90572E369561E6FF0FF0206
:10119000256A02EB0323B1F5407F43EA4663A5F1DC
:1011A000010646EA030640F20003CFF6FF7303EBA5
:1011B000074746EA0701C16110D1D4E90B65D4E9BC
:1011C0000917013F02EB06226FF00F063A4306EBC8
:1011D00005173A4303EB01411143C160236E2BB164
:1011E000616ED0F8C0201143C0F8C010E16DCDE9A8
:1011F0000313D94249F2C041C0F6000109D0D0F82A
:10120000C820A36E22F0070251F823301A43C0F819
:10121000C820D4F840A0BAF1000F09D0D0F8BC2003
:10122000636C22F0070251F823301A43C0F8BC2047
:10123000A76C57B1D0F8BC20E36C22F0700251F8D3
:10124000233042EA0312C0F8BC20D4F850C0BCF1ED
:10125000000F0AD0D0F8BC20636D22F4E06251F890
:10126000231042EA0121C0F8BC10404504D1616856
:101270008A6822F003028A600021C4F89410C4F83E
:101280009C10012184F898104FF6FC72D0F884105D
:10129000D4F83C9021EA0203656CD4E90D12029265
:1012A000019543EA8103C0F88430D0F8843023F4F8
:1012B0007F0343EA0243C0F884305318D0F88860B3
:1012C0006FF38F0646EA8306C0F88860D0F888601E
:1012D00003EB490326F4FE0646EA0946C0F8886097
:1012E000D0F8A0606FF38F0646EA8306C0F8A060CE
:1012F000D0F8A06005FB0A3326F4FE0646EA0A464B
:10130000C0F8A060D0F8B0606FF38F0646EA83069D
:10131000C0F8B060D0F8B06026F4FE0646EA074692
:10132000C0F8B060E66CD0F8AC506FF38F0506FBE8
:1013300007337E4345EA8305C0F8AC50D4F85480A7
:1013400008FB0C35D0F8F0306FF38F0308FB0CFC72
:1013500043EA8503C0F8F030D0F8F0E0A36D2EF436
:101360007C1242EA0342C0F8F02005EB4302D0F8B9
:10137000C0506FF38F0545EA8202C0F8C020D0F854
:10138000C020DDF80CB022F47C1242EA0B42C0F817
:10139000C020019AD0F8C05025F07C5502FB0AFE0F
:1013A0004AF20002C4F20002DDF810A002EB810153
:1013B000029A01F5406145EA0A6501EB8207C0F82F
:1013C000C05007EBC902A56E02EB8E00626700EB0E
:1013D00086060BFB05F2276706EB8C07C4E91E06A1
:1013E0000AFB05F007EBC30303EB8202C4F8843069
:1013F0004DF2FC33E16602EB8000C4F20003984238
:10140000C4F88070C4F88820C4F8900004D9D4F8D7
:101410009C0040F0200058E6814221D20A4600207C
:1014200042F8040BD4F890309A4215D2486001F18A
:101430000802D4F890309A423FBF0020886001F142
:101440000C02D4F8903038BF9A4205D2C8601031EF
:10145000D4F890209142E1D305B0BDE8F08F00BFF1
:10146000002005B0BDE8F08F80B586B04AF200429A
:101470000068C4F20002002190420591CDE90311F9
:10148000CDE9011130D04AF20001C4F200018842D6
:101490005BD140F2801144F2E040C2F20041C5F657
:1014A00002000A68002A02F101020A6008D1C1683C
:1014B00041F48071C160C16801F4807100910099AC
:1014C000016841F080010160006840F2004100F0D5
:1014D00080000090C5F6020100984FF4C0400190D2
:1014E00001F5C05027E000BF40F2801144F2E04017
:1014F000C2F20041C5F602000A68002A02F10102A8
:101500000A6008D1C16841F48071C160C16801F40A
:10151000807100910099016841F00201016000684A
:1015200000F00200009000984FF44050019040F20B
:101530000040C5F60200022102910021CDE903110D
:101540000921059101A900F003F806B080BD000053
:101550002DE9F04F85B00D680290002D00F0E68077
:1015600002988E4600F126420A2102F1FF7342F2F0
:101570000042C5F60202002490424FEAB32208BF9F
:101580000921092A4FF0010738BF4FEAB32100268D
:101590004FF000080091CDF80CE00DE0DEF80050AF
:1015A00008F1010835FA07F006F1020607F1010714
:1015B00004F1040400F0BA80A7F1010A012000FA46
:1015C0000AF315EA0309E9D0DEF804B00BF00305CD
:1015D0006A1E012A22D802984FEA4801D0F808C0B2
:1015E0000191032101FA06F203992CEA020CD1F8C9
:1015F0000CE00EFA06F1DDF80CE041EA0C01816026
:1016000041686FEA020CCBF300129943034601983C
:1016100002FA0AF2114359600CE000BF0320032DC7
:1016200000FA06F0029B6FEA000C304602D1304609
:10163000032526E0D968DEF8082001EA0C01824083
:10164000022D41EA0201D9601BD102466FF003006E
:1016500000EA5A010F20194404F01C0300FA03F5B4
:101660001046D1F820E0039A2EEA0505DDF80CE0DB
:1016700012699A40029B2A430A62DEF804B00BF01A
:101680000305196805FA00F001EA0C011BF4403F5C
:1016900040EA010018603FF481AF44F2F44140F2A7
:1016A0000845C5F60201C5F600050F23086840F09D
:1016B00002000860086800F0020004902AF00300AD
:1016C000049904F00C0142598B409A43009B03FAA1
:1016D00001F1114341514FF0B0452868DEF8041084
:1016E00040EA0902CB0258BF20EA09028B022A60B5
:1016F00040F20405C5F60005286840EA090258BF13
:1017000020EA09028B032A60D5F8800040EA09022A
:1017100058BF20EA0902C903C5F88020E86F40EAF3
:10172000090258BF20EA0902EA6737E705B0BDE8B9
:10173000F08F00000000000041F20000C5F60040FC
:101740000068000C7047000044F62C60C2F20040B4
:10175000006870470000000090F84120202A03D163
:1017600090F84020012A01D102207047242280F8FD
:1017700041200268136823F001031360136823F407
:1017800080531360136819431160116841F001011F
:101790001160202180F84110002180F84010084697
:1017A000704700000000000090F84120202A03D17B
:1017B00090F84020012A01D102207047242280F8AD
:1017C00041200268136823F001031360136823F4B7
:1017D000706343EA01211160116841F00101116059
:1017E000202180F84110002180F840100846704701
:1017F00010B310B5044690F8410028B9002084F8D1
:101800004000204600F04CF8242084F8410094E881
:101810000910E2680168012A21F00101016023F04A
:1018200070610161816821F40041816006D14CF44E
:10183000004181600CE000BF01207047022A4CF497
:101840000441816004D1416841F4006103E000BFBC
:10185000416821F40061416004F1100C416841F0DD
:10186000007141F400414160C16821F40041C16050
:101870009CE80E10114341EA0321C160216A41EA4C
:101880000C010160016841F0010101600020606409
:10189000202184F84110206384F8420010BD00002C
:1018A00010B586B045F6FF320068C4F20002002190
:1018B00090420591CDE90311CDE9011136DC45F2E5
:1018C0000041C4F20001884266D045F60001C4F22E
:1018D0000001884240F0B38044F2E04441F6004108
:1018E000C5F60204C5F60201206840F02000206021
:1018F000206800F020000090009803200190122042
:1019000002900020CDE9030004200590A1F50060BD
:1019100001A9FFF71DFEA06840F48000A060A06848
:1019200000F480000090009806B010BD45F600411C
:10193000C4F2000188425BD041F60041C5F60001C7
:1019400088427CD144F2E04401A9C5F60204206833
:1019500040F080002060206800F080000090009837
:101960004FF4C0500190122002900020CDE90300F6
:101970000420059041F60040C5F60200FFF7E8FD9F
:10198000606940F080006061606900F08000009054
:10199000009806B010BD00BF44F2E04441F600419B
:1019A000C5F60204C5F60201206840F0020020607E
:1019B000206800F00200009000984FF4C070019081
:1019C000122002900020CDE9030004200590A1F52B
:1019D000C05001A9FFF7BCFDA06840F40010A06052
:1019E000A06800F400100090009806B010BD00BF81
:1019F00044F2E04401A9C5F60204206840F08000EA
:101A00002060206800F08000009000984FF4C070C3
:101A10000190122002900020CDE9030004200590DF
:101A200041F60040C5F60200FFF792FDA06840F4C1
:101A30000000A060A06800F400000090009806B0CC
:101A400010BD00000000000040F2000044F62C61D0
:101A5000C2F20040C2F2004100780A6810440860F7
:101A6000704700000000000080B5032000F0DCF8A3
:101A700001F072FE44F2184149F20C53C5F602011E
:101A8000C0F600030A68096801F00F01C2F30322DF
:101A9000595C9A5C01F01F0102F01F02D04040F235
:101AA0000C02C2F2004220FA01F1116040F208017A
:101AB000C2F2004108600F2000F00AF800281CBFA5
:101AC000012080BD00F058F8002080BD000000001B
:101AD000B0B58AB00F2842D80446362000222146ED
:101AE000002500F071F8362000F05EF840F20400A6
:101AF000C2F20040046044F2E840C5F6020001680A
:101B000041F010010160006801A900F0100002908E
:101B1000029802A801F06CFD079C002C18BF01245C
:101B200001F0BAFD4DF68361A040C4F21B3141F2D1
:101B30000002A0FB010140F6CC00C2F200404FF0D1
:101B4000FF33C4F20002026003EB9141C0E90115CA
:101B500040F2E731C0E9031502F0F2FB10B10120B9
:101B60000AB0B0BD40F6CC00C2F2004002F034FC36
:101B70000AB0B0BD0000000081B044F2F440002281
:101B8000C5F60200016841F00201016000680F2102
:101B900000F0020000906FF00100009B01B000F027
:101BA00013B8000000000000002848BF704700F094
:101BB0001F01012202FA01F14EF200124009CEF299
:101BC000000242F82010704770B54EF60C5C4FF0E2
:101BD000FF36CEF2000C00F16045DCF80030C3F3B4
:101BE000022E8EF00703042B28BF0423BEF103044A
:101BF00006FA03F321EA030100F00F0338BF0024C3
:101C0000043BB0F1FF3F634406FA04F003F10C0318
:101C100001FA04F1C8BF05F5644322EA0000084355
:101C20000001187070BD00004EF60C514FF6FF0316
:101C3000CEF200010A681A4060F30A2242F0806086
:101C400040F0FD7008607047B0B544F60C05C5F66D
:101C5000020529684907296806D401F00701081A16
:101C600018BF0120B0BD00BF21F007010843286064
:101C7000FFF76AFD044600BF55F8080C800407D43E
:101C8000FFF762FD001BB0F57A7FF5D90120B0BDEA
:101C90000020B0BD0000000070B50446FFF754FD01
:101CA000002C76D0054694F8410008B320686FF008
:101CB000FF03A168A66C026822F4F85203EB01212D
:101CC000114301608168890626D5002E4CD0711C15
:101CD0004ED1816889061FD58168890644BF816815
:101CE0005FEA816118D581688906F2D414E000BFEB
:101CF000204600F051F8206841F28836A664A168B9
:101D000002686FF0FF0322F4F85203EB0121114344
:101D10000160816889062BD44FF62F720168C0F2EA
:101D2000FF0263681140E66831432669D4E907255C
:101D300041EA0361636911434FF6FE0229430160E2
:101D40004168CFF6E0721140A269194341EA0641A9
:101D500011434160016841F00101016000206064AD
:101D6000012184F8411070BDFFF7EEFC0AE000BFCE
:101D7000FFF7EAFC401BB04204D82068816889065E
:101D8000F6D4C9E7042084F84100606C40F00100FB
:101D90006064012070BD00002DE9F041B8B0044638
:101DA00002A80830B82100253395CDE93655CDE994
:101DB0003455FEF7A6FB45F200012068C5F200216C
:101DC000884203D038B0BDE8F08100BF4FF000700A
:101DD000029002A80395159500F036FD08B1FEF7B4
:101DE000C7FC44F2E04041F20044C5F60200C5F6EB
:101DF000020433AD4FF0020850F80C1C002741F4E8
:101E0000804140F80C1C50F80C1C01F480410191F9
:101E10000199016841F020010160016801F0200191
:101E200001910199016841F0400101600068294673
:101E300000F04000019001984FF498603390092021
:101E400037902046CDF8D080CDE93577FFF780FB7D
:101E50004FF440702946CDE9330820460A26CDE9E3
:101E600035773796FFF774FB40202946CDE93308D4
:101E700004F580603796CDE93577FFF769FB38B018
:101E8000BDE8F0810000000080B501F0DDFB44F208
:101E9000204149F20C52C5F60201C0F60002096861
:101EA000C1F30211515C01F01F01C84080BD000068
:101EB00080B544F2304EC5F6020E5EF8083C5EF87E
:101EC000081CC1F3051C5EF8041CBCF1000FDEF811
:101ED000042023D0C2F3CC0201F00101514303F0EE
:101EE0000303022B00EE101AB8EE400A1CD0012B9F
:101EF0002AD01BB95EF8301C89066FD4DEF80010BA
:101F00009FED492A6FF35F2101EE101AB8EE411AD6
:101F1000A0EE021A9FED470A24E000BF0021816075
:101F2000C0E9001180BD00BFDEF800109FED3E2A21
:101F30006FF35F2101EE101AB8EE411AA0EE021AFB
:101F40009FED3A0A0EE000BFDEF800109FED362A42
:101F50006FF35F2101EE101AB8EE411AA0EE021ADB
:101F60009FED330AA1EE000A01EE10CAB8EE411A45
:101F7000DEF8001080EE010AB7EE002AC1F3462118
:101F800001EE101AB8EE411A31EE021A80EE011A73
:101F9000BCEEC11A80ED001ADEF80010C1F3064154
:101FA00001EE101AB8EE411A31EE021A80EE011A53
:101FB000BCEEC11A80ED011ADEF80010C1F3066113
:101FC00001EE101AB8EE411A31EE021A80EE010A43
:101FD000BCEEC00A10EE101A816080BDB7EE001A88
:101FE0005EF8301CDEF800209FED0F2A6FF35F22B1
:101FF000C1F3C101A0EE021A00EE102A49F200025C
:10200000C0F2D03222FA01F1B8EE400A02EE101A04
:10201000B8EE422A31EE000A01EE10CAB8EE411ABB
:1020200020EE020AA4E700BF0000003920BCBE4B2E
:102030000024744A0024744C80B544F2384EC5F62E
:10204000020E5EF8103C5EF8101CC1F3053C5EF811
:102050000C1CBCF1000FDEF8042023D0C1F30011EA
:1020600003F00303C2F3CC02022B02FB01F100EEEA
:10207000101AB8EE400A2BD0012B19D0C3B95EF864
:10208000381C89066ED4DEF800109FED492A6FF3E4
:102090005F2101EE101AB8EE411AA0EE021A9FED70
:1020A000470A23E000218160C0E9001180BD00BF24
:1020B000DEF800109FED3E2A6FF35F2101EE101A4B
:1020C000B8EE411AA0EE021A9FED3B0A0EE000BFE7
:1020D000DEF800109FED362A6FF35F2101EE101A33
:1020E000B8EE411AA0EE021A9FED320AA1EE000AE4
:1020F00001EE10CAB8EE411ADEF8001080EE010AB7
:10210000B7EE002AC1F3462101EE101AB8EE411ACB
:1021100031EE021A80EE011ABCEEC11A80ED001AEF
:10212000DEF80010C1F3064101EE101AB8EE411AB4
:1021300031EE021A80EE011ABCEEC11A80ED011ACE
:10214000DEF80010C1F3066101EE101AB8EE411A74
:1021500031EE021A80EE010ABCEEC00A10EE101A2F
:10216000816080BDB7EE001A5EF8381CDEF80020F2
:102170009FED0F2A6FF35F22C1F3C101A0EE021A97
:1021800000EE102A49F20002C0F2D03222FA01F128
:10219000B8EE400A02EE101AB8EE422A31EE000AFA
:1021A00001EE10CAB8EE411A20EE020AA4E700BF01
:1021B0000000003920BCBE4B0024744A0024744C3B
:1021C00080B544F2404EC5F6020E5EF8183C5EF84B
:1021D000181CC1F3055C5EF8141CBCF1000FDEF89E
:1021E000042023D0C1F3002103F00303C2F3CC0287
:1021F000022B02FB01F100EE101AB8EE400A2BD0C0
:10220000012B19D0C3B95EF8401C89066ED4DEF8E4
:1022100000109FED492A6FF35F2101EE101AB8EE0E
:10222000411AA0EE021A9FED470A23E000218160C7
:10223000C0E9001180BD00BFDEF800109FED3E2A0E
:102240006FF35F2101EE101AB8EE411AA0EE021AE8
:102250009FED3B0A0EE000BFDEF800109FED362A2E
:102260006FF35F2101EE101AB8EE411AA0EE021AC8
:102270009FED320AA1EE000A01EE10CAB8EE411A33
:10228000DEF8001080EE010AB7EE002AC1F3462105
:1022900001EE101AB8EE411A31EE021A80EE011A60
:1022A000BCEEC11A80ED001ADEF80010C1F3064141
:1022B00001EE101AB8EE411A31EE021A80EE011A40
:1022C000BCEEC11A80ED011ADEF80010C1F3066100
:1022D00001EE101AB8EE411A31EE021A80EE010A30
:1022E000BCEEC00A10EE101A816080BDB7EE001A75
:1022F0005EF8401CDEF800209FED0F2A6FF35F228E
:10230000C1F3C101A0EE021A00EE102A49F2000248
:10231000C0F2D03222FA01F1B8EE400A02EE101AF1
:10232000B8EE422A31EE000A01EE10CAB8EE411AA8
:1023300020EE020AA4E700BF0000003920BCBE4B1B
:102340000024744A0024744C10B584B0024641F64F
:10235000FF7300209B1A70EB01032FDB40F2FF3369
:102360009B1A70EB010355DA82F480630B4300F093
:10237000D38082F400630B4300F0E88082F4805243
:10238000114340F04F8144F20041C5F60201086D4F
:10239000C0F30232042A00F2228248F20000C0F2A6
:1023A000BB00DFE812F00500410147013F014D018C
:1023B0000868800140F113820EE100BF47F6FF7309
:1023C0009B1A70EB010349DA82F400430B4300F0DF
:1023D000D78082F480330B4300F0E48082F4002243
:1023E000114340F01F8144F20040C5F60200816DA8
:1023F00001F44031B1F5003F00F0F480B1F5803FC9
:1024000000F0FE80002940F0EA810068000100F140
:102410008681E4E182F480730B434BD082F4007236
:10242000114340F0FF8044F20041C5F60201086DFF
:10243000C0F38212042A00F2D28148F20000C0F2F6
:10244000BB00DFE812F0050011011701EF001D01CC
:102450000868800140F1C381BEE000BF82F40053F0
:102460000B4343D082F48042114340F0DB8044F2BE
:102470000044C5F60204A06DC0F30270052800F206
:10248000AE81DFE810F007007B017F018301890145
:102490008B0100BF01F0D8F8216A49F20C52C0F656
:1024A0000002C1F30211515C01F01F01C84004B0E9
:1024B00010BD00BF44F20041C5F60201086D00F0F6
:1024C0000702042A00F28B8148F20000C0F2BB0030
:1024D000DFE812F00600E800EE00A800F40000BFFC
:1024E0000868800140F17B8176E000BF44F2004043
:1024F000C5F60200016DC1F30241052900F26F81AA
:10250000DFE811F00600560160016A0170014E001B
:1025100001F0C2F804B010BD44F20041C5F602015A
:10252000886DC0F34252042A00F2598148F200003B
:10253000C0F2BB00DFE802F004D4DA76DE0000BFB0
:102540000868800140F14B8146E000BF44F2004141
:10255000C5F60201886DC0F30262042A00F23F81D1
:1025600048F20000C0F2BB00DFE802F004D6E05CF5
:10257000EA0000BF0868800140F131812CE000BF13
:1025800044F20040C5F60200016D01F04051B1F186
:10259000005F3FD0B1F1805F1AD0002940F01F8169
:1025A0000068FCE044F20040C5F60200C16C00681F
:1025B000C90303D4800140F112810DE0000140F114
:1025C0000E8101A8FFF738FD039804B010BD00BFCD
:1025D0000068800140F1038101A8FFF769FC0298BF
:1025E00004B010BDC16C036811F04051026840F0A6
:1025F000038113F0040300F0FF80C2F3C1000AE17D
:102600000068800040F1EB8001A8FFF7D9FD039836
:1026100004B010BD0068000140F1E18001A8FFF79F
:102620000BFD029804B010BD0868000140F1D7808E
:1026300075E000BF0868800040F1D18079E000BFFC
:10264000C86C0B6810F04052086803D113F0040303
:1026500040F0DF80B2F1805F40F0818010F4807044
:1026600040F0D0807BE000BF0868000140F1B780F7
:1026700055E000BF0868800040F1B18059E000BF1C
:10268000C86C0B6810F04052086803D113F00403C3
:1026900040F0BF80B2F1805F61D110F4807040F0F3
:1026A000B1805CE00868000140F1998037E000BF2C
:1026B0000868800040F193803BE000BFC86C0B6865
:1026C00010F04052086803D113F0040340F0A180D9
:1026D000B2F1805F43D110F4807040F093803EE00F
:1026E0000868000140F17B8019E000BF08688000A5
:1026F00075D51EE0C86C0B6810F04052086803D115
:1027000013F0040340F08580B2F1805F27D110F40C
:10271000807077D123E000BF086800015FD501A871
:10272000FFF78AFC019804B010BD00BF0868800064
:1027300055D501A8FFF744FD019804B010BD00BFB6
:10274000C86C0B6810F04052086802D113F0040303
:102750005FD1B2F1805F02D110F4807052D108686D
:1027600010F400301CBF47F64000C0F27D10B2F1FB
:10277000005F18BF002004B010BD00BF206800013A
:102780002DD518E02068800029D51EE0206840077C
:1027900025D520683DE000BF206824E0206847F68A
:1027A00040018003C0F27D1101EAE07004B010BD69
:1027B0000068000113D501A8FFF73EFC029804B0A1
:1027C00010BD00BF0068800009D501A8FFF7F8FC24
:1027D000029804B010BD00BF0168490718D400205A
:1027E00004B010BD006840F60011C005C0F23D0104
:1027F00001EAE07004B010BDB1F1805F14D112F4B1
:10280000807211D040F60010C0F23D0004B010BD3F
:102810000068C0F3C10049F20001C0F2D03121FAD2
:1028200000F004B010BD00BF006810F400301CBF01
:1028300047F64000C0F27D10B1F1005F18BF0020E4
:1028400004B010BD000000002DE9F0470446C07838
:1028500044F22C480007C5F6020833D5A06E4FEAB3
:10286000305103290CD8DFE801F003111D2600BF09
:10287000D8F8001041F40031C8F800101BE000BF88
:1028800001266078C0070BD020E000BF04F10800EB
:10289000022103F029FD064660B16078C00715D11A
:1028A000354646E004F12800022103F0B1FD06465A
:1028B0000028F2D1A06ED8F8241021F4401108436A
:1028C000C8F8240000266078C007E9D0A06D04286D
:1028D0000ED83546DFE800F00412181E1E0000BFB7
:1028E000D8F80000354640F40030C8F8000011E088
:1028F00001250127607880071FD452E004F1080009
:10290000002103F0F1FC04E004F12800002103F0B1
:102910007FFD05462F461DB1607880070DD440E04D
:10292000D8F82400A16D20F0070000250843C8F85E
:10293000240037466078800733D5E06D4FEAB01049
:1029400004280DD8DFE800F00412181E1E0000BF96
:10295000D8F8000040F40030C8F8000012E000BFD2
:1029600001250126607840071FD455E004F10800D6
:10297000002103F0B9FC04E004F12800002103F079
:1029800047FD05462E461DB1607840070DD443E053
:10299000D8F82400E16D20F4E07000250843C8F861
:1029A00024003E466078400736D5D4F8A8004FEAA8
:1029B000705004280CD8DFE800F00313191F1F0023
:1029C000D8F8000040F40030C8F8000014E000BF60
:1029D00001254FF001096078000721D456E000BFBF
:1029E00004F10800002103F07FFC04E004F128005A
:1029F000002103F00DFD0546A9461DB160780007D2
:102A00000ED443E0D8F82C00D4F8A81020F46000CD
:102A100000250843C8F82C00B1466078000735D57A
:102A2000D4F8AC004FEA306004280DD8DFE800F09D
:102A30000412181E1E0000BFD8F8000040F4003039
:102A4000C8F8000012E000BF01250127E0788007E8
:102A500020D44EE004F10800002103F045FC04E01E
:102A600004F12800002103F0D3FC05462F461DB1D8
:102A7000E07880070ED43CE0D8F82C00D4F8AC10F5
:102A800020F0E06000250843C8F82C004F46E078AD
:102A900080072ED5E06C4FEA301003280ED8DFE80F
:102AA00000F00903130900BFD8F8000040F400301B
:102AB000C8F800002E467DB912E000BF01250126AE
:102AC0006078C00619D44CE004F10800022103F03C
:102AD0000BFC05462E461DB16078C0060DD440E0C3
:102AE000D8F82000E16C20F0300000250843C8F839
:102AF00020003E466078C00633D5206E4FEA303065
:102B000004280DD8DFE800F00412181E1E0000BFD4
:102B1000D8F8000040F40030C8F8000012E000BF10
:102B200001250127607880061FD44EE004F10800DB
:102B3000002103F0D9FB04E004F12800002103F098
:102B400067FC05462F461DB1607880060DD43CE039
:102B5000D8F82400216E20F4E04000250843C8F88E
:102B600024003746607880062FD5606E4FEA3040EB
:102B7000052809D8DFE800F0040E1404040400BF9F
:102B80002E46ADB918E000BF012501266078400649
:102B90001FD44FE004F10800012103F0A5FB04E07D
:102BA00004F12800012103F033FC05462E461DB137
:102BB000607840060DD43DE0D8F82400616E20F422
:102BC000E02000250843C8F824003E46607840060F
:102BD00030D5D4F8B0004FEA3070052808D8DFE8C7
:102BE00000F0030D130303032F46ADB918E000BF37
:102BF000012501276078000620D442E004F1080096
:102C0000012103F071FB04E004F12800012103F02D
:102C1000FFFB05462F461DB1607800060ED430E05C
:102C2000D8F82C00D4F8B01020F0E040002508437C
:102C3000C8F82C0037466078000622D5206F58B1BE
:102C4000B0F1005F0CD0B0F1805F2FD1D8F8000058
:102C500040F40030C8F800002E469DB908E000BFDF
:102C600004F10800012103F03FFB05462E464DB953
:102C7000D8F82400216F20F0405000250843C8F800
:102C800024003E46E078C00733D0A06C032813D858
:102C9000DFE800F008021A08D8F8000040F400301D
:102CA000C8F80000A946BDB91AE000BF01250126F9
:102CB000E078C007E9D11CE001254FF00109A078B8
:102CC00040061AD51CE000BF04F10800022103F001
:102CD0000BFB0546A9461DB1A07840060DD50FE0B7
:102CE000D8F82000A16C20F0030000250843C8F8A4
:102CF0002000B146A078400602D44F4618E000BF3D
:102D0000D8F8D40340F48070C8F8D403FEF71CFD53
:102D1000064600BFD8F8D403C00507D4FEF714FD5B
:102D2000801B6428F6D90325032701E02F468DB1C7
:102D30002078C00761D0E06F4FEAF00005283BD84B
:102D4000DFE800F004404604040400BF002D2E46D6
:102D500046D149E0D8F84410D4F8B400414011F409
:102D6000407F11D0D8F84410D8F8442042F4803283
:102D7000C8F84420D8F8442021F4407122F480326D
:102D8000C8F84420C8F84410B0F5807F40F0E082D5
:102D9000FEF7DAFC064641F2883A0325032700BF16
:102DA000D8F84400800700F1D182FEF7CDFC801BEB
:102DB0005045F5D9BCE700BF0126012520788007E2
:102DC0001FD44CE004F10800012103F08DFA04E067
:102DD00004F12800012103F01BFB05462E461DB11E
:102DE000207880070DD43AE0D8F82800E16F20F071
:102DF000380000250843C8F828003E4620788007A0
:102E00002DD5A06F052809D8DFE800F0040E1404C2
:102E1000040400BF2F46ADB918E000BF012701250B
:102E2000207840071FD44DE004F10800012103F091
:102E30005BFA04E004F12800012103F0E9FA0546F9
:102E40002F461DB1207840070DD43BE0D8F828006C
:102E5000A16F20F0070000250843C8F82800374676
:102E6000207840072ED5D4F89400052808D8DFE84C
:102E700000F0030D130303032E46ADB918E000BFA5
:102E8000012601252078800620D451E004F10800B5
:102E9000012103F029FA04E004F12800012103F0E4
:102EA000B7FA05462E461DB1207880060ED43FE0C5
:102EB000D8F82C00D4F8941020F00700002508431F
:102EC000C8F82C003E462078800631D5D4F8900012
:102ED0004FEA3070052809D8DFE800F0040E14042A
:102EE000040400BF2F46ADB918E000BF012701253B
:102EF0002078400620D451E004F10800002103F0BE
:102F0000F3F904E004F12800022103F081FA0546F8
:102F10002F461DB1207840060ED43FE0D8F8280097
:102F2000D4F8901020F0E04000250843C8F82800AD
:102F300037462078400631D5D4F89C004FEAB020BF
:102F4000052809D8DFE800F0040E1404040400BFCB
:102F50002E46ADB918E000BF0126012520780006F5
:102F600020D454E004F10800002103F0BDF904E08E
:102F700004F12800022103F04BFA05462E461DB14C
:102F8000207800060ED442E0D8F82C00D4F89C102B
:102F900020F4E05000250843C8F82C003E46207875
:102FA000000634D5D4F8A0004FEA703005280FD8B9
:102FB000DFE800F004141A04040400BF2F46E5B152
:102FC0002068010727D4C1063ED4000355D475E01C
:102FD0000127012520680107F5D51CE004F1080050
:102FE000002103F081F904E004F12800022103F03C
:102FF0000FFA0546002D2F46E2D1D8F82C00D4F860
:10300000A01020F4604000250843C8F82C00374683
:1030100020680107D7D5D4F88410B1F5805F0AD1B4
:1030200004F12800022103F0F3F9002818BF01275A
:103030002068D4F88410D8F8282022F44052114394
:10304000C8F82810C106C0D5D4F89810B1F5807F13
:103050000AD104F12800022103F0DAF9002818BF90
:1030600001272068D4F89810D8F82C2022F4407258
:103070001143C8F82C10000320D5D4F8A400B0F5F3
:10308000003F0FD0B0F5803F06D078BB04F10800B8
:10309000002103F029F904E004F12800022103F0E3
:1030A000B7F905462E4655B9D8F82C00D4F8A41027
:1030B00020F4403000250843C8F82C003E46A07894
:1030C00040072BD5D4F88800B0F5401F0BD0B0F5E1
:1030D000001F11D0B0F5801F2AD1D8F8000040F4AD
:1030E0000030C8F800002F46CDB90DE001260125BB
:1030F000A0784007E6D411E004F12800012103F094
:1031000087F905462F4655B9D8F82800D4F8881015
:1031100020F4401000250843C8F828003746A0785E
:10312000C0070AD13E462168880016D533E000BFAB
:1031300001270125A078C007F4D0206DB0F5803FAD
:1031400010D018BBD8F8000040F40030C8F80000D8
:103150002E4685B1216888001DD460688A0326D474
:103160006BE000BF04F10800022103F0BDF8054642
:10317000002D2E46EED1D8F82000216D20F48030AD
:1031800000250843C8F82000CCE700BF0126012530
:1031900021688800E1D504F12800022103F038F904
:1031A000002818BF0126D4E900108A0345D5D4F8B9
:1031B00080206FF0010303EB3223022B0BD34FEA85
:1031C000322343B1012B40F0BB80D8F8003043F4E8
:1031D0000033C8F800304DB3CA0231D4CA0039D424
:1031E0008A0242D44A004AD4B1F1FF3F57DD0902B6
:1031F0005FD4C10768D1810771D441077BD401072F
:1032000000F18580C10600F18E80800607D504F1AB
:103210002800022103F0FCF8002818BF0125002D2A
:1032200018BF01252846BDE8F08700BFD8F8283030
:1032300023F440731A43C8F828203546CA02CDD576
:10324000D8F82420636F22F000421A43C8F82420E3
:10325000CA00C5D558F81C2CD4F8B83022F48042E6
:103260001A4348F81C2C8A02BCD5D8F82420E36EF7
:1032700022F080721A43C8F824204A00B4D558F8C6
:103280001C2C22F4004248F81C2CD4F8BC2058F81E
:103290001C3C1A4348F81C2CB1F1FF3FA7DCD8F8BE
:1032A0002020636D22F040521A43C8F82020090202
:1032B0009FD5D8F82810D4F88C2021F44001114370
:1032C000C8F82810C10796D004F10800002103F0C7
:1032D0000BF8002818BF0546606881078DD504F1FA
:1032E0000800012103F000F8002818BF05466068B7
:1032F00041077FF584AF04F10800022102F0F4FFDA
:10330000002818BF0546606801077FF57BAF04F110
:103310002800002103F07CF8002818BF05466068EB
:10332000C1067FF572AF04F12800012103F070F8A7
:10333000002818BF0546606880067FF570AF66E715
:103340000125CA027FF54AAF7AE700BFD4F8B4007E
:103350004FF6CF7358F81C2CC0F2FF0300F44071F5
:1033600022F47C5203EA10136FF31F30B1F5407F53
:1033700008BF1A43002548F81C2CD8F8441008430D
:10338000C8F84400FFF7B9BC2DE9F04381B000282C
:1033900000F02A8142F200080446C5F2002889465E
:1033A000D8F8000000F00F0088420ED2D8F80000D4
:1033B00020F00F0040EA0900C8F80000D8F800002B
:1033C00000F00F00484540F00F81206844F2184794
:1033D0004107C5F602070AD521693A6802F0700272
:1033E000914204D93A6822F0700211433960010712
:1033F0000AD561697A6802F07002914204D97A684C
:1034000022F0700211437960C1060AD5A1697A6879
:1034100002F4E062914204D97A6822F4E062114336
:10342000796081060AD5E169BA6802F070029142BA
:1034300004D9BA6822F070021143B96010F0020199
:103440000AD0E2683B6803F00F039A4204D93B6854
:1034500023F00F031A433A60C20746D0386820F4BD
:103460007061D4E90102012841EA0201396009D002
:1034700003280DD0022811D157F8181C890340F1F8
:10348000B38010E057F8181CC90540F1AD800AE080
:1034900057F8181C890140F1A78004E057F8181C60
:1034A000490740F1A18057F8081C21F007010843A3
:1034B00047F8080CFEF748F9064641F2883500BF88
:1034C00057F8080C616800F03800B0EBC10F09D064
:1034D000FEF73AF9801BA842F2D9032001B0BDE8FB
:1034E000F08300BF206800F0020151B1E1683A6842
:1034F00002F00F02914204D23A6822F00F02114307
:103500003960D8F8001001F00F0149450DD9D8F8FD
:10351000001021F00F0141EA0901C8F80010D8F8A5
:10352000001001F00F0149455ED141070AD521691C
:103530003A6802F07002914204D23A6822F07002B6
:103540001143396001070AD561697A6802F0700297
:10355000914204D27A6822F0700211437960C10668
:103560000AD5A1697A6802F4E062914204D27A68CD
:1035700022F4E0621143796080060AD5E069B968F7
:1035800001F07001884204D2B96821F0700108434B
:10359000B86000F0E1F8396849F20C533A68C0F6B7
:1035A0000003C1F3032102F00F02595C9A5C01F0A1
:1035B0001F0120FA01F102F01F0040F20C0221FA73
:1035C00000F0C2F20042106040F2040040F2080233
:1035D000C2F20040C2F200420068116001B0BDE8D2
:1035E000F043FEF775BA00BF012001B0BDE8F083DB
:1035F0003F22026044F21842C5F6020252F8083C2B
:1036000003F007034360136803F470638360136877
:1036100003F00F03C360136803F070030361536882
:1036200003F070034361536803F4E06383619268BD
:1036300002F07002C26142F20000C5F20020006890
:1036400000F00F000860704780B500F085F844F284
:10365000184149F20C53C5F60201C0F600030A688E
:10366000096801F00F01C2F30322595C9A5C02F071
:103670001F0220FA02F201F01F0040F20C0122FAB0
:1036800000F0C2F20041086040F20801C2F20041BD
:103690000A6080BD0000000080B500F05DF844F2D3
:1036A000184C49F20C51C5F6020CC0F60001DCF8CA
:1036B0000020DCF8003003F00F03C2F30322CB5CE0
:1036C0008A5C02F01F02D04003F01F0240F20C039C
:1036D00020FA02F2C2F200431A6040F20803C2F27A
:1036E00000431860DCF80400C0F30210085C00F02E
:1036F0001F0022FA00F080BD80B500F02DF844F2E2
:10370000184C49F20C51C5F6020CC0F60001DCF869
:103710000020DCF8003003F00F03C2F30322CB5C7F
:103720008A5C02F01F02D04003F01F0240F20C033B
:1037300020FA02F2C2F200431A6040F20803C2F219
:1037400000431860DCF80400C0F30220085C00F0BD
:103750001F0022FA00F080BD44F23041C5F602019C
:1037600051F8200CC0F3C200032813D002283FD028
:10377000002843D151F8300C800649F20000C0F215
:10378000D03058BF704751F8301CC1F3C101C84058
:10379000704700BF51F8082C51F8080CC0F3051C05
:1037A00051F8040CBCF1000F4B682DD0C3F3CC03CF
:1037B00000F00100584302F00302022A00EE100A52
:1037C000B8EE400A30D0012A20D0FAB951F8300CB6
:1037D00080064DD408689FED382A6FF35F2001EE14
:1037E000100AB8EE411AA0EE021A9FED360A28E040
:1037F00047F64000C0F27D10704700BF40F6001051
:10380000C0F23D00704700BF0020704708689FED80
:103810002A2A6FF35F2001EE100AB8EE411AA0EEDB
:10382000021A9FED270A0CE008689FED232A6FF328
:103830005F2001EE100AB8EE411AA0EE021A9FEDC9
:103840001F0AA1EE000A01EE10CAB8EE411A08687C
:1038500080EE010AC0F34620013001EE100AB8EEF6
:10386000411A80EE010ABCEEC00A10EE100A704741
:10387000B7EE001A51F8300C0A689FED0F2A6FF36B
:103880005F22C0F3C100A0EE021A00EE102A49F236
:103890000002C0F2D03222FA00F0B8EE400A02EE86
:1038A000100AB8EE422A31EE000A01EE10CAB8EE54
:1038B000411A20EE020ACAE70000003920BCBE4BC4
:1038C0000024744A0024744CF0B581B0002800F044
:1038D00063810446007844F20046C007C5F602063C
:1038E00022D12078800740F1BC80306910F0380187
:1038F000B06A3FD0182908BF5FEA80703AD0E0680C
:103900003168002862D021F0190108433060FDF7CA
:103910001BFF05463068400748D4FDF715FF401BE4
:103920000228F7D977E100BF306900F03801B06AAA
:10393000102905D018290BD100F00300022807D167
:1039400030688003CDD560680028CAD124E100BF6B
:10395000606800284CD0B0F5A02F61D0B0F5803F52
:1039600062D0306820F480303060306820F48020ED
:103970005DE000BF30684007E06802D5002800F035
:103980000B81316821F0190108433060FDF7DCFE3E
:10399000054600BF3068400708D4FDF7D5FE401B40
:1039A00002284FF00300F5D921E200BFFDF7C4FE65
:1039B00041F20301884249D820697168402821F406
:1039C0007C314BD141F400304AE000BF21F00100CE
:1039D0003060FDF7B9FE05463068400741D5FDF778
:1039E000B3FE401B02284FF00300F5D9FFE100BFF2
:1039F000306820F480303060306820F480203060FF
:103A0000FDF7A2FE054600BF306880037FF569AF71
:103A1000FDF79AFE401B64284FF00300F4D9E6E15D
:103A2000306840F480203060306840F4803030608E
:103A3000FDF78AFE054600BF306880033FF551AFB1
:103A4000FDF782FE401B6428F6D9E4E07068216926
:103A500020F0FE4040EA016002E000BF41EA003091
:103A600070602078C00654D5306900F03801B06A23
:103A7000082905D0182919D100F00300012815D113
:103A80003068C00503D5E069802840F08580FDF7E7
:103A900053FE41F2030188421ED8206A7168202833
:103AA00021F0F84132D141F0804031E0E069002856
:103AB000306819D040F080003060FDF745FE0546C3
:103AC0003068C005E3D4FDF73FFE401B02284FF0ED
:103AD0000300F5D98BE100BFF068216A20F07C502B
:103AE00040EA0160F06014E020F080003060FDF7F3
:103AF0002BFE05463068C0050BD5FDF725FE401BA3
:103B000002284FF00300F5D971E100BF41EA80605F
:103B100070602078000743D42078800654D4207841
:103B2000400765D4656A9DB3306900F038001828F5
:103B300040F0A880012DB16A306B2DD001F0030256
:103B4000A36A9A4228D1C1F30511E26A914223D1B6
:103B50000146226B6FF35F21013A91421CD1C0F301
:103B60004622616B01398A4216D1C0F30642A16B2D
:103B700001398A4210D1C0F30660E16B01398842F5
:103B80000AD1706BA16CC0F3CC00814240F032814D
:103B9000002001B0F0BD00BF012001B0F0BD00BFAA
:103BA00060690028706F39D040F001007067FDF740
:103BB000CBFD0546706F8007AED4FDF7C5FD401BF9
:103BC0000228F7D927E000BFA0690028306847D055
:103BD00040F480503060FDF7B7FD05463068800442
:103BE0009DD4FDF7B1FD401B0228F7D913E000BFBB
:103BF000D6F8000440F48070C6F80004FDF7A4FD78
:103C0000054600BFD6F80004C00519D4FDF79CFD99
:103C1000401B6428F6D9032001B0F0BD20F001005C
:103C20007067FDF791FD0546706F80077FF574AFF3
:103C3000FDF78AFD401B02284FF00300F4D9D6E0BF
:103C4000A068002840D0052858D001285AD0306FED
:103C500020F001003067306F20F0040055E000BF15
:103C600020F480503060FDF76FFD05463068800419
:103C70007FF555AFFDF768FD401B02284FF00300AC
:103C8000F4D9B4E0306820F080703060FDF75CFD5E
:103C9000022D05460CD100BF3068800148D5FDF7E4
:103CA00053FD401B02284FF00300F5D99FE000BFF1
:103CB000306880017FF56CAFFDF746FD401B0228A0
:103CC0004FF00300F4D992E0306F20F0010030672C
:103CD000306F20F004003067FDF736FD054641F2F5
:103CE0008837306F80077FF51DAFFDF72DFD401B36
:103CF000B8424FF00300F4D979E000BF306F40F0D4
:103D000004003067306F40F001003067FDF71CFDA4
:103D1000054641F2883700BF306F80073FF502AF9C
:103D2000FDF712FD401BB8424FF00300F4D95EE0EE
:103D300004F12807B06A40F2F33188438ECF08437C
:103D4000591E40EA02104FF47E426FF35F21B062C9
:103D500002EB47204FF4FE0280B2E36B0844A16BF4
:103D600002EB01414FF0FE4201F4FE0102EB03625F
:103D7000084402F0FE4108443063F06A4FF6F871DF
:103D800020F00100F062706BA26C884340EAC20030
:103D90007063F06A216C20F00C000843F062F06A56
:103DA000616C20F002000843F062F06A40F4803059
:103DB000F062F06A40F40030F062F06A40F4802073
:103DC000F062F06A40F00100F062306840F080700C
:103DD0003060FDF7B9FC0446306880013FF5D8AE8D
:103DE000FDF7B2FC001B02284FF00300F4D901B02C
:103DF000F0BD00BFF06A20F00100F062FDF7A4FC06
:103E00000546FDF7A1FCA842FBD0706B4FF6F87198
:103E1000A26C884340EAC2007063F06A40F001007F
:103E2000F062002001B0F0BD2DE9F047002858D025
:103E300043F6000304460068C4F2000343F2000E98
:103E400043F6004C9842C4F2010EC4F2000C4FF04D
:103E50000001A16203D0604518BF70453ED1E16BFF
:103E60000122E568984202EB511105F108024FEA80
:103E7000D20202FB01F118BF704525D1102930D8BC
:103E800094F8811031B9002084F88000204600F0B9
:103E90009FF82068022184F88110016821F0010157
:103EA00001608168D4F81880B8F1806F01F4F81EC1
:103EB000D4F804A020D1BAF1000F15D0BAF5800FC4
:103EC0001AD1A36B03BB13E0604518BF082908D8BB
:103ED000704518BF6045D1D0D2E700BFE1680F2917
:103EE000BDD90120BDE8F087A36BB3F1805F06D197
:103EF000036843F4805303605FEA4A2304D4D4F890
:103F00000C904FF0010C0FE0D4F80C90B9F1070FB2
:103F100008D3056825F4807C256D45EA0C054FF033
:103F2000000C04E04FF0000C056825F48075056076
:103F3000BAF1000FE769A26A47EA0E07E36B42EAAB
:103F40000702A56842EA03022669676942EA090294
:103F500082604AEA0803626B616A42EA0302A36B69
:103F600041EA020141EA0301226A41EA0601E36CE7
:103F700041EA070141EA0201A26C41EA0301A36D93
:103F800041EA050141EA020141EA0301C16009D1A8
:103F90008168012262F3CC2181608168022262F390
:103FA0004A218160016DBCF1000F21F00101016522
:103FB00005D1C168626D21F000411143C16000204C
:103FC000C4F88400012184F88110BDE8F087000066
:103FD000F0B5B7B000210446CDE93511CDE9331174
:103FE000329102A8C021FCF78CFA43F2FF3120681D
:103FF000C4F20101884245DC43F60041C4F20001ED
:1040000088427DD043F20001C4F20101884240F0B1
:10401000D18044F2E04041F60004C5F60200C5F646
:104020000204022500260169052741F4805101613F
:10403000016901F4805101910199016841F0080181
:104040000160016801F0080101910199016841F0E6
:1040500040010160006832A900F040000190019821
:1040600080203290A4F540603395CDE934663697D0
:10407000FDF76EFA32A94FF40060CDE9356761C1F2
:1040800094E000BF43F20041C4F2010188425DD0D8
:1040900041F20041C5F60001884240F08B804FF4A8
:1040A0008040029002A8002403942E94FEF7CCFBDB
:1040B00008B1FCF75DFB44F2E040C5F6020041693F
:1040C00041F020014161416901F020010191019914
:1040D000016841F040010160006800F0400001907B
:1040E00001984FF4E04032900220CDE9330435943A
:1040F00041F6000405203690C5F6020456E000BFE4
:1041000044F2E040C5F60200816841F4004181605C
:10411000816801F4004101910199016841F00401B5
:104120000160006841F6000100F004000190C5F64E
:10413000020101984FF4E0503290022033900020A9
:10414000A1F58054CDE9340006202EE04FF4005054
:10415000029002A8002403941B94FEF775FB08B19B
:10416000FCF706FB44F2E040C5F60200016941F4A9
:1041700000510161016901F4005101910199016847
:1041800041F010010160006841F6000100F01000EC
:104190000190C5F602010198642032900220359406
:1041A000CDE93304A1F500640520369032A92046FC
:1041B000FDF7CEF937B0F0BD7047000000000000F9
:1041C0007047000000000000704700000000000081
:1041D000B0B590F83C20012A02D10220B0BD00BF4A
:1041E000CB6848F2FF7ED1E901C223F47C5322F46C
:1041F0007052CFF6F07E1A430CEA0E03D1F800C0DD
:1042000042EA030E2CF477230A6943EA0E0322F4F0
:104210007622D0F800E01A434B691A438B6A22F4E5
:10422000742C23F470238A6940F200454EF48064B4
:10423000C4F2010543EA0C03AC4243EA02430FD146
:10424000002523F07C724B6ACFF6F045CC6905EA75
:1042500003531A4324F00073096A1A4342EA010324
:104260000021CEF8443080F83C100846B0BD000074
:10427000B0B590F83C20012A4FF002025BD080F8E4
:104280003D2040F2004C0268C4F2010C42F480630D
:1042900063455368D2F808E002BF23F470034C680A
:1042A000234341F2FF740D68C4F2000423F070034D
:1042B000A24243EA050353600CDC40F2FF73C4F2F0
:1042C00000039A4216DCB2F1804F29D040F200433D
:1042D00018E000BF40F2FF33C4F201039A4217DC3A
:1042E00041F60003C4F200039A4219D00023C4F23D
:1042F000010309E040F60003C4F200039A420FD024
:1043000040F60043C4F200039A4209D00DE000BF1A
:1043100044F20003C4F201039A4201D0624504D181
:104320002EF080038968194391600022012180F8F2
:104330003D1080F83C201046B0BD00000000000099
:1043400060B310B5044690F83D0028B9002084F809
:104350003C00204600F024F8022084F83D0020684C
:10436000211D02F025FA012084F8480084F83E005F
:1043700084F83F0084F8400084F8410084F842004B
:1043800084F8430084F8440084F8450084F846002B
:1043900084F8470084F83D00002010BD01207047DC
:1043A00081B000210068C4F20101884202D001B04E
:1043B000704700BF44F2F040C5F60200016841F0CA
:1043C00001010160006800F001000090009801B058
:1043D000704700000000000090F83D1001291BD13B
:1043E000022180F83D10016841F2FF70C4F2000024
:1043F0008142C86840F00100C8600FDC40F2FF70E5
:10440000C4F20000814217DCB1F1804F2CD040F2A1
:104410000040C4F2000025E00120704740F2FF3068
:10442000C4F20100814213DC41F60000C4F2000036
:10443000814219D0002013E040F60000C4F20000D1
:10444000814211D040F60040C4F200000AE000BFF3
:1044500044F20000C4F20100814205D040F2004065
:10446000C4F2010081420BD107228868C0F2010228
:1044700002400020062A18BFB2F5803F00D17047E5
:10448000086840F00100086000207047000000004C
:1044900080B590F83C20012A4FF0020200F0A7807E
:1044A00080F83D208822D0F800C0CFF6CE72DCF82C
:1044B00008301A40CCF808200B686F2B0EDDB3F1E2
:1044C000101F37DAB3F5005F46DA702B00F09280E8
:1044D000B3F5805F00F08480D6E000BF2F2B33DD82
:1044E0004F2B3FDC302B6FD0402B40F0CD80D1F8EC
:1044F00004E0C968DCF82030DCF8202022F001025A
:10450000CCF82020DCF8182022F0F00242EA011159
:1045100023F00A02CCF8181042EA0E01CCF8201061
:104520004FF68872DCF80810CFF6CF721140473191
:1045300054E000BF2F21C0F210018B423ADCB3F1EE
:10454000101F41D020213BE0002B18BF102B3BD087
:10455000202B39D098E000BF60D0B3F5801F33D056
:1045600092E000BF502B6DD0602B40F08D80D1F8D1
:1045700004E0C968DCF82030DCF8202022F01002CA
:10458000CCF82020DCF8182022F4704242EA0131F5
:1045900023F0A002CCF8181042EA0E11CCF820103B
:1045A0004FF68872DCF80810CFF6CF7211406731F1
:1045B00014E000BF3021C0F210018B4204D0402132
:1045C000C0F210018B425FD14FF68872DCF8081000
:1045D000CFF6CF721140194341F00701CCF8081013
:1045E0000022012180F83D10002180F83C10104687
:1045F00080BD00BFD1E901E3C968DCF8082043EAC7
:104600000E0322F47F4243EA01211143CCF8081043
:10461000DCF8081041F07701E0E700BFD1E901E3E1
:10462000C968DCF8082043EA0E0322F47F4243EA1B
:1046300001211143CCF80810DCF8081041F4804146
:10464000CCE700BFD1F804E0C968DCF82030DCF822
:10465000202022F00102CCF82020DCF8182022F0E3
:10466000F00242EA011123F00A02CCF8181042EAE3
:104670000E01CCF820104FF68872DCF80810CFF647
:10468000CF7211405731A9E70122AAE700000000CC
:10469000002857D02DE9F04381B0044690F83D0042
:1046A0000D4628B9002084F83C00204600F04CF864
:1046B000022084F83D0020684BF6F872CFF6FE72B7
:1046C000816811408160211D02F072F820684FF668
:1046D000FF79D0F808808269D0F820C0AF69D5E9A9
:1046E000026122EA090246EA07264FF6FC47BE436A
:1046F000EF6911432A6931432E6A41EA07216F6944
:10470000D5E9003E41EA02112CF0AA0242EA0E026B
:1047100043EA080341EA06318360816142EA0711F6
:104720000162012084F8480084F83E0084F83F00CC
:1047300084F8440084F8450084F83D00002001B06E
:10474000BDE8F0830120704780B586B040F6FF32A7
:104750000068C4F20002002190420591CDE90311E6
:10476000CDE901112CDC40F20041C4F20001884285
:1047700052D040F60001C4F20001884240F091801E
:1047800044F2E040C5F60200816841F00401816016
:10479000816801F0040100910099016841F008016D
:1047A00001600068022100F00800009000984FF4BA
:1047B000405001900020C5F6020000F5406067E01F
:1047C00040F60041C4F20001884245D040F2004169
:1047D000C4F20101884264D144F2E040C5F602000F
:1047E000016941F002010161016901F002010091DA
:1047F0000099016841F0040101600068032100F0A4
:10480000040000900098C02001900020C5F602002E
:1048100000F500603CE000BF44F2E040C5F6020055
:10482000816841F002018160816801F0020100911C
:104830000099016841F0020101600068022100F066
:10484000020000900098302001900020C5F6020080
:1048500000F580601CE000BF44F2E040C5F60200B5
:10486000816841F008018160816801F008010091D0
:104870000099016841F0010101600068022100F027
:10488000010000900098032001900020C5F602006E
:10489000059101A9022202920022CDE90322FCF730
:1048A00057FE06B080BD0000704700000000000009
:1048B000F0B581B004460068C768066906EA0705D6
:1048C000A9071BD468072FD4280745D4E8065BD472
:1048D000E80772D117F0800718BF16F402507AD19A
:1048E000002F18BF16F4807040F08280680600F137
:1048F0008980A80600F1908001B0F0BD6FF0020140
:104900000161012121778069800703D02046FFF7EC
:10491000CBFF05E0204600F0EBF8204600F094FBCA
:10492000002020776807CFD520686FF0040101616F
:1049300002212177806910F4407F03D02046FFF7E1
:10494000B3FF05E0204600F0D3F8204600F07CFBE2
:10495000002020772807B9D520686FF00801016191
:1049600004212177C069800704D02046FFF79CFF0F
:1049700006E000BF204600F0BBF8204600F064FBD4
:1049800000202077E806A3D520686FF010010161B0
:1049900008212177C06910F4407F03D02046FFF73B
:1049A00083FF05E0204600F0A3F8204600F04CFB12
:1049B00000202077E8073FF48DAF20686FF00101F9
:1049C0000161204600F044FB17F0800718BF16F481
:1049D00002503FF485AF20686FF402510161204618
:1049E000FFF7EEFB002F18BF16F480703FF47EAF88
:1049F00020686FF4807101612046FFF7DDFB6806D7
:104A00007FF577AF20686FF040010161204600F02C
:104A10002BFBA8067FF570AF20686FF020010161C5
:104A2000204601B0BDE8F040FFF7CEBB000000001B
:104A300070B586B000680025B0F1804F0595CDE9CE
:104A40000355029501951FD00021C4F2010188424F
:104A50004BD144F2E040C5F60200016841F010017C
:104A600001600068002100F010000090C5F602010E
:104A700000984FF4D440019002200290002003904F
:104A8000049001F580502BE044F2E0400024C5F68C
:104A90000200C5F602040226016841F0010101602E
:104AA000016801F0010100910099016841F00201E3
:104AB0000160006801A900F00200009000982C201D
:104AC0000190012005902046CDE902650495FCF790
:104AD0003FFD0820CDE9010604F58060CDE90355CE
:104AE0000121059101A9FCF733FD06B070BD00005E
:104AF00070470000000000002DE9F04190F83C30C4
:104B0000012B03D10220BDE8F08100BF4FEAB202C1
:104B1000052A31D8DFE812F0060038007600B4002C
:104B2000DA000001036843F6FF76C4F201061C6A4E
:104B3000B3421A6A24F0020422F001021A621A46F1
:104B4000D3F804E052F818CF8D6844EA0504D1F890
:104B5000008040F3078144F20007C4F20107BB4222
:104B600000F00B8144F60007C4F20107BB4200F0DD
:104B7000048144F20047FCE00121002280F83C203F
:104B80000846BDE8F08100BF036840F2004E43F4E0
:104B90008067C4F2010E1C6A77451A6A24F020046B
:104BA00022F010021A621A465D6852F818CF8E6819
:104BB00044EA061407D1CE686FF0400724F0C00421
:104BC00007EA0616344343F6FF76D1F80080C4F2B4
:104BD0000106B34240F3EC8044F20007C4F201073F
:104BE000BB4200F0EC8044F60007C4F20107BB4270
:104BF00000F0E58044F20047C4F20107BB4200F038
:104C0000DE80E4E0036840F2004E43F48067C4F2C3
:104C1000010E1C6A77451A6A24F4007422F480722B
:104C20001A621A465D6852F81CCF8E6844EA062460
:104C300007D1CE6840F2FF47360224F44064BE43F9
:104C4000344343F6FF76D1F80080C4F20106B34244
:104C500040F3D48044F20007C4F20107BB4200F0E5
:104C6000D48044F60007C4F20107BB4200F0CD80B7
:104C700044F20047C4F20107BB4200F0C680CCE01A
:104C8000036843F6FF77C4F20107D3F820C0BB42A4
:104C90001A6A22F480521A621A465C6852F81C6F33
:104CA0000D68D1F808E040F3CF8044F20007C4F269
:104CB0000107BB4200F0D38044F60007C4F20107AD
:104CC000BB4200F0CC8044F20047C4E0036843F6E6
:104CD000FF77C4F20107D3F820C0BB421A6A22F45E
:104CE00080321A621A465C6852F8546F0D68D1F827
:104CF00008E040F3D38044F20007C4F20107BB424E
:104D000000F0D78044F60007C4F20107BB4200F070
:104D1000D08044F20047C8E0036843F6FF77C4F24E
:104D20000107D3F820C0BB421A6A22F480121A622B
:104D30001A465C6852F8546F0D68D1F808E040F3E9
:104D4000D98044F20007C4F20107BB4200F0DD80C5
:104D500044F60007C4F20107BB4200F0D68044F2DB
:104D60000047CEE00027C4F20107BB4205D040F265
:104D70000047C4F20107BB4205D1CF6824F00C0400
:104D800027F004073C43B34240F3E28044F20006BC
:104D9000C4F20106B34200F0E68044F60006C4F215
:104DA0000106B34200F0DF8044F20046D7E000BFC6
:104DB0000027C4F20107BB4201D0734507D14F69F8
:104DC00025F440658E6945EA870747EA860548F677
:104DD000FF475D60CFF6FF6707EA0C0747EA082741
:104DE0009F614F6809699F631C629F6947F4006770
:104DF0009F619F6927F480679F61A6E00027C4F246
:104E00000107BB4201D0734507D14F6925F44055D6
:104E10008E6945EA071747EA06154FF68C775D60FD
:104E2000CFF6FE7707EA0C0747EA0807DF614F680D
:104E30000969DF631C62DF6947F00807DF61DF692A
:104E400027F00407DF61ACE00027C4F20107BB4292
:104E500005D040F20047C4F20107BB4204D14F69BC
:104E600024F4804444EA871448F6FF475C60CFF698
:104E7000FF673E402CF4005746EA0524DC614E688B
:104E800009691E6447EA0E371F62DF6947F400674D
:104E9000DF61DF6927F48067DF6156E00027C4F235
:104EA0000107BB4205D040F20047C4F20107BB42F4
:104EB00004D14F6924F4803444EA07244FF68C77F8
:104EC0005C60CFF6FE7703373E402CF4003746EAAD
:104ED00005045C654E6809699E6547EA0E471F62D6
:104EE0005F6D47F008075F655F6D27F004075F653A
:104EF00057E000BF0027C4F20107BB4205D040F2D3
:104F00000047C4F20107BB4204D14F6924F4802456
:104F100044EA872448F6FF475C60CFF6FF6707F551
:104F200040773E402CF4001746EA05245C654E6845
:104F30000969DE6547EA0E571F625F6D47F4006737
:104F40005F655F6D27F480675F65090229E000BF38
:104F50000026C4F20106B34205D040F20046C4F276
:104F60000106B34206D12EF44077D1E905653743F7
:104F700047EA050E4FF68C75C3F804E0CFF6FE75D0
:104F80000CEA050747EA08079F614F6809695F63F4
:104F90001C629F6947F008079F619F6927F004071B
:104FA0009F611368194311600021002280F83C20A2
:104FB0000846BDE8F081000060B310B5044690F8E3
:104FC0003D0028B9002084F83C00204600F024F879
:104FD000022084F83D002068211D01F0E9FB01203A
:104FE00084F8480084F83E0084F83F0084F84000CC
:104FF00084F8410084F8420084F8430084F84400B7
:1050000084F8450084F8460084F8470084F83D00A1
:10501000002010BD0120704781B00068B0F1804FC2
:1050200002D001B0704700BF44F2E840C5F602006C
:10503000016841F001010160006800F0010000908A
:10504000009801B0704700007047000000000000A9
:1050500041F200010068C4F20001884218BF7047A5
:10506000FCF7F2BC000000007047000000000000E8
:1050700090F88410012901D1022070472421C0F842
:10508000881002681368116823F0005321F00101B1
:1050900011600021416613602022C0F8882080F84A
:1050A000841008467047000070B590F88420012AEB
:1050B00002D1022070BD00BF2422C0F888200268FF
:1050C000D0F864E0BEF1000FD2F800C0136823F0FE
:1050D00001031360936823F0606341EA0301916068
:1050E0001AD0916849F2345E9368C0F6000E5B0FE7
:1050F00049F23C55C1F34266C0F600051EF8034074
:10510000E95C2301B3FBF1F11EF80630AE5D1B0133
:10511000B3FBF6F302E000BF01210123A0F86A10FF
:105120002021A0F86830C2F800C0C0F88810002123
:1051300080F88410084670BD70B590F88420012A6C
:1051400002D1022070BD00BF2422C0F8882002686E
:10515000D0F864E0BEF1000FD2F800C0136823F06D
:1051600001031360936823F0604341EA03019160F7
:105170001AD0916849F2345E9368C0F6000E5B0F56
:1051800049F23C55C1F34266C0F600051EF80340E3
:10519000E95C2301B3FBF1F11EF80630AE5D1B01A3
:1051A000B3FBF6F302E000BF01210123A0F86A106F
:1051B0002021A0F86830C2F800C0C0F88810002193
:1051C00080F88410084670BD10B5E0B10446D0F8F0
:1051D000880028B9002084F88400204600F028F8D0
:1051E0002420C4F888002068A16A0268002922F0FF
:1051F0000101016002D0204601F08EFB204601F043
:10520000B7FC012802D1012010BD00BF2068416811
:1052100021F490414160816821F02A018160016898
:1052200041F0010101602046BDE8104001F0E4BBFF
:1052300070B5B8B000210446CDE93611CDE934117E
:10524000339102A8C021FBF75CF947F2FF71206897
:10525000C4F20001884257DC44F20041C4F200016C
:10526000884200F0918044F60001C4F200018842B7
:1052700000F0BA8045F20001C4F20001884240F01B
:105280003D8102A800250395022602962095FDF790
:10529000DBFA08B1FBF76CFA44F2E04040F200445C
:1052A000C5F60200C5F60204816841F480118160F0
:1052B000816801F4801101910199016841F00801B0
:1052C0000160016801F0080101910199016841F054
:1052D00002010160006833A900F00200019001980A
:1052E0000420CDE933060820379004F50060CDE9AD
:1052F0003555FCF72DF94020CDE93306CDE935557C
:105300000E203790F6E000BF47F60001C4F200011E
:10531000884200F0978047F60041C4F200018842BD
:1053200000F0BA8041F20001C4F20101884240F06D
:10533000E5800120029002A8002403942194FDF747
:1053400083FA08B1FBF714FA44F2E040C5F6020014
:10535000016941F010010161016901F01001019141
:105360000199016841F002010160006800F002004B
:10537000019001984FF4404033900220CDE934046D
:105380003694042058E000BF02A8002403940225AC
:1053900002952094FDF758FA08B1FBF7E9F944F2B9
:1053A000E040C5F60200816841F400318160816807
:1053B00001F4003101910199016841F00801016097
:1053C000006840F2004100F008000190C5F60201BB
:1053D00001986020CDE93305CDE9354407203790A9
:1053E00001F5006486E000BF02A8002403940225B2
:1053F00002952094FDF728FA08B1FBF7B9F944F2B9
:10540000E040C5F60200816841F480218160816836
:1054100001F4802101910199016841F002010160CC
:10542000006800F00200019001984FF44060CDE95F
:1054300033050720CDE9354440F200443790C5F6E6
:10544000020457E002A80024039402250295209448
:10545000FDF7FAF908B1FBF78BF944F2E040C5F625
:105460000200816841F080418160816801F08041E3
:1054700001910199016841F010010160006800F09C
:105480001000019001984FF4C070CDE9330507205A
:10549000CDE9354427E000BF02A80024039402258B
:1054A00002952094FDF7D0F908B1FBF761F944F2B9
:1054B000E040C5F60200816841F0004181608168EA
:1054C00001F0004101910199016841F01001016072
:1054D000006800F01000019001980320CDE9330529
:1054E000CDE93544082040F200413790C5F602016D
:1054F00001F5406433A92046FCF72AF838B070BDA6
:10550000FEE7000000000000B0B58AB040F28C1445
:1055100042F20000C2F20044C4F202000025206002
:10552000042020610120A061E0632046CDE90855F8
:10553000CDE90655CDE90455CDE90255CDE9005533
:10554000E560A582257784F83850C4E90955C4E997
:105550000B556563FBF764FB08B1FBF709F94FF4E2
:105560008020C4E901052046FBF75AFB08B1FBF790
:10557000FFF840F28C1007A9C2F200400024079403
:10558000FBF7FEF808B1FBF7F3F804206946C0F614
:105590006000009006208DF81940CDE9010400203C
:1055A000C4F2FF7003900420CDE9040440F28C1093
:1055B000C2F20040FBF740F908B1FBF7D9F80AB096
:1055C000B0BD000000000000B0B588B040F2F0149B
:1055D00042F20010C2F20044C4F202000025079516
:1055E0002060042020610120A061E0632046CDE915
:1055F0000555CDE90355CDE90155E560A58225772F
:10560000C4E90955C4E90B55656384F83850FBF7C4
:1056100007FB08B1FBF7ACF84FF48020C4E90105A3
:105620002046FBF7FDFA08B1FBF7A2F8042040F290
:10563000FF71C0F6600001900620029000200390E8
:1056400004910421CDE905108DF81D0040F2F01001
:10565000C2F2004001A9FBF7EFF808B1FBF788F8A8
:1056600008B0B0BD0000000080B540F254204AF2FE
:105670000001C2F20040C4F20001102202230160C6
:105680000021C0E90211C0F80F10426101228261BD
:10569000C0E90733C0E90922C0E90B22C0E90D11B6
:1056A000C0E90F110422C0E91121C0E91321C0E9AA
:1056B0001521C0E91711C0E91912FBF7D1FC002828
:1056C00008BF80BDBDE88040FBF752B80000000075
:1056D00080B540F2F4204AF20041C2F20040C4F228
:1056E00000011022022301600021C0E90211C0F86C
:1056F0000F10426101228261C0E90733C0E909222B
:10570000C0E90B22C0E90D11C0E90F110422C0E964
:105710001121C0E91321C0E91521C0E91711C0E921
:105720001912FBF79DFC002808BF80BDBDE8804032
:10573000FBF71EB80000000080B546F2695049F240
:105740004452C0F60000C0F60002002101F080FFC4
:1057500040F28811C2F20041086080BD00000000E4
:1057600080B586B044F2E040C5F60200016841F021
:1057700010010160016801F01001019101990168B7
:1057800041F004010160016801F0040101910199F7
:10579000016841F020010160016801F020010191E0
:1057A0000199016841F080010160016801F0800108
:1057B00001910199016841F001010160016801F066
:1057C000010101910199016841F002010160016844
:1057D00001F0020101910199016841F008010160A5
:1057E000016801F0080101910199016841F040014F
:1057F0000160006801A900F04000019001984FF499
:10580000E0500190022002900020CDE903000A2020
:1058100005900020C5F60200FBF79AFE06B080BD99
:1058200080B540F2943045F20041C2F2004044F6A7
:105830006C02C4F20001C0F24002C0E90012002173
:1058400081600122C0E90321C0E90511C0E9071107
:10585000FBF7CEFF08B1FAF78BFF40F2943000213E
:10586000C2F20040FBF778FF08B1FAF781FF40F27F
:1058700094300021C2F20040FBF796FF002808BFD9
:1058800080BDBDE88040FAF773BF00000000000053
:1058900080B540F2E83045F60001C2F2004049F61A
:1058A000CE72C4F20001C0F29002C0E900120021E1
:1058B00081600122C0E90321C0E90511C0E9071197
:1058C000FBF796FF08B1FAF753FF40F2E8300021EA
:1058D000C2F20040FBF740FF08B1FAF749FF40F27F
:1058E000E8300021C2F20040FBF75EFF002808BF4D
:1058F00080BDBDE88040FAF73BBF0000000000001B
:1059000080B540F23C4045F60041C2F2004049F605
:10591000CE72C4F20001C0F29002C0E90012002170
:1059200081600122C0E90321C0E90511C0E9071126
:10593000FBF75EFF08B1FAF71BFF40F23C40002185
:10594000C2F20040FBF708FF08B1FAF711FF40F27E
:105950003C400021C2F20040FBF726FF002808BFB0
:1059600080BDBDE88040FAF703BF000000000000E2
:1059700080B540F2904041F60041C2F2004049F645
:10598000CE72C5F60001C0F29002C0E900120021FB
:1059900081600122C0E90321C0E90511C0E90711B6
:1059A000FBF726FF08B1FAF7E3FE40F29040002132
:1059B000C2F20040FBF7D0FE08B1FAF7D9FE40F280
:1059C00090400021C2F20040FBF7EEFE002808BF25
:1059D00080BDBDE88040FAF7CBBE000000000000AB
:1059E00080B540F2E44045F20001C2F20040C5F249
:1059F000002100220160FF21416001218160C0E996
:105A00000321C0E90522C0E90722FCF745F9002877
:105A100008BF80BDBDE88040FAF7AABE00000000C4
:105A200010B540F2305443F20000C2F20044C4F218
:105A300001004FF0806120604FF4800060604FF4FF
:105A40000030A0600320E0600020C4E90400A161F0
:105A50004FF08051C4E90710C4E90900E0624FF03B
:105A60008040606304F138002421FAF74AFD2046A3
:105A7000FEF7DAF9002808BF10BDBDE81040FAF7BC
:105A800077BE00000000000010B540F2B85443F6A5
:105A90000040C2F20044C4F20000032120604FF431
:105AA000800060600020A060C4E9031060614FF0D6
:105AB0008061A1614FF08051C4E90710C4E9090079
:105AC000E0624FF08040606304F138002421FAF76F
:105AD00018FD2046FEF7A8F9002808BF10BDBDE854
