:020000040800F2
:10000000285B002465030008816000081153000884
:10001000796000089107000849710008000000009D
:100020000000000000000000000000005163000814
:100030009907000800000000916000088163000833
:100040007F0300087F0300087F0300087F03000888
:100050007F0300087F0300087F0300087F03000878
:100060007F0300087F0300087F0300087F03000868
:100070007F0300087F0300087F0300087F03000858
:100080007F0300087F0300087F0300087F03000848
:100090007F0300087F0300087F0300087F03000838
:1000A0007F0300087F0300087F0300087F03000828
:1000B0007F0300087F0300087F0300087F03000818
:1000C0007F0300087F0300087F0300087F03000808
:1000D0007F0300087F0300087F0300087F030008F8
:1000E0007F0300087F030008000000007F03000872
:1000F0007F0300087F0300087F0300087F030008D8
:100100007F0300087F0300087F0300087F030008C7
:100110007F0300087F030008B16500087F03000823
:100120007F0300087F0300087F0300087F030008A7
:100130007F0300087F0300087F0300087F03000897
:1001400000000000000000000000000000000000AF
:100150007F0300087F0300087F0300087F03000877
:100160007F0300087F0300087F0300087F03000867
:100170007F0300087F0300087F03000800000000E1
:100180007F0300087F0300087F0300087F03000847
:100190007F0300087F0300087F0300087F03000837
:1001A0007F0300087F0300087F0300087F03000827
:1001B0007F0300087F0300087F0300087F03000817
:1001C0007F0300087F0300087F0300087F03000807
:1001D0007F0300087F0300087F0300087F030008F7
:1001E0007F0300087F0300087F0300087F030008E7
:1001F0007F0300087F0300087F0300087F030008D7
:100200007F0300087F0300087F0300087F030008C6
:100210007F0300087F0300087F0300087F030008B6
:100220007F0300087F0300087F0300080000000030
:100230007F0300087F030008000000007F03000820
:100240007F0300087F0300087F0300087F03000886
:100250007F0300087F0300087F0300087F03000876
:100260007F0300087F0300087F0300087F03000866
:100270007F0300087F0300087F03000800000000E0
:100280007F0300087F0300087F03000800000000D0
:10029000000000007F03000800F002F800F052F8B0
:1002A00014A696E8000CB244B344DA4501D100F03C
:1002B00049F8BAE80F000FA696E83000A5EB040550
:1002C00004EB0607AAEB0704A7F101074FEA15158F
:1002D0004FEA3414A4F10104AC4201D300F032F827
:1002E00013F0010F18BFFB1A43F0010300F001F8EF
:1002F000DBE71847F48F000014900000103A24BF89
:1003000078C878C1FAD8520724BF30C830C144BF7A
:1003100004680C6070470000704700000023002450
:1003200000250026103A28BF78C1FBD8520728BF05
:1003300030C148BF0B6070471FB508F063FF1FBD99
:1003400010B510BD00F05AF91146FFF7F5FF06F0A1
:10035000FFFE00F078F903B4FFF7F2FF03BC00F0F2
:1003600047F900000948804709480047FEE7FEE7D3
:10037000FEE7FEE7FEE7FEE7FEE7FEE7FEE7FEE755
:1003800004480549054A064B70470000E16400082F
:100390009902000828550024285B002428570024CF
:1003A0002857002453EA020C00F069802DE9F04B35
:1003B0004FF00006002B1FBFB3FA83F503FA05F4D4
:1003C00024FA05F65E4012BF1643B2FA82F502FA2D
:1003D00005F4C5F120051EBF22FA05FC44EA0C0411
:1003E000203556EA044C4FEA144418BF641C4FF001
:1003F00000084FF00009904271EB030C39D300293B
:1004000019BFB1FA81F701FA07F6B0FA80F700FADE
:1004100007F6C7F120071EBF20FA07FC46EA0C06C4
:100420002037B6FBF4FCA7EB0507103F07F01F0BC6
:10043000CBF120062CFA06F60CFA0BFB44BFB346B0
:100440000026202FA4BF5E464FF0000B5BEA060C8F
:1004500008BF4FF0010B19EB0B0948EB0608ABFB8B
:10046000027C06FB02CC0BFB03CCC01B71EB0C0126
:10047000C1E70B46024641464846BDE8F08B13B53E
:10048000084318BF4FF0FF300146AFF30080BDE8CE
:100490001C407047032A40F2308010F0030C00F03B
:1004A000158011F8013BBCF1020F624498BF11F8AE
:1004B00001CB00F8013B38BF11F8013BA2F1040267
:1004C00098BF00F801CB38BF00F8013B11F00303DF
:1004D00000F05780083AC0F0088051F8043B083A11
:1004E00051F804CBA0E80810F5E7121D5CBF51F8E5
:1004F000043B40F8043BAFF30080D20724BF11F85F
:10050000013B11F801CB48BF11F8012B24BF00F8C3
:10051000013B00F801CB48BF00F8012B704702F007
:10052000FF0343EA032242EA024200F002B84FF01E
:10053000000200B5134694469646203922BFA0E833
:100540000C50A0E80C50B1F12001BFF4F7AF09073F
:1005500028BFA0E80C5048BF0CC05DF804EB890030
:1005600028BF40F8042B08BF704748BF20F8022B73
:1005700011F0804F18BF00F8012B7047704770478B
:10058000704710B5203AC0F00B80B1E81850A0E8D1
:100590001850B1E81850A0E81850203ABFF4F5AF51
:1005A0005FEA027C24BFB1E81850A0E8185044BFAD
:1005B00018C918C0BDE810405FEA827C24BF51F81A
:1005C000043B40F8043B08BF7047D20728BF31F80E
:1005D000023B48BF11F8012B28BF20F8023B48BF5F
:1005E00000F8012B704700000048704718000024F5
:1005F00001491820ABBEFEE7260002007546FFF752
:10060000F3FFAE4605006946534620F007008546D5
:1006100018B020B5FFF7B4FEBDE820404FF000064B
:100620004FF000074FF000084FF0000BAC46ACE86D
:10063000C009ACE8C009ACE8C009ACE8C00921F0C9
:1006400007018D46704710B50446AFF30080204681
:10065000BDE81040FFF77FBE7047000000000000BB
:10066000B0B50446006842F2001140F48070C4F254
:100670000201884218D142F20830C4F20200006838
:1006800010F4403F18D002F0EBFE61680546B1F56A
:10069000803F05D0B1F5403F2CD0B1F5003F2AD1C5
:1006A000080CB5FBF0F526E046F20830C5F602006E
:1006B000006810F4403FE6D14FF40020002101F023
:1006C000EFFD61680546A1F580224FEAB2420A2A91
:1006D00011D8DFE802F007070707070755535951FC
:1006E000570000BF6FF0010000EA5140B5FBF0F584
:1006F00001E000BFAD0800F0DFFF41F203018842D6
:100700000ED8206842F60151C0F231118D42816845
:100710002CBF41F4807121F480718160B0BD00BFB5
:100720004BF62140C0F2BE00854205D820688168A2
:1007300021F440718160B0BD47F64100C0F27D10E8
:10074000854207D820680122816862F3092181600F
:10075000B0BD00BF20684FF28101C0F2FA218D4286
:10076000816805D8022262F309218160B0BD00BF13
:1007700041F440718160B0BDED09BCE76D09BAE795
:100780002D09B8E72D0AB6E7AD09B4E7000000006F
:10079000FEE70000000000007047000000000000BD
:1007A000EFF3108072B600BFFEE70000000000000B
:1007B00090F85020012A01D102207047B0B582B0D4
:1007C00042F2083200230193C4F202020093A2F520
:1007D00042740368A34227D14FF6006C4FF60055D0
:1007E000CFF6FF7CCFF6FF7552F80C4053592343E8
:1007F0005B0719D4D1F800E01368BEF1000F23F4B1
:1008000040441FD04B6823431360535952F80C5097
:100810002B43DB0722D1136840F61F75AB43896871
:10082000194341EA0E0118E0416D41F02001416594
:100830000121002280F8502002B0BDE8B0400846F7
:10084000704700BF1460515952F80C301943C90762
:1008500004D1116840F61F73994311600021E8E745
:10086000F0B581B00022009290F85020012A03D107
:100870000221084601B0F0BD0768012380F850301E
:10088000BB685B0700F16C810C684FF6FF7CB4F12C
:10089000FF3FC0F20F0C4FEA946E0FDD94FAA4F301
:1008A00014EA0C0FB3FA83F308BFA30E012403F07C
:1008B0001F0304FA03F3FC692343FB614B681F2603
:1008C0000EF01F02C3F3012403F01F039E4007EB49
:1008D00084049A40256B25EA060632432263BA68EF
:1008E000BB6802F0040203F00803D21840F09580C0
:1008F0000A6807258E68C2F34063C2F3045207EB0F
:10090000830395405C6906FA02F224EA05052A434E
:100910005A6141F20002C5F60042126802F07042CC
:10092000B2F1805F32D14A69FB680E2606EA5303B2
:1009300002FA03F30C69042C38D007F160020E6848
:1009400006F0F84652F82450334305F000452B4397
:1009500042F824300B694E7E52F82350012E25F0C8
:10096000004508BF05F1004542F823500A7E0B6997
:100970003E69013A03F01F03B2FA82F226F4F04610
:100980005209D2029A4032433A6146E0FA684B6912
:10099000FE68D2064FEA560402D404F00E0201E0CB
:1009A00004F0080293400C69042CC6D13A6E0B681F
:1009B00002F0F8429B069A4218D13A6E22F00042A9
:1009C0003A667A6E02F0F8429A4214D0BA6E02F099
:1009D000F8429A4218D1BA6E22F00042BA66FA6E14
:1009E00002F0F8429A4214D017E000BF7A6E02F08B
:1009F000F8429A42EAD17A6E22F000427A66BA6EE2
:100A000002F0F8429A42E6D0FA6E02F0F8429A42B8
:100A100003D1FA6E22F00042FA66BA68D20752D1C8
:100A2000CA680B6802F0180503EA0C042CFA05F5F5
:100A300040F2000CD7F8C060C4F2FF7CA6431D4012
:100A4000624545EA0602C7F8C02039D194B193FA4D
:100A5000A3F2B2FA82F2013202F01E03092B02F075
:100A60001F0310D8012203EB43069A4042EA0653C3
:100A700015E000BF012202EB936202F01E030A2B75
:100A800002F01F03EED3012203EB43069A4000233A
:100A9000CFF6206303EB06531A4342F00073C3F30F
:100AA00040620725C3F304538E6807EB82029D4022
:100AB000546906FA03F324EA05052B4353610B68D6
:100AC000B3F1FF3F02DD00214FE000BF42F2000121
:100AD00046F2083CC4F20201C5F6020C01F5807230
:100AE00001F542769742624608BF32468F4242F293
:100AF000001508BF324647F48076C4F20205AE42C4
:100B0000D2F800E024D18A68D1F808111143C9074E
:100B100026D100210EF0E074CCF684318B4208BF60
:100B20001EF4000128D00021CCF252718B4263D117
:100B30000021B1EB146F5FD1ACF542718F42C2D18D
:100B4000DCF8001021F0E071214341F0807168E091
:100B50004FF60051CFF6FF715CF80110C907D8D0ED
:100B6000416D41F0200141650121002280F85020B3
:100B7000084601B0F0BD00BFACF542718F42A2D172
:100B8000DCF8001042F6635221F0E071C0F23E52F0
:100B9000214341F40001CCF8001040F20801C2F2F8
:100BA000004109688909A1FB02129109022202EBA6
:100BB00041010091009900293FF485AF0099013966
:100BC0000091009900293FF47EAF0099013900910E
:100BD000009900293FF477AF0099013900910099FD
:100BE00000293FF470AF0099013900910099002964
:100BF0004FF00001E2D1B8E7ACF542718F424FF0FF
:100C00000001B2D10022CCF6B872934208BF1EF4A4
:100C10008002AAD1DCF8001021F0E071214341F4F8
:100C20008001CCF800104EE770B582B00446002871
:100C30004FF0000001902DD0606D30B9204600F0DB
:100C40001FF90020A06584F85000206881688900A1
:100C50004FF6C071C5F6FF7102D582680A40826006
:100C60008268D20031D4826801F18051114042F68D
:100C7000635241F08051816040F20801C0F23E525F
:100C8000C2F2004109688909A1FB0212012101EBAE
:100C9000921105E00126304602B070BD019901397C
:100CA0000191019989B1019901390191019961B1CC
:100CB000019901390191019900291FBF0199013959
:100CC0000191019918BF0029E8D18168C90009D4B0
:100CD000616D012641F010016165A16D41F00101D6
:100CE000A16500E000268168626D02F0100201F04B
:100CF00004018918616D40F0918021F48171023105
:100D000061658168C90728D142F2001240F4807100
:100D1000C4F20202914242F20001C4F2020140F028
:100D2000A5808A68D1F808311A43D20715D101F598
:100D3000807201F5427346F2080C9042C5F6020C2F
:100D40001A4618BF0CF54072884208BF1A46606800
:100D5000116821F47C110843106000F0ADFC41F2F1
:100D6000030100228842A068A0F1100188BF01227F
:100D7000B1FA81F1237F49091140226B617D15464B
:100D800016BF4D034A031C20012B45EA034141EAEB
:100D9000020141EA000106D1206A0022CFF6FE726C
:100DA00002EB40400143606A20B100F47870A26A0F
:100DB0001043014320684CF20303CFF6F073C2687E
:100DC0001A401143C1608168826801F0040102F099
:100DD0000802891836D1217D44F20305E26AC3680E
:100DE00042EA813123EA05021143C16094F83810C8
:100DF000012901691AD14FF61E020125CFF60042E2
:100E0000CFF6FF751140D4E90F231943636C05EB4E
:100E100002421143A26C1943114309E041F0100052
:100E200001266065304602B070BD00BF21F00101AF
:100E300001610169626B21F070411143016120463B
:100E4000FFF70EFC2068E1680129026B22F00F0118
:100E500002D1A269013A114301630121606D61F37E
:100E600001006065304602B070BD00BF46F2080266
:100E7000C5F602021268D2073FF459AF6DE70000D1
:100E80002DE9F04387B042F200120068C4F202027A
:100E900040F200089042C5F602084FF000010691AA
:100EA000CDE904110391029154D042F20001C4F241
:100EB0000201884240F0B58040F27C1144F2E040EB
:100EC000C2F20041C5F602000A68002A02F10102DE
:100ED0000A600BD150F8081C41F0200140F8081CB2
:100EE00050F8081C01F020010191019901680326C6
:100EF00041F001010160016801F0010101910199D6
:100F0000016841F004010160016801F004010191F0
:100F10000199016841F002010160016801F00201DC
:100F200001910199016841F020010160006802A966
:100F300000F0200001900198C02002900020049051
:100F40004046039600F0E4FA302002904FF4C05976
:100F50004DE000BF40F27C1144F2E040C2F200419B
:100F6000C5F602000A68002A02F101020A600BD1EC
:100F700050F8081C41F0200140F8081C50F8081CEB
:100F800001F0200101910199016841F00101016026
:100F9000016801F0010101910199016841F004012A
:100FA0000160016801F0040101910199016841F0BB
:100FB00002010160016801F00201019101990168DB
:100FC00041F020010160006802A900F020000190BA
:100FD0000198402002900320039000200490404696
:100FE00000F096FA4FF4C04902261020029002AD9C
:100FF00008F500602946032403940027049700F0B5
:1010000087FA08F580602946CDE90264049700F06C
:101010007FFA08F5A0502946CDE90294049700F024
:1010200077FA07B0BDE8F083F0B12DE9F04F83B057
:101030004AF200080446C4F200080068404533D074
:1010400094F89810B9B3816921F01001816100F022
:101050003BFB054620688169090707D500F034FB92
:10106000401B0B28F6D312E001207047816941F044
:101070000101816100F028FB054600BF20688169FD
:10108000C90721D100F020FB401B0B28F6D301201B
:10109000D4F89C100843C4F89C00032084F89800FE
:1010A000012003B0BDE8F08F08F58071616094F80D
:1010B00098100029C7D1002084F89900204600F03C
:1010C000B3F92068BFE700BF816941F00201816187
:1010D000217C826922F04002012918BF40328261DE
:1010E000617C826922F48042012908BF02F58042B6
:1010F0008261A17C826922F48052012918BF02F525
:1011000080528261816921F44073D4E902120B4359
:101110008361836923F0A4038361036923F01003CF
:1011200003619AB1012A0DD0022A09D08369032AEA
:1011300043F080038361036943F01002026105D12B
:10114000202200E0042283691A438261D4E90572F7
:10115000E369561E6FF0FF02256A02EB0323B1F527
:10116000407F43EA4663A5F1010646EA030640F2E2
:101170000003CFF6FF7303EB074746EA0701C1619F
:1011800010D1D4E90B65D4E90917013F02EB06221F
:101190006FF00F063A4306EB05173A4303EB0141A4
:1011A0001143C160236E2BB1616ED0F8C020114392
:1011B000C0F8C010E16DCDE90113D94249F22021F8
:1011C000C0F6000109D0D0F8C820A36E22F00702B3
:1011D00051F823301A43C0F8C820D4F840C0BCF1FD
:1011E000000F09D0D0F8BC20636C22F0070251F840
:1011F00023301A43C0F8BC20D4F848B0BBF1000F2C
:101200000AD0D0F8BC20E36C22F0700251F82330F1
:1012100042EA0312C0F8BC20D4F850A0BAF1000F83
:101220000AD0D0F8BC20636D22F4E06251F823109C
:1012300042EA0121C0F8BC10404504D161688A68C7
:1012400022F003028A600021C4F89410C4F89C10B4
:10125000012184F8981004F13409D0F884104FF675
:10126000FC729143656C99E80C02009541EA820199
:10127000C0F88410D0F8841021F47F0141EA0341C2
:10128000C0F884109918D0F888306FF38F0343EAC0
:101290008103C0F88830D0F8883023F4FE0343EA95
:1012A0000943C0F8883001EB4903D0F8A0606FF320
:1012B0008F0646EA8306C0F8A060D0F8A06026F446
:1012C000FE0646EA0C46C0F8A06005FB0C36D0F8D6
:1012D000B0306FF38F0343EA8603C0F8B030D0F824
:1012E000B03023F4FE0343EA0B43C0F8B030E36CA4
:1012F000D0F8AC506FF38F0503FB0B6645EA86050B
:10130000C0F8AC50D4F8548008FB0A65D0F8F060FF
:101310006FF38F0646EA8506C0F8F060D0F8F0E07B
:10132000A66D2EF47C1747EA0647C0F8F070F70068
:1013300007EB8507D0F8C0506FF38F052F43C0F837
:10134000C070D0F8C070009DDDF804E027F47C1771
:1013500005FB0CFC4AF2000547EA0E47C0F8C070D6
:10136000C4F2000503FB0BC305F54067D0F8C0507D
:1013700007EB820207EB810125F07C57029D47EACB
:101380000567C0F8C07001EBC90008FB0A37216788
:10139000A16E00EB8C0C606700EB8303E266C4E98E
:1013A0001EC30EFB01F300EB87006943C4F8800005
:1013B00000EBC600C4F8840000EB8300C4F888008A
:1013C00000EB81004DF2FC31C4F20001C4F8900042
:1013D000884201D920205BE682421FD211460020BC
:1013E00041F8040BD4F890309942BFF45AAE5060E3
:1013F00002F10801D4F8903099423FBF906002F1A9
:101400000C01D4F890309942BFF44BAED06010324A
:10141000D4F890108A42E1D343E600BF002003B025
:10142000BDE8F08F0000000080B586B04AF20042AF
:101430000068C4F20002002190420591CDE9031139
:10144000CDE901112ED04AF20001C4F20001884218
:1014500059D140F2801144F2E040C2F20041C5F699
:1014600002000A68002A02F101020A6008D1C1687C
:1014700041F48071C160C16801F4807100910099EC
:10148000016841F08001016000684FF4C04100F044
:1014900080000090009840F20040C5F6020000F580
:1014A000C05025E040F2801144F2E040C2F2004119
:1014B000C5F602000A68002A02F101020A6008D19A
:1014C000C16841F48071C160C16801F4807100910C
:1014D0000099016841F00201016000684FF4405139
:1014E00000F002000090009840F20040C5F60200B3
:1014F0000191022102910021CDE9031109210591F9
:1015000001A900F005F806B080BD00000000000051
:101510002DE9F04F83B00F68002F00F0C98000F173
:10152000264642F2004506F1FF76C5F602050A227C
:10153000A8424FEAB62540F2040C08BF092200F188
:1015400020030093092DC5F6000C38BF4FEAB622E0
:10155000002400264FF0000801920AE008F101087B
:101560000F6837FA08F206F1020604F1040400F0ED
:101570009F80012202FA08FE17EA0E09EED0D1F888
:1015800004B003220BF00307B2407D1E6FEA020A8B
:10159000012D11D88268CD6802EA0A02B5402A43BB
:1015A0008260CBF30015426822EA0E0205FA08F5C4
:1015B0002A43426004E000BF032F01D103271FE04C
:1015C000C2688D6802EA0A02B540022F42EA0502AB
:1015D000C26015D16FF0030204F01C0502EA580B3B
:1015E000009A0F2352F80BE0AB400F692EEA030379
:1015F000AF403B4342F80B30D1F804B00BF0030787
:10160000026807FA06F302EA0A021BF4403F42EAC4
:1016100003020260A2D044F2F44340F2084EC5F641
:101620000203C5F6000E0F251A6842F002021A6086
:101630001A6802F00202029228F00302029B04F0F0
:101640000C0352F80E709D40AF43019D05FA03F361
:101650003B4342F80E304FF0B04EDEF800204B68AE
:1016600042EA0907DD0258BF22EA09079D02CEF8C7
:101670000070DCF8002042EA090758BF22EA090797
:101680009D03CCF80070DCF8802042EA090758BFBF
:1016900022EA0907DB03CCF88070DCF87C2042EA00
:1016A000090758BF22EA0907CCF87C7056E700BF4B
:1016B00003B0BDE8F08F000041F20000C5F6004025
:1016C0000068000C7047000044F62C60C2F2004035
:1016D000006870470000000090F84120202A03D1E4
:1016E00090F84020012A01D102207047242280F87E
:1016F00041200268136823F001031360136823F488
:1017000080531360136819431160116841F001019F
:101710001160202180F84110002180F84010002045
:10172000704700000000000090F84120202A03D1FB
:1017300090F84020012A01D102207047242280F82D
:1017400041200268136823F001031360136823F437
:10175000706343EA01211160116841F001011160D9
:10176000202180F84110002180F8401000207047AF
:1017700010B310B590F8411031B9002180F8401035
:10178000044600F04DF82046242180F8411090E8EE
:101790001210C3680A68012B22F001020A6024F0CB
:1017A00070620A618A6822F400428A6006D14CF4B1
:1017B00000428A600CE000BF01207047022B4CF40D
:1017C00004428A6004D14A6842F4006203E000BF28
:1017D0004A6822F400624A6000F1100C4A6842F044
:1017E000007242F400424A60CA6822F40042CA60B1
:1017F0009CE81C101A4342EA0422CA60026A42EAC8
:101800000C020A600A6842F001020A600021416489
:10181000202280F84120016380F84210002010BD92
:1018200010B586B045F6FF320068C4F20002002110
:1018300090420591CDE90311CDE9011134DC45F267
:101840000041C4F20001884260D045F60001C4F2B4
:101850000001884240F0A98044F2E04441F6004192
:10186000C5F60204C5F60201206840F020002060A1
:10187000206800F0200000900098032001901220C2
:1018800002900020CDE9030004200590A1F500603E
:1018900001A9FFF73DFEA06840F48000A060A068A9
:1018A00000F480007FE000BF45F60041C4F2000173
:1018B000884253D041F60041C5F60001884274D1F8
:1018C00044F2E04401A9C5F60204206840F080001B
:1018D0002060206800F08000009000984FF4C05015
:1018E0000190122002900020CDE903000420059011
:1018F00041F60040C5F60200FFF70AFE606940F0BD
:1019000080006061606900F080004CE044F2E044D7
:1019100041F60041C5F60204C5F60201206840F018
:1019200002002060206800F00200009000984FF450
:10193000C0700190122002900020CDE90300042025
:101940000590A1F5C05001A9FFF7E2FDA06840F4A1
:101950000010A060A06800F4001024E044F2E0440D
:1019600001A9C5F60204206840F0800020602068CC
:1019700000F08000009000984FF4C0700190122099
:1019800002900020CDE903000420059041F60040BC
:10199000C5F60200FFF7BCFDA06840F40000A0609F
:1019A000A06800F400000090009806B010BD000090
:1019B00040F2000044F62C61C2F20040C2F2004145
:1019C00000780A68104408607047000000000000BA
:1019D00080B5032000F0E0F801F0CAFD44F21841A0
:1019E00049F27823C5F60201C0F600030A68C2F383
:1019F00003229A5C096801F00F0102F01F02595C92
:101A0000D04040F20C02C2F2004201F01F0120FA65
:101A100001F1116040F20801C2F2004108600F209C
:101A200000F00AF800281CBF012080BD00F058F823
:101A3000002080BD000000000F2847D8B0B58AB054
:101A40000446362000222146002500F075F8362095
:101A500000F05EF840F20400C2F20040046044F27C
:101A6000E840C5F60200016841F01001016000681D
:101A700001A900F010000290029802A801F0C4FC35
:101A8000079C002C18BF012401F012FD4DF6836164
:101A9000A040C4F21B3141F20002A0FB010140F65C
:101AA000CC00C2F200404FF0FF33C4F200020260EB
:101AB00003EB9141C0E9011540F2E731C0E903159C
:101AC00002F05EFB20B101200AB0B0BD01207047DA
:101AD00040F6CC00C2F2004002F09AFB0AB0B0BD62
:101AE00081B044F2F4400022C5F60200016841F0E2
:101AF0000201016000680F2100F0020000906FF009
:101B00000100009B01B000F017B8000000000000C9
:101B1000002848BF704700F01F01012202FA01F1BE
:101B20004EF20012C0F34A10CEF2000242F820102A
:101B3000704700000000000070B54EF60C5C4FF0DE
:101B4000FF36CEF2000C00F1604505F56445DCF887
:101B50000030C3F3022E8EF00703042B28BF0423AA
:101B6000BEF1030406FA03F321EA030100F00F03B8
:101B700038BF0024043B0028634406FA04F048BF41
:101B800003F10C05A14022EA00000843000128707F
:101B900070BD0000000000004EF60C514FF6FF0330
:101BA000CEF200010A681A4060F30A2242F0806017
:101BB00040F0FD7008607047B0B544F60C05C5F6FE
:101BC000020529684907296806D401F00701081AA7
:101BD00018BF0120B0BD00BF21F0070108432860F5
:101BE000FFF772FD044600BF55F8080C800407D4C7
:101BF000FFF76AFD001BB0F57A7FF5D90120B0BD73
:101C00000020B0BD0000000070B50446FFF75CFD89
:101C1000002C66D0054694F8410028B9204600F013
:101C200063F841F28830A06420686FF0FF03A16878
:101C3000A66C026822F4F85203EB01211143016003
:101C40008168890628D44FF62F720168C0F2FF021E
:101C500063681140E66831432669D4E9072541EA03
:101C60000361636911434FF6FE0229430160416835
:101C7000CFF6E0721140A269194341EA06411143CF
:101C80004160016841F001010160002060640121B0
:101C900084F8411070BD00BFD6B1711C12D18168AB
:101CA0008906D0D58168890644BF81685FEA816171
:101CB000C9D581688906F2D4C5E700BF206881686C
:101CC0008906C0D5FFF700FD401BB042F6D901E000
:101CD000FFF7FAFC042084F84100606C40F001003A
:101CE0006064012070BD00002DE9F041B8B00446E9
:101CF00002A80830B82100253395CDE93655CDE945
:101D00003455FEF714FC45F200012068C5F20021AD
:101D1000884203D038B0BDE8F08100BF4FF00070BA
:101D2000029002A8039500F0BBFC08B1FEF738FD55
:101D300044F2E04041F20044C5F60200C5F6020458
:101D400033AD4FF0020850F80C1C002741F48041DD
:101D500040F80C1C50F80C1C01F4804101910199D1
:101D6000016841F020010160016801F0200101914A
:101D70000199016841F0400101600068294600F0C6
:101D80004000019001984FF49860339009203790FB
:101D90002046CDF8D080CDE93577FFF7B9FB4FF479
:101DA00040702946CDE9330820460A26CDE935772B
:101DB0003796FFF7ADFB40202946CDE9330804F5FF
:101DC00080603796CDE93577FFF7A2FB38B0BDE8E4
:101DD000F08100000000000080B501F041FB44F2FA
:101DE000204149F27822C5F60201C0F600020968D6
:101DF000C1F30211515C01F01F01C84080BD000019
:101E000080B544F2304EC5F6020E5EF8083C5EF82E
:101E1000081CC1F3051C5EF8041CBCF1000FDEF8C1
:101E2000042025D001F0010103F003034942022BF5
:101E300001EAD2016FF35F3100EE101AB8EE400AEA
:101E40002CD0012B1AD01BB95EF8301C89066FD438
:101E5000DEF800109FED492A6FF35F2101EE101AA2
:101E6000B8EE411AA0EE021A9FED470A24E000BF27
:101E700000218160C0E9001180BD00BFDEF80010C4
:101E80009FED3E2A6FF35F2101EE101AB8EE411A62
:101E9000A0EE021A9FED3B0A0EE000BFDEF8001034
:101EA0009FED362A6FF35F2101EE101AB8EE411A4A
:101EB000A0EE021A9FED320AA1EE000A01EE10CA4E
:101EC000B8EE411ADEF8001080EE010AB7EE002AE3
:101ED000C1F3462101EE101AB8EE411A31EE021A92
:101EE00080EE011ABCEEC11A80ED001ADEF8001077
:101EF000C1F3064101EE101AB8EE411A31EE021A92
:101F000080EE011ABCEEC11A80ED011ADEF8001055
:101F1000C1F3066101EE101AB8EE411A31EE021A51
:101F200080EE010ABCEEC00A10EE101A816080BD7E
:101F3000B7EE001A5EF8301CDEF800209FED0F2A85
:101F40006FF35F22C1F3C101A0EE021A00EE102A66
:101F500049F20002C0F2D03222FA01F1B8EE400A92
:101F600002EE101AB8EE422A31EE000A01EE10CA53
:101F7000B8EE411A20EE020AA4E700BF00000039C3
:101F800020BCBE4B0024744A0024744C00000000A6
:101F900080B544F2384EC5F6020E5EF8103C5EF88D
:101FA000101C5EF80C2CC1F3053CDEF80410BCF1EB
:101FB000000F23D0C90803F00303D206022B01EA65
:101FC000E2716FF35F3100EE101AB8EE400A2BD0C9
:101FD000012B19D0C3B95EF8381C89066ED4DEF81F
:101FE00000109FED492A6FF35F2101EE101AB8EE41
:101FF000411AA0EE021A9FED470A23E000218160FA
:10200000C0E9001180BD00BFDEF800109FED3E2A40
:102010006FF35F2101EE101AB8EE411AA0EE021A1A
:102020009FED3B0A0EE000BFDEF800109FED362A60
:102030006FF35F2101EE101AB8EE411AA0EE021AFA
:102040009FED320AA1EE000A01EE10CAB8EE411A65
:10205000DEF8001080EE010AB7EE002AC1F3462137
:1020600001EE101AB8EE411A31EE021A80EE011A92
:10207000BCEEC11A80ED001ADEF80010C1F3064173
:1020800001EE101AB8EE411A31EE021A80EE011A72
:10209000BCEEC11A80ED011ADEF80010C1F3066132
:1020A00001EE101AB8EE411A31EE021A80EE010A62
:1020B000BCEEC00A10EE101A816080BDB7EE001AA7
:1020C0005EF8381CDEF800209FED0F2A6FF35F22C8
:1020D000C1F3C101A0EE021A00EE102A49F200027B
:1020E000C0F2D03222FA01F1B8EE400A02EE101A24
:1020F000B8EE422A31EE000A01EE10CAB8EE411ADB
:1021000020EE020AA4E700BF0000003920BCBE4B4D
:102110000024744A0024744C80B544F2404EC5F645
:10212000020E5EF8183C5EF8181C5EF8142CC1F321
:10213000055CDEF80410BCF1000F23D0C90803F0E1
:102140000303D205022B01EAE2716FF35F3100EE67
:10215000101AB8EE400A2BD0012B19D0C3B95EF883
:10216000401C89066ED4DEF800109FED492A6FF3FB
:102170005F2101EE101AB8EE411AA0EE021A9FED8F
:10218000470A23E000218160C0E9001180BD00BF43
:10219000DEF800109FED3E2A6FF35F2101EE101A6A
:1021A000B8EE411AA0EE021A9FED3B0A0EE000BF06
:1021B000DEF800109FED362A6FF35F2101EE101A52
:1021C000B8EE411AA0EE021A9FED320AA1EE000A03
:1021D00001EE10CAB8EE411ADEF8001080EE010AD6
:1021E000B7EE002AC1F3462101EE101AB8EE411AEB
:1021F00031EE021A80EE011ABCEEC11A80ED001A0F
:10220000DEF80010C1F3064101EE101AB8EE411AD3
:1022100031EE021A80EE011ABCEEC11A80ED011AED
:10222000DEF80010C1F3066101EE101AB8EE411A93
:1022300031EE021A80EE010ABCEEC00A10EE101A4E
:10224000816080BDB7EE001A5EF8401CDEF8002009
:102250009FED0F2A6FF35F22C1F3C101A0EE021AB6
:1022600000EE102A49F20002C0F2D03222FA01F147
:10227000B8EE400A02EE101AB8EE422A31EE000A19
:1022800001EE10CAB8EE411A20EE020AA4E700BF20
:102290000000003920BCBE4B0024744A0024744C5A
:1022A00010B584B0024641F6FF7300209B1A70EB14
:1022B000010329DB40F2FF339B1A70EB01034FDA75
:1022C00082F480630B4300F0E18082F400630B43EF
:1022D00000F00E8182F48052114340F0B68144F246
:1022E0000041C5F60201086DC0F30232042A00F273
:1022F0005E8148F20000C0F2BB00DFE812F00B0183
:102300001D012701A601350147F6FF739B1A70EBEB
:10231000010351DA82F400430B4300F0D78082F4CA
:1023200080330B4300F0F88082F40022114340F028
:102330008C8144F20040C5F60200816D01F4403109
:10234000B1F5003F00F04481B1F5803F00F03681E7
:10235000002940F02C810068000100F1F08026E1A6
:1023600082F480730B4353D082F40072114340F027
:102370006C8144F20041C5F60201086DC0F382127F
:10238000042A00F2148148F20000C0F2BB00DFE82A
:1023900012F0C100D300DD005C010500C86C0A68C2
:1023A000520700F04052086802D5002A00F03C8134
:1023B000C00500F1E480E5E082F400530B434FD008
:1023C00082F48042114340F0408144F20044C5F65B
:1023D0000204A06DC0F30270052800F2E880DFE877
:1023E00010F007002D010F0119010301370100BF93
:1023F00001F036F8216A49F27822C0F60002C1F3F2
:102400000211515C01F01F01C84004B010BD00BFB3
:1024100044F20041C5F60201086D00F00702042AEB
:1024200000F2C58048F20000C0F2BB00DFE812F005
:10243000720084008E000D01060000BFC86C0A689F
:10244000520700F04052086802D5002A00F0EC80E4
:10245000C00540F19780B2F1805F00F0088191E003
:1024600044F20040C5F60200016DC1F302410529A6
:1024700000F29D80DFE801F00474C6D4BA3900BFD1
:1024800004B0BDE8104001F013B800BF44F20041B1
:10249000C5F60201886DC0F34252042A00F287801B
:1024A00048F20000C0F2BB00DFE802F0344650CF33
:1024B000040000BFC86C0A68520700F04052086868
:1024C0005BD5002A00F0B08057E000BF44F2004026
:1024D000C5F60200016D01F04051B1F1005F3FD03F
:1024E000B1F1805F60D0002961D10068B1E000BF28
:1024F00044F20041C5F60201886DC0F30262042A6D
:1025000055D848F20000C0F2BB00DFE802F0031526
:102510001F9E2D00086848E044F20040C5F6020006
:10252000C16C0068C90340D5000140D501A8FFF780
:102530002FFD039804B010BD0868000137D501A82D
:10254000FFF726FD019804B010BD00BF08688000A9
:102550002DD501A8FFF7E0FD019804B010BD00BF24
:102560000068000123D56CE0C86C0A68520700F0CF
:102570004052086801D5002A56D0C00502D5B2F1F4
:10258000805F74D00868B2F1005F00F400314FF052
:10259000000004BF47F64000C0F27D10002908BFCC
:1025A000084604B010BD00BF0068800102D40020BE
:1025B00004B010BD01A8FFF723FC45E000688000CF
:1025C000F5D501A8FFF7A8FD039804B010BD00BF22
:1025D000C16C0268520701F04051026842D50029DF
:1025E00040D1C2F3C10021E0206800E0006840F65D
:1025F0000011C005C0F23D0101EAE07004B010BD59
:10260000206800E000688000D1D501A8FFF784FDB4
:102610001AE000BF20684007C9D5206804E000BF69
:1026200001684907C3D50068C0F3C10049F2000141
:10263000C0F2D03121FA00F004B010BD20680001D2
:10264000B5D501A8FFF7A4FC029804B010BD00BFE7
:10265000206847F640018003C0F27D1101EAE07076
:1026600004B010BDD20509D5B1F1805F06D140F6A6
:102670000010C0F23D0004B010BD00BF0068B1F111
:10268000005F00F400324FF0000004BF47F6400046
:10269000C0F27D10002A08BF104604B010BD000033
:1026A0002DE9F0470446C07844F22C480007C5F6EF
:1026B000020828D5A06E4FEA305103292AD8DFE856
:1026C00001F0030B131B00BFD8F8001041F40031D8
:1026D000C8F8001010E000BF04F10800022103F068
:1026E0000BFD064680B906E004F12800022103F044
:1026F00097FD064640B9A06ED8F8241021F4401189
:102700000843C8F8240000266078C00706D1354683
:102710002FE000BF01266078C007F8D0A06D042824
:1027200058D83546DFE800F004140E0B0B0000BF4C
:10273000D8F80000354640F40030C8F800002F46B5
:10274000C5B90DE004F12800002103F069FD04E0A3
:1027500004F10800002103F0CFFC05462F464DB9D7
:10276000D8F82400A16D20F0070000250843C8F820
:10277000240037466078800731D5E06D4FEAB0100D
:1027800004285FD8DFE800F004140E0A0A0000BF36
:10279000D8F8000040F40030C8F800002E46FDB91B
:1027A0000EE000BF04F12800002103F039FD04E031
:1027B00004F10800002103F09FFC05462E467DB978
:1027C000D8F82400E16D20F4E07000250843C8F833
:1027D000240004E00125012760788007CDD43E461F
:1027E0006078400733D5D4F8A8004FEA7050042829
:1027F00060D8DFE800F003130D090900D8F80000E5
:1028000040F40030C8F80000A9460DBB0EE000BF40
:1028100004F12800002103F003FD04E004F10800A6
:10282000002103F069FC0546A9468DB9D8F82C00B3
:10283000D4F8A81020F4600000250843C8F82C0044
:1028400005E000BF0125012660784007CBD4B146E2
:102850006078000734D5D4F8AC004FEA3060042823
:102860005ED8DFE800F003130D090900D8F8000076
:1028700040F40030C8F800002F4615BB0EE000BF42
:1028800004F12800002103F0CBFC04E004F108006F
:10289000002103F031FC05462F4695B9D8F82C00ED
:1028A000D4F8AC1020F0E06000250843C8F82C00F4
:1028B00006E000BF01254FF0010960780007CAD487
:1028C0004F46E078800730D5E06C4FEA301003289F
:1028D00020D8DFE800F00903150900BFD8F8000090
:1028E00040F40030C8F800002E46ADB9D8F82000FA
:1028F000E16C20F0300000250843C8F8200014E007
:1029000004F10800022103F0F7FB05462E461DB92D
:10291000ECE700BF012501266078C00609D434E049
:1029200001250127E0788007CED43E466078C006B6
:102930002BD5206E4FEA3030042839D8DFE800F07C
:1029400004140E0A0A0000BFD8F8000040F400305A
:10295000C8F800002F46CDB90EE000BF04F12800F2
:10296000002103F05DFC04E004F10800002103F005
:10297000C3FB05462F464DB9D8F82400216E20F43C
:10298000E04000250843C8F82400374660788006F8
:1029900035D5606E4FEA3040052815D8DFE800F0E5
:1029A000041A0E04040400BF2E46DDB91EE000BF69
:1029B0000125012760788006EBD420E004F128008F
:1029C000012103F02DFC0AE0012501266078400674
:1029D00019D449E004F10800012103F08DFB0546FC
:1029E0002E461DB1607840060DD43DE0D8F8240095
:1029F000616E20F4E02000250843C8F824003E461C
:102A00006078400630D5D4F8B0004FEA3070052821
:102A10000ED8DFE800F00313070303032F46ADB918
:102A200018E000BF04F12800012103F0F9FB0AE0DF
:102A300001250127607800061AD43CE004F1080063
:102A4000012103F059FB05462F461DB160780006B1
:102A50000ED430E0D8F82C00D4F8B01020F0E040CC
:102A600000250843C8F82C0037466078000622D5B8
:102A7000206F58B1B0F1005F0CD0B0F1805F37D15A
:102A8000D8F8000040F40030C8F800002E469DB988
:102A900008E000BF04F10800012103F02DFB05460A
:102AA0002E464DB9D8F82400216F20F04050002563
:102AB0000843C8F824003E46E078C0071DD0A06C4B
:102AC000032855D8DFE800F008024A08D8F80000CB
:102AD00040F40030C8F80000A9467DB9D8F82000BD
:102AE000A16C20F0030000250843C8F8200004E092
:102AF00001250126E078C007E1D1B146A078400663
:102B000002D44F4618E000BFD8F8D40340F48070D8
:102B1000C8F8D403FEF7D8FD064600BFD8F8D403A2
:102B2000C00507D4FEF7D0FD801B6428F6D9032525
:102B3000032701E02F46FDB12078C00700F06F8029
:102B4000E06F4FEAF00005284ED8DFE800F00353AD
:102B500047030303002D2E4654D157E004F108002B
:102B6000022103F0C9FA0546002DA946C6D1B5E7F2
:102B700001254FF00109C1E7D8F84410D4F8B4009A
:102B8000414011F4407F11D0D8F84410D8F84420C7
:102B900042F48032C8F84420D8F8442021F440712F
:102BA00022F48032C8F84420C8F84410B0F5807F81
:102BB00040F0E082FEF788FD064641F2883A0325A0
:102BC000032700BFD8F84400800700F1D182FEF748
:102BD0007BFD801B5045F5D9AEE700BF04F128000E
:102BE000012103F01DFB0AE0012501262078800762
:102BF00019D446E004F10800012103F07DFA0546EE
:102C00002E461DB1207880070DD43AE0D8F8280070
:102C1000E16F20F0380000250843C8F828003E4640
:102C2000207880072DD5A06F05280FD8DFE800F0A9
:102C300004140804040400BF2F46ADB918E000BF17
:102C400004F12800012103F0EBFA0AE00125012735
:102C50002078400719D447E004F10800012103F06F
:102C60004BFA05462F461DB1207840070DD43BE0B6
:102C7000D8F82800A16F20F0070000250843C8F805
:102C800028003746207840072ED5D4F89400052830
:102C90000ED8DFE800F00313070303032E46ADB997
:102CA00018E000BF04F12800012103F0B9FA0AE09E
:102CB00001250126207880061AD44BE004F1080093
:102CC000012103F019FA05462E461DB12078800631
:102CD0000ED43FE0D8F82C00D4F8941020F0070070
:102CE00000250843C8F82C003E462078800631D5E0
:102CF000D4F890004FEA307005280FD8DFE800F0D4
:102D000004140804040400BF2F46ADB918E000BF46
:102D100004F12800022103F083FA0AE001250127CB
:102D2000207840061AD44BE004F10800002103F09B
:102D3000E3F905462F461DB1207840060ED43FE04A
:102D4000D8F82800D4F8901020F0E040002508437F
:102D5000C8F8280037462078400631D5D4F89C00C2
:102D60004FEAB02005280FD8DFE800F0041408046B
:102D7000040400BF2E46ADB918E000BF04F12800DE
:102D8000022103F04DFA0AE0012501262078000611
:102D90001AD44EE004F10800002103F0ADF9054615
:102DA0002E461DB1207800060ED442E0D8F82C0043
:102DB000D4F89C1020F4E05000250843C8F82C00FB
:102DC0003E462078000634D5D4F8A0004FEA703093
:102DD000052815D8DFE800F0041A0E04040400BF2B
:102DE0002F46E5B12068010727D4C1063ED4000371
:102DF00055D477E004F12800022103F011FA0AE02B
:102E00000125012720680107EFD516E004F108002D
:102E1000002103F071F90546002D2F46E2D1D8F8C4
:102E20002C00D4F8A01020F4604000250843C8F816
:102E30002C00374620680107D7D5D4F88400B0F5B8
:102E4000805F09D104F12800022103F0E9F900288C
:102E500018BF0127D4F88400D8F8281021F4405175
:102E60000843C8F828002068C106C0D5D4F89800E7
:102E7000B0F5807F09D104F12800022103F0D0F9D8
:102E8000002818BF0127D4F89800D8F82C1021F496
:102E900040710843C8F82C002068000322D5D4F8FC
:102EA000A400B0F5003F11D0B0F5803F08D0002855
:102EB00044D104F10800002103F01EF905E000BF31
:102EC00004F12800022103F0ABF905462E4655B95E
:102ED000D8F82C00D4F8A41020F440300025084382
:102EE000C8F82C003E46A07840072CD5D4F88800BE
:102EF000B0F5401F0BD0B0F5001F0BD0B0F5801F10
:102F00002AD1D8F8000040F40030C8F800002F465D
:102F1000D5B907E004F12800012103F081F9054645
:102F20002F468DB9D8F82800D4F8881020F4401026
:102F300000250843C8F8280005E000BF0125012648
:102F4000A0784007D2D43746A078C00709D13E46C2
:102F50002168880015D532E001250127A078C00737
:102F6000F5D0206DB0F5803F10D018BBD8F8000028
:102F700040F40030C8F800002E4685B12168880072
:102F80001DD460688A0326D469E000BF04F10800FC
:102F9000022103F0B1F80546002D2E46EED1D8F8F7
:102FA0002000216D20F4803000250843C8F820005F
:102FB000CDE700BF0125012621688800E1D504F195
:102FC0002800022103F02CF9002818BF0126D4E9BB
:102FD00000108A0343D5D4F880206FF0010303EB7F
:102FE0003223022B0BD34FEA322343B1012B40F0A3
:102FF000B980D8F8003043F40033C8F800303DB34E
:10300000CA022FD4CA0037D48A0240D44A0048D416
:10301000CA0F55D109025DD4C10766D181076FD4AB
:10302000410779D4010700F18380C10600F18C804B
:10303000800607D504F12800022103F0F1F80028EA
:1030400018BF0125002D18BF01252846BDE8F087CF
:10305000D8F8283023F440731A43C8F8282035469E
:10306000CA02CFD5D8F82420636F22F000421A4359
:10307000C8F82420CA00C7D558F81C2CD4F8B8309A
:1030800022F480421A4348F81C2C8A02BED5D8F894
:103090002420E36E22F080721A43C8F824204A00EC
:1030A000B6D558F81C2C22F4004248F81C2CD4F851
:1030B000BC2058F81C3C1A4348F81C2CCA0FA9D055
:1030C000D8F82020636D22F040521A43C8F820201F
:1030D0000902A1D5D8F82810D4F88C2021F4400199
:1030E0001143C8F82810C10798D004F10800002146
:1030F00003F002F8002818BF0546606881078FD5E5
:1031000004F10800012102F0F7FF002818BF05466E
:10311000606841077FF586AF04F10800022102F0E4
:10312000EBFF002818BF0546606801077FF57DAFFB
:1031300004F12800002103F073F8002818BF0546A9
:103140006068C1067FF574AF04F12800012103F027
:1031500067F8002818BF0546606880063FF56AAF2B
:1031600070E700BF0125CA027FF54CAF7AE700BFC8
:10317000D4F8B4004FF6CF7358F81C2CC0F2FF03FC
:1031800000F4407122F47C5203EA10136FF31F30F5
:10319000B1F5407F08BF1A43002548F81C2CD8F829
:1031A00044100843C8F84400FFF7ABBC000000001F
:1031B0002DE9F04381B0002800F0208142F200099F
:1031C0000446C5F20029D9F8000000F00F0088423B
:1031D0000DD2D9F8000020F00F000843C9F8000014
:1031E000D9F8000000F00F00884240F00781206805
:1031F00044F218464207C5F602060AD5226933682A
:1032000003F070039A4204D9336823F070031A4321
:10321000326002070AD56269736803F070039A424C
:1032200004D9736823F070031A437260C2060AD58A
:10323000A269736803F4E0639A4204D9736823F4C3
:10324000E0631A43726082060AD5E269B36803F04C
:1032500070039A4204D9B36823F070031A43B26032
:1032600010F002020AD0E368376807F00F07BB428C
:1032700004D9376827F00F073B433360C3073FD0BB
:10328000306820F47062D4E901031A4332600128E7
:1032900056F8182C0AD0032804D002280AD1920329
:1032A0000BD4ABE0920108D4A8E000BFD20504D44F
:1032B000A4E000BF520740F1A180884656F8081CE0
:1032C00021F00701084346F8080CFEF7FDF9054612
:1032D00041F2883756F8080C616800F03800B0EB0E
:1032E000C10F09D0FEF7F0F9401BB842F2D9032014
:1032F00001B0BDE8F08300BF2068414600F0020243
:1033000052B1E268336803F00F039A4204D2336883
:1033100023F00F031A433260D9F8002002F00F02A5
:103320008A420CD9D9F8002022F00F020A43C9F8CA
:103330000020D9F8002002F00F028A425ED1410736
:103340000AD52169326802F07002914204D23268D3
:1033500022F070021143316001070AD56169726879
:1033600002F07002914204D2726822F0700211439E
:103370007160C1060AD5A169726802F4E0629142E7
:1033800004D2726822F4E0621143716080060AD5AB
:10339000E069B16801F07001884204D2B16821F09F
:1033A00070010843B06000F0E3F8316849F2782218
:1033B000C0F60002C1F30321515C336803F00F0330
:1033C00001F01F01D25C20FA01F102F01F0040F26F
:1033D0000C02C2F2004221FA00F0106040F2040038
:1033E00040F20802C2F20040C2F2004200681160DE
:1033F00001B0BDE8F043FEF71FBB00BF012001B0E4
:10340000BDE8F083000000003F22026044F2184251
:10341000C5F6020252F8083C03F007034360136844
:1034200003F470638360136803F00F03C3601368D1
:1034300003F070030361536803F070034361536842
:1034400003F4E0638361926802F07002C26142F2A9
:103450000000C5F20020006800F00F00086070470F
:1034600080B500F085F844F2184149F27823C5F69A
:103470000201C0F600030A68C2F303229A5C0968DD
:1034800001F00F0102F01F02595C20FA02F201F074
:103490001F0040F20C01C2F2004122FA00F0086065
:1034A00040F20801C2F200410A6080BD0000000045
:1034B00080B500F05DF844F2184C49F27823C5F667
:1034C000020CC0F60003DCF80020C2F303229A5C71
:1034D000DCF8001001F00F0102F01F02595CD0402F
:1034E00040F20C02C2F2004201F01F0120FA01F189
:1034F000116040F20802C2F200421060DCF80400E1
:10350000C0F30210185C00F01F0021FA00F080BD2B
:1035100080B500F02DF844F2184C49F27823C5F636
:10352000020CC0F60003DCF80020C2F303229A5C10
:10353000DCF8001001F00F0102F01F02595CD040CE
:1035400040F20C02C2F2004201F01F0120FA01F128
:10355000116040F20802C2F200421060DCF8040080
:10356000C0F30220185C00F01F0021FA00F080BDBB
:1035700044F23041C5F6020151F8200CC0F3C200FC
:10358000032819D0022811D0002845D151F8300C59
:10359000800649F20000C0F2D03058BF704751F8A1
:1035A000301CC1F3C101C840704700BF47F640005E
:1035B000C0F27D10704700BF51F8082C51F8080C7C
:1035C000C0F3051C51F8040CBCF1000F4B6829D066
:1035D00000F0010002F003024042022A00EAD30098
:1035E0006FF35F3000EE100AB8EE400A2AD0012ACD
:1035F0001AD0CAB951F8300C800647D408689FED3C
:10360000352A6FF35F2001EE100AB8EE411AA0EEE2
:10361000021A9FED330A22E040F60010C0F23D008E
:10362000704700BF0020704708689FED2A2A6FF39B
:103630005F2001EE100AB8EE411AA0EE021A9FEDCB
:10364000270A0CE008689FED232A6FF35F2001EE44
:10365000100AB8EE411AA0EE021A9FED1F0AA1EE61
:10366000000A01EE10CAB8EE411A086880EE010A9D
:10367000C0F34620013001EE100AB8EE411A80EE88
:10368000010ABCEEC00A10EE100A7047B7EE001A2D
:1036900051F8300C0A689FED0F2A6FF35F22C0F3D8
:1036A000C100A0EE021A00EE102A49F20002C0F298
:1036B000D03222FA00F0B8EE400A02EE100AB8EE5C
:1036C000422A31EE000A01EE10CAB8EE411A20EE8D
:1036D000020ACAE70000003920BCBE4B0024744A2D
:1036E0000024744C0000000070B3F0B581B00446B3
:1036F000007844F20046C007C5F6020626D12078BD
:10370000800740F1C280306910F03801B06A3FD0C4
:10371000182908BF5FEA80703AD0E0683168002855
:1037200062D021F0190108433060FDF7CDFF054656
:103730003068400748D4FDF7C7FF401B0228F7D97F
:10374000032001B0F0BD00BF01207047306900F0D8
:103750003801B06A102905D018290BD100F00300F8
:10376000022807D130688003C9D560680028C6D117
:103770003CE100BF6168306800294FD0B1F5A02F4F
:1037800044D0B1F5803F5FD140F4803062E000BFAB
:1037900030684007E06802D5002800F027813168D2
:1037A00021F0190108433060FDF78EFF054600BF88
:1037B0003068400708D4FDF787FF401B02284FF010
:1037C0000300F5D901B0F0BDFDF776FF41F203012A
:1037D00088424FD820697168402821F47C3151D14A
:1037E00041F4003050E000BF21F001003060FDF7EF
:1037F0006BFF05463068400747D5FDF765FF401B66
:1038000002284FF00300F5D9DCE700BF40F4802028
:103810003060306840F480301CE000BF20F480301D
:103820003060306820F480203060FDF74DFF0546A1
:10383000306880037FF563AFFDF746FF401B6428C7
:103840004FF00300F4D9BDE720F4803030603068D9
:1038500020F480203060FDF737FF05463068800394
:103860003FF54DAFFDF730FF401B6428F6D903202C
:1038700001B0F0BD7068216920F0FE4040EA0160AF
:1038800002E000BF41EA003070602078C00654D5E5
:10389000306900F03801B06A082905D0182919D11B
:1038A00000F00300012815D13068C00503D5E06998
:1038B000802840F09B80FDF7FFFE41F20301884223
:1038C0001ED8206A7168202821F0F84132D141F0D9
:1038D000804031E0E0690028306819D040F0800075
:1038E0003060FDF7F1FE05463068C005E3D4FDF712
:1038F000EBFE401B02284FF00300F5D962E700BF42
:10390000F068216A20F07C5040EA0160F06014E029
:1039100020F080003060FDF7D7FE05463068C00516
:103920000BD5FDF7D1FE401B02284FF00300F5D95F
:1039300048E700BF41EA80607060207800073FD40C
:103940002078800656D42078400769D4656A9DB3F4
:10395000306900F03800182840F0A880012DB16AC5
:10396000306B43D001F00302A36A9A423ED1C1F307
:103970000511E26A914239D10146226B6FF35F2152
:10398000013A914232D1C0F34622616B01398A4239
:103990002CD1C0F30642A16B01398A4226D1C0F373
:1039A0000660E16B0139884220D1706BA16CC0F3D5
:1039B000CC00814240F03481002001B0F0BD00BF56
:1039C00060690028706F41D040F001007067FDF71A
:1039D0007BFE0546706F8007B2D4FDF775FE401B75
:1039E0000228F7D9032001B0F0BD00BF012001B0CB
:1039F000F0BD00BFA0690028306845D040F4805079
:103A00003060FDF761FE0546306880049BD4FDF709
:103A10005BFE401B0228F7D9032001B0F0BD00BFB8
:103A2000D6F8000440F48070C6F80004FDF74CFEA0
:103A3000054600BFD6F80004C00519D4FDF744FEC2
:103A4000401B6428F6D9032001B0F0BD20F001002E
:103A50007067FDF739FE0546706F80077FF570AF20
:103A6000FDF732FE401B02284FF00300F4D9A9E60F
:103A7000A168306F002943D0052939D0012957D1D9
:103A800040F001005AE000BF20F480503060FDF7A4
:103A90001BFE0546306880047FF555AFFDF714FE28
:103AA000401B02284FF00300F4D98BE6306820F069
:103AB00080703060FDF708FE022D05460CD100BF76
:103AC000306880014CD5FDF7FFFD401B02284FF008
:103AD0000300F5D976E600BF306880017FF56CAF52
:103AE000FDF7F2FD401B02284FF00300F4D969E610
:103AF00040F004003067306F40F001001EE000BF6E
:103B000020F001003067306F20F004003067FDF7CF
:103B1000DBFD054641F28837306F80077FF516AF31
:103B2000FDF7D2FD401BB8424FF00300F4D949E63F
:103B300020F001003067306F20F004003067FDF79F
:103B4000C3FD054641F28837306F80073FF5FEAE72
:103B5000FDF7BAFD401BB8424FF00300F4D931E63F
:103B600004F12807B06A40F2F33188438ECF08434E
:103B7000591E40EA02104FF47E426FF35F21B0629B
:103B800002EB47204FF4FE0280B2E36B0844A16BC6
:103B900002EB01414FF0FE4201F4FE0102EB036231
:103BA000084402F0FE4108443063F06A4FF6F871B1
:103BB00020F00100F062706BA26C884340EAC20002
:103BC0007063F06A216C20F00C000843F062F06A28
:103BD000616C20F002000843F062F06A40F480302B
:103BE000F062F06A40F40030F062F06A40F4802045
:103BF000F062F06A40F00100F062306840F08070DE
:103C00003060FDF761FD0446306880013FF5D4AEB9
:103C1000FDF75AFD001B02284FF00300F4D9D1E54F
:103C2000F06A20F00100F062FDF74EFD0546FDF759
:103C30004BFDA842FBD0706B4FF6F871A26C884325
:103C400040EAC2007063F06A40F00100F0620020B8
:103C500001B0F0BD0000000000284DD02DE9F04F6C
:103C600081B043F600040168C4F2000443F2000E80
:103C700043F6004CA142C4F2010EC4F2000C4FF016
:103C80000002826203D0614518BF714542D1C26B08
:103C90000125C368A14203F1080305EB52124FEA64
:103CA000D30303FB02F218BF714527D1102A34D881
:103CB00090F8811031B9002180F88010044600F09E
:103CC000ABF82046022180F88110D0E90019D0F825
:103CD00018800D68B8F1806F25F001050D608D68C2
:103CE00005F4F81E26D1B9F1000F1BD0B9F5800FED
:103CF00020D1856B25BB19E001207047614518BFB5
:103D0000082A0AD80CF574439942CFD06145CDD02A
:103D1000CEE700BFC2680F2AB9D9012001B0BDE8C3
:103D2000F08F00BF856BB5F1805F06D10D6845F45B
:103D300080550D605FEA492502D44FF0010C0FE079
:103D4000C468072C0AD30D6825F4807C056D45EA0C
:103D50000C050D604FF0000C07E000BF4FF0000CA9
:103D60000C6824F480740C60C468C769836A47EAED
:103D70000E07C26B3B4387681A43B9F1000FD0E9C5
:103D800004BA42EA04028A60426B856B436A42EAE3
:103D90000302036A42EA050242EA0B0242EA0A020D
:103DA000D0E9126442EA0302836D42EA040242EA65
:103DB000070242EA060242EA030242EA080242EA33
:103DC0000902CA600ED00A6DBCF1000F22F0010298
:103DD0000A6515D1CA68436D22F000421A43CA60D1
:103DE0000EE000BF8A68012363F3CC228A608A68F0
:103DF000022363F34A228A600A6D22F001020A65F7
:103E00000021C0F88410012180F88110002001B049
:103E1000BDE8F08F00000000F0B5B7B00021044607
:103E2000CDE93511CDE93311329102A8C021FCF75B
:103E30007EFB43F2FF312068C4F20101884245DC79
:103E400043F60041C4F2000188427BD043F20001F6
:103E5000C4F20101884240F0CF8044F2E04041F6D4
:103E60000007C5F60200C5F6020702240025016915
:103E7000052641F480510161016901F480510191ED
:103E80000199016841F008010160016801F0080131
:103E900001910199016841F040010160006832A977
:103EA00000F040000190019880203290A7F540601A
:103EB0003394CDE934553696FDF72AFB32AA4FF4F8
:103EC0000061384632C2CDE9355692E043F20041F6
:103ED000C4F2010188425DD041F20041C5F6000103
:103EE000884240F089804FF48040029002A800246C
:103EF0000394FEF7D5FB08B1FCF752FC44F2E04016
:103F0000C5F60200416941F020014161416901F0BB
:103F1000200101910199016841F0400101600068B0
:103F200000F04000019001984FF4E04032900220F0
:103F3000CDE933040520369041F600003594C5F6EE
:103F4000020056E044F2E040C5F60200816841F408
:103F500000418160816801F400410191019901688B
:103F600041F004010160006841F6000100F0040026
:103F70000190C5F6020101984FF4E0503290022002
:103F800033900020CDE9340006203690A1F5805012
:103F90002FE000BF4FF40050029002A800240394C9
:103FA000FEF77EFB08B1FCF7FBFB44F2E040C5F6F0
:103FB0000200016941F400510161016901F40051FD
:103FC00001910199016841F010010160006841F61A
:103FD000000100F010000190C5F602010198642074
:103FE000329002203594CDE9330405203690A1F5B6
:103FF000006032A9FDF78CFA37B0F0BD0000000078
:104000007047000000000000704700000000000042
:10401000704700000000000090F83C20012A01D108
:1040200002207047B0B5CB6848F2FF7ED1E901C2EB
:1040300023F47C5322F47052CFF6F07E42EA03045C
:104040000CEA0E030A68234322F477220C691A4310
:1040500024F47623D0F800C01A434B691A438B6AC4
:1040600022F4742E23F470238A6940F200454CF444
:104070008064C4F2010543EA0E03AC4243EA024302
:104080000FD1002523F07C724B6ACFF6F045CC6946
:1040900005EA03531A4324F00073096A1A4342EAFB
:1040A0000103CCF84430002180F83C100020B0BD62
:1040B00090F83C20012A4FF002025ED0B0B580F8A3
:1040C0003D2040F2004C0268C4F2010C42F48063CF
:1040D00063455368D2F808E002BF23F470034C68CC
:1040E000234341F2FF740D68C4F2000423F070030F
:1040F000A24243EA050353600CDC40F2FF73C4F2B2
:1041000000039A4216DCB2F1804F29D040F20043FE
:1041100018E000BF40F2FF33C4F201039A4217DCFB
:1041200041F60003C4F200039A4219D00023C4F2FE
:10413000010309E040F60003C4F200039A420FD0E5
:1041400040F60043C4F200039A4209D00DE000BFDC
:1041500044F20003C4F201039A4201D0624504D143
:104160002EF080038968194391600022012180F8B4
:104170003D1080F83C20BDE8B0401046704700007C
:1041800060B310B5044690F83D0028B9002084F8CB
:104190003C00204600F024F8022084F83D0020680E
:1041A000211D02F00DFA012084F8480084F83E0039
:1041B00084F83F0084F8400084F8410084F842000D
:1041C00084F8430084F8440084F8450084F84600ED
:1041D00084F8470084F83D00002010BD012070479E
:1041E00000210068C4F20101884218BF704781B005
:1041F00044F2F040C5F60200016841F0010101609F
:10420000006800F001000090009801B070470000C5
:1042100090F83D1001291BD1022180F83D10016862
:1042200041F2FF70C4F200008142C86840F0010012
:10423000C8600FDC40F2FF70C4F20000814217DC5E
:10424000B1F1804F2CD040F20040C4F2000025E0D4
:104250000120704740F2FF30C4F20100814213DCBC
:1042600041F60000C4F20000814219D0002013E0A2
:1042700040F60000C4F20000814211D040F6004038
:10428000C4F200000AE000BF44F20000C4F20100E2
:10429000814205D040F20040C4F2010081420BD1BE
:1042A00007228868C0F2010202400020062A18BFD7
:1042B000B2F5803F00D17047086840F00100086007
:1042C000002070470000000090F83C20012A4FF0C9
:1042D000020200F0AA8080B580F83D208822D0F844
:1042E00000C0CFF6CE72DCF808301A40CCF80820B7
:1042F0000B686F2B0EDDB3F1101F37DAB3F5005FDB
:104300006EDA702B00F0B680B3F5805F00F0848029
:10431000D8E000BF2F2B33DD4F2B39DC302B6FD093
:10432000402B40F0CF80D1F804E0C968DCF82030A1
:10433000DCF8202022F00102CCF82020DCF8182044
:1043400022F0F00242EA011123F00A02CCF8181020
:1043500042EA0E01CCF820104FF68872DCF8081003
:10436000CFF6CF721140473154E000BF2F21C0F289
:1043700010018B423ADCB3F1101F41D020213BE009
:10438000002B18BF102B3BD0202B39D09AE000BF58
:10439000502B4DD0602B40F09580D1F804E0C968D7
:1043A000DCF82030DCF8202022F01002CCF82020AD
:1043B000DCF8182022F4704242EA013123F0A00216
:1043C000CCF8181042EA0E11CCF820104FF6887283
:1043D000DCF80810CFF6CF72114067311AE000BF49
:1043E0005CD0B3F5801F0BD06CE000BF3021C0F271
:1043F00010018B4204D04021C0F210018B4261D1E8
:104400004FF68872DCF80810CFF6CF7211401943CE
:1044100041F00701CCF808100022012180F83D107E
:10442000002180F83C10BDE880401046704700BF76
:10443000D1F804E0C968DCF82030DCF8202022F054
:104440000102CCF82020DCF8182022F0F00242EA29
:10445000011123F00A02CCF8181042EA0E01CCF840
:1044600020104FF68872DCF80810CFF6CF7211409A
:104470005731CFE701F1040E9EE80C40DCF808103C
:104480001A4321F47F4142EA0E221143CCF808106E
:10449000DCF8081041F07701BCE700BF01F1040E21
:1044A0009EE80C40DCF808101A4321F47F4142EAF0
:1044B0000E221143CCF80810DCF8081041F48041BA
:1044C000A8E700BF0122A8E7002857D02DE9F04354
:1044D00081B0044690F83D000D4628B9002084F8CC
:1044E0003C00204600F04CF8022084F83D00206893
:1044F0004BF6F872CFF6FE72816811408160211D83
:1045000002F05EF820684FF6FF79D0F808808369E2
:10451000D0F820E0AF69D5E9026223EA090346EA50
:1045200007264FF6FC47BE43EF691A432B69324317
:104530002E6A42EA07226F69D5E9001C42EA03129B
:104540002EF0AA0341EA080181604CEA030142EA25
:104550000632826141EA07110162012084F84800B5
:1045600084F83E0084F83F0084F8440084F8450055
:1045700084F83D00002001B0BDE8F08301207047C1
:1045800080B586B040F6FF320068C4F20002002118
:1045900090420591CDE90311CDE901112CDC40F2E7
:1045A0000041C4F20001884252D040F60001C4F23A
:1045B0000001884240F0918044F2E040C5F60200DC
:1045C000816841F004018160816801F0040100917B
:1045D0000099016841F0080101600068022100F0C3
:1045E0000800009000984FF4405001900020C5F65C
:1045F000020000F5406067E040F60041C4F20001AF
:10460000884245D040F20041C4F20101884264D1A1
:1046100044F2E040C5F60200016941F00201016187
:10462000016901F0020100910099016841F0040163
:1046300001600068032100F0040000900098C02091
:1046400001900020C5F6020000F500603CE000BFCC
:1046500044F2E040C5F60200816841F00201816049
:10466000816801F0020100910099016841F00201A6
:1046700001600068022100F00200009000983020E4
:1046800001900020C5F6020000F580601CE000BF2C
:1046900044F2E040C5F60200816841F00801816003
:1046A000816801F0080100910099016841F0010161
:1046B00001600068022100F00100009000980320D2
:1046C00001900020C5F60200059101A90222029284
:1046D0000022CDE90322FCF71BFF06B080BD0000DD
:1046E0007047000000000000F0B581B0044600688B
:1046F000C5680669B10717D515F0020114D06FF02F
:1047000002010161012121778069800704D02046E0
:10471000FFF7E6FF06E000BF204600F0FDF8204668
:1047200000F0A2FB00202077700719D515F00400D7
:1047300016D020686FF004010161022121778069A1
:1047400010F4407F04D02046FFF7CAFF06E000BF08
:10475000204600F0E1F8204600F086FB002020779C
:10476000300717D515F0080014D020686FF0080145
:10477000016104212177C069800703D02046FFF73B
:10478000AFFF05E0204600F0C7F8204600F06CFBC4
:1047900000202077F00619D515F0100016D02068FB
:1047A0006FF01001016108212177C06910F4407F8A
:1047B00004D02046FFF794FF06E000BF204600F03B
:1047C000ABF8204600F050FB00202077F00718BF20
:1047D00015F0010006D020686FF00101016120464C
:1047E00000F046FB05F0800716F4025F18BF002FAB
:1047F00002D1F00509D410E020686FF40251016184
:104800002046FFF701FCF00507D537B120686FF4AB
:10481000807101612046FFF7F3FB700609D515F0A2
:10482000400006D020686FF040010161204600F092
:104830002BFBB0060CD515F0200009D020686FF0D6
:1048400020010161204601B0BDE8F040FFF7E0BB68
:1048500001B0F0BD0000000070B586B00068002512
:10486000B0F1804F0595CDE90355029501951FD014
:104870000021C4F2010188424BD144F2E040C5F668
:104880000200016841F0100101600068002100F0A1
:1048900010000090C5F6020100984FF4D44001903A
:1048A0000220029000200390049001F580502BE03C
:1048B00044F2E0400024C5F60200C5F602040226D8
:1048C000016841F001010160016801F001010091FE
:1048D0000099016841F002010160006801A900F03F
:1048E0000200009000982C200190012005902046A5
:1048F000CDE902650495FCF70BFE0820CDE9010621
:1049000004F58060CDE903550121059101A9FCF76B
:10491000FFFD06B070BD0000704700000000000001
:1049200090F83C30012B01D1022070474FEAB202CF
:10493000052A00F223812DE9F041DFE812F007009B
:10494000BB00570095003100F90000BF036843F633
:10495000FF76C4F201061C6AB3421A6A24F002040C
:1049600022F001021A621A46D3F804C052F818EF76
:104970008D6844EA0504D1F8008040F3818144F257
:104980000007C4F20107BB4200F0858144F600072E
:10499000C4F20107BB4200F07E8144F2004776E199
:1049A000036843F6FF77C4F20107D3F820C0BB4287
:1049B0001A6A22F480321A621A465C6852F8546FFE
:1049C0000D68D1F808E040F3DF8044F20007C4F23C
:1049D0000107BB4200F0E38044F60007C4F2010780
:1049E000BB4200F0DC8044F20047D4E0036840F2B0
:1049F000004E43F48067C4F2010E1C6A77451A6AC0
:104A000024F4007422F480721A621A465D6852F827
:104A10001CCF8E6844EA062407D1CE6840F2FF47D7
:104A2000360224F44064BE43344343F6FF76D1F8A3
:104A30000080C4F20106B34240F3D28044F2000782
:104A4000C4F20107BB4200F0D28044F60007C4F272
:104A50000107BB4200F0CB8044F20047C4F20107DB
:104A6000BB4200F0C480C9E0036843F6FF77C4F29C
:104A70000107D3F820C0BB421A6A22F480521A629E
:104A80001A465C6852F81C6F0D68D1F808E040F3D4
:104A9000CD8044F20007C4F20107BB4200F0D18090
:104AA00044F60007C4F20107BB4200F0CA8044F29A
:104AB0000047C2E0036840F2004E43F48067C4F24E
:104AC000010E1C6A77451A6A24F0200422F01002B5
:104AD0001A621A465D6852F818CF8E6844EA0614C6
:104AE00007D1CE686FF0400724F0C00407EA06162D
:104AF000344343F6FF76D1F80080C4F20106B34296
:104B000040F3E08044F20007C4F20107BB4200F02A
:104B1000E08044F60007C4F20107BB4200F0D980F0
:104B200044F20047C4F20107BB4200F0D280D7E054
:104B3000036843F6FF77C4F20107D3F820C0BB42F5
:104B40001A6A22F480121A621A465C6852F8546F8C
:104B50000D68D1F808E040F3058144F20007C4F283
:104B60000107BB4200F0098144F60007C4F20107C7
:104B7000BB4200F0028144F20047FAE0012100222A
:104B800080F83C20084670470027C4F20107BB426A
:104B900005D040F20047C4F20107BB4204D14F697F
:104BA00024F4803444EA07244FF68C775C60CFF617
:104BB000FE7703373E402CF4003746EA05045C6577
:104BC0004E6809699E6547EA0E471F625F6D47F0B0
:104BD00008075F655F6D27F004075F65EEE000BFC3
:104BE0000027C4F20107BB4201D0734506D1D1E9C9
:104BF0000576374325F4405646EA07154FF68C777D
:104C00005D60CFF6FE7707EA0C0747EA0807DF6129
:104C10004F680969DF631C62DF6947F00807DF61DD
:104C2000DF6927F00407DF61C8E000BF0027C4F296
:104C30000107BB4205D040F20047C4F20107BB4266
:104C400004D14F6924F4804444EA871448F6FF47AE
:104C50005C60CFF6FF673E402CF4005746EA05241F
:104C6000DC614E6809691E6447EA0E371F62DF691E
:104C700047F40067DF61DF6927F48067DF619CE04C
:104C80000027C4F20107BB4205D040F20047C4F23E
:104C90000107BB4205D1CF6824F00C0427F00407BC
:104CA0003C43B34234DD44F20006C4F20106B34291
:104CB00039D044F60006C4F20106B34233D044F2C0
:104CC00000462CE00027C4F20107BB4201D0734527
:104CD00006D1D1E90576374325F4406646EA8705D3
:104CE00048F6FF475D60CFF6FF6707EA0C0747EA23
:104CF00008279F614F6809699F631C629F6947F499
:104D000000679F619F6927F480679F6155E000BF3E
:104D10000026C4F20106B34205D040F20046C4F2B8
:104D20000106B34206D12CF44077D1E9056537433B
:104D300047EA050C4FF68C75C3F804C0CFF6FE7534
:104D40000EEA050747EA08079F614F6809695F6334
:104D50001C629F6947F008079F619F6927F004075D
:104D60009F612BE00027C4F20107BB4205D040F24F
:104D70000047C4F20107BB4204D14F6924F48024E8
:104D800044EA872448F6FF475C60CFF6FF6707F5E3
:104D900040773E402CF4001746EA05245C654E68D7
:104DA0000969DE6547EA0E571F625F6D47F40067C9
:104DB0005F655F6D27F480675F65090213681943BB
:104DC00011600021BDE8F041002280F83C20084637
:104DD000704700000000000060B310B5044690F872
:104DE0003D0028B9002084F83C00204600F024F85B
:104DF000022084F83D002068211D01F0E1FB012024
:104E000084F8480084F83E0084F83F0084F84000AD
:104E100084F8410084F8420084F8430084F8440098
:104E200084F8450084F8460084F8470084F83D0083
:104E3000002010BD012070470068B0F1804F18BFFE
:104E4000704781B044F2E840C5F60200016841F0C5
:104E500001010160006800F001000090009801B0BD
:104E600070470000000000007047000000000000D4
:104E700041F200010068C4F20001884218BF704787
:104E8000FCF796BD00000000704700000000000025
:104E900090F88410012901D1022070472421C0F824
:104EA000881001680A680B6822F0005223F00103A1
:104EB0000B60002343660A602021C0F8881080F848
:104EC000843000207047000090F88420012A01D12E
:104ED0000220704770B52422C0F888200268D0F8FC
:104EE00064E0BEF1000FD2F800C0136823F00103A4
:104EF0001360936823F0606341EA0301916019D065
:104F0000916849F2A02E9368C0F6000E5B0F49F23B
:104F1000A825C1F34266C0F600051EF80340E95C0F
:104F20002301B3FBF1F11EF80630AE5D1B01B3FBAC
:104F3000F6F301E001210123A0F86A102021A0F876
:104F40006830C2F800C0C0F88810002180F88410D2
:104F5000002070BD0000000090F88420012A01D1DB
:104F60000220704770B52422C0F888200268D0F86B
:104F700064E0BEF1000FD2F800C0136823F0010313
:104F80001360936823F0604341EA0301916019D0F4
:104F9000916849F2A02E9368C0F6000E5B0F49F2AB
:104FA000A825C1F34266C0F600051EF80340E95C7F
:104FB0002301B3FBF1F11EF80630AE5D1B01B3FB1C
:104FC000F6F301E001210123A0F86A102021A0F8E6
:104FD0006830C2F800C0C0F88810002180F8841042
:104FE000002070BD0000000010B5D8B10446D0F814
:104FF000880028B9002084F88400204600F028F8B2
:105000002420C4F888002068A16A0268002922F0E0
:105010000101016002D0204601F07EFB204601F034
:10502000A3FC08B1012010BD2068416821F4904123
:105030004160816821F02A018160016841F001012D
:1050400001602046BDE8104001F0D6BB0000000022
:1050500070B5B8B000210446CDE93611CDE9341160
:10506000339102A8C021FBF762FA47F2FF71206872
:10507000C4F20001884257DC44F20041C4F200014E
:10508000884200F08F8044F60001C4F2000188429B
:1050900000F0DE8045F20001C4F20001884240F0D9
:1050A000358102A80024039402250295FDF7F8FA41
:1050B00008B1FBF775FB44F2E04040F20046C5F64C
:1050C0000200C5F60206816841F4801181608168A2
:1050D00001F4801101910199016841F0080101601A
:1050E000016801F0080101910199016841F0020194
:1050F0000160006833A900F00200019001980420CB
:10510000CDE933050820379006F50060CDE9354438
:10511000FCF7FEF930464021CDE93315CDE93544A1
:105120000E213791EFE000BF47F60001C4F2000105
:10513000884265D047F60041C4F20001884200F081
:10514000B58041F20001C4F20101884240F0DE80E6
:105150000120029002A800240394FDF7A1FA08B1EF
:10516000FBF71EFB44F2E040C5F60200016941F086
:1051700010010161016901F01001019101990168BB
:1051800041F002010160006800F002000190019806
:105190004FF4404033900220CDE93404369404208B
:1051A0007DE000BF02A80024039402250295FDF7CC
:1051B00077FA08B1FBF7F4FA44F2E040C5F60200D2
:1051C000816841F400318160816801F4003101910E
:1051D0000199016841F008010160006840F2004156
:1051E00000F008000190C5F6020101986020CDE9A9
:1051F0003305CDE935440720379001F5006082E0A2
:1052000002A80024039402250295FDF749FA08B18B
:10521000FBF7C6FA44F2E040C5F60200816841F0AF
:1052200080418160816801F08041019101990168AC
:1052300041F010010160006800F010000190019839
:105240004FF4C070CDE933050720CDE9354453E074
:1052500002A80024039402250295FDF721FA08B163
:10526000FBF79EFA44F2E040C5F60200816841F483
:1052700080218160816801F4802101910199016898
:1052800041F002010160006800F002000190019805
:105290004FF44060CDE933050720CDE93544379020
:1052A00040F20040C5F602002DE000BF02A8002435
:1052B000039402250295FDF7F3F908B1FBF770FAA4
:1052C00044F2E040C5F60200816841F0004181608F
:1052D000816801F0004101910199016841F01001DC
:1052E0000160006800F01000019001980320CDE9F2
:1052F0003305CDE93544082040F200413790C5F62A
:10530000020101F5406033A9FCF702F938B070BD25
:10531000FEE7000000000000B0B58AB040F28C1437
:1053200042F20000C2F200440025C4F202002060F4
:105330000420C4E903500120A061E0632046CDE9C8
:105340000855CDE90655CDE90455CDE90255CDE91D
:105350000055A582257784F83850C4E90955C4E979
:105360000B556563FBF760FC08B1FBF719FA2046A3
:10537000C4E90155FBF758FC08B1FBF711FA40F2FC
:105380008C1007A9C2F2004000240794FBF710FA22
:1053900008B1FBF705FA04206946C0F660000090EA
:1053A00006208DF81940CDE901040020C4F2FF70F9
:1053B00003900420CDE9040440F28C10C2F20040B6
:1053C000FBF74EFA08B1FBF7EBF90AB0B0BD0000ED
:1053D000B0B588B040F2F01442F20010C2F20044BE
:1053E0000025C4F20200079520600420C4E90350A0
:1053F0000120A061E0632046CDE90555CDE90355C4
:10540000CDE90155A5822577C4E90955C4E90B55B5
:10541000656384F83850FBF707FC08B1FBF7C0F967
:105420002046C4E90155FBF7FFFB08B1FBF7B8F9CB
:10543000042040F2FF71C0F6600001900620029047
:105440000020039004910421CDE905108DF81D0082
:1054500040F2F010C2F2004001A9FBF701FA08B1D6
:10546000FBF79EF908B0B0BD80B540F254204AF277
:105470000001C2F20040C4F20001102202230160C8
:105480000021C0E90211C0F80F10426101228261BF
:10549000C0E90733C0E90922C0E90B22C0E90D11B8
:1054A000C0E90F110422C0E91121C0E91321C0E9AC
:1054B0001521C0E91711C0E91912FBF7B5FD002845
:1054C00008BF80BDBDE88040FBF76AB9000000005E
:1054D00080B540F2F4204AF20041C2F20040C4F22A
:1054E00000011022022301600021C0E90211C0F86E
:1054F0000F10426101228261C0E90733C0E909222D
:10550000C0E90B22C0E90D11C0E90F110422C0E966
:105510001121C0E91321C0E91521C0E91711C0E923
:105520001912FBF781FD002808BF80BDBDE880404F
:10553000FBF736B90000000080B546F2793049F239
:10554000B022C0F60000C0F60002002101F0C8FE43
:1055500040F28811C2F20041086080BD00000000E6
:1055600080B586B044F2E0410020C5F60201059006
:10557000CDE90300CDE901000A6842F010020A609B
:105580000A6802F010020092009A0A6842F00402CF
:105590000A600A6802F004020092009A0A6842F067
:1055A00020020A600A6802F020020092009A0A684B
:1055B00042F080020A600A6802F080020092009ABB
:1055C0000A6842F001020A600A6802F001020092D1
:1055D000009A0A6842F002020A600A6802F00202B7
:1055E0000092009A0A6842F008020A600A6802F013
:1055F00008020092009A0A6842F040020A600968B4
:1056000001F04001009100994FF4E0510191022115
:10561000CDE9021004900A2005900020C5F6020092
:1056200001A9FBF775FF06B080BD00000000000077
:1056300080B540F2943045F20041C2F2004049F298
:10564000DC32C4F20001C1F29002C0E90012002174
:1056500081600122C0E90321C0E90511C0E90711F9
:10566000FCF786F808B1FBF79BF840F29430002174
:10567000C2F20040FCF730F808B1FBF791F840F2B5
:1056800094300021C2F20040FCF74EF8002808BF19
:1056900080BDBDE88040FBF783B80000000000003B
:1056A00080B540F2E83045F60001C2F2004049F210
:1056B000DC32C4F20001C1F29002C0E90012002104
:1056C00081600122C0E90321C0E90511C0E9071189
:1056D000FCF74EF808B1FBF763F840F2E830002120
:1056E000C2F20040FBF7F8FF08B1FBF759F840F2AF
:1056F000E8300021C2F20040FCF716F8002808BF8D
:1057000080BDBDE88040FBF74BB800000000000002
:1057100080B540F23C4045F60041C2F2004049F2FB
:10572000DC32C4F20001C1F29002C0E90012002193
:1057300081600122C0E90321C0E90511C0E9071118
:10574000FCF716F808B1FBF72BF840F23C400021BB
:10575000C2F20040FBF7C0FF08B1FBF721F840F2AE
:105760003C400021C2F20040FBF7DEFF002808BFEA
:1057700080BDBDE88040FBF713B8000000000000CA
:1057800080B540F2904041F60041C2F2004049F23B
:10579000DC32C5F60001C1F29002C0E9001200211E
:1057A00081600122C0E90321C0E90511C0E90711A8
:1057B000FBF7DEFF08B1FAF7F3FF40F2904000215B
:1057C000C2F20040FBF788FF08B1FAF7E9FF40F2A8
:1057D00090400021C2F20040FBF7A6FF002808BF5E
:1057E00080BDBDE88040FAF7DBBF0000000000008C
:1057F00080B540F2E44045F20001C2F20040C5F23B
:10580000002100220160FF21416001218160C0E987
:105810000321C0E90522C0E90722FCF7F5F90028B9
:1058200008BF80BDBDE88040FAF7BABF00000000A5
:1058300010B540F2305443F20000C2F20044C4F20A
:1058400001004FF0806120604FF4800060604FF4F1
:105850000030A0600320E0600020C4E90400A161E2
:105860004FF08051C4E90710C4E90900E0624FF02D
:105870008040606304F138002421FAF758FE204686
:10588000FEF7EAF9002808BF10BDBDE81040FAF79E
:1058900087BF00000000000010B540F2B85443F686
:1058A0000040C2F20044C4F20000032120604FF423
:1058B000800060600020A060C4E9031060614FF0C8
:1058C0008061A1614FF08051C4E90710C4E909006B
:1058D000E0624FF08040606304F138002421FAF761
:1058E00026FE2046FEF7B8F9002808BF10BDBDE827
:1058F0001040FAF755BF000010B540F2406443F283
:105900000040C2F20044C4F20100032120604FF4C1
:10591000800060600020A060C4E9031060614FF067
:105920008061C4E90610C4E90800C4E90A004FF028
:105930008040606304F138002421FAF7F8FD204626
:10594000FEF78AF9002808BF10BDBDE81040FAF73D
:1059500027BF00000000000010B540F2C86441F20B
:105960000040C2F20044C5F60000032120604FF45D
:10597000800060600020A060C4E9031060614FF007
:105980008061C4E90610C4E90800C4E90A004FF0C8
:105990008040606304F138002421FAF7C8FD2046F6
:1059A000FEF75AF9002808BF10BDBDE81040FAF70D
:1059B000F7BE00000000000010B59AB001A82C212D
:1059C00000241994CDE91744CDE91444CDE91244DB
:1059D000CDE91044CDE90E44CDE90C44FAF7A7FD1A
:1059E00040F250700021C2F20040C4F20101C0E94F
:1059F000001484604FF6FF71C0E90314C0E9054448
:105A0000FEF7BEFB08B1FAF7CBFE4FF480501690BC
:105A100040F2507016A9C2F20040FEF755FC08B1E2
:105A2000FAF7BEFE40F25070C2F20040FFF7D4F920
:105A300008B1FAF7B5FE40F2507013A9C2F2004067
:105A40000024CDE913441594FEF732FB08B1FAF7B0
:105A5000A7FE60200CA9CDE90C0440F25070002292
:105A6000C2F200401294CDE90E44CDE91044FEF795
:105A700057FF08B1FAF794FE40F250700CA9C2F239
:105A800000400422FEF74CFF08B1FAF789FE40F20D
:105A900050700CA9C2F200400822FEF741FF08B185
:105AA000FAF77EFE40F250700CA9C2F200400C22C0
:105AB000FEF736FF08B1FAF773FE00200590CDE936
:105AC0000300CDE901004FF400510890CDE9061024
:105AD0004FF000710B90CDE9091040F2507001A910
