:020000040800F2
:10000000705B002065020008CD480008FD43000831
:10001000C9480008A50800081552000800000000A3
:10002000000000000000000000000000B1490008CE
:10003000010B00080000000041490008E5490008E4
:100040007F0200087F0200087F0200087F0200088C
:100050007F0200087F0200087F0200087F0200087C
:100060007F0200087F0200087F0200087F0200086C
:100070007F0200087F0200087F0200087F0200085C
:100080007F0200087F0200087F0200087F0200084C
:100090002D0900087F0200087F020008050B0008F8
:1000A0007F0200087F0200087F0200087F0200082C
:1000B0007F020008194A00087F0200087F0200083A
:1000C0007F0200087F0200087F0200087F0200080C
:1000D0007F02000851510008615100087151000869
:1000E0007F0200087F0200087F0200087F020008EC
:1000F0007F0200087F0200087F0200087F020008DC
:100100007F0200087F0200087F0200087F020008CB
:10011000D94B0008E94B00087F0200087F02000865
:100120007F020008A90900087F0200087F0200087A
:100130007F0200087F0200087F0200087F0200089B
:100140003D0900087F0200087F0200087F020008C6
:100150007F0200087F0200087F0200087F0200087B
:100160007F0200087F0200087F0200087F0200086B
:100170007F0200087F0200087F02000800000000E4
:100180007F0200087F02000800F002F800F05BF830
:1001900014A696E8000CB244B344DA4501D100F04D
:1001A00052F8BAE80F000FA696E83000A5EB040558
:1001B00004EB0607AAEB0704A7F101074FEA1515A0
:1001C0004FEA3414A4F10104AC4201D300F03BF82F
:1001D00013F0010F18BFFB1A43F0010300F001F800
:1001E000DBE7184704B8000024B80000103A24BF29
:1001F00078C878C1FAD8520724BF30C830C144BF8C
:1002000004680C6070470000704700000023002461
:1002100000250026103A28BF78C1FBD8520728BF16
:1002200030C148BF0B6070471FB50BF0CCF89DE89C
:10023000030000F00FFA00F029F91FBD10B50020EF
:1002400000F048FA10BD00F071FA1146FFF7ECFF1C
:1002500006F01AFD00F0A9FA03B4FFF7EFFF03BCA4
:1002600000F05AFA0948804709480047FEE7FEE7D0
:10027000FEE7FEE7FEE7FEE7FEE7FEE7FEE7FEE756
:1002800004480549054A064B70470000054A000826
:100290008901000870550020705B00207057002015
:1002A0007057002053EA020C00F069802DE9F04BF2
:1002B0004FF00006002B1FBFB3FA83F503FA05F4D5
:1002C00024FA05F65E4012BF1643B2FA82F502FA2E
:1002D00005F4C5F120051EBF22FA05FC44EA0C0412
:1002E000203556EA044C4FEA144418BF641C4FF002
:1002F00000084FF00009904271EB030C39D300293C
:1003000019BFB1FA81F701FA07F6B0FA80F700FADF
:1003100007F6C7F120071EBF20FA07FC46EA0C06C5
:100320002037B6FBF4FCA7EB0507103F07F01F0BC7
:10033000CBF120062CFA06F60CFA0BFB44BFB346B1
:100340000026202FA4BF5E464FF0000B5BEA060C90
:1003500008BF4FF0010B19EB0B0948EB0608ABFB8C
:10036000027C06FB02CC0BFB03CCC01B71EB0C0127
:10037000C1E70B46024641464846BDE8F08B13B53F
:10038000084318BF4FF0FF300146AFF30080BDE8CF
:100390001C4070470B460146184600F0EEB8032A91
:1003A00040F2308010F0030C00F0158011F8013B92
:1003B000BCF1020F624498BF11F801CB00F8013B79
:1003C00038BF11F8013BA2F1040298BF00F801CB3D
:1003D00038BF00F8013B11F0030300F0E580083A54
:1003E000C0F0088051F8043B083A51F804CBA0E86B
:1003F0000810F5E7121D5CBF51F8043B40F8043BC0
:10040000AFF30080D20724BF11F8013B11F801CBF4
:1004100048BF11F8012B24BF00F8013B00F801CBC5
:1004200048BF00F8012B704702F0FF0343EA0322A4
:1004300042EA024200F002B84FF0000200B5134653
:1004400094469646203922BFA0E80C50A0E80C50F4
:10045000B1F12001BFF4F7AF090728BFA0E80C50A5
:1004600048BF0CC05DF804EB890028BF40F8042B9E
:1004700008BF704748BF20F8022B11F0804F18BF0B
:1004800000F8012B704770477047704708487CB5EB
:100490007844009007487844009C0546019004E0A9
:1004A0002046016808448047241DAC42F8D17CBD39
:1004B00074B500007EB5000070B5064600F0A6F8E1
:1004C000056806F10B0020F00704B4429CBF002031
:1004D00070BD2B466A68BAB11068A04210D304F10F
:1004E000080188423CBF5068586007D35168101912
:1004F00041601168091B016058601460101D70BDD7
:1005000013465268002AE7D12146284600F08EF8AB
:100510000028DED170BD70B50446051F00F076F8E6
:100520000068002C14BF446870BD002C18BFAC429A
:100530003CBF20466468F8D301680A18AA4218BF75
:10054000456003D12A6805461144016028684119B5
:10055000A1421CBF6C6070BD61686960216808447D
:10056000286070BD10B500F059F8006810BD10B5D6
:10057000044600F053F8046010BD2DE9F041074631
:1005800015460E461020FFF797FF04000AD067605B
:10059000C4E9026500F03EF80168216004600020B3
:1005A000BDE8F0810120FBE710B5203AC0F00B80D8
:1005B000B1E81850A0E81850B1E81850A0E8185059
:1005C000203ABFF4F5AF5FEA027C24BFB1E81850CF
:1005D000A0E8185044BF18C918C0BDE810405FEA31
:1005E000827C24BF51F8043B40F8043B08BF7047AD
:1005F000D20728BF31F8023B48BF11F8012B28BFB2
:1006000020F8023B48BF00F8012B704700487047B4
:10061000180100200048704748010020004870473A
:1006200010010020704770477047704738B5044686
:100630000A4600206946AFF30080002808BF38BD95
:1006400002460099204600F096F8012038BD0120AE
:1006500000F0BBB8F8B5AFF30080054600200C46AB
:100660000C2000BF0646A819A0420DD932466946A3
:100670000020AFF30080070008BF00F0A6F8009844
:10068000A04218BF0546C419FFF7C0FF0560074622
:10069000F01D20F007004619284600F00AF8B44281
:1006A00008BFF8BDA21B31463868BDE8F84000F02D
:1006B00062B800210160416070470C20704710B59E
:1006C000002000F07BF8FFF7B9FDBDE810400120E5
:1006D00000F022B82DE9F0410646FFF79BFF804667
:1006E000454613E016B1E068B0420ED1206828609C
:1006F000D4E90101D8F8007088472046FFF70BFFC6
:10070000D8F80000B842EBD100E025462C68002C58
:10071000E8D1BDE8F081000001491820ABBEFEE73A
:100720002600020000487047100100207546FFF7C0
:10073000F9FFAE4605006946534620F0070085469E
:1007400018B020B5FFF79CFDBDE820404FF0000633
:100750004FF000074FF000084FF0000BAC46ACE83C
:10076000C009ACE8C009ACE8C009ACE8C00921F098
:1007700007018D467047034640688C46002818BF25
:1007800088423CBF03464068F8D318681844884242
:1007900007D00CF1030020F00700001D411A521A87
:1007A0000146081D0A60FFF7B6BE10B50446AFF358
:1007B00000802046BDE81040FFF74EBD10B500F0A8
:1007C00011F8BDE8104000F008B810B500F022F8AC
:1007D000BDE8104000F001B87047002801D0FFF7D5
:1007E0009BBF704710B5002102A000F03BF801202C
:1007F00010BD0000534947414252543A2041626EB5
:100800006F726D616C207465726D696E6174696F71
:100810006E00000010B5012805D0002103A000F0F3
:1008200021F8012010BD09A1F8E700005349475203
:10083000544D454D3A204F7574206F6620686561B0
:1008400070206D656D6F7279000000003A20486578
:100850006170206D656D6F727920636F7272757053
:100860007465640070B505460C460A2000E06D1CF6
:1008700000F011F835B128780028F8D102E0641CA6
:1008800000F009F814B120780028F8D1BDE87040D4
:100890000A20AFF3008008B569468DF800000320F8
:1008A000ABBE08BDFFE7FEE780B58AB00021059129
:1008B0000691012007900091042201920291039178
:1008C000049108900E20099040F6B800C2F2000092
:1008D000694600F0F7F918B1FFE700F019F9FFE7F2
:1008E00040F6B800C2F2000000F0E4FF18B1FFE7E4
:1008F00000F00EF9FFE740F6B800C2F20000022156
:1009000000F00AF918B1FFE700F002F9FFE740F242
:10091000B411C2F200010020486004228A60C8605D
:1009200008220A6108750AB080BD000080B540F653
:10093000B800C2F2000000F0A5FB80BD80B540F613
:10094000E000C2F2000000F09DFB80BD83B0029089
:100950008DF807100020ADF804008DF80300FFE7C4
:100960009DF803009DF80710884219DAFFE7BDF8EB
:10097000041002989DF80320805C80EA11224BF25B
:100980005850C0F6000030F8120080EA0120ADF89F
:100990000400FFE79DF8030001308DF80300DFE756
:1009A000BDF8040003B0704780B540F60810C2F2ED
:1009B000000001F079F880BD82B0019001980078C4
:1009C00010384AF6AB21CAF6AA21A0FB0110000993
:1009D000009000994BF25050C0F60000405C019925
:1009E000C8650098042807D3FFE701990868042226
:1009F00062F30900886506E00199086840F2FF3259
:100A000090438865FFE70198806D02B07047000051
:100A100086B0059000208DF813000598806A039039
:100A20000598806910BBFFE70398029003281BD844
:100A30000299DFE801F0020D0218059890F82F00E6
:100A4000C00720B1FFE701208DF81300FFE70CE09D
:100A50000598C06AB0F1C07F04D1FFE701208DF88E
:100A60001300FFE701E000E0FFE745E0059880693B
:100A7000B0F5005F25D1FFE70398019003281ED849
:100A80000199DFE801F00206021101208DF8130040
:100A900016E0059890F82F00C00720B1FFE701206D
:100AA0008DF81300FFE70BE00598C06AB0F1C07F36
:100AB00004D1FFE701208DF81300FFE700E0FFE716
:100AC00019E003980090032804D3FFE70098032857
:100AD00004D00EE001208DF813000BE0059890F88B
:100AE0002F00C00720B1FFE701208DF81300FFE7BA
:100AF00000E0FFE7FFE7FFE79DF8130006B070474F
:100B00007047000080B5402001F01CFA80BD000055
:100B100072B6FFE7FEE7000084B0029001910298F0
:100B200090F820008DF803009DF80300012805D0FF
:100B3000FFE79DF8030002280AD1FFE7019A029817
:100B4000016848691043486100208DF80F0008E0F3
:100B50000299486A40F48020486201208DF80F0015
:100B6000FFE79DF80F0004B07047000088B00690C2
:100B7000059104920393069890F820008DF80700E1
:100B800006980068806800900598806808B9FFE7BB
:100B900000E0FFE79DF80700012806D0FFE79DF879
:100BA0000700022840F08080FFE79DF8030040071F
:100BB00000280CD4FFE79DF803000007002806D4A6
:100BC000FFE79DF80300C006002864D5FFE7009802
:100BD000C0F30160029002990120884003990860E7
:100BE0000598806868B9FFE705980168C06840EA21
:100BF000415006990968029A01EB0211C1F880017F
:100C00000EE005994A688868C96840EAC20008434E
:100C100006990968029A01EB0211C1F88001FFE709
:100C20000598006906990968029A01EB0211C1F85A
:100C300084010598007D01280CD1FFE70698006823
:100C4000029900EB0111D1F8840140F48070C1F8E1
:100C50008401FFE70498406806990968029A01EB4D
:100C60000211C1F88C010498006806990968029A7B
:100C700001EB0211C1F8880106980068029900EBA7
:100C80000111D1F8800140F00100C1F8800100207D
:100C90008DF81F0011E00699486A40F40010486280
:100CA00001208DF81F0008E00699486A40F4802072
:100CB000486201208DF81F00FFE79DF81F0008B073
:100CC0007047000086B0049003910498006801907A
:100CD000049890F820008DF803009DF80300012887
:100CE00006D0FFE79DF80300022840F0B080FFE740
:100CF00046F20040C4F2000001900199D1F80002D0
:100D000040F00100C1F800020199D1F8000220F47E
:100D10007C50C1F800020398426A0199D1F80002A0
:100D200040EA0220C1F800020398406900F01F0168
:100D3000012088400290029A0199D1F81C02904348
:100D4000C1F81C020398C069F0B9FFE7029A019943
:100D5000D1F80C029043C1F80C02039A9088D16834
:100D6000526940EA0140019901EBC201C1F8400219
:100D7000039A10889168526940EA0140019901EB99
:100D8000C201C1F84402FFE70398C06901281ED1DF
:100D9000FFE7029A0199D1F80C021043C1F80C0246
:100DA000039A90881168526940EA0140019901EB69
:100DB000C201C1F84002039A90899168526940EAE1
:100DC0000140019901EBC201C1F84402FFE7039819
:100DD000806940B9FFE7029A0199D1F80402904373
:100DE000C1F8040207E0029A0199D1F80402104305
:100DF000C1F80402FFE70398006940B9FFE7029ACF
:100E00000199D1F814029043C1F8140207E0029A44
:100E10000199D1F814021043C1F81402FFE70398B6
:100E2000006A012808D1FFE7029A0199D1F81C0253
:100E30001043C1F81C02FFE70199D1F8000220F02D
:100E40000100C1F8000200208DF8170008E00499A5
:100E5000486A40F48020486201208DF81700FFE7BF
:100E60009DF8170006B0704781B0009001B0704740
:100E700086B00490039102920193049890F82000A8
:100E80008DF803009DF80300012806D0FFE79DF8C8
:100E90000300022840F0E880FFE7039880B9FFE7ED
:100EA00004980068C068800748B9FFE70499486A59
:100EB00040F40010486201208DF81700DDE00FE0DB
:100EC000049800680069800748B9FFE70499486AF8
:100ED00040F40010486201208DF81700CDE0FFE7D4
:100EE00004980068039900EB0110D0F8B00100F0FD
:100EF0000400029988600298806858B9FFE7049856
:100F00000068039900EB0110D0F8B001400D029980
:100F100008600AE004980068039900EB0110D0F81B
:100F2000B001C00802994860FFE70498006803997F
:100F300000EB0110D0F8B00100F002000299C86087
:100F400004980068039900EB0110D0F8B40100F098
:100F50000F00082804D3FFE70299082008610BE07E
:100F600004980068039900EB0110D0F8B40100F078
:100F70000F0002990861FFE704980068039900EBED
:100F80000110D0F8B40180B2000A02998861049877
:100F90000068039900EB0110D0F8B401000C02992D
:100FA000486104980068039900EB0110D0F8B8017B
:100FB0000199087004980068039900EB0110D0F8BB
:100FC000B801000A0199487004980068039900EB81
:100FD0000110D0F8B801000C0199887004980068DD
:100FE000039900EB0110D0F8B801000E0199C87008
:100FF00004980068039900EB0110D0F8BC01019936
:10100000087104980068039900EB0110D0F8BC0146
:10101000000A0199487104980068039900EB0110D7
:10102000D0F8BC01000C01998871049800680399FC
:1010300000EB0110D0F8BC01000E0199C8710398B3
:1010400038B9FFE704980168C86840F02000C8601C
:1010500006E004980168086940F020000861FFE795
:1010600000208DF8170008E00499486A40F48020B9
:10107000486201208DF81700FFE79DF8170006B0C1
:101080007047000080B58AB0099000200890099848
:1010900000684069079009980068406806900998C0
:1010A00000688068059009980068C06804900998F5
:1010B00000680069039009980068806902909DF8B3
:1010C0001C00C007002800F09480FFE79DF8140082
:1010D000C00758B3FFE709980168012088609DF8B0
:1010E00014008007002804D5FFE7099800F02CFCC5
:1010F0001BE09DF814004007002805D5FFE708987D
:1011000040F4006008900FE09DF8140000070028EC
:1011100005D5FFE7089840F48050089003E009984F
:1011200000F00EFCFFE7FFE7FFE7FFE79DF8150083
:10113000C00760B3FFE7099801684FF480708860CA
:101140009DF815008007002804D5FFE7099800F0F6
:1011500003FC1BE09DF815004007002805D5FFE7BC
:10116000089840F4005008900FE09DF81500000723
:10117000002805D5FFE7089840F48040089003E078
:10118000099800F0E5FBFFE7FFE7FFE7FFE79DF8C1
:101190001600C00760B3FFE7099801684FF480307C
:1011A00088609DF816008007002804D5FFE709989D
:1011B00000F0DAFB1BE09DF816004007002805D57B
:1011C000FFE7089840F4004008900FE09DF81600F3
:1011D0000007002805D5FFE7089840F48030089004
:1011E00003E0099800F0BCFBFFE7FFE7FFE7FFE73C
:1011F000FFE79DF81C000007002810D5FFE79DF8C9
:101200001000C006002809D5FFE7089840F40070D8
:101210000890099801681020C860FFE7FFE79DF873
:101220001C00400700280FD5FFE79DF810000007BD
:10123000002808D5FFE7099801680820C8600998C8
:1012400000F006FBFFE7FFE79DF81C008007002881
:101250000BD5FFE709980068C068800720B1FFE759
:10126000099800F0F9FAFFE7FFE79DF81C00400637
:10127000002810D5FFE79DF80C00C006002809D50E
:10128000FFE7089840F480600890099801681020F2
:101290000861FFE7FFE79DF81C00800600280FD5D6
:1012A000FFE79DF80C000007002808D5FFE7099824
:1012B000016808200861099800F0F0FAFFE7FFE7ED
:1012C0009DF81C00C00600280BD5FFE709980068B0
:1012D0000069800720B1FFE7099800F0E3FAFFE713
:1012E000FFE79DF81E00800700280FD5FFE79DF857
:1012F0001800C006002808D5FFE7099801681020EB
:101300004860099800F0D2FAFFE7FFE79DF81E0059
:10131000C00778B1FFE79DF818000007002808D53E
:10132000FFE70998016808204860099800F020FB51
:10133000FFE7FFE79DF81D000006002840F18D80C3
:10134000FFE79DF818004007002840F18180FFE783
:101350009DF81D00C00750B1FFE79DF80800C007C9
:1013600028B1FFE7089840F001000890FFE79DF8DA
:101370001D00800700280BD5FFE79DF808008007B7
:10138000002805D5FFE7089840F002000890FFE725
:101390009DF81D00400700280BD5FFE79DF80800C9
:1013A0004007002805D5FFE7089840F004000890A2
:1013B000FFE79DF81D000007002848D5FFE79DF8CE
:1013C000080010F0700F42D0FFE7029800F07000A4
:1013D00001460191102814D0FFE70198202815D06C
:1013E000FFE70198302816D0FFE70198402817D072
:1013F000FFE70198502818D0FFE70198602819D01E
:101400001DE0089840F00800089019E0089840F0A6
:101410001000089014E0089840F0200008900FE0B9
:10142000089840F0400008900AE0089840F08000DA
:10143000089005E0089840F48070089000E0FFE70D
:1014400009980168886920F070008861FFE7FFE76C
:101450000998016804204860FFE7089848B1FFE751
:10146000089A0999486A104348620998FFF7FCFCFA
:10147000FFE70AB080BD000080B584B002900298FA
:1014800020B9FFE701208DF80F00E0E0029890F806
:10149000200020B9FFE7029800F0DEF8FFE702988D
:1014A0000168086840F00100086000F05BFF0190EF
:1014B000FFE7029800684068C007A8B9FFE700F09E
:1014C00051FF0199401A0B280DD3FFE70299486A92
:1014D00040F4003048620299052081F82000012084
:1014E0008DF80F00B3E0E4E702980168086820F087
:1014F0000200086000F036FF0190FFE702980068E4
:1015000040688007002815D5FFE700F02BFF019900
:10151000401A0B280DD3FFE70299486A40F40030C7
:1015200048620299052081F8200001208DF80F0003
:101530008DE0E3E70298007E012807D1FFE70298DB
:101540000168086840F08000086006E002980168C1
:10155000086820F080000860FFE70298407E0128BC
:1015600007D1FFE702980168086840F04000086072
:1015700006E002980168086820F040000860FFE774
:101580000298807E012807D1FFE702980168086869
:1015900040F02000086006E002980168086820F02A
:1015A00020000860FFE70298C07E012807D1FFE70E
:1015B00002980168086820F01000086006E00298B0
:1015C0000168086840F010000860FFE70298007F9B
:1015D000012807D1FFE702980168086840F0080079
:1015E000086006E002980168086820F008000860BA
:1015F000FFE70298407F012807D1FFE702980168C2
:10160000086840F00400086006E002980168086875
:1016100020F004000860FFE7029B19685A68986888
:10162000D3F80CC040EA0C00D3F810C040EA0C001C
:101630005B691843013A1043C8610299002048626F
:10164000029A012182F820108DF80F00FFE79DF823
:101650000F0004B080BD000080B596B0159000204A
:10166000149013901290119010901598006846F203
:101670000041C4F20001884266D1FFE740F2A810A1
:10168000C2F200000168013101600068012812D136
:10169000FFE7FFE700200F9043F64000C4F202008E
:1016A000016841F000710160006800F000700F9067
:1016B0000F98FFE7FFE7FFE700200E9043F63000AA
:1016C000C4F20200016841F001010160006800F00D
:1016D00001000E900E98FFE74FF4C05010900220CA
:1016E0000890119000200990129003201390092077
:1016F00014900020C4F2020010A900F03FFC0899E9
:10170000099A1320059000F00BFF059800F0FEFEEB
:101710000899099A1420069000F002FF069800F03C
:10172000F5FE0899099A1520079000F0F9FE079830
:1017300000F0ECFE0899099A16200A9000F0F0FEDD
:101740000A9800F0E3FE80E01598006846F6000174
:10175000C4F20001884277D1FFE7FFE700200D9037
:1017600043F64000C4F20200016841F0806101606C
:10177000006800F080600D900D98FFE740F2A8101F
:10178000C2F200000168013101600068012812D135
:10179000FFE7FFE700200C9043F64000C4F2020090
:1017A000016841F000710160006800F000700C9069
:1017B0000C98FFE7FFE7FFE700200B9043F63000AF
:1017C000C4F20200016841F002010160006800F00B
:1017D00002000B900B98FFE74FF44050109002204E
:1017E0001190002003901290032013900920149070
:1017F00040F20040C4F2020010A900F0BFFB039ABF
:101800003F200090114600F08BFE009800F07EFE15
:10181000039A40200190114600F082FE019800F0EA
:1018200075FE039A41200290114600F079FE02985D
:1018300000F06CFE039A42200490114600F070FE06
:10184000049800F063FEFFE7FFE716B080BD0000DC
:1018500081B0009001B0704780B588B007900798BC
:1018600040F6B801C2F20001884214D1FFE740F20D
:101870000001C2F200010120086040F66032C2F2AD
:10188000000202F11C0340F6B800C2F20000002181
:10189000FFF7EEFAFFE708B080BD000081B00090CE
:1018A00001B0704781B0009001B0704781B00090E6
:1018B00001B0704780B584B00290029890F8200083
:1018C00001282FD1FFE70299022081F82000029819
:1018D0000168086820F00100086000F043FD0190F5
:1018E000FFE7029800684068C007A8B1FFE700F072
:1018F00039FD0199401A0B280DD3FFE70299486A78
:1019000040F4003048620299052081F8200001204F
:101910008DF80F000FE0E4E70299002048628DF88F
:101920000F0008E00299486A40F400204862012054
:101930008DF80F00FFE79DF80F0004B080BD000098
:1019400081B0009001B0704781B0009001B0704745
:1019500081B0009001B0704781B0009001B0704735
:1019600081B0009001B0704781B0009001B0704725
:1019700081B0009001B0704780B584B002900298A9
:10198000806D019000F0EEFC0090029890F8350018
:1019900002280DD0FFE7029980204865FFE70299F1
:1019A000002081F83400FFE701208DF80F0055E09A
:1019B00002980168086820F0160008600298016823
:1019C000486920F0800048610298006C20B9FFE768
:1019D0000298806C38B1FFE702980168086820F02F
:1019E00008000860FFE702980168086820F001001D
:1019F0000860FFE7029800680068C007C8B1FFE709
:101A000000F0B0FC0099401A062811D3FFE70299B4
:101A1000202048650299032081F83500FFE70299EC
:101A2000002081F83400FFE703208DF80F0015E057
:101A3000E0E70298C16D3F208840019988600299D3
:101A4000012081F83500FFE70299002081F8340079
:101A5000FFE7FFE700208DF80F00FFE79DF80F007C
:101A600004B080BD82B00090009890F83500022844
:101A700007D0FFE700998020486501208DF8070016
:101A80000EE00099052081F835000098016808688B
:101A900020F001000860FFE700208DF80700FFE755
:101AA0009DF8070002B0704780B586B00590002011
:101AB000039040F20400C2F20000006848F2B51141
:101AC000C1F64E31A0FB0110800A02900598806D8E
:101AD000019001980068049004980599C96DC84068
:101AE000000700281AD5FFE705980068006840073E
:101AF000002812D5FFE705980168086820F0040067
:101B000008600598C16D0820884001998860059992
:101B1000486D40F001004865FFE7FFE7049805992C
:101B2000C96DC840C007A0B1FFE7059800684069CB
:101B3000000600280CD5FFE70598C16D01208840FC
:101B4000019988600599486D40F002004865FFE7FB
:101B5000FFE704980599C96DC8404007002814D5CF
:101B6000FFE7059800680068800700280CD5FFE7AC
:101B70000598C16D04208840019988600599486DD9
:101B800040F004004865FFE7FFE704980599C96D38
:101B9000C840C006002847D5FFE7059800680068E0
:101BA000000700283FD5FFE70598C16D1020884049
:101BB00001998860059800680068400300281AD5DC
:101BC000FFE70598006800680003002809D4FFE7D4
:101BD0000598006C20B1FFE70598016C8847FFE786
:101BE00008E00598806C20B1FFE70598816C884774
:101BF000FFE7FFE716E0059800680068C0050028C9
:101C000007D4FFE705980168086820F0080008601D
:101C1000FFE70598006C20B1FFE70598016C884745
:101C2000FFE7FFE7FFE7FFE704980599C96DC840A4
:101C30008006002840F18D80FFE705980068006865
:101C4000C006002840F18480FFE70598C16D202080
:101C5000884001998860059890F83500052834D1AE
:101C6000FFE705980168086820F0160008600598ED
:101C70000168486920F0800048610598006C20B92F
:101C8000FFE70598806C38B1FFE7059801680868A0
:101C900020F008000860FFE70598C16D3F208840EC
:101CA000019988600599012081F83500FFE70599C1
:101CB000002081F83400FFE70598006D20B1FFE7B0
:101CC0000598016D8847FFE77BE00598006800688C
:101CD000400300281AD5FFE7059800680068000354
:101CE000002809D4FFE70598406C20B1FFE705986C
:101CF000416C8847FFE708E00598C06B20B1FFE71B
:101D00000598C16B8847FFE7FFE720E0059800686A
:101D10000068C005002811D4FFE70598016808682D
:101D200020F0100008600599012081F83500FFE7D8
:101D30000599002081F83400FFE7FFE70598C06BA4
:101D400020B1FFE70598C16B8847FFE7FFE7FFE792
:101D5000FFE70598406DA0B3FFE70598406DC00709
:101D600030B3FFE70599052081F835000598016833
:101D7000086820F001000860FFE703980130039035
:101D80000299884201D9FFE707E0FFE7059800685C
:101D90000068C0070028F0D1FFE70599012081F80D
:101DA0003500FFE70599002081F83400FFE7FFE7E1
:101DB0000598C06C20B1FFE70598C16C8847FFE724
:101DC000FFE706B080BD000080B586B0049000201B
:101DD000039000F0C7FA0290049820B9FFE70120B1
:101DE0008DF81700A3E00498406A08B1FFE7FFE709
:101DF0000499022081F83500FFE70499002081F85A
:101E00003400FFE704980168086820F001000860CA
:101E1000FFE7049800680068C00790B1FFE700F092
:101E2000A1FA0299401A06280AD3FFE70499202054
:101E300048650499032081F835008DF8170076E095
:101E4000E7E70498006800680390039848F23F01B0
:101E5000CFF2100108400390049900914868D1F82E
:101E600008C0CB680A6940EA0C00184310434A696D
:101E700010438A691043CA691043096A01430398F1
:101E8000084303900498406A042808D1FFE70499A6
:101E9000C86A096B0143039808430390FFE703985E
:101EA00004990968086004980068406903900398E1
:101EB00020F0070003900498416A039808430390B8
:101EC0000498406A04281AD1FFE70498816A0398AD
:101ED000084303900498C06A80B1FFE70498FEF7B6
:101EE00097FD50B1FFE7049940204865049901200F
:101EF00081F835008DF8170019E0FFE7FFE7039838
:101F00000499096848610498FEF756FD0190049809
:101F1000C16D3F2088400199886004990020486580
:101F2000049A012182F835108DF81700FFE79DF81B
:101F3000170006B080BD000081B0ADF8020001B00E
:101F40007047000080B582B0ADF8060043F614403B
:101F5000C4F201000068BDF8061008420CD0FFE78B
:101F6000BDF8060043F61441C4F201010860BDF853
:101F70000600FFF7E1FFFFE702B080BD8EB00D90D5
:101F80000C9100200A90099008900B90FFE70B98A5
:101F90000F2800F2CC81FFE70B99012088400A90BE
:101FA0000C9800680A990840099009980A99884293
:101FB00040F0B881FFE70C98406800F0030001286A
:101FC00007D0FFE70C98406800F0030002282FD1EB
:101FD000FFE70D98806808900B984100032000FAF5
:101FE00001F10898884308900C98C0680B99490043
:101FF00000FA01F108980843089008980D99886044
:102000000D98406808900B99012000FA01F108989A
:10201000884308900C984068C0F300100B9900FAB0
:1020200001F108980843089008980D994860FFE767
:102030000C98406800F00300032818D0FFE70D98C3
:10204000C06808900B984100032000FA01F108983D
:10205000884308900C9880680B99490000FA01F1B8
:1020600008980843089008980D99C860FFE70C98F5
:10207000406800F00300022826D1FFE70D980B9975
:102080006FF0030202EA51010844006A08900B98BD
:1020900000F0070081000F2000FA01F10898884342
:1020A00008900C9800690B9901F00701890000FA6B
:1020B00001F108980843089008980D990B9B02EAD3
:1020C000530211440862FFE70D98006808900B98CE
:1020D0004100032000FA01F10898884308900C9809
:1020E000406800F003000B99490000FA01F10898DC
:1020F0000843089008980D9908600C98807980072B
:10210000002800F00E81FFE7FFE70020079043F66C
:102110004400C4F20200016841F48041016000689B
:1021200000F4804007900798FFE70B9820F0030029
:1021300043F60801C4F20101405808900B9800F0E2
:10214000030081000F2000FA01F1089888430890ED
:102150000D980021C4F20201884203D1FFE700205C
:1021600006905EE00D9840F20041C4F20201884200
:1021700003D1FFE70120059050E00D9840F60001E3
:10218000C4F20201884203D1FFE70220049042E03A
:102190000D9840F60041C4F20201884203D1FFE7E6
:1021A0000320039034E00D9841F20001C4F20201D3
:1021B000884203D1FFE70420029026E00D9841F207
:1021C0000041C4F20201884203D1FFE705200190DB
:1021D00018E00D9841F60001C4F20201884203D1D3
:1021E000FFE7062000900AE00D9941F60042C4F294
:1021F00002020820914208BF07200090FFE70098E4
:102200000190FFE701980290FFE702980390FFE733
:1022100003980490FFE704980590FFE7059806905F
:10222000FFE70698C0B20B9901F00301890000FA9C
:1022300001F108980843089008980B9921F00301D0
:1022400043F60802C4F20102885043F60840C4F283
:1022500001000068089009990898884308900C9834
:102260008079C006002805D5FFE70999089808433A
:102270000890FFE7089843F60841C4F2010108609E
:1022800043F60C40C4F201000068089009990898D0
:10229000884308900C9880798006002805D5FFE7D0
:1022A0000999089808430890FFE7089843F60C41FD
:1022B000C4F20101086043F60440C4F20100006862
:1022C000089009990898884308900C9880798007AD
:1022D000002805D5FFE70999089808430890FFE70B
:1022E000089843F60441C4F20101086043F6004037
:1022F000C4F2010000680890099908988843089082
:102300000C988079C00728B1FFE70999089808431D
:102310000890FFE7089843F60041C4F20101086005
:10232000FFE7FFE7FFE70B9801300B902FE60EB0B9
:102330007047000082B00190ADF802108DF80120C6
:102340009DF8010028B1FFE7BDF8020001998861FE
:1023500005E0BDF80200000401998861FFE702B0C2
:102360007047000044F65450C2F200000068704705
:1023700040F20410C2F20000027844F65451C2F256
:1023800000010868104408607047000080B543F6FB
:102390000041C4F20201086840F400700860086857
:1023A00040F480600860086840F480700860032092
:1023B00000F0D0F80F2000F005F800F07BF80020C6
:1023C00080BD000080B58CB00B900020049003907D
:1023D000FFE70020009043F64000C4F202000168CD
:1023E00041F002010160006800F0020000900098D6
:1023F000FFE706A802A900F0E7F9099804900498FD
:1024000020B9FFE700F010FA059004E000F00CFAA4
:1024100040000590FFE705984DF68361C4F21B313B
:10242000A0FB01014FF0FF3000EB9140039040F61C
:102430006810C2F2000040F20041C4F200010160E5
:1024400040F2E731C1600399416000210161816080
:10245000816100F0E9FD8DF807009DF8070028BBB9
:10246000FFE740F66810C2F2000000F02FFE8DF882
:1024700007009DF80700C0B9FFE71D2000F046F8EF
:102480000B980F280CD8FFE70B991D20002200F0B5
:1024900047F80B9840F20811C2F20001086003E00F
:1024A00001208DF80700FFE7FFE7FFE79DF8070031
:1024B0000CB080BD80B582B0FFE70020019043F6EC
:1024C0004400C4F20200016841F4804101600068E8
:1024D00000F4804001900198FFE7FFE700200090A2
:1024E00043F64000C4F20200016841F080510160EF
:1024F000006800F0805000900098FFE76FF0010046
:102500000F21002200F00CF802B080BD80B582B02F
:102510008DF807009DF9070004F094FA02B080BD21
:1025200080B586B08DF817000491039200200290C8
:1025300004F0A0FA02909DF9170001900298049906
:10254000039A02F0C5F90146019804F09BFA06B01F
:1025500080BD000080B582B00190019804F0D6FAE9
:1025600002B080BD80B584B002900191029820B97C
:10257000FFE701208DF80F0021E1019843F60041AB
:10258000C4F20201096801F00701884212D9FFE78D
:10259000019943F60040C4F202000170006800F0A7
:1025A00007000199884204D0FFE701208DF80F0051
:1025B00005E1FFE702980078800700282AD5FFE7A9
:1025C000029800784007002809D5FFE743F6080184
:1025D000C4F20201086840F4E0500860FFE7029886
:1025E00000780007002809D5FFE743F60801C4F288
:1025F0000201086840F460400860FFE743F6080104
:10260000C4F20201086820F0F000029A92681043B8
:102610000860FFE702980078C00700286ED0FFE747
:1026200002984068012811D1FFE743F60000C4F288
:102630000200006800F400310020B0EB514F04D1DB
:10264000FFE701208DF80F00B9E02CE00298406808
:10265000022805D0FFE702984068032811D1FFE760
:1026600043F60000C4F20200006800F00071002090
:10267000B0EB516F04D1FFE701208DF80F009EE011
:1026800010E043F60000C4F20200006800F002010E
:102690000020B0EB510F04D1FFE701208DF80F00AF
:1026A0008DE0FFE7FFE743F60801C4F20201086886
:1026B00020F00300029A526810430860FFF752FEB0
:1026C0000090FFE743F60800C4F20200006800F043
:1026D0000C0002994968B0EB810F0ED0FFE7FFF7BD
:1026E00041FE0099401A41F28931884204D3FFE744
:1026F00003208DF80F0062E0E4E7FFE7019843F65E
:102700000041C4F20201096801F00701884212D2B7
:10271000FFE7019943F60040C4F20200017000682F
:1027200000F007000199884204D0FFE701208DF8EE
:102730000F0044E0FFE702980078400700280CD51E
:10274000FFE743F60801C4F20201086820F4E050F4
:10275000029AD26810430860FFE7029800780007E9
:1027600000280DD5FFE743F60801C4F2020108680E
:1027700020F46040029A126940EAC2000860FFE754
:1027800000F076F843F60801C4F202010968C9B204
:102790000A094BF23851C0F60001895CC84040F28A
:1027A0000401C2F20001086040F20810C2F2000009
:1027B0000068FFF707FE00208DF80F00FFE79DF887
:1027C0000F0004B080BD000082B00190009101991B
:1027D0000F20086043F60800C4F20200016801F00F
:1027E0000301019A5160016801F0F001019A9160C2
:1027F000016801F4E051019AD160006800F4604082
:10280000C0080199086143F60040C4F20200006864
:1028100000F007000099086002B0704740F2040021
:10282000C2F200000068704780B5FFF7F7FF43F67B
:102830000801C4F202010968C1F382224BF2485137
:10284000C0F60001895CC84080BD000080B5FFF77C
:10285000E5FF43F60801C4F20201096889B24A0B98
:102860004BF24851C0F60001895CC84080BD0000B1
:1028700080B586B00020059004900390029043F646
:102880000800C4F20200006800F00C00014601914B
:1028900040B1FFE7019804280AD0FFE70198082813
:1028A0000CD04FE042F20040C0F2F40002904FE042
:1028B00041F20020C0F27A00029049E043F60400A1
:1028C000C4F20200016801F03F0105910068400276
:1028D000002813D5FFE743F60400C4F202000068A5
:1028E000C0F3881041F20021C0F27A01A0FB01017F
:1028F000059A0023FDF7D6FC049012E043F604008D
:10290000C4F202000068C0F3881042F20041C0F235
:10291000F401A0FB0101059A0023FDF7C3FC04901C
:10292000FFE743F60400C4F20200006800F44031FF
:10293000022000EBD130039004980399B0FBF1F032
:10294000029005E042F20040C0F2F4000290FFE77E
:10295000029806B080BD000080B586B0049004984F
:1029600020B9FFE701208DF8170050E304980078A4
:10297000C007002800F0A580FFE743F60800C4F276
:102980000200006800F00C00042813D0FFE743F6B3
:102990000800C4F20200006800F00C0008281ED1F4
:1029A000FFE743F60400C4F202000068400200287A
:1029B00015D5FFE743F60000C4F20200006800F4FA
:1029C00000310020B0EB514F08D0FFE70498406879
:1029D00020B9FFE701208DF8170018E370E0FFE74A
:1029E00004984068B0F5803F09D1FFE743F6000145
:1029F000C4F20201086840F48030086020E00498C6
:102A00004068B0F5A02F0DD1FFE743F60001C4F2F6
:102A10000201086840F480200860086840F48030B3
:102A200008600CE043F60001C4F20201086820F4DB
:102A300080300860086820F480200860FFE7FFE726
:102A4000FFE704984068E8B1FFE7FFF78BFC0390CD
:102A5000FFE743F60000C4F20200006800F4003112
:102A60000020B0EB514F0CD1FFE7FFF77BFC03993F
:102A7000401A652804D3FFE703208DF81700C6E24B
:102A8000E7E71CE0FFF76EFC0390FFE743F600006A
:102A9000C4F20200006800F400310020B0EB514F96
:102AA0000CD0FFE7FFF75EFC0399401A652804D3BA
:102AB000FFE703208DF81700A9E2E7E7FFE7FFE74C
:102AC000FFE7049800788007002840F19680FFE730
:102AD00043F60800C4F20200006810F00C0F13D097
:102AE000FFE743F60800C4F20200006800F00C00A3
:102AF00008282CD1FFE743F60400C4F20200006866
:102B00004002002823D4FFE743F60000C4F202008D
:102B1000006800F002010020B0EB510F09D0FFE780
:102B20000498C068012804D0FFE701208DF8170041
:102B30006DE243F60001C4F20201086820F0F800DB
:102B4000049A126940EAC2000860FFE754E0049862
:102B5000C06870B3FFE70021C4F24721012008607C
:102B6000FFF700FC0390FFE743F60000C4F2020009
:102B7000006800F002010020B0EB510F0CD1FFE71C
:102B8000FFF7F0FB0399401A032804D3FFE7032063
:102B90008DF817003BE2E7E743F60001C4F20201BB
:102BA000086820F0F800049A126940EAC200086040
:102BB00021E00021C4F2472100200860FFF7D2FB8A
:102BC0000390FFE743F60000C4F20200006800F043
:102BD00002010020B0EB510F0CD0FFE7FFF7C2FB62
:102BE0000399401A032804D3FFE703208DF8170048
:102BF0000DE2E7E7FFE7FFE7FFE70498007800074B
:102C000000284BD5FFE70498406918B3FFE740F66A
:102C10008061C4F2472101200860FFF7A3FB039005
:102C2000FFE743F67400C4F20200006800F00201FE
:102C30000020B0EB510F0CD1FFE7FFF793FB039996
:102C4000401A032804D3FFE703208DF81700DEE1C4
:102C5000E7E722E040F68061C4F2472100200860E7
:102C6000FFF780FB0390FFE743F67400C4F2020015
:102C7000006800F002010020B0EB510F0CD0FFE71C
:102C8000FFF770FB0399401A032804D3FFE70320E2
:102C90008DF81700BBE1E7E7FFE7FFE7049800784E
:102CA0004007002840F1CE80FFE700208DF80700A4
:102CB00043F64000C4F202000068C000002815D4AA
:102CC000FFE7FFE70020009043F64000C4F2020057
:102CD000016841F080510160006800F08050009070
:102CE0000098FFE701208DF80700FFE747F200009A
:102CF000C4F200000068C005002822D4FFE747F2B4
:102D00000001C4F20001086840F480700860FFF719
:102D100029FB0390FFE747F20000C4F200000068BF
:102D2000C00500280CD4FFE7FFF71CFB0399401AED
:102D3000032804D3FFE703208DF8170067E1EAE7D3
:102D4000FFE7FFE704988068012809D1FFE743F611
:102D50007001C4F20201086840F0010008601FE041
:102D60000498806805280DD1FFE743F67001C4F28E
:102D70000201086840F004000860086840F00100A3
:102D800008600CE043F67001C4F20201086820F00C
:102D900001000860086820F004000860FFE7FFE712
:102DA000FFE704988068F8B1FFE7FFF7DBFA0390CC
:102DB000FFE743F67000C4F20200006800F0020171
:102DC0000020B0EB510F0ED1FFE7FFF7CBFA0399CC
:102DD000401A41F28931884204D3FFE703208DF87D
:102DE000170014E1E5E71EE0FFF7BCFA0390FFE7E8
:102DF00043F67000C4F20200006800F002010020F7
:102E0000B0EB510F0ED0FFE7FFF7ACFA0399401A71
:102E100041F28931884204D3FFE703208DF817007F
:102E2000F5E0E5E7FFE79DF80700012809D1FFE796
:102E300043F64001C4F20201086820F080500860A7
:102E4000FFE7FFE704988069002800F0DC80FFE7D7
:102E500043F60800C4F20200006800F00C000828E5
:102E600000F08580FFE70498806902285CD1FFE7C5
:102E70006021C4F2472100200860FFF773FA039035
:102E8000FFE743F60000C4F20200006800F00071A2
:102E90000020B0EB516F0CD0FFE7FFF763FA039906
:102EA000401A032804D3FFE703208DF81700AEE093
:102EB000E7E70499C869D1F820C04B6A8A6A40EAFA
:102EC0000C0040EA8310D2034FF6FF739A43A2F539
:102ED00080321043C96A40EA016043F60401C4F23B
:102EE000020108606021C4F2472101200860FFF759
:102EF00039FA0390FFE743F60000C4F202000068CD
:102F000000F000710020B0EB516F0CD1FFE7FFF72C
:102F100029FA0399401A032804D3FFE703208DF808
:102F2000170074E0E7E721E06021C4F247210020A8
:102F30000860FFF717FA0390FFE743F60000C4F2BA
:102F40000200006800F000710020B0EB516F0CD05F
:102F5000FFE7FFF707FA0399401A032804D3FFE7B6
:102F600003208DF8170052E0E7E7FFE74AE00498F6
:102F70008069012804D1FFE701208DF8170046E0A1
:102F800043F60400C4F202000068029004988069CD
:102F9000012831D0FFE7029800F480000499C96944
:102FA000884229D1FFE7029800F03F000499096A9E
:102FB000884221D1FFE7029847F6C0710840049982
:102FC000496AB0EB811F17D1FFE7029800F4403047
:102FD0000499896AC9034FF6FF729143A1F58031C4
:102FE000884209D1FFE7029800F070600499C96A2D
:102FF000B0EB016F04D0FFE701208DF8170006E069
:10300000FFE7FFE7FFE700208DF81700FFE79DF8D7
:10301000170006B080BD000081B0009001B070477D
:1030200081B0009001B0704780B582B000900098E8
:1030300020B9FFE701208DF807003FE0009890F8E5
:103040003D0040B9FFE70099002081F83C0000985E
:1030500000F038F8FFE70099022081F83D00009960
:1030600051F8040B01F0E0FC0099012081F84600C2
:10307000FFE70099012081F83E00009981F83F00A8
:10308000009981F84000009981F84100FFE7FFE7CF
:103090000099012081F84200009981F843000099CD
:1030A00081F84400009981F84500FFE7009901206C
:1030B00081F83D0000208DF80700FFE79DF807002C
:1030C00002B080BD81B0009001B0704783B0019024
:1030D000019890F83D00012804D0FFE701208DF809
:1030E0000B006AE00199022081F83D000198016817
:1030F000C86840F00100C860019800680021C4F26F
:10310000010188423CD0FFE701980068B0F1804F90
:1031100036D0FFE70198006840F20041C4F2000198
:1031200088422DD0FFE70198006840F60001C4F204
:103130000001884224D0FFE70198006840F6004172
:10314000C4F2000188421BD0FFE70198006840F2FA
:103150000041C4F20101884212D0FFE701980068E3
:1031600044F20001C4F20101884209D0FFE701984E
:10317000006841F60001C4F20001884212D1FFE765
:1031800001980068806800F0070000900098062809
:1031900007D0FFE701980168086840F00100086067
:1031A000FFE706E001980168086840F00100086048
:1031B000FFE700208DF80B00FFE79DF80B0003B040
:1031C0007047000081B0009001B0704780B584B0B6
:1031D000039003980068C068029003980068006933
:1031E00001909DF804008007002824D5FFE79DF892
:1031F0000800800700281DD5FFE7039801686FF0DD
:10320000020008610399012008770398006880692B
:10321000800720B1FFE70398FFF7D4FF06E003988B
:1032200000F0E2F8039800F0E3F8FFE703990020CC
:103230000877FFE7FFE79DF804004007002825D541
:10324000FFE79DF80800400700281ED5FFE7039818
:1032500001686FF004000861039902200877039861
:103260000068806910F4407F04D0FFE70398FFF7FF
:10327000A9FF06E0039800F0B7F8039800F0B8F84B
:10328000FFE7039900200877FFE7FFE79DF80400B8
:103290000007002824D5FFE79DF808000007002854
:1032A0001DD5FFE7039801686FF0080008610399D6
:1032B0000420087703980068C069800720B1FFE701
:1032C0000398FFF77FFF06E0039800F08DF803985E
:1032D00000F08EF8FFE7039900200877FFE7FFE78B
:1032E0009DF80400C006002825D5FFE79DF80800DA
:1032F000C00600281ED5FFE7039801686FF0100094
:10330000086103990820087703980068C06910F4E1
:10331000407F04D0FFE70398FFF754FF06E00398CF
:1033200000F062F8039800F063F8FFE703990020CB
:103330000877FFE7FFE79DF80400C00778B1FFE7D3
:103340009DF80800C00748B1FFE7039801686FF0D7
:1033500001000861039800F04FF8FFE7FFE79DF8D0
:1033600004000006002810D5FFE79DF808000006BD
:10337000002809D5FFE7039801686FF08000086115
:103380000398FFF749FEFFE7FFE79DF804004006BA
:10339000002810D5FFE79DF808004006002809D551
:1033A000FFE7039801686FF040000861039800F0A0
:1033B00035F8FFE7FFE79DF804008006002810D5E8
:1033C000FFE79DF808008006002809D5FFE703986D
:1033D00001686FF0200008610398FFF721FEFFE706
:1033E000FFE704B080BD000081B0009001B07047DD
:1033F00081B0009001B0704780B582B00190019813
:10340000006840F20041C4F20001884203D1FFE7A6
:10341000FEF7AEFFFFE702B080BD000081B0009074
:1034200001B0704782B00190ADF8021002B0704751
:1034300081B0009001B0704780B592B011901198A2
:1034400000680068109011980068C0680F9011988B
:10345000006840690E9000200D900C90109800F0CC
:103460000F000D900D9888B9FFE79DF84000800689
:1034700000280AD5FFE79DF83C008006002804D507
:10348000FFE7119801F026FCEAE1FFE70D9800281C
:1034900000F0C280FFE79DF83800C00738B9FFE7A9
:1034A000BDF83C0010F4907F00F0B680FFE79DF877
:1034B0004000C00758B1FFE79DF83D00C00730B19C
:1034C000FFE71199486C40F001004864FFE79DF860
:1034D0004000400700280BD5FFE79DF83800C007E3
:1034E00030B1FFE71199486C40F002004864FFE7F3
:1034F0009DF84000800700280BD5FFE79DF83800B5
:10350000C00730B1FFE71199486C40F004004864EF
:10351000FFE79DF840000007002811D5FFE79DF860
:103520003C008006002805D4FFE79DF83800C0075E
:1035300030B1FFE71199486C40F008004864FFE79C
:103540001198406C002866D0FFE79DF84000800687
:1035500000280AD5FFE79DF83C008006002804D526
:10356000FFE7119801F0B6FBFFE71198006840698A
:10357000C0F380100C901198406C0007002804D410
:10358000FFE70C9800283ED0FFE7119801F044FBBC
:10359000119800684069400600282FD5FFE7FFE733
:1035A000FFE71198006850E8050F20F040000B90ED
:1035B000FFE70B991198026842E805100028F0D146
:1035C000FFE7FFE71198C06B98B1FFE71198C16B57
:1035D00044F6F930C0F6000008651198C06BFEF79C
:1035E00041FA28B1FFE71198C06B016D8847FFE7EA
:1035F00003E01198FFF71CFFFFE703E01198FFF7C6
:1036000017FFFFE706E01198FFF712FF119900205E
:103610004864FFE7FFE723E11198006B012840F0C1
:10362000FF80FFE79DF84000C006002840F1F880C9
:10363000FFE79DF83C00C006002840F1F180FFE75D
:10364000FFE700200A901198006800680A9011981E
:10365000006840680A900A98FFE71198006840697E
:103660004006002840F18280FFE71198C06B006897
:103670004068ADF82600BDF82600002875D0FFE7A9
:10368000BDF826001199898D88426EDAFFE7BDF8F2
:1036900026001199C8851198C06BC069B0F5807F6C
:1036A00058D0FFE7FFE7FFE71198006850E8030FE5
:1036B00020F480700890FFE708991198026842E8AA
:1036C00003100028F0D1FFE7FFE7FFE7FFE71198BD
:1036D000006850E8050F20F001000790FFE7079908
:1036E0001198026842E805100028F0D1FFE7FFE7D3
:1036F000FFE7FFE71198006850E8050F20F0400051
:103700000690FFE706991198026842E80510002824
:10371000F0D1FFE7FFE71199202081F842001199CD
:1037200000200863FFE7FFE71198006850E8030FE7
:1037300020F010000590FFE705991198026842E813
:1037400003100028F0D1FFE7FFE71198C06BFEF7E8
:1037500013F9FFE71199022048631198818DC28DFA
:10376000891A89B2FFF75EFEFFE779E01199888D2B
:10377000C98D401AADF812001198C08D00284ED0A6
:10378000FFE7BDF81200002849D0FFE7FFE7FFE799
:103790001198006850E8030F20F490700390FFE741
:1037A00003991198026842E803100028F0D1FFE75E
:1037B000FFE7FFE7FFE71198006850E8050F20F0EA
:1037C00001000290FFE702991198026842E8051093
:1037D0000028F0D1FFE7FFE71199202081F842008F
:1037E000119900200863FFE7FFE71198006850E88F
:1037F000030F20F010000190FFE701991198026873
:1038000042E803100028F0D1FFE7FFE711990220FA
:1038100048631198BDF81210FFF704FEFFE71FE0A0
:103820009DF84000000600280AD5FFE79DF83C00FF
:103830000006002804D5FFE7119801F0D1FB0FE046
:103840009DF84000400600280AD5FFE79DF83C009F
:103850004006002804D5FFE7119801F027FAFFE79A
:1038600012B080BD80B582B00090009820B9FFE70B
:1038700001208DF8070040E00098806908B1FFE75B
:1038800000E0FFE7009890F8410040B9FFE7009999
:10389000002081F84000009800F034F8FFE700991C
:1038A000242081F8410000980168C86820F4005085
:1038B000C860009801F0C4FA00980168086920F413
:1038C0009040086100980168486920F02A0048612A
:1038D00000980168C86840F40050C8600099002052
:1038E0004864009A202182F84110009A82F8421020
:1038F000009948638DF80700FFE79DF8070002B0C4
:1039000080BD000080B5A8B02790002026902590AB
:103910002490239022902798006844F60041C4F236
:10392000000188423FD1FFE7FFE70020219043F6E6
:103930004000C4F20200016841F400210160006807
:1039400000F4002021902198FFE7FFE7002020905D
:1039500043F63000C4F20200016841F00401016046
:10396000006800F0040020902098FFE74FF44060CA
:103970002290022023900020129024900320259072
:103980000820269040F60000C4F2020022A9FEF7AB
:10399000F5FA129A342013900621FEF7C1FD139810
:1039A000FEF7B4FDDEE12798006845F20001C4F29D
:1039B0000001884269D1FFE7FFE700201F9043F62E
:1039C0004000C4F20200016841F480110160006807
:1039D00000F480101F901F98FFE7FFE700201E9063
:1039E00043F63000C4F20200016841F004010160B6
:1039F000006800F004001E901E98FFE7FFE700201B
:103A00001D9043F63000C4F20200016841F0080145
:103A10000160006800F008001D901D98FFE74FF45A
:103A20008050229002200C9023900020109024902F
:103A300003200D90259008200E90269040F600005F
:103A4000C4F2020022A90F91FEF798FADDF830C007
:103A50000D9A0E980F99109B4FF0040ECDF888E048
:103A6000CDF88CC024932592269040F60040C4F2F5
:103A70000200FEF783FA109A352011900521FEF717
:103A80004FFD1198FEF742FD6BE12798006841F267
:103A90000001C4F2010188423ED1FFE7FFE70020A8
:103AA0001C9043F64400C4F20200016841F010018A
:103AB0000160006800F010001C901C98FFE7FFE711
:103AC00000201B9043F63000C4F20200016841F070
:103AD00001010160006800F001001B901B98FFE7E6
:103AE0004FF4C06022900220239000200A9024907E
:103AF00003202590072026900020C4F2020022A96E
:103B0000FEF73CFA0A9A25200B900521FEF708FDE6
:103B10000B98FEF7FBFC23E12798006844F2004174
:103B2000C4F2000188423ED1FFE7FFE700201A906F
:103B300043F64000C4F20200016841F40031016024
:103B4000006800F400301A901A98FFE7FFE70020A1
:103B5000199043F63000C4F20200016841F00801F8
:103B60000160006800F0080019901998FFE76020D4
:103B7000229002202390002008902490032025907A
:103B80000720269040F60040C4F2020022A9FEF76A
:103B9000F5F9089A262009900521FEF7C1FC09983D
:103BA000FEF7B4FCDBE02798006844F60001C4F29D
:103BB0000001884269D1FFE7FFE70020189043F633
:103BC0004000C4F20200016841F4802101600068F5
:103BD00000F4802018901898FFE7FFE70020179066
:103BE00043F63000C4F20200016841F002010160B6
:103BF000006800F0020017901798FFE7FFE7002029
:103C0000169043F63000C4F20200016841F008014A
:103C10000160006800F0080016901698FFE74FF466
:103C20009840229002200290239000200690249039
:103C300003200590259007200390269040F2004035
:103C4000C4F2020022A90491FEF798F9DDF808C039
:103C500003980499059A069B4FF4006ECDF888E00E
:103C6000CDF88CC024932592269040F60040C4F2F3
:103C70000200FEF783F90599069A27200790FEF7C0
:103C80004FFC0798FEF742FC68E02798006841F275
:103C90000041C4F2010188425FD1FFE7FFE7002045
:103CA000159043F64400C4F20200016841F020017F
:103CB0000160006800F0200015901598FFE7FFE70D
:103CC0000020149043F63000C4F20200016841F075
:103CD00040010160006800F0400014901498FFE774
:103CE0004FF48440229002202390002000902490E2
:103CF000032025900820269041F60000C4F202001F
:103D000022A9FEF73BF9009940F60810C2F2000024
:103D1000019046F22842C4F2020202604FF0206293
:103D200042608160C1604FF48062026141618161E3
:103D3000C16101624162FEF747F818B1FFE7FCF785
:103D4000E7FEFFE7FFE7279840F60811C2F20001FF
:103D5000C16327988863FFE7FFE7FFE7FFE7FFE717
:103D6000FFE7FFE728B080BD80B584B002900191E5
:103D7000ADF80220029890F84200202817D1FFE702
:103D8000019820B1FFE7BDF8020020B9FFE701204C
:103D90008DF80F000FE00299002008630298019946
:103DA000BDF8022001F0EAF88DF80F0003E00220D0
:103DB0008DF80F00FFE79DF80F0004B080BD0000F4
:103DC00080B586B0059040F2DC10C2F200000078A9
:103DD000BFF35F8FC007A8B9FFE740F2DC10C2F263
:103DE000000004F01AF968B1FFE740F66800C2F27B
:103DF000000002F0BFFC40F2DC10C2F2000004F050
:103E000022F9FFE7059840F6B011C2F2000188429E
:103E100011D1FFE740F2B010C2F200000390007829
:103E200000F0D8F9039940F6B010C2F20000012268
:103E3000FFF79AFFFFE7059840F64021C2F2000124
:103E4000884240F0D980FFE740F2B110C2F2000092
:103E5000007840F66501C2F20001087040F680006B
:103E6000C2F20000007801460291042800F2AF80FF
:103E70000299DFE801F0031B496E860040F66500F9
:103E8000C2F2000000780D2808D1FFE740F680015B
:103E9000C2F2000108780130087006E040F68001A7
:103EA000C2F2000100200870FFE797E040F66500CD
:103EB000C2F2000000780A280ED1FFE740F6640144
:103EC000C2F200010020087040F68001C2F2000139
:103ED00008780130087016E040F66500C2F2000074
:103EE00000780D2807D1FFE740F68001C2F20001FB
:103EF0000620087006E040F68001C2F200010020B2
:103F00000870FFE7FFE769E040F66500C2F20000D5
:103F1000017840F66400C2F20000037840F688029F
:103F2000C2F20002D15401780131017000781828E2
:103F30000EDBFFE740F66401C2F2000100200870CA
:103F400040F68001C2F20001087801300870FFE7F6
:103F500044E040F66500C2F2000000780A2808D16B
:103F6000FFE740F68001C2F20001087801300870D6
:103F700006E040F68001C2F2000100200870FFE771
:103F80002CE040F66500C2F2000000780D2817D141
:103F9000FFE740F68800C2F20000016840F6A00288
:103FA000C2F2000211604168516081689160C1688D
:103FB000D160016911614169516101F0E1F8FFE7E8
:103FC00040F68001C2F200010020087006E040F6D1
:103FD0008001C2F2000100200870FFE740F2B11139
:103FE000C2F200010020087040F64020C2F200003A
:103FF0000122FFF7B9FEFFE7059840F6F811C2F27B
:104000000001884247D1FFE744F20440C4F20000B7
:10401000006804909DF8131040F68400C2F200007E
:10402000019003685A1C026040F64C02C2F2000282
:10403000D154BDF81210036803F1010CC0F800C0A0
:10404000D1540499090A036803F1010CC0F800C0B7
:10405000D1540499036803F1010CC0F800C0D15495
:10406000006818280BD3FFE740F66800C2F2000092
:1040700040F64C01C2F2000102F08EFAFFE740F672
:10408000F810C2F2000040F2B111C2F200010122A8
:10409000FFF76AFEFFE706B080BD000080B58AB07A
:1040A00008900791ADF81A20059300200290089817
:1040B00090F84100202840F08180FFE7079820B168
:1040C000FFE7BDF81A0020B9FFE701208DF82700AF
:1040D00078E00899002048640899212081F841007F
:1040E000FEF740F90290BDF81A0008998884BDF8DF
:1040F0001A000899C88408988068B0F5805F09D1D3
:10410000FFE70898006928B9FFE7002004900798A6
:10411000039004E00798049000200390FFE7FFE776
:104120000898C08C78B3FFE70898029B05996A4607
:1041300011608021002200F09DFF40B1FFE7089947
:10414000202081F8410003208DF827003AE00498F0
:1041500058B9FFE7039800886FF35F200899096852
:10416000486003980230039008E0049800780899AA
:1041700009684860049801300490FFE70899C88CEA
:104180000138C884CCE70898029B05996A461160FB
:104190004021002200F06EFF40B1FFE70899202087
:1041A00081F8410003208DF827000BE008992020BA
:1041B00081F8410000208DF8270003E002208DF8EF
:1041C0002700FFE79DF827000AB080BD81B000906E
:1041D00001B0704780B584B08DF80F0041F24C10EB
:1041E000C2F20000007801460291082800F2FD802A
:1041F0000299DFE801F00519344256728190AC0053
:104200009DF80F00FC280ED1FFE741F24C11C2F2DD
:104210000001012008709DF80F0041F20211C2F266
:1042200000014870FFE7E7E09DF80F00FB280ED182
:10423000FFE741F24C11C2F20001022008709DF824
:104240000F0041F20211C2F20001887006E041F253
:104250004C11C2F2000100200870FFE7CCE09DF88D
:104260000F0041F20211C2F20001C87041F24C117C
:10427000C2F2000103200870BEE09DF80F0041F279
:104280000211C2F20001087041F20011C2F20001F5
:104290000020087041F24C11C2F2000104200870A5
:1042A000AAE09DF80F2041F20010C2F2000003784E
:1042B000591C017041F20211C2F200010B441A7143
:1042C00000780978884207DBFFE741F24C11C2F21F
:1042D000000105200870FFE78EE09DF80F0041F215
:1042E0000211C2F2000181F8460041F24C11C2F203
:1042F0000001062008707FE09DF80F0041F20211D6
:10430000C2F2000181F8470041F24C11C2F20001F3
:104310000720087070E09DF80F00FD280FD1FFE71F
:1043200041F24C11C2F20001082008709DF80F0004
:1043300041F20211C2F2000181F8440006E041F2AC
:104340004C11C2F2000100200870FFE754E09DF814
:104350000F00FE2841D1FFE79DF80F1041F2021037
:10436000C2F20000019080F8451001780430FCF79B
:10437000EDFA0199A1F84800B1F84800B1F84610EB
:10438000884223D1FFE700208DF80E00FFE79DF85B
:104390000E0041F20211C2F200010978884214DADB
:1043A000FFE79DF80E2041F20210C2F20000104417
:1043B000007945F23051C2F200018854FFE79DF8C0
:1043C0000E0001308DF80E00E1E7FFE741F24C11DD
:1043D000C2F200010020087006E041F24C11C2F266
:1043E000000100200870FFE706E041F24C11C2F224
:1043F000000100200870FFE704B080BDFFE7FEE782
:1044000080B582B040F6B800C2F20000019046F2DA
:104410000041C4F20001016003214160002181607C
:10442000C1604FF4002202614FF4401242610176F4
:10443000012242768176C17601774177FDF71CF83B
:1044400018B1FFE7FCF764FBFFE7FCF72DFA40F635
:10445000B800C2F200000221FCF75EFB02B080BD92
:1044600080B582B040F6E000C2F20000019046F64E
:104470000001C4F20001016003214160002181605C
:10448000C1604FF4002202614FF440124261017694
:10449000012242768176C17601774177FCF7ECFF05
:1044A00018B1FFE7FCF734FBFFE702B080BD000066
:1044B00080B59AB00020199018901790169015901A
:1044C000FFE70020149043F63000C4F202000168B8
:1044D00041F004010160006800F004001490149899
:1044E000FFE7FFE70020139043F63000C4F202001C
:1044F000016841F020010160006800F02000139085
:104500001398FFE7FFE70020129043F63000C4F253
:104510000200016841F080010160006800F0800045
:1045200012901298FFE7FFE70020119043F6300049
:10453000C4F20200016841F001010160006800F06E
:10454000010011901198FFE7FFE70020109043F65B
:104550003000C4F20200016841F0100101600068FF
:1045600000F0100010901098FFE7FFE700200F9078
:1045700043F63000C4F20200016841F0020101601C
:10458000006800F002000F900F98FFE7FFE700209F
:104590000E9043F63000C4F20200016841F00801B9
:1045A0000160006800F008000E900E98FFE7FFE73A
:1045B00000200D9043F63000C4F20200016841F083
:1045C00040010160006800F040000D900D98FFE789
:1045D00041F20040C4F202000290802101910022C9
:1045E0000B92FDF7A7FE0020C4F2020004904FF4E6
:1045F000C171039101220892FDF79CFE089A41F2D5
:104600000000C4F2020006904FF400610591FDF72E
:1046100091FE089A40F20040C4F202000990102175
:104620000791FDF787FE02980B99402215924FF4EF
:1046300088121692179115A90A91FDF79FFC019B0C
:104640000298089A0A9915931692022217921892C4
:10465000FDF794FC0498089A0A990B9B15921693FF
:104660001792FDF78BFC039B0498089A0A991593FF
:10467000169217921892FDF781FC059B0698089AEE
:104680000A991593169217921892FDF777FC089ADB
:1046900009980A990B9B4FF4004CCDF854C016931F
:1046A0001792FDF76BFC08980A990B9A4FF4804318
:1046B00015931692179040F60040C4F20200FDF7E1
:1046C0005DFC08980A990B9A4FF4007315931692A3
:1046D000179040F60000C4F20200FDF74FFC079B64
:1046E000089A09980A991593169217921892FDF74D
:1046F00045FC0B9A17200C901146FDF711FF0C9802
:10470000FDF704FF1AB080BD80B582B040F6882066
:10471000C2F20000019044F60041C4F200010160C1
:104720004FF4E131416000218160C16001610C22E0
:1047300042618161C161FFF795F818B1FFE7FCF7AD
:10474000E7F9FFE702B080BD80B582B040F6D02027
:10475000C2F20000019045F20001C4F200010160C4
:104760004FF4E131416000218160C16001610C22A0
:1047700042618161C161FFF775F818B1FFE7FCF78D
:10478000C7F9FFE702B080BD80B582B040F6B01037
:10479000C2F20000019041F20001C4F20101016087
:1047A0004FF4E131416000218160C16001610C2260
:1047B00042618161C161FFF755F818B1FFE7FCF76D
:1047C000A7F9FFE72520009005210022FDF7A8FEAC
:1047D0000098FDF79BFE02B080BD000080B582B05E
:1047E00040F6F810C2F20000019044F20041C4F219
:1047F000000101604FF4E131416000218160C1603E
:1048000001610C2242618161C161FFF72BF818B18F
:10481000FFE7FCF77DF9FFE7262000900521002245
:10482000FDF77EFE0098FDF771FE02B080BD00002E
:1048300080B582B040F64020C2F20000019044F6FC
:104840000001C4F2000101604FF4E1314160002138
:104850008160C16001610C2242614FF4407282614B
:10486000C161FEF7FFFF18B1FFE7FCF751F9FFE761
:104870002720009005210022FDF752FE0098FDF749
:1048800045FE02B080BD000080B582B040F6183011
:10489000C2F20000019041F20041C4F20101016046
:1048A0004FF41651416000218160C16001610C220A
:1048B00042618161C161FEF7D5FF18B1FFE7FCF7E6
:1048C00027F9FFE702B080BDFFE7FEE7FFE7FEE75D
:1048D00088B0079006910592079800F007000490B1
:1048E0000498C0F10700052803D3FFE704200190D6
:1048F00004E00498C0F107000190FFE701980390DD
:1049000004980430062803D8FFE70020009003E055
:10491000049803380090FFE70098029006980399E6
:10492000012202FA01F101390840029B98400599E1
:104930009A40013A1140084308B070470000000057
:10494000EFF30980BFF36F8F154B1A681EF0100F3D
:1049500008BF20ED108A20E9F04F10602DE9090012
:104960004FF0500080F31188BFF34F8FBFF36F8F6C
:1049700003F0E8FE4FF0000080F31188BDE8090065
:1049800019680868B0E8F04F1EF0100F08BFB0ECCF
:10499000108A80F30988BFF36F8F704700BF00BF94
:1049A000780C002000000000000000000000000063
:1049B000074B19680868B0E8F04F80F30988BFF327
:1049C0006F8F4FF0000080F31188704700BF00BF69
:1049D000780C002080B56FF00400002102F074F81C
:1049E00080BD000080B54EF21000CEF200000068DD
:1049F00004F084FC012803D0FFE703F0B3FFFFE7D6
:104A000080BD00004EF68851CEF20001086840F4E7
:104A1000700008607047000080B540F66810C2F270
:104A20000000FEF7D3FB80BD83B002900191029895
:104A30000068009002980021C4F20101884225D04C
:104A4000FFE70298B0F1804F20D0FFE7029840F2D4
:104A50000041C4F20001884218D0FFE7029840F6F6
:104A60000001C4F20001884210D0FFE7029840F62E
:104A70000041C4F20001884208D0FFE7029840F2EA
:104A80000041C4F2010188420AD1FFE7009820F0FA
:104A90007000009001984168009808430090FFE77B
:104AA00002980021C4F20101884255D0FFE7029824
:104AB000B0F1804F50D0FFE7029840F20041C4F2BD
:104AC0000001884248D0FFE7029840F60001C4F296
:104AD0000001884240D0FFE7029840F60041C4F24E
:104AE0000001884238D0FFE7029840F20041C4F24A
:104AF0000101884230D0FFE7029844F20001C4F27D
:104B00000101884228D0FFE7029844F20041C4F234
:104B10000101884220D0FFE7029844F60001C4F268
:104B20000101884218D0FFE7029841F60001C4F263
:104B30000001884210D0FFE7029841F60041C4F21C
:104B40000001884208D0FFE7029842F20001C4F257
:104B5000000188420AD1FFE7009820F440700090DD
:104B60000198C168009808430090FFE7009820F082
:104B700080000199496908430090009802990860F3
:104B8000019880680299C862019800680299886259
:104B900002980021C4F20101884208D0FFE7029880
:104BA00040F20041C4F20101884205D1FFE70198BB
:104BB000006902990863FFE70299012048610298A1
:104BC0000069C00730B1FFE70299086920F00100D1
:104BD0000861FFE703B0704780B540F68820C2F255
:104BE0000000FEF729FC80BD80B540F6D020C2F25F
:104BF0000000FEF721FC80BD80B582B001900198D5
:104C0000806B009000990020C8850099C8840098A6
:104C1000FEF70EFC02B080BD84B00390FFE7FFE713
:104C20000398006850E8030F20F490700290FFE7AB
:104C300002990398026842E803100028F0D1FFE7C8
:104C4000FFE7FFE7FFE70398006850E8050F20F053
:104C500001000190FFE701990398026842E80510FE
:104C60000028F0D1FFE7FFE70398006B012814D17B
:104C7000FFE7FFE7FFE70398006850E8030F20F025
:104C800010000090FFE700990398026842E80310C3
:104C90000028F0D1FFE7FFE7FFE70399202081F824
:104CA000420003990020086304B0704780B582B0C9
:104CB000019001980168C86820F04000C86001991F
:104CC000202081F841000198FFF780FA002002B00F
:104CD00080BD000080B586B00490049890F8420032
:104CE000222840F0A480FFE704988068B0F5805F38
:104CF00015D1FFE70498006988B9FFE70020039009
:104D00000498806A02900498006840686FF35F20FE
:104D1000029908800499886A0230886225E0049824
:104D2000806A03900020029004988068B0F5805F4C
:104D300008D0FFE70498806850B9FFE7049800693D
:104D400030B9FFE70498006840680399087007E0ED
:104D500004980068406800F07F0003990870FFE73E
:104D60000499886A01308862FFE70499C88D013888
:104D7000C8850004002856D1FFE704980168C86878
:104D800020F02000C86004980168C86820F4807092
:104D9000C86004980168486920F0010048610499DE
:104DA000202081F842000499002048630498006B99
:104DB000012830D1FFE7049900200863FFE7FFE7EF
:104DC0000498006850E8030F20F010000190FFE7FE
:104DD00001990498026842E803100028F0D1FFE727
:104DE000FFE7049800680068C00600280ED5FFE7BA
:104DF000FFE7002000900498006800680090049885
:104E00000068406800900098FFE7FFE70498818DF4
:104E1000FEF708FB03E00498FEF7D2FFFFE700204F
:104E20008DF8170007E000208DF8170003E002203E
:104E30008DF81700FFE79DF8170006B080BD000051
:104E400080B586B0059005980068006920F4405050
:104E5000059A1168D26810430861059988680B6942
:104E60004A69C969184310430843049005980068CB
:104E7000C06849F20C6188430499084305990968A0
:104E8000C86005980068406920F44070059A116870
:104E90009269104348610598006841F20001C4F22C
:104EA0000101884209D0FFE70598006841F20041FE
:104EB000C4F20101884204D1FFE7FDF7C7FC03906B
:104EC00003E0FDF7B1FC0390FFE70598C069B0F57A
:104ED000004F29D1FFE703981921A0FB0101059A92
:104EE0001368029353685A00DB0FFBF7DBF9029952
:104EF000864648F21F53C5F2EB13AEFB032042096E
:104F000010014FF0640C02FB1CEC322202EBCC02CD
:104F1000A2FB0332F82303EA521300EB4300C2F36F
:104F200042121044886026E003981921A0FB010179
:104F3000059A1368019353689A009B0FFBF7B2F927
:104F40000199844648F21F52C5F2EB12ACFB0230C5
:104F50004309642003FB10CC322000EB0C10A0FBB3
:104F60000202F02000EA521000EB0310C2F34312D9
:104F700010448860FFE706B080BD000083B0029057
:104F80000191ADF80220019802998862BDF80200F3
:104F900002998885BDF802000299C885029900200F
:104FA00048640299222081F842000298006938B1D1
:104FB000FFE702980168C86840F48070C860FFE7A6
:104FC00002980168486940F0010048610298016850
:104FD000C86840F02000C860002003B0704700009F
:104FE00083B00190019890F8410021283AD1FFE761
:104FF00001988068B0F5805F13D1FFE701980069E0
:1050000078B9FFE70198006A0090009800886FF374
:105010005F200199096848600199086A02300862B6
:1050200008E0019A106A411C116200780199096830
:105030004860FFE70199C88C0138C884000468B94A
:10504000FFE701980168C86820F08000C8600198F7
:105050000168C86840F04000C860FFE700208DF894
:105060000B0003E002208DF80B00FFE79DF80B001A
:1050700003B0704780B586B0DDF820C0049003917E
:105080008DF80B200193FFE70498006800680399EE
:105090000840401AB0FA80F040099DF80B10884291
:1050A0004DD1FFE708980130002847D0FFE7FDF712
:1050B00059F90199401A0899884203D8FFE70898DE
:1050C00020B9FFE703208DF817003CE00498006842
:1050D000C0684007002830D5FFE7039880282CD00F
:1050E000FFE70398402828D0FFE70498006800688D
:1050F00000F008010120B0EBD10F1DD1FFE7FFE761
:1051000000200090049800680068009004980068EF
:10511000406800900098FFE70498FFF77DFD049930
:1051200008204864FFE70499002081F84000FFE769
:1051300001208DF8170006E0FFE7FFE7A4E7002055
:105140008DF81700FFE79DF8170006B080BD00003E
:1051500080B540F6B010C2F20000FEF76DF980BDD8
:1051600080B540F6F810C2F20000FEF765F980BD88
:1051700080B540F64020C2F20000FEF75DF980BD28
:1051800081B0009040F27010C2F20000016801612D
:105190004168416181688161009909688160009975
:1051A000C968016000990969416000994969C16055
:1051B00090ED000A90ED041A30EE410A80ED070AE6
:1051C00090ED010A90ED051A30EE410A80ED080AD3
:1051D00090ED020A90ED061A30EE410A80ED090AC0
:1051E00090ED071A90ED0A0A30EE410A80ED0A0AA6
:1051F00090ED081A90ED0B0A30EE410A80ED0B0A93
:1052000090ED091A90ED0C0A30EE410A80ED0C0A7F
:1052100001B07047FFE7FEE782B001908DF8031000
:1052200000208DF802008DF80100FFE79DF80100D5
:105230009DF80310884215DAFFE79DF802000199F6
:105240009DF80120895C41404BF25870C0F6000087
:10525000405C8DF80200FFE79DF8010001308DF8F9
:105260000100E3E79DF8020002B0704780B582B00C
:10527000019001980090FFE7009801F071F900207B
:1052800002F00AFF41F2F801C2F2000108600120B9
:1052900001F01EFDF0E7000080B582B0019001989A
:1052A0000090FFE7009801F063F8002002F0F4FEA0
:1052B00041F2FC01C2F200010860012001F008FD8A
:1052C000F0E7000080B545F26130C0F6000040F222
:1052D000D071C2F200014BF65802C0F6000201F094
:1052E0005FFD40F2C071C2F20001086045F2CD508E
:1052F000C0F6000040F29471C2F200014BF67C024D
:10530000C0F6000201F04CFD40F2CC71C2F2000187
:10531000086045F26D20C0F6000040F23401C2F290
:1053200000014BF6A002C0F6000201F039FD40F288
:10533000C871C2F20001086045F29920C0F6000071
:1053400040F2F011C2F200014BF6C402C0F60002B6
:1053500001F026FD40F2C471C2F20001086080BD78
:1053600080B582B0019001980090FFE7009801F0AD
:1053700011FA002002F090FE41F2F001C2F20001A9
:105380000860012001F0A4FCF0E7000080B594B0B3
:1053900008A83021FBF750F80020079006900590F0
:1053A00004900390FFE70020029043F64000C4F20F
:1053B0000200016841F080510160006800F08050F7
:1053C00002900298FFE7FFE70020019047F20000FB
:1053D000C4F20000016841F480410160006800F4FB
:1053E000804001900198FFE7012008904FF4803041
:1053F000099002200E904FF480010F910821109126
:105400004FF4A871119112900420139008A8FDF791
:10541000A3FA18B1FFE7FBF77BFBFFE70F20039030
:1054200002200490002005904FF4A05006904FF405
:105430008050079003A80521FDF794F818B1FFE705
:10544000FBF766FBFFE714B080BD0000B0B5A8B065
:1054500040F2E011C2F200010020086040F2E411C5
:10546000C2F20001086040F2E811C2F200010860D7
:1054700040F2EC11C2F2000108602790FFE7279884
:10548000072826DCFFE700208DF89800259024905F
:10549000239022908DF888008DF89800279800EBD3
:1054A000800440F2640EC2F2000E0EEB8401DDF8BF
:1054B00088C02398249A259B4EF824C0CB608A602C
:1054C00048609DF898000874FFE7279801302790FE
:1054D000D5E748F2E8001790189019901A9000202C
:1054E0001B901C908DF874008DF875008DF8760077
:1054F0008DF877008DF878008DF879008DF87A00B6
:105500001F9020908DF884008DF885008DF886001E
:105510001799189BDDF864C0DDF868E01B9C1C9DA2
:1055200040F23802C2F2000255611461C2F80CE088
:10553000C2F808C0536011601D991E9BDDF87CC045
:10554000DDF880E0C2F824E0C2F820C0D3619161A8
:10555000BDF884109DF8863082F82A3011850E90AF
:105560000F901090119012901390149015908DF848
:1055700058000E990F9BDDF840C0DDF844E0129C06
:10558000139D40F2F072C2F2000255611461C2F83C
:105590000CE0C2F808C0536011601499159BD361E8
:1055A00091619DF8581082F82010009001900290AF
:1055B00003900490059006900790089009900A9037
:1055C0000B900C900D9028B0B0BD000080B582B05B
:1055D000019001980090FFE7009800F0CDF80020BE
:1055E00002F05AFD41F2F401C2F20001086002200B
:1055F00001F06EFBF0E7000080B584B003900398E3
:10560000019000F07DF940F23800C2F20000406ADB
:105610000290012808D0FFE70298022808D0FFE78F
:105620000298032808D00BE0019800F00FF80BE077
:10563000019800F0A9F807E0019800F005FA03E0EE
:10564000019800F003F8FFE704B080BD80B586B094
:1056500005900598029040F23801C2F200010491D1
:10566000096847F61812009248F6B803019300F053
:1056700013F9009A019B049984460298C1F800C06E
:10568000496800F009F9009A019B04998446029840
:10569000C1F804C0896800F0FFF8009A019B0499E2
:1056A00084460298C1F808C0096800F00DF9009A14
:1056B000019B04998446029800EE10CAB8EEC00A15
:1056C00040F2F07CC2F2000CCDF80CC08CED010A67
:1056D000496800F0F9F803990246049800EE102A90
:1056E000B8EEC00A81ED000A90F82900C007F0B9B1
:1056F000FFE7029840F23801C2F20001896847F6DC
:10570000181248F6B80300F0DFF8029900EE100A0C
:10571000B8EEC00A40F2F070C2F2000080ED050A57
:1057200040F61400C2F20000006B48611BE040F23A
:105730003800C2F20000806870B9FFE7029940F2B9
:10574000F072C2F200020020506140F61400C2F272
:105750000000006B486105E0029890ED050A00F03A
:105760001BFDFFE7FFE7029800F012FC029800F033
:10577000AFFA06B080BD000080B582B001900198FC
:10578000FFF73AFF02B080BD80B586B0059005985E
:10579000029040F23801C2F200010491096847F614
:1057A0001812009248F6B803019300F075F8009AB9
:1057B000019B049984460298C1F800C0496800F032
:1057C0006BF8009A019B049984460298C1F804C0C2
:1057D000896800F061F8009A019B04998446029858
:1057E000C1F808C0096800F06FF8009A019B04999D
:1057F0008446029800EE10CAB8EEC00A40F2F07C6F
:10580000C2F2000CCDF80CC08CED010A496800F022
:105810005BF803990246049800EE102AB8EEC00A1D
:1058200081ED000A8068A8B9FFE70298007FC007F1
:1058300050B9FFE702990120087740F61400C2F240
:105840000000006B4861FFE7029890ED050A00F048
:10585000A3FC19E0029840F23801C2F20001896805
:1058600047F6181248F6B80300F02EF8029900EE39
:10587000100AB8EEC00A40F2F070C2F2000080EDEB
:10588000020A00200877FFE7029800F081FB0298E7
:1058900000F01EFA06B080BD85B00390029101921F
:1058A000009302980199884208DDFFE70298009969
:1058B000884203DAFFE70198049002E0029804901E
:1058C000FFE7049805B0704785B0039002910192FC
:1058D000009302980199884207DCFFE7029801993A
:1058E000401A90FBF1F0049006E002980099401AEB
:1058F00090FBF1F00490FFE7049805B070470000BA
:1059000080B58CB00B9000200A90FFE70A9802281F
:1059100000F38E80FFE740F23800C2F20000006A18
:1059200002283BD1FFE70A9940F2F070C2F2000072
:10593000099000EB81000590C06805F0D3FC41ECB4
:10594000100B51EC100B9FED3E0B53EC102B0793FB
:10595000069205F0CFFA41EC100B51EC100B05F05C
:1059600039F8059A01460998D1600A99089150F8CA
:10597000210005F0B7FC069A079B41EC100B51EC97
:10598000100B05F0B7FA41EC100B51EC100B05F0C1
:1059900021F8089A099941F8220044E040F23800C1
:1059A000C2F20000006A03283BD1FFE70A9940F2E7
:1059B000F070C2F20000049000EB81000090C0681B
:1059C00005F090FC41EC100B51EC100B9FED1A0B05
:1059D00053EC102B0293019205F08CFA41EC100B62
:1059E00051EC100B04F0F6FF009A01460498D160C8
:1059F0000A99039150F8210005F074FC019A029B6A
:105A000041EC100B51EC100B05F074FA41EC100B4B
:105A100051EC100B04F0DEFF039A049941F82200C8
:105A200000E0FFE7FFE7FFE70A9801300A906DE723
:105A30000CB080BD00BF00BFCDCCCCCCCCCCFC3FEB
:105A4000CDCCCCCCCCCCF43F80B590B00F900F989F
:105A50000E9040F23801C2F200010B91096847F63E
:105A60001812099248F6B8030A93FFF715FF099A2E
:105A70000A9B0B9984460E98C1F800C04968FFF74D
:105A80000BFF099A0A9B0B9984460E98C1F804C033
:105A90008968FFF701FF0B99886040F2E010C2F2BD
:105AA00000000D9090ED000A40F2E410C2F20000F8
:105AB0000C9090ED001A21EE011A20EE000A30EE53
:105AC000010A00F0B1FF0C990D980E9A82ED010ABF
:105AD00091ED000A90ED001A80EE010A00F09AFFA5
