:020000040800F2
:100000004058002061020008953300087F2900084D
:10001000773200087D0B0008393D00080000000021
:10002000000000000000000000000000A101000826
:10003000790C000800000000FD010008C13600082E
:100040007B0200087B0200087B0200087B0200089C
:100050007B0200087B0200087B0200087B0200088C
:100060007B0200087B0200087B0200087B0200087C
:100070007B0200087B0200087B0200087B0200086C
:100080007B0200087B0200087B020008050C0008C8
:10009000E10B0008ED0B0008F90B0008A90C0008A3
:1000A0007B0200087B0200087B0200087B0200083C
:1000B000853700087B0200087B0200087B020008ED
:1000C0007B0200087B0200087B0200087B0200081C
:1000D0007B0200087B0200087B020008C13B00088D
:1000E0007B0C00087B0200087B0200087B020008F2
:1000F0007B0200087B0200087B0200087B020008EC
:100100007B0200087B0200087B0200087B020008DB
:10011000E13800087B020008913700087B020008E4
:100120007B0200087B0200087B0200087B020008BB
:100130007B0200087B0200087B020008350C0008E7
:10014000110C00081D0C0008290C00087B02000897
:100150007B0200087B0200087B0200087B0200088B
:100160007B0200087B0200087B0200087B0200087B
:100170007B0200087B0200087B02000800000000F0
:100180007B0200087B020008DFF810D000F09CFB27
:1001900000480047054C0008AFF30080405800209D
:1001A0002C4B19680868B0E8F04F80F30988BFF35A
:1001B0006F8F4FF0000080F311887047000000003F
:1001C00008480068006880F308884FF0000080F35A
:1001D000148862B661B6BFF34F8FBFF36F8F00DF35
:1001E00000BF00BF08ED00E0DFF80C00016841F43B
:1001F00070010160704700BF88ED00E0EFF30980F7
:10020000BFF36F8F134B1A681EF0100F08BF20ED5D
:10021000108A20E9F04F106009B44FF0500080F3CD
:100220001188BFF34F8FBFF36F8F05F02DFC4FF098
:10023000000080F3118809BC19680868B0E8F04F25
:100240001EF0100F08BFB0EC108A80F30988BFF3CE
:100250006F8F704784000020EFF305807047000027
:100260000648804706480047FEE7FEE7FEE7FEE750
:10027000FEE7FEE7FEE7FEE7FEE7FEE7753700086C
:10028000890100082DE9F05F0546002092469B4653
:1002900088460646814640241BE02846414647469C
:1002A000224600F00AFA53465A46C01A914110D32A
:1002B00011461846224600F0F1F92D1A67EB0108A5
:1002C0004F4622460120002100F0E8F917EB000913
:1002D0004E41201EA4F10104DFDC484631462A4687
:1002E0004346BDE8F09F40EA01039B0703D009E0C5
:1002F00008C9121F08C0042AFAD203E011F8013B12
:1003000000F8013B521EF9D27047D2B201E000F86A
:10031000012B491EFBD270470022F6E710B51346A9
:100320000A4604461946FFF7F0FF204610BD2DE9A6
:10033000FE4F804681EA0300C00F0C46009021F07A
:10034000004123F00045B8EB0200A94105D2404628
:10035000214690461C460B46024623F000401043BF
:1003600047D0270DC7F30A00C3F30A510290401A81
:10037000019040286BDAC3F3130040F4801B00980F
:10038000924620B10023D2EB030A63EB0B0B0198DA
:100390005946C0F14002504600F080F906460D462D
:1003A00050465946019A00F098F910EB0800614157
:1003B000002487EA115284EAE7731A4340D0009A76
:1003C00062B3019A012A4FEA075215DC001B61EB68
:1003D00002014FF0004202EA0752CDE90042001C40
:1003E00041F5801132462B4600F0CFF903B0BDE84D
:1003F000F08F40462146F9E7001B61EB0201001C2B
:1004000041F5801300185B412018A2F5001747EB57
:10041000030140EAD570B6196D4111E06D084FEA4D
:10042000360645EAC0754FEA0752001B61EB020130
:10043000001C41F5801149084FEA30000019514174
:1004400032462B4603B0BDE8F04F00F08FB900985C
:10045000012240000023D0EB020263EBE07300981E
:1004600021464FEAE074B8EB000061EB0401E9E7D4
:1004700083F000435BE781F0004158E72DE9FE4F30
:1004800081EA030404F0004421F0004100944FF09D
:10049000000B23F0004350EA01045ED052EA03044B
:1004A0005BD0C3F30A54C1F30A552C44A4F2F334CD
:1004B0000194A0FB0254C1F3130141F48011C3F372
:1004C000130343F4801301FB024400FB034E840A30
:1004D000970A44EA815447EA8357A4FB07680295C8
:1004E0008D0A05FB07854FEA932C04FB0C54270566
:1004F000029D4FEA065847EA1637B5EB08056EEB42
:10050000070C870E920E47EA811742EA8312A7FB77
:100510000201B6EB0B0164EB00042B0D43EA0C3334
:100520005E1844EB1C50DA465146E7FB0201C5F366
:1005300013044FEA0B3343EA14534FEA0432019C8D
:1005400043EA0603A4F10C040294009CCDE900B434
:1005500000F01BF903B0BDE8F08F00200146F9E779
:100560002DE9F04D81EA030404F0004B21F0004531
:1005700014464FF0000A23F0004150EA050220D053
:1005800054EA01021DD0C5F30A570246C5F313030E
:10059000C1F31300C1F30A5640F4801543F48013ED
:1005A000A7EB0608101BD64608F2FD3873EB0500D2
:1005B00002D308F1010801E092185B41B8F1000F85
:1005C00003DA00200146BDE8F08D00204FF48011D1
:1005D000064684460EE0171B73EB050705D3121B76
:1005E00063EB050306434CEA010C49084FEA30006F
:1005F00092185B4150EA0107EDD152EA030012D094
:1006000082EA040083EA0501084305D0101BAB41D0
:1006100006D20122002306E000224FF0004302E050
:100620006FF0010253101AEB06004CEB085110EB6F
:100630000A0041EB0B01BDE8F04D00F097B800F067
:10064000004230F000400AD0C10D01F56071C0F3E6
:10065000160042EA0151C2084007114370470020CA
:100660000146704701F0004330B421F0004150EAE8
:10067000010206D00A0DA2F56072C1F31301002A2F
:1006800002DC30BC00207047440F44EAC104C100C2
:10069000E01830BC00EBC25000F031B8202A04DB77
:1006A000203A00FA02F1002070479140C2F1200385
:1006B00020FA03F3194390407047202A04DB203AC4
:1006C00021FA02F00021704721FA02F3D040C2F172
:1006D00020029140084319467047202A06DBCB17B9
:1006E000203A41FA02F043EAE07306E041FA02F3ED
:1006F000D040C2F1200291400843194670470029BA
:10070000A8BF7047401C490008BF20F00100704797
:1007100010B4B0FA80FC00FA0CF050EA010404BFF7
:1007200010BC704749B1CCF1200421FA04F411FA4D
:100730000CF118BF012121430843A3EB0C01CB1D91
:100740004FEA00614FEA102042BF002010BC704702
:1007500000EBC35010440029A4BF10BC7047401CDC
:10076000490008BF20F0010010BC704710B5141EEE
:1007700073F1000408DA401C41F1000192185B415A
:100780001A4301D120F0010010BD2DE9F04D924631
:100790009B4611B1B1FA81F202E0B0FA80F2203248
:1007A0009046FFF77BFF04460F4640EA0A0041EA05
:1007B0000B0153465A46084313D0114653EA010031
:1007C00019D0C8F140025046FFF777FF05460E46A4
:1007D000504659464246FFF761FF084305D00120C5
:1007E00004E020463946BDE8F08D0020054346EA86
:1007F000E0762C4337430A986305E40AA0EB08002F
:100800000022FD0A44EA47540A3002D5002001467E
:10081000E9E7010510196941DDE908450019694159
:10082000BDE8F04DA2E72DE9F04D00231A461B1A52
:100830008A4103DB00200146BDE8F08DC1F30A5276
:10084000C1F3130141F480154FF0000BD10702D121
:1008500000186D41521E0027044640F2FF11384631
:1008600001EB620A3E468046024600204FF48011AA
:10087000FFF723FFC2197141BB1846EB0100B4EB2F
:10088000030C75EB000C04D3E41A65EB0005174666
:100890000E46241908F101006D4180463428E3DD3D
:1008A000F91946EB0600091BA84103D24FF0FF32AD
:1008B000134601E0002213461BEB070046EB0A51EA
:1008C000BDE8F04DFFF752BF064C074D06E0E0686B
:1008D00040F0010394E8070098471034AC42F6D387
:1008E000FFF756FCEC6600080C6700080EB5C10F58
:1008F00080EAE0700844CA07002140F233438DE8E3
:100900000E000A460B46FFF740FF03B000BD0EB5D0
:1009100040F2334102910021CDE900110A460B4615
:10092000FFF733FF03B000BD70B5C1F30A5201F009
:1009300000450024C1F3130140F2FF3341F480115C
:100940009A4201DA002070BD40F233439A42A2F28B
:10095000334203DC5242FFF7B0FE00E090402C43EC
:10096000F1D0404270BD000070B507A44FF0FF35D4
:1009700006E02146641C2B460122054801F0AEFF2B
:1009800020780028F5D170BD4143543000000000AC
:100990000002002070B50D4C808940F2DC51A51595
:1009A000884206D901224021204600F0A5FF0122FD
:1009B00005E000224021204600F09EFF002229464B
:1009C0002046BDE8704000F097BF000000140240D0
:1009D00010B5114C2178491CC9B22170642916D276
:1009E00090ED000A0D4A10EE101ADFED0D0A91424B
:1009F00002DD30EE600A06E010EE101A094A91425C
:100A000005D930EE200A80ED000AFFF7E1FF2078DB
:100A1000401E207010BD0000540000200000344330
:100A20000000B443000034C370B54E4C2DED088B6C
:100A30002068FFF704FE4C4D41EC1A0B95ED0C0AB3
:100A4000B1EE400A10EE100AFFF7F9FD9FED478B5B
:100A500053EC182BFFF712FD9FED469B53EC192B1F
:100A6000FFF77EFD41EC100B03F07EFB53EC1A2BDD
:100A700051EC100BFFF702FD41EC1B0B6068FFF718
:100A8000DEFD95ED0C0A41EC1A0BB1EE400A10EEBA
:100A9000100AFFF7D4FD53EC182BFFF7EFFC53ECD3
:100AA000192BFFF75DFD41EC100B03F0F9FA53EC45
:100AB0001A2B51EC100BFFF7E1FC53EC1B2BFFF74B
:100AC00036FCFFF7CFFD20616068FFF7B8FD95EDBC
:100AD0000C0A41EC1A0BB1EE400A10EE100AFFF7B7
:100AE000AEFD53EC182BFFF7C9FC53EC192BFFF7A5
:100AF00037FD41EC100B03F037FB53EC1A2B51EC94
:100B0000100BFFF7BBFC41EC1A0B2068FFF797FDB9
:100B100095ED0C0A41EC1B0BB1EE400A10EE100AE9
:100B2000FFF78DFD53EC182BFFF7A8FC53EC192BA6
:100B3000FFF716FD41EC100B03F0B2FA53EC1B2B40
:100B400051EC100BFFF79AFC53EC1A2BFFF790FCBB
:100B5000FFF788FDE06094ED020A84ED050ABDEC24
:100B6000088B70BD30030020E0020020182D445493
:100B7000FB2109400000000000806640FEE7000005
:100B800030B58BB000240120CDE9064003940890D5
:100B900004940E20059404250990CDE900450294A3
:100BA00069460E4800F000F908B100F080F80B48E3
:100BB00000F06AFC08B100F07AF80221074800F062
:100BC00078F808B100F073F8044818380821C0E933
:100BD0000145C0E9034104750BB030BD2001002080
:100BE000014800F0E2B9000020010020014800F0B7
:100BF000DCB9000020010020014800F0D6B9000057
:100C000020010020014800F0D0B9000020010020A0
:100C1000014800F0CAB9000048010020014800F076
:100C2000C4B9000048010020014800F0BEB900002E
:100C300048010020014800F0B8B900004801002038
:100C400010B50C4CE089B0F5FA6F11D1FFF78CFEAE
:100C50006089B0F57A7F07D0A0F5A060DC3807D1B5
:100C6000BDE8104003F05EB9BDE8104002F0D8BC0A
:100C700010BD0000A4020020704710B54FF40060C2
:100C800000F036FD4FF4805000F032FD4FF400507C
:100C900000F02EFD4FF4804000F02AFDBDE810402A
:100CA0004FF4004000F024BD802000F021BD72B65A
:100CB000FEE790F82020012A07D0022A05D0416AD9
:100CC00041F48021416201207047006842690A4373
:100CD000426100207047F0B590F820500468A46885
:100CE000012D05D0022D03D0416A41F4802157E047
:100CF00014F0406F01D1E5004FD5C4F30164012524
:100D0000A5401D608D684FF4C0739DB1CE6835431A
:100D10004E6845EAC605066803EB0417F5514FF423
:100D2000C275076805EB04150E697E51097D01291E
:100D300005D009E00E88CD6845EA4655EBE7016825
:100D40004E5946F480764E511179D579567941EA5B
:100D5000056195792D0445EA062529434FF4C676A9
:100D6000056806EB0416A9511178D57841EA0561AA
:100D7000957852782D0445EA022211434FF4C47548
:100D8000026805EB04155151006803EB0411425849
:100D900042F0010242500020F0BD416A41F40011CE
:100DA00041620120F0BD000010B590F82020012A1A
:100DB00007D0022A05D0416A41F480214162012016
:100DC00010BD3B48D0F8002242F00102C0F80022DA
:100DD000D0F8002222F47C52C0F80022D0F8002281
:100DE0004B6A42EA0322C0F800220A7D02F01F0388
:100DF00001229A40D0F81C329343C0F81C32CB69D0
:100E0000B3B9D0F80C329343C0F80C328C894B68DC
:100E100064F31F434C6900EBC404C4F840320C89EE
:100E20000B6864F31F434C6900EBC404C4F84432FC
:100E3000CB69012B16D1D0F80C321343C0F80C3219
:100E40000C884B6864F31F434C6900EBC404C4F87E
:100E500040320C89CB6864F31F434C6900EBC40437
:100E6000C4F844328B69002BD0F804320ED01343FF
:100E7000C0F804320B69002BD0F8143208D01343A9
:100E8000C0F81432096A012904D008E09343EFE75F
:100E90009343F5E7D0F81C121143C0F81C12D0F8A8
:100EA000001221F00101C0F80012002010BD000066
:100EB00000640040704770B590F82040012C05D0C8
:100EC000022C03D0416A41F4802128E0046809B370
:100ED0002469A40720D04FF4D874056804EB0114EA
:100EE0002D5915F00405956005682D591AD0ED08A7
:100EF000556005682C5904F00204D4604FF4DA748C
:100F0000056804EB01142E5906F00F06082E0CD3C9
:100F100008250DE0E468DCE7416A41F40011416214
:100F2000012070BD6D0D1560E3E72D5905F00F052B
:100F3000156105682D59C5F30725956105682C597C
:100F4000240C54614FF4DC72046802EB0112A458C3
:100F50001C700468A458240A5C700468A458240C0B
:100F60009C700468A258120EDA704FF4DE720468A6
:100F700002EB0112A4581C710468A458240A5C7185
:100F80000468A458240C9C710468A258120EDA71EB
:100F9000006829B1016941F020010161002070BDA4
:100FA000C16841F02001C160F8E72DE9F05F054616
:100FB000006800244669D0F804908768D0F80CB027
:100FC000D0F810A0D0F81880F10748D0F90714D055
:100FD00001218160B80703D5284600F082FA0CE0B1
:100FE000780702D54FF4006407E0380702D54FF4C4
:100FF000805402E0284600F073FAF80516D52968F7
:101000004FF480708860B80503D5284600F06BFA6D
:101010000CE0780502D544F4005407E0380502D509
:1010200044F4804402E0284600F05CFAF80316D548
:1010300029684FF480308860B80303D5284600F053
:1010400054FA0CE0780302D544F4004407E0380376
:1010500002D544F4803402E0284600F045FA300717
:1010600007D55FEACB6004D52968102044F40074EA
:10107000C86070074FF0080707D55FEA0B7004D50A
:101080002868C760284600F0CBF9B00706D5286865
:10109000C068800702D0284600F0C4F9700607D562
:1010A0005FEACA6004D52968102044F480640861AE
:1010B000B00607D55FEA0A7004D52868076128469C
:1010C00000F0DEF9F00606D528680069800702D036
:1010D000284600F0D6F9B00308D55FEAC96005D507
:1010E000296810204860284600F0CCF9F00307D5A5
:1010F0005FEA097004D528684760284600F0F6F9D1
:10110000300446D55FEA497040D5F00504D55FEA62
:10111000C87001D044F00104B00504D55FEA8870BE
:1011200001D544F00204700504D55FEA487001D58A
:1011300044F00404300529D518F0700F26D008F0CB
:101140007000402815D006DC102809D020280AD0CD
:10115000302816D10AE050280ED0602811D10EE0B8
:1011600044F008040DE044F010040AE044F02004C8
:1011700007E044F0400404E044F0800401E044F45B
:1011800080742868816921F07001816129680420D8
:101190004860002C05D0686A204368622846FFF743
:1011A00089FEBDE8F09F70B5040003D094F82000DC
:1011B00010B104E0012070BD204600F081F82068E5
:1011C000016841F00101016000F09CFB0546052625
:1011D00004E000F097FB401B0A2811D82068406803
:1011E000C007F6D02068016821F00201016000F01C
:1011F00089FB05460BE000F085FB401B0A2806D959
:10120000606A40F40030606284F82060D2E72068B1
:1012100040688007EFD4207E0128206801683DD017
:1012200021F080010160607E01282068016838D0CB
:1012300021F040010160A07E01282068016833D0C0
:1012400021F020010160E07E0128206801682ED095
:1012500041F010010160207F01282068016829D039
:1012600021F008010160607F01282068016824D016
:1012700021F004010160D4E902010843D4E9041219
:10128000114308436168491E08432168C861002072
:101290006062012084F82000002070BD41F08001D0
:1012A000C0E741F04001C5E741F02001CAE721F065
:1012B0001001CFE741F00801D4E741F00401D9E77C
:1012C000F0B587B0044614216846FFF725F84F4B68
:1012D0004F48DFF834E15968D4F800C04C4A022581
:1012E0000326092710300024491CF4453CD15960DD
:1012F000012907D1016841F000710160006800F028
:1013000000700590106840F001001060106802AB9A
:1013100000F0010005904FF4C050CDE9000583E8CE
:10132000D00069463B4800F0EFF90022022113206B
:1013300000F086FB132000F075FB00220221142030
:1013400000F07EFB142000F06DFB0022022115202E
:1013500000F076FB152000F065FB0022022116202C
:1013600000F06EFB16204BE0DFF8ACE0F44549D10D
:10137000D0F800C04CF0806CC0F800C0D0F800C0BD
:1013800001290CF0806CCDF814C0596007D10168B8
:1013900041F000710160006800F000700590106875
:1013A00040F002001060106802AB00F002000590EF
:1013B0004FF44050CDE9000583E8D0006946174856
:1013C00000F0A2F9002205213F2000F039FB3F2068
:1013D00000F028FB00220521402000F031FB4020D6
:1013E00000F020FB00220521412000F029FB4120D4
:1013F00000F018FB00220521422000F021FB4220D2
:1014000000F010FB07B0F0BD0064004014000020A5
:1014100030380240000002400068004000040240F2
:101420007047000070B5134988B088421FD1124D33
:10143000012005F10C0328606A4600210D48FFF7E2
:101440003AFD05F10C01684603F0AEFB0B4E00249B
:10145000C4EBC40000EB800006EB800001F072FBDF
:10146000641CA4B2082CF3D3A868401CA86008B080
:1014700070BD000020010020140000205403002053
:10148000704770477047000070B5044690F8200020
:10149000012804D0606A40F40020606218E0022055
:1014A00084F820002068016821F00101016000F04B
:1014B00029FA05460EE000BF00F024FA401B0A2876
:1014C00008D9606A40F400306062052084F820008A
:1014D000012070BD20684068C007EDD1606270BD1A
:1014E00070477047704770477047704770472DE9E5
:1014F000F0410446876D00F005FA064694F8350081
:101500000025022806D08020606584F83450012030
:10151000BDE8F0812068016821F0160101602068B3
:10152000416921F080014161206C08B9A06C20B1B3
:101530002068016821F0080101602068016821F03D
:10154000010101600CE000F0DDF9801B052807D9DE
:1015500020206065032084F8350084F83450D7E7F4
:1015600020680068C007EED194F85C103F208840E6
:10157000B860012084F8350084F834500020C7E7B3
:1015800090F83510022903D0802141650120704771
:10159000052180F835100068016821F00101016023
:1015A0000020704770B580287CD14F4C0120820705
:1015B0002061A1696161536AE26840F271256A4362
:1015C00003EB0212A261511A89B2A260E180637832
:1015D000002540F69802012B65D0914202D360703D
:1015E000A5702570414840F2DC510288A2F2AB524E
:1015F000632A00D201804288A2F2AB52632A00D251
:101600004180C288A2F27952C72A00D2C180828862
:1016100040F2AA539A4205D9C28840F20E639A4218
:1016200000D2818003894FF47A72A3F28533C72BED
:1016300000D2028104894FF4FA63A4F26D74C72CBE
:1016400000D20381C489A4F28534C72C00D2C281A0
:10165000C489A4F26D74C72C00D2C3814489A4F25A
:101660008534C72C00D242814489A4F2AB54632C48
:1016700000D241814489A4F26D74C72C00D2438109
:101680008489A4F28534C72C00D282818289A2F297
:10169000AB52632A00D281818189A1F26D71C72981
:1016A00000D2838170BD914203D36070A570207019
:1016B00098E7A1F2B63040F24C42904211D80B4A62
:1016C000A078143A22F81010401CC0B2A07008286C
:1016D00088D30649420014390448FEF704FEA57079
:1016E00080E765707EE7000034000020A40200203F
:1016F000044910B50A68024202D00860FFF752FFA1
:1017000010BD0000143C01402DE9F84FDFF8BCA1EA
:101710000022012503264FF00F090AF1040BAAF15C
:10172000040E00BF0B6805FA02F42340A34270D1F7
:101730000F7907F00307012F01D0022F16D1876818
:101740004FEA420806FA08FC27EA0C07D1F80CC059
:101750000CFA08FC4CEA070CC0F808C04768A7431D
:101760000C79C4F3001494403C4344600C79E44386
:10177000A4070AD0C4684FEA420C06FA0CF7BC432F
:101780008F6807FA0CF72743C7600C7904F003044D
:10179000022C12D1D40800EB840CDCF8204057074F
:1017A000FF0E09FA07F824EA0804D1F8108008FAB5
:1017B00007F848EA0408CCF8208004684FEA420C95
:1017C00006FA0CF7BC430F7907F0030707FA0CF78A
:1017D000274307604C6814F4403F70D03C4C2768A6
:1017E00047F480472760246822F0030704F480440C
:1017F0000094384C07EB040CDCF8084897074FEAD4
:10180000177809FA08F7BC43334FB84202D10027D2
:1018100024E054E0314FB84201D101271EE0304F9F
:10182000B84201D1022719E02E4FB84201D1032757
:1018300014E02D4FB84201D104270FE02B4FB842DE
:1018400001D105270AE02A4FB84201D1062705E059
:10185000284FB84201D1072700E0082707FA08F708
:101860002743CCF80878DAF800405746D1F804C08E
:101870009C435FEACC2C00D51C433C60DBF8004065
:101880005F46D1F804C09C435FEA8C2C00D51C4312
:101890003C60DEF800407746D1F804C09C435FEA24
:1018A0008C3C00D51C433C60084F083F3C68D1F895
:1018B00004C09C435FEACC3C00D51C433C60521CF6
:1018C000102AFFF42FAFBDE8F88F0000083C01405C
:1018D0004438024000300140000002400004024051
:1018E00000080240000C02400010024000140240B8
:1018F00000180240001C02400AB1816170470904CF
:10190000FBE7000001488068704700007400002079
:101910000248816802781144816070477400002099
:101920000B4810B5016841F400710160016841F491
:1019300080610160016841F480710160032000F062
:101940009FF80F2000F006F800F050F8002010BDBE
:10195000003C024030B505461F4887B000240168AE
:1019600041F010010160006806A900F0100000902D
:1019700001A800F031F90498A8B100F04DF9400039
:101980001649174AB0FBF1F11648491E026040F2B1
:10199000E732C0E90324C0E90114846100F08CFB44
:1019A000040003D015E000F037F9E9E70D4800F036
:1019B000CDFB04000DD1362000F034F8102D07D2F5
:1019C00000222946362000F03BF80748056000E079
:1019D000012407B0204630BD4038024040420F008D
:1019E0000010004048020020780000200C4882B01F
:1019F000016841F480410160006800F4804000907B
:101A00000748001F016841F0805101600068002212
:101A100000F0805000900F21901E02B000F010B82E
:101A200044380240002809DB00F01F0201219140E8
:101A30004009800000F1E020C0F80011704700006C
:101A4000F0B40E4B1B680C46C3F30223C3F1070529
:101A5000042D00D90425191D072901D2002300E017
:101A6000DB1E012606FA05F1491E214099409E40E1
:101A7000761E16403143F0BC02F002BB0CED00E0D4
:101A8000064900F0070208684FF6FF03184040EAD5
:101A90000220034A10430860704700000CED00E08C
:101AA0000000FA052DE9F0470E46050065D0DFF885
:101AB0001481D8F80000F7B200F00700B04207D256
:101AC00088F80070D8F8000000F00700B04254D148
:101AD00028683D4C810712D5400703D5206840F4A3
:101AE000E05020602878000703D5206840F460406B
:101AF00020602068A96820F0F00008432060287862
:101B0000C0072DD0304968680839012812D0022852
:101B100013D0032811D00968890700292DDA21681C
:101B200021F0030101432160FFF7ECFE814641F201
:101B3000883A0EE009688903EFE709688901ECE754
:101B4000FFF7E0FEA0EB0901514502D90320BDE8F3
:101B5000F0872068696800F00C00B0EB810FEFD1CE
:101B6000D8F80010404601F00701B14207D90770CC
:101B7000006800F00700B04201D00120E7E72878B4
:101B8000400705D52068E96820F4E050084320604C
:101B90002878000706D52068296920F4604040EACB
:101BA000C100206000F058F82168084AC1F3031111
:101BB000515CC8400649086006480068FFF7CAFE45
:101BC0000020C4E7003C0240083802407465000869
:101BD00080000020780000200F2202600C4A136869
:101BE00003F003034360136803F0F003836013689A
:101BF00003F4E053C36012684FF4E05303EAD202E7
:101C000002610448006800F00700086070470000A7
:101C100008380240003C0240044805490068096851
:101C2000044AC1F38221515CC84070478000002003
:101C300008380240846500080448054900680968BE
:101C4000044AC1F34231515CC84070478000002013
:101C50000838024084650008154810B5006810F087
:101C60000C02144813D04110042A0FD0082A0ED1B8
:101C70000F4C241F2268236802F03F025B0207D545
:101C80002068C0F38810A0FB010106E0084610BDE3
:101C90002168C1F38811A1FB00010023FEF7F2FACD
:101CA0002168C1F30141491C4900B0FBF1F010BDAE
:101CB000083802400024F4002DE9F84F04006ED0EB
:101CC0002078DFF84C93C007A9F104054AD009F148
:101CD00004000168C1F38101012908D00068C0F344
:101CE000810002280AD1D9F80000400206D52868F0
:101CF000800337D560680028E1D033E06068B0F534
:101D0000803F10D0B0F5A02F286810D020F480308C
:101D10002860286820F4802028606068A8B1FFF758
:101D2000F1FD06460DE0286840F48030F4E740F409
:101D300080202860F7E700BFFFF7E4FD801B6428E0
:101D400073D828688003F7D50CE0FFF7DBFD064663
:101D500005E000BFFFF7D6FD801B6428F0D8286897
:101D60008003F7D42078DFF8AC8280074FF0000AB8
:101D70003ED5A748001D016811F00C0F08D000687F
:101D8000C0F3810002280BD1D9F80000400207D42B
:101D90002868800716D5E068012800D112E033E1F9
:101DA000E068B8B10120C8F80000FFF7ABFD0646B7
:101DB00005E000BFFFF7A6FD801B0228C0D82868F9
:101DC0008007F7D52868216920F0F80040EAC100B3
:101DD00028600DE0C8F800A0FFF794FD064604E077
:101DE000FFF790FD801B02281FD828688007F7D4D2
:101DF0002078000722D5864F87486169703771B116
:101E000001210160FFF77EFD064604E0FFF77AFD41
:101E1000801B022809D838688007F7D50EE0C0F883
:101E200000A0FFF76FFD064605E082E0FFF76AFDC0
:101E3000801B02287DD838688007F7D420784007B7
:101E400068D5DFF8CCB100270BF13C0BDBF80000C4
:101E5000C0000BD4DBF8001041F08051CBF800102B
:101E6000DBF80000012700F0805000906B4E3068D6
:101E7000C00510D4306840F480703060FFF742FD38
:101E8000009005E0FFF73EFD0099401A022850D867
:101E90003068C005F6D55E4EA0686C3601280FD0BC
:101EA0000528306810D020F001003060306820F044
:101EB00004003060A068B8B1FFF724FD00900FE087
:101EC000306840F00100F4E740F004003060F7E7CC
:101ED000FFF718FD0099411A41F28830814266D817
:101EE00030688007F4D50EE0FFF70CFD009007E0A6
:101EF000FFF708FD0099411A41F28830814256D817
:101F000030688007F4D42FB1DBF8001021F0805145
:101F1000CBF80010A069C8B33D49091D0968C1F399
:101F2000810102294AD00228504607D0C8F8600033
:101F300000E03CE0FFF7E6FC04463BE04746C8F81B
:101F40006000FFF7DFFC064605E000BFFFF7DAFCA4
:101F5000801B02282BD828688001F7D4D4E9070118
:101F60000843A16A2E4A490802EB0141626A41EA2C
:101F70008211084394F82C1040EA0161C9F800105E
:101F800001203866FFF7BEFC044606E03EE000BFD5
:101F9000FFF7B8FC001B022809D828688001F7D594
:101FA00034E000BFFFF7AEFC001B022802D903207B
:101FB000BDE8F88F28688001F4D427E00128F7D025
:101FC000D9F80000E26900F4800191421CD1226A34
:101FD00000F03F01914217D147F6C071626A01409B
:101FE000B1EB821F10D1A26A4FF0FF3300F44031F1
:101FF00003EB5202B1EB024F06D194F82C1000F023
:102000007060B0EB016F01D00120D1E70020CFE775
:102010000438024000004742800E474200700040F2
:102020000000FFFF7047704770B590F83C20012A10
:1020300032D0012480F83C40022280F83D20036821
:102040005A689D6822F070060A6832435A60134B42
:1020500002689A4214D0B2F1804F11D0104B9A42CC
:102060000ED0104B9A420BD00F4B9A4208D00F4B18
:102070009A4205D00E4B9A4202D00E4B9A4204D19E
:10208000496825F080031943916080F83D400021A4
:1020900080F83C10084670BD022070BD0000014071
:1020A0000004004000080040000C00400004014013
:1020B000004001400018004010B5040003D094F81F
:1020C0003D0010B107E0012010BD002084F83C0065
:1020D000204600F01FF8022084F83D00211D2068F2
:1020E00001F05CFB012084F8460084F83E0084F88F
:1020F0003F0084F8400084F8410084F8420084F8EE
:10210000430084F8440084F8450084F83D00002032
:1021100010BD000008B50068B0F1804F12D10A4828
:10212000016841F0010101600068002200F0010037
:10213000009005211C20FFF783FCBDE808401C200F
:10214000FFF770BC08BD00004038024090F83D1019
:10215000012901D001207047022180F83D1001685B
:10216000CA6842F00102CA6000681149884214D06E
:10217000B0F1804F11D00F4988420ED00E498842ED
:102180000BD00E49884208D00D49884205D00D4930
:10219000884202D00C49884204D1816801F00701CD
:1021A000062903D0016841F0010101600020704759
:1021B000000001400004004000080040000C004006
:1021C00000040140004001400018004070B5044682
:1021D00090F83C000025012817D0012684F83C60C7
:1021E000022084F83D002068826822F0770222F401
:1021F0007F4282600868502838D00DDC20284FD0FC
:1022000005DC90B3102811D14AE0022070BD3028BF
:1022100046D040280AD13BE060282FD070280DD04E
:10222000B0F5805F03D0B0F5005F12D0012584F8CF
:102230003D60002084F83C00284670BDCB68D1E9A1
:102240000121206801F016FB2068816841F07701C8
:1022500009E0CB68D1E90121206801F00BFB20687F
:10226000816841F480418160E1E719E0CA6849680A
:10227000206801F011FB5021206806E0CA68496817
:10228000206801F01AFB6021206801F0FDFACEE71A
:10229000CA684968206801F0FFFA40212068F4E725
:1022A000226801461046F0E770472DE9F0410446E8
:1022B0000068C66805694FF00007A90713D5B10784
:1022C00011D5F91E016101202077206880698007FF
:1022D000204602D0FFF7E8FF04E000F07EF8204639
:1022E00000F07CF82777680716D5700714D52168A9
:1022F0006FF004000861022020772068806910F4E4
:10230000407F204602D0FFF7CFFF04E000F065F8E1
:10231000204600F063F82777280715D5300713D536
:1023200021686FF008000861042020772068C069E8
:102330008007204602D0FFF7B7FF04E000F04DF819
:10234000204600F04BF82777E80616D5F00614D59E
:1023500021686FF010000861082020772068C069AC
:1023600010F4407F204602D0FFF79EFF04E000F00B
:1023700034F8204600F032F82777E80708D0F00755
:1023800006D021686FF001000861204600F028F8AF
:10239000280608D5300606D521686FF08000086150
:1023A0002046FFF73FFE680608D5700606D521686F
:1023B0006FF040000861204600F04CF8A8060AD5EE
:1023C000B00608D521686FF0200008612046BDE8FE
:1023D000F041FFF728BEBDE8F0817047704700006C
:1023E00010B5044600681649884201D1FFF790FAFB
:1023F0002068B0F1804F22D11249134A086810605A
:10240000401C086011490888401C82B210480A80AC
:10241000642A12D300220A8043885B1C9BB243804B
:102420003C2B0AD3428083885B1C9BB283803C2B6D
:1024300003D38280C288521CC2800988018010BDEB
:10244000001000404000002050000020320000201A
:102450002A0000207047704770470000F8B50168F7
:1024600004460868CA684B6910F00F0F4FF000056A
:1024700059D003F0010602F49077374365D0C107C5
:1024800005D0D10503D5616C41F0010161644107BC
:1024900005D5D90703D0616C41F002016164810761
:1024A00005D5D90703D0616C41F0040161640107CF
:1024B00007D502F02001314303D0616C41F00801DF
:1024C0006164616C00293AD0800604D5900602D57B
:1024D000204601F03AFA20684069616CC0F3801030
:1024E000090700D460B3204601F008FA206840696B
:1024F000400621D52068143050E8001F21F040012B
:1025000040E80012002AF5D1E06BA8B16E490165E0
:10251000E06BFFF735F8002811D0E06B016D01B0DA
:10252000BDE8F040084783060FD593060DD5204639
:10253000BDE8F84001F009BA2046FFF78DFFF8BD6D
:102540002046FFF789FF6564F8BD266B2023012E26
:102550007DD1C6067BD5D60679D508684868009037
:1025600048694FF00206400641D5E16B08684068B3
:102570000004000CE8D0A28D8242E5D9E085C8694C
:10258000B0F5807F2DD020680C3050E8001F21F47A
:10259000807140E80012002AF5D12068143050E81C
:1025A000001F21F0010140E80012002AF5D1206847
:1025B000143050E8001F21F0400140E80012002ACA
:1025C000F5D184F84230256320680C3050E8001FB4
:1025D00021F0100140E80012002AF5D1E06BFEF76F
:1025E00086FF6663A08DE18D401A81B22AE0A08D3E
:1025F000E18D401A81B2E08D0028A5D00029A3D03A
:1026000022680C3252E8000F20F4907042E8000774
:10261000002FF5D12068143050E8002F22F001027D
:1026200040E80027002FF5D184F842302563206868
:102630000C3050E8002F22F0100240E80023002B5D
:10264000F5D166632046FFF706FFF8BDFFE70506F4
:102650002BD5150629D594F841002128F5D1A0687D
:10266000B0F5805F01D12069B0B1206A411C2162C0
:10267000216800784860E08C401E0004000CE08473
:10268000E3D12068C16821F08001C1602068C16881
:1026900041F04001C160D8E7206A0088C0F308001B
:1026A0004860206A801C2062E5E74006CDD55006D0
:1026B000CBD5CA68204622F04002CA6084F8413077
:1026C00000F05CF9C1E70000ED38000870B50400C7
:1026D00004D094F84100002510B106E0012070BD3F
:1026E00084F84050204600F023F8242084F841006C
:1026F0002068C16821F40051C160204601F086F9CC
:102700002068016921F4904101612068416921F04C
:102710002A0141612068C16841F40051C1606564CB
:10272000202084F8410084F842006563002070BDD9
:10273000F0B587B0044614216846FDF7EDFD2B483F
:10274000294F2668002229491038022403254FF416
:102750004063BE4220D10E6846F400260E60096830
:1027600001F400210591016841F004010160006855
:10277000009300F0040005900820CDE90350CDE956
:10278000014269461A48FEF7BFFF002205213420A6
:10279000FFF756F9342022E0164FBE4221D10E68D1
:1027A00046F480260E60096801F4802105910168D5
:1027B00041F0020101600068009300F00200059002
:1027C0000720CDE90350CDE9014269460A48FEF7EA
:1027D0009BFF002211462720FFF732F92720FFF741
:1027E00021F907B0F0BD0000004C00404038024025
:1027F00000080240004800400004024090F84230C7
:10280000202B01D00220704721B11AB100230363AD
:1028100001F082B90120704770B52C49884253D12C
:102820002B4E2C4C2C483178E17022790025052A5A
:1028300021D2DFE802F00307111B29000D291AD16C
:10284000012016E00A2902D00D2903D013E065719A
:1028500002200EE006200CE062798154521CD0B2B6
:102860006071182808D36571032002E00A2902D19B
:102870000420207100E025713570BDE87040012210
:1028800013491248FFF7BABF0D29F4D1124990ED50
:10289000000A503181ED000A90ED010A81ED010A34
:1028A00090ED020A81ED020A90ED030A81ED030A20
:1028B00090ED040A81ED040A90ED050A064881EDC9
:1028C000050A01F083F9D6E770BD00000002002080
:1028D0002800002034000020C80200202DE9F84321
:1028E000044690F84100984616460D46202802D02E
:1028F0000220BDE8F88385B17EB10020606421200C
:1029000084F84100FEF7FEFFA6848146E684A068B5
:102910002027B0F5805F02D003E00120E9E72069BD
:1029200010B12E4600250EE000260CE08021204646
:1029300001F00DF9A8B9C6B116F8010B216848607D
:10294000E08C401EE084E08C4B464FF00002CDF856
:1029500000800028EAD14FF04001204601F0F7F84E
:1029600040B184F841700320C3E735F8020BC0F38F
:102970000800E3E784F841700020BAE77047FEE7FB
:102980000021816290ED060A104B80ED040AB0F937
:10299000082000EE102AB8EEC00AB0EEC00A10EE11
:1029A000102A9A4210DC426A521C4262322A0ADB26
:1029B00041629FED070A012180ED200A8162022118
:1029C000016080ED040A7047416270470000F041E9
:1029D000000000002DE9F0414C4E2DED108B756983
:1029E0002846FDF72CFE9FED4A8B53EC182BFDF784
:1029F00045FD346941EC190B2046FDF720FE53ECF0
:102A0000192BFDF794FC9FED449B53EC192BFDF71C
:102A100035FD9FED43AB53EC1A2BFDF72FFD9FEDDA
:102A200042BB53EC1B2BFDF79BFDFDF71BFE404FFC
:102A300038612846FDF703FE53EC182BFDF71EFD09
:102A400041EC1D0B2046FDF7FAFD9FED3AEB53ECF0
:102A50001E2BFDF713FD96ED03FA9FED380A41ECAE
:102A60001C0B2FEE000A10EE100AFDF7E8FD53ECE8
:102A70001C2BFDF7FDFC53EC1D2BFDF758FC53EC14
:102A8000192BFDF7FBFC53EC1A2BFDF7F7FC53EC6D
:102A90001B2BFDF765FDFDF7E5FDC7F89C002846FB
:102AA000FDF7CDFD53EC182BFDF7E8FC41EC180BBE
:102AB0002046FDF7C4FD53EC1E2BFDF7DFFC9FED18
:102AC000200A41EC1C0B2FEE000A10EE100AFDF755
:102AD000B6FD53EC1C2BFDF7CBFC53EC182BFDF78C
:102AE00026FC53EC192BFDF7C9FC53EC1A2BFDF710
:102AF000C5FC53EC1B2BFDF733FDFDF7B3FDC7F809
:102B00002801BDEC108BBDE8F081000030030020EF
:102B100039F240649126C63F0000000000004E409C
:102B20000000000000003340CE417A11A7E9DC3FED
:102B300054030020000000000000E03F2DB25DBF04
:102B40002DB25D3F30B59FED2C0A90F88420C188EE
:102B50004AB3B0F90820DFED290A002A9FED281AB0
:102B6000B0F8862040F6C214F3EE031A41F6FF7364
:102B70001FDB9142A1EB020205D242F2E04515446F
:102B8000A5420AD81A4400EE102AB8EEC00A80EE18
:102B9000202A62EE010A80EEA10AB5EEC00AF1EE2B
:102BA00010FA1EDC23E0A0F88610012180F88410C2
:102BB00030BD91421ED95B1A03F2E1451544A5428E
:102BC0000AD81A4400EE102AB8EEC00A80EE202A75
:102BD00062EE010A80EEA10AB5EEC00AF1EE10FA2B
:102BE00005D2D0ED200A30EE800A80ED200AA0F850
:102BF000861030BD8A1AE5E70000000000F8FF45A6
:102C00000000B44310B5FEEE002A2DED068B9FEDBB
:102C10009F8AB0EE482AF0EE481ADFED9D8AB0EEAA
:102C2000681A9FED9CAAB2EE080A9B48F0EE4A0A89
:102C300000F01EFC9848FEEE002AB0EE482AF0EEA6
:102C4000481AB0EE681AF0EE4A0AB2EE080A3830B6
:102C500000F00EFC9048FEEE002AB0EE482AF0EE9E
:102C6000481AB0EE681AF0EE4A0AB2EE080A70305E
:102C700000F0FEFB8848FEEE002AB0EE482AF0EE97
:102C8000481AB0EE681AF7EE000AB2EE080AA83049
:102C900000F0EEFB8048FEEE002AB0EE482AF0EE8F
:102CA000481AB0EE681AF7EE000AB2EE080AE030F1
:102CB00000F0DEFBFEEE002ADFED781AB0EE681AB7
:102CC000F7EE000AB0EE612AB2EE080A744800F08E
:102CD000CFFBF7EE002ADFED739AB0EE692A9FED85
:102CE000729AF0EE491A9FED718A6D48F0EE4A0A29
:102CF000B0EE481AB2EE080A383000F0B9FB684866
:102D0000F7EE002AB0EE692AF0EE691AB0EE681A02
:102D1000F7EE000AB2EE080A703000F0A9FBDFED12
:102D2000649AB0EE492AF0EE491AF0EE692AB7EE3D
:102D3000001AF0EE480A9FED5FAA5948B0EE4A0A21
:102D4000A83000F095FB5648F0EE692AB0EE492A0B
:102D5000F0EE491AB7EE001AF0EE480AB0EE4A0A51
:102D6000E03000F085FBF0EE692AB0EE492AF0EE83
:102D7000491AB7EE001AF0EE480AB0EE4A0A4E4879
:102D800000F076FB4C48F0EE692AB0EE492AF0EEEE
:102D9000491AB7EE001AF0EE480AB0EE4A0A383087
:102DA00000F066FB4448F0EE692AB0EE492AF0EEE6
:102DB000491AB7EE001AF0EE480AB0EE4A0A70302F
:102DC00000F056FB3C48F0EE692AB0EE492AF0EEDE
:102DD000491AB7EE001AF0EE480AB0EE4A0AA830D7
:102DE00000F046FB3448F0EE692AB0EE492AF0EED6
:102DF000491AB7EE001AF0EE480AB0EE4A0AE0307F
:102E000000F036FBF0EE692AB0EE492AF0EE491ADE
:102E1000B7EE001AF0EE480AB0EE4A0A274800F072
:102E200027FB2648F7EE002AB0EE482AF0EE081AF3
:102E30009FED231ADFED230AB0EE680A383000F068
:102E400017FB21480121017180F8901080F81C11B6
:102E500080F8A81180F8341280F8C01280F84C1362
:102E600080F8D81302210160C0F88C10C0F8181146
:102E7000C0F8A4110021C0F83012C0F8BC12C0F88C
:102E80004813C0F8D413BDEC068B10BD00401C469F
:102E9000CDCCCC3DCDCCCC3EB407002000409C46F0
:102EA000CC0800200000804600C0DA450000000089
:102EB000CDCC4C3D0000C842E4090020FC0A0020B3
:102EC0000AD7A33C0AD7233C54030020124810B56C
:102ED000104901600321416000214FF4002281600C
:102EE000C0E903124FF4401242610176012242769A
:102EF0008176C17601774177FEF755F908B1FDF784
:102F0000D6FEFDF73DFEBDE8104002210248FDF768
:102F1000D0BE00000064004020010020104810B521
:102F20000E4901600321416000214FF400228160BD
:102F3000C0E903124FF44012426101760122427649
:102F40008176C17601774177FEF72DF9002803D00D
:102F5000BDE81040FDF7ABBE10BD000000680040AA
:102F60004801002010B50E4A00210E4801F0CAFEAB
:102F70000D4C0B4A0021606024320C4801F0C2FE67
:102F8000074AA06048320021094801F0BBFE044A0C
:102F9000E0606C320021074801F0B4FE206110BDF2
:102FA000E4640008A936000800000020754C000801
:102FB000714B0008694C00082DE9F04F87B01421CF
:102FC0006846FDF7A9F967480024016841F004014B
:102FD0000160016801F004010591016841F02001E0
:102FE0000160016801F020010591016841F0800154
:102FF0000160016801F080010591016841F0100154
:103000000160016801F010010591016841F00201C1
:103010000160016801F002010591016841F00101C0
:103020000160016801F001010591016841F00801AA
:1030300001600068DFF830A100F008004FF4A075CF
:103040000590002229465046FEF756FCDFF81CB1D9
:103050004FF41068002241465846FEF74DFC4FF4ED
:103060000049002249464248FEF746FC002208215A
:103070004048FEF741FC02260095CDE90264012597
:10308000694650460195FEF73FFB802000904FF4C3
:103090008810CDE9010469465046FEF735FB680209
:1030A0000090CDE901640920CDE90340694650460E
:1030B000FEF72AFB4FF460504FF44417CDE90007A8
:1030C000694602945046FEF71FFB4FF44040CDE99D
:1030D0000007694602955046FEF716FB4FF4207034
:1030E000CDE90004694658460294FEF70DFBCDF881
:1030F0000080CDE90154694658460394FEF704FB6D
:10310000CDF80090CDE90154694619480394FEF7C3
:10311000FBFA6020CDE900060320CDE9024007203C
:10312000049069461448FEF7EFFA08200090CDE9B4
:10313000015469460F480394FEF7E6FA0022022183
:103140001720FEF77DFC1720FEF76CFC00220521FE
:103150002820FEF775FC2820FEF764FC07B0BDE8C8
:10316000F08F00003038024000140240001002408E
:103170000000024000040240000C024010B586B07E
:1031800000241748009401940294039404944FF08F
:103190008041059401605321C0E9011442F210718D
:1031A000C0E9031480218161FEF786FF08B1FDF7B5
:1031B0007EFD4FF48050009069460948FFF706F8FD
:1031C00008B1FDF774FD049404A905480594FEF7C1
:1031D0002BFF002801D0FDF76AFD06B010BD0000EE
:1031E000700100200C4810B50A4901604FF4E1312C
:1031F0004160002181600C22C160C0E9041281613C
:10320000C161FFF763FA002803D0BDE81040FDF765
:103210004EBD10BD004C0040B80100200C4810B558
:103220000A4901604FF4E1314160002181600C22C4
:10323000C160C0E904128161C161FFF747FA00284B
:1032400003D0BDE81040FDF732BD10BD004800407E
:1032500000020020B4EEE00AF1EE10FA01DDB0EE5B
:10326000600AF1EE600AB4EEE00AF1EE10FA01D263
:10327000B0EE600A7047FEE72DE9F041434E0025AD
:10328000A6F58C64C5EBC50000EB800154F8210065
:103290000A2873D2DFE800F06E72245A7205727247
:1032A000723D3B48C5EBC50204EB810700EBC20849
:1032B000B7F90800D8ED090A00EE100A06EBC200C3
:1032C000B8EEC00A00F078F8B7F90E0000EE100A68
:1032D0004046F8EEC00A97ED200A00F0E7F84DE00E
:1032E00004EB8107B7F90800D7ED040A00EE100AD5
:1032F000C5EBC50006EBC000B8EEC00A804600F082
:103300005BF898ED090ABDEEC00A10EE100AB8810C
:1033100034E004EB81073846FFF732FBB7F90800C9
:10332000D7ED040A00EE100AC5EBC50006EBC0009D
:10333000B8EEC00A804600F03FF8D7ED070A98EDD6
:10334000090AFFF787FF88ED090A17E004EB8107F8
:10335000384600F0F3FCB7F90800D7ED040A00EE98
:10336000100AC5EBC50006EBC000B8EEC00A00F0BD
:1033700023F803E004EB8101002088816D1C032DFC
:1033800080DBBDE8F04101F0BDBB0000B4070020C8
:1033900074090020FEE7B4EEE00AF1EE10FA01DD58
:1033A000B0EE600AF1EE600AB4EEE00AF1EE10FA57
:1033B00001D2B0EE600A704730EEC00A00B580ED71
:1033C000050AD0ED040A70EE600AC0ED060AD0EDE1
:1033D000010A20EE800AD0ED080AFFF7DCFFD0EDED
:1033E000000A90ED061AB0EE002A00EE810AD0ED38
:1033F000050A90ED031A70EE811A90ED041A41EE61
:10340000421A90ED022A02EE210AD0ED091A70EE5E
:10341000211AC0ED091A90ED0A0AF4EEC01AF1EE75
:1034200010FA01DD80ED090AD0ED091AB1EE400A6B
:10343000F4EEC01AF1EE10FA01D280ED090AF5EEB1
:10344000C00A80ED031AF1EE10FAC0ED040A01DCA7
:10345000F1EE600A90ED0D0AF4EEC00AF1EE10FAFA
:1034600003D29FED020A80ED090A00BD00000000B2
:1034700080ED082AC0ED0A1A012180EC030A9FEDB5
:103480000A0A80ED0B0A80ED030A80ED040A80ED44
:10349000090A80ED070A80ED050A80ED060A80F82A
:1034A0003010C0ED0D2A70470000000000B590F804
:1034B000301030EEC00A012906D180ED040A80EDFB
:1034C000030A002180F8301080ED050AD0ED070ACC
:1034D00070EE800AC0ED070A90ED041A30EE410A42
:1034E00080ED060A90ED010A20EE200AD0ED080AD0
:1034F000FFF751FF90ED001AD0ED050AD0ED061A46
:1035000001EE200A90ED021A01EE210A80ED090A6F
:1035100090ED0A1AB4EEC10AF1EE10FA01DD80ED69
:10352000091AD0ED091AB1EE410AF4EEC01AF1EE13
:1035300010FA01D280ED090AF5EEC00AC0ED040AC6
:10354000F1EE10FA01DCF1EE600A90ED0D0AF4EEF6
:10355000C00AF1EE10FA03D29FED020A80ED090ACB
:1035600000BD00000000000000B590F830100129F7
:1035700006D180ED040A80ED030A002180F83010A6
:1035800080ED050AD0ED070A70EE800AC0ED070A4B
:1035900090ED041A30EE410A80ED060A90ED010A22
:1035A00020EE200AD0ED080AFFF7F5FE90ED001A94
:1035B000D0ED050AD0ED061A01EE200A90ED021AB0
:1035C00001EE210A80ED090A90ED0A1AB4EEC10A53
:1035D000F1EE10FA01DD80ED091AD0ED091AB1EE15
:1035E000410AF4EEC01AF1EE10FA01D280ED090A98
:1035F000F5EEC00AC0ED040AF1EE10FA01DCF1EEBE
:10360000600A90ED0D0AF4EEC00AF1EE10FA03D252
:103610009FED020A80ED090A00BD000000000000D5
:103620001B480188A1F2DC51494200EE101A1A49E8
:10363000F8EEC00A9FED170A60EE800AC1ED040A99
:103640004288A2F2DC5200EE902AF8EEE00A20EE68
:10365000800A81ED030AC2881048A2F5A063DC3B12
:1036600003D090ED000A00F09FBCA2F2DC5200EE05
:10367000102ADFED0B0AB8EEC00A20EE200A81ED19
:10368000050A084991ED0C0A80ED000A7047000018
:10369000A40200208FC2F53C300300206C00002003
:1036A0000AD7233CE002002002F074FD03490860C1
:1036B0000A21024802F014F9FAE700000000002095
:1036C00010B54FF0E020006902F056FD012803D04C
:1036D000BDE8104002F084BA10BD000030B593B0D0
:1036E00030216846FCF718FE14210CA8FCF714FEE4
:1036F0001E480025016841F080510160006800F01B
:10370000805011901A48016841F4804101600068BE
:10371000022400F4804011900120009000040190E8
:103720008001CDE90640082008904FF4A870CDE94B
:10373000090404200B906846FEF7BEFA08B172B681
:10374000FEE70CA90F2081E831004FF4A0500F9044
:103750004FF48050109005210CA8FEF7A3F9002823
:1037600001D072B6FEE713B030BD00004038024011
:10377000007000400248016841F470010160704728
:1037800088ED00E00148FEF790BD000070010020C8
:103790000148FEF78ABD000048020020F0B502682B
:1037A000294C2A4D2A4E2B4F2B4B4FF0804CA042D8
:1037B00009D0604507D0A84205D0B04203D0B84236
:1037C00001D0984204D122F0700E4A6842EA0E02FB
:1037D000A0421BD0604519D0A84217D0B04215D0E6
:1037E000B84213D0984211D01C4DA8420ED01C4DA7
:1037F000A8420BD01B4DA84208D01B4DA84205D0B3
:103800001A4DA84202D01A4DA84203D122F44075A5
:10381000CA682A434D6922F080022A4302608A68FE
:10382000C2620A688262A04201D0984201D109694D
:103830000163012141610169C90703D0016921F0D8
:1038400001010161F0BD00000000014000040040E2
:1038500000080040000C004000040140004001400E
:10386000004401400048014000180040001C004096
:103870000020004010B5846842EA032224F47F440B
:103880000A432243826010BD826822F070020A431C
:1038900042F007018160704710B5036A046A24F0A2
:1038A00001040462846924F0F00444EA021423F061
:1038B0000A020A438461026210BD10B5036A046AF9
:1038C00024F010040462846923F0A00324F47044FB
:1038D00044EA023243EA01118261016210BD000034
:1038E0000148FEF7BBBD0000B801002010B5806B99
:1038F0000021C185C184FEF7AFFD10BD01680C3108
:1039000051E8002F22F4907241E80023002BF5D1FA
:103910000168143151E8002F22F0010241E8002330
:10392000002BF5D1016B012909D101680C3151E857
:10393000002F22F0100241E80023002BF5D12021B6
:1039400080F8421000210163704708B590F84210DA
:10395000222901D0022008BD82684FF480539A4288
:1039600001D1016921B1816A9A421BD04AB10AE0B2
:103970000268816A5268C2F308020A80816A891C5F
:1039800008E0026972B10268526802F07F020A70B0
:10399000816A491C8162C18D491E0904090CC185D7
:1039A00003D01BE002685268F1E70168CA6822F0A0
:1039B0002002CA600168CA6822F48072CA60016885
:1039C0004A6922F001024A61202180F84210002158
:1039D0004163026B012A03D0FEF71EFF002008BDE1
:1039E000016301680C3151E8002F22F0100241E818
:1039F0000023002BF5D101680A68D20602D50A68B7
:103A000049680091818DFEF726FDE7E770B5044611
:103A100000680169E26821F44051114301612169A4
:103A2000A068E26908436169114308432168CA68D4
:103A300049F20C639A430243CA6020684169A26953
:103A400021F440711143416131492068884202D01C
:103A50003049884202D1FEF7EFF801E0FEF7DCF8CA
:103A6000E2690023192164253226B2F5004F62680D
:103A700028D0A0FB0101930F9200FCF703FC014644
:103A8000B0FBF5F06FF01802504301EB800006EB3D
:103A90000010B0FBF5F000F0F002B1FBF5F002EB26
:103AA0000012B1FBF5F06FF01803584301EB8000F2
:103AB00006EB0010B0FBF5F000F00F002168104499
:103AC000886070BDA0FB010192185B41FCF7DAFB36
:103AD0000146B0FBF5F00201B1FBF5F06FF0180301
:103AE000584301EB800006EBC000B0FBF5F000F09E
:103AF000F80002EB4002B1FBF5F0584301EB800007
:103B000006EBC000B0FBF5F000F00700D6E70000C0
:103B1000001001400014014081628285C2850021AD
:103B20004164222180F84210016921B10168CA680C
:103B300042F48072CA6001684A6942F001024A6137
:103B40000068C16841F02001C160002070472DE984
:103B5000F843984617460D460446089E24E0701C1C
:103B600022D0FDF7CFFEA0EB0800B0421AD8CEB1AC
:103B70002068C168490717D5802D15D0402D13D076
:103B80000168C94309070FD4016800254068009007
:103B90002046FFF7B3FE0820606484F840500120FF
:103BA000BDE8F8830320FBE72068006835EA0000E1
:103BB00004D00020B842D2D00020F1E70120F9E77C
:103BC0000148FEF74BBC00000002002070B54F4CCE
:103BD0002DED0C8BA4F1280594ED001A84ED041A48
:103BE000D4ED011AC4ED051AD4ED020AC4ED060A9B
:103BF00090ED000A84ED020AD0ED032A30EE600A4F
:103C0000C4ED002A90ED042A32EEC11A84ED012A97
:103C100090ED053A72EE611A84ED033A84ED071ACD
:103C2000C4ED081A84ED090AD4ED0A0A70EEC10A3F
:103C3000C4ED0A0AD4ED0B0A70EEE10AC4ED0B0ADA
:103C4000D4ED0C0A30EEC00A84ED0C0AA868FCF72B
:103C5000F6FC9FED2F9B53EC192BFCF70FFC9FED0F
:103C60002EAB53EC1A2BFCF77BFC9FED2DBB53ECDA
:103C70001B2BFCF75CFB41EC100B00F075FA9FED81
:103C80002ACB51EC100B53EC1C2BFCF7F7FB41EC4F
:103C9000180BA06AFCF7D3FC53EC182BFCF7E8FBDD
:103CA0009FED23DB53EC1D2BFCF7E8FBFCF7DAFC64
:103CB0002860A868FCF7C3FC53EC192BFCF7DEFB6B
:103CC00053EC1A2BFCF74CFC53EC1B2BFCF72FFB93
:103CD00041EC100B00F0E4F953EC1C2B51EC100BF1
:103CE000FCF7CCFB41EC180BE06AFCF7A8FC53ECAA
:103CF000182BFCF7BDFB53EC1D2BFCF7BFFBFCF7AF
:103D0000B1FC6860BDEC0C8B70BD0000E0020020CF
:103D1000182D4454FB21094000000000008066403B
:103D200087F9F202ECA3D33F00000000D51C6040ED
:103D3000FCA9F1D24D62503FFEE7000010B590EDB6
:103D40001D2A044612EE100A4FF07E51884218DCFC
:103D5000B5EEC02AF1EE10FA13D3D4ED1E2A12EEFE
:103D6000900A88420DDCF5EEC02AF1EE10FA08D375
:103D700094ED1B3AD4ED1A1AB4EEE13AF1EE10FAD2
:103D800002D29FED660A0AE094ED180A94ED191A22
:103D9000B4EE410AF1EE10FA04D121EE830A84ED6B
:103DA000040A10BD71EE400AF5EEC00AF1EE10FAF9
:103DB00001DC70EE410AB0EE004AB4EEC01A22EE09
:103DC000202A62EEA03A70EEC22A62EE045A23EE76
:103DD000846A32EEE35A63EE032A41EEE12AC2EE30
:103DE000A54AD4ED1C2A62EEA22AF0EE625A43EEF6
:103DF000435AC5EE863AF1EE10FA06DDD4ED205AAC
:103E0000F4EEC05AF1EE10FA23D3B4EEC01AF1EE7C
:103E100010FA06D2D4ED205AF4EEC05AF1EE10FAA0
:103E200017DCB4EEC01AF1EE10FA06DDD4ED205A1C
:103E3000F4EEC15AF1EE10FA0BDCB4EEC01AF1EE5A
:103E400010FA09D2D4ED205AF4EEC15AF1EE10FA6C
:103E500002D2C4ED041A3CE0D4ED205A35EEC01A6B
:103E6000B5EEC01AF1EE10FA01DC30EE651AB4EED0
:103E7000C21AF1EE10FA08D221EEA10A64EE840A09
:103E800000EE810A10EE100A18E032EE050AB4EED8
:103E9000C10AF1EE10FA02DD84ED043A19E030EEC9
:103EA000C10A63EE841AB5EEC00AF1EE10FA01DC25
:103EB00031EE600A41EEC02A12EE900AFCF7BFFB19
:103EC00041EC100B00F0B4F951EC100BFCF7CAFBFD
:103ED000206194ED190AD4ED180AB4EEE00AF1EE6F
:103EE00010FA05D2D4ED040AF1EE600AC4ED040A1A
:103EF000D4ED200A0A4830EEC00AB0EEC00A10EE37
:103F0000101A814201DA0121E16710EE101A814294
:103F10007FF747AF0020E06710BD00000000000001
:103F2000000040401A480188A1F2DC51494200EEED
:103F3000101A1949F8EEC00A9FED160A60EE800AC1
:103F4000C1ED010A4288A2F2DC5200EE902AF8EE9E
:103F5000E00A20EE800A81ED000AC2880F48A2F52F
:103F6000A063DC3B10D01A4600EE102ADFED0C0AED
:103F7000B8EEC00A20EE200A81ED020A094991ED4F
:103F80000C0A80ED010A704790ED010A00F00CB8B0
:103F9000A4020020A69B443B300300206C000020BC
:103FA0000AD7233CE0020020244810B5D0ED020AD5
:103FB000234C60EE801A30EE601AF5EEC01AF1EE76
:103FC00010FA14DAF5EEC00AF1EE10FA01DCF1EEA7
:103FD000600AB5EEC00AF1EE10FA01DCB1EE400A5B
:103FE000184930EE800A10EE100A884202DC84ED97
:103FF000011A06E01248001DFCF7EAFCA068401C0C
:10400000A06094ED010A1048FFF7AEFA0E4890ED5B
:10401000090A0E4880ED020A94ED010AB5EEC00AC5
:10402000F1EE10FA01DCB1EE400A10EE100AB0F128
:104030007C5F01DA012010BD002010BDB802002015
:104040005400002000003443340B002030030020D3
:1040500003B401984100009850EAC12018BF042021
:104060004A0D18BF40F0010040F2FF72B2EB515F01
:1040700008BF40F00200012808BF052002B07047C9
:104080000907090E002804DB00F1E02080F8001485
:10409000704700F00F0000F1E02080F8141D704719
:1040A00010B52F499FED2C1B2DED020B84B0059808
:1040B00020F000408842D8BF9DED040B2DDD29493A
:1040C000884209D1049840B94FF0010000F014FD76
:1040D00000F0E2FC06B010BD05DB9DED040B00F026
:1040E000CFFC06B010BD68469DED040B00F0E0F873
:1040F00010F0030004BF9DED021B9DED000B0CD0E2
:1041000001280ED09DED021B9DED000B022817D05B
:10411000012000F01DFC06B010BD00F0E5FA06B06D
:1041200010BD9DED021B9DED000B012000F010FC69
:1041300051EC100B81F0004106B041EC100B10BDAA
:1041400000F0D2FA51EC100B81F0004106B041ECC6
:10415000100B10BD00000000000000000000000077
:10416000FB21E93F0000F07F10B52F499FED2C1B8C
:104170002DED020B84B0059820F000408842DCBF92
:1041800000209DED040B32DD2849884209D10498B6
:1041900040B94FF0010000F0AFFC00F07DFC06B02C
:1041A00010BD05DB9DED040B00F06AFC06B010BDF0
:1041B00068469DED040B00F07BF810F0030011D071
:1041C000012818D09DED021B9DED000B02281AD08E
:1041D00000F08AFA51EC100B81F0004106B041EC7E
:1041E000100B10BD9DED021B9DED000B012000F09A
:1041F000AFFB06B010BD9DED021B9DED000B00F066
:1042000073FA06B010BD012000F0A2FB51EC100BB8
:1042100081F0004106B041EC100B10BD0000000021
:104220000000000000000000FB21E93F0000F07FDB
:1042300000B52DED048BB0EE409AF0EE609A83B09D
:1042400051EC190BFCF7EFFA41EC180B18EE100AC1
:1042500018EE901A8DED008B002818BF012008433E
:1042600020F00040C0F17F6000F1E040C00F14D0AA
:1042700019EE101A19EE900A8DED009B002918BF57
:104280000121084320F00040C0F17F6000F1E040D0
:10429000C00F04BF012000F02FFCB0EE480A03B0AD
:1042A000F0EE680ABDEC048B00BD000000000000C9
:1042B0002DE9F14F04462DED020B2DED088B8AB050
:1042C0009FEDE70B80ED020B139EE74826F00045BB
:1042D00085420ADC9DED120B002084ED000B0AB034
:1042E000BDEC088B03B0BDE8F08FE0489FEDE0AB7C
:1042F0009FEDE1BBA84247DDE14F9FEDE39B9FEDC2
:10430000E48B9DED120B53EC1A2B51EC100B002E8D
:104310001CDDFCF7ADF841EC100BBD4208D053ECAE
:104320001B2B51EC100BFCF7A3F8C4E900010BE0C8
:1043300053EC192B51EC100BFCF79AF853EC182B9B
:10434000FCF796F8C4E900010120C8E7FBF7EFFF8E
:1043500041EC100BBD4208D053EC1B2B51EC100B61
:10436000FBF7E5FFC4E900010BE053EC192B51EC1E
:10437000100BFBF7DCFF53EC182BFBF7D8FFC4E95D
:1043800000014FF0FF30AAE7C348A84279DB9DED5A
:10439000120B51EC100B00F0FBFB41EC180B9FEDE6
:1043A000C00B53EC102BFCF769F89FEDBF1B53ECCF
:1043B000112BFBF7BCFFFCF7B7FA0746FCF796FAA0
:1043C00041EC190B53EC1A2BFCF758F853EC182B53
:1043D000FCF751F841EC180B53EC1B2B51EC190B6B
:1043E000FCF74CF8DFF8C8A241EC100B4FEA155867
:1043F0000125FA4453EC102B51EC180BFCF738F85C
:10440000032DC4E900013DD0C1F30A5005EB45116D
:10441000A8EB00001139814234DA0AEB051BB0EE3B
:1044200048AA9BED000BF0EE68AA53EC102B51EC60
:10443000190BFCF723F841EC1B0B51EC1A0B53EC56
:104440001B2BFCF715F841EC180B51EC1A0B53EC35
:10445000182BFCF70DF853EC1B2BFCF709F89BED20
:10446000020B41EC1A0B53EC102B51EC190BFCF71F
:1044700005F853EC1A2BFBF7FBFF41EC100B6D1CFE
:10448000B8E70EE0002EA8BF3846BFF628AF94ED7F
:10449000000B51EC100B81F00041C4E9000178429F
:1044A0001DE7C6F3130040F4801EC6F30A50A0F2C5
:1044B000F530471100F01F05C5F12000DDF848B0C8
:1044C00008900020069007900520EC467949002DC1
:1044D00007EB0002794408BF51F8221009D051F8C7
:1044E000223001EB8201AB404A68089922FA01F1BF
:1044F0001943A1FB0E26A1FB0B131A449A4234BFA9
:104500000123002303EB06080CEB8003D3E901A68B
:104510000E448E4234BF0121002192448A4411B1DD
:10452000924502D903E0924501D2012100E0002129
:10453000C3E901A641444CF82010011EA0F101007E
:10454000C4DC029800F10050850F0298DDE9036792
:104550008000DDF81480FCF7C9F941EC1A0B3046F5
:10456000FCF7D5F99FED541B53EC112BFBF786FF9D
:1045700041EC1B0B3846FCF7CAF99FED511B53EC7D
:10458000112BFBF77BFF41EC180B4046FCF7BFF902
:104590009FED4D1B53EC112BFBF770FF41EC190BFA
:1045A00051EC180B53EC192BFBF7C1FE53EC1B2BF2
:1045B000FBF7BDFE53EC1A2BFBF7B9FECDE9080162
:1045C000002008909DED080B53EC1A2B51EC100BBA
:1045D000FBF74EFF53EC1B2BFBF74AFF53EC182B5A
:1045E000FBF746FF53EC192BFBF745FF9FED381BFC
:1045F00053EC112BFBF742FF9FED370B41EC180BEF
:1046000053EC102B9DED080B51EC100BFBF736FF14
:1046100053EC182BFBF78BFE9FED310B41EC180B85
:1046200053EC102B9DED080B51EC100BFBF726FF04
:1046300053EC182BFBF77BFE41EC100B139810F09A
:10464000004F06D06D4251EC100B81F0004141EC5F
:10465000100B284684ED000B41E60000000000002E
:104660000000000000000000FB21E93F7CD902406F
:1046700000004054FB21F93F3163621A61B4D03D20
:10468000FB21F93F000000000000601A61B4D03D3A
:104690007370032E8A19A33BFB21394100000000EF
:1046A00083C8C96D305FE43F000000000000E03FB8
:1046B000CA21000018210000000000000000103E88
:1046C000000000000000103C000000000000103A54
:1046D000182D4454FB21F93D3326A611460B113CFD
:1046E00000000054FB21F93D10B52DED040B2DED1C
:1046F000088B82B0B0EE419AF0EE619A0B9820F0F0
:1047000000449FED4BABB4F1795F11DA9DED0A0BDC
:1047100051EC100BFCF708F9002801BFB0EE4A0A73
:10472000F0EE6A0A02B0BDEC088B04BF04B010BD05
:104730009DED0A0B53EC102B51EC100BFBF79EFE7A
:1047400041EC180B3C480621B0EE480AF0EE680A2E
:10475000784400F081F853EC182B51EC100BFBF768
:104760008DFE9DED0A0B41EC1B0B53EC192B51EC0C
:10477000100BFBF783FE41EC190B53EC1B2B51EC98
:10478000180BFBF77BFE53EC192BFBF771FE9FED2B
:104790002C0B41EC190B53EC102B51EC180BFBF7C5
:1047A0006DFE41EC100B2848844210DA53EC192BB3
:1047B00051EC100BFBF75CFE53EC1A2BFBF75BFE86
:1047C00041EC100B02B0BDEC088B04B010BD1F48CB
:1047D000A042BCBF9FED1E1B8DED001B06DBA4F5A8
:1047E00000100190002000909DED001B51EC100B7B
:1047F00053EC112BFBF73CFE9DED000B41EC180B2D
:1048000053EC102B51EC1A0BFBF732FE41EC1A0B58
:1048100053EC192B51EC180BFBF72AFE53EC1A2B17
:10482000FBF729FE41EC100BCCE700000000000074
:10483000000000000000F03F3C1E000000000000EF
:10484000000000000000E03F3333D33F0000E93FA9
:10485000000000000000D23F70B504462DED028B31
:104860004D1E00EBC500B0EE408AF0EE608A90ED80
:10487000000B35F0060017D053EC182B51EC100B41
:10488000FBF7FCFD41EC100B6D1E04EBC50090ED39
:10489000001B51EC100B53EC112BFBF748FD41ECC6
:1048A000100B35F00600E7D1022D36D0042D1CD0B8
:1048B000062D1CBFBDEC028B70BD53EC182B51ECC8
:1048C000100BFBF7DBFD94ED0A1B53EC112BFBF7F0
:1048D0002EFD53EC182BFBF7D1FD94ED081B53EC88
:1048E000112BFBF724FD41EC100B53EC182B51EC72
:1048F000100BFBF7C3FD94ED061B53EC112BFBF7DC
:1049000016FD53EC182BFBF7B9FD94ED040B53EC9B
:10491000102BFBF70CFD41EC100B53EC182B51EC5A
:10492000100BFBF7ABFD94ED021B53EC112BFBF7C7
:10493000FEFC53EC182BFBF7A1FD94ED001B53EC90
:10494000112BFBF7F4FCBDEC028B41EC100B70BD9E
:1049500031B504462DED040B2DED0A8BB0EE41BAB6
:10496000F0EE61BA0B989DED0A0B20F00040B0F11B
:10497000795F0DDA51EC100BFFF76AFB042808BFD2
:1049800000F09AF89DED0A0BBDEC0A8B05B030BD26
:1049900053EC102B51EC100BFBF770FD41EC180B96
:1049A0009DED0A0B53EC182B51EC100BFBF766FD39
:1049B00041EC190B2C48B0EE480AF0EE680A0521CC
:1049C0007844FFF749FF9FED2ACBB0EE40AAF0EE06
:1049D00060AA9CB353EC1C2B51EC190BFBF74EFD5A
:1049E00041EC1C0B53EC1A2B51EC190BFBF746FD59
:1049F0009FED210B41EC190B53EC102B51EC1B0BD1
:104A0000FBF73CFD53EC192BFBF732FD53EC182B55
:104A1000FBF734FD53EC1B2BFBF72AFD53EC1C2B4F
:104A2000FBF726FD9DED0A1B53EC112BFBF723FD35
:104A3000BDEC0A8B05B041EC100B30BDFFE753EC29
:104A40001A2B51EC180BFBF719FD53EC1C2BFBF741
:104A50006EFC53EC192BFBF711FD9DED0A1B53EC7B
:104A6000112BFBF764FCE3E7C41C0000000000000E
:104A7000495555555555C5BF000000000000E03FA1
:104A800010B553EC102B51EC100BFBF750FC41EC24
:104A9000100B10BD000000009FED050B10B553EC8E
:104AA000102B51EC100BFBF75BFD41EC100B10BD14
:104AB00000000000000000009FED050B10B553EC56
:104AC000102B51EC100BFBF7D9FC41EC100B10BD77
:104AD000000000000000001002E008C8121F08C11A
:104AE000002AFAD170477047002001E001C1121F6F
:104AF000002AFBD1704700000149086070470000A0
:104B00000401002000B589B0002000900190082128
:104B10000490CDE905018DF81C008801029012482F
:104B200008AB81890A0A8DF800208DF80110B0F8D1
:104B300098100A0A8DF802208DF80310B0F824119D
:104B40000A0A8DF804208DF80510B0F8B0016A4605
:104B5000010A8DF806108DF8070002A90348FCF73A
:104B6000BAF809B000BD0000540300202001002065
:104B7000064C4FF47A756089A84201D0FBF754FFC8
:104B8000FDF728FF0A2000F081F8F4E7A4020020D6
:104B900082B0CDE9000121F0004001909DED000BB5
:104BA00002B051EC100B704702681548A2F5007274
:104BB000013A10D0012A18D0022A0BD10A8852BA21
:104BC000A0F81E214A8852BAA0F82021898849BA43
:104BD000A0F8221170470A8852BAC2804A8852BA95
:104BE0000281898849BA418170470A8852BA20F8FF
:104BF000922F4A8852BA4280898849BA8180704788
:104C000054030020FCF78CFEFEF768FDFEF7D4F994
:104C1000FEF75CF9FEF782F9FEF7B0FAFEF7FEFA4E
:104C2000FEF7E0FA01220B490B48FDF7E7FD0B48C0
:104C3000FDF78CFA0A48FCF727FC0A48FCF724FC2D
:104C4000FDF7E0FF00F030F8FEF78CF900F03EF8D9
:104C5000FEE7000028000020000200207001002074
:104C60002001002048010020FEF706FB012000F093
:104C70000DF8F9E7FBF7E4FF0348FBF78BFE0A208A
:104C800000F004F8F6E70000A402002010B5EFF3EE
:104C9000058111B16FF0050403E0002408B100F0B4
:104CA000F9FD204610BD0000EFF3058010B16FF054
:104CB000050070470448016811B14FF0FF3070479C
:104CC0000121016000207047D400002010B5EFF3EF
:104CD000058010B16FF0050010BD0848016801297A
:104CE00002D04FF0FF3010BD054A002182F8141D9C
:104CF0000221016000F07CFE002010BDD4000020E5
:104D00000BE000E02DE9FF414FEA01034FF0000501
:104D1000EFF30581039549BB40B380271821002498
:104D20004AB3166806B1344696691EB13146761EFE
:104D3000382E02D21679F60703D0002004B0BDE861
:104D4000F081566906B1B708D2F808C0BCF1000F6F
:104D50000DD0D5685C2D18D312693AB136B18DE803
:104D600006103A46214601F0DCF903900DE0D668C2
:104D70005EB912694AB903AACDE90012BAB2214656
:104D800001F0A2F9012800D003950398D6E70000AE
:104D90002DE9F041134C0F460546E6682068001DDA
:104DA00000F044FC681C07D137B12168BDE8F04130
:104DB0000D48091D00F08ABC20683544B5424560A5
:104DC000216805D2A06BBDE8F041091D00F066BC6A
:104DD000606B091D00F062FCA06A854200D2A562EA
:104DE000BDE8F081840000205C1000202DE9F04136
:104DF000054600F077FC2D4CA068401CA0602068A0
:104E00002B4F10B1606930B32BE02560A0680128FA
:104E100027D1002606EB860007EB800000F030FC6F
:104E2000761C382EF6D3234800F02AFC2148143093
:104E300000F026FC1F48283000F022FC1D483C30C2
:104E400000F01EFC1B48503000F01AFC194860634B
:104E50001430A06305E02068E96AC06A884200D87F
:104E60002560606A401C60626864E86A2169884263
:104E700000D9206100EB800007EB8000291D00F0C5
:104E800025FC00F04FFC606900280CD02068E96A1E
:104E9000C06A884207D208494FF080500860BFF3CB
:104EA0004F8FBFF36F8FBDE8F081000084000020BA
:104EB000AC0B00200C10002004ED00E038B500F031
:104EC00011FC104C2068C8B90F4800F0D9FB0E48FF
:104ED000143000F0D5FB0C48E060143020610A4B20
:104EE0000020F03B009003F1500210210A2000F056
:104EF0008DFE206010B105A100F096FCBDE83840A1
:104F000000F010BCC000002060110020546D7251F0
:104F10000000000030B4026C0B46002A0BD0C168C0
:104F20001144C1608468A14201D30168C16030BCF2
:104F30001846FBF7D8B930BC70472DE9F041856BB6
:104F4000174604460026026C82B1C7B1E068FBF741
:104F5000CAF9E168206C091AE1602268914202D224
:104F6000A168081AE060022F16D017E02068A8B9DF
:104F7000A06801F079F906460020A0600EE06068A4
:104F8000FBF7B1F9216C606808446060A168884251
:104F900004D32068606001E005B16D1E6D1CA5633F
:104FA0003046BDE8F08110B5044690F8590058B17C
:104FB00001280CD002280FD0502080F31188BFF3B5
:104FC0004F8FBFF36F8FFEE7206B00F0BFFB2046D3
:104FD000BDE8104000F0BABB10BD000010484FF40F
:104FE0007051420706D0C01D0D4920F00700411A3C
:104FF000C1F570510B4A00230144C2E9000308398E
:10500000183A21F0070111604B600B600B1AC0E9E0
:10501000001393604FF000405360506170470000F0
:1050200040180020F0000020144E154CA6F29C47BA
:105030004FF08058DFF84C9012E000BF00F052FBB8
:10504000F068C568281D00F0F1FAA068401EA06055
:105050006068401E606000F065FB2846FFF7A3FF14
:1050600060680028EAD138680128F9D9C9F80080B9
:10507000BFF34F8FBFF36F8FF2E70000481000209F
:105080008400002004ED00E070B51D46049C51B181
:10509000C4F80020C4E90F010121204600F0EAFD18
:1050A00084F84C5070BD2460F4E700002DE9F05FF7
:1050B0008846DDE90B941546834691009A460A9E80
:1050C000A522206BFBF721F96FF00301206B01EBA8
:1050D0008501084420F00707780707D0502080F3A7
:1050E0001188BFF34F8FBFF36F8FFEE70025B8F134
:1050F000000F0FD05FF00000221818F8001082F89F
:10510000341018F8001011B1401C1028F4D384F8A2
:10511000435001E084F83450382E00D33726E6623D
:10512000C4E91365201D00F0B6FA04F1180000F080
:10513000B2FA2461C6F138006462A061656584F842
:10514000585052465946384600F05AFA2060B9F194
:10515000000F01D0C9F80040BDE8F09F30B51149FB
:1051600000E011460A688242FBD34B685C18844217
:1051700003D1406818444860084643681C189442AC
:1051800009D1084C183C2468A24209D052681A443C
:1051900042600A6812680260814200D0086030BD37
:1051A0000460F9E7F000002070B5002441600B4D69
:1051B0000061914206D8D11A8269914206D2011D3E
:1051C000286907E09A4203D2994201D3012403E0FF
:1051D000011DE86800F062FA204670BDC0000020A2
:1051E00010B5044600F07EFAA06B28B15FF0000411
:1051F00000F098FA204610BD0124F9E730B589B0D7
:105200003C4D6EE00498002806DADDE90601059AB7
:1052100090470498002864DB069C606910B1201D4B
:1052200000F004FA03A800F0D7F8024604980A2810
:1052300057D2DFE800F00505052D334A05052D336B
:1052400094F8280040F0010084F828000599A0692E
:10525000059B01442046FFF7A7FF68B3216A20465B
:10526000884794F8280040073BD500200090059817
:10527000A169002342181946204601F0FFF8D8B969
:10528000502080F31188BFF34F8FBFF36F8FFEE77D
:1052900014F8280F20F00100207022E094F8280074
:1052A00040F0010084F828000598A06128B1811819
:1052B00013462046FFF778FF13E0502080F3118853
:1052C000BFF34F8FBFF36F8FFEE794F8280081077D
:1052D00003D4204600F03AFA03E020F0010084F8FD
:1052E0002800002204A9286800F018FE002889D1AF
:1052F00009B030BDC00000202DE9FC410F46054635
:1053000000F0BAFB01A800F067F80446019818B154
:1053100001F022F8BDE8FC81254EAFB1306900688C
:10532000D0B30027291B3A46306800F091FA01F00B
:1053300013F80028EED11F494FF080500860BFF3EA
:105340004F8FBFF36F8FE5E7A542EBD801F004F86C
:10535000F0682746C068C468201D00F067F994F81B
:105360002800410719D5A0692B4641193A46204625
:10537000FFF71AFFA8B100200346014600902A4615
:10538000204601F07BF860B9502080F31188BFF30C
:105390004F8FBFF36F8FFEE707E020F0010084F826
:1053A0002800216A20468847B4E70127BAE70000B1
:1053B000C000002004ED00E00648416B096829B1F7
:1053C000416BC968C9684968816270474FF0FF3115
:1053D000FAE700008400002070B5054600F0DAFE10
:1053E000064E0446B068844203D200F009F801205A
:1053F00000E0002028602046B46070BDC00000209E
:10540000F8B5194D20E0C068C4680668201D00F09A
:105410000DF9216A2046884794F82800400713D5E3
:10542000A0693044B04206D924616060211DE8685B
:1054300000F034F908E000200346014600903246AF
:10544000204601F01BF838B1E86801680029DAD17C
:105450002969C5E90310F8BD502080F31188BFF316
:105460004F8FBFF36F8FFEE7C000002008484068F1
:10547000401C4FF0500080F3118804D0BFF34F8FD1
:10548000BFF36F8FFEE7BFF34F8FBFF36F8FFEE762
:10549000F8000020074CE068016841B1C0680021B5
:1054A000D0F80000FFF728FFFFF7A8FEF3E701217F
:1054B0000020F7E7C00000202DE9F041044600F08D
:1054C00011F994F9455004F1240609E0606A48B1E5
:1054D000304600F009FF08B100F050FA6D1E6DB2C1
:1054E000002DF3DC4FF0FF3684F8456000F01AF928
:1054F00000F0F8F894F9445004F1100709E020692D
:1055000048B1384600F0F0FE08B100F037FA6D1EE1
:105510006DB2002DF3DC84F84460BDE8F04100F08A
:1055200001B900002DE9F0410546002700F0A4FA7A
:10553000324E306808B9FFF751FD706905424ED10F
:10554000C5B3083568070ED005F00700C0F10800A4
:105550000544680707D0502080F31188BFF34F8FB0
:10556000BFF36F8FFEE72DB37068854237D82348AD
:10557000183001460C6801E020460C466168A942DB
:1055800002D221680029F7D131688C4227D0076800
:105590002168016060680837411B10290FD9601924
:1055A000420708D0502080F31188BFF34F8FBFF31C
:1055B0006F8FFEE713E041606560FFF7CFFD616824
:1055C0007068401A7060B268904200D2B060706932
:1055D00001430020C4E90001F068401CF06000F0C5
:1055E000BBFE780707D0502080F31188BFF34F8FA0
:1055F000BFF36F8FFEE73846BDE8F081D80000208A
:1056000010B5031F4FF080741C601B1F21F00101B7
:105610001960191F044B0B6014390A60091F6FF0E1
:10562000020244380A6010BD6D540008D0E901320E
:1056300001699A60D0E901235A604A68824201D127
:1056400082684A60002202610868401E086008689B
:1056500070470000034B036003F15C00086080208A
:105660001060704788110020044B036003F15C0058
:1056700008604FF48070106070470000E413002051
:1056800000F108014FF0FF32C0E90112C160016171
:1056900000210160704700210161704730B50B683F
:1056A0005A1C02D000F1080202E0026904E022461E
:1056B000546825689D42FAD953684B6099608A60A6
:1056C000516008610168491C016030BD42684A6050
:1056D00093688B6093685960916008610168491C08
:1056E00001607047502080F31188BFF34F8FBFF3E4
:1056F0006F8F0A494868401C486001280CD108484F
:10570000006810F0FF0F07D0502080F31188BFF31E
:105710004F8FBFF36F8FFEE770470000F800002047
:1057200004ED00E00849486828B1401E486001D1F6
:1057300080F311887047502080F31188BFF34F8F9A
:10574000BFF36F8FFEE70000F800002070B500285F
:105750002AD0164DA0F1080460686969084207D193
:10576000502080F31188BFF34F8FBFF36F8FFEE798
:1057700022683AB1502080F31188BFF34F8FBFF3F6
:105780006F8FFEE78843606000F076F960686968B3
:10579000084468602046FFF7E1FC2869401C286146
:1057A000BDE8704000F0D8BD70BD0000D8000020FA
:1057B0004FF0E02000210161816105494FF47A72C8
:1057C0000968B1FBF2F1491E41610721016170478F
:1057D0008000002010B5FAF73FFD114910280ED3C4
:1057E00000F1E02090F8F0030A78904207D25020B0
:1057F00080F31188BFF34F8FBFF36F8FFEE7094827
:105800000068896800F4E060884207D9502080F37E
:105810001188BFF34F8FBFF36F8FFEE710BD0000FD
:10582000F80000200CED00E010B5084B002200BF8E
:1058300053F832401CB1521C082AF9D310BD43F86A
:10584000321003EBC201486010BD00006C0B002059
:1058500070B515460E460446FFF744FF94F9441010
:105860000020491C01D184F8440094F94510491CDA
:1058700001D184F84500FFF755FFA06B28B92A46EF
:10588000314604F1240000F097F82046BDE870404E
:10589000FFF712BE10B5020014D00F48006B38B1EC
:1058A000502080F31188BFF34F8FBFF36F8FFEE757
:1058B00000F0E2F800211046FFF76AFA00F04CFD14
:1058C000002807D105494FF080500860BFF34F8F83
:1058D000BFF36F8F10BD00008400002004ED00E0D6
:1058E00070B50D4604000BD095B11E4A106BB8B1CF
:1058F000502080F31188BFF34F8FBFF36F8FFEE707
:10590000502080F31188BFF34F8FBFF36F8FFEE7F6
:10591000502080F31188BFF34F8FBFF36F8FFEE7E6
:1059200000F0AAF8D26823685919934204D98B422F
:105930000AD9914202D807E08B42FAD9881A21602D
:105940000021FFF725FA00E0216000F005FD0028A6
:1059500007D105494FF080500860BFF34F8FBFF368
:105960006F8F70BD8400002004ED00E002490A6AD8
:105970000260C9684160704784000020014901202D
:10598000C86170478400002010B50C4650B1094929
:1059900009681831FFF782FE2046BDE8104001215A
:1059A000FFF7F6B9502080F31188BFF34F8FBFF394
:1059B0006F8FFEE78400002070B514460D4668B175
:1059C0000A4909681831FFF781FE0CB14FF0FF3525
:1059D00021462846BDE87040FFF7DAB9502080F331
:1059E0001188BFF34F8FBFF36F8FFEE78400002055
:1059F00030B587B00024039405AA04A903A8049431
:105A0000FFF728FEDDE903010094CDE90110002332
:105A100015A11748059A00F084FB164D0028E8628E
:105A20001FD000F0FBFC012809D0401C19D15020E8
:105A300080F31188BFF34F8FBFF36F8FFEE75020C5
:105A400080F31188BFF34F8FBFF36F8F4FF0FF309C
:105A5000A86201206861EC6007B0BDE8304000F04A
:105A600045B807B030BD000049444C450000000077
:105A700029500008840000200248016B491C016382
:105A80007047000084000020164810B5016B11B16A
:105A90000121C16110BD0021C1610169124A01E00B
:105AA000B9B1491E01EB810352F82330002BF7D026
:105AB00001EB810302EB830202F1080453685B6887
:105AC0005360A34201D15B685360DA6802600161F0
:105AD00010BD502080F31188BFF34F8FBFF36F8F3D
