:020000040800F2
:10000000C0060020B50100083D190008F5170008DA
:1000100039190008BD020008D91C000800000000C2
:10002000000000000000000000000000ED190008C2
:10003000C102000800000000AD190008451A0008C0
:10004000CF010008CF010008CF010008CF01000850
:10005000CF010008CF010008CF010008CF01000840
:10006000CF010008CF010008CF010008CF01000830
:10007000CF010008CF010008CF010008CF01000820
:10008000CF010008CF010008CF010008CF01000810
:10009000CF010008CF010008CF010008C502000809
:1000A000CF010008CF010008CF010008CF010008F0
:1000B000BD1A0008CF010008CF010008CF010008D9
:1000C000CF010008CF010008CF010008CF010008D0
:1000D000CF010008CF010008CF010008CF010008C0
:1000E000CF010008CF010008CF01000800F002F89E
:1000F00000F050F814A696E8000CB244B344DA4578
:1001000001D100F047F8BAE80F000FA696E83000DA
:10011000A5EB040504EB0607AAEB0704A7F101070A
:100120004FEA15154FEA3414A4F10104AC4201D38F
:1001300000F030F813F0010F18BFFB1A43F0010371
:1001400000F001F8DBE71847201D0000401D00000B
:10015000103A24BF78C878C1FAD8520724BF30C8F3
:1001600030C144BF04680C60704700007047000055
:100170000023002400250026103A28BF78C1FBD8B0
:10018000520728BF30C148BF0B6070471FB51FBD65
:1001900010B510BD00F058F81146FFF7F7FF01F059
:1001A000FDFD00F076F803B4FFF7F2FF03BC00F0AA
:1001B0007DF800000948804709480047FEE7FEE750
:1001C000FEE7FEE7FEE7FEE7FEE7FEE7FEE7FEE707
:1001D00004480549054A064B70470000B91A000853
:1001E000ED000008C0000020C0060020C002002072
:1001F000C00200204FF0000200B513469446964618
:10020000203922BFA0E80C50A0E80C50B1F1200129
:10021000BFF4F7AF090728BFA0E80C5048BF0CC0D7
:100220005DF804EB890028BF40F8042B08BF704735
:1002300048BF20F8022B11F0804F18BF00F8012BA7
:100240007047704770477047754600F02BF8AE4610
:1002500005006946534620F00700854618B020B5D2
:10026000FFF7B6FFBDE820404FF000064FF0000753
:100270004FF000084FF0000BAC46ACE8C009ACE80A
:10028000C009ACE8C009ACE8C00921F007018D46FF
:10029000704710B50446AFF300802046BDE810401B
:1002A000FFF781BF00487047100000200149182067
:1002B000ABBEFEE72600020070470000FFE7FEE746
:1002C0007047000080B5802000F010F880BD00006D
:1002D00081B0EFF3108072B60090FFE7FEE70000F8
:1002E00081B0ADF8020001B07047000080B582B067
:1002F000ADF8060040F21440C4F201000068BDF8F9
:10030000061008420CD0FFE7BDF8060040F2144189
:10031000C4F201010860BDF80600FFF7E1FFFFE746
:1003200002B080BD90B00F900E9100200D9009900A
:10033000FFE70E9800680D99C840002800F07F8103
:10034000FFE70D99012088400C900E9800680C99E9
:1003500008400B900B980C99884240F06C81FFE7A5
:100360000E9840680590002851D0FFE705980128B5
:100370003AD0FFE7059802283FD0FFE70598032809
:100380005FD0FFE70598112832D0FFE705981228C3
:1003900038D0FFE705980021C1F21101884236D01C
:1003A000FFE705980021C1F2120188422FD0FFE734
:1003B00005980021C1F22101884228D0FFE7059865
:1003C0000021C1F22201884221D0FFE705980021D7
:1003D000C1F2310188421AD0FFE705980021C1F22D
:1003E0003201884213D02FE00E98C06809902CE0AB
:1003F0000E98C0680430099027E00E98C068083055
:10040000099022E00E98C0680C3009901DE00E980B
:10041000806818B9FFE70420099011E00E98806801
:10042000012806D1FFE7082009900C980F99086170
:1004300005E0082009900C980F994861FFE7FFE755
:1004400003E00020099000E0FFE70B98FF2803D8A5
:10045000FFE70F98049003E00F9804300490FFE743
:10046000049808900B98FF2804D8FFE70D988000A7
:10047000039006E00D996FF01F0000EB81000390E0
:10048000FFE70398079008980068079A0F219140AA
:100490008843099991400843089908600E98C079EB
:1004A000C006002840F1C680FFE7FFE741F21800D0
:1004B000C4F20200016841F001010160006800F02F
:1004C000010006900698FFE70D9820F00300082130
:1004D000C4F2010140580A900D9800F00300810019
:1004E0000F2000FA01F10A9888430A900F9840F60D
:1004F0000001C4F20101884203D1FFE7002002900D
:1005000026E00F9840F60041C4F20101884203D171
:10051000FFE70120019018E00F9841F20001C4F2BA
:100520000101884203D1FFE7022000900AE00F9901
:1005300041F20042C4F201020420914208BF0320AC
:100540000090FFE700980190FFE701980290FFE715
:1005500002980D9901F00301890000FA01F10A984F
:1005600008430A900A980D9921F003010822C4F269
:10057000010288500E988079C006002809D5FFE74F
:100580000B9A40F20841C4F2010108681043086068
:1005900008E00B9A40F20841C4F201010868904358
:1005A0000860FFE70E9880798006002809D5FFE7EC
:1005B0000B9A40F20C41C4F2010108681043086034
:1005C00008E00B9A40F20C41C4F201010868904324
:1005D0000860FFE70E9880798007002809D5FFE7BB
:1005E0000B9A40F20441C4F201010868104308600C
:1005F00008E00B9A40F20441C4F2010108689043FC
:100600000860FFE70E988079C00748B1FFE70B9AB2
:1006100040F20041C4F2010108681043086008E09C
:100620000B9A40F20041C4F201010868904308604F
:10063000FFE7FFE7FFE70D9801300D9079E610B076
:100640007047000082B00190ADF802108DF80120D3
:100650009DF8010028B1FFE7BDF80200019908618B
:1006600005E0BDF80200000401990861FFE702B04F
:100670007047000040F2BC00C2F200000068704702
:1006800040F20400C2F20000027840F2BC01C2F263
:1006900000010868104408607047000080B542F20D
:1006A0000001C4F20201086840F010000860032055
:1006B00000F096F80F2000F005F800F03BF800205D
:1006C00080BD000080B582B0009040F20000C2F210
:1006D0000000006840F20401C2F200010A784FF401
:1006E0007A71B1FBF2F1B0FBF1F000F049FD20B1FD
:1006F000FFE701208DF8070018E000980F280DD8BB
:10070000FFE700994FF0FF30002200F04FF800980B
:1007100040F20801C2F20001086003E001208DF8F8
:10072000070003E000208DF80700FFE79DF80700B1
:1007300002B080BD83B0FFE741F21800C4F20200AE
:10074000016841F001010160006800F001000290C1
:100750000298FFE7FFE741F21C00C4F202000168C3
:1007600041F080510160006800F0805001900198D4
:10077000FFE7FFE70421C4F2010108680090009838
:1007800020F0E0600090009840F000700090009829
:100790000860FFE703B0704780B582B08DF80700AE
:1007A0009DF9070001F09AFA02B080BD80B586B0CD
:1007B0008DF81700049103920020029001F0A6FA30
:1007C00002909DF91700019002980499039A01F094
:1007D000B7F80146019801F0A1FA06B080BD00000B
:1007E00080B582B00190019801F0BAFA02B080BDE4
:1007F00080B584B002900191029820B9FFE70120F2
:100800008DF80F001BE1019842F20001C4F20201D1
:10081000096801F00701884216D9FFE742F200009B
:10082000C4F20200016821F00701019A114301603E
:10083000006800F007000199884204D0FFE701201A
:100840008DF80F00FBE0FFE7029800788007002892
:100850002AD5FFE7029800784007002809D5FFE76E
:1008600041F20401C4F20201086840F4E06008604B
:10087000FFE7029800780007002809D5FFE741F25A
:100880000401C4F20201086840F460500860FFE708
:1008900041F20401C4F20201086820F0F000029A5B
:1008A000926810430860FFE702980078C0070028AC
:1008B00060D0FFE70298406801280ED1FFE741F2BF
:1008C0000000C4F2020000688003002804D4FFE79F
:1008D00001208DF80F00B2E021E002984068022864
:1008E0000ED1FFE741F20000C4F20200006880016F
:1008F000002804D4FFE701208DF80F009FE00DE0F1
:1009000041F20000C4F2020000688007002804D40D
:10091000FFE701208DF80F0091E0FFE7FFE741F2CC
:100920000401C4F20201086820F00300029A526830
:1009300010430860FFF79EFE0090FFE741F20400BD
:10094000C4F20200006800F00C0002994968B0EBA4
:10095000810F0ED0FFE7FFF78DFE0099401A41F29C
:100960008931884204D3FFE703208DF80F0066E049
:10097000E4E7FFE7019842F20001C4F202010968CE
:1009800001F00701884216D2FFE742F20000C4F2EC
:100990000200016821F00701019A1143016000681B
:1009A00000F007000199884204D0FFE701208DF88C
:1009B0000F0044E0FFE702980078400700280CD5BC
:1009C000FFE741F20401C4F20201086820F4E0608C
:1009D000029AD26810430860FFE702980078000787
:1009E00000280DD5FFE741F20401C4F202010868B6
:1009F00020F46050029A126940EAC2000860FFE7E2
:100A000000F022F841F20401C4F202010968C9B2FF
:100A10000A0941F64461C0F60001895CC84040F211
:100A20000001C2F20001086040F20800C2F20000BA
:100A30000068FFF747FE00208DF80F00FFE79DF8E4
:100A40000F0004B080BD000086B000200590049027
:100A500003900290019041F20400C4F20200006889
:100A60000590059800F00C000146009100283FD049
:100A7000FFE70098042804D0FFE70098082806D074
:100A800037E041F20020C0F27A00019037E005988B
:100A9000C0F3834141F65460C0F60000405C029010
:100AA0009DF81600C007C0B1FFE741F20400C4F290
:100AB00002000068C0F3404141F66460C0F60000E7
:100AC000405C0490029841F20021C0F27A01484350
:100AD0000499B0FBF1F0039007E0029840F6001192
:100AE000C0F23D0148430390FFE70398019006E000
:100AF000FFE741F20020C0F27A000190FFE7019881
:100B000006B0704780B586B00490049820B9FFE71E
:100B100001208DF817002EE304980078C007002804
:100B200000F0AE80FFE741F20400C4F2020000686A
:100B300000F00C00042813D0FFE741F20400C4F2D7
:100B40000200006800F00C0008281BD1FFE741F20A
:100B50000400C4F202000068C003002812D5FFE7B9
:100B600041F20000C4F2020000688003002808D5AA
:100B7000FFE70498406820B9FFE701208DF81700CF
:100B8000F9E27CE0FFE704984068B0F5803F09D1C6
:100B9000FFE741F20001C4F20201086840F480302E
:100BA000086032E00498406868B9FFE741F200014C
:100BB000C4F20201086820F480300860086820F45C
:100BC0008020086020E004984068B0F5A02F0DD187
:100BD000FFE741F20001C4F20201086840F48020FE
:100BE0000860086840F4803008600CE041F20001C1
:100BF000C4F20201086820F480300860086820F41C
:100C000080200860FFE7FFE7FFE7FFE70498406800
:100C1000D0B1FFE7FFF72EFD0390FFE741F20000A0
:100C2000C4F202000068800300280CD4FFE7FFF73D
:100C300021FD0399401A652804D3FFE703208DF8AE
:100C4000170098E2EAE719E0FFF714FD0390FFE7C9
:100C500041F20000C4F202000068800300280CD5B5
:100C6000FFE7FFF707FD0399401A652804D3FFE764
:100C700003208DF817007EE2EAE7FFE7FFE7FFE7D2
:100C8000049800788007002840F18D80FFE741F24A
:100C90000400C4F20200006810F00C0F13D0FFE74C
:100CA00041F20400C4F20200006800F00C000828C1
:100CB00029D1FFE741F20400C4F202000068C0033A
:100CC000002820D4FFE741F20000C4F202000068CF
:100CD0008007002809D5FFE704980069012804D09F
:100CE000FFE701208DF8170045E241F20001C4F250
:100CF0000201086820F0F800049A526940EAC20034
:100D00000860FFE74EE00498006958B3FFE7002150
:100D1000C4F2422101200860FFF7ACFC0390FFE71A
:100D200041F20000C4F202000068800700280CD4E1
:100D3000FFE7FFF79FFC0399401A032804D3FFE75E
:100D400003208DF8170016E2EAE741F20001C4F231
:100D50000201086820F0F800049A526940EAC200D3
:100D600008601EE00021C4F2422100200860FFF765
:100D700081FC0390FFE741F20000C4F2020000682A
:100D8000800700280CD5FFE7FFF774FC0399401A91
:100D9000032804D3FFE703208DF81700EBE1EAE70F
:100DA000FFE7FFE7FFE7049800780007002848D531
:100DB000FFE70498806918B3FFE740F28041C4F26E
:100DC000422101200860FFF755FC0390FFE741F244
:100DD0002400C4F202000068800700280CD4FFE75A
:100DE000FFF748FC0399401A032804D3FFE70320C8
:100DF0008DF81700BFE1EAE7012000F0D9FD1FE000
:100E000040F28041C4F2422100200860FFF732FC2A
:100E10000390FFE741F22400C4F20200006880075B
:100E200000280CD5FFE7FFF725FC0399401A03289B
:100E300004D3FFE703208DF817009CE1EAE7FFE702
:100E4000FFE7049800784007002840F1D880FFE7CA
:100E500000208DF8070041F21C00C4F20200006877
:100E6000C000002813D4FFE7FFE741F21C00C4F2E2
:100E70000200016841F080510160006800F080507C
:100E800000900098FFE701208DF80700FFE747F288
:100E90000000C4F200000068C005002822D4FFE76B
:100EA00047F20001C4F20001086840F48070086055
:100EB000FFF7E0FB0390FFE747F20000C4F20000F9
:100EC0000068C00500280CD4FFE7FFF7D3FB0399A7
:100ED000401A652804D3FFE703208DF817004AE184
:100EE000EAE7FFE7FFE70498C068012809D1FFE7B8
:100EF00041F22001C4F20201086840F001000860DC
:100F000031E00498C06868B9FFE741F22001C4F2FB
:100F10000201086820F001000860086820F0040061
:100F200008601FE00498C06805280DD1FFE741F272
:100F30002001C4F20201086840F00400086008685B
:100F400040F0010008600CE041F22001C4F202010F
:100F5000086820F001000860086820F004000860BC
:100F6000FFE7FFE7FFE7FFE70498C068E0B1FFE7AE
:100F7000FFF780FB0390FFE741F22000C4F202007C
:100F80000068800700280ED4FFE7FFF773FB039982
:100F9000401A41F28931884204D3FFE703208DF8DB
:100FA0001700E8E0E8E71BE0FFF764FB0390FFE7CA
:100FB00041F22000C4F202000068800700280ED52C
:100FC000FFE7FFF757FB0399401A41F28931884246
:100FD00004D3FFE703208DF81700CCE0E8E7FFE734
:100FE0009DF80700012809D1FFE741F21C01C4F276
:100FF0000201086820F080500860FFE7FFE70498CE
:10100000C069002800F0B380FFE741F20400C4F299
:101010000200006800F00C00082800F08280FFE762
:101020000498C06902285CD1FFE76021C4F2422124
:1010300000200860FFF71EFB0390FFE741F200006D
:10104000C4F202000068800100280CD5FFE7FFF71A
:1010500011FB0399401A032804D3FFE703208DF8FE
:10106000170088E0EAE70498006AB0F5803F0CD1E9
:10107000FFE741F20401C4F20201086820F40030E5
:10108000049A926810430860FFE741F20401C4F239
:101090000201086820F47410049B1A6A5B6A1A4300
:1010A000104308606021C4F2422101200860FFF76C
:1010B000E1FA0390FFE741F20000C4F20200006889
:1010C000800100280CD4FFE7FFF7D4FA0399401AF7
:1010D000032804D3FFE703208DF817004BE0EAE76D
:1010E0001EE06021C4F2422100200860FFF7C2FA2E
:1010F0000390FFE741F20000C4F2020000688001A3
:1011000000280CD5FFE7FFF7B5FA0399401A03282A
:1011100004D3FFE703208DF817002CE0EAE7FFE790
:1011200024E00498C069012804D1FFE701208DF86C
:10113000170020E041F20400C4F2020000680290AF
:10114000029800F480300499096A884208D1FFE7C8
:10115000029800F470100499496A884204D0FFE7AD
:1011600001208DF8170006E0FFE7FFE7FFE700200A
:101170008DF81700FFE79DF8170006B080BD00004E
:1011800080B582B00190019800F032FC02B080BDC1
:1011900081B0009001B0704781B0009001B07047FD
:1011A00085B003900291FFE7039890F83C00012876
:1011B00004D1FFE702208DF813005BE003990120C2
:1011C00081F83C00FFE7FFE70399022081F83D002A
:1011D0000398006840680190039800688068009058
:1011E000019820F07000019002980168019808436E
:1011F000019001980399096848600398006842F6D5
:101200000041C4F20101884218D0FFE7039800684A
:10121000B0F1804F12D0FFE70398006840F2004120
:10122000C4F20001884209D0FFE70398006840F645
:101230000001C4F2000188420ED1FFE7009820F0BF
:101240008000009002984168009808430090009840
:10125000039909688860FFE70399012081F83D0040
:10126000FFE70399002081F83C00FFE700208DF89C
:101270001300FFE79DF8130005B0704780B582B0FA
:101280000090009820B9FFE701208DF807003FE0AB
:10129000009890F83D0040B9FFE70099002081F8E0
:1012A0003C00009800F038F8FFE70099022081F830
:1012B0003D00009951F8040B00F008FC0099012052
:1012C00081F84600FFE70099012081F83E0000996F
:1012D00081F83F00009981F84000009981F84100B1
:1012E000FFE7FFE70099012081F84200009981F8AB
:1012F0004300009981F84400009981F84500FFE718
:101300000099012081F83D0000208DF80700FFE7DB
:101310009DF8070002B080BD80B584B003900398AB
:101320000068B0F1804F19D1FFE7FFE741F21C00E0
:10133000C4F20200016841F001010160006800F0A0
:10134000010002900298FFE71C2001900121002279
:10135000FFF72CFA0198FFF71FFAFFE704B080BDF2
:1013600083B00190019890F83D00012804D0FFE778
:1013700001208DF80B0047E00199022081F83D0023
:1013800001980168C86840F00100C86001980068D1
:1013900042F60041C4F20101884218D0FFE70198EB
:1013A0000068B0F1804F12D0FFE70198006840F26A
:1013B0000041C4F20001884209D0FFE701980068AB
:1013C00040F60001C4F20001884212D1FFE7019803
:1013D0000068806800F0070000900098062807D099
:1013E000FFE701980168086840F001000860FFE726
:1013F00006E001980168086840F001000860FFE716
:1014000000208DF80B00FFE79DF80B0003B070473C
:1014100080B586B00490039100208DF80B00FFE7A3
:10142000049890F83C00012804D1FFE702208DF8D1
:101430001700ABE00499012081F83C00FFE7FFE7CB
:101440000499022081F83D000498006880680190AA
:10145000019820F077000190019820F47F400190DE
:101460000198049909688860039800680090002832
:1014700072D0FFE7009810286ED0FFE70098202870
:101480006AD0FFE70098302866D0FFE70098402830
:1014900055D0FFE70098502837D0FFE70098602824
:1014A00040D0FFE7009870280BD0FFE70098B0F518
:1014B000805F05D0FFE70098B0F5005F16D052E0DE
:1014C00055E004980068039B5A689968DB6800F04F
:1014D00081FB0498006880680190019840F07700D3
:1014E0000190019804990968886040E004980068B8
:1014F000039B5A689968DB6800F06CFB04980168EC
:10150000886840F48040886031E004980068039A5D
:101510005168D26800F08EFB04980068502100F0FA
:1015200073FB24E004980068039A5168D26800F0C5
:10153000A9FB04980068602100F066FB17E004989E
:101540000068039A5168D26800F074FB0498006840
:10155000402100F059FB0AE00498006803990968EB
:1015600000F052FB03E001208DF80B00FFE7049927
:10157000012081F83D00FFE70499002081F83C003C
:10158000FFE79DF80B008DF81700FFE79DF81700A7
:1015900006B080BD81B0009001B0704780B584B0C6
:1015A000039003980068C06802900398006800697F
:1015B00001909DF804008007002824D5FFE79DF8DE
:1015C0000800800700281DD5FFE7039801686FF029
:1015D0000200086103990120087703980068806978
:1015E000800720B1FFE70398FFF7D4FF06E00398D8
:1015F00000F0E2F8039800F0E3F8FFE70399002019
:101600000877FFE7FFE79DF804004007002825D58D
:10161000FFE79DF80800400700281ED5FFE7039864
:1016200001686FF0040008610399022008770398AD
:101630000068806910F4407F04D0FFE70398FFF74B
:10164000A9FF06E0039800F0B7F8039800F0B8F897
:10165000FFE7039900200877FFE7FFE79DF8040004
:101660000007002824D5FFE79DF8080000070028A0
:101670001DD5FFE7039801686FF008000861039922
:101680000420087703980068C069800720B1FFE74D
:101690000398FFF77FFF06E0039800F08DF80398AA
:1016A00000F08EF8FFE7039900200877FFE7FFE7D7
:1016B0009DF80400C006002825D5FFE79DF8080026
:1016C000C00600281ED5FFE7039801686FF01000E0
:1016D000086103990820087703980068C06910F42E
:1016E000407F04D0FFE70398FFF754FF06E003981C
:1016F00000F062F8039800F063F8FFE70399002018
:101700000877FFE7FFE79DF80400C00778B1FFE71F
:101710009DF80800C00748B1FFE7039801686FF023
:1017200001000861039800F04FF8FFE7FFE79DF81C
:1017300004000006002810D5FFE79DF80800000609
:10174000002809D5FFE7039801686FF08000086161
:101750000398FFF71DFDFFE7FFE79DF80400400633
:10176000002810D5FFE79DF808004006002809D59D
:10177000FFE7039801686FF040000861039800F0EC
:1017800035F8FFE7FFE79DF804008006002810D534
:10179000FFE79DF808008006002809D5FFE70398B9
:1017A00001686FF0200008610398FFF7F5FCFFE780
:1017B000FFE704B080BD000081B0009001B0704729
:1017C00081B0009001B0704781B00090009800682F
:1017D000B0F1804F08D1FFE740F2B801C2F200013A
:1017E000086801300860FFE701B0704781B00090E1
:1017F00001B07047FFE7FEE780B58EB000200D9086
:101800000C900B900A90FFE741F21800C4F202001E
:10181000016841F020010160006800F0200009909B
:101820000998FFE7FFE741F21800C4F202000168DF
:1018300041F004010160006800F00400089008987D
:10184000FFE740F60000C4F2010003900621019179
:1018500000220692FEF7F6FE019A039806990A9274
:10186000012205920B920C91022102910D910AA97D
:101870000491FEF757FD029A0398049980230A9376
:101880000023C1F211030B930C92FEF74BFD059957
:10189000069A17200790FEF789FF0798FEF77CFF4E
:1018A0000EB080BD80B588B00021019107910691EE
:1018B000059104910391029140F27000C2F2000080
:1018C0004FF0804202604722426081606322C26022
:1018D00001618161FFF7D2FC18B1FFE7FEF7F8FC68
:1018E000FFE74FF48050049040F27000C2F2000015
:1018F00004A9FFF78DFD18B1FFE7FEF7E9FCFFE74C
:1019000000200290039040F27000C2F2000002A991
:10191000FFF746FC18B1FFE7FEF7DAFCFFE740F2FD
:101920007000C2F2000002686FF001011161FFF760
:1019300017FD08B080BD0000FFE7FEE7FFE7FEE708
:1019400088B0079006910592079800F00700049070
:101950000498C0F10700052803D3FFE70420019095
:1019600004E00498C0F107000190FFE7019803909C
:1019700004980430062803D8FFE70020009003E015
:10198000049803380090FFE70098029006980399A6
:10199000012202FA01F101390840029B98400599A1
:1019A0009A40013A1140084308B070477047000060
:1019B00082B00190019840F20001C2F20001096872
:1019C000C90844F6D352C1F26202A1FB022189097F
:1019D00048430090FFE700BFFFE70098411E0091D9
:1019E0000028F8D1FFE702B0704700007047000000
:1019F00080B582B0009000980138B0F1807F03D3A9
:101A0000FFE70120019019E0009801384EF214011F
:101A1000CEF2000108604FF0FF300F2100F07EF998
:101A20004EF21801CEF20001002008604EF21002C2
:101A3000CEF20002072111600190FFE7019802B089
:101A400080BD000080B5FEF71BFE80BD80B590B064
:101A500006A800902821FEF7CDFB009800230593EF
:101A60000493039302930193012206924FF4803171
:101A7000079108930A9202220D920E914FF4E01101
:101A80000F91FFF73FF818B1FFE7FEF721FCFFE7E2
:101A90000F20019002210291002003904FF48062F8
:101AA0000492059001A8FEF7A3FE18B1FFE7FEF728
:101AB0000FFCFFE710B080BD7047000080B540F21A
:101AC0007000C2F20000FFF769FD80BD83B0029094
:101AD0000191029800680090029842F60041C4F219
:101AE0000101884215D0FFE70298B0F1804F10D075
:101AF000FFE7029840F20041C4F20001884208D09A
:101B0000FFE7029840F60001C4F2000188420AD1C2
:101B1000FFE7009820F0700000900198416800985D
:101B200008430090FFE7029842F60041C4F2010129
:101B3000884215D0FFE70298B0F1804F10D0FFE740
:101B4000029840F20041C4F20001884208D0FFE749
:101B5000029840F60001C4F2000188420AD1FFE772
:101B6000009820F4407000900198C16800980843E4
:101B70000090FFE7009820F0800001994969084330
:101B80000090009802990860019880680299C862E4
:101B90000198006802998862029842F60041C4F2F6
:101BA0000101884205D1FFE70198006902990863A5
:101BB000FFE702990120486102980069C00730B12F
:101BC000FFE70299086920F001000861FFE703B010
:101BD0007047000085B0049003910292019304982D
:101BE00080680090009820F47F400090039802994C
:101BF000019A41EA022101430098084300900098AD
:101C00000499886005B0704783B0029001910298F2
:101C100080680090009820F0700000900198009972
:101C2000084340F00700009000980299886003B0D4
:101C30007047000085B00490039102920498006AF6
:101C400000900499086A20F00100086204988069F5
:101C50000190019820F0F00001900299019840EA6B
:101C600001100190009820F00A000090039900985C
:101C700008430090019804998861009804990862CB
:101C800005B0704785B00490039102920498006AF1
:101C900000900499086A20F0100008620498806996
:101CA0000190019820F4704001900299019840EA57
:101CB00001300190009820F0A00000900399009856
:101CC00040EA0110009001980499886100980499F5
:101CD000086205B070470000FFE7FEE781B08DF8AD
:101CE00003009DF9030000280ED4FFE79DF90310BF
:101CF00001F01F02012090404A094EF20011CEF27D
:101D0000000141F82200FFE701B070474EF60C5089
:101D1000CEF200000068C0F30220704782B08DF858
:101D2000070000919DF9070000280AD4FFE70098FA
:101D300000019DF907104EF20042CEF200028854D5
:101D40000BE0009800019DF8071001F00F014EF61E
:101D50001452CEF200028854FFE702B07047000030
:101D600083B00290029800F0070000904EF60C51EC
:101D7000CEF200010868019001984FF6FF02104072
:101D800001900198009A40EA02200022C0F2FA5223
:101D9000104301900198086003B0704780B582B08D
:101DA00000200190FEF77AFCFFF750FEFFF724FDBC
:101DB000FFF778FD00F00CF844F62060009000F08A
:101DC0001BF800F00FF8009800F016F8FFE7FEE7A8
:101DD00080B540F60000C4F2010006210122FEF7A2
:101DE00031FC80BD80B540F60000C4F20100062140
:101DF0000022FEF727FC80BD82B0ADF8060000206F
:101E0000ADF8040040F2B800C2F200000068009093
:101E1000FFE7BDF80400BDF8061088420ADAFFE7C4
:101E200040F2B800C2F2000000680099401AADF814
:101E30000400EEE740F2B801C2F2000100200860A1
:101E400002B070470000000000000000010203041F
:101E50000607080902030405060708090A0B0C0D0A
:101E60000E0F101001020000881E00080000002064
:101E70001000000050010008981E0008100000200B
:101E8000B00600007001000800127A000100000096
:081E900010000000000000003A
:04000005080000ED02
:00000001FF
