:020000040800F2
:100000001062002479030008C1570008A54F0008BA
:10001000BD570008E5120008C57200080000000086
:10002000000000000000000000000000515A00081D
:10003000E712000800000000D1570008755A0008B8
:100040009303000893030008930300089303000838
:100050009303000893030008930300089303000828
:100060009303000893030008930300089303000818
:100070009303000893030008930300089303000808
:1000800093030008930300089303000893030008F8
:1000900093030008930300089303000893030008E8
:1000A00093030008930300089303000893030008D8
:1000B0005F5B0008930300089303000893030008A4
:1000C00093030008930300089303000893030008B8
:1000D00093030008930300089303000893030008A8
:1000E0009303000893030008000000009303000836
:1000F0009303000893030008930300089303000888
:100100009303000893030008930300089303000877
:1001100067620008736200089303000893030008F5
:100120009303000893030008930300089303000857
:100130009303000893030008930300089303000847
:1001400000000000000000000000000000000000AF
:100150009303000893030008930300089303000827
:100160009303000893030008930300089303000817
:1001700093030008930300089303000800000000A5
:1001800093030008930300089303000893030008F7
:1001900093030008930300089303000893030008E7
:1001A00093030008930300089303000893030008D7
:1001B00093030008930300089303000893030008C7
:1001C00093030008930300089303000893030008B7
:1001D00093030008930300089303000893030008A7
:1001E0009303000893030008930300089303000897
:1001F0009303000893030008930300089303000887
:100200009303000893030008930300089303000876
:100210009303000893030008930300089303000866
:1002200093030008930300089303000800000000F4
:1002300093030008930300080000000093030008E4
:100240009303000893030008930300089303000836
:100250009303000893030008930300089303000826
:100260009303000893030008930300089303000816
:1002700093030008930300089303000800000000A4
:100280009303000893030008930300080000000094
:10029000000000009303000800F002F800F05CF892
:1002A00014A696E8000CB244B344DA4501D100F03C
:1002B00053F8BAE80F000FA696E83000A5EB040546
:1002C00004EB0607AAEB0704A7F101074FEA15158F
:1002D0004FEA3414A4F10104AC4201D300F03CF81D
:1002E00013F0010F18BFFB1A43F0010300F001F8EF
:1002F000DBE71847F8B6000018B70000103A24BF33
:1003000078C878C1FAD8520724BF30C830C144BF7A
:1003100004680C6070470000704700000023002450
:1003200000250026103A28BF78C1FBD8520728BF05
:1003300030C148BF0B6070471FB50BF005F900F0E6
:1003400047FC0400002000210BF0E0F8E06000F022
:1003500045F91FBD10B510BD00F0D8FC1146FFF7E0
:10036000EBFF07F0A2FE00F021FF03B4FFF7F2FF5E
:1003700003BC07F097FE0000094880470948004782
:10038000FEE7FEE7FEE7FEE7FEE7FEE7FEE7FEE745
:10039000FEE7FEE704480549054A064B70470000A2
:1003A000935A000899020008105C0024106200248F
:1003B000105E0024105E002453EA020C00F06980F5
:1003C0002DE9F04B4FF00006002B1FBFB3FA83F569
:1003D00003FA05F424FA05F65E4012BF1643B2FA9A
:1003E00082F502FA05F4C5F120051EBF22FA05FCCC
:1003F00044EA0C04203556EA044C4FEA144418BF72
:10040000641C4FF000084FF00009904271EB030CA0
:1004100039D3002919BFB1FA81F701FA07F6B0FA0A
:1004200080F700FA07F6C7F120071EBF20FA07FC85
:1004300046EA0C062037B6FBF4FCA7EB0507103F95
:1004400007F01F0BCBF120062CFA06F60CFA0BFB7B
:1004500044BFB3460026202FA4BF5E464FF0000BDA
:100460005BEA060C08BF4FF0010B19EB0B0948EBD8
:100470000608ABFB027C06FB02CC0BFB03CCC01BCB
:1004800071EB0C01C1E70B46024641464846BDE808
:10049000F08B13B5084318BF4FF0FF300146AFF3A0
:1004A0000080BDE81C407047032A40F2308010F005
:1004B000030C00F0158011F8013BBCF1020F6244FF
:1004C00098BF11F801CB00F8013B38BF11F8013B90
:1004D000A2F1040298BF00F801CB38BF00F8013B3D
:1004E00011F0030300F03E83083AC0F0088051F891
:1004F000043B083A51F804CBA0E80810F5E7121DB8
:100500005CBF51F8043B40F8043BAFF30080D207D6
:1005100024BF11F8013B11F801CB48BF11F8012BA2
:1005200024BF00F8013B00F801CB48BF00F8012BC5
:10053000704702F0FF0343EA032242EA024200F05E
:1005400024B84FF000020429C0F0128010F0030C10
:1005500000F01B80CCF1040CBCF1020F18BF00F8B6
:10056000012BA8BF20F8022BA1EB0C0100F00DB865
:100570005FEAC17C24BF00F8012B00F8012B48BFC3
:1005800000F8012B70474FF0000200B51346944667
:100590009646203922BFA0E80C50A0E80C50B1F1DB
:1005A0002001BFF4F7AF090728BFA0E80C5048BFEF
:1005B0000CC05DF804EB890028BF40F8042B08BF8D
:1005C000704748BF20F8022B11F0804F18BF00F889
:1005D000012B7047704770477047000008487CB592
:1005E0007844009007487844009C0546019004E058
:1005F0002046016808448047241DAC42F8D17CBDE8
:1006000054B400005EB4000070B50446051F00F04D
:10061000DBFA0068002C14BF446870BD002C18BFC2
:10062000AC423CBF20466468F8D301680A18AA426D
:1006300018BF456003D12A68054611440160286847
:100640004119A1421CBF6C6070BD6168696021687E
:100650000844286070BD10B500F0BEFA006810BDF7
:1006600010B5044600F0B8FA046010BD2DE9FF4F44
:1006700006468BB00878FF2806D0491C2D2805D0E7
:1006800000244FF0000908E000200CE00124F8E706
:1006900009EB8903491C00EB43090878FF28F7D1CF
:1006A00014B1C9F100008146107800252C46AA46F5
:1006B00029462D2801D02B2804D1521C2D2813D0D7
:1006C000002082468B461078FF280FD04FF0000C98
:1006D0000A21521CA5FB017804FB018105FB0C11CA
:1006E000C5194BEB0104EEE70120EAE700210846BB
:1006F0004FF00000BAF1000F02D000EB800040087C
:10070000C0F38157012F01DD4FF0FF370E9955EAF5
:10071000040009EB01080BD04FF0020918F5FA7F2D
:1007200016DA4FEACA70002F706008DD012007E07A
:100730004FEACA70C6E900B00FB0BDE8F08F0020E4
:10074000306000F049FAC0F800901821084616E021
:10075000B8F5FA7F18DD002F02DAF748784401E097
:10076000F6487844D0E90010C6E9001040EACA70A3
:10077000706000F031FAC0F80090142108460FB004
:10078000BDE8F04F0AF0EDBE002108464FF0000032
:10079000B8F10001099002DAC7F1000200E03A4620
:1007A00001DAC8F1000106A800F02EFA06AB93E8C2
:1007B000070003AB83E8070044F23E005BEA040154
:1007C0000090584604D144F21E012C465D4600912B
:1007D000210C0904014306D10099240444EA15447C
:1007E0002D041039009104F07F41014306D1009996
:1007F000240244EA15642D020839009104F0704186
:10080000014306D10099240144EA15742D01091F02
:10081000009104F04041014306D10099A40044EA4C
:100820009574AD00891E009104F00041084304D185
:1008300000986D196441401E00904FF001033A4644
:100840006846B8F1000FCDE9014503A902DD09F0C2
:1008500018FD01E009F0EBFCBAF1000F04460D466B
:1008600001D084F00044002108464FF000000999AF
:1008700040F2FF77484010F00C0F07D124F0004001
:10088000284303D0C4F30A50B84212D100F0A4F9AF
:10089000C0F80090C4F30A50B8420AD1A84878447E
:1008A000D0E90010C6E9001004F000410843706070
:1008B00042E7C6E900543FE72DE9FF4F1F464FF0DE
:1008C000000A4FF0FF38454691B0D7E90146CDF810
:1008D0003CA000F07DF9C0680168405C1090B969E7
:1008E00012986D1C8847396A814688470028F6D1DE
:1008F000B9F1FF3F0AD0002E24F4D06411DDB9F124
:100900002B0F08D0B9F12D0F0BD102E0404615B0E6
:1009100013E744F48064B96912986D1C8847761E09
:100920008146600504A901D52D2000E02B20002E72
:1009300001F1010B0DF130088DF810003FDDB9F128
:10094000690F08D0B9F1490F05D0B9F16E0F02D087
:10095000B9F14E0F1CD13B4601A8009580E850022A
:10096000DDE912126FF002000AF062FEC11CCED166
:100970000EE0B96912986D1C884781461398761E5F
:1009800044F4007405600F98401C002E0F9016DD93
:10099000B9F1300FEDD0B9F1780F02D0B9F1580F9D
:1009A0000DD10F9801280AD13B46CDE90054DDE96D
:1009B0001212001F02960AF039FEC11CA7D110992D
:1009C00089453ED144F0800406E01399681CAAF1E1
:1009D000010A44F400740860B9696D1C1298761E0F
:1009E000884730288146F0D02BE01099894505D101
:1009F000200603D4761E44F0800418E048460AF02E
:100A00002CFD08B3761E0DF123029345A9F13000A9
:100A100044F4007406D20BF8010B200607D5AAF1A6
:100A2000010003E0200602D40AF101008246A0057D
:100A300002D51399681C0860B96912986D1C884723
:100A40008146002ED1DC53E0002E51DDB9F1650F57
:100A500002D0B9F1450F4BD1A00549D5B9696D1C3C
:100A60001298761E24F440748847002E81460CDDCF
:100A70002B2804D0B9F12D0F07D144F48074B96943
:100A800012986D1C8847761E8146E00501D52D2100
:100A900000E02B2108F8011BCDF8008021E0761E34
:100AA0000DF13901884544F400740CD2A9F13000ED
:100AB00010F0FF0088F8000002D10099884509D99C
:100AC00008F1010806E0E00501D51E4801E042F208
:100AD0000F708246B96912986D1C88478146139839
:100AE0000560002E04DD48460AF0B7FC0028D6D188
:100AF000F96912988847FF2053468BF8000088F860
:100B0000000000200A900B9004AA0CA90AA8FFF785
:100B1000ADFDA00502D46FF00100F8E614F0240F3B
:100B200012D0E0071CD13868DDE90A12031D3B60D2
:100B30000068C0E9001213E0B4B20000A6B20000E1
:100B40006AB10000F1D8FFFF0AA968460AF07EFBEF
:100B5000E00705D13868009A011D3960006802601D
:100B60002846D4E610B5203AC0F00B80B1E8185002
:100B7000A0E81850B1E81850A0E81850203ABFF487
:100B8000F5AF5FEA027C24BFB1E81850A0E8185026
:100B900044BF18C918C0BDE810405FEA827C24BF7A
:100BA00051F8043B40F8043B08BF7047D20728BF08
:100BB00031F8023B48BF11F8012B28BF20F8023B57
:100BC00048BF00F8012B704700487047E800002438
:100BD000004870470001002400487047E0000024EE
:100BE000B2F120030AD5C2F1200301FA02F120FA82
:100BF00003F341EA030100FA02F0704700FA03F13F
:100C00004FF00000704700002DE9F047814616467E
:100C10008AB0354878440DC88DE80D0032487844D4
:100C2000801C03AC0DC884E80D0041F69B300844DD
:100C3000372190FBF1F290FBF1F5A5F1800501FB66
:100C400012041B3C02D56442012000E00020DFF8C2
:100C500098A080460027FA44AAF1BE0A0EE0E007F9
:100C60000AD03246684607EB470101230AEB8101AF
:100C700009F0F2FA8DE8070064107F1C002CEED119
:100C8000194F7F44AE3F19E0E80715D007EB041079
:100C90000DF1180A90E80E008AE80E00C068F042D4
:100CA00001D1981908903246012306A903A809F03A
:100CB000D3FA03AB83E807006D10641C002DE3D169
:100CC0004FF0010332466946B8F1000F03A802D085
:100CD00009F098FA01E009F0BFFAC9E90001C9F882
:100CE00008200AB0BDE8F08714AC000010B5002061
:100CF00000F065FAFFF72EFBBDE81040012007F079
:100D0000D1B9000000487047E00000247546FFF7A5
:100D1000F9FFAE4605006946534620F007008546B8
:100D200018B020B5FFF736FBBDE820404FF00006B5
:100D30004FF000074FF000084FF0000BAC46ACE856
:100D4000C009ACE8C009ACE8C009ACE8C00921F0B2
:100D500007018D46704700002DE9FF4F1F464FF0F9
:100D60003C0987B04FF00042DDE9141001F10108A1
:100D7000DDF858A002EA4050039000200590834619
:100D8000054604460490B969461E08988847AAF1AA
:100D9000010A0290BAF1000F3BDD02982E2815D00F
:100DA000102100F054FA00282EDB4FF0010B0599BA
:100DB000014317D0B9F1000F0BDB4A46C117FFF70B
:100DC0000FFF05430C43A9F1040905E0012004903D
:100DD0000BE008B145F0010501200590049820B909
:100DE000361D02E0049800B1361FB969089808F171
:100DF00001088847BBF1000FAAF1010A0290C9D08F
:100E00000999C1F80080C5E70298702808D05028D9
:100E100006D0F96908988847BBF1000F14D04FE05D
:100E2000002002900120BBF1000F049009D0B969A5
:100E3000089808F101088847AAF10109B9F1000FE3
:100E400007DCF969089888476FF001000BB0BDE82E
:100E5000F08F2B2804D02D280CD14FF0FF300490B8
:100E6000B969089808F101088847A9F10109B9F1A1
:100E7000000FE6DD411CE4D00A2100F0E8F900286B
:100E8000DFDB029908F1010801EB810100EB410071
:100E90000290B969089888470A2100F0D8F9099AA0
:100EA000A9F10109B9F1000FC2F8008001DD0028A5
:100EB000E7DAF969089888470499029800FB016607
:100EC00055EA040004D004F04041090002D006E0D5
:100ED000039898E0A40044EA9574AD00B61E04F0AF
:100EE0000041080002D16D196441761E159810F07A
:100EF000240F03D04FF00B095C4803E04FF02809A2
:100F00006FF07D008246564507DAAAEB0601894458
:100F1000B9F1410F01DD4FF0410901200021A9F194
:100F20000102FFF75DFE024628400B4621400843C0
:100F300001D0012100E00021501E029143F1FF3158
:100F400028402140084301D0012000E00020029900
:100F5000834651EA0B014FD0002108464FF00000B4
:100F6000039900F4400039B100EB80004FF44001D8
:100F700000EBD07001EA60008015012802DD4FF01F
:100F8000FF3000E013D0401C36D0029860B3BBF1B4
:100F9000000F0CD14A4601200021FFF721FE284016
:100FA0002140084301D0012000E00020E0B10120F1
:100FB0004A460021FFF714FE034640190A466141E4
:100FC0002D1A8C4111D3B9F1400F09DD159810F09D
:100FD000240F02D0AAF1340603E0AAF1170600E0BC
:100FE000761C00254FF0004406E05B1E42F1FF3204
:100FF00020EA030521EA0204CAF10100B04206DA40
:101000001B49039808430190002000900EE0039ACA
:10101000C4F3D321E80A0A43164940EA44500A437C
:101020003146CDE9000268460AF0C4F9159810F07F
:10103000240F0BD01598C00715D13868DDE90012D0
:10104000031D3B600068C0E900120CE002A869467D
:101050000AF0FCF81598C00705D13868029A011DFE
:101060003960006802604046F0E6000002FCFFFFC5
:101070000000F07F0000F03F2DE9FF4F92461D4633
:1010800085B04FF00041DDE9124BDDE914727F1E9F
:1010900001EA4B50414940F0FF4940EA0108002174
:1010A00022F020004928049102D04E2828D04CE09C
:1010B0003BA0012607C88DE80700A9690698641CB3
:1010C00088477F1E014606D41DF8060018B121F09E
:1010D000200181420BD0E96906988847032E34D05D
:1010E000082E32D06FF0010009B0BDE8F08F761CF9
:1010F000032E01D0082EE0D1601CCAF80000DCE706
:10110000A9690698641C88477F1E2AD420F0200015
:10111000412826D1A9690698641C88477F1E20D4DF
:1011200020F020004E281CD1A9690698641C88472D
:101130007F1E48F4002849F48009CAF8004001D411
:10114000282806D0E969069888475FEACB7012D054
:1011500022E0A9690698641C88477F1E01D40028F4
:1011600003DAE96906988847BCE72928F1D1641CAD
:10117000CAF80040E9E71BF0240F07D0286804995B
:10118000031D2B600068C0E9001805E02868021DF7
:101190002A600068C0F800902046A5E70000F07FB4
:1011A000494E46494E4954590000000010B50446C6
:1011B000AFF300802046BDE81040FFF7D6B810B569
:1011C00000F058F8BDE8104000F04FB800000000F3
:1011D00030B44FF0013C50F8042BCCFA52F451F8E3
:1011E000043BD51A20D1FCB950F8042BCCFA52F4A8
:1011F00051F8043BD51A17D1B4B950F8042BCCFAE6
:1012000052F451F8043BD51A0ED16CB950F8042BA6
:10121000CCFA52F451F8043BD51A05D1002CDAD09F
:1012200030BC4FF00000704729BAB1FA81F111F0DB
:101230001801D1F120008440F2D1CA40CB4012F015
:10124000FF0213F0FF0330BCD01A704770473A28F2
:1012500000D2303820F02002412A01D3A2F1370019
:10126000884201D34FF0FF307047002801D006F0CC
:1012700019BF704710B5002102A000F013F801203B
:1012800010BD0000534947414252543A2041626E1A
:101290006F726D616C207465726D696E6174696FD7
:1012A0006E00000070B505460C460A2000E06D1C7B
:1012B00000F011F835B128780028F8D102E0641C5C
:1012C00000F009F814B120780028F8D1BDE870408A
:1012D0000A20AFF3008008B569468DF800000320AE
:1012E000ABBE08BDFEE77047EFF3108072B600009A
:1012F0002DE9F041044600F0EBFE14B3054694F8E6
:101300003500022820D140F20F472668C4F20207B8
:1013100040F26F48BE426FF00E00C4F2020816DCC5
:101320006F21C4F202018E4222DC3F21C4F202018D
:101330008E4238DC1021C4F202018E4257D028219F
:1013400050E00120BDE8F081802060650DE1464558
:101350001ADC40F23F41C4F202018E422ADC40F224
:101360001041C4F202018E4241D040F2284139E0DE
:101370009F21C4F202018E4225DC7021C4F20201D9
:101380008E4234D088212DE040F29F41C4F2020108
:101390008E421FDC40F27041C4F202018E4226D020
:1013A00040F288411EE04021C4F202018E421ED06C
:1013B000582117E040F24041C4F202018E4216D09B
:1013C00040F258410EE0A021C4F202018E420ED03C
:1013D000B82107E040F2B841C4F202018E4206D0C3
:1013E00040F2A041C4F202018E42314607D131469B
:1013F000306820F01E0041F8140B6FF080000A687E
:10140000464500EA0200086017DC9F20C4F2020093
:1014100086422DDC5720C4F20200864250DC1020A8
:10142000C4F20200864200F089802820C4F2020043
:10143000864200F0838040206BE045F22F40C5F6E5
:101440000200864227DC40F2B740C4F20200864226
:1014500042DC40F27040C4F2020086426ED040F29C
:101460008840C4F20200864268D040F2A04050E0BA
:1014700040F22740C4F2020086423CDCA020C4F2C5
:10148000020086425AD0B820C4F20200864255D0EB
:1014900040F210403DE045F26B40C5F60200864246
:1014A0003ADC45F23040C5F60200864246D045F2AD
:1014B0004440C5F60200864240D045F2584039E02B
:1014C0005820C4F20200864238D07020C4F20200D4
:1014D000864233D088201CE040F2B840C4F20200BB
:1014E00086422BD045F20840C5F60200864225D040
:1014F00045F21C401EE040F22840C4F20200864241
:101500001CD040F24040C4F20200864216D040F2A5
:101510005840C4F202000FE045F26C40C5F60200EC
:1015200086420BD045F29440C5F60200864205D0B3
:1015300045F28040C5F60200864204D1206E016863
:1015400021F480710160306820F00100306000BF3C
:101550003068C0070BD000F0BBFD401B0628F7D356
:1015600020206065032084F83500012018E1206800
:101570000821B8424FF03F0210DC6F23C4F202038F
:1015800098421CDC3F23C4F20203984232DC102351
:10159000C4F20203984251D028234AE040451ADCA5
:1015A00040F23F43C4F2020398422ADC40F2104367
:1015B000C4F20203984241D040F2284339E09F230D
:1015C000C4F20203984225DC7023C4F2020398425D
:1015D00034D088232DE040F29F43C4F202039842A6
:1015E0001FDC40F27043C4F20203984226D040F25E
:1015F00088431EE04023C4F2020398421ED05823C1
:1016000017E040F24043C4F20203984216D040F281
:1016100058430EE0A023C4F2020398420ED0B82330
:1016200007E040F2A043C4F20203984206D040F221
:10163000B843C4F20203984240F0B780D4E91637A9
:1016400007F01F07404502FA07F25A5017DC9F21A6
:10165000C4F2020188422DDC5721C4F20201884203
:1016600050DC1021C4F20201884200F08980282158
:10167000C4F20201884200F0838040216BE045F211
:101680002F41C5F60201884227DC40F2B741C4F27F
:101690000201884242DC40F27041C4F202018842F9
:1016A0006ED040F28841C4F20201884268D040F214
:1016B000A04150E040F22741C4F2020188423CDCE4
:1016C000A021C4F2020188425AD0B821C4F202011A
:1016D000884255D040F210413DE045F26B41C5F6DD
:1016E000020188423ADC45F23041C5F602018842E7
:1016F00046D045F24441C5F60201884240D045F249
:10170000584139E05821C4F20201884238D0702192
:10171000C4F20201884233D088211CE040F2B84173
:10172000C4F2020188422BD045F20841C5F60201FD
:10173000884225D045F21C411EE040F22841C4F207
:10174000020188421CD040F24041C4F202018842AA
:1017500016D040F25841C4F202010FE045F26C414C
:10176000C5F6020188420BD045F29441C5F602014C
:10177000884205D045F28041C5F6020188420BD16E
:10178000616EA26EE06E4A6030B1016821F4807132
:101790000160D4E91C014160012084F8350000207B
:1017A000002184F83410BDE8F0810421012245E7CE
:1017B000F0B190F83510022918D180B540F20F42EF
:1017C0000168C4F20202914214DC6F23C4F20203E6
:1017D000994224DC3F23C4F2020399423ADC1023ED
:1017E000C4F20203994258D0282352E08021416577
:1017F0000121C2E040F26F43C4F2020399421ADCB5
:1018000040F23F43C4F2020399422ADC40F2104303
:10181000C4F20203994240D040F2284339E09F23AA
:10182000C4F20203994225DC7023C4F202039942F8
:1018300033D088232DE040F29F43C4F20203994243
:101840001FDC40F27043C4F20203994225D040F2FB
:1018500088431EE04023C4F2020399421DD058235E
:1018600017E040F24043C4F20203994215D040F21F
:1018700058430EE0A023C4F2020399420DD0B823CE
:1018800007E040F2B843C4F20203994205D040F2A7
:10189000A043C4F20203994271D191424FF0040275
:1018A00080F8352010DC6F20C4F20200814220DC79
:1018B0003F20C4F20200814236DC1020C4F2020054
:1018C000814253D028204EE040F26F40C4F2020023
:1018D00081421ADC40F23F40C4F2020081422ADC1D
:1018E00040F21040C4F2020081423FD040F2284052
:1018F00039E09F20C4F20200814225DC7020C4F24E
:101900000200814232D088202DE040F29F40C4F294
:10191000020081421FDC40F27040C4F202008142AA
:1019200024D040F288401EE04020C4F202008142F0
:101930001CD0582017E040F24040C4F2020081421F
:1019400014D040F258400EE0A020C4F202008142C0
:101950000CD0B82007E040F2B840C4F20200814247
:1019600004D040F2A040C4F202008142086820F096
:10197000010008600021BDE88040084670470A6801
:1019800022F00E020A6045F25742C5F60202914269
:101990000A6822F001020A600EDC45F22F42C5F609
:1019A0000202914217DC45F20842C5F6020291425A
:1019B00026D045F21C421FE045F27F42C5F60202E6
:1019C000914211DC45F25842C5F60202914217D00D
:1019D00045F26C4210E045F23042C5F602029142F7
:1019E0000ED045F2444207E045F29442C5F60202A9
:1019F000914205D045F28042C5F6020291421AD1C9
:101A0000D0E9181CD0E916E30A6822F480720A6053
:101A100003F01F01012202FA01F1CEF80410816ED9
:101A2000CCF80410C16E31B10A6822F480720A60E9
:101A3000D0E91C124A60012180F83510026D0021A6
:101A4000002A80F8341096D0904793E7B0B504464A
:101A500000F03EFB40F2D4010546C2F20041621C98
:101A6000097818BF0C4400BF00F032FB401BA042B5
:101A7000FAD3B0BD40B32DE9F04F83B04AF200086D
:101A80000446C4F200080068404502D108F58071A0
:101A9000616094F8981031B9002084F899002046CC
:101AA00000F0C7F92068816921F01001816100F020
:101AB0000FFB054620688169090707D500F008FB80
:101AC000401B0B28F6D312E001207047816941F0DA
:101AD0000101816100F0FCFA054600BF20688169C0
:101AE000C90711D100F0F4FA401B0B28F6D30120EE
:101AF000D4F89C100843C4F89C00032084F8980094
:101B0000012003B0BDE8F08F816941F002018161DD
:101B1000217C826922F04002012918BF4032826193
:101B2000617C826922F48042012908BF02F580426B
:101B30008261A17C826922F48052012918BF02F5DA
:101B400080528261816921F44073D4E902120B430F
:101B50008361836923F0A4038361036923F0100385
:101B600003619AB1012A0DD0022A09D08369032AA0
:101B700043F080038361036943F01002026105D1E1
:101B8000202200E0042283691A438261D4E90572AD
:101B9000E369561E6FF0FF02256A02EB0323B1F5DD
:101BA000407F43EA4663A5F1010646EA030640F298
:101BB0000003CFF6FF7303EB074746EA0701C16155
:101BC00010D1D4E90B65D4E90917013F02EB0622D5
:101BD0006FF00F063A4306EB05173A4303EB01415A
:101BE0001143C160236E2BB1616ED0F8C020114348
:101BF000C0F8C010E16DCDE90113D9424BF64401A4
:101C0000C0F6000109D0D0F8C820A36E22F0070268
:101C100051F823301A43C0F8C820D4F840C0BCF1B2
:101C2000000F09D0D0F8BC20636C22F0070251F8F5
:101C300023301A43C0F8BC20D4F848B0BBF1000FE1
:101C40000AD0D0F8BC20E36C22F0700251F82330A7
:101C500042EA0312C0F8BC20D4F850A0BAF1000F39
:101C60000AD0D0F8BC20636D22F4E06251F8231052
:101C700042EA0121C0F8BC10404504D161688A687D
:101C800022F003028A600021C4F89410C4F89C106A
:101C9000012184F8981004F13409D0F884104FF62B
:101CA000FC729143656C99E80C02009541EA82014F
:101CB000C0F88410D0F8841021F47F0141EA034178
:101CC000C0F884109918D0F888306FF38F0343EA76
:101CD0008103C0F88830D0F8883023F4FE0343EA4B
:101CE0000943C0F8883001EB4903D0F8A0606FF3D6
:101CF0008F0646EA8306C0F8A060D0F8A06026F4FC
:101D0000FE0646EA0C46C0F8A06005FB0C36D0F88B
:101D1000B0306FF38F0343EA8603C0F8B030D0F8D9
:101D2000B03023F4FE0343EA0B43C0F8B030E36C59
:101D3000D0F8AC506FF38F0503FB0B6645EA8605C0
:101D4000C0F8AC50D4F8548008FB0A65D0F8F060B5
:101D50006FF38F0646EA8506C0F8F060D0F8F0E031
:101D6000A66D2EF47C1747EA0647C0F8F070F7001E
:101D700007EB8507D0F8C0506FF38F052F43C0F8ED
:101D8000C070D0F8C070009DDDF804E027F47C1727
:101D900005FB0CFC4AF2000547EA0E47C0F8C0708C
:101DA000C4F2000503FB0BC305F54067D0F8C05033
:101DB00007EB820207EB810125F07C57029D47EA81
:101DC0000567C0F8C07001EBC90008FB0A3721673E
:101DD000A16E00EB8C0C606700EB8303E266C4E944
:101DE0001EC30EFB01F300EB87006943C4F88000BB
:101DF00000EBC600C4F8840000EB8300C4F8880040
:101E000000EB81004DF2FC31C4F20001C4F89000F7
:101E1000884201D920206BE6824208D2002000BF10
:101E200042F8040BD4F890108A42F9D369E60020F6
:101E300067E610B586B0044601A81421FEF7A3FB9F
:101E40004AF200412068C4F2000188422ED04AF2D2
:101E50000001C4F20001884259D140F2781144F2E5
:101E6000E040C2F20041C5F602000A68002A02F111
:101E700001020A6008D1C16841F48071C160C16883
:101E800001F4807100910099016841F080010160C6
:101E900000684FF4C04100F080000090009840F2CC
:101EA0000040C5F6020000F5C05025E040F2781170
:101EB00044F2E040C2F20041C5F602000A68002A7E
:101EC00002F101020A6008D1C16841F48071C16069
:101ED000C16801F4807100910099016841F002012C
:101EE000016000684FF4405100F00200009000983B
:101EF00040F20040C5F6020001910221029100214A
:101F0000CDE903110921059101A900F003F806B0FC
:101F100010BD00002DE9F04F83B00F68002F00F0D6
:101F2000C88000F1264642F2004506F1FF76C5F66C
:101F300002050A22A8424FEAB62540F2040C08BF67
:101F4000092200F120030093092DC5F6000C38BFCB
:101F50004FEAB622002400264FF00008019200BF8D
:101F6000012202FA08FE17EA0E0900F09780D1F864
:101F700004B003220BF00307B2407D1E6FEA020A91
:101F8000012D11D88268CD6802EA0A02B5402A43C1
:101F90008260CBF30015426822EA0E0205FA08F5CA
:101FA0002A43426004E000BF032F01D103271FE052
:101FB000C2688D6802EA0A02B540022F42EA0502B1
:101FC000C26015D16FF0030204F01C0502EA580B41
:101FD000009A0F2352F80BE0AB400F692EEA03037F
:101FE000AF403B4342F80B30D1F804B00BF003078D
:101FF000026807FA06F302EA0A021BF4403F42EACB
:10200000030202604AD044F2F44340F2084EC5F69F
:102010000203C5F6000E0F251A6842F002021A608C
:102020001A6802F00202029228F00302029B04F0F6
:102030000C0352F80E709D40AF43019D05FA03F367
:102040003B4342F80E304FF0B04EDEF800204B68B4
:1020500042EA0907DD0258BF22EA09079D02CEF8CD
:102060000070DCF8002042EA090758BF22EA09079D
:102070009D03CCF80070DCF8802042EA090758BFC5
:1020800022EA0907DB03CCF88070DCF87C2042EA06
:10209000090758BF22EA0907CCF87C7008F101084B
:1020A0000F6837FA08F206F1020604F104047FF41F
:1020B00057AF03B0BDE8F08F002A08BF0904816163
:1020C000704741F20000C5F600400068000C704700
:1020D00045F21840C2F200400068704790F8412075
:1020E000202A03D190F84020012A01D1022118E0D2
:1020F000242280F841200268136823F00103136052
:10210000136823F480531360136819431160116836
:1021100041F001011160202180F84110002180F878
:1021200040100846704790F84120202A03D190F8CB
:102130004020012A01D1022117E0242280F8412009
:102140000268136823F001031360136823F47063BB
:1021500043EA01211160116841F001011160202161
:1021600080F84110002180F840100846704708B3FD
:1021700010B5044690F8410028B9002084F84000CA
:10218000204600F049F8242084F8410094E8091022
:10219000E2680168012A21F00101016023F0706109
:1021A0000161816821F40041816005D14CF4004156
:1021B00081600AE001207047022A4CF404418160EA
:1021C00003D1416841F4006102E0416821F40061FB
:1021D000416004F1100C416841F0007141F400418C
:1021E0004160C16821F40041C1609CE80E101143B8
:1021F00041EA0321C160216A41EA0C0101600168E2
:1022000041F00101016000206064202184F8411048
:10221000206384F8420010BDB0B5B8B0044633A8BE
:102220001421FEF7B0F902A8C021FEF7ACF945F67B
:1022300000412068C4F2000188426AD045F60001DE
:10224000C4F20001884235D045F20041C4F20001D9
:10225000884240F090800820029002A80024039455
:1022600000F0BEFB08B1FFF73FF844F2E04533A9A8
:10227000C5F60205286840F002002860286800F0D2
:102280000200019001984FF4407033901220CDE984
:1022900034040420379040F200403694C5F6020022
:1022A000FFF738FEA86840F40010A860A86800F4A2
:1022B00000105EE00820029002A80024039400F0C1
:1022C0008FFB08B1FFF710F844F2E04533A9C5F6DB
:1022D0000205286840F002002860286800F002002B
:1022E000019001984FF4406033901220CDE93404FE
:1022F0000420379040F200403694C5F60200FFF704
:1023000009FEA86840F48000A860A86800F4800076
:102310002FE00820029002A80024039400F060FB44
:1023200008B1FEF7E1FF44F2E04540F20041C5F696
:102330000205C5F60201286840F080002860286880
:1023400000F08000019001984FF4C070339012208B
:10235000CDE934040420379001F5C05033A93694F8
:10236000FFF7D8FDA86840F40000A860A86800F452
:1023700000000190019838B0B0BD40F2D40045F2A1
:102380001841C2F20040C2F2004100780A681044CD
:102390000860704780B5032000F0D0F801F07AF9AA
:1023A00044F218414BF69C03C5F60201C0F6000347
:1023B0000A68C2F303229A5C096801F00F0102F077
:1023C0001F02595CD04040F20402C2F2004201F008
:1023D0001F0120FA01F1116040F20001C2F2004138
:1023E00008600F2000F007F808B1012080BD00F060
:1023F00053F8002080BD0F2844D8B0B58AB00446F9
:102400001C2000222146002500F06BF81C2000F063
:1024100058F840F2D800C2F20040046044F2E840AC
:10242000C5F60200016841F001010160006801A9E0
:1024300000F001000290029802A801F0B2F8079C97
:10244000002C18BF012401F0FEF84DF68361A04076
:10245000C4F21B314FF0FF32A0FB010140F6E060F7
:10246000C2F200404FF08043036002EB9141C0E9AB
:10247000011540F2E731C0E9031501F007FE18B17C
:10248000012007E00120704740F6E060C2F2004002
:1024900001F062FE0AB0B0BD81B044F2F440002207
:1024A000C5F60200016841F00201016000680F21D9
:1024B00000F0020000906FF00100009B01B000F0FE
:1024C00010B800280CD400F01F01012202FA01F11B
:1024D0004EF20012C0F34A10CEF2000242F8201071
:1024E000704770B54EF60C5C4FF0FF36CEF2000C24
:1024F00000F1604505F56445DCF80030C3F3022EB9
:102500008EF00703042B28BF0423BEF1030406FA50
:1025100003F321EA030100F00F0338BF0024043B5A
:102520000028634406FA04F048BF03F10C05A140FB
:1025300022EA000008430001287070BD4EF60C51DD
:102540004FF6FF03CEF200010A681A4060F30A2238
:1025500042F0806040F0FD70086070470168012221
:10256000C0F8D824002280F8CC24886940F00060AC
:102570008861486D40F08052002042F003024A65B5
:1025800070470000002863D0B0B582B0044690F8D0
:10259000950428B9002084F89404204600F06AF8D5
:1025A000032084F89504206804F00BFED4E90001B0
:1025B00094F810C0D4E90223CDF800C004F0BEFCAA
:1025C00000283FD12068002104F04AFED0BB94F8D7
:1025D00004C0BCF1000F2CD00CEBCC000022810019
:1025E0004FF0010E002000232518243081422B7566
:1025F000EB8503F1010385F815E02A76EA612A628A
:102600006A62F1D1BCF1000F13D004F519710022F8
:10261000002000BF01F8100C0130844501F80F2C98
:1026200001F80C2C41F8082C41F8042C41F8242B1B
:10263000F0D1D4E90001257CD4E90223009504F00F
:10264000FFFC38B1022084F89504012002B0B0BD2F
:102650000120704700206074012084F89504207BDD
:10266000012802D12046FFF779FF206804F0D9FC49
:102670000020EBE770B5B8B0044633A81421FDF78D
:1026800082FF02A8B8210830FDF77DFF00212068F5
:10269000C4F2080188423DD14FF4802002900F20FF
:1026A0000C90B4200D9002250520CDE90F054FF4C4
:1026B0000010249002A8002403940E95139400F0B7
:1026C0008FF908B1FEF710FE00F04AF844F2D84640
:1026D00033A9C5F60206B06840F00100B060B068EA
:1026E00000F00100019001984FF4C050CDE933058E
:1026F0000A2037900020C5F60200CDE93544FFF7E7
:1027000009FC306840F000603060306800F0006024
:102710000190019838B070BDB0B544F60C05C5F60F
:10272000020529684907296805D401F00701081A3C
:1027300018BF0120B0BD21F0070108432860FFF752
:10274000C7FC044655F8080C800407D4FFF7C0FC0A
:10275000001BB0F57A7FF5D90120B0BD0020B0BDD7
:1027600044F60C00C5F60200016841F0807101607A
:10277000704780B500F041FF44F220414BF69C02C7
:10278000C5F60201C0F600020968C1F30211515CEE
:1027900001F01F01C84080BD80B544F2004EC5F66F
:1027A000020EDEF82830DEF82810DEF82C20C1F307
:1027B000053CDEF83C10BCF1000F15D0C908D2066C
:1027C00001EAE2716FF35F3100EE101A03F00301CA
:1027D0000229B8EE400A0BD069B9DEF8001089066C
:1027E0000CD49FED341A17E00021C0E900115BE022
:1027F0009FED2F1A10E09FED2D1A0DE0DEF800106E
:1028000049F20002C0F2D032C1F3C10122FA01F153
:1028100001EE101AB8EE411ADEF838109FED263A94
:102820006FF35F2102EE101ADEF83810C1F3462173
:10283000B8EE422A00EE032A00EE10CAB7EE003AC4
:10284000B8EE400A81EE000A32EE031A02EE101AC8
:10285000B8EE422A20EE010A32EE031A80EE011A87
:10286000BCEEC11A80ED001ADEF83810C1F3064143
:1028700001EE101AB8EE411A31EE031A80EE011A79
:10288000BCEEC11A80ED011ADEF83810C1F3066102
:1028900001EE101AB8EE411A31EE031A80EE010A69
:1028A000BCEEC00A10EE101A816080BD0024744A8C
:1028B00020BCBE4B0024744C0000003980B544F2AB
:1028C000004EC5F6020EDEF82830DEF82810DEF8DD
:1028D0002C20C1F3055CDEF84410BCF1000F15D0CC
:1028E000C908D20501EAE2716FF35F3100EE101AF8
:1028F00003F003010229B8EE400A0BD069B9DEF8F3
:10290000001089060CD49FED341A17E00021C0E9AD
:1029100000115BE09FED2F1A10E09FED2D1A0DE0E6
:10292000DEF8001049F20002C0F2D032C1F3C1015A
:1029300022FA01F101EE101AB8EE411ADEF8401049
:102940009FED263A6FF35F2102EE101ADEF8401079
:10295000C1F34621B8EE422A00EE032A00EE10CA67
:10296000B7EE003AB8EE400A81EE000A32EE031AE2
:1029700002EE101AB8EE422A20EE010A32EE031AD5
:1029800080EE011ABCEEC11A80ED001ADEF840108C
:10299000C1F3064101EE101AB8EE411A31EE031AE6
:1029A00080EE011ABCEEC11A80ED011ADEF840106B
:1029B000C1F3066101EE101AB8EE411A31EE031AA6
:1029C00080EE010ABCEEC00A10EE101A816080BDD4
:1029D0000024744A20BCBE4B0024744C0000003913
:1029E0002DE9F0470446C07844F210480007C5F6C8
:1029F000020824D5A06E4FEA3051032937D8DFE80A
:102A000001F002090F17D8F81C1041F40031C8F882
:102A10001C100DE004F10800022102F00BFF04E09D
:102A200004F12800022102F089FF064640B9A06E99
:102A3000D8F8401021F440110843C8F8400000269F
:102A40006078C00701D135462AE0A06D042800F265
:102A50001B813546DFE800F003130D191900D8F883
:102A60001C00354640F40030C8F81C000DE001267B
:102A7000E6E704F12800002102F060FF04E004F121
:102A80000800002102F0D6FE05462F464DB9D8F8C1
:102A90004000A16D20F0070000250843C8F8400061
:102AA00037466078800728D5E06D4FEAB0100428DB
:102AB00000F2ED80DFE800F003100A161600D8F8E7
:102AC0001C0040F40030C8F81C000BE004F12800A2
:102AD000002102F033FF04E004F10800002102F0BD
:102AE000A9FE05462E464DB9D8F84000E16D20F408
:102AF000E07000250843C8F840003E466078400773
:102B00002AD5D4F8A8004FEA7050042800F2C280F9
:102B1000DFE800F003100A161600D8F81C0040F495
:102B20000030C8F81C000BE004F12800002102F07E
:102B300005FF04E004F10800002102F07BFE0546D9
:102B4000A94655B9D8F84800D4F8A81020F4600078
:102B500000250843C8F84800B146607800072AD528
:102B6000D4F8AC004FEA3060042800F29780DFE828
:102B700000F003100A161600D8F81C0040F40030CC
:102B8000C8F81C000BE004F12800002102F0D6FE7A
:102B900004E004F10800002102F04CFE05462F4637
:102BA00055B9D8F84800D4F8AC1020F0E060002502
:102BB0000843C8F848004F46E078800720D5E06C0D
:102BC0004FEA3010032830D8DFE800F00F02090F79
:102BD000D8F81C0040F40030C8F81C0005E004F1EF
:102BE0000800022102F026FE05462E464DB9D8F80F
:102BF0003C00E16C20F0300000250843C8F83C00A0
:102C00003E466078C0062AD5206E4FEA3030042850
:102C100047D8DFE800F003130D191900D8F81C009D
:102C200040F40030C8F81C000EE001250126E8E75A
:102C300004F12800002102F081FE04E004F1080004
:102C4000002102F0F7FD05462F464DB9D8F84000A7
:102C5000216E20F4E04000250843C8F840003746C4
:102C60006078800631D5606E4FEA3040052800F26A
:102C70003F83DFE800F01F03191F1F1F04F1080046
:102C8000012102F0D7FD14E00125012709E7012504
:102C9000012633E701254FF001095EE701250127F1
:102CA0008AE701250127DBE704F12800012102F072
:102CB00045FE05462E464DB9D8F84000616E20F419
:102CC000E02000250843C8F840003E4660784006F2
:102CD00023D5D4F8B0004FEA3070052800F20B83FA
:102CE000DFE800F00F03090F0F0F04F108000121C6
:102CF00002F0A0FD04E004F12800012102F01EFE14
:102D000005462F4655B9D8F84800D4F8B01020F041
:102D1000E04000250843C8F84800374660780006C0
:102D20001FD5206F90B1B0F1005F09D0B0F1805F86
:102D300029D1D8F81C0040F40030C8F81C0005E088
:102D400004F10800012102F075FD05462E464DB93B
:102D5000D8F84000216F20F0405000250843C8F803
:102D600040003E46E078C00721D0A06C03284FD831
:102D7000DFE800F012020C12D8F81C0040F400301A
:102D8000C8F81C0008E001250126EBE704F1080063
:102D9000022102F04FFD0546A9464DB9D8F83C0086
:102DA000A16C20F0030000250843C8F83C00B146A0
:102DB000A078400601D44F4616E0D8F8F00340F45E
:102DC0008070C8F8F003FFF783F90646D8F8F003DF
:102DD000C00507D4FFF77CF9801B6428F6D90325CA
:102DE000032701E02F46BDB12078C00756D0E06F21
:102DF0004FEAF000052800F28182DFE800F044038A
:102E00003E44444404F10800012102F013FD39E07E
:102E100001254FF00109CBE7D8F86010D4F8B400D1
:102E2000414011F4407F11D0D8F86010D8F86020EC
:102E300042F48032C8F86020D8F8602021F4407154
:102E400022F48032C8F86020C8F86010B0F5807FA6
:102E500040F06882FFF73CF9064641F2883A0325C4
:102E6000032700BFD8F86000800700F15982FFF700
:102E70002FF9801B5045F5D9B6E704F12800012150
:102E800002F05CFD05462E464DB9D8F84400E16FCE
:102E900020F0380000250843C8F844003E4620785A
:102EA00080071FD5A06F052800F22B82DFE800F015
:102EB0000F03090F0F0F04F10800012102F0BAFC03
:102EC00004E004F12800012102F038FD05462F46F8
:102ED0004DB9D8F84400A16F20F007000025084341
:102EE000C8F8440037462078400721D5D4F894002C
:102EF000052800F20982DFE800F00F03090F0F0F29
:102F000004F10800012102F095FC04E004F128001E
:102F1000012102F013FD05462E4655B9D8F84800A8
:102F2000D4F8941020F0070000250843C8F84800A2
:102F30003E462078800623D5D4F890004FEA3070C2
:102F4000052800F2E481DFE800F00F03090F0F0FFE
:102F500004F10800002102F06DFC04E004F12800F7
:102F6000022102F0EBFC05462F4655B9D8F8440083
:102F7000D4F8901020F0E04000250843C8F8440041
:102F800037462078400623D5D4F89C004FEAB0207D
:102F9000052800F2BF81DFE800F00F03090F0F0FD3
:102FA00004F10800002102F045FC04E004F12800CF
:102FB000022102F0C3FC05462E4655B9D8F8480058
:102FC000D4F89C1020F4E05000250843C8F84800CD
:102FD0003E462078000623D5D4F8A0004FEA703092
:102FE000052800F29A81DFE800F00F03090F0F0FA8
:102FF00004F10800002102F01DFC04E004F12800A7
:10300000022102F09BFC05462F4655B9D8F848002E
:10301000D4F8A01020F4604000250843C8F8480008
:1030200037462068010716D5D4F88400B0F5805FD4
:1030300009D104F12800022102F080FC002818BF09
:103040000127D4F88400D8F8441021F440510843F3
:10305000C8F844002068C10616D5D4F89800B0F529
:10306000807F09D104F12800022102F067FC0028CA
:1030700018BF0127D4F89800D8F8481021F44071FF
:103080000843C8F848002068000322D5D4F8A400FB
:10309000B0F5003F11D0B0F5803F08D0002840F0D7
:1030A0001F8104F10800002102F0C4FB04E004F1D8
:1030B0002800022102F042FC05462E4655B9D8F8F8
:1030C0004800D4F8A41020F4403000250843C8F884
:1030D00048003E46A078400724D5D4F88800B0F5D3
:1030E000401F13D0B0F5001F0AD0B0F5801F40F08C
:1030F000FA80D8F81C0040F40030C8F81C0005E045
:1031000004F12800012102F019FC05462F4655B9AB
:10311000D8F84400D4F8881020F440100025084363
:10312000C8F844003746A078C00701D13E461FE0EA
:10313000206DB0F5803F07D0C0B9D8F81C0040F42E
:103140000030C8F81C0005E004F10800022102F07C
:1031500071FB05462E465DB9D8F83C00216D20F480
:10316000803000250843C8F83C00DFE70125012630
:103170002168880001D4606809E004F12800022178
:1031800002F0DCFB002818BF0126D4E900108A03F6
:103190001BD5D4F880206FF0010303EB3223022B00
:1031A0000BD34FEA322343B1012B40F09F80D8F874
:1031B0001C3043F40033C8F81C303DB9D8F8443013
:1031C00023F440731A43C8F844203546CA0207D591
:1031D000D8F84020636F22F000421A43C8F840201C
:1031E000CA0008D5D8F80020D4F8B83022F48042BC
:1031F0001A43C8F800208A0207D5D8F84020E36EA9
:1032000022F080721A43C8F840204A000CD5D8F842
:10321000002022F40042C8F80020D4F8BC20D8F8DE
:1032200000301A43C8F80020CA0F07D0D8F83C2055
:10323000636D22F040521A43C8F83C20090208D5B9
:10324000D8F84410D4F88C2021F440011143C8F878
:103250004410C10708D004F10800002102F0EAFA86
:10326000002818BF05466068810708D504F10800EA
:10327000012102F0DFFA002818BF05466068410707
:1032800008D504F10800022102F0D4FA002818BF82
:1032900005466068010708D504F12800002102F006
:1032A0004DFB002818BF05466068C10608D504F12B
:1032B0002800012102F042FB002818BF0546606883
:1032C000800607D504F12800022102F037FB002810
:1032D00018BF0125002D18BF01252846BDE8F0873D
:1032E00001250126F6E6012501271CE701256DE7EA
:1032F00001250126EAE4012501270FE50125012624
:10330000CDE501250127EEE50125012611E6012580
:10331000012736E6012501265BE60125012780E627
:10332000D4F8B4004FF6CF73D8F80020C0F2FF03F2
:1033300000F4407122F47C5203EA10136FF31F3043
:10334000B1F5407F08BF1A430025C8F80020D8F81F
:1033500060100843C8F860002DE500002DE9F04337
:1033600081B0002800F0198142F200080446C5F23D
:1033700000288946D8F8000000F00F0088420ED2DD
:10338000D8F8000020F00F0040EA0900C8F800005B
:10339000D8F8000000F00F00484540F0FE8020689B
:1033A00044F210474107C5F602070AD52169BA68F9
:1033B00002F07002914204D9BA6822F070021143FF
:1033C000B96001070AD56169FA6802F0700291429A
:1033D00004D9FA6822F070021143F960C1060AD5D7
:1033E000A169FA6802F4E062914204D9FA6822F411
:1033F000E0621143F96081060AD5E1693A6902F099
:103400007002914204D93A6922F070021143396185
:1034100010F002010AD0E268BB6803F00F039A4281
:1034200004D9BB6823F00F031A43BA60C20736D031
:10343000B86820F47061D4E901021143B960012831
:1034400057F8101C09D0032804D0022808D189039A
:1034500009D4A2E0890106D49FE0C90503D49CE009
:10346000490740F19A80396821F007010843386024
:10347000FEF72EFE064641F2883500BF38686168C7
:1034800000F03800B0EBC10F06D0FEF721FE801B24
:10349000A842F3D9032081E0206800F0020151B175
:1034A000E168BA6802F00F02914204D2BA6822F0D1
:1034B0000F021143B960D8F8001001F00F0149451F
:1034C0000DD9D8F8001021F00F0141EA0901C8F820
:1034D0000010D8F8001001F00F0149455DD14107F7
:1034E0000AD52169BA6802F07002914204D2BA6822
:1034F00022F070021143B96001070AD56169FA68C8
:1035000002F07002914204D2FA6822F07002114374
:10351000F960C1060AD5A169FA6802F4E062914235
:1035200004D2FA6822F4E0621143F96080060AD5F9
:10353000E069396901F07001884204D2396921F0EB
:1035400070010843386100F0A5F8B9684BF69C0299
:10355000C0F60002C1F30321515CBB6803F00F0306
:1035600001F01F01D25C20FA01F102F01F0040F2CD
:103570000402C2F2004221FA00F0106040F2D800CA
:1035800040F20002C2F20040C2F200420068116044
:1035900001B0BDE8F043FEF72EBF012001B0BDE849
:1035A000F0833F22026044F21842C5F6020252F84C
:1035B000083C03F007034360136803F470638360FF
:1035C000136803F00F03C360136803F07003036113
:1035D000536803F070034361536803F4E06383614D
:1035E000926802F07002C26142F20000C5F200204F
:1035F000006800F00F000860704780B500F04AF8DE
:1036000044F218414BF69C03C5F60201C0F60003D4
:103610000A68C2F303229A5C096801F00F0102F004
:103620001F02595C20FA02F201F01F0040F204016F
:10363000C2F2004122FA00F0086040F20001C2F23A
:1036400000410A6080BD80B5FFF7D7FF44F21C41FE
:103650004BF69C02C5F60201C0F600020968C1F3F0
:103660000211515C01F01F01C84080BD80B5FFF719
:10367000C4FF44F21C414BF69C02C5F60201C0F6A1
:1036800000020968C1F30221515C01F01F01C8402A
:1036900080BD000044F20041C5F602010869C0F394
:1036A000C200032814D002280DD080BB0868800611
:1036B00049F20000C0F2D03058BF70470968C1F32A
:1036C000C101C840704747F64000C0F27D10704706
:1036D0008A6A886AC0F3051CC86ABCF1000F4B6B8C
:1036E0001AD000F00100404200EAD3006FF35F30CF
:1036F00000EE100A02F003000228B8EE400A0DD0D6
:1037000078B9086880060FD49FED231A19E040F6B7
:103710000010C0F23D007047002070479FED1D1A59
:103720000FE09FED1B1A0CE0086849F20002C0F29E
:10373000D032C0F3C10022FA00F001EE100AB8EE58
:10374000411A086B9FED153A6FF35F2002EE100AE5
:10375000086BC0F34620B8EE422A013000EE032A7F
:1037600000EE10CAB7EE003AB8EE400A81EE000A49
:1037700032EE031A20EE010A01EE100AB8EE411AE9
:1037800080EE010ABCEEC00A10EE100A704700BFBE
:103790000024744A20BCBE4B0024744C0000003945
:1037A00058B3F0B581B00446007844F20046C00733
:1037B000C5F6020623D12078800740F1B380306936
:1037C00010F03801B06A3ED0182908BF5FEA807057
:1037D00039D0E068316800285ED021F01901084333
:1037E0003060FEF775FC05463068400745D4FEF7AB
:1037F0006FFC401B0228F7D981E101207047306936
:1038000000F03801B06A102905D018290AD100F05B
:103810000300022806D130688003CCD560680028F8
:10382000C9D142E16168306800295BD0B1F5A02FB1
:1038300043D0B1F5803F44D020F480303060306810
:1038400020F480203FE030684007E06802D500287F
:1038500000F02B81316821F0190108433060FEF738
:1038600037FC05463068400707D4FEF731FC401BA3
:1038700002284FF00300F5D942E1FEF722FC41F2A5
:103880000301884244D820697168402821F47C31C2
:1038900045D141F4003044E021F001003060FEF7F2
:1038A00017FC0546306840073CD5FEF711FC401B6D
:1038B00002284FF00300F5D922E140F48020306067
:1038C000306840F480303060FEF702FC054600BFEF
:1038D000306880033FF56FAFFEF7FAFB401B6428AA
:1038E000F6D90CE120F480303060306820F480207C
:1038F0003060FEF7EDFB0546306880037FF55BAF77
:10390000FEF7E6FB401B64284FF00300F4D9F7E014
:103910007068216920F0FE4040EA016001E041EA60
:10392000003070602078C00654D5306900F038014E
:10393000B06A082905D0182919D100F00300012820
:1039400015D13068C00503D5E069802840F0AD800E
:10395000FEF7B7FB41F2030188421ED8206A716866
:10396000202821F0F84132D141F0804031E0E06977
:103970000028306819D040F080003060FEF7A8FBC6
:10398000054600BF3068C005E2D4FEF7A1FB401B2E
:1039900002284FF00300F5D9B2E0F068216A20F068
:1039A0007C5040EA0160F06014E020F0800030605C
:1039B000FEF78EFB054600BF3068C0050AD5FEF74E
:1039C00087FB401B02284FF00300F5D998E041EA3D
:1039D000806070602078000754D42078800666D418
:1039E0002078400778D4656A002D49D0306900F00E
:1039F0003800182840F0BA80012DB16A306B54D0DD
:103A000001F00302A36A9A424FD1C1F30511E26AA1
:103A100091424AD10146226B6FF35F21013A9142F4
:103A200043D1C0F34622616B01398A423DD1C0F3D4
:103A30000642A16B01398A4237D1C0F30660E16BBF
:103A40000139884231D1706BA16CC0F3CC00814246
:103A500016D0F06A20F00100F062FEF739FB05464F
:103A6000FEF736FBA842FBD0706B4FF6F871A26CE4
:103A7000884340EAC2007063F06A40F00100F062DF
:103A800000203DE060690028706F3BD040F00100ED
:103A90007067FEF71DFB0546706F80079DD4FEF72B
:103AA00017FB401B0228F7D929E0012028E0A06974
:103AB0000028306847D040F480503060FEF708FBA3
:103AC000054600BF306880043FF58AAFFEF700FB73
:103AD000401B0228F6D912E0D6F8000440F48070AA
:103AE000C6F80004FEF7F4FA054600BFD6F8000455
:103AF000C00519D4FEF7ECFA401B6428F6D9032060
:103B000001B0F0BD20F001007067FEF7E1FA054654
:103B1000706F80077FF561AFFEF7DAFA401B02286D
:103B20004FF00300F4D9EBE7A168306F002957D0BC
:103B300005293DD001293FD020F001003067306FCA
:103B400020F004003AE020F480503060FEF7C0FA24
:103B5000054600BF306880047FF542AFFEF7B8FA33
:103B6000401B02284FF00300F4D9C9E7306820F069
:103B700080703060FEF7ACFA022D05460CD100BF14
:103B80003068800144D5FEF7A3FA401B02284FF0AD
:103B90000300F5D9B4E700BF306880017FF570AF4E
:103BA000FEF796FA401B02284FF00300F4D9A7E76E
:103BB00040F004003067306F40F001003067FEF7DE
:103BC00087FA054641F28837306F80073FF50BAF23
:103BD000FEF77EFA401BB8424FF00300F4D98FE79E
:103BE00020F001003067306F20F004003067FEF7EE
:103BF0006FFA054641F28837306F80077FF5F3AEE4
:103C0000FEF766FA401BB8424FF00300F4D977E79D
:103C100004F12807B06A40F2F33188438ECF08439D
:103C2000591E40EA02104FF47E426FF35F21B062EA
:103C300002EB47204FF4FE0280B2E36B0844A16B15
:103C400002EB01414FF0FE4201F4FE0102EB036280
:103C5000084402F0FE4108443063F06A4FF6F87100
:103C600020F00100F062706BA26C884340EAC20051
:103C70007063F06A216C20F00C000843F062F06A77
:103C8000616C20F002000843F062F06A40F480307A
:103C9000F062F06A40F40030F062F06A40F4802094
:103CA000F062F06A40F00100F062306840F080702D
:103CB0003060FEF70DFA0446306880013FF5E0AE53
:103CC000FEF706FA001B02284FF00300F4D917E7AD
:103CD00000284DD02DE9F04F81B043F60003044693
:103CE0000068C4F2000343F2000E43F6004C984211
:103CF000C4F2010EC4F2000C4FF00001A16203D027
:103D0000604518BF704540D1E16B0125E2689842DB
:103D100002F1080205EB51114FEAD20202FB01F158
:103D200018BF704526D1102932D894F8810028B9DF
:103D3000002084F88000204600F0A1F8022084F8DA
:103D40008100D4E90009D4F818800368B8F1806FC5
:103D500023F001030360836803F4F81E22D1B9F154
:103D6000000F17D0B9F5800F1CD1A36B03BB15E072
:103D700001207047604518BF082909D80CF5744226
:103D8000904218BF6045CED0CFE7E1680F29BBD97C
:103D9000012071E0A36BB3F1805F06D1036843F4A7
:103DA000805303605FEA492302D44FF0010C0EE018
:103DB000E368072B09D3056825F4807C256D45EA67
:103DC0000C0505604FF0000C06E04FF0000C036896
:103DD00023F480730360E368E769A26A47EA0E0789
:103DE000E16B3A43A7681143B9F1000FD4E904BA73
:103DF00041EA03018160616BA56B626A41EA0201DD
:103E0000226A41EA050141EA0B0141EA0A01D4E9CB
:103E1000126341EA0201A26D41EA030141EA07018E
:103E200041EA060141EA020141EA080141EA0901C9
:103E3000C1600DD0016DBCF1000F21F001010165E1
:103E400014D1C168626D21F000411143C1600DE0E1
:103E50008168012262F3CC2181608168022262F3D1
:103E60004A218160016D21F0010101650020C4F843
:103E70008400012184F8811001B0BDE8F08F2DE9A4
:103E8000F04186B0044601A81421FCF77CFB43F204
:103E900000012068C4F2010188423ED144F2E040B2
:103EA00040F60044C5F60200C5F6020401AD4FF02D
:103EB00002080169002741F480510161016905266A
:103EC00001F4805100910099016841F008010160FE
:103ED000016801F0080100910099016841F040017A
:103EE00001600068294600F04000009000988020A2
:103EF00001902046CDF80880CDE903770596FEF7BE
:103F000009F84FF460602946CDE9010804F54060E6
:103F10000596CDE90377FDF7FDFF06B0BDE8F0811A
:103F200070477047704790F83C20012A01D1022168
:103F300045E0B0B5CB6848F2FF7ED1E901C223F479
:103F40007C5322F47052CFF6F07E42EA03040CEA6E
:103F50000E030A68234322F477220C691A4324F4DF
:103F60007623D0F800C01A434B691A438B6A22F4B7
:103F7000742E23F470238A6940F200454CF4806467
:103F8000C4F2010543EA0E03AC4243EA02430FD1F7
:103F9000002523F07C724B6ACFF6F045CC6905EA28
:103FA00003531A4324F00073096A1A4342EA0103D7
:103FB0000021CCF8443080F83C10BDE8B040084601
:103FC000704790F83C20012A4FF002025CD0B0B557
:103FD00080F83D2040F2004C0268C4F2010C42F42B
:103FE000806363455368D2F808E002BF23F470038E
:103FF0004C68234341F2FF740D68C4F2000423F0BF
:104000007003A24243EA050353600BDC40F2FF73E6
:10401000C4F200039A4215DCB2F1804F27D040F27F
:10402000004317E040F2FF33C4F201039A4216DC6A
:1040300041F60003C4F200039A4218D00023C4F2F0
:10404000010309E040F60003C4F200039A420ED0D7
:1040500040F60043C4F200039A4208D00CE044F258
:104060000003C4F201039A4201D0624504D12EF04C
:1040700080038968194391600022012180F83D1076
:1040800080F83C20BDE8B0401046704760B310B5E2
:10409000044690F83D0028B9002084F83C002046F2
:1040A00000F024F8022084F83D002068211D01F072
:1040B0005CFD012084F8480084F83E0084F83F004D
:1040C00084F8400084F8410084F8420084F84300FA
:1040D00084F8440084F8450084F8460084F84700DA
:1040E00084F83D00002010BD0120704710B586B057
:1040F000044601A81421FCF746FA00212068C4F206
:104100000101884226D144F2E040C5F6020001696F
:1041100041F001010161016901F001010091009983
:10412000016841F010010160006801A900F0100071
:10413000009000984FF480400190022002900020EF
:10414000CDE903000120059041F20000C5F6020010
:10415000FDF7E0FE06B010BD90F83D10012919D121
:10416000022180F83D10016841F2FF70C4F20000A6
:104170008142C86840F00100C8600DDC40F2FF7069
:10418000C4F20000814215DCB1F1804F29D040F229
:10419000004017E00120704740F2FF30C4F20100F8
:1041A000814212DC41F60000C4F20000814218D0C6
:1041B000002012E040F60000C4F20000814210D05E
:1041C00040F60040C4F2000009E044F20000C4F2EE
:1041D0000100814205D040F20040C4F2010081425A
:1041E0000BD107228868C0F2010202400020062A93
:1041F00018BFB2F5803F00D17047086840F0010059
:104200000860002070477047F0B581B0044690F810
:104210003C00012801D1022082E00D464FEAB201A4
:1042200003294FF0010084F83C0000F27680DFE8BB
:1042300001F0024C102FD5E900122068EB6801F064
:10424000C0FF206850F8181F21F00C010160A96818
:104250005FE02268D5E900C7D5E9021666F30717C3
:10426000156A106A25F4206620F4807010621046EA
:1042700050F81C3F23F0F3033B430CF00A070360A4
:1042800046EA07231362026822F00C02026040E053
:104290002168EE6895E80C100D6A1B02086A4FF25F
:1042A000FF0E20F480500862084623EA0E0366F3EE
:1042B0000F3302F00A0250F81C7F27F473473B4388
:1042C00025F4204747EA02321BE021684FF2FF073E
:1042D000D5E900E3D5E902C50A6A1B02086ABB43B7
:1042E00020F01000086208460EF00A0765F30F334D
:1042F00022F0A00250F8186F42EA071226F4734623
:10430000334303600A62016821F4406101604FEAAF
:104310000C210268114301600020002184F83C1048
:1043200001B0F0BD60B310B5044690F83D0028B967
:10433000002084F83C00204600F024F8022084F895
:104340003D002068211D01F010FC012084F8480088
:1043500084F83E0084F83F0084F8400084F841006F
:1043600084F8420084F8430084F8440084F845004F
:1043700084F8460084F8470084F83D00002010BD12
:10438000012070477047F0B581B004460068C568E9
:104390000669B10716D515F0020113D06FF00201BE
:1043A0000161012121778069800703D02046FFF752
:1043B0002AFF05E0204600F0F3F8204600F022F93D
:1043C00000202077700718D515F0040015D020685C
:1043D0006FF00401016102212177806910F4407FB0
:1043E00003D02046FFF70FFF05E0204600F0D8F885
:1043F000204600F007F900202077300717D515F088
:10440000080014D020686FF00801016104212177B1
:10441000C069800703D02046FFF7F5FE05E020467F
:1044200000F0BEF8204600F0EDF800202077F006FE
:1044300018D515F0100015D020686FF0100101613B
:1044400008212177C06910F4407F03D02046FFF790
:10445000DAFE05E0204600F0A3F8204600F0D2F88E
:1044600000202077F00718BF15F0010006D0206863
:104470006FF001010161204600F0C5F805F08007EA
:1044800016F4025F18BF002F06D020686FF40251A7
:1044900001612046FFF745FDF00507D537B12068DB
:1044A0006FF4807101612046FFF73AFD700609D56F
:1044B00015F0400006D020686FF0400101612046F1
:1044C00000F0CDF8B0060CD515F0200009D020681A
:1044D0006FF020010161204601B0BDE8F040FFF718
:1044E00021BD01B0F0BD10B586B0044601A814216D
:1044F000FCF749F800212068C4F2010188421DD16F
:1045000044F2E040C5F60200016841F0100101608C
:10451000006801A900F01000009000984FF42850A6
:104520000190022002900020CDE9030001200590B7
:1045300041F20000C5F60200FDF7ECFC06B010BD2C
:1045400010B5044690F83C00012801D1022010BDAE
:104550004FEAB2020120052A84F83C001CD8DFE8AB
:1045600002F003130B0F0717206801F0A0FB12E005
:10457000206801F0E9FC0EE0206801F04EFC0AE042
:10458000206801F09FFC06E0206801F0F1FB02E0EA
:10459000206801F01AFD0020002184F83C1010BDB5
:1045A000704760B310B5044690F83D0028B900206C
:1045B00084F83C00204600F024F8022084F83D00F6
:1045C0002068211D01F0D1FA012084F8480084F808
:1045D0003E0084F83F0084F8400084F8410084F8ED
:1045E000420084F8430084F8440084F8450084F8CD
:1045F000460084F8470084F83D00002010BD0120EB
:104600007047704770470068B0F1804F18BF70471F
:10461000FDF7B3BEB0B5044690F83C0001284FF05A
:10462000020008BFB0BD012584F83C5084F83D006D
:10463000204601F00CFD00284FF0010009D1206850
:10464000C16821F04001C160C16821F48041C160AE
:10465000002084F83D50002184F83C10B0BD704724
:1046600090F88410012901D1022112E02421C0F820
:10467000881002681368116823F0005321F00101CB
:1046800011600021416613602022C0F8882080F864
:1046900084100846704770477047B0B5044690F8DC
:1046A0008400012801D10220B0BD012084F88400DB
:1046B0002420C4F8880020680568026822F00102FE
:1046C0000260826822F0606211438160204601F03E
:1046D000D6FD206805602020C4F88800002084F8FA
:1046E0008400B0BDB0B5044690F88400012801D123
:1046F0000220B0BD012084F884002420C4F8880082
:1047000020680568026822F001020260826822F0D7
:10471000604211438160204601F0B1FD20680560D0
:104720002020C4F88800002084F88400B0BD7047C1
:104730007047704770B50446006840F62F01C269A3
:1047400011402029016886680DD101F0200306F090
:1047500080555B1919D0616F002900F083812046D4
:10476000BDE87040084740F60F031A420DD0012300
:1047700040F22015C1F20003C0F2004506EA030C26
:1047800001EA050313EB0C0353D1D306E36E43D5C3
:10479000012B41D111F010033ED01021016280683D
:1047A000400600F1D180B4F85C00B4F85E10B4F8B3
:1047B0005E20002A00F05681884200F05381401AA2
:1047C000216851E8001F226821F4907142E800132B
:1047D000002BF5D14FF6FE71CEF6FF71226852E83C
:1047E000022F23680A4043E80226002EF6D120213A
:1047F000C4F88C100021E166616700BF216851E8B0
:10480000001F226821F0100142E80013002BF5D1AF
:1048100081B202202067E5E0D30273D516F480034D
:1048200070D04FF4801101622046BDE87040FFF760
:104830007FBFD30718BF11F4807307D00123036231
:10484000D4F8903043F00103C4F89030930706F099
:10485000010E0AD5BEF1000F07D002230362D4F87F
:10486000903043F00403C4F8903053070AD5BEF1EA
:10487000000F07D004230362D4F8903043F0020302
:10488000C4F8903013070CD501F0200353EA0C0351
:1048900007D008230362D4F8903043F00803C4F82B
:1048A000903013050BD511F0806308D04FF40063EE
:1048B0000362D4F8903043F02003C4F89030D4F869
:1048C0009030002B00F0CE8092060AD501F0200136
:1048D00006F08052891804D0616F11B120468847D4
:1048E0002068D4F89010806800F0400001F02801A2
:1048F000401840F086802046FFF71BFF0020C4F8D8
:104900009000AFE0100606D501F0800006F4000329
:10491000C01840F09680500669D511F0400066D06E
:10492000206850E8000F216820F0400041E80002B4
:10493000002AF5D12020C4F888000020A067204676
:10494000BDE8704000F02CBBD4F8800001684968D5
:104950008AB2002A00F08680B4F85C309A4280F077
:104960008180A4F85E10C069B0F5807F32D000BFAE
:10497000206850E8000F216820F4807041E80002B0
:10498000002AF5D1206850E8020F216820F00100CC
:1049900041E80202002AF5D1206850E8020F2168A0
:1049A00020F0400041E80202002AF5D12020C4F89E
:1049B0008C000020E06600BF206850E8000F2168EE
:1049C00020F0100041E80002002AF5D1D4F8800060
:1049D000FCF78EFC02202067B4F85C00B4F85E108F
:1049E000401A81B22046BDE87040FFF754BE100265
:1049F0002ED511F080402BD02046BDE87040FFF747
:104A000096BE204601F02EFD2068806840061AD52B
:104A1000206850E8020F216820F0400041E80202BF
:104A2000002AF5D1D4F8800068B146F25341C0F6AF
:104A300000010165FCF7BCFEA0B1D4F88000016D57
:104A40008EE6A16F88E62046BDE87040FFF771BE94
:104A5000D00107D5B1F1FF3F04DC2046BDE870402E
:104A6000FFF71ABE70BD10B5D8B10446D0F8880063
:104A700028B9002084F88400204600F026F824207D
:104A8000C4F888002068A16A0268002922F00101A8
:104A9000016002D0204601F01BFC204601F0A2FF7D
:104AA00008B1012010BD2068416821F490414160A7
:104AB000816821F02A018160016841F001010160F3
:104AC0002046BDE8104001F067BC2DE9F041B8B0C8
:104AD000044633A81421FBF756FD02A8C021FBF7BA
:104AE00052FD47F2FF712068C4F20001884263DC86
:104AF00044F20041C4F20001884200F0BB8044F659
:104B00000041C4F20001884200F00E8145F200012C
:104B1000C4F20001884240F0878102A80025039575
:104B20004FF00208CDF80880FDF75AFF08B1FCF7F6
:104B3000DBFB44F2E04040F20046C5F60200C5F659
:104B4000020633AC0827816841F4801181608168D6
:104B500001F4801101910199016841F004010160A3
:104B6000016801F0040101910199016841F0080117
:104B700001600068214600F00800019001984FF4A0
:104B80009850CDE9330806F580603797CDE9355563
:104B9000FDF7C0F904202146CDE9330806F5006091
:104BA0003797CDE93555FDF7B5F9352005210022B8
:104BB000FDF797FC352004E147F60001C4F200013F
:104BC000884200F0858047F60041C4F20001884227
:104BD00000F0FA8041F20041C4F20101884240F045
:104BE00023810120029002A84FF00008CDF80C802C
:104BF000FDF7F6FE08B1FCF777FB44F2E04040F227
:104C00000045C5F60200C5F6020533AC022601696F
:104C1000072741F020010161016901F020010191A4
:104C20000199016841F040010160016801F0400113
:104C300001910199016841F0040101600068214679
:104C400000F00400019001984FF40450339005F5F2
:104C5000A050CDE93468CDF8D8803797FDF75AF9E0
:104C600033A9C020CDE9368781E8410105F5806090
:104C70002146D7E002A80024039402250295FDF7FF
:104C8000AFFE08B1FCF730FB44F2E040C5F602008D
:104C9000816841F400318160816801F40031019143
:104CA0000199016841F008010160006840F200418B
:104CB00000F008000190C5F6020101986020CDE9DE
:104CC0003305CDE935440720379001F50060A8E0B1
:104CD00002A80024039402250295FDF781FE08B185
:104CE000FCF702FB44F2E040C5F60200816841F0A7
:104CF00080418160816801F08041019101990168E2
:104D000041F002010160006800F00200019001988A
:104D10001820CDE933050B20379040F20040C5F64E
:104D20000200CDE935447CE002A8002603964FF04E
:104D30000208CDF80880FDF753FE08B1FCF7D4FA5D
:104D400044F2E04040F20044C5F60200C5F6020419
:104D500033AD0827816841F400218160816801F446
:104D6000002101910199016841F00201016001688F
:104D700001F0020101910199016841F0080101600F
:104D80000068294600F00800019001984FF4404067
:104D9000CDE9330820463797CDE93566FDF7BAF8F7
:104DA00003202946CDE9330804F500603797CDE9A3
:104DB0003566FDF7AFF8342005210022FDF791FBA1
:104DC0003420FDF77EFB2FE002A800240394022587
:104DD0000295FDF705FE08B1FCF786FA44F2E040C3
:104DE000C5F60200816841F000418160816801F0F0
:104DF000004101910199016841F0100101600068D2
:104E000040F2004100F010000190C5F60201019847
:104E10000320CDE93305CDE935440820379001F56D
:104E2000406033A9FDF776F838B0BDE8F0810000A6
:104E3000D0F88C30202B25D14FF0010319B312B3D9
:104E400080B50023C36640F60043D0F800C0C5F625
:104E500000039C4510D0DCF804301B020CD500BFC9
:104E6000036853E800CFD0F800E04CF080634EE8D0
:104E7000003CBCF1000FF3D101F058FF0023BDE866
:104E8000804000E002231846704770B540F2CC1114
:104E90000446C2F200410978BFF35F8FC90759D0B9
:104EA00040F62C70C2F2004084422DD041F25400F2
:104EB000C2F20040844238D041F27C10C2F200407D
:104EC000844218BF70BD40F22C6440F21461C2F2FB
:104ED0000044C2F20041204602F009FF40F2801077
:104EE00040F28416C2F20040C2F20046D4E9071331
:104EF000016040F62C7040F28811C2F20040C2F20C
:104F000000411822336021E040F2881440F22C6006
:104F1000C2F20044C2F20040217802F027FF40F6BE
:104F20002C700422C2F200400FE040F2A01440F2C4
:104F30002C60C2F20044C2F20040214602F076FF2B
:104F400041F254001622C2F200402146BDE87040F2
:104F5000FFF76EBF40F2CC10C2F2004003F00EFE2D
:104F600000289DD040F22C654AF65520C2F200453B
:104F7000C0F60D204C210026286005F12400A5F87C
:104F80008960FBF700FB4FF0FF40C5F8AC0040F232
:104F9000CC10C2F20040C5E9296603F005FE7FE7A8
:104FA00070470000FEE780B540F2EC604AF2000175
:104FB000C2F20040C4F2000110220223016000216D
:104FC000C0E90211C0F80F10426101228261C0E9FC
:104FD0000733C0E90922C0E90B22C0E90D11C0E97D
:104FE0000F110422C0E91121C0E91321C0E91521E4
:104FF000C0E91711C0E91912FCF73CFD18B1BDE872
:105000008040FCF771B980BD80B540F28C704AF2E7
:105010000041C2F20040C4F20001102202230160EC
:105020000021C0E90211C0F80F1042610122826123
:10503000C0E90733C0E90922C0E90B22C0E90D111C
:10504000C0E90F110422C0E91121C0E91321C0E910
:105050001521C0E91711C0E91912FCF70BFD18B1B1
:10506000BDE88040FCF740B980BD2DE9F04387B032
:105070000DF1080914214846FBF785FA44F2E04097
:105080000026C5F60200C5F6020606F540650022B8
:1050900001684FF4006841F0800101600168002759
:1050A00001F0800101910199016841F00101016065
:1050B000016801F0010101910199016841F00201CB
:1050C0000160016801F0020101910199016841F05C
:1050D00010010160016801F010010191019901685E
:1050E00041F008010160016801F008010191019996
:1050F000016841F040010160016801F04001019147
:105100000199016841F00401016000684FF40061F9
:1051100000F00400019001982846FCF7CDFFC02064
:105120000290304649460224CDE90347CDE9057493
:10513000FCF7F0FE02A9032006F5806691C1304617
:105140004946CDE90574FCF7E5FE44204946CDE922
:10515000020730460497FCF7DDFE01204946CDE901
:1051600003072846CDF808800597FCF7D3FE4FF4D7
:10517000805002904FF488104946CDE90307284635
:10518000FCF7C8FE4FF400504946CDE90207284617
:105190000497FCF7BFFE07B0BDE8F08310B540F6FA
:1051A0002C0445F20040C2F2004447F2B051C4F270
:1051B0000000C1F27001C4E900010020A0600120DC
:1051C000E06004F110001421FBF7DDF92046FCF744
:1051D000CEFF08B1FCF788F840F62C000021C2F29F
:1051E0000040FCF77BFF08B1FCF77EF840F62C008E
:1051F0000021C2F20040FCF796FF18B1BDE8104054
:10520000FCF772B810BD10B540F6800445F60000FA
:10521000C2F2004447F2B051C4F20000C1F2700182
:10522000C4E900010020A0600120E06004F110004A
:105230001421FBF7A8F92046FCF799FF08B1FCF709
:1052400053F840F680000021C2F20040FCF746FF10
:1052500008B1FCF749F840F680000021C2F2004096
:10526000FCF761FF18B1BDE81040FCF73DB810BD78
:1052700010B540F6D40445F60040C2F2004447F2AF
:10528000B051C4F20000C1F27001C4E90001002075
:10529000A0600120E06004F110001421FBF773F915
:1052A0002046FCF764FF08B1FCF71EF840F6D40076
:1052B0000021C2F20040FCF711FF08B1FCF714F81E
:1052C00040F6D4000021C2F20040FCF72CFF18B1D8
:1052D000BDE81040FCF708B810BD10B540F60C64EE
:1052E00043F20000C2F20044C4F201000321206036
:1052F0004FF4800060600020A060C4E9031060618A
:105300004FF00050A06104F11C001421FBF73BF9A1
:105310004FF08040606304F138002421FBF733F93B
:105320002046FEF7D5FC18B1BDE81040FBF7DCBF06
:1053300010BDB0B59EB019A81421FBF724F90FA831
:105340001C2100241894CDE91644FBF71CF968468B
:105350002C21CDE90D44CDE90B44FBF714F940F6BF
:1053600094600021C2F20040C4F20101C0E90014BF
:1053700084604FF6FF71C0E90314C0E90544FEF7ED
:1053800085FE08B1FBF7B0FF40F69460C2F2004022
:10539000FFF707F908B1FBF7A7FF40F69460C2F2E8
:1053A0000040FEF7BFFF08B1FBF79EFF07201990F2
:1053B00010201A9040F6946019A9C2F20040FFF73D
:1053C00029F908B1FBF790FF00201890CDE91600ED
:1053D00040F6946016A9C2F20040FEF7F2FD08B153
:1053E000FBF782FF0FAC1C212046FBF7CCF840F600
:1053F00094600022C2F200402146FFF7A1F808B1F4
:10540000FBF772FF40F694600FA9C2F2004004223D
:10541000FFF796F808B1FBF767FF40F694600FA915
:10542000C2F200400822FFF78BF808B1FBF75CFFDF
:1054300000250120CDE90C0540F694600BA9C2F2CD
:1054400000400C220B950E95FEF7DEFE08B1FBF72F
:105450004BFF6C4614212046FBF795F84FF40050A3
:105460002146CDE905054FF000700795CDE9080507
:1054700040F694600A95C2F20040FEF754FD08B170
:10548000FBF732FF40F69460C2F20040FFF72BF8C2
:105490001EB0B0BD80B540F6C07044F60041C2F207
:1054A0000040C4F200010C2201604FF4E131416080
:1054B0000021C0E90211016142614FF44072C0E96C
:1054C0000621C0E908118162FFF7CDFA08B1FBF7A8
:1054D0000BFF40F6C0700021C2F20040FFF702F956
:1054E00008B1FBF701FF40F6C0700021C2F2004096
:1054F000FFF7D3F808B1FBF7F7FE40F6C070C2F231
:105500000040FFF7ADF818B1BDE88040FBF7ECBEF6
:1055100080BD80B541F2540045F20001C2F2004066
:10552000C4F200010C2201604FF4E131416000211E
:10553000C0E90211016142614FF44072C0E90621E5
:10554000C0E908118162FFF78EFA08B1FBF7CCFEC3
:1055500041F254000021C2F20040FFF7C3F808B145
:10556000FBF7C2FE41F254000021C2F20040FFF7F7
:1055700094F808B1FBF7B8FE41F25400C2F20040C3
:10558000FFF76EF818B1BDE88040FBF7ADBE80BDF7
:1055900010B541F27C1447F60000C2F20044C4F298
:1055A0000000142120604FF4E13060600020C4E965
:1055B000020020610C20606104F11800FAF7E3FF9B
:1055C0002046FFF750FA08B1FBF78EFE41F27C103F
:1055D0000021C2F20040FFF785F808B1FBF784FE16
:1055E00041F27C100021C2F20040FFF756F808B1EA
:1055F000FBF77AFE41F27C10C2F20040FFF730F870
:1056000018B1BDE81040FBF76FBE10BD10B541F2F8
:10561000102447F60040C2F20044C4F200001421F6
:1056200020604FF4E13060600020C4E90200206196
:105630000C20606104F11800FAF7A5FF2046FFF77F
:1056400012FA08B1FBF750FE41F210200021C2F21D
:105650000040FFF747F808B1FBF746FE41F2102083
:105660000021C2F20040FFF718F808B1FBF73CFE3A
:1056700041F21020C2F20040FEF7F2FF18B1BDE87F
:105680001040FBF731BE10BD10B540F62C7444F24B
:105690000040C2F20044C4F20000142120604FF424
:1056A000E13060600020C4E9020020610C206061EC
:1056B00004F11800FAF767FF2046FFF7D4F908B1A4
:1056C000FBF712FE40F62C700021C2F20040FFF7FB
:1056D00009F808B1FBF708FE40F62C700021C2F271
:1056E0000040FEF7DAFF08B1FBF7FEFD40F62C7034
:1056F000C2F20040FEF7B4FF18B1BDE81040FBF75E
:10570000F3BD10BD80B541F2E80041F20041C2F2A4
:105710000040C4F201010C2201604FF4E13141600C
:105720000021C0E90211016142614FF44072C0E9F9
:105730000621C0E908118162FFF795F908B1FBF76E
:10574000D3FD41F2E8000021C2F20040FEF7CAFF9B
:1057500008B1FBF7C9FD41F2E8000021C2F20040A8
:10576000FEF79BFF08B1FBF7BFFD41F2E800C2F274
:105770000040FEF775FF18B1BDE88040FBF7B4BDEF
:1057800080BD80B540F628100021C2F20040C4F26E
:1057900008010160092101714FF40071C1800221EB
:1057A00041720021C0F80A10C181FCF7EBFE18B16C
:1057B000BDE88040FBF798BD80BD0000FEE700001B
:1057C000FEE70000000000000000000000000000F4
:1057D000EFF30980BFF36F8F154B1A681EF0100F9F
:1057E00008BF20ED108A20E9F04F10602DE9090074
:1057F0004FF0500080F31188BFF34F8FBFF36F8FCE
:1058000003F01AFC4FF0000080F31188BDE8090096
:1058100019680868B0E8F04F1EF0100F08BFB0EC30
:10582000108A80F30988BFF36F8F704700BF00BFF5
:1058300098130024F0B581B044F20047C5F6020782
:10584000BA6A02F00302032A01D1012073E005467F
:1058500038680C4620F080603860FCF739FC06465A
:105860003868000105D5FCF733FC801B0228F7D906
:105870005EE0B86AEE6895E80E0020F47C30012CFA
:1058800040EA0130A2F101016FF35F214FF47E4243
:1058900002EB4322B86292B24FF0FE4302EB0100EA
:1058A0004FF4FE012A6901EB064101F4FE0103EB0E
:1058B0000262084402F0FE410844B863F86A69696C
:1058C00020F0C00040EA0100F862F86AA96920F0FF
:1058D000200040EA0100F862F86A4FF6F87120F003
:1058E0001000F862F86BEA6920EA01004FF4001139
:1058F00040EAC200F863F86A08BF4FF4801140F034
:105900001000002CF86208BF4FF40021F86A084329
:10591000F862386840F080603860FCF7D9FB0446D4
:105920003868000106D4FCF7D3FB001B0328F7D32B
:10593000032000E0002001B0F0BD0000F0B581B010
:1059400044F20047C5F60207BA6A02F00302032ACE
:1059500001D1012073E0054638680C4620F08050E4
:105960003860FCF7B5FB06463868800005D5FCF7C3
:10597000AFFB801B0228F7D95EE0B86AEE6895E8B5
:105980000E0020F07C70012C40EA0150A2F10101D0
:105990006FF35F214FF47E4202EB4322B86292B272
:1059A0004FF0FE4302EB01004FF4FE012A6901EBC8
:1059B000064101F4FE0103EB0262084402F0FE41DD
:1059C00008443864F86A696920F4406040EA0100DC
:1059D000F862F86AA96920F4007040EA0100F862F0
:1059E000F86A4FF6F87120F48070F862786CEA6912
:1059F00020EA01004FF0807140EAC2007864F86A42
:105A000008BF4FF4000140F48070002CF86208BF1A
:105A10004FF48001F86A0843F862386840F080501B
:105A20003860FCF755FB04463868800006D4FCF764
:105A30004FFB001B0328F7D3032000E0002001B038
:105A4000F0BD0000000000000000000000000000A9
:105A5000074B19680868B0E8F04F80F30988BFF376
:105A60006F8F4FF0000080F31188704700BF00BFB8
:105A70009813002480B54EF21000CEF200000068AA
:105A800003F00FFF012808BF80BDBDE8804003F090
:105A9000B0BB4EF6885042F2000CCEF20000C5F2C8
:105AA000002C016841F470010160DCF8000000F096
:105AB0000F00062806D8DCF80000072161F3030078
:105AC000CCF8000044F200404EF67F52C5F60200CA
:105AD000CEF6F622016841F001010160002101616A
