:020000040800F2
:1000000048510020550200082D2100084D1D000810
:10001000292100084D050008012600080000000005
:10002000000000000000000000000000A121000806
:10003000AF0500080000000031210008CD210008B4
:100040006F0200086F0200086F0200086F020008CC
:100050006F0200086F0200086F0200086F020008BC
:100060006F0200086F0200086F0200086F020008AC
:100070006F0200086F0200086F0200086F0200089C
:100080006F0200086F0200086F0200087305000885
:100090004F0500085B05000867050008DF0500083C
:1000A0006F0200086F0200086F0200086F0200086C
:1000B000A92200086F0200086F0200086F02000802
:1000C0006F0200086F0200086F0200086F0200084C
:1000D0006F0200086F0200086F020008F525000893
:1000E000B10500086F0200086F0200086F020008E7
:1000F0006F0200086F0200086F0200086F0200081C
:100100006F0200086F0200086F0200086F0200080B
:10011000ED2300086F020008B52200086F020008F6
:100120006F0200086F0200086F0200086F020008EB
:100130006F0200086F0200086F020008A3050008A4
:100140007F0500088B050008970500086F0200086E
:100150006F0200086F0200086F0200086F020008BB
:100160006F0200086F0200086F0200086F020008AB
:100170006F0200086F0200086F0200080000000014
:100180006F0200086F02000800F002F800F052F859
:1001900014A696E8000CB244B344DA4501D100F04D
:1001A00049F8BAE80F000FA696E83000A5EB040561
:1001B00004EB0607AAEB0704A7F101074FEA1515A0
:1001C0004FEA3414A4F10104AC4201D300F032F838
:1001D00013F0010F18BFFB1A43F0010300F001F800
:1001E000DBE7184794410000B4410000103A24BFF7
:1001F00078C878C1FAD8520724BF30C830C144BF8C
:1002000004680C6070470000704700000023002461
:1002100000250026103A28BF78C1FBD8520728BF16
:1002200030C148BF0B6070471FB504F025F81FBDF3
:1002300010B510BD00F04FF91146FFF7F5FF02F0C1
:10024000E5F900F06DF903B4FFF7F2FF03BC00F02D
:1002500075F900000948804709480047FEE7FEE7B6
:10026000FEE7FEE7FEE7FEE7FEE7FEE7FEE7FEE766
:1002700004480549054A064B7047000097220008CC
:1002800089010008484B002048510020484D0020BB
:10029000484D002053EA020C00F069802DE9F04B34
:1002A0004FF00006002B1FBFB3FA83F503FA05F4E5
:1002B00024FA05F65E4012BF1643B2FA82F502FA3E
:1002C00005F4C5F120051EBF22FA05FC44EA0C0422
:1002D000203556EA044C4FEA144418BF641C4FF012
:1002E00000084FF00009904271EB030C39D300294C
:1002F00019BFB1FA81F701FA07F6B0FA80F700FAF0
:1003000007F6C7F120071EBF20FA07FC46EA0C06D5
:100310002037B6FBF4FCA7EB0507103F07F01F0BD7
:10032000CBF120062CFA06F60CFA0BFB44BFB346C1
:100330000026202FA4BF5E464FF0000B5BEA060CA0
:1003400008BF4FF0010B19EB0B0948EB0608ABFB9C
:10035000027C06FB02CC0BFB03CCC01B71EB0C0137
:10036000C1E70B46024641464846BDE8F08B13B54F
:10037000084318BF4FF0FF300146AFF30080BDE8DF
:100380001C407047032A40F2308010F0030C00F04C
:10039000158011F8013BBCF1020F624498BF11F8BF
:1003A00001CB00F8013B38BF11F8013BA2F1040278
:1003B00098BF00F801CB38BF00F8013B11F00303F0
:1003C00000F05780083AC0F0088051F8043B083A22
:1003D00051F804CBA0E80810F5E7121D5CBF51F8F6
:1003E000043B40F8043BAFF30080D20724BF11F870
:1003F000013B11F801CB48BF11F8012B24BF00F8D5
:10040000013B00F801CB48BF00F8012B704702F018
:10041000FF0343EA032242EA024200F002B84FF02F
:10042000000200B5134694469646203922BFA0E844
:100430000C50A0E80C50B1F12001BFF4F7AF090750
:1004400028BFA0E80C5048BF0CC05DF804EB890041
:1004500028BF40F8042B08BF704748BF20F8022B84
:1004600011F0804F18BF00F8012B7047704770479C
:10047000704710B5203AC0F00B80B1E81850A0E8E2
:100480001850B1E81850A0E81850203ABFF4F5AF62
:100490005FEA027C24BFB1E81850A0E8185044BFBE
:1004A00018C918C0BDE810405FEA827C24BF51F82B
:1004B000043B40F8043B08BF7047D20728BF31F81F
:1004C000023B48BF11F8012B28BF20F8023B48BF70
:1004D00000F8012B7047754600F02CF8AE46050079
:1004E0006946534620F00700854618B020B5FFF74F
:1004F000BFFEBDE820404FF000064FF000074FF070
:1005000000084FF0000BAC46ACE8C009ACE8C009ED
:10051000ACE8C009ACE8C00921F007018D4670477E
:1005200010B50446AFF300802046BDE81040FFF749
:100530008ABE0000004870471000002001491820C2
:10054000ABBEFEE72600020070470000FEE740F267
:100550008000C2F2000000F049B840F28000C2F210
:10056000000000F043B840F28000C2F2000000F04A
:100570003DB840F28000C2F2000000F037B840F20F
:10058000A800C2F2000000F031B840F2A800C2F2A8
:10059000000000F02BB840F2A800C2F2000000F00A
:1005A00025B840F2A800C2F2000000F01FB8704762
:1005B00080B54FF4006000F0B4FA4FF4805000F0C2
:1005C000B0FA4FF4005000F0ACFA4FF4804000F065
:1005D000A8FA4FF40040BDE8804000F0A2BA8020A5
:1005E00000F09FBA72B600BFFEE770472DE9F04FEA
:1005F00081B0044600684669D0F804908768D0F856
:100600000CB0D0F810A0D0F81880F10701D1002567
:1006100049E0F9070ED00121BA07816007D47807B5
:100620001DD4380721D4204600F021FA02E02046EC
:1006300000F01EFA0025F8051CD520684FF48071E3
:10064000BA05816007D478050CD4380510D420464B
:1006500000F00FFA0EE0204600F00CFA0AE04FF42A
:100660000065E8E705F5005504E04FF48055E2E742
:1006700005F58045F80316D520684FF48031BA039C
:10068000816007D4780309D438030AD4204600F0E7
:10069000F2F908E0204600F0EFF904E005F5004526
:1006A00001E005F58035300707D51BF0100004D0B8
:1006B000206845F400751021C160700708D51BF053
:1006C000080005D020680821C160204600F0CAF962
:1006D000B00706D52068C068800702D0204600F029
:1006E000C2F9700607D51AF0100004D0206845F44E
:1006F000806510210161B00608D51AF0080005D008
:10070000206808210161204600F0AEF9F00606D508
:1007100020680069800702D0204600F0A6F9B003E7
:1007200008D519F0100005D020681021416020463E
:1007300000F09CF9F00308D519F0080005D02068F6
:1007400008214160204600F098F9300440D55FEA66
:1007500049703AD506F4807008EA102028435FEA11
:100760008871014648BF41F00201B20558BF0146F9
:100770005FEA48700D4648BF45F00405700558BF54
:100780000D46300521D518F070001ED01038000934
:10079000052815D8DFE800F0030F090C061245F014
:1007A00008050DE045F080050AE045F0200507E06A
:1007B00045F0400504E045F0100501E045F4807582
:1007C0002068816921F07001816120680421416005
:1007D0004DB1606A40EA05012046616201B0BDE8A2
:1007E000F04FFFF702BF01B0BDE8F08FD0B1B0B558
:1007F000044690F8200010B9204600F06FF82068F9
:10080000016841F00101016000F067FA054600BF90
:1008100020684168C90707D100F05FFA401B0B2828
:10082000F6D312E001207047016821F00201016057
:1008300000F053FA054600BF2068416889070BD5D0
:1008400000F04BFA401B0B28F6D3606A052140F4F8
:100850000030606201203EE0217E0268012922F022
:10086000800208BF80320260617E0268012922F0A6
:10087000400208BF40320260A17E0268012922F0D6
:10088000200208BF20320260E17E0268012922F0C6
:10089000100218BF10320260217F0268012922F085
:1008A000080208BF08320260617F0268012922F055
:1008B000040208BF04320260D4E901C2D4E903355E
:1008C00061691A432A431143ACF101021143C1612A
:1008D00000200121606284F82010B0BD10B586B000
:1008E000044601A81421FFF79AFD206846F600018E
:1008F000C4F20001884255D046F20041C4F2000122
:10090000884240F0AD8040F27001C2F200010A68F6
:1009100043F63000C4F20200531C0B6052B90021B0
:100920000091016941F000710161016901F00071FC
:100930000091009900210091026842F001020260DA
:10094000006800F00100009000984FF4C050019042
:100950000220CDE902010320049009200590002027
:10096000C4F2020001A900F0E7F8132002210022DE
:1009700000F06AFA132000F057FA14200221002236
:1009800000F062FA142000F04FFA15200221002234
:1009900000F05AFA152000F047FA16200221002232
:1009A000162458E043F630010020C4F20201009002
:1009B0000A6942F080620A610A6902F0806200926C
:1009C000009A40F27002C2F2000213685C1C1460CC
:1009D0004BB900900A6942F000720A610A6902F09C
:1009E00000720092009A00900A6842F002020A60C7
:1009F000096801F00201009100994FF44051019102
:100A00000221CDE902100320049009200590002066
:100A1000C4F2020000F5806001A900F08DF83F20CB
:100A20000521002200F010FA3F2000F0FDF94020DF
:100A30000521002200F008FA402000F0F5F94120DD
:100A40000521002200F000FA412000F0EDF94220DB
:100A500005210022422400F0F7F9204600F0E4F9D5
:100A600006B010BD704770477047704770477047B9
:100A700070477047704770477047704770B5866D14
:100A8000044600F02AF994F83510022925D10546CC
:100A90002068216C026822F016020260426922F08E
:100AA0008002426109B9A16C19B1016821F0080105
:100AB0000160016821F00101016000BF2068006849
:100AC000C0070ED000F009F9401B0628F6D32020FD
:100AD0006065032084F835000CE08020606501200B
:100AE00008E0E06D3F2101FA00F0B060012084F8D9
:100AF00035000020002184F8341070BD90F83510C6
:100B0000022909D1052180F835100068016821F01B
:100B1000010101600020704780214165012070477C
:100B2000704743F61441C4F201010A68024214BF3F
:100B300008607047FFF7F4BF2DE9F04F83B000F174
:100B4000200200F13E4741F60045009207F1FF7791
:100B5000C4F2020508224FEAB726A84208BF0722BE
:100B600000254FF000084FF00009072E38BF4FEA6C
:100B7000B72201920F68012202FA09FE17EA0E0A53
:100B800000F09980D1F804C003220CF003077E1E08
:100B900002FA08F4012E6FEA040B11D88468CE68BB
:100BA00004EA0B0406FA08F634438460446824EA35
:100BB0000E06CCF3001404FA09F42643466003E061
:100BC000032F01D103271EE0C6688C6806EA0B06D6
:100BD00004FA08F42643022FC66014D16FF0030212
:100BE000009E02EA590756F807C005F01C040F22C0
:100BF0000B69A2402CEA0202A3401A43F251D1F839
:100C000004C00CF00307026807FA08F302EA0B02BB
:100C10001A431CF4403F02604DD0002243F64403C7
:100C20000292C4F202031A6843F6004442F480427E
:100C30001A601A68C4F2010402F480420292029A15
:100C400029F003024FF6084C2244CFF6FF7C52F8FD
:100C50000C3005F00C070F26BE40B343019E06FA88
:100C600007F73B4342F80C30A2684B6842EA0A0798
:100C700043F60C4CDE0258BF22EA0A07A760C4F212
:100C8000010CDCF800209E0242EA0A0758BF22EA63
:100C90000A07CCF8007062689E0342EA0A0758BF50
:100CA00022EA0A0767602268DB0342EA0A0758BFA4
:100CB00022EA0A07276009F1010908F10208B9F1DF
:100CC000100F05F104057FF455AF03B0BDE8F08FB8
:100CD000002A08BF09048161704744F26C30C2F2F7
:100CE00000000068704740F2040044F26C31C2F228
:100CF0000000C2F2000100780A68104408607047E2
:100D000080B543F60040C4F20200016841F400716E
:100D10000160016841F480610160016841F4807103
:100D20000160032000F0BBF80F2000F004F800F091
:100D30005AF8002080BD70B586B0002543F640010A
:100D40000195C4F202010A68044642F010020A60EA
:100D5000096801A801F0100101910199694600F0AC
:100D600058F9049E002E18BF012600F071F94DF6C7
:100D70008361B040C4F21B31A0FB01014FF0FF3092
:100D800000EB914140F2181041F20002C2F2000063
:100D9000C4F2000240F2E733C0E90021C0E9025387
:100DA0000561856100F0BBFB0546C8B940F218102B
:100DB000C2F2000000F000FC054688B9362000F0C1
:100DC00033F80F2C0BD8362021460022002500F0E6
:100DD0003BF840F20800C2F20000046000E0012588
:100DE000284606B070BD82B0002043F64001019055
:100DF000C4F202014A6842F480424A604A6802F43E
:100E000080420192019A00900868002240F08050D0
:100E1000086008680F2100F08050009000986FF083
:100E2000010002B000F010B800280CD400F01F013F
:100E3000012202FA01F11C2202EAD0004EF2001255
:100E4000CEF200028150704710B54EF60C5CCEF227
:100E5000000CDCF80030C3F3022E8EF00704042CE3
:100E600028BF0424BEF103034FF0FF3E0EFA04F442
:100E700038BF0023A14399400EFA03F39A4311436C
:100E800000F00F0200F160430901043A03F56443E6
:100E90006244002848BF02F10C03197010BD4EF6E1
:100EA0000C51CEF200010A684FF6FF031A4060F3BE
:100EB0000A2242F0806040F0FD7008607047000038
:100EC000002872D02DE9F04143F60008C4F2020870
:100ED0000446D8F800040D4600F00700884207D207
:100EE00088F80054D8F8000400F00700A84266D142
:100EF0002068810717D5410705D5D8F8081041F4B7
:100F0000E051C8F80810010705D5D8F8081041F4D9
:100F10006041C8F80810D8F80810A26821F0F00164
:100F20001143C8F80810C00741D1D8F8000400F0F8
:100F30000700A84207D988F80054D8F8000400F048
:100F40000700A8423BD12068410707D5D8F8081010
:100F5000E26821F4E0511143C8F80810000708D5F1
:100F6000D8F80800216920F4604040EAC100C8F8C0
:100F7000080000F093F8D8F8081044F29222C1F368
:100F80000311C0F60002515C40F2000220FA01F1A8
:100F900040F20800C2F200000068C2F200021160D4
:100FA000FFF7C9FE0020BDE8F081012070476068AE
:100FB000811E022906D2D8F80010890108D4012028
:100FC000BDE8F08101281FD1D8F800108903F6D5BB
:100FD000D8F8081021F003010843C8F80800FFF70B
:100FE0007CFE064641F28837D8F80800616800F0B8
:100FF0000C00B0EB810F98D0FFF76FFE801BB8425A
:10100000F2D90320BDE8F081D8F800108907D6D5C1
:10101000DEE70F22026043F60802C4F20202136800
:1010200003F003034360136803F0F0038360136865
:1010300003F4E053C360D2F800C04FF4E05303EA76
:10104000DC030361D2F8F80300F007000860704782
:1010500040F2000043F60801C2F20000C4F20201AF
:101060000068096844F2A222C1F38221C0F600029E
:10107000515CC840704740F2000043F60801C2F2DC
:101080000000C4F202010068096844F2A222C1F320
:101090004231C0F60002515CC840704710B543F6BB
:1010A0000404C4F20204606800F00C0142F2004043
:1010B0000829C0F2F40007D0042918BF10BD41F27E
:1010C0000020C0F27A0010BD216801F03F022168C3
:1010D00023684902C3F3881105D4A1FB0001002352
:1010E000FFF7D8F806E041F20020C0F27A0048434A
:1010F000B0FBF2F021680222C1F3014102EB410191
:10110000B0FBF1F010BD000000286BD02DE9F041DC
:1011100082B00446007843F60006C007C4F2020617
:101120000CD0B06800F00C00042840F098803068C3
:10113000800303D56068002800F0AB80207880072A
:101140001BD5B06810F00C0F09D0B06800F00C008F
:10115000082840F0A0807068400200F19C80306850
:10116000800703D5E068012840F09380306821694A
:1011700020F0F80040EAC10030602078000733D446
:101180002078400745D4A56955B3B06800F00C003D
:10119000082840F0B980012D7BD07068E16900F427
:1011A00080028A4275D1216A00F03F028A4270D1E2
:1011B00047F6C071626A0140B1EB821F69D1A16A32
:1011C0004FF6FF73C903994300F44032A1F5803113
:1011D0008A425ED1E16A00F07060B0EB016F58D1D5
:1011E0000020F3E0012070476069002878D00020DB
:1011F000C4F247200121C0F8801EFFF76EFD0546AE
:10120000706F8007BCD4FFF768FD401B0228F7D938
:10121000DBE0306C5FEAC0080AD400200190306C3B
:1012200040F080503064306C00F0805001900198A4
:1012300047F20007C4F200073868C00542D4386896
:1012400040F480703860FFF748FD05463868C005F7
:1012500038D4FFF742FD401B0228F7D9B5E0B0684B
:1012600000F00C00082803D1706840023FF55FAF22
:1012700061683068B1F5803F07D0B1F5A02F40F02C
:101280008E8040F480203060306840F480303060E0
:101290008EE001209AE0E068002840F20000C4F2ED
:1012A000472053D001210160FFF717FD054600BF1D
:1012B000306880073FF55AAFFFF70FFD401B02284B
:1012C000F6D982E0A168306F012905D005294FD1F8
:1012D00040F004003067306F40F00100306750E0AC
:1012E0000020C4F247200021C0F8801EFFF7F5FC63
:1012F000054600BF706F80077FF542AFFFF7EDFC3A
:10130000401B0228F6D960E00027C4F247270020DE
:101310003866FFF7E2FC022D05460BD130688001EC
:1013200057D5FFF7DAFC401B02284FF00300F5D930
:101330004CE000BF306880017FF552AFFFF7CDFC75
:10134000401B02284FF00300F4D93FE00021016068
:10135000FFF7C3FC054600BF306880077FF50DAF7F
:10136000FFF7BBFC401B02284FF00300F4D92DE02F
:1013700020F001003067306F002920F00400306752
:1013800048D0FFF7AAFC054641F28837306F800746
:1013900051D4FFF7A2FC401BB842F7D915E020F466
:1013A000803030603068002920F4802030604BD0DD
:1013B000FFF793FC054600BF306880033FF5BEAEE3
:1013C000FFF78BFC401B6428F6D9032002B0BDE870
:1013D000F08104F11C052FCD084340EA8210D903A7
:1013E0004FF6FF729143A1F5803140EA0560084352
:1013F000706001203866FFF770FC04463068800199
:101400003FF5EEAEFFF769FC001B02284FF003002A
:10141000F4D9DBE7FFF761FC054641F2883700BFEE
:10142000306F800707D5FFF758FC401BB8424FF0DC
:101430000300F5D9CAE7B8F1000F3FF5A4AE306C50
:1014400020F0805030649EE6FFF747FC054600BF61
:10145000306880037FF572AEFFF73FFC401B6428C5
:101460004FF00300F4D9B1E77047704790F83C2083
:10147000012A4FF0020250D010B580F83D200268DA
:10148000D2F804E0D2F808C00C682EF070032343B1
:1014900041F2FF74C4F20004A24253600BDC40F23C
:1014A000FF73C4F200039A4213DCB2F1804F27D0DD
:1014B00040F2004315E040F2FF33C4F201039A42C8
:1014C00012DC41F60003C4F200039A4218D0002354
:1014D00012E040F60003C4F200039A4210D040F636
:1014E0000043C4F2000309E044F20003C4F2010324
:1014F0009A4205D040F20043C4F201039A4204D15B
:1015000049682CF08003194391600121002280F882
:101510003D1080F83C20BDE810401046704740B3B5
:1015200010B5044690F83D0028B9002084F83C002E
:10153000204600F020F8022084F83D002068211D9C
:1015400000F0BEFE012084F8460084F83E0084F8D6
:101550003F0084F8400084F8410084F8420084F899
:10156000430084F8440084F8450084F83D000020DE
:1015700010BD012070470068B0F1804F18BF704760
:1015800080B582B00020019043F64000C4F2020012
:101590000168002241F0010101600068052100F0AE
:1015A0000100019001981C20FFF74EFC1C2002B0A6
:1015B000BDE88040FFF738BC90F83D1001291CBF02
:1015C00001207047022180F83D10006841F2FF724F
:1015D000C168C4F20002904241F00101C1600BDC1D
:1015E00040F2FF71C4F20001884213DCB0F1804F79
:1015F00027D040F2004115E040F2FF31C4F2010172
:10160000884212DC41F60001C4F20001884218D081
:10161000002112E040F60001C4F20001884210D01F
:1016200040F60041C4F2000109E044F20001C4F2B6
:101630000101884205D040F20041C4F20101884214
:1016400004D1816801F00701062903D0016841F047
:10165000010101600020704790F83C20012A4FF002
:1016600002026BD080B580F83D20D0F800C04FF664
:101670007772DCF8083023EA0202CCF808200B6805
:101680004F2B28DC1F2B44DD202B45D0302B43D0A3
:10169000402B40F0AC80D1F804E0C968DCF8203081
:1016A000DCF8202022F00102CCF82020DCF8182001
:1016B00022F0F00242EA011123F00A0242EA0E028D
:1016C000CCF81810CCF82020DCF8081041F04701C5
:1016D00021F0300127E06F2B32DDB3F5005F73D0CE
:1016E000B3F5805F21D0702B40F08180D1E901E318
:1016F000C968DCF8082043EA0E0322F47F4243EA7B
:1017000001211143CCF80810DCF8081041F07701F2
:1017100009E00BB1102B6AD1DCF8081021F0700140
:10172000194341F00701CCF808100022012180F88C
:101730003D10002180F83C10BDE880401046704705
:10174000502B21D0602B52D1D1F804E0C968DCF8CD
:101750002030DCF8202022F01002CCF82020DCF829
:10176000182022F4704242EA013123F0A00242EA3A
:101770000E12CCF81810CCF82020DCF8081041F03C
:10178000670121F01001CEE7D1F804E0C968DCF868
:101790002030DCF8202022F00102CCF82020DCF8F8
:1017A000182022F0F00242EA011123F00A0242EA74
:1017B0000E02CCF81810CCF82020DCF8081041F00C
:1017C000570121F02001AEE7D1E901E3C968DCF857
:1017D000082043EA0E0322F47F4243EA0121114329
:1017E000CCF80810DCF8081041F480419BE7012296
:1017F0009CE7704770B504460068C5680669B10784
:1018000016D515F0020113D06FF00201016101211C
:1018100021778069800703D02046FFF7EAFF05E0C3
:10182000204600F089F8204600F087F80020207755
:10183000700718D515F0040015D020686FF004016A
:10184000016102212177806910F4407F03D0204696
:10185000FFF7CFFF05E0204600F06EF8204600F0CD
:101860006CF800202077300717D515F0080014D049
:1018700020686FF00801016104212177C0698007A9
:1018800003D02046FFF7B5FF05E0204600F054F8EE
:10189000204600F052F800202077F00618D515F009
:1018A000100015D020686FF0100101610821217728
:1018B000C06910F4407F03D02046FFF79AFF05E08F
:1018C000204600F039F8204600F037F80020207755
:1018D000F00718BF15F0010006D020686FF0010175
:1018E0000161204600F02AF8300609D515F0800085
:1018F00006D020686FF0800101612046FFF7B4FD3B
:10190000700609D515F0400006D020686FF0400140
:101910000161204600F01CF8B00658BF70BD15F0FC
:10192000200008D021686FF0200220460A61BDE83F
:101930007040FFF79ABD70BD70477047006841F274
:101940000001C4F20001884218BF7047FFF7CBB90D
:101950007047704770470000B0B582B00446006819
:101960000168C368426901F02F05202D03F02005AE
:1019700006D12DB1204602B0BDE8B04000F06ABDEE
:101980005FEA017C1EBF02F0010E03F4907212EBBD
:101990000E026ED1226BCD0643D5012A41D113F040
:1019A00010023ED00021019101680191416801912E
:1019B00001994069400600F1CB80A08DE18DE28D58
:1019C000002A00F01581884200F01281401A00BF01
:1019D000216851E8031F226821F4907142E8031343
:1019E000002BF5D1216851E8051F226821F0010183
:1019F00042E80513002BF5D1202184F84210002184
:101A0000216300BF216851E8031F226821F0100103
:101A100042E80313002BF5D1022281B22046626313
:101A2000DCE00A0640F1828013F0800200F07E8044
:101A300094F84110212940F0DB80A168B1F5805F66
:101A400003D12169002900F0DB80216A4A1C22624F
:101A500009784160E18C01390A04E18440F0C880D2
:101A6000C16821F08001C160C16841F04001C160DE
:101A7000BEE0CA0718BF13F4807203D0626C42F054
:101A8000010262644A0706D5BEF1000F03D0626C02
:101A900042F0020262648A0706D5BEF1000F03D04D
:101AA000626C42F004026264BCF1000F06D55EEA8B
:101AB000050203D0626C42F008026264626C002A84
:101AC00000F09680890604D51DB1204600F0C2FCC6
:101AD00020684069616C00F0400001F00801401886
:101AE00000F08180204600F08DFC206840694006AF
:101AF00040F18080206850E8050F216820F0400008
:101B000041E80502002AF5D1E06B002872D042F2CC
:101B1000F931C0F600010165FEF7F0FF002867D03B
:101B2000E06B016D02B0BDE8B040084749065FD5E3
:101B300013F040015CD0C16821F04001C160202158
:101B4000204684F8411002B0BDE8B04000F0FCB877
:101B5000E06B016849688AB2002A49D0A38D9A4295
:101B600046D2E185C069B0F5807F30D0206850E86A
:101B7000030F216820F4807041E80302002AF5D1A8
:101B8000206850E8050F216820F0010041E80502B7
:101B9000002AF5D1206850E8050F216820F04000A8
:101BA00041E80502002AF5D1202084F842000020F7
:101BB000206300BF206850E8030F216820F0100068
:101BC00041E80302002AF5D1E06BFEF757FF02203F
:101BD0006063A08DE18D401A81B2204602B0BDE85D
:101BE000B040FFF7B6BE2046FFF7B4FE00206064A9
:101BF00002B0B0BD204602B0BDE8B040FFF7AABEBB
:101C0000216A31F8022B6FF35F224260216221E7E3
:101C100058B310B5044690F8410028B9002084F864
:101C20004000204600F023F8242084F8410020687A
:101C3000C16821F40051C160204600F06CFC2068AE
:101C4000016921F490410161416921F02A0141615A
:101C5000C16841F40051C16000202021606484F813
:101C6000411084F84210606310BD0120704710B528
:101C700086B0044601A81421FEF7D1FB206844F683
:101C80000001C4F20001884227D044F60041C4F2AA
:101C90000001884255D1002043F630010090C4F283
:101CA00002010A69342442F400220A610A6902F43A
:101CB00000220092009A0090086840F0040008603A
:101CC0000868082100F004000090009840F20040ED
:101CD000C4F2020000F580601EE0002043F63001EF
:101CE0000090C4F202010A69272442F480220A61AA
:101CF0000A6902F480220092009A0090086840F07D
:101D0000020008600868072100F0020000900098B7
:101D100040F20040C4F202004FF4406201920222FD
:101D20000292002203920322CDE9042101A9FEF7C9
:101D300003FF204605210022FFF786F82046FFF723
:101D400073F806B010BD704770470000FEE780B51D
:101D500040F2800046F20041C2F20000C4F20001ED
:101D60000322002380E80E0000F10C014FF4002C48
:101D70004FF4401E81E808504FF480710183C0F891
:101D80001A30FEF733FD18B1BDE88040FEF72ABCDB
:101D900080BD80B540F2A80046F60001C2F2000006
:101DA000C4F200010322002380E80E0000F10C01C0
:101DB0004FF4002C4FF4401E81E808504FF480711E
:101DC0000183C0F81A30FEF711FD18B1BDE880405C
:101DD000FEF708BC80BD80B542F2C51044F2D022A7
:101DE000C0F60000C0F60002002100F06DFC40F2D9
:101DF0007C01C2F20001086042F2456044F21832F0
:101E0000C0F60000C0F60002002100F05DFC40F2C8
:101E1000F411C2F20001086042F2056044F2AC2203
:101E2000C0F60000C0F60002002100F04DFC40F2B8
:101E30007801C2F20001086042F23D6044F2F422EF
:101E4000C0F60000C0F60002002100F03DFC40F2A8
:101E5000F011C2F20001086080BD2DE9F04F87B09B
:101E600002AC20461421FEF7DAFA002543F63000D2
:101E70000195C4F20200016840F2000941F004013A
:101E800001600168C4F2020901F0040101910199A5
:101E90000195016809F5A05641F020010160016833
:101EA000002201F0200101910199019501684FF490
:101EB000A07A41F080010160016801F08001019188
:101EC00001990195016841F010010160016801F07C
:101ED0001001019101990195016841F00201016031
:101EE000016801F00201019101990195016841F039
:101EF00001010160016801F0010101910199019561
:101F0000016841F00801016000684FF4A07100F021
:101F10000800019001983046FEF7DAFE09F5805777
:101F200038464FF410610022FEF7D2FE48464FF4C7
:101F300000410022FEF7CCFE09F5806840460821EA
:101F40000022FEF7C5FE02204FF0010B0490304640
:101F50002146CDF808A0CDF80CB04FF0020A059547
:101F6000FEF7EAFD802002904FF48810CDE90305CA
:101F700030462146FEF7E0FD4FF40070CDE9020A3D
:101F80000920069030462146CDE90455FEF7D4FDE0
:101F90004FF4605002904FF4441A30462146CDE988
:101FA00003A5FEF7C9FD4FF4404002A981E8010CEA
:101FB00030462146FEF7C0FD4FF42070CDE9020502
:101FC000384621460495FEF7B7FD4FF41060CDE981
:101FD000020B38462146CDE90455FEF7ADFD4FF41E
:101FE0000040CDE9020B48462146CDE90455FEF7F5
:101FF000A3FD602002900220CDE903050320059097
:102000000720069009F540602146FEF795FD08205F
:10201000CDE9020B40462146CDE90455FEF78CFD83
:10202000172002210022FEF70FFF1720FEF7FCFE0B
:10203000282005210022FEF707FF2820FEF7F4FEE6
:1020400007B0BDE8F08F80B586B040F2D000002127
:10205000C2F2000042F2107C0591CDE90311CDE9F6
:1020600000114FF080425323C0E9021C016180211E
:10207000C0E900238161FFF752FA08B1FEF7B2FA16
:102080004FF48050029040F2D000C2F2000002A94A
:10209000FFF7E2FA08B1FEF7A5FA40F2D000C2F26B
:1020A00000006946FFF7E2F908B1FEF79BFA06B0B7
:1020B00080BD80B540F2A81044F60041C2F2000095
:1020C000C4F2000100234FF00C0C4FF4E13280E821
:1020D0000E00C0E90333C0E905C3C361FFF798FDF3
:1020E00018B1BDE88040FEF77DBA80BD80B540F2F2
:1020F000601044F60001C2F20000C4F200010023A7
:102100004FF00C0C4FF4E13280E80E00C0E90333CD
:10211000C0E905C3C361FFF77BFD18B1BDE880408E
:10212000FEF760BA80BD0000FEE70000FEE7000099
:10213000EFF30980BFF36F8F154B1A681EF0100F75
:1021400008BF20ED108A20E9F04F10602DE909004A
:102150004FF0500080F31188BFF34F8FBFF36F8FA4
:1021600001F0F2F94FF0000080F31188BDE809009A
:1021700019680868B0E8F04F1EF0100F08BFB0EC07
:10218000108A80F30988BFF36F8F704700BF00BFCC
:10219000EC02002000000000000000000000000031
:1021A000074B19680868B0E8F04F80F30988BFF35F
:1021B0006F8F4FF0000080F31188704700BF00BFA1
:1021C000EC020020012000F041FAFBE780B54EF25E
:1021D0001000CEF20000006801F0E9FD012808BF00
:1021E00080BDBDE8804001F08CBA000070B592B0AF
:1021F00006AC20463021FEF712F901A81421FEF7A3
:102200000EF9002543F640000095C4F20200016873
:10221000022641F080510160006800F0805000907B
:10222000009847F200000095C4F20000016841F4F4
:1022300080410160006800F4804000900098012017
:1022400006904FF4803007904FF480000D900820E6
:102250000E904FF4A870CDE90F060420119020468F
:102260000C96FEF751FF10B172B600BFFEE70F20CB
:10227000CDE901064FF4A05004904FF48050059032
:1022800001A805210395FEF71BFE10B172B600BF31
:10229000FEE712B070BD4EF68850CEF20000016825
:1022A00041F470010160704740F2D000C2F20000BA
:1022B000FFF7A0BA40F21810C2F20000FFF79ABA76
:1022C00010B540F6FF3E0368C4F2000E40F2004C29
:1022D0007045C4F2010C0DDCB0F1804F17D040F214
:1022E0000042C4F20002904211D040F60002C4F253
:1022F00000020AE040F60042C4F20002904206D01A
:10230000604504D00022C4F20102904203D14A6821
:1023100023F07003134341F6FF72C4F200029042AF
:102320000DDC70451FDCB0F1804F3FD040F2004221
:10233000C4F20002904239D040F6000221E043F698
:10234000FF72C4F2010290421EDC42F20002C4F2AB
:10235000000290422AD00022C4F20102904225D00D
:10236000604523D026E040F60042C4F200029042CD
:102370001CD041F60002C4F20002904216D041F691
:102380000042C4F200020FE044F20002C4F2010273
:1023900090420BD044F60002C4F20102904205D0F4
:1023A00044F20042C4F20102904203D1CA6823F40D
:1023B0004073134323F080024B69D1F800E08C682E
:1023C0001A430260C46240F48062C0F828E06245AB
:1023D00004BF09690163012141610169C90708BF9F
:1023E00010BD016921F00101016110BD40F2A8108A
:1023F000C2F20000FFF7B0BA806B0021C185C18432
:10240000FFF7A8BA016851E8031F026821F4907130
:1024100042E80313002BF5D1016851E8051F02685B
:1024200021F0010142E80513002BF5D1016B0129D0
:102430000AD100BF016851E8031F026821F01001B2
:1024400042E80313002BF5D1202180F8421000212F
:102450000163704790F84210222918BF70478368C3
:102460000246B3F5805F08D152F8281F52F8183C95
:10247000002B48D003685B6809E052F8281F13B9A5
:102480000369002BF6D003685B6803F07F030B70D1
:10249000116801311160C18D01390A04C18500D074
:1024A00070470168CA6822F02002CA60CA6822F434
:1024B0008072CA604A6922F001024A61202180F8D4
:1024C000421000214163026B012A18BFFFF73BBC99
:1024D00081B00163016851E8031F026821F0100117
:1024E00042E80313002BF5D101680A68D20606D52D
:1024F000002200920A680092496800910099818D3B
:1025000001B0FFF726BA026852686FF35F2221F824
:10251000022B8162BFE7B0B50446006804F10803EE
:102520000ECB0569194325F440552A4302616269BF
:10253000E3691143C268194349F20C639A4311439A
:10254000C1604169A26921F4407141F20043114325
:1025500040F48062C4F201039A42416102D1FEF765
:102560008AFD01E0FEF774FDE1694FF69C75636832
:102570001922C0F6FF75B1F5004FA0FB02011CD176
:102580005A00DB0FFDF786FE48F21F51C5F2EB1132
:10259000A0FB01235A0905F1805302FB03003223FB
:1025A00003EBC000A0FB01014FF4F87000EA11102A
:1025B00000EB0210C1F3421118E09A009B0FFDF7E7
:1025C00069FE48F21F51C5F2EB11A0FB01235A0925
:1025D00002FB0500322303EB0010A0FB0101F020F9
:1025E00000EA511000EB0210C1F3431108442168C6
:1025F0008860B0BD40F26010C2F20000FFF7ACB9D5
:10260000FEE70000012000F021F8FBE7FEF778FB71
:10261000FFF7ECFDFFF721FCFFF799FBFFF7B9FB94
:10262000FFF711FDFFF762FDFFF743FD00F01CF817
:10263000FFF7D1FB00F02BF8FEE70000012000F0CF
:1026400005F8FBE7012000F001F8FBE7EFF3058157
:1026500011B16FF00500704720B180B500F0A2FE07
:10266000002080BD00207047EFF3058010B16FF0AF
:102670000500704740F27400C2F2000001680029B2
:1026800011BF4FF0FF30012101600020704710B5ED
:10269000EFF3058010B16FF0050413E040F2740011
:1026A000C2F20000016801290AD14EF61F51CEF294
:1026B000000100240C700221016000F0EBFE01E03B
:1026C0004FF0FF34204610BD2DE9F04184B00B4699
:1026D00000240394EFF30581B0B3A9BB32B3D2F861
:1026E00018E0BEF1000F08BF4FF0180EBEF1380F12
:1026F0002AD81179C90727D15769D2E902854FEA4B
:10270000970C1168002F664608BF8026B8F1000FAD
:102710001ED05C2D18D31269B2B1AFB1CDE900E281
:102720006246CDF8088001F007FB0EE080264FF0EE
:10273000180E002103AFB2B2CDE900E701F0CEFAE6
:102740000399012808BF0C46204604B0BDE8F0817B
:10275000002DF9D11269002AF6D1EBE7F0B581B06E
:102760000D4644F6383140F2EC26C2F20001C2F2C6
:1027700000060F6831680446081D00F0A3FC601CC9
:102780000BD155B13068011D44F61030C2F2000083
:1027900001B0BDE8F04000F0ECBC3068E4194460E2
:1027A0000BD340F2FC20C2F2000000683168043113
:1027B00001B0BDE8F04000F0BFBC40F2F420C2F22E
:1027C000000000683168043100F0B6FC44F69C203B
:1027D000C2F2000001688C4238BF046001B0F0BD55
:1027E0002DE9F047044600F0DBFC44F27030C2F201
:1027F0000000016840F2EC2701310160C2F20007DD
:10280000396844F6043A40F20436C2F2000AC2F2D1
:10281000000651B1DAF8000000283ED13868E16ABC
:10282000C06A884298BF3C6037E03C60006801287D
:1028300033D10025701900F071FC1435B5F58C6F9B
:10284000F8D144F66828C2F20008404600F066FC61
:1028500044F67C29C2F20009484600F05FFC44F6C9
:10286000B020C2F2000000F059FC44F62430C2F25D
:10287000000000F053FC44F61030C2F2000000F0FB
:102880004DFC40F2F420C2F20000C0F8008040F29B
:10289000FC20C2F20000C0F8009044F27C30C2F28A
:1028A0000000016801310160616444F28031C2F2CC
:1028B0000001E06A0A68904288BF086000EB80006F
:1028C00006EB8000211D00F054FC00F08BFCDAF8D0
:1028D000000078B13868E16AC06A88420AD24EF6D0
:1028E0000450CEF200004FF080510160BFF34F8FD3
:1028F000BFF36F8FBDE8F08770B582B000F050FC79
:1029000044F63C36C2F20006306850BB44F63C2424
:10291000C2F20004204600F001FC44F65025C2F249
:102920000005284600F0FAFB40F2F020C2F2000059
:10293000046040F20030C2F2000040F2F81240F2AF
:10294000982305600025C2F20002C2F200030A20AB
:102950001021009500F0ECFE306010B103A100F0F2
:10296000E9FC02B0BDE8704000F03CBC546D72510F
:102970000000000070B5866B036C0446DBB11546A1
:1029800012B3E0681A46FDF7FDFCE168206C22688E
:10299000091A9142E16003D2A16840420844E06014
:1029A000A81EB0FA80F040093146002E18BF012160
:1029B0000840361A15E02068002598B9A06801F093
:1029C000C3FAA56005460DE060681A46FDF7DAFC1B
:1029D000D4E90101226C10448842606001D3206870
:1029E00060600025711C2846A16370BD10B50446C7
:1029F00090F85900022808BF10BD012803D038B94B
:102A0000206B00F007FC2046BDE8104000F002BC3F
:102A10004FF0500080F31188BFF36F8FBFF34F8FDB
:102A2000FEE7000044F2743540F2043A4EF60458D2
:102A300044F6243744F27036C2F20005C2F2000AAE
:102A4000CEF200084FF08059C2F20007C2F2000631
:102A5000286890B100F0A4FBF868C468201D00F05D
:102A600031FB30680138306028680138286000F098
:102A7000B9FB2046FFF7BAFFEAE7DAF800000228C0
:102A8000E6D3C8F80090BFF34F8FBFF36F8FDFE737
:102A90002DE9F0470A9C8246206B16460F46DDE979
:102AA00008599100A5229846FDF7B1FC206B00EB78
:102AB0008600A0F1040020F0070604F134004FF076
:102AC000000157B17A5C42541AB10F2901F101019A
:102AD000F8D1002084F8430000E001700027201D99
:102AE000372D28BF3725E562C4E9135700F021FBD5
:102AF00004F1180000F01DFBC5F13800A06130465C
:102B00005146424624616462676584F8587000F05B
:102B1000C7FAB9F1000F206018BFC9F80040BDE83E
:102B2000F087000080B544F60832C2F2000200BF10
:102B3000114612688242FBD34B68D0F804C001EB07
:102B4000030E864503D19C440846C1F804C000EB3F
:102B50000C0393420AD140F2F823C2F200031B682F
:102B60009A4203D0D2E90023634443608142026069
:102B700018BF086080BD8C46014641F804CF9445DB
:102B8000006108D940F2F0209A42C2F200000AD255
:102B90009C450ED207E08069D21A824209D240F2E7
:102BA0000030C2F2000080B5006800F0C5FA0020D5
:102BB00080BD01207047000008480068006880F36D
:102BC00008884FF0000080F3148862B661B6BFF346
:102BD0004F8FBFF36F8F00DF00BF000008ED00E0F4
:102BE0002DE9F04F81B0804601F0F3F840F2E8297A
:102BF000C2F20009D9F800108246884238D240F269
:102C0000F025C2F200052868016841B34FF0000BBF
:102C1000C068C6680468371D384600F053FA316A48
:102C20003046884796F82800400714D5B0692044FC
:102C3000A04207D9706028683946366100F07CFAF6
:102C400009E000BF3046002122460023CDF800B045
:102C500001F0E0FAA8B1286801680029D8D140F253
:102C60000031C2F200010A68086001202A6000E019
:102C70000020C8F800005046C9F800A001B0BDE827
:102C8000F08F4FF0500080F31188BFF36F8FBFF3C8
:102C90004F8F00BFFEE7000081B00020009040F29F
:102CA0000C00C2F2000000684FF0500181F311885F
:102CB000BFF36F8FBFF34F8F013001D0FEE700BF2E
:102CC00000980028FCD001B07047000086B040F2A8
:102CD000F02B44F63C37C2F2000B02ACC2F2000704
:102CE0004FF0000A01AD00BFDBF8000006681EB11E
:102CF000C068D0F8008001E04FF0000800F01CFC34
:102D00002046FFF76DFF029911B101F0AFF9B1E074
:102D10008146B6B1C84514D801F0A8F9DBF8000027
:102D20005E46C068D0F80CB00BF1040000F0CAF9A0
:102D30009BF82800410707D400F0FA008BF8280020
:102D400017E0E6B1002223E0DBF818004A4600EB6A
:102D5000080158464346FFF70EFF50B15846002180
:102D600042460023CDF800A001F054FA002800F0FC
:102D70009E80DBF8201058468847B3467AE040F240
:102D80000030C2F2000000680068B0FA80F042092A
:102D90003868A8EB090100F0E1FA01F067F90028B2
:102DA00068D14EF60450CEF200004FF08051016021
:102DB000BFF34F8FBFF36F8F5CE000BF0298B0F19D
:102DC000FF3F06DCDDE903200599904702980028C3
:102DD00050D4049E706910B1301D00F073F928467C
:102DE000FFF7FEFE0299092944D80246DFE801F008
:102DF00005050534253B0505342596F82800039B79
:102E0000B16940F0010086F8280019443046FFF708
:102E1000B2FE78B3316A3046884796F828004007FA
:102E200028D50398B16900230A1830460021CDF84F
:102E300000A001F0EFF9E8B92FE096F8280040F083
:102E40000101039886F82810B061E0B1811830467E
:102E50001346FFF790FE0DE096F8280000F0FE0004
:102E600086F8280006E096F828008107F6D4304658
:102E700000F0D0F938682146002200F027FE002833
:102E80007FF49CAF30E74FF0500080F31188BFF320
:102E90006F8FBFF34F8F00BFFEE74FF0500080F3FE
:102EA0001188BFF36F8FBFF34F8F00BFFEE74FF066
:102EB000500080F31188BFF36F8FBFF34F8F00BFB7
:102EC000FEE70000F0B581B0044600F069F994F91E
:102ED0004560012E0EDB04F1240500BF286848B1CF
:102EE000284601F07BF808B100F090FA70B2013E7C
:102EF0000128F3DCFF2684F8456000F073F900F048
:102F00004FF994F94470012F0EDB04F1100500BF56
:102F1000286848B1284601F061F808B100F076FA57
:102F200078B2013F0128F3DC84F8446001B0BDE8C9
:102F3000F04000F057B90000F0B581B0044600F051
:102F4000FBFA40F2F821C2F20001086848B144F6E9
:102F50006421C2F200010978002918BF4FF0004136
:102F60002EE040F26472C2F20002D01D530702F557
:102F7000705318BF20F0070244F60830C2F2000078
:102F80000027C0E9002723F00700A0F108030B6029
:102F900040E90277086844F698219B1AC2F20001C2
:102FA0000B6044F69021C2F200010B6044F66421EC
:102FB000C2E90003C2F2000101220A704FF0004191
:102FC000002C4FF000055AD0214058D124F00701C1
:102FD00044F6902610316207C2F2000608BF04F1E1
:102FE000080132684B1E934249D244F60832C2F2BD
:102FF000000217687B6800BF8B4205D23C681CB199
:1030000063683A462746F7E7874212D01568386862
:103010005B1A112B106012D3781842070BD04FF0B7
:10302000500080F31188BFF36F8FBFF34F8F00BF45
:10303000FEE7002523E043607960FFF773FD44F667
:10304000982178683268C2F200010B68121A9A421D
:10305000326038BF0A6044F66421C2F20001097888
:1030600044F6A422C2F20002002918BF40F000403A
:10307000136800210835C7E90010581C106000F0E3
:10308000F5FF680709D04FF0500080F31188BFF3B7
:103090006F8FBFF34F8F00BFFEE7284601B0F0BD32
:1030A000034642F6994021F00101C0F600004FF0BE
:1030B000807C03E903106FF00201A3F1440043E9AF
:1030C000091270470169D0E90132D1F804C09A6051
:1030D0008445536008BF4A600022026108680138D5
:1030E00008600868704744F28453C2F2000303602A
:1030F00044F28430C2F20000086080201060704703
:1031000044F6E013C2F20003036044F2E050C2F25E
:10311000000008604FF48070106070474FF0FF317E
:10312000024642F8081F00214260C0E90322016004
:10313000704700210161704780B5D1F800C01CF1D3
:10314000010207D000F108029646526813686345F1
:10315000FAD903E0D0F810E0DEF804204A6091606C
:10316000C1F808E0CEF8041008610168013101607F
:1031700080BDD0F800C0436808619A68C1E9013297
:10318000516099600CF1010101607047DFF80C009B
:10319000016841F4700101607047000088ED00E0B3
:1031A0004FF0500080F31188BFF36F8FBFF34F8F44
:1031B00040F20C00C2F2000001684A1C026001B13A
:1031C00070474EF60450CEF2000000680006F7D0BB
:1031D0004FF0500080F31188BFF36F8FBFF34F8F14
:1031E000FEE7000040F20C00C2F20000016839B1B5
:1031F0000139016018BF7047002080F311887047C3
:103200004FF0500080F31188BFF36F8FBFF34F8FE3
:10321000FEE70000B0B5D0B1044644F66420C2F227
:103220000000007854F8041C002818BF4FF000403C
:1032300008420DD0A4F108052A6892B14FF0500061
:1032400080F31188BFF36F8FBFF34F8FFEE7B0BDE0
:103250004FF0500080F31188BFF36F8FBFF34F8F93
:10326000FEE721EA000044F8040C00F065F944F69A
:103270009021C2F2000154F8040C0A68104408605E
:103280002846FFF74FFC44F6A820C2F20000016870
:1032900001310160BDE8B04000F0E8BE4EF2100020
:1032A000CEF2000000210160816040F20001C2F214
:1032B0000001096844F6D352C1F26202A1FB021276
:1032C0004FF0FF3101EB921141600721016070471F
:1032D000EFF30580102814D34EF2F031CEF2000146
:1032E000405C44F26431C2F200010978884208D29D
:1032F0004FF0500080F31188BFF36F8FBFF34F8FF3
:10330000FEE74EF60C50CEF2000044F26831006841
:10331000C2F20001096800F4E060884298BF70477B
:103320004FF0500080F31188BFF36F8FBFF34F8FC2
:10333000FEE7000044F6C42C0022C2F2000C03E0B9
:103340000132082A08BF70475CF83230002BF7D1F1
:103350000CEBC2034CF832105860704770B515463C
:103360000E460446FFF71CFF94F84400FF2804BFF4
:10337000002084F8440094F84500FF2804BF002092
:1033800084F84500FFF72EFFA06B28B904F1240054
:1033900031462A4600F05EF82046BDE87040FFF74F
:1033A00091BD000080B5C0B144F27831C2F2000195
:1033B0000A6842B14FF0500080F31188BFF36F8F5D
:1033C000BFF34F8FFEE70A6801320A600021FFF762
:1033D000C5F900F04BFE00B180BD4EF60450CEF2B0
:1033E00000004FF080510160BFF34F8FBFF36F8F2C
:1033F00080BD44F6A021C2F200010968016044F6D4
:103400003831C2F2000109684160704744F6443027
:10341000C2F20000012101607047000078B110B5D0
:103420000C4640F2EC21C2F2000109681831FFF7A6
:1034300083FE20460121BDE81040FFF78FB94FF011
:10344000500080F31188BFF36F8FBFF34F8F00BF21
:10345000FEE70000A0B1B0B50D4640F2EC21C2F28B
:103460000001096814461831FFF783FE002C18BFCD
:103470004FF0FF3528462146BDE8B040FFF76EB952
:103480004FF0500080F31188BFF36F8FBFF34F8F61
:10349000FEE70000B0B586B0002505A804A903AA80
:1034A000CDE90455FFF71FFEDDE90320059CCDE9BA
:1034B000005042F62520C0F600001DA10023029412
:1034C00000F03AFC44F69421C2F20001086010B307
:1034D00000F066FE411C20D001281CD14FF05000A6
:1034E00080F31188BFF36F8FBFF34F8F44F69C209A
:1034F000C2F200004FF0FF31016044F60430C2F226
:1035000000000121016044F63830C2F200000021C1
:10351000016000F061F806B0B0BD4FF0500080F3DC
:103520001188BFF36F8FBFF34F8F00BFFEE700BF5F
:1035300049444C450000000044F27830C2F20000DB
:10354000016801310160704744F27830C2F2000036
:10355000006830B144F64430C2F20000012101603D
:10356000704744F64430C2F20000002144F2803C2F
:103570000160C2F2000CDCF8001040F2043301EBF1
:103580008102C2F2000353F8220003EB8202B0B1C1
:103590005068436802F108008342536001D15B68C0
:1035A0005360D86840F2EC22C2F200021060CCF8FE
:1035B0000010704752F8140D01390028E8D1002995
:1035C000F8D14FF0500080F31188BFF36F8FBFF335
:1035D0004F8F00BFFEE70000B0B584B04EF600503C
:1035E000CEF200004CF27021C4F20F1102684B1CA5
:1035F0009A4208D14FF0500080F31188BFF36F8FCB
:10360000BFF34F8FFEE702688A4208D14FF05000A7
:1036100080F31188BFF36F8FBFF34F8FFEE74FF238
:10362000007CCFF6FF7C10F80C2044F26433029249
:10363000FF2200F80C2010F80C20C2F200038DF8D5
:1036400007209DF8072002F050021A7044F26832F9
:10365000C2F20002072313609DF90730B3F1FF3F68
:1036600046DC062313609DF80710013B49008DF8E6
:1036700007109DF907100029F4D4022B38D14FF41C
:1036800040711160029900F80C10016A41F4700158
:103690000162016A41F070410162FFF7FFFD40F2F3
:1036A0000C04C2F2000400252560FFF76FFD4EF602
:1036B0003470CEF20000016841F040410160FFF734
:1036C0007BFAFFF741FF039520684FF0500181F32B
:1036D0001188BFF36F8FBFF34F8F013002D000BF4F
:1036E000FEE700BF03980028FCD0002004B0B0BD66
:1036F0004FF0500080F31188BFF36F8FBFF34F8FEF
:10370000FEE780B54FF0500080F31188BFF36F8F54
:10371000BFF34F8F00F064FB30B14EF60450CEF291
:1037200000004FF080510160002080F3118880BDBF
:10373000B0B582B068B11C46ABB1F1B9EAB14FF097
:10374000500080F31188BFF36F8FBFF34F8F00BF1E
:10375000FEE74FF0500080F31188BFF36F8FBFF387
:103760004F8F00BFFEE74FF0500080F31188BFF38A
:103770006F8FBFF34F8F00BFFEE751B14AB94FF0D3
:10378000500080F31188BFF36F8FBFF34F8F00BFDE
:10379000FEE750230193019B502B13D1019B012382
:1037A000069D84F84630002908BF2246C4E90F016F
:1037B00020460121226000F00FF8204684F84C508A
:1037C00002B0B0BD4FF0500080F31188BFF36F8F8F
:1037D000BFF34F8FFEE7000018B370B504460E46E6
:1037E000FFF7DEFC2068D4E90F12002502FB01037D
:1037F000013901FB0201A563C4E90103FF20E16077
:1038000084F8440084F8450004F110009EB1FFF7ED
:1038100085FC04F12400FFF781FCFFF7E3FC0120A5
:1038200070BD4FF0500080F31188BFF36F8FBFF36E
:103830004F8F00BFFEE701680029EED000F0CEFBFD
:103840000028EAD04EF60450CEF200004FF080512E
:103850000160BFF34F8FBFF36F8FDEE72DE9F04FAD
:1038600083B00292B8B11D4617460E460446E1B138
:10387000022D03D1E06B012840F09D8000F097FA03
:10388000F8B9F7B14FF0500080F31188BFF36F8F94
:10389000BFF34F8FFEE74FF0500080F31188BFF366
:1038A0006F8FBFF34F8F00BFFEE7206C0028DFD083
:1038B0004FF0500080F31188BFF36F8FBFF34F8F2D
:1038C000FEE7FFF76DFCA06B022D5CD0E16B884238
:1038D00059D304F1100801206F460DF1080900BF0B
:1038E0000299002900F08180C00702D03846FFF716
:1038F00080FDFFF777FCFFF71FFEFFF751FC94F800
:103900004400FF2804BF002084F8440094F84500D8
:10391000FF2804BF002084F84500FFF763FC384609
:10392000494600F097F9002862D1FFF739FCD4F836
:1039300038A0D4F83CB0FFF755FCDA4516D102990F
:103940004046FFF76BFD2046FFF7BCFA00F08EFB08
:1039500088B94EF60450CEF200004FF0805101605D
:10396000BFF34F8FBFF36F8F05E000BF2046FFF717
:10397000A9FA00F07BFBFFF713FCA06BE16B884218
:103980004FF00000ACD2204631462A46FEF7F2FF47
:1039900054F8241FC9B1204600F020FB08B34EF6AE
:1039A0000450CEF200004FF080510160BFF34F8F02
:1039B000BFF36F8F15E04FF0500080F31188BFF315
:1039C0006F8FBFF34F8F00BFFEE750B14EF604502C
:1039D000CEF200004FF080510160BFF34F8FBFF374
:1039E0006F8FFFF7FFFB012008E0FFF7FBFB04E010
:1039F0002046FFF767FA00F039FB002003B0BDE86E
:103A0000F08F00002DE9F04381B0E8B11E469146E9
:103A100005460F4609B3022E02D1E86B012843D1B7
:103A2000FFF756FCEFF311884FF0500080F3118838
:103A3000BFF36F8FBFF34F8FA86B022E19D0E96BC6
:103A4000884216D300203CE04FF0500080F31188EC
:103A5000BFF36F8FBFF34F8FFEE7286C0028DAD0DB
:103A60004FF0500080F31188BFF36F8FBFF34F8F7B
:103A7000FEE795F84540A86B284639463246FEF7E2
:103A800079FFFF2C19D155F8240FC8B1284600F052
:103A9000A5FA0146B9F1000F4FF0010018BF002947
:103AA0000FD0C9F800000CE04FF0500080F31188EF
:103AB000BFF36F8FBFF34F8FFEE7601C85F84500A3
:103AC000012088F3118801B0BDE8F0832DE9F04FA3
:103AD00083B0029288B116460D460446002946D0AE
:103AE00000F065F998B996B14FF0500080F3118855
:103AF000BFF36F8FBFF34F8FFEE74FF0500080F39F
:103B00001188BFF36F8FBFF34F8F00BFFEE7FFF742
:103B100047FBD4F838A0BAF1000F34D0226C52B170
:103B2000D4E902011144E160814224BF2168E160CF
:103B30002846FCF727FCAAF10100A06354F8100FF7
:103B400070B1204600F04AFA50B14EF60450CEF261
:103B500000004FF080510160BFF34F8FBFF36F8FB4
:103B60000124FFF73FFB204603B0BDE8F08F206C37
:103B70000028B5D04FF0500080F31188BFF36F8F4D
:103B8000BFF34F8FFEE704F1240801206F464FF08A
:103B900000090DF1080B00BF0299002955D0C0079C
:103BA00002D03846FFF725FCFFF71CFBFFF7C4FCEB
:103BB000FFF7F6FA94F84400FF2808BF84F8449011
:103BC00094F84500FF2808BF84F84590FFF70AFBEA
:103BD0003846594600F03EF860B12046FFF772F9CA
:103BE00000F044FAFFF7DCFAA66BFFF7FBFA1EBB06
:103BF0002DE000BFFFF7D4FAA66BFFF7F3FA2EB162
:103C00002046FFF75FF900F031FA15E002994046CF
:103C1000FFF704FC2046FFF755F900F027FA58B9E2
:103C20004EF60450CEF200004FF080510160BFF319
:103C30004F8FBFF36F8F00BFFFF7B2FAD4F838A0F1
:103C40000020BAF1000FA7D068E7002489E700241C
:103C500089E7000070B530B30D4671B30446FFF735
:103C60009FFA44F6383EC2F2000EDEF800302968B2
:103C70004A1C16D044F6A02CC2F2000CD4E9000273
:103C8000DCF80060864201D0934222D29A1A914217
:103C90001DD9881A2860DCF800002060DEF80000DA
:103CA0006060002416E04FF0500080F31188BFF3ED
:103CB0006F8FBFF34F8F00BFFEE74FF0500080F3D0
:103CC0001188BFF36F8FBFF34F8F00BFFEE7002057
:103CD00028600124FFF786FA204670BD2DE9F043E5
:103CE00083B007469000984615468946FFF724F9A9
:103CF000E0B106465C20FFF71FF9A0B10446DDE9FC
:103D00000A100022266384F85920CDE900103846B5
:103D100049462A4643460294FEF7BAFE2046FEF77D
:103D20005FFD012004E03046FFF774FA4FF0FF30EA
:103D300003B0BDE8F083000070B586B00B9CCCB139
:103D40000C9E06B35C250495049D5C2D25D1049D35
:103D5000DDF828C0022586F8595005AD3463CDE959
:103D600000C50296FEF794FE3046FEF739FD059831
:103D700006B070BD4FF0500080F31188BFF36F8F15
:103D8000BFF34F8FFEE74FF0500080F31188BFF371
:103D90006F8FBFF34F8F00BFFEE74FF0500080F3EF
:103DA0001188BFF36F8FBFF34F8F00BFFEE744F65C
:103DB0000430C2F20000006848B144F27830C2F228
:103DC00000000068B0FA80F0400940007047012010
:103DD000704744F63830C2F20000006870470000B7
:103DE0002DE9F04F81B044F27830C2F20000006853
:103DF00040B144F6AC20C2F2000001680024013159
:103E000001609DE044F63830C2F2000001684E1CAB
:103E100006602ED340F2F420C2F200000168096867
:103E200049B14FF0500080F31188BFF36F8FBFF39B
:103E30004F8F00BFFEE740F2FC22C2F20002016891
:103E400013680360116044F6A021C2F200010A6801
:103E500001320A600168096821B10068C068C06861
:103E6000406801E04FF0FF3044F69C21C2F20001AF
:103E7000086044F69C21C2F20001086840F2EC2A76
:103E800040F204388642C2F2000AC2F2000801D2AF
:103E9000002443E040F2F427C2F20007386800240F
:103EA0000068C0B344F2803BC2F2000B3868C068BF
:103EB000D0F80C904D4655F8040F864226D328467C
:103EC000FFF700F9D9F8280018B109F11800FFF739
:103ED000F9F8D9F82C00DBF80010884288BFCBF83D
:103EE000000000EB800008EB80002946FFF741F955
:103EF000D9F82C00DAF80010C96A3A68884228BF5D
:103F0000012410680028D1D14FF0FF3044F69C21E5
:103F1000C2F2000101E04FF0FF300860DAF8000063
:103F2000C06A00EB800058F82000012844F64430B5
:103F3000C2F2000088BF01240068002818BF0124D5
:103F4000204601B0BDE8F08FB0B580B1044640F224
:103F5000EC20C2F200000068A0420AD04FF05000EE
:103F600080F31188BFF36F8FBFF34F8FFEE7002000
:103F7000B0BD206D38B3013820654FF0000018BF88
:103F8000B0BDE16AE26C91421CD0251D2846FFF7C6
:103F900099F8E06CC0F13801A16144F28031E0622F
:103FA000C2F200010A68904288BF086040F2043102
:103FB00000EB8000C2F2000101EB80002946FFF710
:103FC000D8F80120B0BD4FF0500080F31188BFF346
:103FD0006F8FBFF34F8F00BFFEE70000B0B5C06822
:103FE000C5687DB105F118042046FFF76BF844F26F
:103FF0007830C2F20000006868B144F6B020C2F226
:1040000000001DE04FF0500080F31188BFF36F8F68
:10401000BFF34F8FFEE72C1D2046FFF753F844F205
:104020008031C2F20001E86A0A68904288BF0860E5
:1040300040F2043100EB8000C2F2000101EB80008D
:104040002146FFF796F840F2EC21C2F20001E86A3F
:104050000968C96A884291BF002044F64431C2F21F
:104060000001012088BF0860B0BD00002DE9F04FBD
:1040700081B044F27834C2F20004206868B1FFF7DE
:104080008FF8206801382060206880B10024FFF795
:10409000A9F8204601B0BDE8F08F4FF0500080F342
:1040A0001188BFF36F8FBFF34F8F00BFFEE744F25D
:1040B0007030C2F2000000680028E7D044F6B02655
:1040C000C2F20006306844F644380028C2F2000804
:1040D00042D044F2803740F2043940F2EC2BC2F275
:1040E0000007C2F20009C2F2000B4FF0010A00BF44
:1040F000F068C56805F11800FEF7E4FF2C1D2046A6
:10410000FEF7E0FFE86A3968884288BF386000EB54
:10411000800009EB80002146FFF72BF8E86ADBF806
:104120000010C96A884228BFC8F800A0306800287B
:10413000DED140F2F420C2F200000168096821B12A
:104140000068C068C068406801E04FF0FF3044F686
:104150009C21C2F20001086044F6AC24C2F20004C3
:10416000256855B1012600BFFFF73AFE08B1C8F82F
:104170000060013DF8D100202060D8F80000002840
:104180003FF484AF4EF60450CEF200004FF0805161
:104190000160BFF34F8F0124BFF36F8F77E70000FB
:1041A00080B586B0FEF7A8FB44F63C30C2F20000B2
:1041B000006808B30020CDE9040005A804A903AAFB
:1041C000FEF79EFFDDE903200221DDF814C0CDE9F2
:1041D000001042F6CD40C0F600000CA10023CDF83F
:1041E00008C0FFF7A9FD44F64031C2F200010860A3
:1041F00010B1012006B080BD4FF0500080F311884F
:10420000BFF36F8FBFF34F8FFEE700BF546D722077
:1042100053766300B8B110B584B044F63C34C2F2B2
:10422000000484462068C0B10529CDE90012CDF80C
:1042300008C014DCFFF7BBFD01462068022914D139
:10424000069A694613E04FF0500080F31188BFF3DF
:104250006F8FBFF34F8F00BFFEE700200AE0694673
:104260001A460023FFF7CEFB04E069460022002334
:10427000FFF7F4FA04B010BDF1EE100A4FF6FF712B
:10428000C0F2C03120EA010040F04070E1EE100AB7
:104290007047000000000000000001020304060750
:1042A0000809000000000102030400005743000851
:1042B00000000000000000000000000000000000FE
:1042C00000020000300000000000000000000000BC
:1042D0003C43000800000000000000000000000057
:1042E00000000000000200001D00000000000000AF
:1042F000000000006743000800000000000000000C
:104300000000000000000000000200001B00000090
:10431000000000000000000048430008000000000A
:10432000000000000000000000000000000200008B
:104330001A000000000000000000000064656661D3
:10434000756C745461736B006D6F76655F62617339
:10435000655F7461736B00646174615F7570646143
:1043600074655F746173006D6F746F725F636F6EFD
:1043700074726F6C5F7400009843000800000020A6
:1043800010000000EC010008A84300081000002005
:10439000385100000C0200080024F4000100000065
:0843A00010000000AAAAAAAA5D
:040000050800018965
:00000001FF
