:020000040800F2
:100000002059002059020008C12A0008DD260008F6
:10001000BD2A0008C9060008D92F0008000000000A
:10002000000000000000000000000000412B00085C
:100030006507000800000000D12A0008652B0008B1
:1000400073020008730200087302000873020008BC
:1000500073020008730200087302000873020008AC
:10006000730200087302000873020008730200089C
:10007000730200087302000873020008730200088C
:10008000730200087302000873020008730200087C
:1000900041070008730200087302000867070008A0
:1000A000730200087302000873020008730200085C
:1000B00073020008952B0008730200087302000801
:1000C000730200087302000873020008730200083C
:1000D000730200085B2F0008672F0008732F0008C9
:1000E000730200087302000873020008730200081C
:1000F000730200087302000873020008730200080C
:1001000073020008730200087302000873020008FB
:10011000CD2C0008D92C00087302000873020008D7
:1001200073020008590700087302000873020008F0
:1001300073020008730200087302000873020008CB
:100140004D070008730200087302000873020008DC
:1001500073020008730200087302000873020008AB
:10016000730200087302000873020008730200089B
:100170007302000873020008730200080000000008
:10018000730200087302000800F002F800F054F84F
:1001900014A696E8000CB244B344DA4501D100F04D
:1001A0004BF8BAE80F000FA696E83000A5EB04055F
:1001B00004EB0607AAEB0704A7F101074FEA1515A0
:1001C0004FEA3414A4F10104AC4201D300F034F836
:1001D00013F0010F18BFFB1A43F0010300F001F800
:1001E000DBE71847E87C0000087D0000103A24BFD8
:1001F00078C878C1FAD8520724BF30C830C144BF8C
:1002000004680C6070470000704700000023002461
:1002100000250026103A28BF78C1FBD8520728BF16
:1002200030C148BF0B6070471FB507F0C8FC00F035
:1002300045F91FBD10B510BD00F0D2F91146FFF70A
:10024000F3FF04F074F900F0F0F903B4FFF7F2FFE4
:1002500003BC04F069F900000948804709480047D9
:10026000FEE7FEE7FEE7FEE7FEE7FEE7FEE7FEE766
:10027000FEE7FEE704480549054A064B70470000C3
:10028000832B0008890100082053002020590020FA
:10029000205500202055002053EA020C00F0698010
:1002A0002DE9F04B4FF00006002B1FBFB3FA83F58A
:1002B00003FA05F424FA05F65E4012BF1643B2FABB
:1002C00082F502FA05F4C5F120051EBF22FA05FCED
:1002D00044EA0C04203556EA044C4FEA144418BF93
:1002E000641C4FF000084FF00009904271EB030CC2
:1002F00039D3002919BFB1FA81F701FA07F6B0FA2C
:1003000080F700FA07F6C7F120071EBF20FA07FCA6
:1003100046EA0C062037B6FBF4FCA7EB0507103FB6
:1003200007F01F0BCBF120062CFA06F60CFA0BFB9C
:1003300044BFB3460026202FA4BF5E464FF0000BFB
:100340005BEA060C08BF4FF0010B19EB0B0948EBF9
:100350000608ABFB027C06FB02CC0BFB03CCC01BEC
:1003600071EB0C01C1E70B46024641464846BDE829
:10037000F08B13B5084318BF4FF0FF300146AFF3C1
:100380000080BDE81C407047032A40F2308010F026
:10039000030C00F0158011F8013BBCF1020F624420
:1003A00098BF11F801CB00F8013B38BF11F8013BB1
:1003B000A2F1040298BF00F801CB38BF00F8013B5E
:1003C00011F0030300F0C280083AC0F0088051F831
:1003D000043B083A51F804CBA0E80810F5E7121DD9
:1003E0005CBF51F8043B40F8043BAFF30080D207F8
:1003F00024BF11F8013B11F801CB48BF11F8012BC4
:1004000024BF00F8013B00F801CB48BF00F8012BE6
:10041000704702F0FF0343EA032242EA024200F07F
:1004200024B84FF000020429C0F0128010F0030C31
:1004300000F01B80CCF1040CBCF1020F18BF00F8D7
:10044000012BA8BF20F8022BA1EB0C0100F00DB886
:100450005FEAC17C24BF00F8012B00F8012B48BFE4
:1004600000F8012B70474FF0000200B51346944688
:100470009646203922BFA0E80C50A0E80C50B1F1FC
:100480002001BFF4F7AF090728BFA0E80C5048BF10
:100490000CC05DF804EB890028BF40F8042B08BFAE
:1004A000704748BF20F8022B11F0804F18BF00F8AA
:1004B000012B7047704770477047000008487CB5B3
:1004C0007844009007487844009C0546019004E079
:1004D0002046016808448047241DAC42F8D17CBD09
:1004E000287A0000327A000070B50446051F00F03B
:1004F0005FF80068002C14BF446870BD002C18BF62
:10050000AC423CBF20466468F8D301680A18AA428E
:1005100018BF456003D12A68054611440160286868
:100520004119A1421CBF6C6070BD6168696021689F
:100530000844286070BD10B500F03EF8006810BD9A
:1005400010B5044600F038F8046010BD10B5203A2C
:10055000C0F00B80B1E81850A0E81850B1E818506E
:10056000A0E81850203ABFF4F5AF5FEA027C24BF40
:10057000B1E81850A0E8185044BF18C918C0BDE829
:1005800010405FEA827C24BF51F8043B40F8043BF2
:1005900008BF7047D20728BF31F8023B48BF11F8A7
:1005A000012B28BF20F8023B48BF00F8012B704701
:1005B00000487047180100200048704710010020D3
:1005C00010B5002000F03AF8FFF734FEBDE8104007
:1005D000012003F0A9BF000000487047100100206F
:1005E0007546FFF7F9FFAE4605006946534620F011
:1005F0000700854618B020B5FFF73CFEBDE8204057
:100600004FF000064FF000074FF000084FF0000BCE
:10061000AC46ACE8C009ACE8C009ACE8C009ACE83D
:10062000C00921F007018D46704710B50446AFF3AD
:1006300000802046BDE81040FFF707BE10B500F06F
:100640000BF8BDE8104000F001B87047002801D059
:1006500003F06ABF7047000010B5002102A000F04F
:1006600013F8012010BD0000534947414252543A4B
:100670002041626E6F726D616C207465726D696E7F
:100680006174696F6E00000070B505460C460A2063
:1006900000E06D1C00F011F835B128780028F8D181
:1006A00002E0641C00F009F814B120780028F8D1A9
:1006B000BDE870400A20AFF3008008B569468DF8A8
:1006C00000000320ABBE08BDFEE780B58AB0002065
:1006D0000422CDE905000090CDE90120CDE9030019
:1006E0000E200121099040F2E46007910891C2F2C6
:1006F0000000694600F098F808B100F037F840F2C1
:10070000E460C2F2000000F0EFFB08B100F02EF848
:1007100040F2E460C2F20000022100F028F808B1C3
:1007200000F024F840F2B410C2F2000000210422CC
:100730000823C0E90112C0E9031301750AB080BDA6
:1007400040F2E460C2F2000000F06EB940F20C70BA
:10075000C2F2000000F068B940F23470C2F200004A
:1007600000F048BC7047402000F0ADBD72B690F874
:100770002020013A012A04D8006800F11402002068
:1007800004E000F1240201204FF480211368194392
:100790001160704710B590F820E0D0F800C0AEF1BD
:1007A000010EBEF1010FDCF808E011D81EF0E05F89
:1007B00014D0CEF301640120A04018608B689BB177
:1007C000D1F804E0C86840EACE0040EA030E0FE02A
:1007D00000F1240301204FF4802121E000F12403E3
:1007E00001204FF400111BE00868CB6843EA405E2B
:1007F0000CF5C07000EB0413240140F804E00C6910
:10080000184640F8044F097D012903D1016841F4DD
:100810008071016050680121D860106898600020E4
:100820001A681143196010BD90F82020013A012A7E
:1008300030D8B0B546F20060C4F20000026842F061
:1008400001020260026822F47C520260D1F814E0D6
:10085000CC694A6A0368012C43EA022202600EF066
:100860001F024FF0010303FA02F2C3696FEA020CA0
:1008700023EA0203C36113D02CBBC36803EA0C0351
:10088000C360CB688C8844EA034300EBCE04236446
:100890000B4611E0416A41F480214162012070471A
:1008A000C3681343C3600B688C8844EA034300EBBE
:1008B000CE04236401F10C038C681B8843EA0443D3
:1008C00000EBCE04636443688D6943EA0204D1F807
:1008D00010E0096A002D08BF03EA0C044460436974
:1008E000BEF1000F43EA020408BF03EA0C04012929
:1008F000446102D1C1691143C161016821F0010164
:1009000001600020B0BD7047B0B590F82040013CB8
:10091000012C7AD8D0F800C000290CBFDCF80C40BC
:10092000DCF81040A40776D00CF5D8754FEA011C0E
:1009300055F80C4014F00404946055F80CE005EBF5
:10094000011C19BF4FEADE0555604FEA5E55156080
:10095000DCF80050E64605F00205D5605EF8044F6D
:1009600024075ABFDEF8004004F00F040824146185
:10097000DEF800400029C4F307249461DEF800503B
:100980004FEA15455561DCF808201A70026802EB41
:100990000112D2F8B8214FEA12225A70026802EB13
:1009A0000112D2F8B8214FEA12429A70026802EBA3
:1009B0000112D2F8B8214FEA1262DA70026802EB33
:1009C0000112D2F8BC211A71026802EB0112D2F8AE
:1009D000BC214FEA12225A71026802EB0112D2F8CE
:1009E000BC214FEA12429A71026802EB0112D2F85E
:1009F000BC214FEA1262DA7100680CBF00F10C01F1
:100A000000F11001002020220AE000F12401012061
:100A10004FF4802204E000F1240101204FF4001281
:100A20000B681A430A60B0BD2DE9F04F81B004464F
:100A300000684669D0F804908768D0F80CB0D0F808
:100A400010A0D0F81880F10701D1002549E0F9077E
:100A50000ED00121BA07816007D478071DD438076A
:100A600021D4204600F06CFA02E0204600F069FA3A
:100A70000025F8051CD520684FF48071BA05816007
:100A800007D478050CD4380510D4204600F05AFA63
:100A90000EE0204600F057FA0AE04FF40065E8E760
:100AA00005F5005504E04FF48055E2E705F5804573
:100AB000F80316D520684FF48031BA03816007D45B
:100AC000780309D438030AD4204600F03DFA08E040
:100AD000204600F03AFA04E005F5004501E005F58E
:100AE0008035300707D51BF0100004D0206845F48E
:100AF00000751021C160700708D51BF0080005D0F3
:100B000020680821C160204600F0CAF9B00706D568
:100B10002068C068800702D0204600F0C2F9700645
:100B200007D51AF0100004D0206845F48065102124
:100B30000161B00608D51AF0080005D02068082128
:100B40000161204600F0CCF9F00606D52068006966
:100B5000800702D0204600F0C4F9B00308D519F090
:100B6000100005D0206810214160204600F0BAF93D
:100B7000F00308D519F0080005D02068082141606D
:100B8000204600F0E3F9300440D55FEA49703AD5D9
:100B900006F4807008EA102028435FEA8871014655
:100BA00048BF41F00201B20558BF01465FEA4870F4
:100BB0000D4648BF45F00405700558BF0D46300589
:100BC00021D518F070001ED010380009052815D85E
:100BD000DFE800F0030F090C061245F008050DE0F0
:100BE00045F080050AE045F0200507E045F04005A6
:100BF00004E045F0100501E045F480752068816946
:100C000021F0700181612068042141604DB1606A6A
:100C100040EA05012046616201B0BDE8F04FFFF7F0
:100C200072BE01B0BDE8F08FD0B1B0B5044690F807
:100C3000200010B9204600F06FF82068016841F0EC
:100C40000101016000F01BFC054600BF20684168FF
:100C5000C90707D100F013FC401B0B28F6D312E0A4
:100C600001207047016821F00201016000F007FCDB
:100C7000054600BF2068416889070BD500F0FFFBDF
:100C8000401B0B28F6D3606A052140F400306062F7
:100C900001203EE0217E0268012922F0800208BF87
:100CA00080320260617E0268012922F0400208BFA2
:100CB00040320260A17E0268012922F0200208BFB2
:100CC00020320260E17E0268012922F0100218BF82
:100CD00010320260217F0268012922F0080208BF59
:100CE00008320260617F0268012922F0040208BF15
:100CF00004320260D4E901C2D4E9033561691A43C0
:100D00002A431143ACF101021143C16100200121CA
:100D1000606284F82010B0BD10B586B0044601A80A
:100D20001421FFF7A0FB206846F60001C4F2000181
:100D3000884255D046F20041C4F20001884240F09A
:100D4000AD8040F2A811C2F200010A6843F63000FB
:100D5000C4F20200531C0B6052B9002100910169DA
:100D600041F000710161016901F000710091009989
:100D700000210091026842F001020260006800F068
:100D80000100009000984FF4C05001900220CDE97E
:100D9000020103200490092005900020C4F2020003
:100DA00001A900F09BFA13200221002200F01EFC92
:100DB000132000F00BFC14200221002200F016FC8E
:100DC000142000F003FC15200221002200F00EFC8C
:100DD000152000F0FBFB162002210022162458E00B
:100DE00043F630010020C4F2020100900A6942F08B
:100DF00080620A610A6902F080620092009A40F201
:100E0000A812C2F2000213685C1C14604BB9009077
:100E10000A6942F000720A610A6902F000720092E7
:100E2000009A00900A6842F002020A60096801F024
:100E30000201009100994FF4405101910221CDE946
:100E4000021003200490092005900020C4F2020043
:100E500000F5806001A900F041FA3F200021002246
:100E600000F0C4FB3F2000F0B1FB40200021002235
:100E700000F0BCFB402000F0A9FB41200021002233
:100E800000F0B4FB412000F0A1FB42200021002231
:100E9000422400F0ABFB204600F098FB06B010BDEA
:100EA000704740F2E461C2F20001884218BF704707
:100EB00080B540F2000C40F68C12C2F2000C4FF0EC
:100EC000010EC2F2000240F2E46002F11C03C2F221
:100ED00000000021CCF800E0BDE88040FFF714BD21
:100EE0007047704770470000B0B5044690F8200086
:100EF00001281CD1022084F820002068016821F01C
:100F00000101016000F0BBFA054600BF206840689F
:100F1000C00712D000F0B3FA401B0B28F6D3606A6A
:100F200040F400306062052084F8200003E0606A2D
:100F300040F4002060620120B0BD00206062B0BDBE
:100F400070477047704770477047704770470000A0
:100F500070B5866D044600F092FA94F835100229B7
:100F600025D105462068216C026822F01602026035
:100F7000426922F08002426109B9A16C19B101688D
:100F800021F008010160016821F00101016000BF4A
:100F900020680068C0070ED000F071FA401B0628D8
:100FA000F6D320206065032084F835000CE0802013
:100FB0006065012008E0E06D3F2101FA00F0B060BB
:100FC000012084F835000020002184F8341070BD21
:100FD00090F83510022909D1052180F835100068F4
:100FE000016821F001010160002070478021416506
:100FF00001207047F0B581B004460020009040F217
:101000000400C2F200000268D4E9166048F2B51389
:1010100037680821C1F64E3381403942A2FB0325CF
:101020000CD0226813685B0708D5136823F004030B
:101030001360B160616D41F0010161650121814082
:10104000394208D022685269120604D5B160616D38
:1010500041F00201616504218140394208D02268D3
:101060001268920704D5B160616D41F004016165B9
:1010700010218140394217D020680268120713D529
:10108000B16002680168520306D4C90506D401683C
:1010900021F00801016001E0080301D4216C00E0A7
:1010A000A16C09B120468847E16D202000FA01F2C9
:1010B0003A423CD020680368DB0638D5B26094F829
:1010C00035300268052B1AD122F0160202604269FF
:1010D00022F080024261226C0AB9A26C1AB1026845
:1010E00022F0080202603F208840B060012084F8AE
:1010F0003500216D002084F83400B9BB3BE0016865
:1011000052030CD4C9050ED4016821F0100101600E
:10111000012084F83500002084F8340003E008033F
:1011200001D4616C00E0E16B09B120468847606D35
:1011300008B3606DC00717D0052084F8350020681B
:10114000A90A026822F00102026000BF009A01327F
:101150008A42009202D80268D207F7D1012084F8AF
:101160003500002084F83400E16C21B1204601B044
:10117000BDE8F040084701B0F0BD00002DE9F041A6
:10118000044600F07CF9C4B10546022084F835001D
:101190000020216884F83400086820F0010008600D
:1011A00021680868C0070BD000F069F9401B0528CA
:1011B000F6D903252023032064E00120BDE8F08157
:1011C000086848F23F02CFF21002D4E9013500EA84
:1011D000020C04F10C0898E8C10143EA0C032B430C
:1011E0001843D4E9072E304338431043626A40EA7B
:1011F0000E00042A40EA08031CD1206BD4E90A2E11
:1012000040EA0E00184308604869BEF1000F20F064
:10121000030040EA020040F0040C11D0B8F5005F72
:1012200035D0B8F1000F42D1022A43D0012A38D07C
:10123000002A3EE00B60486920F0070040EA020CFB
:1012400001F0F8004AF6AB221038CAF6AA22A0FB39
:1012500002231A0947F6F853C1F814C0C0F6000378
:101260009A5C40F2FF335F284FF03F0021EA030110
:1012700000FA02F088BF0431C4E916128860002326
:1012800001250020636584F83550BDE8F081032A0C
:10129000D6D8012540230120DFE802F0020C02032A
:1012A000F0E7AEF1C070B0FA80F0400904E0032A24
:1012B00004D3C5D1CEF300600028C1D0012540235E
:1012C0000120DFE7704743F61441C4F201010A68C8
:1012D000024214BF08607047FFF7F4BF2DE9F04FDA
:1012E00083B000F1200200F13E4741F60045009234
:1012F00007F1FF77C4F2020508224FEAB726A84299
:1013000008BF072200254FF000084FF00009072E04
:1013100038BF4FEAB72201920F68012202FA09FE94
:1013200017EA0E0A00F09980D1F804C003220CF0ED
:1013300003077E1E02FA08F4012E6FEA040B11D88F
:101340008468CE6804EA0B0406FA08F63443846025
:10135000446824EA0E06CCF3001404FA09F4264388
:10136000466003E0032F01D103271EE0C6688C68A6
:1013700006EA0B0604FA08F42643022FC66014D1CD
:101380006FF00302009E02EA590756F807C005F005
:101390001C040F220B69A2402CEA0202A3401A434C
:1013A000F251D1F804C00CF00307026807FA08F301
:1013B00002EA0B021A431CF4403F02604DD00022A7
:1013C00043F644030292C4F202031A6843F600444F
:1013D00042F480421A601A68C4F2010402F48042A6
:1013E0000292029A29F003024FF6084C2244CFF6EB
:1013F000FF7C52F80C3005F00C070F26BE40B343BB
:10140000019E06FA07F73B4342F80C30A2684B688E
:1014100042EA0A0743F60C4CDE0258BF22EA0A07EA
:10142000A760C4F2010CDCF800209E0242EA0A0721
:1014300058BF22EA0A07CCF8007062689E0342EAAD
:101440000A0758BF22EA0A0767602268DB0342EAFC
:101450000A0758BF22EA0A07276009F1010908F1C3
:101460000208B9F1100F05F104057FF455AF03B080
:10147000BDE8F08F002A08BF09048161704744F677
:101480002430C2F200000068704740F2041044F6B5
:101490002431C2F20000C2F2000100780A68104450
:1014A0000860704780B543F60040C4F2020001684E
:1014B00041F400710160016841F4806101600168DC
:1014C00041F480710160032000F0BBF80F2000F0B0
:1014D00004F800F05AF8002080BD70B586B00025F1
:1014E00043F640010195C4F202010A68044642F045
:1014F00002020A60096801A801F002010191019944
:10150000694600F058F9049E002E18BF012600F02D
:1015100071F94DF68361B040C4F21B31A0FB0101AB
:101520004FF0FF3000EB914140F2947040F20042E6
:10153000C2F20000C4F2000240F2E733C0E9002129
:10154000C0E902530561856100F062FB0546C8B938
:1015500040F29470C2F2000000F087FB054688B9A3
:101560001D2000F033F80F2C0BD81D20214600223F
:10157000002500F03BF840F20810C2F200000460C1
:1015800000E00125284606B070BD82B0002043F679
:1015900040010190C4F202014A6842F480424A606C
:1015A0004A6802F480420192019A00900868002281
:1015B00040F08050086008680F2100F080500090D3
:1015C00000986FF0010002B000F010B800280CD4B1
:1015D00000F01F01012202FA01F11C2202EAD000F0
:1015E0004EF20012CEF200028150704710B54EF656
:1015F0000C5CCEF2000CDCF80030C3F3022E8EF04F
:101600000704042C28BF0424BEF103034FF0FF3E5F
:101610000EFA04F438BF0023A14399400EFA03F3F5
:101620009A43114300F00F0200F160430901043AAC
:1016300003F564436244002848BF02F10C031970AB
:1016400010BD4EF60C51CEF200010A684FF6FF03B2
:101650001A4060F30A2242F0806040F0FD7008609A
:1016600070470000002872D02DE9F04143F60008D1
:10167000C4F202080446D8F800040D4600F0070042
:10168000884207D288F80054D8F8000400F0070018
:10169000A84266D12068810717D5410705D5D8F83B
:1016A000081041F4E051C8F80810010705D5D8F832
:1016B000081041F46041C8F80810D8F80810A26872
:1016C00021F0F0011143C8F80810C00741D1D8F843
:1016D000000400F00700A84207D988F80054D8F8A1
:1016E000000400F00700A8423BD12068410707D55D
:1016F000D8F80810E26821F4E0511143C8F8081046
:10170000000708D5D8F80800216920F4604040EAB5
:10171000C100C8F8080000F093F8D8F8081047F6A0
:101720003052C1F30311C0F60002515C40F20402D2
:1017300020FA01F140F20810C2F200000068C2F283
:1017400000021160FFF7C9FE0020BDE8F081012012
:1017500070476068811E022906D2D8F800108901FE
:1017600008D40120BDE8F08101281FD1D8F800106D
:101770008903F6D5D8F8081021F003010843C8F80A
:101780000800FFF77CFE064641F28837D8F80800CB
:10179000616800F00C00B0EB810F98D0FFF76FFE8E
:1017A000801BB842F2D90320BDE8F081D8F80010C0
:1017B0008907D6D5DEE70F22026043F60802C4F29D
:1017C0000202136803F003034360136803F0F0039D
:1017D0008360136803F4E053C360D2F800C04FF491
:1017E000E05303EADC030361D2F8F80300F00700DA
:1017F0000860704740F2040043F60801C2F200009E
:10180000C4F202010068096847F64052C1F3822120
:10181000C0F60002515CC840704740F2040043F635
:101820000801C2F20000C4F202010068096847F62C
:101830004052C1F34231C0F60002515CC8407047CB
:1018400010B543F60404C4F20204606800F00C0111
:1018500042F200400829C0F2F40007D0042918BF62
:1018600010BD41F20020C0F27A0010BD216801F0E5
:101870003F02216823684902C3F3881105D4A1FB04
:1018800000010023FEF708FD06E041F20020C0F24F
:101890007A004843B0FBF2F021680222C1F3014113
:1018A00002EB4101B0FBF1F010BD000000286BD04D
:1018B0002DE9F04182B00446007843F60006C007E7
:1018C000C4F202060CD0B06800F00C00042840F00E
:1018D00098803068800303D56068002800F0AB80F2
:1018E000207880071BD5B06810F00C0F09D0B068C5
:1018F00000F00C00082840F0A0807068400200F161
:101900009C803068800703D5E068012840F0938010
:101910003068216920F0F80040EAC100306020788A
:10192000000733D42078400745D4A56955B3B06883
:1019300000F00C00082840F0B980012D7BD07068C1
:10194000E16900F480028A4275D1216A00F03F0209
:101950008A4270D147F6C071626A0140B1EB821FC2
:1019600069D1A16A4FF6FF73C903994300F440326D
:10197000A1F580318A425ED1E16A00F07060B0EB7F
:10198000016F58D10020F3E0012070476069002802
:1019900078D00020C4F247200121C0F8801EFFF754
:1019A0006EFD0546706F8007BCD4FFF768FD401BD5
:1019B0000228F7D9DBE0306C5FEAC0080AD40020C7
:1019C0000190306C40F080503064306C00F08050FA
:1019D0000190019847F20007C4F200073868C0057B
:1019E00042D4386840F480703860FFF748FD0546FF
:1019F0003868C00538D4FFF742FD401B0228F7D9EC
:101A0000B5E0B06800F00C00082803D1706840020F
:101A10003FF55FAF61683068B1F5803F07D0B1F541
:101A2000A02F40F08E8040F480203060306840F479
:101A3000803030608EE001209AE0E068002840F2BB
:101A40000000C4F2472053D001210160FFF717FDC9
:101A5000054600BF306880073FF55AAFFFF70FFD1E
:101A6000401B0228F6D982E0A168306F012905D019
:101A700005294FD140F004003067306F40F001007D
:101A8000306750E00020C4F247200021C0F8801EDB
:101A9000FFF7F5FC054600BF706F80077FF542AF8A
:101AA000FFF7EDFC401B0228F6D960E00027C4F2E6
:101AB000472700203866FFF7E2FC022D05460BD1D0
:101AC0003068800157D5FFF7DAFC401B02284FF041
:101AD0000300F5D94CE000BF306880017FF552AFBC
:101AE000FFF7CDFC401B02284FF00300F4D93FE084
:101AF00000210160FFF7C3FC054600BF3068800786
:101B00007FF50DAFFFF7BBFC401B02284FF0030031
:101B1000F4D92DE020F001003067306F002920F06B
:101B20000400306748D0FFF7AAFC054641F2883729
:101B3000306F800751D4FFF7A2FC401BB842F7D9A1
:101B400015E020F4803030603068002920F48020D7
:101B500030604BD0FFF793FC054600BF3068800330
:101B60003FF5BEAEFFF78BFC401B6428F6D903207F
:101B700002B0BDE8F08104F11C052FCD084340EA16
:101B80008210D9034FF6FF729143A1F5803140EAEC
:101B900005600843706001203866FFF770FC04465A
:101BA000306880013FF5EEAEFFF769FC001B0228AC
:101BB0004FF00300F4D9DBE7FFF761FC054641F283
:101BC000883700BF306F800707D5FFF758FC401BF0
:101BD000B8424FF00300F5D9CAE7B8F1000F3FF55E
:101BE000A4AE306C20F0805030649EE6FFF747FCD6
:101BF000054600BF306880037FF572AEFFF73FFCFB
:101C0000401B64284FF00300F4D9B1E770477047D8
:101C100040B310B5044690F83D0028B9002084F880
:101C20003C00204600F020F8022084F83D002068A7
:101C3000211D00F0B5FF012084F8460084F83E0025
:101C400084F83F0084F8400084F8410084F84200A2
:101C500084F8430084F8440084F8450084F83D008B
:101C6000002010BD01207047704790F83D100129F9
:101C70001CBF01207047022180F83D10006841F22E
:101C8000FF72C168C4F20002904241F00101C160DC
:101C90000BDC40F2FF71C4F20001884213DCB0F1AA
:101CA000804F27D040F2004115E040F2FF31C4F2EE
:101CB0000101884212DC41F60001C4F200018842B1
:101CC00018D0002112E040F60001C4F20001884261
:101CD00010D040F60041C4F2000109E044F20001D6
:101CE000C4F20101884205D040F20041C4F2010172
:101CF000884204D1816801F00701062903D00168F8
:101D000041F00101016000207047704770B5044642
:101D10000068C5680669B10716D515F0020113D031
:101D20006FF002010161012121778069800703D0F2
:101D30002046FFF7EAFF05E0204600F089F820463C
:101D400000F087F800202077700718D515F0040000
:101D500015D020686FF004010161022121778069AC
:101D600010F4407F03D02046FFF7CFFF05E0204668
:101D700000F06EF8204600F06CF800202077300765
:101D800017D515F0080014D020686FF00801016124
:101D900004212177C069800703D02046FFF7B5FFF3
:101DA00005E0204600F054F8204600F052F80020EC
:101DB0002077F00618D515F0100015D020686FF0C8
:101DC0001001016108212177C06910F4407F03D020
:101DD0002046FFF79AFF05E0204600F039F820463C
:101DE00000F037F800202077F00718BF15F0010049
:101DF00006D020686FF001010161204600F02AF84A
:101E0000300609D515F0800006D020686FF08001FB
:101E100001612046FFF7FAFE700609D515F0400073
:101E200006D020686FF040010161204600F01CF8E8
:101E3000B00658BF70BD15F0200008D021686FF0C3
:101E4000200220460A61BDE87040FFF7E0BE70BD89
:101E500070477047006840F20041C4F200018842B8
:101E600018BF7047FFF711BB7047704770470000FD
:101E7000B0B582B0044600680168C368426901F0E9
:101E80002F05202D03F0200506D12DB1204602B0EC
:101E9000BDE8B04000F054BF5FEA017C1EBF02F015
:101EA000010E03F4907212EB0E026ED1226BCD067E
:101EB00043D5012A41D113F010023ED000210191F7
:101EC000016801914168019101994069400600F162
:101ED000CB80A08DE18DE28D002A00F01581884233
:101EE00000F01281401A00BF216851E8031F2268E8
:101EF00021F4907142E80313002BF5D1216851E8D9
:101F0000051F226821F0010142E80513002BF5D1DD
:101F1000202184F842100021216300BF216851E88C
:101F2000031F226821F0100142E80313002BF5D1B2
:101F3000022281B220466263DCE00A0640F1828020
:101F400013F0800200F07E8094F84110212940F0C7
:101F5000DB80A168B1F5805F03D12169002900F021
:101F6000DB80216A4A1C226209784160E18C0139D8
:101F70000A04E18440F0C880C16821F08001C1609A
:101F8000C16841F04001C160BEE0CA0718BF13F448
:101F9000807203D0626C42F0010262644A0706D587
:101FA000BEF1000F03D0626C42F0020262648A0745
:101FB00006D5BEF1000F03D0626C42F004026264E9
:101FC000BCF1000F06D55EEA050203D0626C42F058
:101FD00008026264626C002A00F09680890604D5CB
:101FE0001DB1204600F0ACFE20684069616C00F035
:101FF000400001F00801401800F08180204600F008
:1020000077FE20684069400640F18080206850E8F3
:10201000050F216820F0400041E80502002AF5D1B3
:10202000E06B002872D042F6E541C0F60001016580
:10203000FEF7CEFF002867D0E06B016D02B0BDE86F
:10204000B040084749065FD513F040015CD0C16835
:1020500021F04001C1602021204684F8411002B0E7
:10206000BDE8B04000F039BBE06B016849688AB256
:10207000002A49D0A38D9A4246D2E185C069B0F5C5
:10208000807F30D0206850E8030F216820F48070F2
:1020900041E80302002AF5D1206850E8050F2168C5
:1020A00020F0010041E80502002AF5D1206850E83F
:1020B000050F216820F0400041E80502002AF5D113
:1020C000202084F842000020206300BF206850E8F0
:1020D000030F216820F0100041E80302002AF5D127
:1020E000E06BFEF735FF02206063A08DE18D401AA2
:1020F00081B2204602B0BDE8B040FFF7B6BE204630
:10210000FFF7B4FE0020606402B0B0BD204602B00C
:10211000BDE8B040FFF7AABE216A31F8022B6FF389
:102120005F224260216221E758B310B5044690F85F
:10213000410028B9002084F84000204600F023F830
:10214000242084F841002068C16821F40051C16056
:10215000204600F056FE2068016921F4904101619B
:10216000416921F02A014161C16841F40051C16017
:1021700000202021606484F8411084F842106063DC
:1021800010BD012070472DE9F04387B0044602A836
:102190001421FEF768F9206844F6FF71C4F20001CB
:1021A000884246DC44F20041C4F20001884200F05B
:1021B0009E8044F60001C4F20001884200F01381C1
:1021C00044F60041C4F20001884240F089810020B9
:1021D00043F630010190C4F202010A6942F4002280
:1021E0000A610A6902F400220192019A01900A68C8
:1021F00042F004020A60096801F0040101910199AA
:102200004FF4406102910221CDE9031003200590B3
:10221000082006900020C4F2020000F5006002A928
:10222000FFF75CF8342006210022FFF7DFF93420A5
:1022300054E145F20001C4F20001884200F08880B8
:1022400041F20001C4F20101884200F0188141F21C
:102250000041C4F20101884240F04281002643F669
:1022600030000196C4F20200416941F02001416151
:10227000416901F02001019101990196016841F045
:1022800040010160006802A900F04000019001983F
:102290004FF4844002900220CDE90306032005900C
:1022A000082006900020C4F2020000F5C050FFF79D
:1022B00015F840F2347546F22840C2F20005C4F227
:1022C00002004FF020614FF4806285E8430005F181
:1022D00014001421C5E90362FEF7C5F82846FEF78D
:1022E0004DFF08B1FEF742FAE563AC63F8E0002069
:1022F00043F630010190C4F202010A6942F400324F
:102300000A610A6902F400320192019A01900A6896
:1023100042F008020A60096801F008010191019980
:10232000602102910221CDE90310032005900720CE
:1023300006900020C4F2020000F5406002A9FEF7FA
:10234000CDFF262005210022FFF750F92620C5E009
:10235000002543F630000195C4F202000169002710
:1023600041F4801101610169C4F2020701F4801196
:10237000019101990195016802AC41F004010160ED
:1023800001684FF0020801F00401019101990195E3
:1023900001684FF0030941F0080101600068082658
:1023A00000F00800019001984FF48050029007F56A
:1023B00000602146CDE90385CDF814900696FEF71E
:1023C0008DFF0420CDE9020807F540602146CDE9E4
:1023D00004590696FEF782FF352005210022FFF7FB
:1023E00005F935207AE0002543F630000195C4F266
:1023F00002000169002741F4802101610169C4F2F2
:10240000020701F48021019101990195016802AC54
:1024100041F00201016001684FF0020801F0020181
:1024200001910199019501684FF0030941F00801FC
:1024300001600068072600F00800019001984FF441
:102440009840029007F580602146CDE90385CDF8DC
:1024500014900696FEF742FF4FF40060CDE90208A3
:1024600007F540602146CDE904590696FEF736FF90
:10247000272003210022FFF7B9F827202EE00020B3
:1024800043F630010190C4F202014A6942F01002A1
:102490004A614A6902F010020192019A01900A68A9
:1024A00042F001020A60096801F0010101910199FD
:1024B0004FF4C06102910221CDE903100320059081
:1024C000072006900020C4F2020002A9FEF706FFD2
:1024D000252005210022FFF789F82520FFF776F84F
:1024E00007B0BDE8F08390F84230202B1CD14FF0AC
:1024F0000103D1B1CAB10023036381622221828525
:10250000C285436480F842100169006819B1C1684E
:1025100041F48071C160416941F001014161C168CC
:1025200041F02001C16000E002231846704710B559
:1025300040F2DC11C2F2000109780446C807BFF37B
:102540005F8F59D040F2DC70C2F2000084422ED07E
:1025500040F66C00C2F20000844238D040F62400FD
:10256000C2F20000844218BF10BD44F2044040F2A1
:102570003C61C4F20000C2F2000100680A68531C0A
:102580000B6040F22461C2F20001182B885405D37D
:1025900040F24060C2F2000001F08AFC40F62400E4
:1025A00040F2B111C2F20000C2F200011FE040F29D
:1025B000B014C2F20004217840F24060C2F2000080
:1025C00001F0CAFC40F2DC70C2F200000EE040F202
:1025D000B21440F24060C2F20004C2F20000214690
:1025E00001F014FD40F66C00C2F200002146012209
:1025F000BDE81040FFF777BF40F2DC10C2F20000E8
:1026000002F0F0FC00289DD040F24060C2F20000D1
:1026100000210175A0F87D1016304C21FDF701FF57
:1026200040F2DC10C2F2000002F0F2FC8AE7000087
:102630002DE9F041044690F8410020281CBF0220FB
:10264000BDE8F0810D464FF00100E1B31746D2B36B
:10265000002060642120984684F84100FEF70FFFB7
:10266000A784E784A1680746B1F5805F01D120699E
:1026700088B32E46002500BFE08CC0B120468021E3
:102680003A46434600F02CFCF8B92EB116F8010B7F
:102690002168486007E000BF35F8020B21686FF33E
:1026A0005F2048600026E08C0138E084E4E72046A3
:1026B00040213A46434600F013FC202184F84110A3
:1026C000002818BF0320BDE8F081202084F84100D5
:1026D0000320BDE8F0810026CEE77047FEE780B515
:1026E00040F2E46046F20041C2F20000C4F2000190
:1026F0000322002380E80E0000F10C014FF4002CAF
:102700004FF4401E81E808504FF480710183C0F8F7
:102710001A30FEF789FA08B1FEF728F8FDF7D5FF61
:1027200040F2E460C2F200000221BDE88040FEF702
:102730001EB880B540F20C7046F60001C2F20000EF
:10274000C4F200010322002380E80E0000F10C0116
:102750004FF4002C4FF4401E81E808504FF4807174
:102760000183C0F81A30FEF75FFA18B1BDE8804067
:10277000FDF7FCBF80BD2DE9F04F87B00DF10808D3
:1027800040461421FDF76FFE002543F63000019509
:10279000C4F20200016840F2000941F00401016046
:1027A0000168C4F2020901F0040101910199019547
:1027B000016809F5A05441F0200101600168002280
:1027C00001F0200101910199019501684FF0800B02
:1027D00041F080010160016801F0800101910199DF
:1027E0000195016841F001010160016801F00101FA
:1027F000019101990195016841F0100101600168A2
:1028000001F01001019101990195016841F0020167
:102810000160016801F002010191019901950168CF
:1028200041F008010160016801F00801019101997E
:102830000195016841F0400101600068802100F0CD
:102840004000019001982046FEF714FE48464FF4E0
:10285000C17101220126FEF70DFE09F580573846A9
:102860004FF400610122FEF705FE09F5806A50462B
:1028700010210122FEF7FEFD402002904FF4881047
:10288000CDE9030520464146FEF728FD0220CDE9AB
:10289000040020464146CDE902B6FEF71FFD48463A
:1028A0004146CDE902650496FEF718FD4FF4C1706C
:1028B000CDE9020648464146CDE90466FEF70EFD25
:1028C0004FF40060CDE9020638464146CDE9046682
:1028D000FEF704FD4FF4004002A961C15046414695
:1028E000FEF7FCFC4FF4804002A961C109F540608D
:1028F0004146FEF7F3FC4FF4007002A961C109F5EF
:1029000000604146FEF7EAFC1020CDE90206504681
:102910004146CDE90466FEF7E1FC172000210022C4
:10292000FEF764FE1720FEF751FE07B0BDE8F08FFA
:1029300080B540F6B40044F60041C2F20000C4F293
:10294000000100234FF00C0C4FF4E13280E80E0040
:10295000C0E90333C0E905C3C361FFF7E5FB18B164
:10296000BDE88040FDF702BF80BD80B540F6FC00A9
:1029700045F20001C2F20000C4F2000100234FF052
:102980000C0C4FF4E13280E80E00C0E90333C0E9DB
:1029900005C3C361FFF7C8FB18B1BDE88040FDF770
:1029A000E5BE80BD80B540F2DC7041F20001C2F2AC
:1029B0000000C4F2010100234FF00C0C4FF4E1328F
:1029C00080E80E00C0E90333C0E905C3C361FFF727
:1029D000ABFB08B1FDF7CAFE252005210022FEF75A
:1029E00005FE2520BDE88040FEF7F0BD80B540F62D
:1029F000240044F20041C2F20000C4F200010023AE
:102A00004FF00C0C4FF4E13280E80E00C0E90333C4
:102A1000C0E905C3C361FFF787FB08B1FDF7A6FE58
:102A2000262005210022FEF7E1FD2620BDE880409A
:102A3000FEF7CCBD80B540F66C0044F60001C2F252
:102A40000000C4F2000100234FF00C0C4FF4407E54
:102A50004FF4E13280E80E00C0E90333C0E905CE4F
:102A6000C361FFF761FB08B1FDF780FE2720052158
:102A70000022FEF7BBFD2720BDE88040FEF7A6BD83
:102A800080B540F6441041F20041C2F20000C4F2A9
:102A9000010100234FF00C0C4FF4165280E80E0099
:102AA000C0E90333C0E905C3C361FFF73DFB18B1BB
:102AB000BDE88040FDF75ABE80BD0000FEE7000083
:102AC000FEE7000000000000000000000000000021
:102AD000EFF30980BFF36F8F154B1A681EF0100FCC
:102AE00008BF20ED108A20E9F04F10602DE90900A1
:102AF0004FF0500080F31188BFF34F8FBFF36F8FFB
:102B000002F0CCFC4FF0000080F31188BDE8090012
:102B100019680868B0E8F04F1EF0100F08BFB0EC5D
:102B2000108A80F30988BFF36F8F704700BF00BF22
:102B3000A40A0020000000000000000000000000C7
:102B4000074B19680868B0E8F04F80F30988BFF3B5
:102B50006F8F4FF0000080F31188704700BF00BFF7
:102B6000A40A002080B54EF21000CEF200000068EA
:102B700003F0C7F8012808BF80BDBDE8804002F01F
:102B80006ABD4EF68850CEF20000016841F4700133
:102B90000160704740F29470C2F20000FFF7B6B8CF
:102BA00010B540F6FF3E0368C4F2000E40F2004C40
:102BB0007045C4F2010C0DDCB0F1804F17D040F22B
:102BC0000042C4F20002904211D040F60002C4F26A
:102BD00000020AE040F60042C4F20002904206D031
:102BE000604504D00022C4F20102904203D14A6839
:102BF00023F07003134341F6FF72C4F200029042C7
:102C00000DDC70451FDCB0F1804F3FD040F2004238
:102C1000C4F20002904239D040F6000221E043F6AF
:102C2000FF72C4F2010290421EDC42F20002C4F2C2
:102C3000000290422AD00022C4F20102904225D024
:102C4000604523D026E040F60042C4F200029042E4
:102C50001CD041F60002C4F20002904216D041F6A8
:102C60000042C4F200020FE044F20002C4F201028A
:102C700090420BD044F60002C4F20102904205D00B
:102C800044F20042C4F20102904203D1CA6823F424
:102C90004073134323F080024B69D1F800E08C6845
:102CA0001A430260C46240F48062C0F828E06245C2
:102CB00004BF09690163012141610169C90708BFB6
:102CC00010BD016921F00101016110BD40F6B400A1
:102CD000C2F20000FFF7CCB840F6FC00C2F20000E0
:102CE000FFF7C6B8806B0021C185C184FFF7BEB86D
:102CF000016851E8031F026821F4907142E8031350
:102D0000002BF5D1016851E8051F026821F001018F
:102D100042E80513002BF5D1016B01290AD100BF50
:102D2000016851E8031F026821F0100142E8031313
:102D3000002BF5D1202180F842100021016370475B
:102D400090F84210222918BF704783680246B3F5F5
:102D5000805F08D152F8281F52F8183C002B48D049
:102D600003685B6809E052F8281F13B90369002B58
:102D7000F6D003685B6803F07F030B7011680131C4
:102D80001160C18D01390A04C18500D07047016806
:102D9000CA6822F02002CA60CA6822F48072CA603F
:102DA0004A6922F001024A61202180F84210002184
:102DB0004163026B012A18BFFFF7B9BB81B0016301
:102DC000016851E8031F026821F0100142E8031373
:102DD000002BF5D101680A68D20606D500220092C0
:102DE0000A680092496800910099818D01B0FFF74F
:102DF0003CB8026852686FF35F2221F8022B8162AF
:102E0000BFE7B0B50446006804F108030ECB0569BE
:102E1000194325F440552A4302616269E36911436D
:102E2000C268194349F20C639A431143C160416976
:102E3000A26921F4407141F20043114340F48062E1
:102E4000C4F201039A42416102D1FEF7E6FC01E0BF
:102E5000FEF7D0FCE1694FF69C7563681922C0F655
:102E6000FF75B1F5004FA0FB02011CD15A00DB0F2A
:102E7000FDF712FA48F21F51C5F2EB11A0FB012336
:102E80005A0905F1805302FB0300322303EBC00013
:102E9000A0FB01014FF4F87000EA111000EB0210E2
:102EA000C1F3421118E09A009B0FFDF7F5F948F2C3
:102EB0001F51C5F2EB11A0FB01235A0902FB0500CB
:102EC000322303EB0010A0FB0101F02000EA5110B7
:102ED00000EB0210C1F34311084421688860B0BDC3
:102EE0002DE9F04182B0804600681D4603680E4619
:102EF0001940B1421CD017466C1C00BFA4B1FEF7AC
:102F0000BEFA01464FF003009DB1C91BA94210D87B
:102F1000D8F80000C168490706D5402E04D0802E9D
:102F200002D00168090707D401683140B142E5D1F8
:102F3000002002B0BDE8F0810024019401680191F5
:102F40004068019001984046FFF7D2FE0820C8F87B
:102F5000440088F840400120EBE740F2DC70C2F208
:102F60000000FEF785BF40F62400C2F20000FEF725
:102F70007FBF40F66C00C2F20000FEF779BF80B55B
:102F800040F2DC7040F2B011C2F20000C2F2000167
:102F90000122FFF7A8FA2520FEF718FB40F62400CF
:102FA00040F2B111C2F20000C2F200010122FFF7AB
:102FB0009AFA2620FEF70AFB40F66C0040F2B211A6
:102FC000C2F20000C2F200010122FFF78CFA2720B2
:102FD000BDE88040FEF7FABAFEE7000071B3F0B535
:102FE00081B02DED0A8B40F264069FED159A9FED9E
:102FF00015AA9FED15BA0C460546C2F20006032736
:10300000B2EE088AB2EE0ECA2846B0EE480AF0EEDA
:10301000490AB0EE4A1AF0EE4B1AB0EE4B2AF0EE27
:103020004C2A06F8147B01F052F9013C05F17005B9
:10303000EAD1BDEC0A8B01B0BDE8F040704700BF9B
:10304000CDCCCC3ECDCCCC3D00803B4580B543F2D1
:10305000CD1040F2A85147F64852C0F60000C2F227
:103060000001C0F6000201F0BEFA40F29851C2F22F
:103070000001086043F2E90040F26C5147F6B45297
:10308000C0F60000C2F20001C0F6000201F0ABFA87
:1030900040F2A451C2F20001086043F2B91040F2BC
:1030A000340147F69052C0F60000C2F20001C0F6AB
:1030B000000201F098FA40F2A051C2F2000108604B
:1030C00043F2FD0040F2E81147F66C52C0F60000F2
:1030D000C2F20001C0F6000201F085FA40F29C51F4
:1030E000C2F20001086080BD044600BF204600F027
:1030F000E3F9022001F039FAF8E70000D0F8801374
:103100000446FFF76BFF00BF204600F01BFE0120C6
:1031100001F02BFAF8E770B592B006AC20463021EA
:10312000FDF7A1F901A81421FDF79DF9002543F64B
:1031300040000095C4F202000168022641F080516F
:103140000160006800F080500090009847F2000095
:103150000095C4F20000016841F4804101600068FC
:1031600000F4804000900098012006904FF48030D9
:1031700007904FF480000D9008200E904FF4A87037
:10318000CDE90F060420119020460C96FEF78EFB29
:1031900080B90F20CDE901064FF4A05004904FF400
:1031A0008050059001A805210395FEF75BFA10B940
:1031B00012B070BD72B672B6044600BF204600F071
:1031C00079FF012001F0D1F9F8E70000044600BFC3
:1031D000204600F097FF012001F0C7F9F8E740F220
:1031E0003801C2F20001496A032908BF00F0BCBAE5
:1031F000022905D0012918BF00F006B800F004B874
:1032000000F05EB9000000002DE9F04F89B040F2F7
:10321000380EC2F2000EDEE9003447F618194B45AD
:1032200047F6181548F6B70CDEF80820DEF82080BF
:10323000B8BF1D466345C8BF1D464C4547F6181725
:10324000B8BF27466445C8BF27464A4547F6181603
:10325000B8BF16466245C8BF1646B7EE000AB8F1B9
:10326000030F9FED931A08BFB0EE410AB8F1020FA9
:103270009FED901A08BFB0EE410A634547F6181358
:10328000C8BF48F6B803E91A01EE101A02EE103A68
:1032900047F61811B8EEC11AB8EEC22A6445C8BF85
:1032A00048F6B8017B1A81EE021A02EE103A03EEDC
:1032B000101AB8EEC22AB8EEC33A82EE032A0446C8
:1032C000CEE9005740F2C8559EF82900C2F2000529
:1032D000CEF8086021EE001A85ED011A22EE001AE0
:1032E00085ED001A30B106B394ED050A204600F0D2
:1032F000A7FC22E06245C8BF48F6B809A6EB090062
:1033000001EE100A02EE109AB8EEC11AB8EEC22A07
:1033100081EE021A40F2EC50C2F20000006B6061D4
:1033200021EE000A85ED050A07E040F2EC51C2F2F9
:103330000001096B002068616161204600F0C0FB5C
:10334000D5E903906E6904F0C9FB044630460D468A
:1033500004F0C4FB9FED480B53EC102B04F0C6F9AE
:1033600022462B46CDE9071003F062FF9FED440B88
:1033700053EC106B32460693039604F0B7F99FEDB9
:10338000420B53EC107B3A460593029704F0AEF9DA
:103390009FED3F0B53EC108B42460493CDF8048015
:1033A00003F0EEFF03F012FF40F26401C2F20001ED
:1033B000C860484604F092FB9FED370B82468B466F
:1033C00053EC102B2046294604F090F99FED340B66
:1033D00004460090894653EC102B5046594604F0A1
:1033E00085F922464B4603F023FF089C079D0246C1
:1033F0000B462046294603F01BFF3246069E334605
:1034000004F074F93A46059F3B4604F06FF94246D2
:10341000DDF81080434603F0B3FF03F0D7FE40F21F
:1034200064019FED210BC2F20001086253EC102BE6
:103430005046594604F05AF9009A4B4603F0F8FEFC
:1034400002460B462046294603F0F2FE039A334615
:1034500004F04CF9029A3B4604F048F9019A4346BD
:1034600003F08EFF03F0B2FE40F26401C2F20001ED
:10347000486309B0BDE8F08F39F240649126C63F39
:103480000000000000004E4000000000000033403B
:10349000B3788A11A7E9DC3F000000000000E0BF1C
:1034A000AF7CECE77AB6EBBFAF7CECE77AB6EB3FEC
:1034B0006666E63F6666A63FFFF791BE0000000025
:1034C0002DE9F04F89B040F2380EC2F2000EDEE96D
:1034D000007447F618118F4247F6181548F6B70CD6
:1034E000DEF80890DEF82080B8BF3D466745C8BFCB
:1034F0003D468C4247F61813B8BF23466445C8BF03
:103500002346894547F61816B8BF4E46E145C8BF61
:103510004E46B7EE000AB8F1030F9FED911A08BFAF
:10352000B0EE410AB8F1020F9FED8E1A08BFB0EE5F
:10353000410A674547F61817C8BF48F6B807EA1B9F
:1035400001EE102A02EE107A47F61812B8EEC11AF0
:10355000B8EEC22A6445C8BF48F6B8029C1A81EE8C
:10356000021A02EE104A03EE102AB8EEC22AB8EE92
:10357000C33A82EE032ACEE9005340F2C855C2F2A4
:1035800000050446CEF8086021EE001A85ED011A08
:1035900022EE001A85ED001AAEB1E145C8BF48F62B
:1035A000B801701A01EE100A02EE101AB8EEC11A34
:1035B000B8EEC22A81EE021A0020207721EE000A1E
:1035C00085ED020A11E0207F10B194ED050A09E0B3
:1035D00040F2EC51C2F2000191ED0C0A012020777B
:1035E00084ED050A204600F02BFB204600F068FA27
:1035F000D5E903906E6904F071FA044630460D4631
:1036000004F06CFA9FED480B53EC102B04F06EF8AD
:1036100022462B46CDE9071003F00AFE9FED440B2E
:1036200053EC106B32460693039604F05FF89FED5F
:10363000420B53EC107B3A460593029704F056F880
:103640009FED3F0B53EC108B42460493CDF8048062
:1036500003F096FE03F0BAFD40F26401C2F20001ED
:10366000C860484604F03AFA9FED370B82468B4615
:1036700053EC102B2046294604F038F89FED340B0C
:1036800004460090894653EC102B5046594604F0EE
:103690002DF822464B4603F0CBFD089C079D0246C1
:1036A0000B462046294603F0C3FD3246069E3346AC
:1036B00004F01CF83A46059F3B4604F017F84246D2
:1036C000DDF81080434603F05BFE03F07FFD40F21F
:1036D00064019FED210BC2F20001086253EC102B34
:1036E0005046594604F002F8009A4B4603F0A0FDFC
:1036F00002460B462046294603F09AFD039A3346BC
:1037000003F0F4FF029A3B4603F0F0FF019A4346B0
:1037100003F036FE03F05AFD40F26401C2F20001EC
:10372000486309B0BDE8F08F39F240649126C63F86
:103730000000000000004E40000000000000334088
:10374000B3788A11A7E9DC3F000000000000E0BF69
:10375000AF7CECE77AB6EBBFAF7CECE77AB6EB3F39
:103760006666E63F6666A63F2DE9F04F81B02DED17
:10377000088B8AB040F23805C2F20005D5E9007224
:1037800047F6181647F618110446A868B742B8BF9E
:10379000394648F6B8039F42A8BF394640F2E417BD
:1037A000C2F2000797ED000A40F2E017C2F20007EC
:1037B00097ED001A20EE002A21EE013A33EE022A9C
:1037C000B1EEC22A80EE010A47F61817B242B8BF1E
:1037D00017469A42A8BF174647F61812B042B8BF1C
:1037E00002469842A8BF0246C5E90017AA6084EDC8
:1037F000012A02F017FD94ED011AB7EE008AB4EE2B
:10380000481AF1EE10FA84ED040A07D002F020FE07
:1038100094ED040A02F028FF94ED040A296A28684E
:103820000329B0EE481A9FEDA49A08BFB0EE491ADA
:10383000022947F618119FEDA1AA08BFB0EE4A1A57
:10384000B042C8BF48F6B801401A02EE100AB8EEFE
:10385000C22A03EE101AB8EEC33AB1EE422A82EE43
:10386000032A21EE02BA02F0FFFE286A2968032823
:10387000B0EE481A08BFB0EE491A022808BFB0EEF1
:103880004A1AB142C8BF48F6B806881B02EE100AB1
:1038900003EE106AB8EEC22AB8EEC33A82EE032AEB
:1038A00020EE0B0A84ED020A94ED040A21EE02BA1E
:1038B00002F0CEFDA06840F2C856C2F20006706069
:1038C000A86820EE0B0A84ED030A86ED000A00B317
:1038D000296A032908BFB0EE498A022947F6181160
:1038E00008BFB0EE4A8A8842C8BF48F6B801401AFD
:1038F00000EE100A01EE101AB8EEC00AB8EEC11AB6
:1039000080EE010A0020207720EE080A86ED020AE8
:1039100011E0207F10B194ED050A09E040F2EC516E
:10392000C2F2000191ED0C0A0120207784ED050A16
:10393000204600F085F9204600F0C2F8D6E9039051
:10394000766904F0CBF8044630460D4604F0C6F81C
:103950009FED4B0B53EC102B03F0C8FE22462B4679
:10396000CDE9081003F064FC9FED470B53EC106B9E
:1039700032460793049603F0B9FE9FED450B53ECD6
:10398000107B3A460693039703F0B0FE9FED420B7F
:1039900053EC108B42460593CDF8088003F0F0FC01
:1039A00003F014FC40F26401C2F20001C860484612
:1039B00004F094F89FED3A0B82468B4653EC102BA3
:1039C0002046294603F092FE9FED370B04460190F6
:1039D000894653EC102B5046594603F087FE224689
:1039E0004B4603F025FC099C089D02460B462046E9
:1039F000294603F01DFC3246079E334603F076FE4F
:103A00003A46069F3B4603F071FE4246DDF81480BD
:103A1000434603F0B5FC03F0D9FB40F264019FED8F
:103A2000240BC2F20001086253EC102B5046594699
:103A300003F05CFE019A4B4603F0FAFB02460B468C
:103A40002046294603F0F4FB049A334603F04EFE69
:103A5000039A3B4603F04AFE029A434603F090FC69
:103A600003F0B4FB40F26401C2F2000148630AB003
:103A7000BDEC088B01B0BDE8F08F00BF00BF00BFF8
:103A800039F240649126C63F0000000000004E401D
:103A90000000000000003340B3788A11A7E9DC3F42
:103AA000000000000000E0BFAF7CECE77AB6EBBF9F
:103AB000AF7CECE77AB6EB3F6666E63F6666A63F0C
:103AC0002DE9F04F81B02DED048B40F2EC51C2F2A4
:103AD0000001086B0C4680F0004003F0FFFF9FEDF3
:103AE000540B5AEC10BB5A46534603F0FFFD9FEDB2
:103AF000520B56EC107B3A46334603F041FC41EC46
:103B0000100B02F041FC40F2C851C2F200014868BB
:103B1000B0EE408AF0EE608A0D4603F0DFFF80468B
:103B2000206B894680F0004003F0D8FF5A46534688
:103B300003F0DCFD3A46334603F022FC41EC100B67
:103B400002F02EFD2868B0EE409AF0EE609A03F085
:103B5000C5FF02460B4651EC190B03F0C7FD0446A6
:103B60000D4651EC180B42464B4603F0BFFD224672
:103B70002B4603F05DFB03F029FB40F2EC54C2F24C
:103B80000004216B40F2C855C2F20005286181F0A3
:103B9000004003F0A3FF5A46534603F0A7FD3A4600
:103BA000334603F0EDFB41EC100B02F0F9FC6868C2
:103BB000B0EE408AF0EE608A03F090FF8046206B02
:103BC000894680F0004003F089FF5A46534603F0CF
:103BD0008DFD3A46334603F0D3FB41EC100B02F067
:103BE000D3FB2868B0EE409AAE68F0EE609A2F469C
:103BF00003F074FF02460B4651EC190B03F076FDFF
:103C000004460D4651EC180B42464B4603F06EFD40
:103C100002460B462046294603F072FE03F0D6FA10
:103C2000F8607E61BDEC048B01B0BDE8F08F00BF91
:103C300050455254FB2109400000000000806640BE
:103C400040F2EC51C2F2000191ED0C2A9FED1B1ADB
:103C500032EE400AB4EE410AF1EE10FA80ED062A87
:103C600080ED080A02DD9FED142A08E09FED152A79
:103C7000B4EE420AF1EE10FA05DA9FED112A30EEA9
:103C8000020A80ED080A80B580EE010A10EE100AE3
:103C900003F024FF9FED060B53EC102B03F026FDE1
:103CA00003F094FA40F2C851C2F20001886080BD6E
:103CB000333333333333D33F0000B4C300003443D2
:103CC0000000B443000034C32C2100F0A5BB7047B2
:103CD000F0B581B040F68C11C2F2000101F11C0276
:103CE000044600F031F8D4F8800330B340F26401A8
:103CF000C2F2000101F108060027254616F8081C4B
:103D0000032914D136F9040CD6ED010A00EE100A8D
:103D1000B8EEC00A284600F0F5FA284600F0D4FABA
:103D2000BDEEC00AD4F8800310EE101A31800137BE
:103D30007035874206F11406E0D301B0BDE8F040CB
:103D400000F036B8FFF7C4BF0868A0F201200228CF
:103D500088BF704780B510A353F820E013880BA1EB
:103D600051F820101BBA0FF23C0C1B0C5CF8200021
:103D70000B80518809BA090CAEF80010918809BA75
:103D8000090C0180BDE88040704700BF660000203C
:103D90007A0000208E000020680000207C000020B7
:103DA000900000206A0000207E0000209200002089
:103DB00080B588B00020CDE904008DF81C000820F3
:103DC00006904FF40070029040F26400C2F20000CE
:103DD000018940F2D86209BA838BC2F20002090C51
:103DE000118019BA038EB0F84400090C00BA518052
:103DF00019BA000C090CD08040F2E4609180C2F244
:103E0000000002A901ABFCF7C5FC08B080BD0000B2
:103E1000B0B50446002500BF601900F0D7FA38306D
:103E200000F0D4FA7035B5F5607FF5D10321204656
:103E3000C4F88013B0BD40F27010C2F2000090EDE3
:103E4000000A90ED011A90ED022A80ED040A80ED3F
:103E5000051A80ED062A91ED035A90ED0A3A91ED8C
:103E6000046A35EE400A91ED004A496980ED070A7F
:103E700033EE400A90ED0B3A36EE411A80ED081A07
:103E800080ED0A0A33EE410A90ED0C1A34EE422A14
:103E900080ED0B0A31EE420A80ED005A80ED016A96
:103EA00080ED024AC16080ED092A80ED0C0A70475E
:103EB00010B54AF65522C0F60D2286464EF8102F50
:103EC0000EF1020C00230122CC5C1EF803309C4250
:103ED0003ED1D2074FF001034FF00002F4D18A78AF
:103EE000002302750A4402F1040E01221EF8034069
:103EF0001CF803309C422DD1D2074FF001034FF044
:103F00000002F3D1CA1C0023D45CC4540133042B37
:103F1000FAD100F1040CCB1D002200BF9C5C0CF810
:103F200002400132042AF9D100F1080C01F10B031F
:103F3000002200BF9C5C0CF802400132042AF9D137
:103F40000C300F31002200BF8B5C83540132FBE741
:103F5000022010BD012010BD10B5044690F861008C
:103F600008284ED8DFE800F0052E1C1F0D363A2534
:103F70003E00FC2948D1012084F86100FC20E07556
:103F800010BD94F86000A27D2318013084F8600011
:103F9000997694F86000904238BF10BD052031E05A
:103FA000617603202EE04FF48060A175A4F86000D4
:103FB00010BDFD2925D1082084F86100FD2084F87A
:103FC0005A0010BDFB291CD1022084F86100FB209F
:103FD000207610BD84F85C10062013E084F85D1094
:103FE00007200FE0FE290CD1A27DFE2084F85B00A3
:103FF0003AB145F2003004F11A01C2F20000FCF7B8
:10400000C3F9002084F8610010BD000070B50C46B3
:1040100090F87D1005462078042985F87C0041D869
:10402000DFE801F003371D3108000D38B0FA80F0E9
:10403000400938E00D2835D1294651F8640F01F1C7
:10404000040E9EE80C504E69C8610A624B62C1F8CA
:1040500028C0C1F82CE00E63FFF7EDFE22E095F8D2
:104060007E10294481F8640095F87E000130C1B2C9
:10407000182985F87E0018D395F87D10002085F862
:104080007E00481C0FE00A38B0FA80F0400980003A
:1040900009E00D280CD00A2804D1002085F87E0004
:1040A000022000E0002085F87D000020207070BD17
:1040B0000620F8E7F0B581B040F23805C2F20005FD
:1040C00095F8280098B140F66C04002609A7C2F2C2
:1040D000000400BFB919204601224FF0FF3301361A
:1040E000FEF7A6FA042EF5D1002085F8280001B0CD
:1040F000F0BD00BF4143543000000000042100F037
:104100008BB97047AFF300802DE9F04F017A827AC6
:104110004172017CC2724174017D827C4175017ED5
:10412000C274827D4176017FC275827E417745F2FD
:104130000031C2F20001877BC276827F0E78037B5A
:1041400091F801E0C773C2778F7891F80390002E41
:104150003246437318BF0122BEF1000FF3460270CE
:1041600018BF4FF0010B002F4D4680F802B018BF6A
:1041700001270771B9F1000F18BF012591F804C09C
:104180008571E046BCF1000F18BF4FF001084C7973
:1041900080F80880002C18BF01248F798472002FCA
:1041A00018BF0127CC7991F808A007734F7A8B7A52
:1041B000002C18BF01248473BAF1000F544618BFB5
:1041C00001240474002F18BF01278774002B18BF27
:1041D0000123CF7A0375002F18BF01270B7B87754A
:1041E000002B18BF01234F7B0376002F18BF012738
:1041F0008B7B8776002B18BF0123CF7B0377002FA3
:1042000018BF0127002E40F20806C2F20006877789
:1042100013D043788BB940F2E063C2F200031F78F9
:1042200063464FF0010C2CEA07079C4640F2E0631E
:10423000C2F2000386F829701F70B9F1000F4270B6
:1042400006D0C27922B9326A531E98BF1346336230
:10425000BEF1000FC57106D0C27822B9326A032AB6
:1042600038BF01323262BAF1000F80F803B007D0D4
:10427000427C2AB9726A0123032A38BF531C736235
:10428000BCF1000F447404D0427A12B9012286F8BE
:10429000282080F80980088A4A8A8B8ACF8A0D8B69
:1042A000498B40BA6DBA49BA52BA5BBA7FBA86E84E
:1042B0008D00C6E90451BDE8F08F10B520210446F9
:1042C000FCF7AFF8204610BD90ED090A704710B515
:1042D0002DED028B0446002180ED082AC0ED0A1A5C
:1042E00080EC030AC1620C3061621421B0EE628A74
:1042F000FCF7B9F8012084F8300084ED0D8ABDEC9C
:10430000028B10BD90ED013A30EEC00A90ED041A18
:1043100090ED087A20EE033A30EE416AB4EE473A67
:1043200090ED002A90ED024A90ED035A80ED050AC7
:1043300080ED066AF1EE10FAC8BFB0EE473AB1EE72
:10434000477AB4EE473AF1EE10FAB8BFB0EE473A0A
:1043500022EE062A32EE032A30EE053A31EE015AF9
:1043600033EE453A24EE033A90ED094A33EE022A41
:1043700090ED0A3A34EE022AB4EE432A80ED092A7F
:10438000F1EE10FAC8BFB0EE432AB1EE433A04DCB6
:10439000B4EE432AF1EE10FA08DAB4EE432AF1EE55
:1043A00010FAB8BFB0EE432A80ED092A80ED031A57
:1043B00090ED0D1AB0EEC02AB4EE412AF1EE10FADB
:1043C00080ED040ABCBF00214162704710B5002295
:1043D000044644F20001C4F240124CF6CD434CF6C0
:1043E000CD4CC4F21C61C3F6CC63C3F6CC5C84E84C
:1043F0000C1000220C30C4E90812C4E90A1214217E
:10440000FCF731F8012084F830004FF07C51204651
:10441000616310BDFCF768B8FFF7FCBF80B540F2E0
:10442000D810C2F200000078BFF35F8FC00718BF3A
:1044300080BD40F2D810C2F2000000F0D3FD68B198
:1044400040F2A850C2F20000FFF737FF40F2D81048
:10445000C2F20000BDE8804000F0DABD80BD40F24D
:10446000D410C2F200000078BFF35F8FC00718BFFE
:10447000704780B540F2D410C2F2000000F0B2FDE7
:10448000BDE8804090B147F6D850C0F6000040F239
:104490006C510830C2F20001086040F2D4100022D2
:1044A000C2F200000A774A6200F0B2BD704740F2E3
:1044B000D010C2F200000078BFF35F8FC00718BFB2
:1044C000704780B540F2D010C2F2000000F08AFDC3
:1044D000BDE8804028B140F2D010C2F2000000F0E8
:1044E00097BD704780B540F2CC10C2F20000007852
:1044F000BFF35F8FC00718BF80BD40F2CC10C2F27F
:10450000000000F06FFD68B140F2E810C2F2000058
:10451000FFF77EFC40F2CC10C2F20000BDE8804004
:1045200000F076BD80BD0000FEE7FCF749F8FCF71F
:10453000B9FFFEF7F0FDFEF71EF9FEF7D0F8FEF723
:1045400031FAFEF7F6F8FEF775FAFEF7F1F9FEF725
:104550004DFAFEF795FAFEF708FAFEF710FD00F0A7
:1045600012F8FEF773FD00F021F8EFF3058111B1A9
:104570006FF00500704720B180B500F0BDFE00204F
:1045800080BD00207047EFF3058010B16FF005008B
:10459000704740F2AC10C2F200000168002911BF60
:1045A0004FF0FF30012101600020704710B5EFF39C
:1045B000058010B16FF0050413E040F2AC10C2F2B8
:1045C0000000016801290AD14EF61F51CEF2000108
:1045D00000240C700221016000F006FF01E04FF0A2
:1045E000FF34204610BD2DE9F04184B00B46002475
:1045F0000394EFF30581B0B3A9BB32B3D2F818E04E
:10460000BEF1000F08BF4FF0180EBEF1380F2AD8C8
:104610001179C90727D15769D2E902854FEA970C6A
:104620001168002F664608BF8026B8F1000F1ED023
:104630005C2D18D31269B2B1AFB1CDE900E2624688
:10464000CDF8088001F022FB0EE080264FF0180E16
:10465000002103AFB2B2CDE900E701F0E9FA039916
:10466000012808BF0C46204604B0BDE8F081002DAB
:10467000F9D11269002AF6D1EBE7F0B581B00D4609
:1046800045F2F02140F6A426C2F20001C2F2000673
:104690000F6831680446081D00F0BEFC601C0BD199
:1046A00055B13068011D45F2C820C2F2000001B0CA
:1046B000BDE8F04000F007BD3068E41944600BD35A
:1046C00040F6B420C2F2000000683168043101B045
:1046D000BDE8F04000F0DABC40F6AC20C2F20000C9
:1046E00000683168043100F0D1FC45F25420C2F278
:1046F000000001688C4238BF046001B0F0BD0000CA
:104700002DE9F047044600F0F5FC44F62830C2F2EB
:104710000000016840F6A42701310160C2F20007E1
:10472000396845F2BC2A40F6BC26C2F2000AC2F241
:10473000000651B1DAF8000000283ED13868E16A7D
:10474000C06A884298BF3C6037E03C60006801283E
:1047500033D10025701900F08BFC1435B5F58C6F42
:10476000F8D145F22028C2F20008404600F080FC53
:1047700045F23429C2F20009484600F079FC45F2BE
:104780006820C2F2000000F073FC45F2DC20C2F2A7
:10479000000000F06DFC45F2C820C2F2000000F0FD
:1047A00067FC40F6AC20C2F20000C0F8008040F682
:1047B000B420C2F20000C0F8009044F63430C2F2D7
:1047C0000000016801310160616444F63831C2F2D1
:1047D0000001E06A0A68904288BF086000EB800030
:1047E00006EB8000211D00F06EFC00F0A5FCDAF85D
:1047F000000078B13868E16AC06A88420AD24EF691
:104800000450CEF200004FF080510160BFF34F8F93
:10481000BFF36F8FBDE8F08770B582B000F06AFC1F
:1048200045F2F426C2F20006306850BB45F2F4149B
:10483000C2F20004204600F01BFC45F20825C2F23B
:104840000005284600F014FC40F6A820C2F2000043
:10485000046040F6B820C2F2000040F6B01240F604
:10486000502305600025C2F20002C2F200030A20B4
:104870001021009500F006FF306010B103A100F098
:1048800003FD02B0BDE8704000F056BC546D72519B
:104890000000000070B5866B036C0446DBB1154662
:1048A00012B3E0681A46FBF76FFDE168206C2268DE
:1048B000091A9142E16003D2A16840420844E060D5
:1048C000A81EB0FA80F040093146002E18BF012121
:1048D0000840361A15E02068002598B9A06801F054
:1048E000DDFAA56005460DE060681A46FBF74CFD51
:1048F000D4E90101226C10448842606001D3206831
:1049000060600025711C2846A16370BD10B5044687
:1049100090F85900022808BF10BD012803D038B90B
:10492000206B00F021FC2046BDE8104000F01CBCCC
:104930004FF0500080F31188BFF36F8FBFF34F8F9C
:10494000FEE7000044F62C3540F6BC2A4EF604582B
:1049500045F2DC2744F62836C2F20005C2F2000A0E
:10496000CEF200084FF08059C2F20007C2F20006F2
:10497000286890B100F0BEFBF868C468201D00F004
:104980004BFB30680138306028680138286000F03F
:10499000D3FB2046FFF7BAFFEAE7DAF80000022867
:1049A000E6D3C8F80090BFF34F8FBFF36F8FDFE7F8
:1049B0002DE9F0470A9C8246206B16460F46DDE93A
:1049C00008599100A5229846FBF723FD206B00EBC8
:1049D0008600A0F1040020F0070604F134004FF037
:1049E000000157B17A5C42541AB10F2901F101015B
:1049F000F8D1002084F8430000E001700027201D5A
:104A0000372D28BF3725E562C4E9135700F03BFB7B
:104A100004F1180000F037FBC5F13800A061304602
:104A20005146424624616462676584F8587000F01C
:104A3000C7FAB9F1000F206018BFC9F80040BDE8FF
:104A4000F087000080B545F2C022C2F2000200BF2C
:104A5000114612688242FBD34B68D0F804C001EBC8
:104A6000030E864503D19C440846C1F804C000EB00
:104A70000C0393420AD140F6B023C2F200031B6834
:104A80009A4203D0D2E9002363444360814202602A
:104A900018BF086080BD8C46014641F804CF94459C
:104AA000006108D940F6A8209A42C2F200000AD25A
:104AB0009C450ED207E08069D21A824209D240F6A4
:104AC000B820C2F2000080B5006800F0DFFA0020D4
:104AD00080BD01207047000008480068006880F32E
:104AE00008884FF0000080F3148862B661B6BFF307
:104AF0004F8FBFF36F8F00DF00BF000008ED00E0B5
:104B00002DE9F04F81B0804601F00DF940F6A02963
:104B1000C2F20009D9F800108246884238D240F625
:104B2000A825C2F200052868016841B34FF0000BC8
:104B3000C068C6680468371D384600F06DFA316AEF
:104B40003046884796F82800400714D5B0692044BD
:104B5000A04207D9706028683946366100F096FA9D
:104B600009E000BF3046002122460023CDF800B006
:104B700001F0FAFAA8B1286801680029D8D140F6F6
:104B8000B821C2F200010A68086001202A6000E032
:104B90000020C8F800005046C9F800A001B0BDE8E8
:104BA000F08F4FF0500080F31188BFF36F8FBFF389
:104BB0004F8F00BFFEE7000081B00020009040F260
:104BC0000C10C2F2000000684FF0500181F3118810
:104BD000BFF36F8FBFF34F8F013001D0FEE700BFEF
:104BE00000980028FCD001B07047000086B040F665
:104BF000A82B45F2F427C2F2000B02ACC2F2000768
:104C00004FF0000A01AD00BFDBF8000006681EB1DE
:104C1000C068D0F8008001E04FF0000800F036FCDA
:104C20002046FFF76DFF029911B101F0C9F9B1E01B
:104C30008146B6B1C84514D801F0C2F9DBF80000CE
:104C40005E46C068D0F80CB00BF1040000F0E4F947
:104C50009BF82800410707D400F0FA008BF82800E1
:104C600017E0E6B1002223E0DBF818004A4600EB2B
:104C7000080158464346FFF70EFF50B15846002141
:104C800042460023CDF800A001F06EFA002800F0A3
:104C90009E80DBF8201058468847B3467AE040F6FD
:104CA000B820C2F2000000680068B0FA80F0420943
:104CB0003868A8EB090100F0FBFA01F081F900283F
:104CC00068D14EF60450CEF200004FF080510160E2
:104CD000BFF34F8FBFF36F8F5CE000BF0298B0F15E
:104CE000FF3F06DCDDE90320059990470298002884
:104CF00050D4049E706910B1301D00F08DF9284623
:104D0000FFF7FEFE0299092944D80246DFE801F0C8
:104D100005050534253B0505342596F82800039B39
:104D2000B16940F0010086F8280019443046FFF7C9
:104D3000B2FE78B3316A3046884796F828004007BB
:104D400028D50398B16900230A1830460021CDF810
:104D500000A001F009FAE8B92FE096F8280040F029
:104D60000101039886F82810B061E0B1811830463F
:104D70001346FFF790FE0DE096F8280000F0FE00C5
:104D800086F8280006E096F828008107F6D4304619
:104D900000F0EAF938682146002200F041FE0028C0
:104DA0007FF49CAF30E74FF0500080F31188BFF3E1
:104DB0006F8FBFF34F8F00BFFEE74FF0500080F3BF
:104DC0001188BFF36F8FBFF34F8F00BFFEE74FF027
:104DD000500080F31188BFF36F8FBFF34F8F00BF78
:104DE000FEE70000F0B581B0044600F083F994F9C5
:104DF0004560012E0EDB04F1240500BF286848B190
:104E0000284601F095F808B100F0AAFA70B2013E08
:104E10000128F3DCFF2684F8456000F08DF900F0EE
:104E200069F994F94470012F0EDB04F1100500BFFD
:104E3000286848B1284601F07BF808B100F090FAE4
:104E400078B2013F0128F3DC84F8446001B0BDE88A
:104E5000F04000F071B90000F0B581B0044600F0F8
:104E600015FB40F6B021C2F20001086848B145F2D6
:104E70001C21C2F200010978002918BF4FF000413F
:104E80002EE040F61C72C2F20002D01D530702F55C
:104E9000705318BF20F0070245F2C020C2F2000094
:104EA0000027C0E9002723F00700A0F108030B60EA
:104EB00040E90277086845F250219B1AC2F20001CE
:104EC0000B6045F24821C2F200010B6045F21C2143
:104ED000C2E90003C2F2000101220A704FF0004152
:104EE000002C4FF000055AD0214058D124F0070182
:104EF00045F2482610316207C2F2000608BF04F1ED
:104F0000080132684B1E934249D245F2C022C2F2D8
:104F1000000217687B6800BF8B4205D23C681CB159
:104F200063683A462746F7E7874212D01568386823
:104F30005B1A112B106012D3781842070BD04FF078
:104F4000500080F31188BFF36F8FBFF34F8F00BF06
:104F5000FEE7002523E043607960FFF773FD45F22B
:104F6000502178683268C2F200010B68121A9A4226
:104F7000326038BF0A6045F21C21C2F20001097894
:104F800045F25C22C2F20002002918BF40F0004046
:104F9000136800210835C7E90010581C106001F0A3
:104FA0000FF8680709D04FF0500080F31188BFF365
:104FB0006F8FBFF34F8F00BFFEE7284601B0F0BDF3
:104FC000034644F6B93021F00101C0F600004FF06D
:104FD000807C03E903106FF00201A3F1440043E970
:104FE00009127047017809B1002070474178012902
:104FF00003D08A0705D402224270481E18BF012040
:10500000704780B547F63660C0F60000FFF78DFAAE
:1050100001210170417070470169D0E90132D1F876
:1050200004C09A608445536008BF4A600022026150
:105030000868013808600868704744F63C53C2F2BB
:105040000003036044F63C30C2F200000860802098
:105050001060704745F29813C2F20003036044F6F3
:105060009850C2F2000008604FF4807010607047E2
:105070004FF0FF31024642F8081F00214260C0E9AC
:1050800003220160704700210161704780B5D1F8AB
:1050900000C01CF1010207D000F1080296465268D8
:1050A00013686345FAD903E0D0F810E0DEF8042075
:1050B0004A609160C1F808E0CEF804100861016808
:1050C0000131016080BDD0F800C0436808619A6872
:1050D000C1E90132516099600CF101010160704732
:1050E000DFF80C00016841F47001016070470000B6
:1050F00088ED00E04FF0500080F31188BFF36F8F10
:10510000BFF34F8F40F20C10C2F2000001684A1C3E
:10511000026001B170474EF60450CEF20000006804
:105120000006F7D04FF0500080F31188BFF36F8F67
:10513000BFF34F8FFEE7000040F20C10C2F20000F8
:10514000016839B10139016018BF7047002080F350
:10515000118870474FF0500080F31188BFF36F8FB4
:10516000BFF34F8FFEE70000B0B5D0B1044645F263
:105170001C20C2F20000007854F8041C002818BF5C
:105180004FF0004008420DD0A4F108052A6892B102
:105190004FF0500080F31188BFF36F8FBFF34F8F34
:1051A000FEE7B0BD4FF0500080F31188BFF36F8F62
:1051B000BFF34F8FFEE721EA000044F8040C00F033
:1051C00065F945F24821C2F2000154F8040C0A685E
:1051D000104408602846FFF735FC45F26020C2F213
:1051E0000000016801310160BDE8B04000F0E8BE98
:1051F0004EF21000CEF2000000210160816040F20A
:105200000401C2F20001096844F6D352C1F26202FD
:10521000A1FB02124FF0FF3101EB92114160072117
:1052200001607047EFF30580102814D34EF2F0317F
:10523000CEF20001405C44F61C31C2F20001097854
:10524000884208D24FF0500080F31188BFF36F8F6F
:10525000BFF34F8FFEE74EF60C50CEF2000044F63F
:1052600020310068C2F20001096800F4E060884261
:1052700098BF70474FF0500080F31188BFF36F8FD5
:10528000BFF34F8FFEE7000045F27C2C0022C2F2F4
:10529000000C03E00132082A08BF70475CF8323086
:1052A000002BF7D10CEBC2034CF83210586070475A
:1052B00070B515460E460446FFF71CFF94F84400EF
:1052C000FF2804BF002084F8440094F84500FF281C
:1052D00004BF002084F84500FFF72EFFA06B28B91B
:1052E00004F1240031462A4600F05EF82046BDE86D
:1052F0007040FFF777BD000080B5C0B144F6303193
:10530000C2F200010A6842B14FF0500080F31188E8
:10531000BFF36F8FBFF34F8FFEE70A6801320A6059
:105320000021FFF7AAF900F04BFE00B180BD4EF658
:105330000450CEF200004FF080510160BFF34F8F58
:10534000BFF36F8F80BD45F25821C2F2000109689A
:10535000016045F2F021C2F2000109684160704726
:1053600045F2FC20C2F200000121016070470000FC
:1053700078B110B50C4640F6A421C2F200010968CC
:105380001831FFF783FE20460121BDE81040FFF7EA
:1053900074B94FF0500080F31188BFF36F8FBFF3E3
:1053A0004F8F00BFFEE70000A0B1B0B50D4640F63C
:1053B000A421C2F20001096814461831FFF783FEE8
:1053C000002C18BF4FF0FF3528462146BDE8B040FD
:1053D000FFF753B94FF0500080F31188BFF36F8F80
:1053E000BFF34F8FFEE70000B0B586B0002505A8DB
:1053F00004A903AACDE90455FFF71FFEDDE9032048
:10540000059CCDE9005044F64510C0F600001DA1F2
:105410000023029400F03AFC45F24C21C2F2000154
:10542000086010B300F066FE411C20D001281CD19A
:105430004FF0500080F31188BFF36F8FBFF34F8F91
:1054400045F25420C2F200004FF0FF31016045F2F6
:10545000BC20C2F200000121016045F2F020C2F23E
:1054600000000021016000F061F806B0B0BD4FF00F
:10547000500080F31188BFF36F8FBFF34F8F00BFD1
:10548000FEE700BF49444C450000000044F63030C0
:10549000C2F20000016801310160704744F630300B
:1054A000C2F20000006830B145F2FC20C2F20000F8
:1054B00001210160704745F2FC20C2F2000000218A
:1054C00044F6383C0160C2F2000CDCF8001040F6F3
:1054D000BC2301EB8102C2F2000353F8220003EB6C
:1054E0008202B0B15068436802F108008342536001
:1054F00001D15B685360D86840F6A422C2F2000272
:105500001060CCF80010704752F8140D01390028D3
:10551000E8D10029F8D14FF0500080F31188BFF393
:105520006F8FBFF34F8F00BFFEE70000B0B584B0B0
:105530004EF60050CEF200004CF27021C4F20F1172
:1055400002684B1C9A4208D14FF0500080F311883A
:10555000BFF36F8FBFF34F8FFEE702688A4208D117
:105560004FF0500080F31188BFF36F8FBFF34F8F60
:10557000FEE74FF2007CCFF6FF7C10F80C2044F6DB
:105580001C330292FF2200F80C2010F80C20C2F20B
:1055900000038DF807209DF8072002F050021A70D2
:1055A00044F62032C2F20002072313609DF907304F
:1055B000B3F1FF3F46DC062313609DF80710013B63
:1055C00049008DF807109DF907100029F4D4022B2B
:1055D00038D14FF440711160029900F80C10016A43
:1055E00041F470010162016A41F070410162FFF70C
:1055F000FFFD40F20C14C2F2000400252560FFF705
:105600006FFD4EF63470CEF20000016841F040416B
:105610000160FFF761FAFFF741FF039520684FF043
:10562000500181F31188BFF36F8FBFF34F8F0130AB
:1056300002D000BFFEE700BF03980028FCD0002086
:1056400004B0B0BD4FF0500080F31188BFF36F8FEE
:10565000BFF34F8FFEE780B54FF0500080F3118805
:10566000BFF36F8FBFF34F8F00F064FB30B14EF686
:105670000450CEF200004FF080510160002080F312
:10568000118880BDB0B582B068B11C46ABB1F1B92C
:10569000EAB14FF0500080F31188BFF36F8FBFF372
:1056A0004F8F00BFFEE74FF0500080F31188BFF32B
:1056B0006F8FBFF34F8F00BFFEE74FF0500080F3B6
:1056C0001188BFF36F8FBFF34F8F00BFFEE751B15B
:1056D0004AB94FF0500080F31188BFF36F8FBFF3CA
:1056E0004F8F00BFFEE750230193019B502B13D136
:1056F000019B0123069D84F84630002908BF2246FD
:10570000C4E90F0120460121226000F00FF8204675
:1057100084F84C5002B0B0BD4FF0500080F31188B7
:10572000BFF36F8FBFF34F8FFEE7000018B370B564
:1057300004460E46FFF7DEFC2068D4E90F12002570
:1057400002FB0103013901FB0201A563C4E9010366
:10575000FF20E16084F8440084F8450004F1100063
:105760009EB1FFF785FC04F12400FFF781FCFFF7F1
:10577000E3FC012070BD4FF0500080F31188BFF3AF
:105780006F8FBFF34F8F00BFFEE701680029EED097
:1057900000F0CEFB0028EAD04EF60450CEF2000016
:1057A0004FF080510160BFF34F8FBFF36F8FDEE783
:1057B0002DE9F04F83B00292B8B11D4617460E4650
:1057C0000446E1B1022D03D1E06B012840F09D8039
:1057D00000F097FAF8B9F7B14FF0500080F3118854
:1057E000BFF36F8FBFF34F8FFEE74FF0500080F392
:1057F0001188BFF36F8FBFF34F8F00BFFEE7206CA0
:105800000028DFD04FF0500080F31188BFF36F8F76
:10581000BFF34F8FFEE7FFF76DFCA06B022D5CD04E
:10582000E16B884259D304F1100801206F460DF155
:10583000080900BF0299002900F08180C00702D04A
:105840003846FFF780FDFFF777FCFFF71FFEFFF7F5
:1058500051FC94F84400FF2804BF002084F8440061
:1058600094F84500FF2804BF002084F84500FFF7A6
:1058700063FC3846494600F097F9002862D1FFF7EB
:1058800039FCD4F838A0D4F83CB0FFF755FCDA4521
:1058900016D102994046FFF76BFD2046FFF7A2FAAA
:1058A00000F08EFB88B94EF60450CEF200004FF0A7
:1058B00080510160BFF34F8FBFF36F8F05E000BFD2
:1058C0002046FFF78FFA00F07BFBFFF713FCA06B7D
:1058D000E16B88424FF00000ACD2204631462A46A8
:1058E000FEF7D8FF54F8241FC9B1204600F020FB72
:1058F00008B34EF60450CEF200004FF08051016024
:10590000BFF34F8FBFF36F8F15E04FF0500080F360
:105910001188BFF36F8FBFF34F8F00BFFEE750B109
:105920004EF60450CEF200004FF080510160BFF3FC
:105930004F8FBFF36F8FFFF7FFFB012008E0FFF7EA
:10594000FBFB04E02046FFF74DFA00F039FB002096
:1059500003B0BDE8F08F00002DE9F04381B0E8B15D
:105960001E46914605460F4609B3022E02D1E86B4A
:10597000012843D1FFF756FCEFF311884FF0500098
:1059800080F31188BFF36F8FBFF34F8FA86B022E88
:1059900019D0E96B884216D300203CE04FF050004C
:1059A00080F31188BFF36F8FBFF34F8FFEE7286C32
:1059B0000028DAD04FF0500080F31188BFF36F8FCA
:1059C000BFF34F8FFEE795F84540A86B2846394650
:1059D0003246FEF75FFFFF2C19D155F8240FC8B1EE
:1059E000284600F0A5FA0146B9F1000F4FF001007A
:1059F00018BF00290FD0C9F800000CE04FF050008C
:105A000080F31188BFF36F8FBFF34F8FFEE7601CE9
:105A100085F84500012088F3118801B0BDE8F083C6
:105A20002DE9F04F83B0029288B116460D46044628
:105A3000002946D000F065F998B996B14FF05000B2
:105A400080F31188BFF36F8FBFF34F8FFEE74FF0E6
:105A5000500080F31188BFF36F8FBFF34F8F00BFEB
:105A6000FEE7FFF747FBD4F838A0BAF1000F34D0B7
:105A7000226C52B1D4E902011144E160814224BF99
:105A80002168E1602846FAF77FFCAAF10100A063D3
:105A900054F8100F70B1204600F04AFA50B14EF69B
:105AA0000450CEF200004FF080510160BFF34F8FE1
:105AB000BFF36F8F0124FFF73FFB204603B0BDE823
:105AC000F08F206C0028B5D04FF0500080F3118883
:105AD000BFF36F8FBFF34F8FFEE704F1240801205F
