:020000040800F2
:10000000300B0020A1020008A90200088723000885
:10001000AD020008AF020008B102000800000000B5
:10002000000000000000000000000000B302000813
:10003000B502000800000000B7020008B90200087D
:10004000BB020008BB020008BB020008BB0200089C
:10005000BB020008BB020008BB020008BB0200088C
:10006000BB020008BB020008BB020008BB0200087C
:10007000BB020008BB020008BB020008BB0200086C
:10008000BB020008BB020008BB020008111A0008EE
:10009000F1170008BB020008BB020008BB02000801
:1000A000BB020008BB020008BB020008BB0200083C
:1000B00031280008BB020008E5280008BB02000840
:1000C000BB020008BB020008BB020008BB0200081C
:1000D000BB020008992D0008212E0008A92F000856
:1000E000BB020008BB020008BB020008BB020008FC
:1000F000BB020008BB020008BB020008BB020008EC
:10010000BB020008BB020008BB020008BB020008DB
:10011000BB020008BB020008BB020008BB020008CB
:10012000BB020008BB020008BB020008BB020008BB
:10013000BB020008BB020008BB020008BB020008AB
:10014000BB020008BB020008BB020008BB0200089B
:10015000BB020008BB020008BB020008BB0200088B
:10016000BB020008BB020008BB020008BB0200087B
:10017000BB020008BB020008BB020008BB0200086B
:10018000BB020008BB02000800F002F800F078F89B
:100190000AA090E8000C82448344AAF10107DA45E2
:1001A00001D100F06DF8AFF2090EBAE80F0013F0BC
:1001B000010F18BFFB1A43F001031847CC6200007F
:1001C000EC6200000A444FF0000C10F8013B13F001
:1001D000070408BF10F8014B1D1108BF10F8015BA0
:1001E000641E05D010F8016B641E01F8016BF9D193
:1001F00013F0080F1EBF10F8014BAD1C0C1B09D1EA
:100200006D1E58BF01F801CBFAD505E014F8016B5B
:1002100001F8016B6D1EF9D59142D6D370470000ED
:100220000023002400250026103A28BF78C1FBD8FF
:10023000520728BF30C148BF0B607047662905F0E0
:100240009987642900F0AA80752900F0A780782991
:1002500000F0E080632900F04C84732900F05184A1
:10026000002070471FB505F080FF00F061FC04001E
:100270000020002105F098FAE0601FBD10B510BD08
:1002800000F072FD1146FFF7EDFF03F029FF00F0CB
:1002900090FD03B4FFF7F2FF03BC03F07CFE000007
:1002A0000948804709480047FEE7FEE7FEE7FEE70A
:1002B000FEE7FEE7FEE7FEE7FEE7FEE70448054946
:1002C000054A064B70470000C9270008890100084D
:1002D00030050020300B00203007002030070020C0
:1002E000704700000FB4044910B503AA029800F04B
:1002F0000DFC10BC5DF814FB1000002070B5044626
:1003000085690068C10601D5302600E02026C007B7
:1003100007D070BDD4E9012130469047206A401CC7
:1003200020626D1EF6D570BD70B5044685690078F3
:10033000C00707D170BDD4E9012120209047206A71
:10034000401C20626D1EF6D570BD70B50C4605468A
:10035000012A05D02878800600D5EA69002302E04A
:10036000012305E05B1C934202D2E05C0028F9D136
:10037000A869E618C01AA861286A184428622846A5
:10038000FFF7BCFF04E0D5E9012114F8010B904709
:10039000B442F8D32846FFF7C7FF70BD2DE9F041FE
:1003A0000646002410687529314616A510D0AFF313
:1003B0000080002802DA404213A507E031688A076E
:1003C00001D512A502E0490704D511A5012401E0D9
:1003D000AFF3008000210A2206F1240709E0B0FBF8
:1003E000F2FCB0FBF2F302FB1C00303078541846EC
:1003F000491C0028F3D123462A463046BDE8F04187
:1004000000F007B9000000002D0000002B000000E4
:100410002000000070B504460D4621461068AFF379
:1004200000802188090502D50F4A7A4402E00E4A6D
:100430007A440E32002104F1240305E000F00F0697
:100440000009965D5E54491C0028F7D120780023EE
:10045000000704D5702D02D009B1022311322046C5
:10046000BDE8704000F0D5B84A5D00002DE9F05FAE
:10047000894604464FF0000ADFF874B1FB44C0F827
:1004800020A02046E1688847002874D0252806D09F
:10049000D4E901219047206A401C2062F1E7002640
:1004A0005F462046E16888472028054607DB312D56
:1004B00005D2781910F8200C08B10643F1E7B0070F
:1004C00001D526F00406C4F81CA00027C4F818A023
:1004D0002A2D09D0284603F057FD38B304EB8708CE
:1004E000303DC8F8185019E059F8041B204604EBB9
:1004F00087029161E1688847012F054618D1E069BC
:10050000002820DA26F020061DE0D8F8180000EBBD
:10051000800005EB40003038C8F818002046E1683C
:100520008847054603F030FD0028EED1012F0AD0A0
:100530002E2D08D12046E16888477F1C0546022FF2
:1005400046F02006C4DBA069002803DA404246F0EA
:100550000106A061F00701D026F010066C2D0BD02B
:10056000682D09D04C2D39D06A2D35D0742D35D059
:100570007A2D33D016E038E0E1682F4620468847D0
:10058000B842054609D16C2F26D04FF48060E1684F
:10059000064320468847054604E06C2F1AD04FF4E6
:1005A000807006430DB3A5F14100192802D820350B
:1005B00046F400664A462946204626604E46FFF726
:1005C0003DFE80B101280BD0F61D26F0070000F19A
:1005D000080956E74020E4E78020D8E70020D6E766
:1005E00006F104094DE7284652E7206ABDE8F09F6E
:1005F000205D0000704770477047704710B500F0ED
:100600009BFA006810BD10B5044600F095FA04602E
:1006100010BD2DE9F0470D4699469246044600F17B
:1006200024080168880604D5E06921F010012160E2
:1006300000E00120A84201DD471B00E00027A1697E
:100640007A1902EB0900081AA0612078C00602D4CA
:100650002046FFF753FE002608E0D4E901211AF8EE
:1006600006009047206A401C761C20624E45F4DB51
:100670002078C0060AD52046FFF740FE06E0D4E900
:10068000012130209047206A401C2062381EA7F1CB
:100690000107F4DC07E0D4E9012118F805009047D0
:1006A000206A401C2062281EA5F10105F3DC2046CB
:1006B000FFF73AFE2078000602D50220BDE8F08759
:1006C0000120FBE770472DE9FF4F0C461E464FF017
:1006D000FF378BB0D2E90001DDF860800A908A46CE
:1006E000C1F30A5505B93D46002108464FF0000008
:1006F000BAF1000F00F4400005DA00EB80004FF47F
:10070000400101EA50004FEA9059B9F1010F00DDB4
:10071000B9460A9850EA4A000ED044F61050A5F2A5
:10072000FF3545432F14B8F1000F1ED07542291E26
:100730001EDDC9F100021CE0B8F1010F4FF000000E
:1007400001D0302103E0F24305E02154401CB042C7
:10075000FBDB30460022002121540B99C1F80880B0
:10076000C1E900200FB0BDE8F08FBD1B6D1CDEE7B6
:100770004A4600DA694206A800F080FA06AB93E820
:10078000070003AB83E8070050460A9900F058FBC6
:100790008DE80700A0F500501F3800900398002D49
:1007A00009DD42F21F014A46084403A90390684646
:1007B00000F0B7FD08E0A0F500504A461F3803A935
:1007C0000390684600F0C1FD8DE807000004000CAE
:1007D00003D04FF0FF30410800E01046B8F1000FA1
:1007E00003D00022009215461EE0751E05D400F0CD
:1007F000A7F9303262556D1EF9D5B3460122084380
:1008000002D000227F1C04E02078302801D1002291
:100810007F1E002A099786D01DE0112D07DA00F00F
:100820008FF9303262556D1C50EA0102F5D1084350
:1008300002D00098C8B10EE00021681E05E0235CDC
:10084000625C63542254401E491C8142F7DBAB4674
:10085000A81B401E0990002004F80B000B98099A71
:10086000C0F80880C0E9002B7CE711264FF0000893
:1008700059E72DE9F04F88460446D21D22F00701C2
:1008800091B0D1E90001CDE90A0102F089FE0246EA
:100890000B98C00F01D02D2007E02068810701D5FB
:1008A0002B2002E0202101EAC000032A099001D098
:1008B000072A05DB03464146204600F09FF90BE17D
:1008C0002078800601D5E06900E00620B8F1650FC8
:1008D000814606D0B8F1660F18D0B8F1670F70D115
:1008E00031E00020B9F1110F009001DB112301E08C
:1008F00009F101030AAA01A90CA8FFF7E4FEDDE94A
:100900000C70002609F10105834647E001204B46A3
:1009100000904FF000470AAA01A90CA8FFF7D3FEE8
:10092000DDE90DB00C995D46002610B909F1010012
:100930000D18B9EB050003D4C0F1FF3609F101052C
:10094000A5EB09002BE0B9F1010F01DA4FF0010925
:100950000020B9F1110F0090484601DD112300E09D
:1009600003460AAA01A90CA8FFF7ADFEDDE90C7049
:100970004D4600268346207800070AD4AB4500DAAE
:100980005D4601A8012D04DD411911F8011C302933
:1009900007D04F4502DA17F1040F04DA012082462E
:1009A0000FE06D1EEEE7002F02DCED1B3E4403E07E
:1009B000781CA84200DD7D1CB81B00F1010A4FF035
:1009C00000472078000703D4AA4501DB4FF0FF3A27
:1009D0000021B7F1004F0DF143088DF8431024D0EA
:1009E00002202B23002F01DA7F422D230A21021E31
:1009F000A0F1010000DC5FB197FBF1FC97FBF1F285
:100A000001FB1C7C17460CF1300C08F801CDEEE719
:100A1000A8F1010003702188090501D5452100E0F6
:100A20006521A0F1010800F8011C09980FA9A1EBAC
:100A30000807FF1D00B10120411901EBEA70A1690F
:100A40003844081A401EA0612078C00602D420460F
:100A5000FFF754FC099828B1D4E901219047206A96
:100A6000401C20622078C00622D52046FFF746FCB5
:100A70001EE0002E04DBB34502DD01A8805D00E02E
:100A80003020D4E901219047206A401C2062761C66
:100A9000AAF101005FEA000A0AD100F049F8C06833
:100AA0000168405CD4E901219047206A401C206223
:100AB000281EA5F10105DCDC07E0D4E9012118F8C6
:100AC000010B9047206A401C2062381EA7F10107E5
:100AD000F3DC2046FFF728FC032011B043E610B5F5
:100AE000436913B1AFF3008001E0FFF72EFC012052
:100AF00010BD127800F124010A7000224A70012210
:100B0000EDE711684FF0FF32E9E70000074B70B5E1
:100B10000D467B4400F05FF80446284600F01CF9BF
:100B200010B14FF0FF3070BD204670BDAB350000F6
:100B300000487047EC04002000487047CC040020B7
:100B400030B5B0F10A024FEA900E71F100034EEA9F
:100B5000817EB0EB0E0061EB91014FEA101E4EEA70
:100B6000017E10EB0E0041EB11114FEA102E4EEA00
:100B7000016E10EB0E0041EB11214FEA104E4EEAD0
:100B8000014E10EB0E0041EB1141401841F1000104
:100B90004FEAD00040EA41704FEAD10110EB8005E6
:100BA0004FEA810444EA907444EB01046D1944EB6C
:100BB0000404521BA3414FF0000348BF0A3200D582
:100BC00030BD401C41F1000130BD000001694A1CEC
:100BD00002610878704700B58FB0CDE9013100217E
:100BE000059105497944CDE9031011466846FFF7A0
:100BF0003DFC0FB000BD0000E5FFFFFF2DE9F04117
:100C00001F46044603260168072A01F4006004DB3E
:100C100008B116A505E016A503E008B115A500E08A
:100C200015A521F010002060A069C01EA0610FB1C1
:100C3000401EA0612046FFF761FB4FB1D4E90121BE
:100C400038469047206A401C2062C01C206206E0A3
:100C5000206AFAE7D4E9012115F8010B9047761EC6
:100C6000F8D22046FFF760FBBDE8F0814E414E0010
:100C70006E616E00494E4600696E66002DE9F047D0
:100C8000814616468AB0334878440DC88DE80D0079
:100C900030487844801C03AC0DC884E80D0041F650
:100CA0009B300844372190FBF1F290FBF1F5A5F160
:100CB000800501FB12041B3C02D56442012000E0C8
:100CC0000020DFF890A080460027FA44AAF1BE0A6F
:100CD0000DE0E00709D03246684607EB47010AEB12
:100CE000810100F032FB8DE8070064107F1C002CAE
:100CF000EFD1184F7F44AC3F18E0E80714D007EB62
:100D000004100DF1180A90E80E008AE80E00C06881
:100D1000F04201D198190890324606A903A800F0C4
:100D200014FB03AB83E807006D10641C002DE4D1B5
:100D300032466946B8F1000F03A802D000F0F1FA7C
:100D400001E000F002FBC9E90001C9F808200AB07F
:100D5000BDE8F087C8560000007B00F080007047B7
:100D600000487047CC0400207546FFF7F9FFAE46F7
:100D700005006946534620F00700854618B020B5A7
:100D8000FFF79CFABDE820404FF000064FF0000747
:100D90004FF000084FF0000B21F00701AC46ACE823
:100DA000C009ACE8C009ACE8C009ACE8C0098D4690
:100DB00070470446AFF300802046FFF76AFA000050
:100DC0004FF0013C50F8042B51F8043B9A4221D1DA
:100DD000A2EB0C03934313EACC1317D150F8042B66
:100DE00051F8043B9A4215D1A2EB0C03934313EA4A
:100DF000CC130BD150F8042B51F8043B9A4209D183
:100E0000A2EB0C03934313EACC13DBD04FF00000AA
:100E1000704700BFD01A01BAB1FA81F101F0180190
:100E200022FA01F0CB40C1F12001DBB2C0B2C01AFE
:100E30002CFA01F3D11A914311EAC311E6D170479C
:100E40005FEA400C08BF91F0000F4FEA8C234FEA95
:100E5000C12243EA51514FEA1C5018BF00F5F0403F
:100E60004FEA300018BF41F000415FEA6C5C00F0CF
:100E70002980BCF1FF3F08BF40F080407047130C51
:100E800006BF12044FF0100C4FF0000C130E04BFFD
:100E900012020CF1080C130F04BF12010CF1040C28
:100EA000930F04BF92000CF1020CD30F04BF520049
:100EB0000CF1010C11464FF00002A0F11F00A0EB55
:100EC0000C00704711F0004F08BF704731F000412F
:100ED0003FF4D5AF0B0C06BF09044FF0100C4FF0D8
:100EE000000C0B0E04BF09020CF1080C0B0F04BF21
:100EF00009010CF1040C8B0F04BF89000CF1020CEA
:100F0000CB0F04BF49000CF1010CCCF12003A0EB86
:100F10000C0022FA03F302FA0CF241EA030100F199
:100F20000100704720F07F4C80EA030023F07F47E8
:100F3000ACEB070303F57C5300F0004003F1FF0323
:100F40002DE980494FEA154B09B44FEA144325EACD
:100F50000B4E24EA03480FF2042606EB1327490838
:100F60003E785FEA320203FB0667C7F5000707FB1E
:100F700006F64FEA54374FEAD64606F1020607FB5B
:100F8000066CCCF1005C4FEA1C472CEA074C07FBCF
:100F900006F40CFB06F504EB15464FEA961634BF33
:100FA00000204FF000404FEAD13706FB07FC4FEA24
:100FB0001C4C0CFB0BF7D21B03FB0CF761EB07017E
:100FC0000CFB0EF7B0EB074072EB17420CFB08F777
:100FD00034BFA2EB0742B2EB074261EB17414FEA85
:100FE0000C444FEA910706FB07FC4FEA1C4C0CFB34
:100FF0000BF7B0EBC74072EB573203FB0CF734BF73
:10100000A2EBC742B2EBC74261EB57310CFB0EF7C4
:10101000B0EBC70072EB57720CFB08F734BFA2EBC2
:10102000C702B2EBC70261EB5771039F4FEA8161C0
:1010300041EA921104EBCC044FEAD1374FEA8262C5
:1010400006FB07FC42EA90124FEA80604FEA1C4C14
:101050000CFB0BF7D21B03FB0CF761EB07010CFB3E
:101060000EF7B0EB074072EB17420CFB08F734BFEA
:10107000A2EB0742B2EB074261EB17414FEA8C55F6
:101080004FEA910704EB9C2406FB07FC4FEA1C4C3B
:101090000CFB0BF7B0EBC74072EB573203FB0CF7BE
:1010A00034BFA2EBC742B2EBC74261EB57310CFB36
:1010B0000EF7B0EBC70072EB57720CFB08F734BFAA
:1010C000A2EBC702B2EBC70261EB577115EB4C25DF
:1010D0004FEA816141EA92114FEA82624FEAD137C9
:1010E00042EA901206FB07FC44F100044FEA8060DC
:1010F0004FEA1C4C0CFB0BF7D21B03FB0CF761EB0C
:1011000007010CFB0EF7B0EB074072EB17420CFB2C
:1011100008F734BFA2EB0742B2EB074261EB17417D
:1011200015EB1C154FEA813141EA92414FEA8232B8
:1011300042EA90424FEA80304FEA0C7644F10004D4
:1011400048EA03434EEA0B484FF0000EB2EB080C9E
:1011500071EB030724BF624639464EEB0E0E4FF08B
:10116000000B0018524149414BEB0B0BB2EB080C42
:1011700071EB03077BF1000B24BF624639464EEB4F
:101180000E0E4FF0000B0018524149414BEB0B0B78
:10119000B2EB080C71EB03077BF1000B24BF624636
:1011A00039464EEB0E0E51EA020718BF46F0010613
:1011B00016EB0E7655F1000254F1000103D5BDE89F
:1011C0008901BDE80088BDE88901BDE80048B6197D
:1011D000524141EB0101A3F10103704780807F7E02
:1011E0007D7C7B7A7978777676757473727171709D
:1011F0006F6E6E6D6C6C6B6A6A696868676666654F
:101200006464636362616160605F5F5E5E5D5D5CDC
:101210005C5B5B5A5A59595858575756565555554D
:101220005454535352525251515050504F4F4F4EAD
:101230004E4D4D4D4C4C4C4B4B4B4A4A4A494949FB
:10124000484848474747474646464545454444443D
:10125000444343434342424242414141002B26D44E
:10126000770021D01CB54FEA370703B44FF01000C8
:101270004FF010014FF000000FBCBDE810400BF123
:10128000010BBBF1010F08BF5FEA170722BF12F184
:10129000010211F101014FF0004143F1000300F0A0
:1012A000004043EA00007047F9D35708DAE746EAFE
:1012B000064613F1400F4FEA16461FDD13F1200FCB
:1012C000DFBF16430A46002120335B42C8D0C3F17A
:1012D000200746EA064602FA07F74FEA164646EAAC
:1012E0000706C3F1200722FA03F201FA07F721FAF1
:1012F00003F14FF0000342EA0702B1E746EA0206B3
:1013000046EA06464FEA164646EA0106BCBF46EAEA
:101310000646360C4FF000034FF000024FF000017C
:101320009EE72DE9C048934630B491E8380007C8DD
:1013300031EA400C48BF34EA430C03D5FFF7F2FD15
:10134000FFF78CFFF0BCBDE800882DE9C04893464C
:1013500030B491E8380007C810F0804F08BF13F090
:10136000804F03D100F005F8FFF778FFF0BCBDE82F
:10137000008820F07F4780EA030023F07F4C07EBD2
:101380000C03A3F57C5300F00040A3F1FE0392F0A0
:10139000000F00F0B38095F0000F00F077802DE98A
:1013A00001494FEA11404FEA144621EA004800FB88
:1013B00006FC24EA064708FB06F607FB08F800FBD4
:1013C00007F718EB06484CEB164C4FEA124B18EB9C
:1013D00007484FEA15464CEB174022EA0B4E0BFB31
:1013E00006FC25EA06470EFB06F607FB0EFE0BFB86
:1013F00007F71EEB064E4CEB164C4FF000061EEBAB
:10140000074E4CEB174B18EB0B0840F1000018EBA4
:101410000E0B58EB000840F100008F1A4FF000014E
:101420003CBFC943661B14BFB5EB040C00213CBF95
:10143000C943F61B4FEA17444EEA8E0E27EA0445CD
:101440004FEA1C4704FB07622CEA074C05FB07F731
:101450000CFB05F604FB0CFC16EB074642EB1742AF
:1014600016EB0C4642EB1C421BEB060658EB020245
:10147000414146EA9E0601D5BDE80189B6195241AF
:1014800041EB0101A3F10103BDE801894FEA1445D5
:101490004FEA114724EA054621EA074C05FB07F409
:1014A00006FB07F70CFB06F105FB0CFC11EB0741F3
:1014B00044EB17444FEA124711EB0C4144EB1C4438
:1014C00022EA074C05FB07F206FB07F70CFB06F6C2
:1014D00005FB0CFC16EB074642EB174216EB0C46DD
:1014E00042EB1C456A1854F1000148BF7047B61919
:1014F000524141EB0101A3F10103704795F0000F48
:1015000037D04FEA11424FEA144721EA024624EA53
:10151000074C02FB07F106FB07F70CFB06F402FB86
:101520000CFC14EB074441EB17414FEA154714EB51
:101530000C4441EB1C4125EA074C02FB07F506FB76
:1015400007F70CFB06F602FB0CFC16EB074645EB17
:10155000174516EB0C4645EB1C42121951F10001E0
:1015600048BF7047B619524141EB0101A3F1010395
:1015700070474FEA14454FEA114724EA054621EA2D
:10158000074C05FB07F106FB07F70CFB06F24FF0D3
:10159000000605FB0CFC12EB074241EB174112EB76
:1015A0000C4251EB1C4148BF7047921841EB0101BE
:1015B000A3F101037047000010B588B00446012173
:1015C000022000F0B3FF0121880400F0BFFF0722D2
:1015D0000A21224800F0B4FE07220B211F4800F028
:1015E000AFFE4FF44060069002208DF81C008DF88D
:1015F0001D0000208DF81E0001208DF81F0006A997
:10160000164800F055FE02940020ADF80C00ADF82D
:101610000E00ADF81000ADF814000C20ADF812006B
:1016200002A90F4801F0E6FD01210D4801F079FD06
:10163000012240F225510A4801F0B6FD27208DF81D
:10164000040003208DF805008DF8060001208DF8B8
:10165000070001A800F09AFE08B010BD0004024087
:101660000048004010B54FF4E13002F0C1FF4FF4E4
:10167000E13002F0A3FD4FF4E130FFF79DFF4FF49E
:101680007A7001F02FFB00F0C7FE00F029F864200B
:1016900002F0A2FC0021084600F0D4FC4FF4FA70DE
:1016A00002F09AFC002305221946184600F052FC6D
:1016B000322002F091FC03220021084600F08AFC4F
:1016C0004FF4FA7002F088FC0348416854208847C0
:1016D00001200249087010BDEC01002073000020B9
:1016E00000B58BB00121084600F020FF012148061B
:1016F00000F02CFF09220C213B4800F021FE0922BA
:101700000B21394800F01CFE4FF4C050029002201B
:101710008DF80C0002A9344800F0CAFD14208DF8A1
:10172000040002208DF8050001208DF806008DF8D8
:10173000070001A800F02AFE13208DF80400012004
:101740008DF805008DF806008DF8070001A800F05F
:101750001DFE264800F0C2F908A800F0FDFC00209C
:101760008DF826008DF827008DF828008DF82900C7
:101770008DF82A0001208DF82B0000208DF8220022
:101780008DF8230008208DF8240003208DF8250013
:10179000ADF8200008A9154800F0D9FA00208DF80E
:1017A0001A008DF81B0001208DF81C000020ADF8F8
:1017B0001000ADF81200ADF81400ADF81600ADF849
:1017C000180001208DF81D0004A800F0A3F90122E3
:1017D0000221064800F0B2FA01221146034800F047
:1017E000ADFA0BB000BD00000000024000640040F4
:1017F00000B585B002217F4800F010FA002839D0EA
:1018000002217C4800F016F96A460021794800F070
:1018100028FB9DF8080000282CD19DF8080000281E
:10182000FAD19DF80A000828F6D100981B2822D189
:101830009DF80C009DF80B1040EA012000B26E49A3
:1018400008809DF80E109DF80D0041EA002000B2BE
:101850006A4908809DF80F0001069DF8100041EAD2
:1018600000419DF8110041EA00209DF81210084344
:1018700063490860BCE000982B2822D19DF80C0039
:101880009DF80B1040EA012000B25B4948809DF8AA
:101890000E109DF80D0041EA002000B25749488023
:1018A0009DF80F0001069DF8100041EA00419DF8E7
:1018B000110041EA00209DF8121008435049486089
:1018C00096E000983B2822D19DF80C009DF80B1063
:1018D00040EA012000B2484988809DF80E109DF82A
:1018E0000D0041EA002000B2444988809DF80F00B5
:1018F00001069DF8100041EA00419DF8110041EAFF
:1019000000209DF8121008433D49886070E000985F
:101910004B2822D19DF80C009DF80B1040EA0120C5
:1019200000B23549C8809DF80E109DF80D0041EABF
:10193000002000B23149C8809DF80F0001069DF8D3
:10194000100041EA00419DF8110041EA00209DF895
:10195000121008432A49C8604AE000981F2803D1A2
:1019600001202849087043E000982F2803D1012066
:10197000244948703CE000983F2803D101202149C8
:10198000887035E000984F2803D101201D49C870A8
:101990002EE000981C2808D19DF80B001A49087009
:1019A0009DF80C001949087022E000982C2808D1F5
:1019B0009DF80B00144948709DF80C0013494870BD
:1019C00016E000983C2808D19DF80B000E4988705D
:1019D0009DF80C000D4988700AE000984C2807D14A
:1019E0009DF80B000849C8709DF80C000749C870A5
:1019F00005B000BD00640040340100203C0100201F
:101A00000004002044010020480100204C01002077
:101A100010B50121054800F001F930B1012103485A
:101A200000F008F801200249087010BD0064004071
:101A300032010020B1F5007F3AD00FDC202928D0F8
:101A400006DC01291CD004291DD0082940D11DE045
:101A5000402921D0B1F5807F3AD126E0B1F5004F81
:101A600031D006DCB1F5806F25D0B1F5006F2FD1F4
:101A700024E0B1F5803F12D0B1F5003F28D111E04C
:101A8000154A826025E00822C26022E01022C2606E
:101A90001FE0082202611CE01022026119E0082206
:101AA000426016E01022426013E00422426010E01F
:101AB000042242600DE0042242600AE000228261BA
:101AC0000422426005E0002282610422426000E0BC
:101AD00000BF00BF704700000101010010B50446BF
:101AE0000B48844209D10121480600F03FFD002146
:101AF0004FF0007000F03AFD08E00121880600F088
:101B000035FD00214FF0806000F030FD10BD000079
:101B10000064004010B50021837A012202FA03F12B
:101B20003D4A126842F001023B4B1A603A4A1C32AD
:101B300012688A43384B1C331A60027BCAB9364A92
:101B40000C3212688A43344B0C331A604288C388C3
:101B500042EA0343304A4032847A42F83430028801
:101B6000838842EA03432C4A4032847A02EBC4025F
:101B70005360027B012A19D1274A0C3212680A43AA
:101B8000254B0C331A604288038842EA0343224AF9
:101B90004032847A42F83430C288838842EA034370
:101BA0001D4A4032847A02EBC4025360C27A3AB9C9
:101BB000194A121D12688A43174B1B1D1A6006E052
:101BC000154A121D12680A43134B1B1D1A60028925
:101BD00032B9114A143212688A430F4B14331A6017
:101BE0000289012A06D10C4A143212680A430A4BB0
:101BF00014331A60427B012A06D1074A1C3212684C
:101C00000A43054B1C331A60034A126822F0010292
:101C1000014B1A6010BD00000066004070B504461C
:101C20000D46002660692840002871D0B5F5807FF8
:101C30005CD010DC082D35D006DC012D20D0022D23
:101C400024D0042D72D127E0102D31D0202D35D095
:101C5000402D6BD138E0B5F5004F60D009DCB5F50B
:101C6000007F49D0B5F5806F4CD0B5F5006F5DD1E0
:101C70004FE0B5F5803F2DD0B5F5003F56D12FE0B0
:101C8000A0682D4900F00BFB064651E0E0680321F7
:101C900000F005FB06464BE0E068082100F0FFFA83
:101CA000064645E0E068102100F0F9FA06463FE0FC
:101CB0002069032100F0F3FA064639E02069082183
:101CC00000F0EDFA064633E02069102100F0E7FA53
:101CD00006462DE06068082100F0E1FA064627E09C
:101CE0006068102100F0DBFA064621E0A0690121BE
:101CF00000F0D5FA06461BE0A069022100F0CFFAF9
:101D0000064615E0A069042100F0C9FA06460FE076
:101D10000FE0A069702100F0C2FA064608E0606892
:101D2000042100F0BCFA064602E0FFE7002600BFEF
:101D300000E00026304670BD010101001AB1436980
:101D40000B43436102E043698B434361704730B505
:101D5000024600200023146824F002041460146872
:101D600044F00104146000E05B1C546804F00104BA
:101D70001CB94FF6FF74A342F6D1546804F0010475
:101D80000CB900206CE08C79012C04D1146844F06B
:101D90008004146003E0146824F080041460CC799B
:101DA000012C04D1146844F04004146003E014686A
:101DB00024F0400414600C7A012C04D1146844F01F
:101DC0002004146003E0146824F0200414604C7AAA
:101DD000012C04D1146844F01004146003E014686A
:101DE00024F0100414608C7A012C04D1146844F09F
:101DF0000804146003E0146824F008041460CC7A2A
:101E0000012C04D1146844F00404146003E0146845
:101E100024F0040414608C78A407CD7844EA0564A7
:101E20000D7944EA05444D7944EA05540D886D1E48
:101E30002C43D461146824F001041460002300E0F2
:101E40005B1C546804F001041CB14FF6FF74A342FC
:101E5000F6D1546804F001040CB1002000E0012028
:101E600030BD10B500F5D87303EB01131B6803F008
:101E700004031372137A53B900F5D87303EB0113FB
:101E80001B6840F2FF7404EA5353136009E000F545
:101E9000D87303EB01131B686FF0604404EAD303AB
:101EA000536000F5D87303EB01131B6803F00203C2
:101EB000537200F5D87303EB01135B6803F00F0353
:101EC000937200F5D87303EB01135B681B0AD3749C
:101ED00000F5D87303EB01139B68D37200F5D87338
:101EE00003EB01139B681C0A147300F5D87303EB12
:101EF00001139B681C0C547300F5D87303EB01139A
:101F00009B681B0E937300F5D87303EB0113DB681A
:101F1000D37300F5D87303EB0113DB681C0A147448
:101F200000F5D87303EB0113DB681C0C547400F547
:101F3000D87303EB0113DB681B0E937421B9C368DC
:101F400043F02003C36003E0036943F0200303610F
:101F500010BD00002DE9F04186B005460E469046C2
:101F60001C460A2700208DF80C008DF80D00082073
:101F70008DF80E00072D06DC0F2E04DC47EA05273E
:101F800047EA061702E006B0BDE8F08114B1012C63
:101F900000D0002401978DF80F808DF81040552156
:101FA0008DF811108DF812108DF813108DF8141093
:101FB0008DF815108DF8161000200449087001A93D
:101FC000034800F0D9F800BFDDE70000320100202F
:101FD00000640040F0B585B004460D461746012662
:101FE00000208DF808008DF8090008208DF80A00FF
:101FF000072C06DC0F2D04DC46EA042646EA05160B
:1020000001E005B0F0BD00968DF80B7055218DF8FC
:102010000C108DF80D108DF80E108DF80F108DF836
:1020200010108DF811108DF812100020034908705F
:102030006946034800F0A0F800BFE2E73201002043
:102040000064004070B586B004460D4600260020AE
:102050008DF80C008DF80D0008208DF80E00072C6F
:1020600006DC0F2D04DC46EA042646EA051601E0EC
:1020700006B070BD019655208DF80F0055218DF8E2
:1020800010108DF811108DF812108DF813108DF8B6
:1020900014108DF815108DF81610002003490870E3
:1020A00001A9034800F068F800BFE1E73201002011
:1020B000006400402DE9F04186B005460E46144606
:1020C0001F464FF0040800208DF80C008DF80D001D
:1020D00008208DF80E00072D06DC0F2E04DC48EAE0
:1020E000052848EA061802E006B0BDE8F081CDF800
:1020F000048041F28830844201DD044603E0134845
:10210000844200DA0446002C04DA01DD204600E0B7
:10211000604204B2200A8DF80F008DF81040390A91
:102120008DF811108DF8127055218DF813108DF85F
:1021300014108DF815108DF8161000200449087041
:1021400001A9044800F018F800BFCDE778ECFFFFC4
:10215000320100200064004000218171C1710172D0
:1021600041728172C1728170C170032101710221BB
:10217000417101210180704710B50246002093682B
:1021800003F08063B3F1806F00D110E0936803F037
:102190000063B3F1006F01D1012008E0936803F000
:1021A0008053B3F1805F01D1022000E004200428B5
:1021B00074D002F5C07303EB00131B6803F0010435
:1021C00002F5C07303EB00131C600B7A7BB94B7AEA
:1021D0000C8843EA445302F5C07404EB00142468ED
:1021E000234302F5C07404EB0014236010E00B7A63
:1021F0004C6843EAC4034C7A234302F5C07404EBF1
:1022000000142468234302F5C07404EB0014236017
:102210008B7A03F00F038B7202F5C07303EB00138C
:102220005B6823F00F0402F5C07303EB00135C60DE
:1022300002F5C07303EB00135B688C7A234302F54D
:10224000C07404EB001463608B7B1C064B7B44EA78
:1022500003440B7B44EA0323CC7A234302F5C07486
:1022600004EB0014A3608B7C1C064B7C44EA034403
:102270000B7C44EA0323CC7B234302F5C07404EBBC
:102280000014E36002F5C07303EB00131B6843F016
:10229000010402F5C07303EB00131C6010BD02467D
:1022A000002002EA01030BB1012000E0002070478A
:1022B000F0B50A4600210023002400BF3DE00125BF
:1022C00005FA01F3156805EA03049C4234D1056858
:1022D0004F000326BE40B543056015794E00B5405A
:1022E0000668354305601579012D02D01579022D58
:1022F00016D185684F000326BE40B54385605579E9
:102300004E00B540866835438560456801268E409D
:10231000B5434560456896798E40B6B23543456011
:10232000C5684F000326BE40B543C560D5794E0051
:10233000B540C6683543C560491C1029BFD3F0BD00
:10234000F0B5002300244D07ED0E02FA05F3CE1080
:1023500000F1200555F826504E07F70E0F26BE4017
:10236000B543CF1000F1200646F82750CE1000F1FB
:10237000200555F8265045EA0304CE1000F120054B
:1023800045F82640F0BD00BFFEE7000070B5002113
:1023900000230F22C4781CB3174C246804F4E064B3
:1023A000C4F5E064C4F30721C1F10404E3B20A41B7
:1023B00044789C40E1B28478144021430C07210EFC
:1023C0000E4C05786155047804F01F050124AC40DB
:1023D00005786D11AD0005F1E025C5F8004109E073
:1023E000047804F01F050124AC40054D06787611F1
:1023F00045F8264070BD00000CED00E000E400E070
:1024000080E100E002490143024A11607047000088
:102410000000FA050CED00E008B54FF4A060FFF7EE
:10242000F1FF1C208DF8000001208DF80300002032
:102430008DF8010001208DF802006846FFF7A6FF25
:1024400032208DF8000001208DF803008DF8010086
:1024500002208DF802006846FFF798FF08BD0000D3
:10246000C0ED091A80ED000AC0ED010A80ED021AE4
:102470009FED072A80ED022A80ED032A80ED042AD1
:1024800080ED082A80ED052A80ED062A70470000BD
:102490000000000030EEC01A80ED051A90ED071A1A
:1024A000D0ED051A31EE211A80ED071A90ED041ACD
:1024B000D0ED031A31EE611A80ED061A90ED001A84
:1024C000D0ED051A21EE211AD0ED011A90ED072A60
:1024D00001EE821AD0ED021A90ED062A01EE821A60
:1024E00080ED081A90ED081AD0ED091AB4EEE11A41
:1024F000F1EE10FA03DD90ED091A80ED081A90ED67
:10250000081AD0ED091AF1EE611AB4EEE11AF1EEF3
:1025100010FA05D290ED091AB1EE411A80ED081AB1
:1025200090ED051A80ED041A7047000029B1064AA3
:1025300012680243044B1A6004E0034A12688243A3
:10254000014B1A60704700003038024029B1064A3A
:1025500012680243044B1A6004E0034A1268824383
:10256000014B1A60704700004038024029B1064A0A
:1025700012680243044B1A6004E0034A1268824363
:10258000014B1A60704700002038024029B1064A0A
:1025900012680243044B1A6004E0034A1268824343
:1025A000014B1A60704700004438024029B1064AC6
:1025B00012680243044B1A6004E0034A1268824323
:1025C000014B1A607047000024380240F0B500212A
:1025D00000220024022500260223324F3F6807F024
:1025E0000C0121B1042905D0082937D105E02E4F6F
:1025F000076036E02D4F076033E02A4F3F1F3F68EA
:10260000C7F38056274F3F1F3F6807F03F036EB167
:10261000264FB7FBF3F7DFF88CC0ACF1040CDCF805
:1026200000C0CCF3881C07FB0CF40CE01E4FB7FB7A
:10263000F3F7DFF870C0ACF1040CDCF800C0CCF3A9
:10264000881C07FB0CF4174F3F1F3F68C7F3014777
:102650007F1C7D00B4FBF5F7076002E0124F0760B6
:1026600000BF00BF0F4F3F6807F0F0010909104F8E
:102670007A5C0768D74047600A4F3F6807F4E0512B
:10268000890A0B4F7A5C4768D7408760054F3F68DF
:1026900007F46041490B064F7A5C4768D740C76032
:1026A000F0BD0000083802400024F40000127A0057
:1026B000630000200CB500200190009034480068B1
:1026C00040F480303249086000BF3148006800F4AF
:1026D000003000900198401C0190009818B90198B2
:1026E000B0F5A04FF1D12A48006800F4003010B1D5
:1026F0000120009001E0002000900098012846D1C0
:1027000023484030006840F0805021494031086043
:102710002048006840F440401E4908601C480830CA
:1027200000681B49083108600846006840F4004012
:1027300008600846006840F4A05008601648091F69
:102740000860081F006840F08070091F086000BF23
:102750000F48006800F000700028F9D040F20570C2
:102760000E4908600A480830006820F00300084954
:10277000083108600846006840F00200086000BFA9
:1027800003480830006800F00C000828F8D10CBDA0
:10279000003802400070004008544007003C0240EE
:1027A000042808D14FF0E021096941F004014FF0FD
:1027B000E022116107E04FF0E021096921F00401F6
:1027C0004FF0E0221161704710B51548006840F4E1
:1027D0007000134908601348006840F00100114977
:1027E000086000200F49083108600E4800680E4953
:1027F00008400C4908600D48091D0860081F006862
:1028000020F48020091F0860002006490C31086070
:10281000FFF750FF4FF0006001498039086010BD9C
:1028200088ED00E000380240FFFFF6FE1030002483
:102830004FF08040008A00F0010000283AD04FF6A7
:10284000FE704FF0804108821B48007800B9704745
:102850001A480068401C1949086019480078401C53
:102860001749087017480078401C16490870164828
:102870000078401C1449087014480078401C134923
:10288000087013480078401C1149087011480078FE
:10289000401C1049087010480078401C0E49087010
:1028A0000E480078401C0D4908700D480068401C17
:1028B0000B49086000BFCAE7730000202C0100200C
:1028C0000000002001000020020000200300002082
:1028D0000400002005000020060000200700002062
:1028E0000800002010B501210A4800F0FDF8012879
:1028F0000AD10949086980470021064800F010F90B
:102900006421044800F00AF90121024800F009F8A6
:1029100010BD000000080040EC010020CA43028204
:102920007047CA430282704721B1028842F0010217
:10293000028004E002884FF6FE731A40028070475E
:1029400010B504465548844208D101210846FFF7D6
:102950002DFE00210120FFF729FE9DE0B4F1804FFC
:1029600008D101210846FFF701FE00210120FFF7F1
:10297000FDFD91E04A48844208D101210220FFF781
:10298000F5FD00210220FFF7F1FD85E04548844276
:1029900008D101210420FFF7E9FD00210420FFF701
:1029A000E5FD79E04048844208D101210820FFF785
:1029B000DDFD00210820FFF7D9FD6DE03B48844292
:1029C00008D101211020FFF7D1FD00211020FFF7D1
:1029D000CDFD61E03648844208D101212020FFF777
:1029E000C5FD00212020FFF7C1FD55E0314884429C
:1029F00008D101210220FFF7D9FD00210220FFF7B5
:102A0000D5FD49E02C48844209D101210804FFF793
:102A1000CDFD00214FF48030FFF7C8FD3CE0274892
:102A2000844209D101214804FFF7C0FD00214FF481
:102A30000030FFF7BBFD2FE02148844209D101217E
:102A40008804FFF7B3FD00214FF48020FFF7AEFDAF
:102A500022E01C48844208D101214020FFF786FD76
:102A600000214020FFF782FD16E01748844208D17C
:102A700001218020FFF77AFD00218020FFF776FDFD
:102A80000AE01248844207D101218015FFF76EFD4C
:102A90000021A015FFF76AFD10BD000000000140F5
:102AA0000004004000080040000C004000100040FE
:102AB0000014004000040140004001400044014077
:102AC0000048014000180040001C00400020004069
:102AD0000146486A704702460020138A0B400BB13A
:102AE000012000E00020704730B50246002000239E
:102AF0000024158A05EA0103958905EA010413B14A
:102B00000CB1012000E0002030BD1AB183890B43D5
:102B1000838102E083898B4383817047C162704760
:102B20004162704700220288184B98420ED0184B21
:102B300098420BD0B0F1804F08D0164B984205D088
:102B4000154B984202D0154B984204D14FF68F7323
:102B50001A404B881A43124B984207D0114B9842A7
:102B600004D04FF6FF431A400B891A4302804B688A
:102B7000C3620B880385054B984202D0044B9842F0
:102B800001D18B7A038601238382704700000140C4
:102B9000000401400004004000080040000C004018
:102BA00000100040001400407047000000B52DEDFB
:102BB000088B8BB001F072FD2F48006803F064FAB7
:102BC00041EC1B0B2D48006803F05EFA41EC180B3A
:102BD0002B48006803F058FA41EC190B29480068AB
:102BE00003F052FA41EC1A0B8DED08BB2648006841
:102BF00026490968264A1268CDE9042106908DED20
:102C0000028B8DED009B53EC1A2B22A0FDF76AFB83
:102C10001A48D0ED001A1C4890ED000AB8EEC01A10
:102C20001A4890ED000AF8EEC00A194890ED000A23
:102C3000B8EEC00A00F052FB2248008803B241F20D
:102C4000883201210020FFF735FA1F48008803B2BF
:102C500041F2883202210020FFF72CFA1B4800883D
:102C600003B241F2883203210020FFF723FA0BB0B0
:102C7000BDEC088B00BD00005000002020000020AB
:102C80001C000020180000207C000020780000209C
:102C9000740000202025662C20202025662C202072
:102CA0002020256620202025642C20202025642C2F
:102CB000202020202564202C202020202025662074
:102CC0000D0A0000980000209C000020A0000020B9
:102CD00070477047704770477047704710B501F0F4
:102CE000C7FA10BD3EB5044601210846FFF72EFC89
:102CF0004FF08040FFF724FE0020ADF80800ADF84B
:102D000002000D4890FBF4F001905320ADF8000054
:102D100069464FF08040FFF705FF01218807FFF764
:102D2000FDFD012211469007FFF7EFFE0121880704
:102D3000FFF7FAFD3EBD000040420F007FB504469C
:102D40000D4601210420FFF701FCADF800500020E2
:102D5000ADF802000194ADF8080069460D48FFF790
:102D6000E1FE012211460B48FFF7CFFE0121094881
:102D7000FFF7DAFD1E208DF80C0003208DF80D0002
:102D80008DF80E0001208DF80F0003A8FFF7FEFA62
:102D90007FBD00000008004010B540F225511D48DD
:102DA00000F0D8F910B31B4800F08EFAC4B21A48EC
:102DB000008800F40040C8B91748008800F480403B
:102DC00060B10A2C03D000201349088020E012488B
:102DD000008840F400401049088019E00D2C06D10D
:102DE0000D48008840F480400B49088010E00A48F4
:102DF0000088C0F30D0009490C5407480088401CA6
:102E00000549088008460088C72801DD00200880A1
:102E100010BD00000010014014000020E00200205E
:102E200010B540F22551524800F094F901287DD1A7
:102E300040F225514E4800F065F94D4800F044FA43
:102E40004C4908704C480078052870D2DFE800F043
:102E50000311263D4B00474800780D2805D1464810
:102E60000078401C4449087002E000204249087084
:102E70007BE0404800780A2808D100203F490870CC
:102E80003D480078401C3C49087006E0394800780D
:102E90000D2802D000203849087066E035480078D7
:102EA0003749364A1278885434480078401C3349F0
:102EB000087008460078202806DB002008702E489D
:102EC0000078401C2C4908704FE02A4800780A28F6
:102ED00005D129480078401C2749087002E00020ED
:102EE0002549087041E0234800780D2835D1244851
:102EF00090ED000A234880ED000A214890ED010A78
:102F0000214880ED000A1E4890ED020A1F4880ED1E
:102F1000000A1B4890ED030A1D4880ED000A18487E
:102F200090ED040A1B4880ED000A01E01EE018E065
:102F3000134890ED050A184880ED000A104890EDFE
:102F4000060A164880ED000A0D4890ED070A14485D
:102F500080ED000A0120134908700020064908701E
:102F600003E000200449087000BF00BF10BD00004E
:102F7000004400406000002061000020620000204A
:102F8000E0030020380000203C000020400000202A
:102F900044000020480000204C0000205000002089
:102FA000540000203400002010B540F225514A485A
:102FB00000F0D0F801287DD140F22551464800F0BC
:102FC000A1F8454800F080F9444908704448007869
:102FD00005287BD2DFE800F00311263D4B003F4877
:102FE00000780D2805D13E480078401C3C49087007
:102FF00002E000203A4908706CE0384800780A285E
:1030000008D100203749087035480078401C344901
:10301000087006E0314800780D2802D000203049C1
:10302000087057E02D4800782F492E4A12788854AE
:103030002C480078401C2B49087008460078182856
:1030400006DB0020087026480078401C24490870E0
:1030500040E0224800780A2805D121480078401C29
:103060001F49087002E000201D49087032E01B482B
:1030700000780D2826D11C4890ED000A1B4880EDF1
:10308000000A194890ED010A194880ED000A164817
:1030900090ED020A174880ED000A134890ED030AEC
:1030A000154880ED000A104890ED040A134880EDA1
:1030B000000A01E00FE009E00B4890ED050A104816
:1030C00080ED000A00200649087003E00020044952
:1030D000087000BF00BF10BD004800403000002055
:1030E0003100002032000020A80300202000002032
:1030F0002400002028000020180000201C000020D0
:103100002C00002010B50022002340F66A14A142D2
:1031100000D100BF0A1201249440A3B2DC43048012
:1031200010BD21B1828942F40052828104E082897B
:103130004DF6FF731A408281704702460020B1F5B8
:10314000007F00D100BF13880B400BB1012000E0CD
:103150000020704770B5024600240023002500209F
:1031600040F66A16B14200D100BFC1F3421501F02A
:103170001F03012606FA03F3012D02D1968933407D
:1031800006E0022D02D1168A334001E0968A3340D0
:103190000C12012606FA04F41688344013B10CB15F
:1031A000012000E0002070BDF0B503460024002699
:1031B0000025002040F66A17B94200D100BF18462A
:1031C000C1F3421401F01F06012707FA06F5012C8E
:1031D00001D10C3004E0022C01D1103000E0143099
:1031E0001AB107682F43076002E00768AF43076022
:1031F000F0BD00002DE9FF4705460E460024A1461C
:1032000000BFA046B08900B100BF2C8A24F440540E
:10321000F08804432C82AC8941F20C608443B0886E
:1032200031890843718908430443AC81AC8A24F492
:103230004074B0890443AC826846FFF7C7F9204860
:10324000854202D01F48854202D1DDF80C9001E092
:10325000DDF80890A88900F4004040B109EBC900EE
:1032600000EB091031684900B0FBF1F707E009EB0A
:10327000C90000EB091031688900B0FBF1F7642048
:10328000B7FBF0F004012009642101FB1078A88944
:1032900000F4004040B1322000EBC800B0FBF1F078
:1032A00000F00700044308E0322000EB081064211E
:1032B000B0FBF1F000F00F0004432C81BDE8FF8764
:1032C000001001400014014001468888C0F3080046
:1032D0007047C1F3080282807047000000B52DEDF1
:1032E000108B87B0F0EE408AB0EE609AF0EE419A13
:1032F000B0EE618A9FEDA40A28EE000ADFEDA30A72
:1033000080EE201AB0EE418AB7EE000A29EE800A5C
:1033100010EE101A084602F0B7FE41EC1E0B19EE33
:10332000100A02F0B1FE41EC1B0B18EE100A02F07D
:10333000ABFE41EC1D0BB0EE4D0AF0EE6D0A00F055
:10334000ABF9B0EE40CAF0EE60CA53EC1B2B51EC67
:103350001C0B02F0A5FCCDE9040118EE900A02F066
:1033600093FE41EC1B0B18EE100A02F08DFE41ECAF
:103370001D0BB0EE4D0AF0EE6D0A00F029F9B0EE2B
:1033800040CAF0EE60CA53EC1B2B51EC1C0B02F050
:1033900087FCCDE902019DED040B53EC102B9DED54
:1033A000020B51EC100B02F021FA41EC1F0B53EC15
:1033B0001E2B02F01BFA41EC1A0B02F017FC7449A9
:1033C0000860B7EE000A29EE800A10EE101A0846CF
:1033D00002F05AFECDE9040119EE100A02F054FE83
:1033E00041EC1B0B9FED6B0A30EE480A10EE101AF1
:1033F000084602F049FE41EC1D0BB0EE4D0AF0EE1E
:103400006D0A00F049F9B0EE40CAF0EE60CA53EC24
:103410001B2B51EC1C0B02F043FC41EC1A0B18EE79
:10342000900A02F031FE41EC1B0B9FED5A0A30EE80
:10343000480A10EE101A084602F026FE41EC1E0B58
:10344000B0EE4E0AF0EE6E0A00F0C2F8B0EE40DACE
:10345000F0EE60DA51EC1D0B02F0BCF941EC1C0BF4
:1034600053EC1B2B02F01CFC53EC1A2BCDE9000192
:103470009DED000B51EC100B02F0B8F9CDE9020103
:103480009DED040B53EC102B9DED020B51EC100B3A
:1034900002F0ACF941EC1F0B02F0A8FB3E490860BA
:1034A000B7EE000A29EE800A10EE101A084602F064
:1034B000EBFD41EC1E0B19EE100A02F0E5FD41ECAC
:1034C0001A0B9FED340A38EE000A10EE101A084667
:1034D00002F0DAFD41EC1C0BB0EE4C0AF0EE6C0A87
:1034E00000F0DAF8B0EE40BAF0EE60BA53EC1A2B06
:1034F00051EC1B0B02F0D4FBCDE9020118EE900A4F
:1035000002F0C2FD41EC1A0B9FED220A38EE000AD0
:1035100010EE101A084602F0B7FD41EC1D0BB0EE9C
:103520004D0AF0EE6D0A00F053F8B0EE40CAF0EE2E
:1035300060CA51EC1C0B02F04DF941EC1B0B53EC33
:103540001A2B02F0ADFBCDE900019DED020B53EC0F
:10355000102B9DED000B51EC100B02F0ABFC41EC7D
:103560001F0B53EC1E2B02F041F9CDE904019DED38
:10357000040B51EC100B02F039FB0849086007B04E
:10358000BDEC108B00BD0000F90F49400000344332
:1035900098000020A60A863F9C000020A000002082
:1035A00003B401984100009850EAC12018BF0420DC
:1035B0004A0D18BF40F0010040F2FF72B2EB515FBC
:1035C00008BF40F00200012808BF052002B0704784
:1035D00010B52F499FED2C1B2DED020B84B00598E3
:1035E00020F000408842D8BF9DED040B2DDD294915
:1035F000884209D1049840B94FF00100FDF703F863
:1036000000F0A2FC06B010BD05DB9DED040B00F040
:103610008FFC06B010BD68469DED040B00F0A0F8CD
:1036200010F0030004BF9DED021B9DED000B0CD0BC
:1036300001280ED09DED021B9DED000B022817D036
:10364000012000F0DDFB06B010BD00F0A5FA06B0C9
:1036500010BD9DED021B9DED000B012000F0D0FB85
:1036600051EC100B02F0B6F806B041EC100B10BD97
:1036700000F092FA51EC100B02F0ACF806B041ECFD
:10368000100B10BD00000000000000000000000052
:10369000FB21E93F0000F07F10B52F499FED2C1B67
:1036A0002DED020B84B0059820F000408842DCBF6D
:1036B00000209DED040B32DD2849884209D1049891
:1036C00040B94FF00100FCF79EFF00F03DFC06B052
:1036D00010BD05DB9DED040B00F02AFC06B010BD0B
:1036E00068469DED040B00F03BF810F0030011D08C
:1036F000012818D09DED021B9DED000B02281AD069
:1037000000F04AFA51EC100B02F064F806B041ECFC
:10371000100B10BD9DED021B9DED000B012000F074
:103720006FFB06B010BD9DED021B9DED000B00F080
:1037300033FA06B010BD012000F062FB51EC100B13
:1037400002F048F806B041EC100B10BD000000007C
:103750000000000000000000FB21E93F0000F07FB6
:103760002DE9F14F04462DED020B2DED088B8AB0AB
:103770009FEDE70B80ED020B139EE74826F0004516
:1037800085420ADC9DED120B002084ED000B0AB08F
:10379000BDEC088B03B0BDE8F08FE0489FEDE0ABD7
:1037A0009FEDE1BBA84247DDE14F9FEDE39B9FED1D
:1037B000E48B9DED120B53EC1A2B51EC100B002EE9
:1037C0001CDD02F077FB41EC100BBD4208D053EC3E
:1037D0001B2B51EC100B02F06DFBC4E900010BE058
:1037E00053EC192B51EC100B02F064FB53EC182B2B
:1037F00002F060FBC4E900010120C8E701F0F6FF18
:1038000041EC100BBD4208D053EC1B2B51EC100BBC
:1038100001F0ECFFC4E900010BE053EC192B51EC73
:10382000100B01F0E3FF53EC182B01F0DFFFC4E9AC
:1038300000014FF0FF30AAE7C348A84279DB9DEDB5
:10384000120B51EC100B00F02FFC41EC180B9FED0C
:10385000C00B53EC102B02F023FA9FEDBF1B53EC6F
:10386000112B01F0C3FF02F0C1F9074602F0EDF998
:1038700041EC190B53EC1A2B02F012FA53EC182BF3
:1038800002F00CFB41EC180B53EC1B2B51EC190B09
:1038900002F006FADFF8C8A241EC100B4FEA155807
:1038A0000125FA4453EC102B51EC180B02F002FBEB
:1038B000032DC4E900013DD0C1F30A5005EB4511C9
:1038C000A8EB00001139814234DA0AEB051BB0EE97
:1038D00048AA9BED000BF0EE68AA53EC102B51ECBC
:1038E000190B02F0DDF941EC1B0B51EC1A0B53ECF8
:1038F0001B2B02F0DFFA41EC180B51EC1A0B53ECC6
:10390000182B02F0D7FA53EC1B2B02F0D3FA9BEDE5
:10391000020B41EC1A0B53EC102B51EC190B02F07B
:10392000BFF953EC1A2B02F0C5FA41EC100B6D1CD9
:10393000B8E70EE0002EA8BF3846BFF628AF94EDDA
:10394000000B51EC100B01F045FFC4E90001784277
:103950001DE7C6F3130040F4801EC6F30A50A0F220
:10396000F530471100F01F05C5F12000DDF848B023
:1039700008900020069007900520EC467949002D1C
:1039800007EB0002794408BF51F8221009D051F822
:10399000223001EB8201AB404A68089922FA01F11A
:1039A0001943A1FB0E26A1FB0B131A449A4234BF04
:1039B0000123002303EB06080CEB8003D3E901A6E7
:1039C0000E448E4234BF0121002192448A4411B139
:1039D000924502D903E0924501D2012100E0002185
:1039E000C3E901A641444CF82010011EA0F10100DA
:1039F000C4DC029800F10050850F0298DDE90367EE
:103A00008000DDF8148002F020F941EC1A0B3046FA
:103A100002F032F99FED541B53EC112B02F040F9E8
:103A200041EC1B0B384602F027F99FED511B53EC7C
:103A3000112B02F035F941EC180B404602F01CF94D
:103A40009FED4D1B53EC112B02F02AF941EC190BA1
:103A500051EC180B53EC192B01F0C8FE53EC1B2B47
:103A600001F0C4FE53EC1A2B01F0C0FECDE90801B1
:103A7000002008909DED080B53EC1A2B51EC100B15
:103A800002F018FA53EC1B2B02F014FA53EC182B2B
:103A900002F010FA53EC192B02F000FA9FED381BDC
:103AA00053EC112B02F0FCF89FED370B41EC180B97
:103AB00053EC102B9DED080B51EC100B02F0F0F8BD
:103AC00053EC182B01F092FE9FED310B41EC180BDB
:103AD00053EC102B9DED080B51EC100B02F0E0F8AD
:103AE00053EC182B01F082FE41EC100B139810F0F0
:103AF000004F06D06D4251EC100B01F06BFE41EC13
:103B0000100B284684ED000B41E600000000000089
:103B10000000000000000000FB21E93F7CD90240CA
:103B200000004054FB21F93F3163621A61B4D03D7B
:103B3000FB21F93F000000000000601A61B4D03D95
:103B40007370032E8A19A33BFB213941000000004A
:103B500083C8C96D305FE43F000000000000E03F13
:103B60004229000090280000000000000000103EE4
:103B7000000000000000103C000000000000103AAF
:103B8000182D4454FB21F93D3326A611460B113C58
:103B900000000054FB21F93D10B52DED040B2DED77
:103BA000088B82B0B0EE419AF0EE619A0B9820F04B
:103BB00000449FED4BABB4F1795F11DA9DED0A0B38
:103BC00051EC100B02F012F8002801BFB0EE4A0AC7
:103BD000F0EE6A0A02B0BDEC088B04BF04B010BD61
:103BE0009DED0A0B53EC102B51EC100B02F058F822
:103BF00041EC180B3C480621B0EE480AF0EE680A8A
:103C0000784400F081F853EC182B51EC100B02F0C3
:103C100047F89DED0A0B41EC1B0B53EC192B51ECB3
:103C2000100B02F03DF841EC190B53EC1B2B51EC3F
:103C3000180B02F035F853EC192B02F03BF99FED0D
:103C40002C0B41EC190B53EC102B51EC180B02F020
:103C500027F841EC100B2848844210DA53EC192B5A
:103C600051EC100B02F026F953EC1A2B02F016F966
:103C700041EC100B02B0BDEC088B04B010BD1F4826
:103C8000A042BCBF9FED1E1B8DED001B06DBA4F503
:103C900000100190002000909DED001B51EC100BD6
:103CA00053EC112B02F006F99DED000B41EC180BC3
:103CB00053EC102B51EC1A0B02F0FCF841EC1A0BF0
:103CC00053EC192B51EC180B02F0F4F853EC1A2BAF
:103CD00002F0E4F841EC100BCCE70000000000001B
:103CE000000000000000F03FB425000000000000CC
:103CF000000000000000E03F3333D33F0000E93F05
:103D0000000000000000D23F70B504462DED028B8C
:103D10004D1E00EBC500B0EE408AF0EE608A90EDDB
:103D2000000B35F0060017D053EC182B51EC100B9C
:103D300001F0B6FF41EC100B6D1E04EBC50090EDD9
:103D4000001B51EC100B53EC112B01F04FFD41EC1B
:103D5000100B35F00600E7D1022D36D0042D1CD013
:103D6000062D1CBFBDEC028B70BD53EC182B51EC23
:103D7000100B01F095FF94ED0A1B53EC112B01F091
:103D800035FD53EC182B01F08BFF94ED081B53EC21
:103D9000112B01F02BFD41EC100B53EC182B51ECC7
:103DA000100B01F07DFF94ED061B53EC112B01F07D
:103DB0001DFD53EC182B01F073FF94ED040B53EC35
:103DC000102B01F013FD41EC100B53EC182B51ECB0
:103DD000100B01F065FF94ED021B53EC112B01F069
:103DE00005FD53EC182B01F05BFF94ED001B53EC29
:103DF000112B01F0FBFCBDEC028B41EC100B70BDF4
:103E000031B504462DED040B2DED0A8BB0EE41BA11
:103E1000F0EE61BA0B989DED0A0B20F00040B0F176
:103E2000795F0DDA51EC100BFFF7BAFB042808BFDD
:103E300000F09AF89DED0A0BBDEC0A8B05B030BD81
:103E400053EC102B51EC100B01F02AFF41EC180B36
:103E50009DED0A0B53EC182B51EC100B01F020FFD9
:103E600041EC190B2C48B0EE480AF0EE680A052127
:103E70007844FFF749FF9FED2ACBB0EE40AAF0EE61
:103E800060AA9CB353EC1C2B51EC190B01F008FFFA
:103E900041EC1C0B53EC1A2B51EC190B01F000FFF9
:103EA0009FED210B41EC190B53EC102B51EC1B0B2C
:103EB00001F0F6FE53EC192B01F0FCFF53EC182B2C
:103EC00001F0EEFE53EC1B2B01F0F4FF53EC1C2B26
:103ED00001F0F0FF9DED0A1B53EC112B01F0DEFF0A
:103EE000BDEC0A8B05B041EC100B30BDFFE753EC85
:103EF0001A2B51EC180B01F0D3FE53EC1C2B01F0E4
:103F000075FC53EC192B01F0CBFE9DED0A1B53EC15
:103F1000112B01F06BFCE3E73C24000000000000E3
:103F2000495555555555C5BF000000000000E03FFC
:103F300010B553EC102B51EC100B01F057FC41EC79
:103F4000100B10BD000000009FED050B10B553ECE9
:103F5000102B51EC100B01F0F1FC41EC100B10BDDB
:103F600000000000000000009FED050B10B553ECB1
:103F7000102B51EC100B01F093FE41EC100B10BD17
:103F8000000000000000001030380A2801D2012093
:103F900070470020704700BF7047000010B504460E
:103FA0006FF00400FEF7FCFBE11704EB5171C1F365
:103FB000C701074A11701046007800EB4001C1EBC1
:103FC000C0104FF6FF7101EAC0000249088010BD21
:103FD0000C0000200E00002070B504464FF407705E
:103FE00094FBF0F0C6B24FF4077094FBF0F100FBC5
:103FF000114085B205E04FF4077000F02FF8701EF5
:10400000C6B2002EF7D115B1284600F027F870BDD2
:104010000146114A12784A434FF0E0235A610022C8
:104020009A611A46126942F001021A6100BF4FF00C
:10403000E022106900F001021AB100F48032002A77
:10404000F5D04FF0E022126922F001024FF0E02398
:104050001A6100229A6170470C0000200146114A43
:1040600012884A434FF0E0235A6100229A611A46AF
:10407000126942F001021A6100BF4FF0E02210699C
:1040800000F001021AB100F48032002AF5D04FF09E
:10409000E022126922F001024FF0E0231A610022AF
:1040A0009A6170470E00002082B0CDE9000121F036
:1040B000004001909DED000B02B051EC100B7047D9
:1040C00000BF054A128802F04002002AF9D0C2B2AD
:1040D000014B9A80704700000010014070470000BB
:1040E000A820FFF75BFFFDF7BDFA51E029480078F3
:1040F000012804DB002027490870FEF755FD2648FB
:104100000078022804DB002023490870FEF7E5FD53
:1041100022480078042804DB002020490870FEF7BC
:10412000DBFD1F480078052804DB00201C490870CF
:10413000FEF7D0FD1B4800780A2804DB002019494F
:104140000870FEF733FD18480078142804DB0020BF
:1041500015490870FEF7C2FD14480078322804DBC8
:10416000002012490870FEF7B6FD11480078642857
:1041700004DB00200E490870FEF7AAFD0D48006818
:10418000B0F57A7F04DB00200A490860FEF7A1FD44
:10419000ACE7000000000020010000200200002029
:1041A000030000200400002005000020060000207D
:1041B00007000020080000207047000010B588B0FC
:1041C000044601210846FEF7B1F901214804FEF733
:1041D000BDF9072202212248FEF7B2F80722032187
:1041E0001F48FEF7ADF80C20069002208DF81C0049
:1041F0008DF81D0000208DF81E0001208DF81F0095
:1042000006A91748FEF754F802940020ADF80C00F8
:10421000ADF80E00ADF81000ADF814000C20ADF8AC
:10422000120002A90F48FEF7E5FF01210D48FEF735
:1042300078FF012240F225510A48FEF7B5FF2620FB
:104240008DF8040003208DF805008DF8060001208C
:104250008DF8070001A8FEF799F808B010BD00001E
:104260000000024000440040704701460868704763
:1042700010B5254890ED000A244880ED000A244836
:1042800090ED000A214880ED010A0D212148FFF739
:1042900020F800BF40211F48FEF74FFF0128F9D149
:1042A0000A211C48FFF715F800BF40211948FEF706
:1042B00044FF0128F9D100240DE01448015D1548A0
:1042C000FFF707F800BF40211248FEF736FF01282C
:1042D000F9D1601CC4B2082CEFDB0A210D48FEF7AF
:1042E000F8FF00BF40210B48FEF727FF0128F9D156
:1042F0000D210848FEF7EDFF00BF40210548FEF7FD
:104300001CFF0128F9D110BD58000020C003002077
:104310005C0000200044004000B5A248007810B3C3
:10432000DFEDA11AB3EE041ADFEDA00A9FEDA00A9B
:10433000A048FEF795F8B3EE040A9E4880ED020A05
:10434000DFED991A9FED991ADFED980AB3EE040A92
:104350009948FEF785F8BAEE040A974880ED020AFC
:1043600000209049087095489549096800EB0110B4
:1043700090ED000A9348D0ED000A30EE600A9248B2
:1043800080ED000A8D488E49096800EB011090ED20
:10439000010A8E48D0ED000A30EE600A8A4880EDAE
:1043A000010A90ED000AB5EEC00AF1EE10FA02DD46
:1043B00090ED000A04E0844890ED000AB1EE400A56
:1043C0008148D0ED010AF5EEC00AF1EE10FA02DDE7
:1043D000D0ED010A04E07C48D0ED010AF1EE600A5C
:1043E00030EE200A784880ED020A74487449096862
:1043F00000EB011090ED020A7548D0ED000A30EE96
:10440000600A714880ED030A90ED030AF7EE000A96
:10441000B4EEE00AF1EE10FA26D290ED020ADFEDDA
:10442000640AB4EEE00AF1EE10FA1DD26348644962
:10443000096800EB0110007B28B961480068401C46
:104440005F49086010E05D485D49096800EB0110B4
:10445000007B012808D15F480078012804D1584822
:104460000068401C56490860574890ED030ADFED8C
:104470005A0AB4EEE00AF1EE10FA0CD290ED030AFB
:10448000DFED560AB4EEE00AF1EE10FA03DD00208B
:104490005349086016E049484949096800EB011092
:1044A00090ED020AF0EE400A494890ED000A4148BA
:1044B000FDF7F0FF3F4890ED080ABDEEC00A4848FE
:1044C00080ED000A404890ED020AF2EE040AB4EED4
:1044D000E00AF1EE10FA0ED290ED020AFAEE040AAA
:1044E000B4EEE00AF1EE10FA05DD00203D49086067
:1044F0003D49086055E031483149096800EB011039
:10450000007B00BB304890ED000ADFED380A20EE5A
:10451000200AD0ED020A80EE201ABDEEC10A314811
:1045200080ED000A284890ED010ADFED300A20EE08
:10453000200AD0ED020A80EE201ABDEEC10A2A48F8
:1045400080ED000A2DE02048D0ED020AF1EE600A6D
:10455000B0EE600ADFED150A1748FDF79BFF16481D
:1045600090ED080A1848D0ED000A20EE200AD0EDA0
:10457000020A80EE201ABDEEC10A1A4880ED000A38
:104580000D4890ED080A1048D0ED010A20EE200AEF
:10459000D0ED020A80EE201ABDEEC10A124880ED6D
:1045A000000A00BD5001002000007A440000000015
:1045B000000048421C040020940400205401002004
:1045C0009401002018000020BC0400201C000020E2
:1045D0002000002051010020CDCCCC3DCDCCCCBD65
:1045E0007C00002074000020780000200000FA43C6
:1045F00010B588B0044601210846FDF797FF012158
:104600001020FDF7C3FF072209212248FDF798FE7D
:1046100007220A211F48FDF793FE4FF4C060069061
:1046200002208DF81C008DF81D0000208DF81E0062
:1046300001208DF81F0006A91648FDF739FE0294E7
:104640000020ADF80C00ADF80E00ADF81000ADF88C
:1046500014000C20ADF8120002A90F48FEF7CAFDA5
:1046600001210D48FEF75DFD012240F225510A4867
:10467000FEF79AFD25208DF8040003208DF8050033
:104680008DF8060001208DF8070001A8FDF77EFED9
:1046900008B010BD000002400010014000B5034802
:1046A0000068042801DAFFF737FE00BD94010020FE
:1046B00030B595B0054613AB12AA09A9284600F0FB
:1046C00039FA044614B1204615B030BD00201490CC
:1046D00026E0224909689DF8502001EBC20113AB86
:1046E00011AA486801A900F025FA04460CB1204639
:1046F000EAE709A901A800F0BBFC60B99DF84400F5
:104700009DF84810884201DD0220DDE79DF8500049
:10471000124988750AE09DF85000401CC0B2149000
:104720000E48007D9DF850108842D2DC00BF0B4837
:10473000007D9DF85010884201D10420C4E714A9DF
:10474000284600F0D7FA04460CB12046BCE79DF895
:104750005000024948750020B6E70000EC01002037
:104760002DE9F0419AB09C48847D007DA04202DC96
:104770001AB0BDE8F0819849096801EBC40106ABA5
:1047800007AA486808A900F0D5F908A993A0FBF783
:10479000A9FD002644E09048008B0121B14008406B
:1047A000D8B122218FA0FBF79DFD304600F028FBF9
:1047B00089492431471839468BA0FBF793FD222104
:1047C00088A0FBF78FFD304600F01AFB82492431A8
:1047D000084410A941F8260018E0304600F010FB0C
:1047E0007D492431085810A941F826007A48C07D37
:1047F00030B910A850F826107CA0FBF773FD05E037
:1048000010A850F826107AA0FBF76CFD9DF81C004C
:10481000401EB04202D078A0FBF764FD701CC6B207
:104820009DF81C008642B6DB74A0FBF75BFD00F030
:1048300039FB6948407D0B280DD2DFE800F0060DFA
:10484000151E27323F4E5F7287006349096851F891
:1048500034008047054690E05F4A126852F83410F1
:1048600010988847054688E05B4B1B6853F8342056
:10487000DDE91001904705467FE0574F3F6857F844
:10488000343010A807C89847054676E0DFF848C1DD
:10489000DCF800C05CF8347010A80FC8B8470546B3
:1048A0006BE01498DFF830C10090DCF800C05CF8D1
:1048B000347010A80FC8B84705465EE0DDE9140162
:1048C000DFF814C1CDE90001DCF800C05CF83470F9
:1048D00010A80FC8B84705464FE0DDE91412169836
:1048E000DFF8F4C0CDE900120290DCF800C05CF8FB
:1048F000347010A80FC8B84705463EE0DDE9142320
:10490000DDE91610DFF8D0C0CDE90023CDE90210B3
:10491000DCF800C05CF8347010A80FC8B847054632
:104920002BE0DDE91523DDE91710CDE90123CDE901
:1049300003101498DFF8A0C00090DCF800C05CF809
:10494000347010A80FC8B847054616E0DDE91623F5
:10495000DDE91810CDE90223CDE90410DDE91401E9
:10496000DFF874C0CDE90001DCF800C05CF83470F9
:1049700010A80FC8B847054600BF00BF00F050FAA6
:104980009DF8180001280CD11348C07D20B9294694
:104990001BA0FBF7A7FC07E029461BA0FBF7A2FC26
:1049A00002E018A0FBF79EFC0B4890F8EC0088B1E1
:1049B0000948D0F8F0000A21B0FBF1F201FB120720
:1049C0000548D0F8F000B0FBF1F83A46414611A096
:1049D000FBF788FC00BFCBE6EC0100200D0A257335
:1049E000280000002563000025730000256C750079
:1049F00030582558000000002C000000290000005D
:104A00003D256C753B0D0A003D305825583B0D0A7D
:104A10000000000046756E6374696F6E2052756EFB
:104A20002054696D653A25642E2531646D730D0A35
:104A300000000000F0B503461546002000220026C5
:104A4000002455E01F782C2F01D104B901221F78D2
:104A5000292F01D01F780FB904B94AE0002E34D1B4
:104A60001F78302F02DB1F78392F11DD1F78612F5F
:104A700002DB1F78662F0BDD1F78412F02DB1F78CA
:104A8000462F05DD1F78582F02D01F78782F0CD1C4
:104A900002B12EE01F78612F03DB1F78203F0F70DB
:104AA00001E01F780F70491C1FE01F78222F04D1EE
:104AB00002B11EE00126012417E01F78202F14D038
:104AC0001F782C2F11D0FF2613E01F78222F00D142
:104AD000002402B10DE044B11F785C2F02D15B1CB1
:104AE000471CF8B21F780F70491C471CF8B25B1CBA
:104AF000A8E700BF00270F702E70F0BD10B5044668
:104B0000002010700BE020780870641C491C10789D
:104B1000401C10701078984201DB012010BD2078F5
:104B2000202802D020780028EDD10020087000BF96
:104B3000F4E700002DE9FF4F85B080468946002745
:104B4000002004900390012002904FF0000B0025FC
:104B500044461DE02078202816D005F07F00052867
:104B600012DA0DB945F0800505F07F00042803D165
:104B700020782A2800D00EE0207805F07F010DF87B
:104B80000100681CC5B202E0852D00D103E0641C61
:104B900020780028DED100BF8DB1002005F07F0114
:104BA0000DF8010051A1684600F062FA18B9002121
:104BB0000898017002E001210898017000254FF06B
:104BC000000A444614E0641C0AF1010000F0FF0AE8
:104BD0002078202802D020782A2809D1204600F009
:104BE000D7F90646282E03D02A2E01D0CDF810A0E2
:104BF0002078282802D020780028E4D14446049860
:104C000010B10498401C04444FF0000A002654E000
:104C1000207810B94FF0010A50E02078282803D1FD
:104C200016B9781CC7B213E02078292808D13EB9FC
:104C300017B1781EC7B201E04FF0010A47B93DE055
:104C40002078222804D10EB9012000E00020064679
:104C500047B9207820282FD0207889F8000009F162
:104C6000010929E020782C2804D101200290681C39
:104C7000C5B214E02078202811D0207828280ED042
:104C80004DB9BBF1050F06DA20780DF80B000BF1DA
:104C9000010000F0FF0B0298401CC0B20290012FEF
:104CA0000AD10298022807D10298401CC0B2029093
:104CB0000398401CC0B20390641CA9E700BF03988E
:104CC000012809D100200DF80B0008A1684600F06A
:104CD000CFF908B9002003900799039808700020C5
:104CE00089F80000504609B0BDE8F08F766F69641E
:104CF000000000002DE9F043B5B005460F46002442
:104D0000002604E000213D488155701CC6B20A2EE1
:104D1000F8DB06E06D1C287818B9012035B0BDE835
:104D2000F08328782828F5D16D1C61E034AA694603
:104D30002846FFF77FFE064635449DF8D00020B197
:104D4000012827D0FF284CD149E09DF8000000B38E
:104D500033A9684600F027F906460EB10220DDE7C8
:104D6000204600F04DF825490A31339A0A50A1F146
:104D70002400008B0121A140884320491A3908836F
:104D800004211E480155601CC4B20A2C01DD032019
:104D9000C4E726E0684600F087F9401C00F0FF08F1
:104DA000204600F02DF815490A3100EB010949466B
:104DB000684600F06EF911481A38018B0120A040B6
:104DC000014388B20D491A3908830C4800F8048061
:104DD000601CC4B20A2C01DD03209FE701E0022021
:104DE0009CE700BF2878292801D0287800B900E086
:104DF0009CE700BF3C70002090E700000602002006
:104E000002460020002105E0044B5B5C0344D8B25D
:104E10004B1CD9B29142F7DB70470000060200201C
:104E200010B501210D48FDF756FE012808D10C48A8
:104E3000D0F8F0004FF6FF7108440949C1F8F000BE
:104E40000648FDF745FE0649D1F8F010084404492C
:104E5000C1F8F0000846D0F8F00010BD000800408E
:104E6000EC01002010B5044604EBC40000EB041074
:104E70000122C2EB800081B24FF47A70FDF75EFF31
:104E800001200149C87510BDEC01002010B5024693
:104E9000012000E050430B00A1F10104E1B2F9D17F
:104EA00010BD000010B501210848FDF737FD4FF691
:104EB000FF710648FDF732FE00210448FDF730FE81
:104EC00000200349C1F8F00010BD000000080040B8
:104ED000EC01002070B51D48008800F40040002857
:104EE00033D01A4805780020194948551948816877
:104EF0001748884704461CB91649C868804721E00E
:104F0000134800F0DDF80546012D00D02C46CCB149
:104F1000012C06D0022C08D0032C0AD0042C10D16E
:104F20000BE00DA0FBF7DEF90BE00EA0FBF7DAF9C2
:104F300007E00FA0FBF7D6F903E010A0FBF7D2F9CA
:104F400000BF00BF00200149088070BD1400002090
:104F5000E0020020EC010020BAAFCAFDB4EDCEF3B0
:104F6000210D0A00B2CECAFDB4EDCEF3210D0A0028
:104F7000B2CECAFDCCABB6E0210D0A00CEB4D5D27C
:104F8000B5BDC6A5C5E4B5C4BAAFCAFD210D0A00BA
:104F90000146491C00E0491C0878202801D100295D
:104FA000F9D1087870472DE9F04307460E460025F1
:104FB0004FF00A083C46002030601FE02078392876
:104FC00002DC207830280ADA2078462802DC2078B3
:104FD000412804DA2078582809D1012D07D12078FA
:104FE000412801DB4FF01008681CC5B205E02078AD
:104FF00000B904E00120BDE8F083641CDEE700BFD7
:105000003C46B8F1100F0FD1032D01DA0220F2E770
:105010002078302806D16078582803D1A41CA81E17
:10502000C5B204E00320E6E70DB90420E3E71BE086
:105030000DB1681EC5B22078392806DC20783028EA
:1050400003DB2078A0F1300902E02078A0F13709D5
:1050500029464046FFF71AFF316809FB001030600F
:10506000641C207800B900E0E2E700BF0020C2E73E
:1050700002460AE010780B78984201D00120704770
:10508000107800B902E0521C491CF3E700BF002071
:10509000F5E706E002780A70027802B902E0401CE7
:1050A000491CF7E700BF70470146002005E00A7879
:1050B00002B903E0421CD0B2491CF8E700BF7047B8
:1050C00010B58CB004461E230BAA03A92046FFF797
:1050D00015FD0090009810B101200CB010BD9DF896
:1050E0002C00044400200B900EE040489DF82C203A
:1050F00050F8221003A8FFF7BBFF00B908E09DF8A5
:105100002C00401CC0B20B909DF82C000728ECD35B
:1051100000BF9DF82C00072863D2DFE800F00405EB
:105120003C5E6564630000BF31A0FBF7DBF831A093
:10513000FBF7D8F83FA0FBF7D5F84EA0FBF7D2F865
:105140005CA0FBF7CFF86BA0FBF7CCF879A0FBF7DE
:10515000C9F886A0FBF7C6F88BA0FBF7C3F890A0B0
:10516000FBF7C0F894A0FBF7BDF899A0FBF7BAF8DD
:105170009EA0FBF7B7F8A4A0FBF7B4F8B0A0FBF72C
:10518000B1F8BDA0FBF7AEF8C8A0FBF7ABF8D4A010
:10519000FBF7A8F89AE216A0FBF7A4F8E0A0FBF74B
:1051A000A1F800200B900EE0ED4800689DF82C203F
:1051B00000EBC2004168EBA0FBF794F89DF82C00CF
:1051C000401CC0B20B90E648007D9DF82C10884230
:1051D000EADC07A0FBF786F878E205A0FBF782F887
:1051E000C4E171E245E219E2ECE10000980100201F
:1051F0000D0A00002D2D2D2D2D2D2D2D2D2D2D2D7C
:105200002D2D2D2D2D2D2D2D2D2D2D2D55534D414C
:1052100052542056332E312D2D2D2D2D2D2D2D2D4B
:105220002D2D2D2D2D2D2D2D2D2D2D2D2D2D2D20BB
:105230000D0A00002020202055534D415254CAC76A
:10524000D3C9414C49454E54454BBFAAB7A2B5C43A
:10525000D2BBB8F6C1E9C7C9B5C4B4AEBFDAB5F7B9
:10526000CAD4BBA5BDBBD7E9BCFE2CCDA8B9FD20D7
:105270000D0A0000CBFC2CC4E3BFC9D2D4CDA8B921
:10528000FDB4AEBFDAD6FACAD6B5F7D3C3B3CCD025
:10529000F2C0EFC3E6B5C4C8CEBACEBAAFCAFD2CD1
:1052A000B2A2D6B4D0D02ED2F2B4CB2CC4E3BFC9B4
:1052B0000D0A0000D2D4CBE6D2E2B8FCB8C4BAAF33
:1052C000CAFDB5C4CAE4C8EBB2CECAFD28D6A7B39E
:1052D000D6CAFDD7D62831302F3136BDF8D6C629EB
:1052E000A1A2D7D6B7FBB4AEA1A2BAAFCAFDC8EB94
:1052F0000D0A0000BFDAB5D8D6B7B5C8D7F7CEAA21
:10530000B2CECAFD292CB5A5B8F6BAAFCAFDD7EE04
:10531000B6E0D6A7B3D63130B8F6CAE4C8EBB2CE01
:10532000CAFD2CB2A2D6A7B3D6BAAFCAFDB7B52074
:105330000D0A0000BBD8D6B5CFD4CABE2ED0C2D479
:10534000F6B2CECAFDCFD4CABEBDF8D6C6C9E8D61D
:10535000C3B9A6C4DC2CD0C2D4F6BDF8D6C6D7AA31
:10536000BBBBB9A6C4DC2E0D0A000000BCBCCAF54C
:10537000D6A7B3D63A7777772E6F70656E65647669
:105380002E636F6D0D0A000055534D415254D3D01A
:1053900037B8F6CFB5CDB3C3FCC1EE3A0D0A000065
:1053A0003F3A202020202020BBF1C8A1B0EFD6FA40
:1053B000D0C5CFA20D0A000068656C703A2020208D
:1053C000BBF1C8A1B0EFD6FAD0C5CFA20D0A00003C
:1053D0006C6973743A202020BFC9D3C3B5C4BAAF77
:1053E000CAFDC1D0B1ED0D0A0A00000069643A207F
:1053F00020202020BFC9D3C3BAAFCAFDB5C44944D9
:10540000C1D0B1ED0D0A0A006865783A202020204D
:10541000B2CECAFD3136BDF8D6C6CFD4CABE2CBA7C
:10542000F3B8FABFD5B8F12BCAFDD7D6BCB4D6B401
:10543000D0D0BDF8D6C6D7AABBBB0D0A0A00000063
:105440006465633A20202020B2CECAFD3130BDF819
:10545000D6C6CFD4CABE2CBAF3B8FABFD5B8F12B92
:10546000CAFDD7D6BCB4D6B4D0D0BDF8D6C6D7AA5C
:10547000BBBB0D0A0A00000072756E74696D653A57
:10548000312CBFAAC6F4BAAFCAFDD4CBD0D0BCC6AB
:10549000CAB13B302CB9D8B1D5BAAFCAFDD4CBD044
:1054A000D0BCC6CAB13B0D0A0A000000C7EBB0B4BD
:1054B000D5D5B3CCD0F2B1E0D0B4B8F1CABDCAE40E
:1054C000C8EBBAAFCAFDC3FBBCB0B2CECAFDB2A234
:1054D000D2D4BBD8B3B5BCFCBDE1CAF82E0D0A00CE
:1054E0002D2D2D2D2D2D2D2D2D2D2D2D2D2D2D2DEC
:1054F0002D2D2D2D2D2D2D2D2D2D414C49454E542D
:10550000454B2D2D2D2D2D2D2D2D2D2D2D2D2D2D95
:105510002D2D2D2D2D2D2D2D2D2D2D200D0A000065
:105520002D2D2D2D2D2D2D2D2D2D2D2D2D2D2D2DAB
:105530002D2D2D2D2D2D2D2D2DBAAFCAFDC7E5B545
:10554000A52D2D2D2D2D2D2D2D2D2D2D2D2D2D2D13
:105550002D2D2D2D2D2D2D2D2D2D2D2D200D0A00F8
:10556000EC01002025730D0A0000000059A0FAF795
:10557000B9FE00200B901AE0664909689DF82C20BE
:1055800001EBC20101AB02AA486803A9FFF7D2FAF6
:10559000604800689DF82C1050F8312003A95EA0E7
:1055A000FAF7A0FE9DF82C00401CC0B20B905948A1
:1055B000007D9DF82C108842DEDCAFF2CC30FAF78B
:1055C00091FE83E0AFF2D830FAF78CFE0BAA03A964
:1055D0002046FFF72FFA9DF82C00C8B9694603A8AA
:1055E000FFF7E1FC0B909DF82C0020B94FA000992B
:1055F000FAF778FE0EE09DF82C00042801D0022076
:105600006BE54DA0FAF76EFE01204249C87501E036
:10561000022062E547A0FAF765FE57E045A0FAF7D9
:1056200061FE0BAA03A92046FFF704FA9DF82C009F
:10563000C8B9694603A8FFF7B6FC0B909DF82C008B
:1056400020B942A00099FAF74DFE0EE09DF82C001B
:10565000042801D0022040E53FA0FAF743FE0020D5
:105660002C49C87501E0022037E532A0FAF73AFE6E
:105670002CE030A0FAF736FE0BAA03A92046FFF76C
:10568000D9F99DF82C00C8B9694603A8FFF78BFC2F
:105690000B909DF82C0078B91E49009881F8EC0019
:1056A000084690F8EC0018B130A0FAF71BFE07E0AE
:1056B00035A0FAF717FE03E002200EE502200CE504
:1056C0001CA0FAF70FFE01E0012006E500BF002054
:1056D00003E500002D2D2D2D2D2D2D2D2D2D2D2DC6
:1056E0002D2D2D2D2D2D2D2D2D2D2D2D2DBAAFCA3E
:1056F000FD204944202D2D2D2D2D2D2D2D2D2D2DF1
:105700002D2D2D2D2D2D2D2D2D2D2D2D2D2D2D2DC9
:10571000200D0A00EC0100202573206964206973C4
:105720003A0D0A3058253038580D0A004845583A85
:10573000305825580D0A00003136BDF8D6C6B2CE15
:10574000CAFDCFD4CABE210D0A0000004445433A29
:10575000256C750D0A0000003130BDF8D6C6B2CEFA
:10576000CAFDCFD4CABE210D0A00000052756E20BA
:1057700054696D652043616C63756C6174696F6E0B
:10578000204F4E0D0A00000052756E2054696D6561
:105790002043616C63756C6174696F6E204F46467F
:1057A0000D0A00000160704710B500290AD0087882
:1057B000002807D005487844FBF702FB002801D0F9
:1057C000002010BD0248784410BD0000F20C00001B
:1057D000EA0C000081F00041704780F00040704703
:1057E00021F00041704720F00040704710B591EA69
:1057F000030F48BF83F0004300F16483841A71EB08
:10580000030C05D2121943EB0C03001B61EB0C01D6
:10581000DFF824E14FEA1154A4EB135C1EEA430FB6
:1058200018BF9EEA445F73D023EA0E03DCF1200E1A
:1058300021EA045143F4801332D322FA0CFE10EB18
:105840000E0023FA0CFE41EB0E01CCF1200E03FA00
:105850000EFE10EB0E0051F10001B1F5801FCCF1EE
:10586000200E32D201EB045112FA0EF2BDE81040C4
:1058700058BF7047401C38BF5FEA420218BF7047EC
:10588000002814BF20F0010041F100014FEA41035C
:1058900013F5001F38BF7047A1F1C04100F0F8BAFE
:1058A000012A43EB0302ACF1200CDCF11F0E32BFE6
:1058B0004FF0000E23FA0CF310EB030041EB045100
:1058C000B4EB115FD0D0A1EB045101F58011490870
:1058D0005FEA300001EB04510ED350F1000038BFF5
:1058E00012FA0EFE08D1BDE81040C9E7401C38BFCF
:1058F0005FEA4202CAD1C3E7BDE810404FEA410364
:1059000013F5001F38BF7047A1F1C04100F0C0BAC5
:105910009EEA445F08D011EA5E0FBDE8104004BF64
:1059200001F0004100207047BDE8104070B500F064
:1059300061FA00BF64FBBE3E0000E0FF2DE9C041FC
:1059400030B4DFF8A0C23CEA111418BF3CEA1314CB
:1059500000F0EC8081EA03051CEA111444EAD574D6
:1059600018BF1CEA131500F0C780A4EB05044FF024
:10597000004545EAC12145EAC32341EA505143EAC3
:10598000525304F17F74994204F500344FEAC02069
:105990004FEAC22208BF904200F09C804FEA136594
:1059A0000FF24016765D4FEA134506FB05F7C7F187
:1059B000807706FB07F74FEAD737A7FB03687642E5
:1059C000C8F58038A7FB06CE38BFA8F1010807FB51
:1059D00008E64FF0000EA6FB028CE6FB03CEDCF1DE
:1059E000000CCEF1004E38BFAEF1010EA6FB0C58F4
:1059F0004FF000074FF00005E6FB0E87A1FB08C63D
:105A0000A0FB07CE16EB0E0645F10005E1FB07658E
:105A100015F1E04E7EBFA4F580345FEA46066D4185
:105A200016F1800745F100054FEA17274FEA066691
:105A300047EA0567A6F1DE46B6F1805F4FEA152515
:105A40001FD9384624F0010C05EBC471BCF1FE6F80
:105A500001EB0C1102D8F0BCBDE8008124425CBF10
:105A600001F5801E9EEAC47F02D4F0BCBDE800812F
:105A7000244238D4F0BCA1F1C041BDE8004100F09F
:105A800007BA4FEAD22242EA43524FEAD323A7FB96
:105A900002864FEAD02040EA415007FB03661EEA27
:105AA0000E0F4FEAD12105FB026658BFA6EB005648
:105AB000B6EB00564FEA520E4EEAC37E18EB0E0EBE
:105AC00056EB530EBDD518EB02085E417F1C55F115
:105AD0000005B6E74FF480154FF000074FF00006C1
