:020000040800F2
:10000000A85B0024650300082180000851760008E1
:10001000198000086106000879B50008000000009A
:100020000000000000000000000000003185000812
:100030006906000800000000A1800008798500081A
:100040007F0300087F0300087F0300087F03000888
:100050007F0300087F0300087F0300087F03000878
:100060007F0300087F0300087F0300087F03000868
:100070007F0300087F0300087F0300087F03000858
:100080007F0300087F0300087F0300087F03000848
:100090007F0300087F0300087F0300087F03000838
:1000A0007F0300087F0300087F0300087F03000828
:1000B000E98700087F0300087F0300087F0300082A
:1000C0007F0300087F0300087F0300087F03000808
:1000D0007F0300087F0300087F0300087F030008F8
:1000E0007F0300087F030008000000007F03000872
:1000F0007F0300087F0300087F0300087F030008D8
:100100007F0300087F0300087F0300087F030008C7
:1001100069950008799500087F0300087F030008AF
:100120007F0300087F0300087F0300087F030008A7
:100130007F0300087F0300087F0300087F03000897
:1001400000000000000000000000000000000000AF
:100150007F0300087F0300087F0300087F03000877
:100160007F0300087F0300087F0300087F03000867
:100170007F0300087F0300087F03000800000000E1
:100180007F0300087F0300087F0300087F03000847
:100190007F0300087F0300087F0300087F03000837
:1001A0007F0300087F0300087F0300087F03000827
:1001B0007F0300087F0300087F0300087F03000817
:1001C0007F0300087F0300087F0300087F03000807
:1001D0007F0300087F0300087F0300087F030008F7
:1001E0007F0300087F0300087F0300087F030008E7
:1001F0007F0300087F0300087F0300087F030008D7
:100200007F0300087F0300087F0300087F030008C6
:100210007F0300087F0300087F0300087F030008B6
:100220007F0300087F0300087F0300080000000030
:100230007F0300087F030008000000007F03000820
:100240007F0300087F0300087F0300087F03000886
:100250007F0300087F0300087F0300087F03000876
:100260007F0300087F0300087F0300087F03000866
:100270007F0300087F0300087F03000800000000E0
:100280007F0300087F0300087F03000800000000D0
:10029000000000007F03000800F002F800F052F8B0
:1002A00014A696E8000CB244B344DA4501D100F03C
:1002B00049F8BAE80F000FA696E83000A5EB040550
:1002C00004EB0607AAEB0704A7F101074FEA15158F
:1002D0004FEA3414A4F10104AC4201D300F032F827
:1002E00013F0010F18BFFB1A43F0010300F001F8EF
:1002F000DBE71847C0E10000E0E10000103A24BF4E
:1003000078C878C1FAD8520724BF30C830C144BF7A
:1003100004680C6070470000704700000023002450
:1003200000250026103A28BF78C1FBD8520728BF05
:1003300030C148BF0B6070471FB50EF049F81FBDB4
:1003400010B510BD00F04FF91146FFF7F5FF0BF0A7
:100350009FF900F06DF903B4FFF7F2FF03BC00F062
:1003600075F900000948804709480047FEE7FEE7A5
:10037000FEE7FEE7FEE7FEE7FEE7FEE7FEE7FEE755
:1003800004480549054A064B704700008986000865
:1003900099020008A8550024A85B0024A85700244F
:1003A000A857002453EA020C00F069802DE9F04BB5
:1003B0004FF00006002B1FBFB3FA83F503FA05F4D4
:1003C00024FA05F65E4012BF1643B2FA82F502FA2D
:1003D00005F4C5F120051EBF22FA05FC44EA0C0411
:1003E000203556EA044C4FEA144418BF641C4FF001
:1003F00000084FF00009904271EB030C39D300293B
:1004000019BFB1FA81F701FA07F6B0FA80F700FADE
:1004100007F6C7F120071EBF20FA07FC46EA0C06C4
:100420002037B6FBF4FCA7EB0507103F07F01F0BC6
:10043000CBF120062CFA06F60CFA0BFB44BFB346B0
:100440000026202FA4BF5E464FF0000B5BEA060C8F
:1004500008BF4FF0010B19EB0B0948EB0608ABFB8B
:10046000027C06FB02CC0BFB03CCC01B71EB0C0126
:10047000C1E70B46024641464846BDE8F08B13B53E
:10048000084318BF4FF0FF300146AFF30080BDE8CE
:100490001C407047032A40F2308010F0030C00F03B
:1004A000158011F8013BBCF1020F624498BF11F8AE
:1004B00001CB00F8013B38BF11F8013BA2F1040267
:1004C00098BF00F801CB38BF00F8013B11F00303DF
:1004D00000F02580083AC0F0088051F8043B083A43
:1004E00051F804CBA0E80810F5E7121D5CBF51F8E5
:1004F000043B40F8043BAFF30080D20724BF11F85F
:10050000013B11F801CB48BF11F8012B24BF00F8C3
:10051000013B00F801CB48BF00F8012B704710B534
:10052000203AC0F00B80B1E81850A0E81850B1E8AC
:100530001850A0E81850203ABFF4F5AF5FEA027CEB
:1005400024BFB1E81850A0E8185044BF18C918C01B
:10055000BDE810405FEA827C24BF51F8043B40F8BC
:10056000043B08BF7047D20728BF31F8023B48BFA1
:1005700011F8012B28BF20F8023B48BF00F8012BDF
:10058000704702F0FF0343EA032242EA024200F00E
:1005900002B84FF0000200B5134694469646203943
:1005A00022BFA0E80C50A0E80C50B1F12001BFF42C
:1005B000F7AF090728BFA0E80C5048BF0CC05DF892
:1005C00004EB890028BF40F8042B08BF704748BFE0
:1005D00020F8022B11F0804F18BF00F8012B704754
:1005E000704770477047754600F02CF8AE4605001E
:1005F0006946534620F00700854618B020B5FFF73E
:10060000BFFEBDE820404FF000064FF000074FF05E
:1006100000084FF0000BAC46ACE8C009ACE8C009DC
:10062000ACE8C009ACE8C00921F007018D4670476D
:1006300010B50446AFF300802046BDE81040FFF738
:100640008ABE0000004870471800002401491820A5
:10065000ABBEFEE72600020070470000000000006D
:10066000FFE7FEE700000000704700000000000008
:1006700081B0EFF3108072B60090FFE7FEE7000054
:1006800084B002900298406B009002980068D0F805
:1006900084004FF6FC718843009940EA810002997A
:1006A0000968C1F8840002980068D0F8840020F43A
:1006B0007F00029A1168926B40EA0240C1F8840000
:1006C0000298816B00980844009002980068D0F866
:1006D00088006FF38F00009940EA81000299096851
:1006E000C1F8880002980068D0F8880020F4FE0065
:1006F000029A1168D26B40EA0240C1F88800029861
:10070000C16B009800EB4100009002980068D0F89F
:10071000A0006FF38F00009940EA810002990968F8
:10072000C1F8A00002980068D0F8A00020F4FE00F4
:10073000029A1168126C40EA0240C1F8A0000299C6
:10074000086C496C009A00FB012000900298006838
:10075000D0F8B0006FF38F00009940EA8100029951
:100760000968C1F8B00002980068D0F8B00020F421
:10077000FE00029A1168926C40EA0240C1F8B00093
:100780000299886CC96C009A00FB012000900298C5
:100790000068D0F8AC006FF38F00009940EA810048
:1007A00002990968C1F8AC000299086D496D009A78
:1007B00000FB0120009002980068D0F8F0006FF371
:1007C0008F00009940EA810002990968C1F8F000A1
:1007D00002980068D0F8F00020F47C10029A1168AA
:1007E000926D40EA0240C1F8F0000298816D0098D5
:1007F00000EB4100009002980068D0F8C0006FF351
:100800008F00009940EA810002990968C1F8C00090
:1008100002980068D0F8C00020F47C10029A116899
:10082000D26D40EA0240C1F8C00002980068D0F8DA
:10083000C00020F07C50029A1168126E40EA0260FB
:10084000C1F8C00002994A6B4AF60040C4F20000A9
:1008500000EB8200C86602998A6BC86E00EB8200CA
:1008600008670299CA6B086F00EBC20048670299DB
:100870000A6C4B6C486F5A4300EB82008867029900
:100880008A6CCB6C886F5A4300EB8200C867029970
:100890000A6D4B6DC86F5A4300EB8200C1F88000AF
:1008A00002998A6DD1F8800000EBC200C1F8840083
:1008B0000299CA6D8B6ED1F884005A4300EB820016
:1008C000C1F8880002990A6E8B6ED1F888005A43ED
:1008D00000EB8200C1F890000298D0F890004DF231
:1008E000FD31C4F2000188420FD3FFE70299D1F82D
:1008F0009C0040F02000C1F89C000299032081F880
:10090000980001208DF80F0017E00298C06E01904A
:10091000FFE701980299D1F89010884208D2FFE7CA
:10092000019900200860FFE7019804300190F0E78A
:10093000FFE700208DF80F00FFE79DF80F0004B0DF
:10094000704700000000000080B58AB0089001F0F8
:10095000BFFC0490089828B9FFE701208DF8270014
:1009600000F0AABC089890F8350002280ED0FFE7E6
:10097000089980204865FFE70899002081F8340035
:10098000FFE701208DF8270000F096BC0898016869
:1009900001201022C4F202029142039000F0A380D1
:1009A000FFE70898016801202822C4F20202914260
:1009B000039000F09880FFE708980168012040222A
:1009C000C4F202029142039000F08D80FFE7089884
:1009D000016801205822C4F202029142039000F003
:1009E0008280FFE70898016801207022C4F20202A9
:1009F0009142039077D0FFE7089801680120882290
:100A0000C4F20202914203906DD0FFE7089801689A
:100A10000120A022C4F202029142039063D0FFE7BA
:100A2000089801680120B822C4F2020291420390A2
:100A300059D0FFE708980168012040F21042C4F243
:100A40000202914203904ED0FFE70898016801200E
:100A500040F22842C4F202029142039043D0FFE7E1
:100A600008980168012040F24042C4F2020291421B
:100A7000039038D0FFE708980168012040F25842FF
:100A8000C4F20202914203902DD0FFE7089801685A
:100A9000012040F27042C4F202029142039022D03F
:100AA000FFE708980168012040F28842C4F2020280
:100AB0009142039017D0FFE708980168012040F2A7
:100AC000A042C4F20202914203900CD0FFE70898C2
:100AD00000684FF64831CBF6FD710844B0FA80F05B
:100AE00040090390FFE70398C00780B1FFE708982B
:100AF0000168086820F01E000860089801684869CD
:100B000020F08000486108980068059009E0089886
:100B10000168086820F00E000860089800680590D9
:100B2000FFE70898016801201022C4F202029142F6
:100B3000029000F00381FFE7089801680120282255
:100B4000C4F202029142029000F0F880FFE7089898
:100B5000016801204022C4F202029142029000F09A
:100B6000ED80FFE70898016801205822C4F20202D4
:100B70009142029000F0E280FFE7089801680120AE
:100B80007022C4F202029142029000F0D780FFE787
:100B90000898016801208822C4F202029142029062
:100BA00000F0CC80FFE7089801680120A022C4F281
:100BB00002029142029000F0C180FFE708980168AC
:100BC0000120B822C4F202029142029000F0B680E5
:100BD000FFE708980168012040F21042C4F20202C7
:100BE0009142029000F0AA80FFE708980168012076
:100BF00040F22842C4F202029142029000F09E802C
:100C0000FFE708980168012040F24042C4F2020266
:100C10009142029000F09280FFE70898016801205D
:100C200040F25842C4F202029142029000F08680E3
:100C3000FFE708980168012040F27042C4F2020206
:100C4000914202907AD0FFE708980168012040F2B3
:100C50008842C4F20202914202906FD0FFE70898E6
:100C60000168012040F2A042C4F2020291420290C7
:100C700064D0FFE708980168012040F2B842C4F24E
:100C800002029142029059D0FFE7089801680120C2
:100C900045F20842C5F60202914202904ED0FFE7AB
:100CA00008980168012045F21C42C5F602029142F3
:100CB000029043D0FFE708980168012045F23042D6
:100CC000C5F602029142029038D0FFE70898016809
:100CD000012045F24442C5F60202914202902DD015
:100CE000FFE708980168012045F25842C5F6020264
:100CF0009142029022D0FFE708980168012045F256
:100D00006C42C5F602029142029017D0FFE70898A4
:100D10000168012045F28042C5F60202914202902C
:100D20000CD0FFE7089800684AF66C31CAF2FD71F2
:100D30000844B0FA80F040090290FFE70298C0072B
:100D400038B1FFE70898016E086820F480700860E9
:100D5000FFE7089800681021C4F20201884200F001
:100D60008180FFE7089800682821C4F202018842C8
:100D700078D0FFE7089800684021C4F20201884259
:100D800070D0FFE7089800685821C4F20201884239
:100D900068D0FFE7089800687021C4F20201884219
:100DA00060D0FFE7089800688821C4F202018842F9
:100DB00058D0FFE708980068A021C4F202018842D9
:100DC00050D0FFE708980068B821C4F202018842B9
:100DD00048D0FFE70898006840F21041C4F20201D1
:100DE00088423FD0FFE70898006840F22841C4F2EB
:100DF0000201884236D0FFE70898006840F240417F
:100E0000C4F2020188422DD0FFE70898006840F242
:100E10005841C4F20201884224D0FFE708980068D4
:100E200040F27041C4F2020188421BD0FFE70898EB
:100E3000006840F28841C4F20201884212D0FFE704
:100E40000898006840F2A041C4F20201884209D02B
:100E5000FFE70898006840F2B841C4F202018842F6
:100E600007D1FFE708980168086820F001000860D2
:100E700006E008980168086820F001000860FFE7B4
:100E8000FFE705980068C007C8B1FFE701F020FA46
:100E90000499401A062811D3FFE7089920204865D5
:100EA0000899032081F83500FFE70899002081F8B0
:100EB0003400FFE701208DF82700FDE1E1E7089805
:100EC000016801201022C4F202029142019000F058
:100ED000A380FFE70898016801202822C4F20202DB
:100EE0009142019000F09880FFE708980168012086
:100EF0004022C4F202029142019000F08D80FFE78F
:100F00000898016801205822C4F20202914201901F
:100F100000F08280FFE70898016801207022C4F287
:100F200002029142019077D0FFE708980168012002
:100F30008822C4F20202914201906DD0FFE7089826
:100F400001680120A022C4F202029142019063D004
:100F5000FFE7089801680120B822C4F2020291421A
:100F6000019059D0FFE708980168012040F2104233
:100F7000C4F20202914201904ED0FFE70898016846
:100F8000012040F22842C4F202029142019043D073
:100F9000FFE708980168012040F24042C4F20202D3
:100FA0009142019038D0FFE708980168012040F293
:100FB0005842C4F20202914201902DD0FFE70898F6
:100FC0000168012040F27042C4F202029142019095
:100FD00022D0FFE708980168012040F28842C4F25D
:100FE00002029142019017D0FFE7089801680120A2
:100FF00040F2A042C4F20202914201900CD0FFE7FD
:10100000089800684FF64831CBF6FD710844B0FAF5
:1010100080F040090190FFE70198C00760B1FFE749
:101020000898806D07900898C06D00F01F013F2060
:101030008840079988600BE00898806D06900898B2
:10104000C06D00F01F010120884006994860FFE74D
:101050000898016801201022C4F202029142009017
:1010600000F00381FFE70898016801202822C4F2FC
:1010700002029142009000F0F880FFE708980168B2
:1010800001204022C4F202029142009000F0ED8063
:10109000FFE70898016801205822C4F20202914239
:1010A000009000F0E280FFE70898016801207022BC
:1010B000C4F202029142009000F0D780FFE7089846
:1010C000016801208822C4F202029142009000F0DF
:1010D000CC80FFE7089801680120A022C4F2020238
:1010E0009142009000F0C180FFE70898016801205C
:1010F000B822C4F202029142009000F0B680FFE7ED
:1011000008980168012040F21042C4F202029142A4
:10111000009000F0AA80FFE708980168012040F2E3
:101120002842C4F202029142009000F09E80FFE744
:1011300008980168012040F24042C4F20202914244
:10114000009000F09280FFE708980168012040F2CB
:101150005842C4F202029142009000F08680FFE7FC
:1011600008980168012040F27042C4F202029142E4
:1011700000907AD0FFE708980168012040F2884289
:10118000C4F20202914200906FD0FFE70898016814
:10119000012040F2A042C4F202029142009064D0C9
:1011A000FFE708980168012040F2B842C4F2020249
:1011B0009142009059D0FFE708980168012045F25C
:1011C0000842C5F60202914200904ED0FFE708980F
:1011D0000168012045F21C42C5F6020291420090CE
:1011E00043D0FFE708980168012045F23042C5F678
:1011F00002029142009038D0FFE708980168012070
:1012000045F24442C5F60202914200902DD0FFE71C
:1012100008980168012045F25842C5F60202914241
:10122000009022D0FFE708980168012045F26C4247
:10123000C5F602029142009017D0FFE708980168B6
:10124000012045F28042C5F60202914200900CD086
:10125000FFE7089800684AF66C31CAF2FD7108444D
:10126000B0FA80F040090090FFE70098C007A0B1F5
:10127000FFE70898416E806E48600898C06E58B1CC
:10128000FFE70898C16E086820F48070086008982D
:10129000016F406F4860FFE7FFE70899012081F880
:1012A0003500FFE70899002081F83400FFE7FFE7E9
:1012B00000208DF82700FFE79DF827000AB080BDC9
:1012C00080B586B00490049820B9FFE701208DF81E
:1012D000170046E3049890F83500022807D0FFE78E
:1012E00004998020486501208DF8170039E304989F
:1012F000016801201022C4F202029142029000F023
:10130000A380FFE70498016801202822C4F20202AA
:101310009142029000F09880FFE704980168012054
:101320004022C4F202029142029000F08D80FFE759
:101330000498016801205822C4F2020291420290EE
:1013400000F08280FFE70498016801207022C4F257
:1013500002029142029077D0FFE7049801680120D1
:101360008822C4F20202914202906DD0FFE70498F5
:1013700001680120A022C4F202029142029063D0CF
:10138000FFE7049801680120B822C4F202029142EA
:10139000029059D0FFE704980168012040F2104202
:1013A000C4F20202914202904ED0FFE70498016815
:1013B000012040F22842C4F202029142029043D03E
:1013C000FFE704980168012040F24042C4F20202A3
:1013D0009142029038D0FFE704980168012040F262
:1013E0005842C4F20202914202902DD0FFE70498C5
:1013F0000168012040F27042C4F202029142029060
:1014000022D0FFE704980168012040F28842C4F22C
:1014100002029142029017D0FFE704980168012070
:1014200040F2A042C4F20202914202900CD0FFE7C7
:10143000049800684FF64831CBF6FD710844B0FAC5
:1014400080F040090290FFE70298C007002800F0F2
:101450009D80FFE70499042081F835000498006816
:101460001021C4F20201884200F08180FFE7049855
:1014700000682821C4F20201884278D0FFE704986E
:1014800000684021C4F20201884270D0FFE704984E
:1014900000685821C4F20201884268D0FFE704982E
:1014A00000687021C4F20201884260D0FFE704980E
:1014B00000688821C4F20201884258D0FFE70498EE
:1014C0000068A021C4F20201884250D0FFE70498CE
:1014D0000068B821C4F20201884248D0FFE70498AE
:1014E000006840F21041C4F2020188423FD0FFE799
:1014F0000498006840F22841C4F20201884236D0C4
:10150000FFE70498006840F24041C4F202018842BB
:101510002DD0FFE70498006840F25841C4F2020160
:10152000884224D0FFE70498006840F27041C4F27A
:10153000020188421BD0FFE70498006840F288410E
:10154000C4F20201884212D0FFE70498006840F21A
:10155000A041C4F20201884209D0FFE70498006864
:1015600040F2B841C4F20201884207D1FFE7049873
:101570000168086820F00100086006E0049801682E
:10158000086820F001000860FFE7E5E104980168C1
:10159000086820F00E000860049800681021C4F26A
:1015A0000201884200F08180FFE70498006828214A
:1015B000C4F20201884278D0FFE704980068402115
:1015C000C4F20201884270D0FFE7049800685821F5
:1015D000C4F20201884268D0FFE7049800687021D5
:1015E000C4F20201884260D0FFE7049800688821B5
:1015F000C4F20201884258D0FFE704980068A02195
:10160000C4F20201884250D0FFE704980068B82174
:10161000C4F20201884248D0FFE70498006840F213
:101620001041C4F2020188423FD0FFE704980068ED
:1016300040F22841C4F20201884236D0FFE7049804
:10164000006840F24041C4F2020188422DD0FFE719
:101650000498006840F25841C4F20201884224D044
:10166000FFE70498006840F27041C4F2020188422A
:101670001BD0FFE70498006840F28841C4F20201E1
:10168000884212D0FFE70498006840F2A041C4F2FB
:101690000201884209D0FFE70498006840F2B8418F
:1016A000C4F20201884207D1FFE704980168086884
:1016B00020F00100086006E004980168086820F046
:1016C00001000860FFE70498016801201022C4F2BD
:1016D00002029142019000F00381FFE70498016843
:1016E00001202822C4F202029142019000F0F88009
:1016F000FFE70498016801204022C4F202029142EF
:10170000019000F0ED80FFE7049801680120582265
:10171000C4F202029142019000F0E280FFE70498D7
:10172000016801207022C4F202029142019000F08F
:10173000D780FFE70498016801208822C4F20202E2
:101740009142019000F0CC80FFE7049801680120ED
:10175000A022C4F202029142019000F0C180FFE792
:10176000049801680120B822C4F20202914201905B
:1017700000F0B680FFE704980168012040F21042B3
:10178000C4F202029142019000F0AA80FFE704989F
:101790000168012040F22842C4F202029142019005
:1017A00000F09E80FFE704980168012040F240426B
:1017B000C4F202029142019000F09280FFE7049887
:1017C0000168012040F25842C4F2020291420190A5
:1017D00000F08680FFE704980168012040F2704223
:1017E000C4F20202914201907AD0FFE704980168A6
:1017F000012040F28842C4F20202914201906FD06F
:10180000FFE704980168012040F2A042C4F20202FE
:101810009142019064D0FFE704980168012040F2F2
:10182000B842C4F202029142019059D0FFE70498F5
:101830000168012045F20842C5F60202914201907A
:101840004ED0FFE704980168012045F21C42C5F61E
:1018500002029142019043D0FFE704980168012001
:1018600045F23042C5F602029142019038D0FFE7BE
:1018700004980168012045F24442C5F602029142F3
:1018800001902DD0FFE704980168012045F25842ED
:10189000C5F602029142019022D0FFE70498016848
:1018A000012045F26C42C5F602029142019017D028
:1018B000FFE704980168012045F28042C5F6020264
:1018C000914201900CD0FFE7049800684AF66C3111
:1018D000CAF2FD710844B0FA80F040090190FFE7B8
:1018E0000198C00728B3FFE70498016E086820F448
:1018F000807008600498806D03900498C06D00F0BB
:101900001F0101208840039948600498416E806E51
:1019100048600498C06E58B1FFE70498C16E08682B
:1019200020F4807008600498016F406F4860FFE702
:10193000FFE70499012081F83500FFE704990020B2
:1019400081F83400FFE70498006D20B1FFE70498A8
:10195000016D8847FFE7FFE7FFE700208DF81700DC
:10196000FFE79DF8170006B080BD000000000000F2
:1019700080B584B0039000F0ABFC02900398019016
:101980000198013048B1FFE740F20800C2F2004080
:101990000178019808440190FFE7FFE700F098FC08
:1019A0000299401A0199884201D2FFE7F6E704B094
:1019B00080BD00000000000080B598B016904EF287
:1019C000EC31C0F6000101A84C22FEF7A8FD1698E4
:1019D00020B9FFE701208DF85F00D9E11698006873
:1019E0004AF20001C4F20001884206D1FFE71699CD
:1019F000086800F580704860FFE716988068B0F5C9
:101A0000407F01D1FFE7FFE71698006C08B1FFE7C0
:101A1000FFE71698806C08B1FFE7FFE71698006DA6
:101A200008B1FFE7FFE71698006E08B1FFE7FFE790
:101A30001699C86D096E084408B1FFE7FFE71698CC
:101A400090F8980040B9FFE71699002081F89900B6
:101A5000169800F0A1F9FFE716980168886920F050
:101A60001000886100F034FC1590FFE716980068BC
:101A700080690007002817D5FFE700F029FC1599B9
:101A8000401A0B280FD3FFE71699D1F89C0040F0BD
:101A90000100C1F89C001699032081F898000120EC
:101AA0008DF85F0074E1E1E716980168886940F0FD
:101AB0000100886100F00CFC1590FFE716980068A3
:101AC0008069C007B8B9FFE700F002FC1599401A19
:101AD0000B280FD3FFE71699D1F89C0040F00100C6
:101AE000C1F89C001699032081F8980001208DF818
:101AF0005F004DE1E2E716980168886940F0020056
:101B000088611698007C012807D1FFE716980168C4
:101B1000886920F04000886106E0169801688869AD
:101B200040F040008861FFE71698407C012807D10B
:101B3000FFE716980168886940F48040886106E0F4
:101B400016980168886920F480408861FFE716983C
:101B5000807C012807D1FFE716980168886920F486
:101B60008050886106E016980168886940F48050CA
:101B70008861FFE716980068806920F44070169A23
:101B8000116892681043886116980168886920F08E
:101B9000A400886116980168086920F010000861A7
:101BA0001698C068012807D1FFE716980168886970
:101BB00040F0040088612BE01698C06830B3FFE75E
:101BC0001698C068022819D0FFE71698016888693E
:101BD00040F08000886116980168086940F01000A4
:101BE00008611698C068032807D1FFE716980168B6
:101BF000886940F020008861FFE706E016980168D8
:101C0000886940F020008861FFE700E0FFE7FFE718
:101C1000169A116853699069D2F81CE0A0F1010C82
:101C20006FF0FF0000EB0E2040EA4C60126A013AB0
:101C300010430022CFF6FF7202EB03421043C8614B
:101C400016988068B0F5407F1CD1FFE7169A11689E
:101C5000536A906AD2F82CE001386FF0FF0C0CEB5D
:101C60000E2C40EA0C00D2F830C06FF00F0202EBED
:101C70000C1210430022CFF6FF7202EB0342104316
:101C8000C860FFE71698006E48B1FFE71698016834
:101C9000426ED1F8C0001043C1F8C000FFE71699AA
:101CA000C86D096E084480B1FFE716980068D0F847
:101CB000C80020F00700169A1168936E01AA52F826
:101CC00023201043C1F8C800FFE71698006C80B1CC
:101CD000FFE716980068D0F8BC0020F00700169ABD
:101CE0001168536C01AA52F823201043C1F8BC00BC
:101CF000FFE71698806C88B1FFE716980068D0F867
:101D0000BC0020F07000169A1168D36C01AA52F83A
:101D1000232040EA0210C1F8BC00FFE71698006DCE
:101D200088B1FFE716980068D0F8BC0020F4E060A6
:101D3000169A1168536D01AA52F8232040EA022036
:101D4000C1F8BC00FFE7169800684AF20001C4F22F
:101D50000001884207D1FFE716984168886820F0A3
:101D600003008860FFE716990020C1F894001699D7
:101D7000C1F89C001699012081F898001698FEF78A
:101D80007FFC8DF853009DF853008DF85F00FFE74E
:101D90009DF85F0018B080BD80B58AB00990002022
:101DA00008900790069005900490099800684AF200
:101DB0000001C4F2000188423CD1FFE740F2780004
:101DC000C2F200400168013101600068012810D1B1
:101DD000FFE7FFE744F2EC40C5F60200016841F47A
:101DE00080710160006800F4807003900398FFE741
:101DF000FFE7FFE744F2E040C5F60200016841F06A
:101E000080010160006800F0800002900298FFE706
:101E10004FF4C040049002200590002006900790E7
:101E20000920089041F60040C5F6020004A900F020
:101E30004BF845E0099800684AF20041C4F20001FD
:101E400088423CD1FFE740F27800C2F200400168CE
:101E5000013101600068012810D1FFE7FFE744F27B
:101E6000EC40C5F60200016841F480710160006831
:101E700000F4807001900198FFE7FFE7FFE744F26C
:101E8000E040C5F60200016841F00201016000680F
:101E900000F0020000900098FFE74FF440500490DB
:101EA000022005900020069007900920089040F23B
:101EB0000040C5F6020004A900F006F8FFE7FFE7BE
:101EC0000AB080BD0000000090B00F900E9100207D
:101ED0000D908020C5F600000A90FFE70E9800687C
:101EE0000D99C840002800F0CF81FFE70E980068E8
:101EF0000D9A0121914008400C900C98002800F0A8
:101F0000BF81FFE70E98406800F00300012807D06A
:101F1000FFE70E98406800F0030002282FD1FFE78A
:101F20000F9880680B900D984100032000FA01F192
:101F30000B9888430B900E98C0680D99490000FAE1
:101F400001F10B9808430B900B980F9988600F983C
:101F500040680B900D99012000FA01F10B9888431D
:101F60000B900E984068C0F300100D9900FA01F133
:101F70000B9808430B900B980F994860FFE70E9859
:101F8000406800F00300032818D0FFE70F98C068EE
:101F90000B900D984100032000FA01F10B98884343
:101FA0000B900E9880680D99490000FA01F10B988A
:101FB00008430B900B980F99C860FFE70E98406894
:101FC00000F00300022826D1FFE70F980D996FF06B
:101FD000030202EA51010844006A0B900D9800F0D8
:101FE000070081000F2000FA01F10B9888430B9045
:101FF0000E9800690D9901F00701890000FA01F1BE
:102000000B9808430B900B980F990D9B02EA530213
:1020100011440862FFE70F9800680B900D9841008B
:10202000032000FA01F10B9888430B900E9840684A
:1020300000F003000D99490000FA01F10B980843E4
:102040000B900B980F9908600E98807980070028F4
:1020500000F01581FFE7FFE744F2F440C5F6020007
:10206000016841F002010160006800F0020009907F
:102070000998FFE70D9820F0030040F20841C5F6EB
:10208000000140580B900D9800F0030081000F20D4
:1020900000FA01F10B9888430B900F980021C5F6C8
:1020A0000201884203D1FFE7002008907AE00F98F0
:1020B00040F20041C5F60201884203D1FFE701204A
:1020C00007906CE00F9840F60001C5F602018842C7
:1020D00003D1FFE7022006905EE00F9840F6004132
:1020E000C5F60201884203D1FFE70320059050E0C6
:1020F0000F9841F20001C5F60201884203D1FFE7C3
:102100000420049042E00F9841F20041C5F602011C
:10211000884203D1FFE70520039034E00F9841F691
:102120000001C5F60201884203D1FFE706200290B4
:1021300026E00F9841F60041C5F60201884203D11E
:10214000FFE70720019018E00F9842F20001C5F662
:102150000201884203D1FFE7082000900AE00F99AE
:1021600042F20042C5F602020A20914208BF09204D
:102170000090FFE700980190FFE701980290FFE7C9
:1021800002980390FFE703980490FFE704980590F6
:10219000FFE705980690FFE706980790FFE7079886
:1021A0000890FFE708980D9901F00301890000FAF3
:1021B00001F10B9808430B900B980D9921F0030146
:1021C00040F20842C5F6000288504FF0B040006867
:1021D0000B900C990B9888430B900E988079C00651
:1021E000002805D5FFE70C990B9808430B90FFE7F3
:1021F0000B984FF0B04108600420C5F6000000685D
:102200000B900C990B9888430B900E988079800660
:10221000002805D5FFE70C990B9808430B90FFE7C2
:102220000B980421C5F6000108600A9840680B90DD
:102230000C990B9888430B900E98807980070028A2
:1022400005D5FFE70C990B9808430B90FFE70B9817
:102250000A9948600A9800680B900C990B9888437B
:102260000B900E988079C00728B1FFE70C990B9866
:1022700008430B90FFE70B980A990860FFE7FFE718
:102280000D9801300D9029E610B070470000000055
:1022900082B00190ADF802108DF801209DF8010088
:1022A00028B1FFE7BDF802000199886105E0BDF89B
:1022B0000200000401998861FFE702B07047000046
:1022C00041F20000C5F600400068000C70470000B5
:1022D00044F6C850C2F20040006870470000000099
:1022E00083B001900091019890F8410020283BD1E3
:1022F000FFE7FFE7019890F84000012804D1FFE7CD
:1023000002208DF80B0033E00199012081F8400094
:10231000FFE7FFE70199242081F841000198016857
:10232000086820F00100086001980168086820F43E
:1023300080500860009A019801680868104308609E
:1023400001980168086840F00100086001992020A8
:1023500081F84100FFE70199002081F84000FFE784
:1023600000208DF80B0003E002208DF80B00FFE742
:102370009DF80B0003B0704784B002900191029861
:1023800090F84100202840D1FFE7FFE7029890F83D
:102390004000012804D1FFE702208DF80F0038E04B
:1023A0000299012081F84000FFE7FFE7029924200D
:1023B00081F8410002980168086820F00100086077
:1023C0000298006800680090009820F47060009007
:1023D0000199009840EA012000900098029909684C
:1023E000086002980168086840F0010008600299DE
:1023F000202081F84100FFE70299002081F8400089
:10240000FFE700208DF80F0003E002208DF80F0099
:10241000FFE79DF80F0004B07047000000000000C7
:1024200080B582B00090009820B9FFE701208DF8B8
:1024300007007BE0009890F8410040B9FFE7009961
:10244000002081F84000009800F076F8FFE700993E
:10245000242081F8410000980168086820F00100FC
:10246000086000980168406820F07060086100987A
:102470000168886820F4004088600098C0680128DE
:1024800007D1FFE700980168806840F40040886049
:1024900006E000980168806840F404408860FFE727
:1024A0000098C068022807D1FFE7009801684868D3
:1024B00040F40060486006E000980168486820F435
:1024C00000604860FFE700980168486848F2000231
:1024D000C0F200221043486000980168C86820F4E8
:1024E0000040C860009A11681069536992691843E6
:1024F00040EA0220C860009A1168D069126A10434D
:10250000086000980168086840F0010008600099C0
:1025100000204864009A202182F841100099086345
:10252000009981F842008DF80700FFE79DF8070049
:1025300002B080BD0000000080B5BCB03B90002020
:102540003A90399038903790369006A8C021FEF71F
:1025500020F83B98006845F20041C4F2000188422F
:102560003DD1FFE70020079008210691279006A89B
:1025700000F08EFE18B1FFE7FEF77AF8FFE7FFE7FD
:1025800044F2E040C5F60200016841F0020101603A
:10259000006800F0020005900598FFE74FF44070D6
:1025A00036901220379000203890399004203A90CD
:1025B00040F20040C5F6020036A9FFF785FCFFE7B0
:1025C00044F2E840C5F60200016841F400110160E0
:1025D000006800F4001004900498FFE78DE03B9839
:1025E000006845F60001C4F2000188423DD1FFE7D2
:1025F0000020079008210691279006A800F048FEC9
:1026000018B1FFE7FEF734F8FFE7FFE744F2E040D8
:10261000C5F60200016841F002010160006800F0A7
:10262000020003900398FFE74FF4406036901220B9
:10263000379000203890399004203A9040F20040C2
:10264000C5F6020036A9FFF73FFCFFE744F2E84079
:10265000C5F60200016841F480010160006800F4E1
:10266000800002900298FFE746E03B98006845F63C
:102670000041C4F2000188423DD1FFE700200790ED
:1026800008210691279006A800F002FE18B1FFE786
:10269000FDF7EEFFFFE7FFE744F2E040C5F602007A
:1026A000016841F080010160006800F08000019045
:1026B0000198FFE74FF4C070369012203790002049
:1026C0003890399004203A9041F60040C5F6020057
:1026D00036A9FFF7F9FBFFE744F2E840C5F6020030
:1026E000016841F400010160006800F400000090FE
:1026F0000098FFE7FFE7FFE7FFE73CB080BD000081
:1027000040F20800C2F20040027844F6C851C2F21A
:102710000041086810440860704700000000000095
:1027200080B582B0032000F0E7F802F0E5F844F24B
:102730001842C5F602021168C1F303234EF2384174
:10274000C0F60001CB5C03F01F03D8400090009856
:10275000126802F00F02895C01F01F01C84040F2CC
:102760000401C2F200410860009840F20001C2F288
:10277000004108600F2000F013F820B1FFE70120AE
:102780008DF8070005E000F077F800208DF80700CD
:10279000FFE79DF8070002B080BD000000000000C8
:1027A00080B590B00E900E980F2810D8FFE70E99C4
:1027B0001C200090002200F087F8009800F078F8C4
:1027C0000E9840F20C01C2F20041086003E00120C3
:1027D0008DF83F004CE0FFE744F2E840C5F6020008
:1027E000016841F001010160006800F00100019002
:1027F0000198FFE706A802A901F0E6FF0B980490F4
:10280000049820B9FFE702F04FF8059004E002F0C9
:102810004BF840000590FFE705984DF68361C4F240
:102820001B31A0FB01014FF0FF3000EB9140039002
:1028300040F69000C2F200404FF08041016040F24B
:10284000E731C1600399416000210161816003F0BB
:102850007FFA48B9FFE740F69000C2F2004003F06B
:102860000FFB8DF83F0003E001208DF83F00FFE7EC
:102870009DF83F0010B080BD80B582B0FFE744F204
:10288000F440C5F60200016841F0020101600068F1
:1028900000F0020001900198FFE76FF001000F21A6
:1028A000002200F011F802B080BD0000000000001E
:1028B00080B582B0ADF80600BDF9060008F060FEF4
:1028C00002B080BD0000000080B586B0ADF81600F3
:1028D0000491039208F06CFE0290BDF9160001907D
:1028E00002980499039A05F09FFB0146019808F0AD
:1028F00067FE06B080BD000080B582B001900198EF
:1029000008F0A6FE02B080BD82B001900198006878
:10291000009001990120C1F8D8040199002081F8A4
:10292000CC04009A916941F000619161009A516D67
:102930000323C1F200031943516502B07047000040
:1029400080B58CB00A900A9820B9FFE701208DF875
:102950002F000EE10A9890F8950440B9FFE70A9914
:10296000002081F894040A9800F00AF9FFE70A9918
:10297000032081F895040A98006808F0E9FC0A9B96
:102980001868197C8DF8201059689A68DB680793DD
:10299000069205910599069A079BDDF820C0EE4640
:1029A000CEF800C008F0C0FA40B1FFE70A99022053
:1029B00081F8950401208DF82F00DAE00A9800686C
:1029C000002108F055FD40B1FFE70A99022081F887
:1029D000950401208DF82F00CBE000208DF8270012
:1029E000FFE79DF827000A990979884241DAFFE755
:1029F0000A989DF8271001EBC10100EB810101202D
:102A000048759DF827000A9900EBC00201EB82018E
:102A100008759DF827000A9900EBC00201EB8201BE
:102A2000C8850A989DF8271001EBC10100EB8101D0
:102A3000002008760A999DF8272002EBC20201EBDC
:102A40008201C8610A999DF8272002EBC20201EBBE
:102A5000820108620A999DF8272002EBC20201EB6D
:102A600082014862FFE79DF8270001308DF82700BA
:102A7000B7E700208DF82700FFE79DF827000A99A7
:102A8000097988423EDAFFE70A989DF8271001EBA2
:102A9000C10100EB8101002081F855029DF827104B
:102AA0000A9A01EBC10302EB830282F854120A99DD
:102AB0009DF8272002EBC20201EB820181F8580247
:102AC0000A999DF8272002EBC20201EB8201C1F8AE
:102AD0005C020A999DF8272002EBC20201EB8201F9
:102AE000C1F860020A999DF8272002EBC20201EBAF
:102AF0008201C1F86402FFE79DF8270001308DF8DC
:102B00002700BAE70A9B1868197C8DF810105968DD
:102B10009A68DB680393029201910199029A039BE0
:102B2000DDF810C0EE46CEF800C008F0C9FA40B19A
:102B3000FFE70A99022081F8950401208DF82F0003
:102B400017E00A99002048740A99012081F8950439
:102B50000A98007B012804D1FFE70A98FFF7D4FE0A
:102B6000FFE70A98006808F093FA00208DF82F001C
:102B7000FFE79DF82F000CB080BD000000000000B2
:102B800080B5B8B0379000203690359034903390AF
:102B9000329002A8C021FDF7FCFC379800680021A4
:102BA000C4F2080188424CD1FFE7002003904FF4A3
:102BB000802102910F210C91B4210D9102210E91DF
:102BC00005220F921091119013904FF40010249051
:102BD00002A800F05DFB18B1FFE7FDF749FDFFE734
:102BE00000F086F8FFE744F2E040C5F60200016815
:102BF00041F001010160006800F0010001900198BE
:102C0000FFE74FF4C0503290022033900020349000
:102C100035900A2036900020C5F6020032A9FFF751
:102C200053F9FFE744F2D840C5F60200016841F0CD
:102C300000610160006800F0006000900098FFE70C
:102C4000FFE738B080BD000080B584B0029044F644
:102C50000C00C5F60200006800F004010020B0EB93
:102C6000910F13D1FFE744F60C00C5F6020000688F
:102C700000F007000299884204D0FFE701208DF898
:102C80000F002EE000208DF80F002AE044F60C0122
:102C9000C5F60201086820F00700029A1043086098
:102CA000FFF716FB0190FFE744F60400C5F60200AB
:102CB000006800F400510020B0EB513F0DD1FFE758
:102CC000FFF706FB0199401AB0F57A7F04D9FFE7B8
:102CD00001208DF80F0004E0E6E700208DF80F00DA
:102CE000FFE79DF80F0004B080BD00000000000069
:102CF00044F60C01C5F60201086840F080700860D7
:102D0000704700000000000080B501F0A1FD44F212
:102D10002041C5F602010968C1F302124EF23841A2
:102D2000C0F60001895C01F01F01C84080BD0000B1
:102D300088B0079044F22840C5F60200016801F00F
:102D4000030106910068C0F30530059044F22C4061
:102D5000C5F602000068C0F300100490049844F225
:102D60003C41C5F60201096889B2C908484300EE32
:102D7000100AB8EE400A8DED020A0598002800F00E
:102D80001B81FFE70698009048B1FFE700980128F3
:102D900069D0FFE70098022800F08980ABE044F298
:102DA0000040C5F60200006800F020010020B0EBF2
:102DB000511F33D0FFE744F20040C5F6020000681F
:102DC000C0F3C10149F20000C0F2D030C840039006
:102DD0009DED030AB8EE400A9DED051AB8EE411AC2
:102DE00080EE010A44F23840C5F6020000686FF335
:102DF0005F2001EE100AB8EE411A9DED022A9FED08
:102E0000743A82EE032A31EE021AB7EE002A31EE4E
:102E1000021A20EE010A8DED010A23E09DED050A5C
:102E2000B8EE401A9FED6C0A80EE010A44F2384079
:102E3000C5F6020000686FF35F2001EE100AB8EEDD
:102E4000411A9DED022A9FED623A82EE032A31EE8D
:102E5000021AB7EE002A31EE021A20EE010A8DEDB9
:102E6000010AFFE76BE09DED050AB8EE401A9FED01
:102E7000590A80EE010A44F23840C5F602000068A3
:102E80006FF35F2001EE100AB8EE411A9DED022AA1
:102E90009FED4F3A82EE032A31EE021AB7EE002A76
:102EA00031EE021A20EE010A8DED010A47E09DED98
:102EB000050AB8EE401A9FED450A80EE010A44F279
:102EC0003840C5F6020000686FF35F2001EE100A7B
:102ED000B8EE411A9DED022A9FED3D3A82EE032A9B
:102EE00031EE021AB7EE002A31EE021A20EE010A84
:102EF0008DED010A23E09DED050AB8EE401A9FED25
:102F0000350A80EE010A44F23840C5F60200006836
:102F10006FF35F2001EE100AB8EE411A9DED022A10
:102F20009FED2B3A82EE032A31EE021AB7EE002A09
:102F300031EE021A20EE010A8DED010AFFE79DED48
:102F4000010A44F23840C5F60200016889B2490A14
:102F500001EE101AB8EE411AB7EE002A31EE021A4D
:102F600080EE010A0799BCEEC00A81ED000A9DEDD2
:102F7000010A0168C1F3064101EE101AB8EE411AC8
:102F800031EE021A80EE010A0799BCEEC00A81ED0B
:102F9000010A9DED010A0068C0F3066001EE100A07
:102FA000B8EE411A31EE021A80EE010A0798BCEE23
:102FB000C00A80ED020A07E007990020086007991F
:102FC000486007998860FFE708B0704720BCBE4B97
:102FD000000000460024744A0024744C00000000E5
:102FE00088B0079044F22840C5F60200016801F05D
:102FF000030106910068C0F30550059044F22C408F
:10300000C5F602000068C0F300200490049844F262
:103010004441C5F60201096889B2C908484300EE77
:10302000100AB8EE400A8DED020A0598002800F05B
:103030001B81FFE70698009048B1FFE70098012840
:1030400069D0FFE70098022800F08980ABE044F2E5
:103050000040C5F60200006800F020010020B0EB3F
:10306000511F33D0FFE744F20040C5F6020000686C
:10307000C0F3C10149F20000C0F2D030C840039053
:103080009DED030AB8EE400A9DED051AB8EE411A0F
:1030900080EE010A44F24040C5F6020000686FF37A
:1030A0005F2001EE100AB8EE411A9DED022A9FED55
:1030B000743A82EE032A31EE021AB7EE002A31EE9C
:1030C000021A20EE010A8DED010A23E09DED050AAA
:1030D000B8EE401A9FED6C0A80EE010A44F24040BF
:1030E000C5F6020000686FF35F2001EE100AB8EE2B
:1030F000411A9DED022A9FED623A82EE032A31EEDB
:10310000021AB7EE002A31EE021A20EE010A8DED06
:10311000010AFFE76BE09DED050AB8EE401A9FED4E
:10312000590A80EE010A44F24040C5F602000068E8
:103130006FF35F2001EE100AB8EE411A9DED022AEE
:103140009FED4F3A82EE032A31EE021AB7EE002AC3
:1031500031EE021A20EE010A8DED010A47E09DEDE5
:10316000050AB8EE401A9FED450A80EE010A44F2C6
:103170004040C5F6020000686FF35F2001EE100AC0
:10318000B8EE411A9DED022A9FED3D3A82EE032AE8
:1031900031EE021AB7EE002A31EE021A20EE010AD1
:1031A0008DED010A23E09DED050AB8EE401A9FED72
:1031B000350A80EE010A44F24040C5F6020000687C
:1031C0006FF35F2001EE100AB8EE411A9DED022A5E
:1031D0009FED2B3A82EE032A31EE021AB7EE002A57
:1031E00031EE021A20EE010A8DED010AFFE79DED96
:1031F000010A44F24040C5F60200016889B2490A5A
:1032000001EE101AB8EE411AB7EE002A31EE021A9A
:1032100080EE010A0799BCEEC00A81ED000A9DED1F
:10322000010A0168C1F3064101EE101AB8EE411A15
:1032300031EE021A80EE010A0799BCEEC00A81ED58
:10324000010A9DED010A0068C0F3066001EE100A54
:10325000B8EE411A31EE021A80EE010A0798BCEE70
:10326000C00A80ED020A07E007990020086007996C
:10327000486007998860FFE708B0704720BCBE4BE4
:10328000000000460024744A0024744C0000000032
:1032900080B59AB0189000208DF857008DF8560030
:1032A0001898C0780007002848D5FFE71898806E66
:1032B000149078B1FFE71498B0F5801F13D0FFE7A2
:1032C0001498B0F5001F16D0FFE71498B0F5401F12
:1032D00019D019E044F22C41C5F60201086840F407
:1032E0000030086014E018980830022104F034FF20
:1032F0008DF857000CE018982830022105F014F8DA
:103300008DF8570004E003E001208DF85700FFE737
:103310009DF8570060B9FFE744F25041C5F602013D
:10332000086820F44010189A926E1043086004E078
:103330009DF857008DF85600FFE7FFE71898407892
:10334000C007002840D0FFE71898806D139004282C
:1033500020D81399DFE801F0030C141C1D0044F27F
:103360002C41C5F60201086840F40030086015E001
:1033700018980830002104F0EFFE8DF857000DE09A
:1033800018982830002104F0CFFF8DF8570005E091
:1033900004E003E001208DF85700FFE79DF8570097
:1033A00060B9FFE744F25041C5F60201086820F019
:1033B0000700189A926D1043086004E09DF85700CA
:1033C0008DF85600FFE7FFE718984078800700283F
:1033D0004BD5FFE71898C06D129088B1FFE712989F
:1033E000402816D0FFE7129880281AD0FFE71298DD
:1033F000C0281ED0FFE71298B0F5807F1AD01AE0DF
:1034000044F22C41C5F60201086840F4003008601F
:1034100015E018980830002104F09EFE8DF8570042
:103420000DE018982830002104F07EFF8DF8570039
:1034300005E004E003E001208DF85700FFE79DF868
:10344000570060B9FFE744F25041C5F60201086831
:1034500020F4E070189AD26D1043086004E09DF8E3
:1034600057008DF85600FFE7FFE7189840784007AF
:10347000002850D5FFE71898D0F8A8001190A0B107
:10348000FFE71198B0F5001F18D0FFE71198B0F5CD
:10349000800F1BD0FFE71198B0F5C00F1ED0FFE7DB
:1034A0001198B0F5000F1AD01AE044F22C41C5F67D
:1034B0000201086840F40030086015E018980830F0
:1034C000002104F049FE8DF857000DE018982830CF
:1034D000002104F029FF8DF8570005E004E003E027
:1034E00001208DF85700FFE79DF8570068B9FFE706
:1034F00044F25841C5F60201086820F46000189AA9
:10350000D2F8A8201043086004E09DF857008DF819
:103510005600FFE7FFE7189840780007002850D5CD
:10352000FFE71898D0F8AC001090A0B1FFE7109812
:10353000B0F1807F18D0FFE71098B0F1007F1BD06A
:10354000FFE71098B0F1407F1ED0FFE71098B0F170
:10355000806F1AD01AE044F22C41C5F602010868C7
:1035600040F40030086015E018980830002104F09D
:10357000F3FD8DF857000DE018982830002104F075
:10358000D3FE8DF8570005E004E003E001208DF83C
:103590005700FFE79DF8570068B9FFE744F258412C
:1035A000C5F60201086820F0E060189AD2F8AC2055
:1035B0001043086004E09DF857008DF85600FFE7BF
:1035C000FFE71898C078800700283ED5FFE71898D5
:1035D000C06C0F90F0B1FFE70F98102808D0FFE7FC
:1035E0000F9820280DD0FFE70F98302811D012E057
:1035F00044F22C41C5F60201086840F4003008602E
:103600000DE018980830022104F0A6FD8DF857004F
:1036100005E004E003E001208DF85700FFE79DF886
:10362000570060B9FFE744F24C41C5F60201086853
:1036300020F03000189AD26C1043086004E09DF826
:1036400057008DF85600FFE7FFE718984078C0064E
:1036500000284ED5FFE71898006E0E90A0B1FFE746
:103660000E98B0F5805F18D0FFE70E98B0F5005FB8
:103670001BD0FFE70E98B0F5405F1ED0FFE70E9815
:10368000B0F5804F1AD01AE044F22C41C5F6020181
:10369000086840F40030086015E0189808300021F0
:1036A00004F05AFD8DF857000DE0189828300021DD
:1036B00004F03AFE8DF8570005E004E003E0012035
:1036C0008DF85700FFE79DF8570060B9FFE744F217
:1036D0005041C5F60201086820F4E040189A126EC5
:1036E0001043086004E09DF857008DF85600FFE78E
:1036F000FFE718984078800600284CD5FFE7189817
:10370000406E0D90C8B1FFE70D98B0F5803F15D021
:10371000FFE70D98B0F5003F18D0FFE70D98B0F522
:10372000403F1BD0FFE70D98B0F5802F17D0FFE783
:103730000D98B0F5A02F13D013E016E018980830BC
:10374000012104F009FD8DF857000EE0189828308B
:10375000012104F0E9FD8DF8570006E005E004E0E2
:1037600003E001208DF85700FFE79DF8570060B98E
:10377000FFE744F25041C5F60201086820F4E0205A
:10378000189A526E1043086004E09DF857008DF8B7
:103790005600FFE7FFE718984078400600284ED50E
:1037A000FFE71898D0F8B0000C90C8B1FFE70C986C
:1037B000B0F1805F15D0FFE70C98B0F1005F18D032
:1037C000FFE70C98B0F1405F1BD0FFE70C98B0F119
:1037D000804F17D0FFE70C98B0F1A04F13D013E043
:1037E00016E018980830012104F0B6FC8DF8570057
:1037F0000EE018982830012104F096FD8DF857004E
:1038000006E005E004E003E001208DF85700FFE743
:103810009DF8570068B9FFE744F25841C5F6020128
:10382000086820F0E040189AD2F8B02010430860F1
:1038300004E09DF857008DF85600FFE7FFE7189861
:103840004078000600283BD5FFE71898006F0B90E2
:10385000D8B1FFE70B98B0F1805F05D0FFE70B9878
:10386000B0F1005F09D011E044F22C41C5F602012D
:10387000086840F4003008600CE018980830012116
:1038800004F06AFC8DF8570004E003E001208DF895
:103890005700FFE79DF8570060B9FFE744F2504139
:1038A000C5F60201086820F04050189A126F1043C4
:1038B000086004E09DF857008DF85600FFE7FFE729
:1038C0001898C078C007002837D0FFE71898806C98
:1038D0000A90032817D80A99DFE801F014020B13A5
:1038E00044F22C41C5F60201086840F4003008603B
:1038F0000DE018980830022104F02EFC8DF85700D6
:1039000005E004E003E001208DF85700FFE79DF893
:10391000570060B9FFE744F24C41C5F60201086860
:1039200020F00300189A926C1043086004E09DF8A0
:1039300057008DF85600FFE7FFE71898807840069B
:10394000002840F1B480FFE744F60001C5F602010B
:10395000086840F480700860FEF7BAFC1690FFE734
:1039600044F60000C5F602000068C00500280CD42B
:10397000FFE7FEF7ADFC1699401A652804D3FFE770
:1039800003208DF8570000E0EAE79DF85700002873
:1039900040F08780FFE744F27040C5F602000068FF
:1039A00000F440701899D1F8B41001F440718842C5
:1039B00013D0FFE744F27041C5F60201086820F415
:1039C00040701790086840F480300860086820F460
:1039D0008030086017980860FFE71898D0F8B400A6
:1039E000B0F5807F1FD1FFE7FEF772FC1690FFE76E
:1039F00044F27040C5F60200006800F002010020A9
:103A0000B0EB510F0ED1FFE7FEF762FC1699401A9A
:103A100041F28931884204D3FFE703208DF8570033
:103A200000E0E5E7FFE79DF85700A0BBFFE7FFE7F1
:103A30001898D0F8B40000F44070B0F5407F13D16E
:103A4000FFE744F21041C5F60201086820F47C50FB
:103A5000189AD2F8B4204FF6F043C0F6FF731A401C
:103A600040EA1210086008E044F21041C5F6020175
:103A7000086820F47C500860FFE71898D0F8B4205C
:103A80006FF31F3244F27041C5F60201086810431B
:103A90000860FFE704E09DF857008DF85600FFE747
:103AA00004E09DF857008DF85600FFE7FFE71898EF
:103AB0000068C007002800F04C80FFE71898C06F2E
:103AC000099028282BD80999DFE801F01529292920
:103AD0002929292916292929292929291E29292974
:103AE000292929292629292929292929272929294B
:103AF00029292929280016E018980830012104F006
:103B00002BFB8DF857000EE018982830012104F0A7
:103B10000BFC8DF8570006E005E004E003E001200F
:103B20008DF85700FFE79DF8570060B9FFE744F2B2
:103B30005441C5F60201086820F03800189AD26F87
:103B40001043086004E09DF857008DF85600FFE729
:103B5000FFE7189800788007002839D5FFE7189804
:103B6000806F0890052819D80899DFE801F0030450
:103B70000C14151616E018980830012104F0ECFA20
:103B80008DF857000EE018982830012104F0CCFB86
:103B90008DF8570006E005E004E003E001208DF811
:103BA0005700FFE79DF8570060B9FFE744F2544122
:103BB000C5F60201086820F00700189A926F1043BA
:103BC000086004E09DF857008DF85600FFE7FFE716
:103BD00018980078400700283BD5FFE71898D0F8E0
:103BE00094000790052819D80799DFE801F003042D
:103BF0000C14151616E018980830012104F0ACFAE0
:103C00008DF857000EE018982830012104F08CFB45
:103C10008DF8570006E005E004E003E001208DF890
:103C20005700FFE79DF8570068B9FFE744F2584195
:103C3000C5F60201086820F00700189AD2F894200F
:103C40001043086004E09DF857008DF85600FFE728
:103C5000FFE718980078800600284ED5FFE71898EF
:103C6000D0F890000690C8B1FFE70698B0F1805FE9
:103C700015D0FFE70698B0F1005F18D0FFE706986F
:103C8000B0F1405F1BD0FFE70698B0F1804F17D02E
:103C9000FFE70698B0F1A04F13D013E016E0189894
:103CA0000830002104F058FA8DF857000EE01898FB
:103CB0002830022104F038FB8DF8570006E005E0BB
:103CC00004E003E001208DF85700FFE79DF857005E
:103CD00068B9FFE744F25441C5F60201086820F0D4
:103CE000E040189AD2F890201043086004E09DF854
:103CF00057008DF85600FFE7FFE718980078400658
:103D000000284ED5FFE71898D0F89C000590C8B160
:103D1000FFE70598B0F5806F15D0FFE70598B0F57F
:103D2000006F18D0FFE70598B0F5406F1BD0FFE794
:103D30000598B0F5805F17D0FFE70598B0F5A05F54
:103D400013D013E016E018980830002104F004FAAC
:103D50008DF857000EE018982830022104F0E4FA9C
:103D60008DF8570006E005E004E003E001208DF83F
:103D70005700FFE79DF8570068B9FFE744F2584144
:103D8000C5F60201086820F4E050189AD2F89C2089
:103D90001043086004E09DF857008DF85600FFE7D7
:103DA000FFE718980078000600284ED5FFE718981E
:103DB000D0F8A0000490C8B1FFE70498B0F5005F08
:103DC00015D0FFE70498B0F5804F18D0FFE70498AE
:103DD000B0F5C04F1BD0FFE70498B0F5004F17D0E7
:103DE000FFE70498B0F5204F13D013E016E01898C1
:103DF0000830002104F0B0F98DF857000EE0189853
:103E00002830022104F090FA8DF8570006E005E012
:103E100004E003E001208DF85700FFE79DF857000C
:103E200068B9FFE744F25841C5F60201086820F47A
:103E30006040189AD2F8A0201043086004E09DF872
:103E400057008DF85600FFE7FFE718980078000745
:103E5000002820D5FFE71898D0F88400B0F5805FDF
:103E60000CD1FFE718982830022104F05DFA20B148
:103E7000FFE701208DF85600FFE7FFE744F25441C9
:103E8000C5F60201086820F44050189AD2F8842040
:103E900010430860FFE718980078C006002820D576
:103EA000FFE71898D0F89800B0F5807F0CD1FFE7B5
:103EB00018982830022104F037FA20B1FFE70120DA
:103EC0008DF85600FFE7FFE744F25841C5F60201BE
:103ED000086820F44070189AD2F8982010430860BF
:103EE000FFE718988078000700283CD5FFE718986E
:103EF000D0F8A400039050B1FFE70398B0F5803FDD
:103F00000DD0FFE70398B0F5003F10D010E01898EF
:103F10000830002104F020F98DF857000CE01898C3
:103F20002830022104F000FA8DF8570004E003E085
:103F300001208DF85700FFE79DF8570068B9FFE7AB
:103F400044F25841C5F60201086820F44030189A3E
:103F5000D2F8A4201043086004E09DF857008DF8C3
:103F60005600FFE7FFE718988078400700283FD504
:103F7000FFE71898D0F888000290B0F5801F0AD0AB
:103F8000FFE70298B0F5001F0ED0FFE70298B0F5EA
:103F9000401F11D011E044F22C41C5F6020108681F
:103FA00040F4003008600CE018982830012104F03B
:103FB000BBF98DF8570004E003E001208DF85700AD
:103FC000FFE79DF8570068B9FFE744F25441C5F692
:103FD0000201086820F44010189AD2F88820104393
:103FE000086004E09DF857008DF85600FFE7FFE7F2
:103FF00018988078C007A8B3FFE71898006D019063
:1040000028B1FFE70198B0F5803F09D010E044F2F5
:104010002C41C5F60201086840F4003008600BE04E
:1040200018980830022104F097F88DF8570003E043
:1040300001208DF85700FFE79DF8570060B9FFE7B2
:1040400044F24C41C5F60201086820F48030189A09
:10405000126D1043086004E09DF857008DF856007B
:10406000FFE7FFE71898C078800600280CD5FFE727
:1040700018982830022104F057F920B1FFE70120F9
:104080008DF85600FFE7FFE7189880788007002832
:104090003CD5FFE71898D0F880000090D0B1FFE73A
:1040A0000098B0F5807F0AD0FFE70098B0F5007F58
:1040B0000ED0FFE70098B0F5407F0AD00BE044F245
:1040C0002C41C5F60201086840F40030086006E0A3
:1040D00005E004E003E001208DF85700FFE79DF8BC
:1040E000570068B9FFE744F25441C5F60201086879
:1040F00020F44070189AD2F880201043086004E041
:104100009DF857008DF85600FFE7FFE71898807874
:10411000C00600280CD5FFE744F25041C5F6020165
:10412000086820F00040189A526F10430860FFE7BB
:104130001898C078C00600280DD5FFE744F210415A
:10414000C5F60201086820F48040189AD2F8B82019
:1041500010430860FFE718988078800600280CD587
:10416000FFE744F25041C5F60201086820F0807074
:10417000189AD26E10430860FFE71898C07840067E
:10418000002811D5FFE7FFE744F21041C5F6020110
:10419000086820F4004008601898D0F8BC2008682F
:1041A00010430860FFE7FFE71898C0780006002872
:1041B0000CD5FFE744F24C41C5F60201086820F037
:1041C0004050189A526D10430860FFE718988078A5
:1041D000000600280DD5FFE744F25441C5F6020160
:1041E000086820F44000189AD2F88C201043086028
:1041F000FFE718980079C00790B1FFE718980830DA
:10420000002103F0A9FF8DF857009DF8570008B969
:10421000FFE704E09DF857008DF85600FFE7FFE741
:10422000189800798007002812D5FFE71898083001
:10423000012103F091FF8DF857009DF8570008B950
:10424000FFE704E09DF857008DF85600FFE7FFE711
:10425000189800794007002812D5FFE71898083011
:10426000022103F079FF8DF857009DF8570008B937
:10427000FFE704E09DF857008DF85600FFE7FFE7E1
:10428000189800790007002812D5FFE71898283001
:10429000002104F049F88DF857009DF8570008B93F
:1042A000FFE704E09DF857008DF85600FFE7FFE7B1
:1042B00018980079C006002812D5FFE71898283012
:1042C000012104F031F88DF857009DF8570008B926
:1042D000FFE704E09DF857008DF85600FFE7FFE781
:1042E000189800798006002812D5FFE71898283022
:1042F000022104F019F88DF857009DF8570008B90D
:10430000FFE704E09DF857008DF85600FFE7FFE750
:104310009DF8560020B9FFE700208DF8670003E004
:1043200001208DF86700FFE79DF867001AB080BD97
:1043300080B586B004900391049820B9FFE701206E
:104340008DF817003CE2039842F20001C5F200210B
:10435000096801F00F01884216D9FFE742F2000018
:10436000C5F20020016821F00F01039A114301609A
:10437000006800F00F000399884204D0FFE7012095
:104380008DF817001CE2FFE704980078400700282A
:1043900019D5FFE70498006944F21841C5F60201F7
:1043A000096801F0700188420CD9FFE744F2184116
:1043B000C5F60201086820F07000049A12691043E3
:1043C0000860FFE7FFE7049800780007002819D588
:1043D000FFE70498406944F21C41C5F602010968F0
:1043E00001F0700188420CD9FFE744F21C41C5F688
:1043F0000201086820F07000049A526910430860B6
:10440000FFE7FFE704980078C006002819D5FFE70A
:104410000498806944F21C41C5F60201096801F460
:10442000E06188420CD9FFE744F21C41C5F6020165
:10443000086820F4E060049A926910430860FFE77E
:10444000FFE7049800788006002819D5FFE7049854
:10445000C06944F22041C5F60201096801F070010B
:1044600088420CD9FFE744F22041C5F602010868F2
:1044700020F07000049AD26910430860FFE7FFE75C
:10448000049800788007002819D5FFE70498C068D1
:1044900044F21841C5F60201096801F00F01884293
:1044A0000CD9FFE744F21841C5F60201086820F074
:1044B0000F00049AD26810430860FFE7FFE70498F2
:1044C0000078C007002800F08C80FFE744F2184114
:1044D000C5F60201086820F47060049A92681043DF
:1044E000086004984068022811D1FFE744F20040B8
:1044F000C5F60200006800F400310020B0EB514F17
:1045000004D1FFE701208DF8170059E13EE004983F
:104510004068032811D1FFE744F20040C5F60200CD
:10452000006800F000710020B0EB516F04D1FFE78C
:1045300001208DF8170043E127E004984068012826
:1045400011D1FFE744F20040C5F60200006800F414
:1045500080710020B0EB112F04D1FFE701208DF80E
:1045600017002DE110E044F20040C5F6020000689B
:1045700000F004010020B0EB910F04D1FFE701200F
:104580008DF817001CE1FFE7FFE7FFE744F2104159
:10459000C5F60201086820F00700049A526810432B
:1045A0000860FDF795FE0190FFE744F21040C5F664
:1045B0000200006800F0380004994968B0EBC10FB0
:1045C0000ED0FFE7FDF784FE0199401A41F28931D0
:1045D000884204D3FFE703208DF81700F0E0E4E7FA
:1045E000FFE7049800788007002819D5FFE70498B2
:1045F000C06844F21841C5F60201096801F00F01D4
:1046000088420CD2FFE744F21841C5F6020108685F
:1046100020F00F00049AD26810430860FFE7FFE71C
:10462000039842F20001C5F20021096801F00F0170
:10463000884216D2FFE742F20000C5F2002001686E
:1046400021F00F01039A11430160006800F00F0090
:104650000399884204D0FFE701208DF81700AFE0EE
:10466000FFE7049800784007002819D5FFE7049871
:10467000006944F21841C5F60201096801F07001B1
:1046800088420CD2FFE744F21841C5F602010868DF
:1046900020F07000049A126910430860FFE7FFE7FA
:1046A000049800780007002819D5FFE704984069AE
:1046B00044F21C41C5F60201096801F0700188420C
:1046C0000CD2FFE744F21C41C5F60201086820F055
:1046D0007000049A526910430860FFE7FFE70498EE
:1046E0000078C006002819D5FFE70498806944F2D5
:1046F0001C41C5F60201096801F4E06188420CD250
:10470000FFE744F21C41C5F60201086820F4E060AE
:10471000049A926910430860FFE7FFE70498007865
:104720008006002819D5FFE70498C06944F22041AB
:10473000C5F60201096801F0700188420CD2FFE75A
:1047400044F22041C5F60201086820F07000049A86
:10475000D26910430860FFE7FFE700F0CDF844F2AC
:104760001842C5F602021168C1F303234EF2384124
:10477000C0F60001CB5C03F01F03D8400090009806
:10478000126802F00F02895C01F01F01C84040F27C
:104790000401C2F200410860009840F20001C2F238
:1047A0000041086040F20C00C2F200400068FDF7D2
:1047B000F7FF8DF80B009DF80B008DF81700FFE751
:1047C0009DF8170006B080BD82B00190009101995C
:1047D0003F20086044F21040C5F60200006800F077
:1047E00007000199486044F21840C5F602000168CC
:1047F00001F47061019A9160016801F00F01019A62
:10480000D160006800F070000199086144F21C401A
:10481000C5F60200016801F07001019A516100685B
:1048200000F4E0600199886144F22040C5F602007E
:10483000006800F070000199C86142F20000C5F202
:104840000020006800F00F000099086002B0704777
:1048500080B582B000F050F844F21842C5F602026A
:104860001168C1F303234EF23841C0F60001CB5C5E
:1048700003F01F03D84001900198126802F00F0264
:10488000895C01F01F0120FA01F140F20400C2F23C
:1048900000400160019940F20002C2F20042116042
:1048A000006802B080BD000080B5FFF7D1FF44F280
:1048B0001C41C5F602010968C1F302124EF23841EB
:1048C000C0F60001895C01F01F01C84080BD0000F6
:1048D00080B5FFF7BDFF44F21C41C5F6020109682F
:1048E000C1F302224EF23841C0F60001895C01F0AA
:1048F0001F01C84080BD00008AB044F21040C5F6D8
:104900000200006800F0380001460191182800F20A
:1049100069810199DFE811F01900660166016601FD
:1049200066016601660166013A006601660166017C
:104930006601660166016601400066016601660166
:104940006601660166016601460044F20040C5F654
:104950000200006800F020010020B0EB511F0ED0D3
:10496000FFE744F20040C5F602000068C0F3C10151
:1049700049F20000C0F2D030C840029005E049F290
:104980000000C0F2D0300290FFE731E140F60010A5
:10499000C0F23D0002902BE147F64000C0F27D10CE
:1049A000029025E144F22840C5F60200016801F0BA
:1049B000030108910068C0F30510079044F22C40F1
:1049C000C5F60200006800F001000690069844F267
:1049D0003441C5F60201096889B2C908484300EEAE
:1049E000100AB8EE400A8DED040A0798002800F07E
:1049F000F580FFE70898009048B1FFE7009801288C
:104A000069D0FFE70098022800F08980ABE044F20B
:104A10000040C5F60200006800F020010020B0EB65
:104A2000511F33D0FFE744F20040C5F60200006892
:104A3000C0F3C10149F20000C0F2D030C840059077
:104A40009DED050AB8EE400A9DED071AB8EE411A31
:104A500080EE010A44F23040C5F6020000686FF3B0
:104A60005F2001EE100AB8EE411A9DED042A9FED79
:104A7000633A82EE032A31EE021AB7EE002A31EED3
:104A8000021A20EE010A8DED030A23E09DED070ACC
:104A9000B8EE401A9FED5B0A80EE010A44F2304006
:104AA000C5F6020000686FF35F2001EE100AB8EE51
:104AB000411A9DED042A9FED513A82EE032A31EE10
:104AC000021AB7EE002A31EE021A20EE010A8DED2D
:104AD000030AFFE76BE09DED070AB8EE401A9FED71
:104AE000480A80EE010A44F23040C5F60200006830
:104AF0006FF35F2001EE100AB8EE411A9DED042A13
:104B00009FED3E3A82EE032A31EE021AB7EE002AFA
:104B100031EE021A20EE010A8DED030A47E09DED09
:104B2000070AB8EE401A9FED340A80EE010A44F2FB
:104B30003040C5F6020000686FF35F2001EE100AF6
:104B4000B8EE411A9DED042A9FED2C3A82EE032A1D
:104B500031EE021AB7EE002A31EE021A20EE010AF7
:104B60008DED030A23E09DED070AB8EE401A9FED94
:104B7000240A80EE010A44F23040C5F602000068C3
:104B80006FF35F2001EE100AB8EE411A9DED042A82
:104B90009FED1A3A82EE032A31EE021AB7EE002A8E
:104BA00031EE021A20EE010A8DED030AFFE744F20E
:104BB0003040C5F60200006881B2012000EB5120B0
:104BC00009909DED030A9DED091AB8EE411A80EE99
:104BD000010ABCEEC00A8DED020A02E0002002903C
:104BE000FFE705E040F60010C0F23D000290FFE74D
:104BF00002980AB0704700BF20BCBE4B00000046C0
:104C00000024744A0024744C80B58CB00A900A9831
:104C100028B9FFE701208DF82F0000F09DBD0A980C
:104C20000078C007002800F0B980FFE744F2104088
:104C3000C5F60200006800F03800069044F22840F3
:104C4000C5F6020000680590069810280AD0FFE714
:104C5000069818281CD1FFE7059800F003000228E9
:104C600016D1FFE744F20040C5F60200006800F4E8
:104C700000310020B0EB514F09D0FFE70A9840689F
:104C800028B9FFE701208DF82F0000F065BD84E012
:104C9000FFE70A984068B0F5803F09D1FFE744F28A
:104CA0000041C5F60201086840F48030086032E037
:104CB0000A98406868B9FFE744F20041C5F602016E
:104CC000086820F480300860086820F480200860BC
:104CD00020E00A984068B0F5A02F0DD1FFE744F21C
:104CE0000041C5F60201086840F4802008600868A9
:104CF00040F4803008600CE044F20041C5F6020147
:104D0000086820F480300860086820F4802008607B
:104D1000FFE7FFE7FFE7FFE70A984068F0B1FFE72A
:104D2000FDF7D6FA0990FFE744F20040C5F602000D
:104D3000006800F400310020B0EB514F0DD1FFE7C7
:104D4000FDF7C6FA0999401A652805D3FFE7032045
:104D50008DF82F0000F000BDE6E71DE0FDF7B8FA82
:104D60000990FFE744F20040C5F60200006800F435
:104D700000310020B0EB514F0DD0FFE7FDF7A8FA4E
:104D80000999401A652805D3FFE703208DF82F0005
:104D900000F0E2BCE6E7FFE7FFE7FFE70A980078EC
:104DA0008007002840F11681FFE744F21040C5F665
:104DB0000200006800F03800049044F22840C5F674
:104DC000020000680390049850B1FFE70498182887
:104DD00078D1FFE79DF80C008007002872D1FFE72B
:104DE00044F20040C5F60200006800F00401002013
:104DF000B0EB910F09D0FFE70A98C06828B9FFE728
:104E000001208DF82F0000F0A7BC44F20041C5F648
:104E10000201086820F019000A9AD268104308605D
:104E2000FDF756FA0990FFE744F20040C5F602008C
:104E3000006800F004010020B0EB910F0DD1FFE7F6
:104E4000FDF746FA0999401A032805D3FFE7032026
:104E50008DF82F0000F080BCE6E7FFE7FDF730FAA1
:104E600041F2030188421DD8FFE70A9800694028F3
:104E70000AD1FFE744F20441C5F602010868202286
:104E800062F3113008600CE044F20441C5F60201FF
:104E9000086820F47C300A9A126940EA02300860FF
:104EA000FFE70CE044F20441C5F60201086820F077
:104EB000FE400A9A126940EA02600860FFE7FFE7D5
:104EC000FFE786E00A98C06800285CD0FFE744F25C
:104ED0000041C5F60201086820F019000A9AD2685C
:104EE00010430860FDF7F4F90990FFE744F2004031
:104EF000C5F60200006800F004010020B0EB910F3D
:104F00000DD1FFE7FDF7E4F90999401A032805D30D
:104F1000FFE703208DF82F0000F01EBCE6E7FFE757
:104F2000FDF7CEF941F2030188421DD8FFE70A9848
:104F3000006940280AD1FFE744F20441C5F60201A6
:104F40000868202262F3113008600CE044F204414A
:104F5000C5F60201086820F47C300A9A126940EA1A
:104F600002300860FFE70CE044F20441C5F602019C
:104F7000086820F0FE400A9A126940EA0260086060
:104F8000FFE7FFE724E044F20041C5F602010868AC
:104F900020F001000860FDF79BF90990FFE744F25B
:104FA0000040C5F60200006800F004010020B0EBEC
:104FB000910F0CD0FFE7FDF78BF90999401A0328F0
:104FC00004D3FFE703208DF82F00C5E3E7E7FFE7F1
:104FD000FFE7FFE70A980078C006002840F1EB8061
:104FE000FFE744F21040C5F60200006800F0380008
:104FF000029044F22840C5F6020000680190029831
:1050000008280AD0FFE70298182850D1FFE7019836
:1050100000F0030001284AD1FFE744F20040C5F642
:105020000200006800F480710020B0EB112F09D05D
:10503000FFE70A98C069802804D0FFE701208DF8B7
:105040002F0089E3FFE7FDF73BF941F203018842B6
:105050001DD8FFE70A98006A20280AD1FFE744F22A
:105060000441C5F602010868102262F39E600860E0
:105070000CE044F20441C5F60201086820F0F84053
:105080000A9A126A40EA82600860FFE70CE044F284
:105090000C41C5F60201086820F07C500A9A126A99
:1050A00040EA02600860FFE7FFE7FFE782E00A9856
:1050B000C069002858D0FFE744F20041C5F602015C
:1050C000086840F080000860FDF702F90990FFE7EA
:1050D00044F20040C5F60200006800F48071002030
:1050E000B0EB112F0CD1FFE7FDF7F2F80999401A48
:1050F000032804D3FFE703208DF82F002CE3E7E714
:10510000FFE7FDF7DDF841F2030188421DD8FFE714
:105110000A98006A20280AD1FFE744F20441C5F644
:1051200002010868102262F39E6008600CE044F2FD
:105130000441C5F60201086820F0F8400A9A126A94
:1051400040EA82600860FFE70CE044F20C41C5F6DB
:105150000201086820F07C500A9A126A40EA026054
:105160000860FFE7FFE724E044F20041C5F60201D2
:10517000086820F080000860FDF7AAF80990FFE7B2
:1051800044F20040C5F60200006800F4807100207F
:10519000B0EB112F0CD0FFE7FDF79AF80999401AF0
:1051A000032804D3FFE703208DF82F00D4E2E7E7BC
:1051B000FFE7FFE7FFE70A980078000700284FD5D0
:1051C000FFE70A98406928B3FFE744F27441C5F647
:1051D0000201086840F001000860FDF779F80990C5
:1051E000FFE744F27440C5F60200006800F00201D7
:1051F0000020B0EB510F0CD1FFE7FDF769F80999DA
:10520000401A032804D3FFE703208DF82F00A3E200
:10521000E7E724E044F27441C5F60201086820F093
:1052200001000860FDF754F80990FFE744F274406C
:10523000C5F60200006800F002010020B0EB510F3B
:105240000CD0FFE7FDF744F80999401A032804D36E
:10525000FFE703208DF82F007EE2E7E7FFE7FFE797
:105260000A980078800600284FD5FFE70A988069E1
:1052700028B3FFE744F20041C5F60201086840F494
:1052800080500860FDF724F80990FFE744F20040E1
:10529000C5F60200006800F400510020B0EB513F59
:1052A0000CD1FFE7FDF714F80999401A032804D33D
:1052B000FFE703208DF82F004EE2E7E724E044F2F9
:1052C0000041C5F60201086820F480500860FCF730
:1052D000FFFF0990FFE744F20040C5F602000068B6
:1052E00000F400510020B0EB513F0CD0FFE7FCF779
:1052F000EFFF0999401A032804D3FFE703208DF834
:105300002F0029E2E7E7FFE7FFE70A980078400768
:10531000002840F1A780FFE744F60001C5F602012E
:10532000086840F480700860FCF7D2FF0990FFE73E
:1053300044F60000C5F602000068C00500280CD441
:10534000FFE7FCF7C5FF0999401A652804D3FFE77A
:1053500003208DF82F00FFE1EAE7FFE70A98806855
:10536000012809D1FFE744F27041C5F6020108683F
:1053700040F00100086031E00A98806868B9FFE7F2
:1053800044F27041C5F60201086820F0010008608F
:10539000086820F0040008601FE00A98806805286B
:1053A0000DD1FFE744F27041C5F60201086840F0F4
:1053B00004000860086840F0010008600CE044F256
:1053C0007041C5F60201086820F001000860086815
:1053D00020F004000860FFE7FFE7FFE7FFE70A9817
:1053E0008068F8B1FFE7FCF773FF0990FFE744F22C
:1053F0007040C5F60200006800F002010020B0EB2A
:10540000510F0ED1FFE7FCF763FF0999401A41F2F3
:105410008931884204D3FFE703208DF82F009BE1F8
:10542000E5E71EE0FCF754FF0990FFE744F2704007
:10543000C5F60200006800F002010020B0EB510F39
:105440000ED0FFE7FCF744FF0999401A41F2893179
:10545000884204D3FFE703208DF82F007CE1E5E7C5
:10546000FFE7FFE70A98406A002800F07181FFE734
:1054700044F21040C5F60200006800F03800182819
:1054800000F0E080FFE70A98406A022840F0B4800C
:10549000FFE744F20041C5F60201086820F0807081
:1054A0000860FCF715FF0990FFE744F20040C5F6DD
:1054B0000200006800F000710020B0EB516F0CD0CA
:1054C000FFE7FCF705FF0999401A032804D3FFE71B
:1054D00003208DF82F003FE1E7E7FFE744F2284182
:1054E000C5F60201086840F2F33290430A9B9A6ABB
:1054F000DB6A42EA0312104308600A99086BD1F88C
:1055000034C08B6BCA6B01386FF35F204FF60061BC
:10551000CFF6FF7101EB4C2189B208440021CFF690
:10552000FF7101EB034101F4FE0108444FF07F419C
:1055300001EB026101F0FE41084444F23041C5F63E
:1055400002010860FFE744F22C41C5F60201009118
:10555000086820F00100086044F23442C5F60202F7
:1055600010684FF6F87398430A9B9B6C40EAC3009F
:105570001060086820F00C000A9A126C1043086052
:10558000086820F002000A9A526C1043086008680C
:1055900040F480300860086840F400300860086813
:1055A00040F480200860086840F00100086044F280
:1055B0000041C5F60201086840F080700860FCF701
:1055C00087FE0990FFE744F20040C5F6020000683C
:1055D00000F000710020B0EB516F0CD1FFE7FCF739
:1055E00077FE0999401A032804D3FFE703208DF8BA
:1055F0002F00B1E0E7E724E044F20041C5F60201E4
:10560000086820F080700860FCF762FE0990FFE7F0
:1056100044F20040C5F60200006800F0007100206E
:10562000B0EB516F0CD0FFE7FCF752FE0999401A1E
:10563000032804D3FFE703208DF82F008CE0E7E771
:10564000FFE784E044F22840C5F6020000680890B5
:1056500044F23040C5F60200006807900A98406A9C
:10566000012837D0FFE7089800F003000A99896AFB
:1056700088422FD1FFE7089800F47C710A98C06A2D
:10568000B0EB111F26D1FFE707986FF35F200A994F
:10569000096B013988421DD1FFE7BDF81C100A983B
:1056A000406B0138B0EB512F14D1FFE7079800F49D
:1056B000FE010A98806B0138B0EB114F0AD1FFE769
:1056C000079800F0FE410A98C06B0138B0EB116FEB
:1056D00004D0FFE701208DF82F003DE044F2344074
:1056E000C5F60200006880B2C00808900A98806C75
:1056F0000899884229D0FFE744F22C41C5F60201FF
:10570000086820F001000860FCF7E2FD0990FFE75F
:10571000FCF7DEFD0999401A08B9FFE7F8E744F203
:105720003441C5F6020108684FF6F87290430A9AB0
:10573000926C40EAC200086044F22C41C5F60201B6
:10574000086840F001000860FFE7FFE7FFE7FFE7B8
:1057500000208DF82F00FFE79DF82F000CB080BDD2
:1057600080B586B00490049820B9FFE701208DF839
:1057700017003AE10498406A08B9FFE7FFE7049987
:10578000002088620498006843F20001C4F201011D
:1057900088421BD0FFE70498006843F60001C4F27A
:1057A0000001884212D0FFE70498006843F60041E8
:1057B000C4F20001884209D0FFE70498C0681028AD
:1057C00004D3FFE701208DF817000EE1049802F0E2
:1057D00093FE02900498006843F20001C4F20101B4
:1057E000884216D0FFE70498006843F60001C4F22F
:1057F000000188420DD0FFE70498006843F600419D
:10580000C4F20001884204D0FFE7029808281FD89C
:10581000FFE70498006843F20001C4F201018842E6
:1058200012D0FFE70498006843F60001C4F20001BB
:10583000884209D0FFE70498006843F60041C4F2AB
:105840000001884208D1FFE70298112804D3FFE73E
:1058500001208DF81700C8E0049890F8810040B945
:10586000FFE70499002081F88000049800F0C4F854
:10587000FFE70499022081F8810004980168086814
:1058800020F00100086004980068806800F4F810B7
:10589000039004988069B0F1806F1BD1FFE70498F2
:1058A0004068B0F5800F04D1FFE70498806B50B1D9
:1058B000FFE70498406868B9FFE70498806BB0F18F
:1058C000805F07D1FFE704980168086840F48050C2
:1058D0000860FFE7049880794006002810D5FFE7AC
:1058E0000498C06807280BD3FFE704980068006895
:1058F00020F48070049A1168126D1043086006E06D
:1059000004980168086820F480700860FFE7049B31
:105910001968DA68D869D3F828C040EA0C00DDF8C5
:105920000CC040EA0C00DB6B184310438860049AFB
:105930000192506B516A0843916B08439169084387
:105940001168D2F804C09368D2F810E040EA0E0063
:10595000D2F814E040EA0E00D2F820E040EA0E004F
:1059600040EA0C00D2F84CC040EA0C001843936C9B
:105970001843926D1043C8600498406898B9FFE7D7
:10598000049800688068012161F3CC2004990968BB
:105990008860049800688068022161F34A200499B5
:1059A00009688860FFE704980168086D20F001002D
:1059B000086504988079400600280BD5FFE7049815
:1059C0000068C06820F00040049A1168526D1043CE
:1059D000C860FFE704990020C1F88400049A0121FF
:1059E00082F881108DF81700FFE79DF8170006B0C8
:1059F00080BD00000000000080B58EB00D9000203A
:105A00000C900B900A90099008900D98006843F252
:105A10000001C4F20101884254D1FFE7FFE744F2DC
:105A2000F040C5F60200016841F480510160006851
:105A300000F4805007900798FFE7FFE744F2E0404A
:105A4000C5F60200016841F008010160006800F03D
:105A5000080006900698FFE7FFE744F2E040C5F62D
:105A60000200016841F040010160006800F0400060
:105A700005900598FFE7802008900220019009908A
:105A8000002002900A900B90052003900C9040F6A5
:105A90000040C5F6020008A90491FCF715FA019B25
:105AA000029A039804994FF4606CCDF820C00993D2
:105AB0000A920B920C9041F60000C5F60200FCF72A
:105AC00003FAFFE70EB080BD81B0009001B07047CF
:105AD00081B0009001B0704781B0009001B0704774
