:020000040800F2
:10000000D85B002465030008E1590008F950000896
:10001000D9590008610600080183000800000000AB
:10002000000000000000000000000000B15C0008BB
:100030006906000800000000F1590008E15C0008B2
:100040007F0300087F0300087F0300087F03000888
:100050007F0300087F0300087F0300087F03000878
:100060007F0300087F0300087F0300087F03000868
:100070007F0300087F0300087F0300087F03000858
:100080007F0300087F0300087F0300087F03000848
:100090007F0300087F0300087F0300087F03000838
:1000A0007F0300087F0300087F0300087F03000828
:1000B000B95E00087F0300087F0300087F03000883
:1000C0007F0300087F0300087F0300087F03000808
:1000D0007F0300087F0300087F0300087F030008F8
:1000E0007F0300087F030008000000007F03000872
:1000F0007F0300087F0300087F0300087F030008D8
:100100007F0300087F0300087F0300087F030008C7
:10011000B9610008C96100087F0300087F03000877
:100120007F0300087F0300087F0300087F030008A7
:100130007F0300087F0300087F0300087F03000897
:1001400000000000000000000000000000000000AF
:100150007F0300087F0300087F0300087F03000877
:100160007F0300087F0300087F0300087F03000867
:100170007F0300087F0300087F03000800000000E1
:100180007F0300087F0300087F0300087F03000847
:100190007F0300087F0300087F0300087F03000837
:1001A0007F0300087F0300087F0300087F03000827
:1001B0007F0300087F0300087F0300087F03000817
:1001C0007F0300087F0300087F0300087F03000807
:1001D0007F0300087F0300087F0300087F030008F7
:1001E0007F0300087F0300087F0300087F030008E7
:1001F0007F0300087F0300087F0300087F030008D7
:100200007F0300087F0300087F0300087F030008C6
:100210007F0300087F0300087F0300087F030008B6
:100220007F0300087F0300087F0300080000000030
:100230007F0300087F030008000000007F03000820
:100240007F0300087F0300087F0300087F03000886
:100250007F0300087F0300087F0300087F03000876
:100260007F0300087F0300087F0300087F03000866
:100270007F0300087F0300087F03000800000000E0
:100280007F0300087F0300087F03000800000000D0
:10029000000000007F03000800F002F800F052F8B0
:1002A00014A696E8000CB244B344DA4501D100F03C
:1002B00049F8BAE80F000FA696E83000A5EB040550
:1002C00004EB0607AAEB0704A7F101074FEA15158F
:1002D0004FEA3414A4F10104AC4201D300F032F827
:1002E00013F0010F18BFFB1A43F0010300F001F8EF
:1002F000DBE718476CA100008CA10000103A24BF76
:1003000078C878C1FAD8520724BF30C830C144BF7A
:1003100004680C6070470000704700000023002450
:1003200000250026103A28BF78C1FBD8520728BF05
:1003300030C148BF0B6070471FB50AF01FF81FBDE2
:1003400010B510BD00F04FF91146FFF7F5FF07F0AB
:10035000DBFF00F06DF903B4FFF7F2FF03BC00F020
:1003600075F900000948804709480047FEE7FEE7A5
:10037000FEE7FEE7FEE7FEE7FEE7FEE7FEE7FEE755
:1003800004480549054A064B70470000E95D00082E
:1003900099020008D8550024D85B0024D8570024BF
:1003A000D857002453EA020C00F069802DE9F04B85
:1003B0004FF00006002B1FBFB3FA83F503FA05F4D4
:1003C00024FA05F65E4012BF1643B2FA82F502FA2D
:1003D00005F4C5F120051EBF22FA05FC44EA0C0411
:1003E000203556EA044C4FEA144418BF641C4FF001
:1003F00000084FF00009904271EB030C39D300293B
:1004000019BFB1FA81F701FA07F6B0FA80F700FADE
:1004100007F6C7F120071EBF20FA07FC46EA0C06C4
:100420002037B6FBF4FCA7EB0507103F07F01F0BC6
:10043000CBF120062CFA06F60CFA0BFB44BFB346B0
:100440000026202FA4BF5E464FF0000B5BEA060C8F
:1004500008BF4FF0010B19EB0B0948EB0608ABFB8B
:10046000027C06FB02CC0BFB03CCC01B71EB0C0126
:10047000C1E70B46024641464846BDE8F08B13B53E
:10048000084318BF4FF0FF300146AFF30080BDE8CE
:100490001C407047032A40F2308010F0030C00F03B
:1004A000158011F8013BBCF1020F624498BF11F8AE
:1004B00001CB00F8013B38BF11F8013BA2F1040267
:1004C00098BF00F801CB38BF00F8013B11F00303DF
:1004D00000F05780083AC0F0088051F8043B083A11
:1004E00051F804CBA0E80810F5E7121D5CBF51F8E5
:1004F000043B40F8043BAFF30080D20724BF11F85F
:10050000013B11F801CB48BF11F8012B24BF00F8C3
:10051000013B00F801CB48BF00F8012B704702F007
:10052000FF0343EA032242EA024200F002B84FF01E
:10053000000200B5134694469646203922BFA0E833
:100540000C50A0E80C50B1F12001BFF4F7AF09073F
:1005500028BFA0E80C5048BF0CC05DF804EB890030
:1005600028BF40F8042B08BF704748BF20F8022B73
:1005700011F0804F18BF00F8012B7047704770478B
:10058000704710B5203AC0F00B80B1E81850A0E8D1
:100590001850B1E81850A0E81850203ABFF4F5AF51
:1005A0005FEA027C24BFB1E81850A0E8185044BFAD
:1005B00018C918C0BDE810405FEA827C24BF51F81A
:1005C000043B40F8043B08BF7047D20728BF31F80E
:1005D000023B48BF11F8012B28BF20F8023B48BF5F
:1005E00000F8012B7047754600F02CF8AE46050068
:1005F0006946534620F00700854618B020B5FFF73E
:10060000BFFEBDE820404FF000064FF000074FF05E
:1006100000084FF0000BAC46ACE8C009ACE8C009DC
:10062000ACE8C009ACE8C00921F007018D4670476D
:1006300010B50446AFF300802046BDE81040FFF738
:100640008ABE0000004870471800002401491820A5
:10065000ABBEFEE72600020070470000000000006D
:10066000FEE70000000000007047000000000000EE
:10067000EFF3108072B600BFFEE70000000000003C
:100680002DE9F041044600F057FF1CB3054694F8ED
:100690003500022822D140F20F472668C4F2020733
:1006A00040F26F48BE426FF00E00C4F202081DDC3B
:1006B0006F21C4F202018E422ADC3F21C4F2020102
:1006C0008E4241DC1021C4F202018E4263D0282107
:1006D0005CE000BF0120BDE8F08100BF80206065C4
:1006E0000120002184F83410BDE8F08146451BDC70
:1006F00040F23F41C4F202018E422DDC40F2104133
:10070000C4F202018E4246D040F228413EE000BFD2
:100710009F21C4F202018E4228DC7021C4F2020142
:100720008E4238D0882131E040F29F41C4F202016C
:100730008E4223DC40F27041C4F202018E422AD084
:1007400040F2884122E000BF4021C4F202018E4203
:1007500021D058211AE000BF40F24041C4F202010A
:100760008E4218D040F2584110E000BFA021C4F2E0
:1007700002018E420FD0B82108E000BF40F2B8411C
:10078000C4F202018E4206D040F2A041C4F202013E
:100790008E42314607D13146306820F01E0041F8C4
:1007A000140B6FF080000A68464500EA02000860FA
:1007B0001ADC9F20C4F20200864233DC5720C4F2C8
:1007C000020086425ADC1020C4F20200864200F089
:1007D00097802820C4F20200864200F091804020D9
:1007E000C4F202008AE000BF45F22F40C5F60200C5
:1007F00086422DDC40F2B740C4F2020086424BDC58
:1008000040F27040C4F20200864279D040F2884043
:10081000C4F20200864273D040F2A040C4F202004B
:100820006CE000BF40F22740C4F20200864243DC85
:10083000A020C4F20200864262D0B820C4F20200B6
:1008400086425DD040F21040C4F2020056E000BF84
:1008500045F26B40C5F6020086423FDC45F230406F
:10086000C5F6020086424BD045F24440C5F6020070
:10087000864245D045F258403EE000BF5820C4F2C1
:10088000020086423CD07020C4F20200864237D07B
:100890008820C4F2020031E040F2B840C4F2020005
:1008A00086422DD045F20840C5F60200864227D088
:1008B00045F21C4020E000BF40F22840C4F2020094
:1008C00086421DD040F24040C4F20200864217D05A
:1008D00040F25840C4F2020010E000BF45F26C4004
:1008E000C5F6020086420BD045F29440C5F60200E0
:1008F000864205D045F28040C5F60200864204D10A
:10090000206E016821F480710160306820F00100E0
:10091000306000BF3068C00710D000F00DFE401BF3
:100920000628F7D320206065032084F835000120D5
:10093000002184F83410BDE8F08100BF2068082150
:10094000B8424FF03F0211DC6F23C4F20203984219
:100950001EDC3F23C4F20203984235DC1023C4F2AC
:100960000203984257D0282350E000BF40451BDCCB
:1009700040F23F43C4F2020398422DDC40F21043A0
:10098000C4F20203984246D040F228433EE000BF42
:100990009F23C4F20203984228DC7023C4F20203AE
:1009A000984238D0882331E040F29F43C4F20203DA
:1009B000984223DC40F27043C4F2020398422AD0EA
:1009C00040F2884322E000BF4023C4F20203984271
:1009D00021D058231AE000BF40F24043C4F2020382
:1009E000984218D040F2584310E000BFA023C4F250
:1009F000020398420FD0B82308E000BF40F2A043A2
:100A0000C4F20203984206D040F2B843C4F2020393
:100A1000984240F0C580D4E9163707F01F074045DB
:100A200002FA07F25A5019DC9F21C4F202018842EF
:100A300032DC5721C4F20201884259DC1021C4F291
:100A40000201884200F096802821C4F20201884207
:100A500000F090804021C4F2020189E045F22F416C
:100A6000C5F6020188422DDC40F2B741C4F2020112
:100A700088424BDC40F27041C4F20201884279D0D6
:100A800040F28841C4F20201884273D040F2A04192
:100A9000C4F202016CE000BF40F22741C4F202013F
:100AA000884243DCA021C4F20201884262D0B8210E
:100AB000C4F2020188425DD040F21041C4F202014A
:100AC00056E000BF45F26B41C5F6020188423FDCAB
:100AD00045F23041C5F6020188424BD045F244410F
:100AE000C5F60201884245D045F258413EE000BFBC
:100AF0005821C4F2020188423CD07021C4F20201A4
:100B0000884237D08821C4F2020131E040F2B84176
:100B1000C4F2020188422DD045F20841C5F6020117
:100B2000884227D045F21C4120E000BF40F2284116
:100B3000C4F2020188421DD040F24041C4F20201D9
:100B4000884217D040F25841C4F2020110E000BFC1
:100B500045F26C41C5F6020188420BD045F2944142
:100B6000C5F60201884205D045F28041C5F6020172
:100B700088420BD1616EA26EE06E4A6030B10168AE
:100B800021F480710160D4E91C014160012084F8E6
:100B900035000020002184F83410BDE8F08100BF4A
:100BA0000421012237E70000F0B190F83510022946
:100BB00018D180B540F20F420168C4F2020291429E
:100BC00014DC6F23C4F20203994225DC3F23C4F2F4
:100BD000020399423CDC1023C4F2020399425DD027
:100BE000282357E0802141650120704740F26F4380
:100BF000C4F2020399421BDC40F23F43C4F20203F9
:100C000099422DDC40F21043C4F20203994245D0D0
:100C100040F228433EE000BF9F23C4F20203994202
:100C200028DC7023C4F20203994237D0882331E0D4
:100C300040F29F43C4F20203994223DC40F2704326
:100C4000C4F20203994229D040F2884322E000BF57
:100C50004023C4F20203994220D058231AE000BF77
:100C600040F24043C4F20203994217D040F2584385
:100C700010E000BFA023C4F2020399420ED0B823B3
:100C800008E000BF40F2B843C4F20203994205D025
:100C900040F2A043C4F20203994275D191424FF051
:100CA000040280F8352011DC6F20C4F2020081427A
:100CB00022DC3F20C4F20200814239DC1020C4F261
:100CC0000200814259D0282054E000BF40F26F401A
:100CD000C4F2020081421BDC40F23F40C4F2020039
:100CE00081422DDC40F21040C4F20200814244D027
:100CF00040F228403EE000BF9F20C4F20200814243
:100D000028DC7020C4F20200814236D0882031E015
:100D100040F29F40C4F20200814223DC40F2704066
:100D2000C4F20200814228D040F2884022E000BF95
:100D30004020C4F2020081421FD058201AE000BFB8
:100D400040F24040C4F20200814216D040F25840C6
:100D500010E000BFA020C4F2020081420DD0B820F4
:100D600008E000BF40F2B840C4F20200814204D063
:100D700040F2A040C4F202008142086820F0010065
:100D80000860002080BD00BF0A6822F00E020A60E1
:100D900045F25742C5F6020291420A6822F001026A
:100DA0000A600FDC45F22F42C5F60202914219DCBF
:100DB00045F20842C5F60202914229D045F21C4292
:100DC00022E000BF45F27F42C5F60202914213DCE9
:100DD00045F25842C5F60202914219D045F26C42E2
:100DE00012E000BF45F23042C5F6020291420FD038
:100DF00045F2444208E000BF45F29442C5F60202C3
:100E0000914205D045F28042C5F6020291421AD1C4
:100E1000D0E9181CD0E916E30A6822F480720A604F
:100E200003F01F01012202FA01F1CEF80410816ED5
:100E3000CCF80410C16E31B10A6822F480720A60E5
:100E4000D0E91C124A60012180F83510016D0022A2
:100E5000002980F8342094D08847002080BD00000D
:100E6000B0B5044600F068FB40F200010546C2F24E
:100E70000041621C097818BF0C4400BF00F05CFB05
:100E8000401BA042FAD3B0BDF0B12DE9F04F83B0C2
:100E90004AF200080446C4F200080068404533D016
:100EA00094F89810B9B3816921F01001816100F0C4
:100EB00043FB054620688169090707D500F03CFB24
:100EC000401B0B28F6D312E001207047816941F0E6
:100ED0000101816100F030FB054600BF2068816997
:100EE000C90721D100F028FB401B0B28F6D30120B5
:100EF000D4F89C100843C4F89C00032084F89800A0
:100F0000012003B0BDE8F08F08F58071616094F8AE
:100F100098100029C7D1002084F89900204600F0DD
:100F2000B3F92068BFE700BF816941F00201816128
:100F3000217C826922F04002012918BF403282617F
:100F4000617C826922F48042012908BF02F5804257
:100F50008261A17C826922F48052012918BF02F5C6
:100F600080528261816921F44073D4E902120B43FB
:100F70008361836923F0A4038361036923F0100371
:100F800003619AB1012A0DD0022A09D08369032A8C
:100F900043F080038361036943F01002026105D1CD
:100FA000202200E0042283691A438261D4E9057299
:100FB000E369561E6FF0FF02256A02EB0323B1F5C9
:100FC000407F43EA4663A5F1010646EA030640F284
:100FD0000003CFF6FF7303EB074746EA0701C16141
:100FE00010D1D4E90B65D4E90917013F02EB0622C1
:100FF0006FF00F063A4306EB05173A4303EB014146
:101000001143C160236E2BB1616ED0F8C020114333
:10101000C0F8C010E16DCDE90113D9424AF2983110
:10102000C0F6000109D0D0F8C820A36E22F0070254
:1010300051F823301A43C0F8C820D4F840C0BCF19E
:10104000000F09D0D0F8BC20636C22F0070251F8E1
:1010500023301A43C0F8BC20D4F848B0BBF1000FCD
:101060000AD0D0F8BC20E36C22F0700251F8233093
:1010700042EA0312C0F8BC20D4F850A0BAF1000F25
:101080000AD0D0F8BC20636D22F4E06251F823103E
:1010900042EA0121C0F8BC10404504D161688A6869
:1010A00022F003028A600021C4F89410C4F89C1056
:1010B000012184F8981004F13409D0F884104FF617
:1010C000FC729143656C99E80C02009541EA82013B
:1010D000C0F88410D0F8841021F47F0141EA034164
:1010E000C0F884109918D0F888306FF38F0343EA62
:1010F0008103C0F88830D0F8883023F4FE0343EA37
:101100000943C0F8883001EB4903D0F8A0606FF3C1
:101110008F0646EA8306C0F8A060D0F8A06026F4E7
:10112000FE0646EA0C46C0F8A06005FB0C36D0F877
:10113000B0306FF38F0343EA8603C0F8B030D0F8C5
:10114000B03023F4FE0343EA0B43C0F8B030E36C45
:10115000D0F8AC506FF38F0503FB0B6645EA8605AC
:10116000C0F8AC50D4F8548008FB0A65D0F8F060A1
:101170006FF38F0646EA8506C0F8F060D0F8F0E01D
:10118000A66D2EF47C1747EA0647C0F8F070F7000A
:1011900007EB8507D0F8C0506FF38F052F43C0F8D9
:1011A000C070D0F8C070009DDDF804E027F47C1713
:1011B00005FB0CFC4AF2000547EA0E47C0F8C07078
:1011C000C4F2000503FB0BC305F54067D0F8C0501F
:1011D00007EB820207EB810125F07C57029D47EA6D
:1011E0000567C0F8C07001EBC90008FB0A3721672A
:1011F000A16E00EB8C0C606700EB8303E266C4E930
:101200001EC30EFB01F300EB87006943C4F88000A6
:1012100000EBC600C4F8840000EB8300C4F888002B
:1012200000EB81004DF2FC31C4F20001C4F89000E3
:10123000884201D920205BE682421FD2114600205D
:1012400041F8040BD4F890309942BFF45AAE506084
:1012500002F10801D4F8903099423FBF906002F14A
:101260000C01D4F890309942BFF44BAED0601032EC
:10127000D4F890108A42E1D343E600BF002003B0C7
:10128000BDE8F08F0000000080B586B04AF2004251
:101290000068C4F20002002190420591CDE90311DB
:1012A000CDE901112ED04AF20001C4F200018842BA
:1012B00059D140F2C81144F2E040C2F20041C5F6F3
:1012C00002000A68002A02F101020A6008D1C1681E
:1012D00041F48071C160C16801F48071009100998E
:1012E000016841F08001016000684FF4C04100F0E6
:1012F00080000090009840F20040C5F6020000F522
:10130000C05025E040F2C81144F2E040C2F2004172
:10131000C5F602000A68002A02F101020A6008D13B
:10132000C16841F48071C160C16801F480710091AD
:101330000099016841F00201016000684FF44051DA
:1013400000F002000090009840F20040C5F6020054
:101350000191022102910021CDE90311092105919A
:1013600001A900F005F806B080BD000000000000F3
:101370002DE9F04F83B00F68002F00F0C98000F115
:10138000264642F2004506F1FF76C5F602050A221E
:10139000A8424FEAB62540F2040C08BF092200F12A
:1013A00020030093092DC5F6000C38BF4FEAB62282
:1013B000002400264FF0000801920AE008F101081D
:1013C0000F6837FA08F206F1020604F1040400F08F
:1013D0009F80012202FA08FE17EA0E09EED0D1F82A
:1013E00004B003220BF00307B2407D1E6FEA020A2D
:1013F000012D11D88268CD6802EA0A02B5402A435D
:101400008260CBF30015426822EA0E0205FA08F565
:101410002A43426004E000BF032F01D103271FE0ED
:10142000C2688D6802EA0A02B540022F42EA05024C
:10143000C26015D16FF0030204F01C0502EA580BDC
:10144000009A0F2352F80BE0AB400F692EEA03031A
:10145000AF403B4342F80B30D1F804B00BF0030728
:10146000026807FA06F302EA0A021BF4403F42EA66
:1014700003020260A2D044F2F44340F2084EC5F6E3
:101480000203C5F6000E0F251A6842F002021A6028
:101490001A6802F00202029228F00302029B04F092
:1014A0000C0352F80E709D40AF43019D05FA03F303
:1014B0003B4342F80E304FF0B04EDEF800204B6850
:1014C00042EA0907DD0258BF22EA09079D02CEF869
:1014D0000070DCF8002042EA090758BF22EA090739
:1014E0009D03CCF80070DCF8802042EA090758BF61
:1014F00022EA0907DB03CCF88070DCF87C2042EAA2
:10150000090758BF22EA0907CCF87C7056E700BFEC
:1015100003B0BDE8F08F0000002A08BF0904816114
:10152000704700000000000041F20000C5F60040D6
:101530000068000C7047000044F6DC60C2F2004016
:10154000006870470000000090F84120202A03D175
:1015500090F84020012A01D102207047242280F80F
:1015600041200268136823F001031360136823F419
:1015700080531360136819431160116841F0010131
:101580001160202180F84110002180F840100020D7
:10159000704700000000000090F84120202A03D18D
:1015A00090F84020012A01D102207047242280F8BF
:1015B00041200268136823F001031360136823F4C9
:1015C000706343EA01211160116841F0010111606B
:1015D000202180F84110002180F840100020704741
:1015E00010B310B590F8411031B9002180F84010C7
:1015F000044600F04DF82046242180F8411090E880
:101600001210C3680A68012B22F001020A6024F05C
:1016100070620A618A6822F400428A6006D14CF442
:1016200000428A600CE000BF01207047022B4CF49E
:1016300004428A6004D14A6842F4006203E000BFB9
:101640004A6822F400624A6000F1100C4A6842F0D5
:10165000007242F400424A60CA6822F40042CA6042
:101660009CE81C101A4342EA0422CA60026A42EA59
:101670000C020A600A6842F001020A60002141641B
:10168000202280F84120016380F84210002010BD24
:10169000B0B5B8B0044602A8C0210025CDE9365542
:1016A000CDE934553395FEF742FF45F600412068F9
:1016B000C4F2000188426BD045F60001C4F200017B
:1016C000884235D045F20041C4F20001884240F022
:1016D00091800820029002A80024039400F0B4FC3A
:1016E00008B1FEF7C5FF44F2E04533A9C5F602058F
:1016F000286840F002002860286800F0020001908D
:1017000001984FF4407033901220CDE93404042046
:10171000379040F200403694C5F60200FFF728FEED
:10172000A86840F40010A860A86800F400105FE00A
:101730000820029002A80024039400F085FC08B160
:10174000FEF796FF44F2E04533A9C5F60205286886
:1017500040F002002860286800F002000190019823
:101760004FF4406033901220CDE9340404203790C8
:1017700040F200403694C5F60200FFF7F9FDA86874
:1017800040F48000A860A86800F4800030E000BF4A
:101790000820029002A8039500F056FC08B1FEF75D
:1017A00067FF44F2E04440F20041C5F60204C5F68A
:1017B0000201206840F080002060206800F0800076
:1017C000019001984FF4C0703390122034900020A3
:1017D000CDE935000420379001F5C05033A9FFF75B
:1017E000C7FDA06840F40000A060A06800F40000FD
:1017F0000190019838B0B0BD40F2000044F6DC61C1
:10180000C2F20040C2F2004100780A681044086049
:10181000704700000000000080B5032000F0E0F8F1
:1018200001F07AFB44F218414AF2F033C5F60201A6
:10183000C0F600030A68C2F303229A5C096801F04B
:101840000F0102F01F02595CD04040F20C02C2F2BC
:10185000004201F01F0120FA01F1116040F208017D
:10186000C2F2004108600F2000F00AF800281CBFF7
:10187000012080BD00F058F8002080BD000000006D
:101880000F2845D8B0B58AB004461C200022214656
:10189000002500F075F81C2000F05EF840F204000E
:1018A000C2F20040046044F2E840C5F6020001685C
:1018B00041F001010160006801A900F001000290FF
:1018C000029802A801F074FA079C002C18BF0124AA
:1018D00001F0C2FA4DF68361A040C4F21B314FF013
:1018E000FF32A0FB010140F6C810C2F200404FF0E9
:1018F0008043036002EB9141C0E9011540F2E731FA
:10190000C0E9031502F040F820B101200AB0B0BDD3
:101910000120704740F6C810C2F2004002F09CF867
:101920000AB0B0BD0000000081B044F2F4400022D3
:10193000C5F60200016841F00201016000680F2154
:1019400000F0020000906FF00100009B01B000F079
:1019500017B8000000000000002848BF704700F0E2
:101960001F01012202FA01F14EF20012C0F34A10E7
:10197000CEF2000242F82010704700000000000084
:1019800070B54EF60C5C4FF0FF36CEF2000C00F155
:10199000604505F56445DCF80030C3F3022E8EF097
:1019A0000703042B28BF0423BEF1030406FA03F344
:1019B00021EA030100F00F0338BF0024043B002894
:1019C000634406FA04F048BF03F10C05A14022EA83
:1019D000000008430001287070BD000000000000F6
:1019E0004EF60C514FF6FF03CEF200010A681A4082
:1019F00060F30A2242F0806040F0FD70086070479A
:101A000001680122C0F8D824002280F8CC2488691B
:101A100040F000608861486D40F08052002042F044
:101A200003024A6570470000002800F02781F0B5E6
:101A300081B0044690F8950428B9002084F89404F5
:101A4000204600F031F9032084F89504206806F060
:101A50009BFAD4E90001267CD4E90223009605F024
:101A600013FF002840F004812068002106F094FA5A
:101A7000002840F0FD8094F804E0BEF1000F00F073
:101A8000EE80BEF1040F0EF0030C4FF0000241D3C4
:101A90000EF0FC03A4F1900003250121EE1E80F856
:101AA000A460A0F8BE60AE1E80F8C8606F1CA0F8ED
:101AB000E2606E1E80F8EC609F42A0F8066105F1BE
:101AC000040680F8A51080F8A820C0E92B22C0F8F1
:101AD000B42080F8C91080F8CC20C0E93422C0F8C6
:101AE000D82080F8ED1080F8F020C0E93D22C0F841
:101AF000FC2080F8111180F81051A0F82A513546C9
:101B000080F81421C0E94622C0F8202100F190009D
:101B1000C4D1F21EBCF1000F32D002EBC20104F1BD
:101B200014000123BCF1010F00EB810500F8212016
:101B30004FF000016B706A832971C5E902112961B8
:101B40001ED0551CBCF1020F05EBC50600EB860745
:101B500000F826507B707D833971C7E90211396125
:101B60000ED0911C012501EBC10200EB820300F8AD
:101B7000221000205D7059831871C3E902001861BA
:101B8000BEF1000F6BD0BEF1040F4FF0000236D350
:101B90000EF0FC0003232146DF1E81F854729F1EC5
:101BA00081F878725F1E81F89C725F1C1D1D81F8A0
:101BB0005522874281F85822C1E99722C1F8642250
:101BC00081F8792281F87C22C1E9A022C1F888221B
:101BD00081F89D2281F8A022C1E9A922C1F8AC2296
:101BE00081F8C12281F8C0322B4681F8C422C1E9B4
:101BF000B222C1F8D02201F19001CDD1EA1EBCF190
:101C0000000F2CD002EBC20304F515700021BCF1CB
:101C1000010F00EB830700F8232079703971C7E9C1
:101C2000021139611BD0531CBCF1020F03EBC30737
:101C300000EB870600F8273071703171C6E9021198
:101C400031610CD0911C002701EBC10200EB820333
:101C500000F822105F701F71C3E902771F61D4E999
:101C60000001277CD4E90223009705F035FF38B145
:101C7000022084F89504012001B0F0BD01207047D6
:101C800000206074012084F89504207B012802D193
:101C90002046FFF7B5FE206805F00EFF002001B0DA
:101CA000F0BD000000000000B0B5B8B0044602A8C6
:101CB0000830B82100253395CDE93655CDE93455A6
:101CC000FEF735FC00212068C4F20801884201D0EB
:101CD00038B0B0BD4FF4802002900F200C90B4209B
:101CE0000D9002240520CDE90F044FF4001024903C
:101CF00002A803950E94139500F0A6F908B1FEF71B
:101D0000B7FC00F051F844F2D84533A9C5F60205F6
:101D1000A86840F00100A860A86800F001000190E8
:101D200001984FF4C050CDE933040020CDE93500CF
:101D30000A2037900020C5F60200FFF719FB28683B
:101D400040F000602860286800F000600190019871
:101D500038B0B0BD00000000B0B544F60C05C5F6C3
:101D6000020529684907296806D401F00701081A05
:101D700018BF0120B0BD00BF21F007010843286053
:101D8000FFF7DAFB044600BF55F8080C800407D4BF
:101D9000FFF7D2FB001BB0F57A7FF5D90120B0BD6B
:101DA0000020B0BD0000000044F60C00C5F60200A3
:101DB000016841F080710160704700000000000080
:101DC00080B501F021F844F220414AF2F032C5F624
:101DD0000201C0F600020968C1F30211515C01F072
:101DE0001F01C84080BD000080B544F2384EC5F6E2
:101DF000020E5EF8103C5EF8101C5EF80C2CC1F36D
:101E0000053CDEF80410BCF1000F15D0C908D2065D
:101E100001EAE2716FF35F3100EE101A03F0030183
:101E20000229B8EE400A0DD081B95EF8381C890647
:101E300010D49FED361A1BE000218160C0E900112B
:101E400080BD00BF9FED301A12E000BF9FED2D1A3C
:101E50000EE000BF5EF8381C49F20002C0F2D0323A
:101E6000C1F3C10122FA01F101EE101AB8EE411AD4
:101E7000DEF800109FED263A6FF35F2102EE101A94
:101E8000DEF80010C1F34621B8EE422A00EE032A24
:101E900000EE10CAB7EE003AB8EE400A81EE000A32
:101EA00032EE031A02EE101AB8EE422A20EE010AB0
:101EB00032EE031A80EE011ABCEEC11A80ED001A50
:101EC000DEF80010C1F3064101EE101AB8EE411A17
:101ED00031EE031A80EE011ABCEEC11A80ED011A30
:101EE000DEF80010C1F3066101EE101AB8EE411AD7
:101EF00031EE031A80EE010ABCEEC00A10EE101A91
:101F0000816080BD0024744A20BCBE4B0024744C08
:101F1000000000390000000080B544F2404EC5F6D4
:101F2000020E5EF8183C5EF8181C5EF8142CC1F323
:101F3000055CDEF80410BCF1000F15D0C908D2050D
:101F400001EAE2716FF35F3100EE101A03F0030152
:101F50000229B8EE400A0DD081B95EF8401C89060E
:101F600010D49FED361A1BE000218160C0E90011FA
:101F700080BD00BF9FED301A12E000BF9FED2D1A0B
:101F80000EE000BF5EF8401C49F20002C0F2D03201
:101F9000C1F3C10122FA01F101EE101AB8EE411AA3
:101FA000DEF800109FED263A6FF35F2102EE101A63
:101FB000DEF80010C1F34621B8EE422A00EE032AF3
:101FC00000EE10CAB7EE003AB8EE400A81EE000A01
:101FD00032EE031A02EE101AB8EE422A20EE010A7F
:101FE00032EE031A80EE011ABCEEC11A80ED001A1F
:101FF000DEF80010C1F3064101EE101AB8EE411AE6
:1020000031EE031A80EE011ABCEEC11A80ED011AFE
:10201000DEF80010C1F3066101EE101AB8EE411AA5
:1020200031EE031A80EE010ABCEEC00A10EE101A5F
:10203000816080BD0024744A20BCBE4B0024744CD7
:1020400000000039000000002DE9F0470446C07888
:1020500044F22C480007C5F6020828D5A06E4FEAC6
:10206000305103292AD8DFE801F0030B131B00BF0E
:10207000D8F8001041F40031C8F8001010E000BF9B
:1020800004F10800022103F0E7FC064680B906E0EF
:1020900004F12800022103F073FD064640B9A06E4A
:1020A000D8F8241021F440110843C8F82400002671
:1020B0006078C00706D135462FE000BF0126607862
:1020C000C007F8D0A06D042858D83546DFE800F0E6
:1020D00004140E0B0B0000BFD8F80000354640F486
:1020E0000030C8F800002F46C5B90DE004F1280003
:1020F000002103F045FD04E004F10800002103F095
:10210000ABFC05462F464DB9D8F82400A16D20F050
:10211000070000250843C8F8240037466078800788
:1021200031D5E06D4FEAB01004285FD8DFE800F049
:1021300004140E0A0A0000BFD8F8000040F4003072
:10214000C8F800002E46FDB90EE000BF04F12800DB
:10215000002103F015FD04E004F10800002103F064
:102160007BFC05462E467DB9D8F82400E16D20F4AD
:10217000E07000250843C8F8240004E00125012789
:1021800060788007CDD43E466078400733D5D4F8D8
:10219000A8004FEA7050042860D8DFE800F003136D
:1021A0000D090900D8F8000040F40030C8F800001C
:1021B000A9460DBB0EE000BF04F12800002103F08A
:1021C000DFFC04E004F10800002103F045FC0546B3
:1021D000A9468DB9D8F82C00D4F8A81020F46000D6
:1021E00000250843C8F82C0005E000BF01250126A2
:1021F00060784007CBD4B1466078000734D5D4F876
:10220000AC004FEA306004285ED8DFE800F003132A
:102210000D090900D8F8000040F40030C8F80000AB
:102220002F4615BB0EE000BF04F12800002103F08B
:10223000A7FC04E004F10800002103F00DFC0546B2
:102240002F4695B9D8F82C00D4F8AC1020F0E060F7
:1022500000250843C8F82C0006E000BF01254FF018
:10226000010960780007CAD44F46E078800730D56E
:10227000E06C4FEA3010032820D8DFE800F00903B3
:10228000150900BFD8F8000040F40030C8F800007D
:102290002E46ADB9D8F82000E16C20F030000025C2
:1022A0000843C8F8200014E004F10800022103F0FC
:1022B000D3FB05462E461DB9ECE700BF01250126DC
:1022C0006078C00609D434E001250127E078800752
:1022D000CED43E466078C0062BD5206E4FEA303013
:1022E000042839D8DFE800F004140E0A0A0000BF01
:1022F000D8F8000040F40030C8F800002F46CDB9EF
:102300000EE000BF04F12800002103F039FC04E0D6
:1023100004F10800002103F09FFB05462F464DB94C
:10232000D8F82400216E20F4E04000250843C8F8C6
:10233000240037466078800635D5606E4FEA30401D
:10234000052815D8DFE800F0041A0E04040400BFC5
:102350002E46DDB91EE000BF01250127607880060A
:10236000EBD420E004F12800012103F009FC0AE08D
:10237000012501266078400619D449E004F10800DF
:10238000012103F069FB05462E461DB16078400629
:102390000DD43DE0D8F82400616E20F4E020002543
:1023A0000843C8F824003E466078400630D5D4F88B
:1023B000B0004FEA307005280ED8DFE800F00313B4
:1023C000070303032F46ADB918E000BF04F128004E
:1023D000012103F0D5FB0AE0012501276078000602
:1023E0001AD43CE004F10800012103F035FB054656
:1023F0002F461DB1607800060ED430E0D8F82C00CE
:10240000D4F8B01020F0E04000250843C8F82C00B4
:1024100037466078000622D5206F58B1B0F1005FD2
:102420000CD0B0F1805F37D1D8F8000040F4003014
:10243000C8F800002E469DB908E000BF04F108006E
:10244000012103F009FB05462E464DB9D8F82400BA
:10245000216F20F0405000250843C8F824003E4674
:10246000E078C0071DD0A06C032855D8DFE800F045
:1024700008024A08D8F8000040F40030C8F800000C
:10248000A9467DB9D8F82000A16C20F003000025F2
:102490000843C8F8200004E001250126E078C007C1
:1024A000E1D1B146A078400602D44F4618E000BF03
:1024B000D8F8D40340F48070C8F8D403FFF73CF890
:1024C000064600BFD8F8D403C00507D4FFF734F898
:1024D000801B6428F6D90325032701E02F46FDB1B0
:1024E0002078C00700F06F80E06F4FEAF000052809
:1024F0004ED8DFE800F0035347030303002D2E46B8
:1025000054D157E004F10800022103F0A5FA054672
:10251000002DA946C6D1B5E701254FF00109C1E755
:10252000D8F84410D4F8B400414011F4407F11D0E1
:10253000D8F84410D8F8442042F48032C8F8442037
:10254000D8F8442021F4407122F48032C8F84420A5
:10255000C8F84410B0F5807F40F0E082FEF7ECFF51
:10256000064641F2883A0325032700BFD8F8440005
:10257000800700F1D182FEF7DFFF801B5045F5D9BF
:10258000AEE700BF04F12800012103F0F9FA0AE0E8
:10259000012501262078800719D446E004F10800BF
:1025A000012103F059FA05462E461DB12078800717
:1025B0000DD43AE0D8F82800E16F20F0380000256B
:1025C0000843C8F828003E46207880072DD5A06F24
:1025D00005280FD8DFE800F004140804040400BF45
:1025E0002F46ADB918E000BF04F12800012103F027
:1025F000C7FA0AE0012501272078400719D447E0EF
:1026000004F10800012103F027FA05462F461DB109
:10261000207840070DD43BE0D8F82800A16F20F0C7
:10262000070000250843C8F82800374620784007EF
:102630002ED5D4F8940005280ED8DFE800F0031357
:10264000070303032E46ADB918E000BF04F12800CC
:10265000012103F095FA0AE0012501262078800681
:102660001AD44BE004F10800012103F0F5F9054606
:102670002E461DB1207880060ED43FE0D8F82C00FD
:10268000D4F8941020F0070000250843C8F82C0067
:102690003E462078800631D5D4F890004FEA30705D
:1026A00005280FD8DFE800F004140804040400BF74
:1026B0002F46ADB918E000BF04F12800022103F055
:1026C0005FFA0AE001250127207840061AD44BE082
:1026D00004F10800002103F0BFF905462F461DB1A3
:1026E000207840060ED43FE0D8F82800D4F89010A7
:1026F00020F0E04000250843C8F82800374620783D
:10270000400631D5D4F89C004FEAB02005280FD8F8
:10271000DFE800F004140804040400BF2E46ADB93D
:1027200018E000BF04F12800022103F029FA0AE0B2
:1027300001250126207800061AD44EE004F1080095
:10274000002103F089F905462E461DB120780006C8
:102750000ED442E0D8F82C00D4F89C1020F4E050BD
:1027600000250843C8F82C003E462078000634D5E2
:10277000D4F8A0004FEA7030052815D8DFE800F043
:10278000041A0E04040400BF2F46E5B120680107B7
:1027900027D4C1063ED4000355D477E004F12800C5
:1027A000022103F0EDF90AE0012501272068010765
:1027B000EFD516E004F10800002103F04DF90546BD
:1027C000002D2F46E2D1D8F82C00D4F8A01020F428
:1027D000604000250843C8F82C00374620680107F0
:1027E000D7D5D4F88400B0F5805F09D104F1280072
:1027F000022103F0C5F9002818BF0127D4F884008E
:10280000D8F8281021F440510843C8F8280020685F
:10281000C106C0D5D4F89800B0F5807F09D104F185
:102820002800022103F0ACF9002818BF0127D4F8D2
:102830009800D8F82C1021F440710843C8F82C00F7
:102840002068000322D5D4F8A400B0F5003F11D0D1
:10285000B0F5803F08D0002844D104F108000021E1
:1028600003F0FAF805E000BF04F12800022103F0AC
:1028700087F905462E4655B9D8F82C00D4F8A4108F
:1028800020F4403000250843C8F82C003E46A078CC
:1028900040072CD5D4F88800B0F5401F0BD0B0F518
:1028A000001F0BD0B0F5801F2AD1D8F8000040F4EB
:1028B0000030C8F800002F46D5B907E004F1280021
:1028C000012103F05DF905462F468DB9D8F828009F
:1028D000D4F8881020F4401000250843C8F82800D8
:1028E00005E000BF01250126A0784007D2D4374675
:1028F000A078C00709D13E462168880015D532E08E
:1029000001250127A078C007F5D0206DB0F5803FE4
:1029100010D018BBD8F8000040F40030C8F8000010
:102920002E4685B1216888001DD460688A0326D4AC
:1029300069E000BF04F10800022103F08DF80546AC
:10294000002D2E46EED1D8F82000216D20F48030E5
:1029500000250843C8F82000CDE700BF0125012667
:1029600021688800E1D504F12800022103F008F96C
:10297000002818BF0126D4E900108A0343D5D4F8F3
:1029800080206FF0010303EB3223022B0BD34FEABD
:10299000322343B1012B40F0B980D8F8003043F422
:1029A0000033C8F800303DB3CA022FD4CA0037D470
:1029B0008A0240D44A0048D4CA0F55D109025DD4D6
:1029C000C10766D181076FD4410779D4010700F1AF
:1029D0008380C10600F18C80800607D504F12800B1
:1029E000022103F0CDF8002818BF0125002D18BFE3
:1029F00001252846BDE8F087D8F8283023F4407335
:102A00001A43C8F828203546CA02CFD5D8F8242062
:102A1000636F22F000421A43C8F82420CA00C7D5C9
:102A200058F81C2CD4F8B83022F480421A4348F8E5
:102A30001C2C8A02BED5D8F82420E36E22F08072C6
:102A40001A43C8F824204A00B6D558F81C2C22F4A2
:102A5000004248F81C2CD4F8BC2058F81C3C1A43FF
:102A600048F81C2CCA0FA9D0D8F82020636D22F09A
:102A700040521A43C8F820200902A1D5D8F82810DE
:102A8000D4F88C2021F440011143C8F82810C10764
:102A900098D004F10800002102F0DEFF002818BFE2
:102AA0000546606881078FD504F10800012102F016
:102AB000D3FF002818BF0546606841077FF586AF41
:102AC00004F10800022102F0C7FF002818BF0546E4
:102AD000606801077FF57DAF04F12800002103F055
:102AE0004FF8002818BF05466068C1067FF574AF2F
:102AF00004F12800012103F043F8002818BF05461F
:102B0000606880063FF56AAF70E700BF0125CA0222
:102B10007FF54CAF7AE700BFD4F8B4004FF6CF731F
:102B200058F81C2CC0F2FF0300F4407122F47C52D0
:102B300003EA10136FF31F30B1F5407F08BF1A434B
:102B4000002548F81C2CD8F844100843C8F8440065
:102B5000FFF7ABBC000000002DE9F04381B0002876
:102B600000F0208142F200090446C5F20029D9F89C
:102B7000000000F00F0088420DD2D9F8000020F0CC
:102B80000F000843C9F80000D9F8000000F00F005A
:102B9000884240F00781206844F218464207C5F693
:102BA00002060AD52269336803F070039A4204D9F9
:102BB000336823F070031A43326002070AD5626952
:102BC000736803F070039A4204D9736823F07003AA
:102BD0001A437260C2060AD5A269736803F4E063FF
:102BE0009A4204D9736823F4E0631A437260820640
:102BF0000AD5E269B36803F070039A4204D9B36856
:102C000023F070031A43B26010F002020AD0E368A6
:102C1000376807F00F07BB4204D9376827F00F0762
:102C20003B433360C3073FD0306820F47062D4E97F
:102C300001031A433260012856F8182C0AD00328E1
:102C400004D002280AD192030BD4ABE0920108D43D
:102C5000A8E000BFD20504D4A4E000BF520740F1B1
:102C6000A180884656F8081C21F00701084346F861
:102C7000080CFEF761FC054641F2883756F8080C4F
:102C8000616800F03800B0EBC10F09D0FEF754FCCA
:102C9000401BB842F2D9032001B0BDE8F08300BF69
:102CA0002068414600F0020252B1E268336803F046
:102CB0000F039A4204D2336823F00F031A433260A1
:102CC000D9F8002002F00F028A420CD9D9F800206E
:102CD00022F00F020A43C9F80020D9F8002002F0C0
:102CE0000F028A425ED141070AD52169326802F09B
:102CF0007002914204D2326822F0700211433160B6
:102D000001070AD56169726802F07002914204D22B
:102D1000726822F0700211437160C1060AD5A16980
:102D2000726802F4E062914204D2726822F4E062B6
:102D30001143716080060AD5E069B16801F0700145
:102D4000884204D2B16821F070010843B06000F0FD
:102D5000E3F831684AF2F032C0F60002C1F3032111
:102D6000515C336803F00F0301F01F01D25C20FABD
:102D700001F102F01F0040F20C02C2F2004221FAFF
:102D800000F0106040F2040040F20802C2F200407D
:102D9000C2F200420068116001B0BDE8F043FEF7E6
:102DA0006FBD00BF012001B0BDE8F083000000004E
:102DB0003F22026044F21842C5F6020252F8083C73
:102DC00003F007034360136803F4706383601368C0
:102DD00003F00F03C360136803F0700303615368CB
:102DE00003F070034361536803F4E0638361926806
:102DF00002F07002C26142F20000C5F200200068D9
:102E000000F00F000860704780B500F085F844F2CC
:102E100018414AF2F033C5F60201C0F600030A6811
:102E2000C2F303229A5C096801F00F0102F01F024D
:102E3000595C20FA02F201F01F0040F20C01C2F2CC
:102E4000004122FA00F0086040F20801C2F200419D
:102E50000A6080BD0000000080B500F05DF844F21B
:102E6000184C4AF2F033C5F6020CC0F60003DCF849
:102E70000020C2F303229A5CDCF8001001F00F017D
:102E800002F01F02595CD04040F20C02C2F2004234
:102E900001F01F0120FA01F1116040F20802C2F2B4
:102EA00000421060DCF80400C0F30210185C00F06F
:102EB0001F0021FA00F080BD80B500F02DF844F22B
:102EC000184C4AF2F033C5F6020CC0F60003DCF8E9
:102ED0000020C2F303229A5CDCF8001001F00F011D
:102EE00002F01F02595CD04040F20C02C2F20042D4
:102EF00001F01F0120FA01F1116040F20802C2F254
:102F000000421060DCF80400C0F30220185C00F0FE
:102F10001F0021FA00F080BD44F20041C5F6020115
:102F20000869C0F3C200032816D002280ED098BB4F
:102F30000868800649F20000C0F2D03058BF7047E0
:102F40000968C1F3C101C840704700BF47F640009F
:102F5000C0F27D10704700BF8A6A886AC0F3051C02
:102F6000C86ABCF1000F4B6B1CD000F0010040425E
:102F700000EAD3006FF35F3000EE100A02F00300A6
:102F80000228B8EE400A0FD090B90868800613D422
:102F90009FED251A1DE000BF40F60010C0F23D0075
:102FA000704700BF002070479FED1E1A11E000BF60
:102FB0009FED1B1A0DE000BF086849F20002C0F245
:102FC000D032C0F3C10022FA00F001EE100AB8EED0
:102FD000411A086B9FED153A6FF35F2002EE100A5D
:102FE000086BC0F34620B8EE422A013000EE032AF7
:102FF00000EE10CAB7EE003AB8EE400A81EE000AC1
:1030000032EE031A20EE010A01EE100AB8EE411A60
:1030100080EE010ABCEEC00A10EE100A704700BF35
:103020000024744A20BCBE4B0024744C00000039BC
:1030300070B3F0B581B00446007844F20046C00792
:10304000C5F6020626D12078800740F1C28030699B
:1030500010F03801B06A3FD0182908BF5FEA8070CD
:103060003AD0E0683168002862D021F019010843A5
:103070003060FEF761FA05463068400748D4FEF735
:103080005BFA401B0228F7D9032001B0F0BD00BF56
:1030900001207047306900F03801B06A102905D06E
:1030A00018290BD100F00300022807D130688003F3
:1030B000C9D560680028C6D13CE100BF61683068AE
:1030C00000294FD0B1F5A02F44D0B1F5803F5FD19A
:1030D00040F4803062E000BF30684007E06802D50D
:1030E000002800F02781316821F019010843306081
:1030F000FEF722FA054600BF3068400708D4FEF705
:103100001BFA401B02284FF00300F5D901B0F0BDB7
:10311000FEF70AFA41F2030188424FD8206971682C
:10312000402821F47C3151D141F4003050E000BFFF
:1031300021F001003060FEF7FFF9054630684007D6
:1031400047D5FEF7F9F9401B02284FF00300F5D9E7
:10315000DCE700BF40F480203060306840F480300D
:103160001CE000BF20F480303060306820F4802004
:103170003060FEF7E1F90546306880037FF563AF04
:10318000FEF7DAF9401B64284FF00300F4D9BDE7DD
:1031900020F480303060306820F480203060FEF70A
:1031A000CBF90546306880033FF54DAFFEF7C4F913
:1031B000401B6428F6D9032001B0F0BD7068216976
:1031C00020F0FE4040EA016002E000BF41EA00302A
:1031D00070602078C00654D5306900F03801B06ABC
:1031E000082905D0182919D100F00300012815D1AC
:1031F0003068C00503D5E069802840F09B80FEF769
:1032000093F941F2030188421ED8206A7168202890
:1032100021F0F84132D141F0804031E0E0690028EE
:10322000306819D040F080003060FEF785F905461F
:103230003068C005E3D4FEF77FF9401B02284FF049
:103240000300F5D962E700BFF068216A20F07C50E6
:1032500040EA0160F06014E020F080003060FEF78A
:103260006BF905463068C0050BD5FEF765F9401BC4
:1032700002284FF00300F5D948E700BF41EA80601B
:103280007060207800073FD42078800656D42078DC
:10329000400769D4656A9DB3306900F0380018288A
:1032A00040F0A880012DB16A306B43D001F00302D9
:1032B000A36A9A423ED1C1F30511E26A914239D123
:1032C0000146226B6FF35F21013A914232D1C0F384
:1032D0004622616B01398A422CD1C0F30642A16BB0
:1032E00001398A4226D1C0F30660E16B0139884278
:1032F00020D1706BA16CC0F3CC00814240F03481CE
:10330000002001B0F0BD00BF60690028706F41D09F
:1033100040F001007067FEF70FF90546706F8007F7
:10332000B2D4FEF709F9401B0228F7D9032001B0F7
:10333000F0BD00BF012001B0F0BD00BFA0690028B2
:10334000306845D040F480503060FEF7F5F805460F
:10335000306880049BD4FEF7EFF8401B0228F7D9B1
:10336000032001B0F0BD00BFD6F8000440F4807027
:10337000C6F80004FEF7E0F8054600BFD6F80004E2
:10338000C00519D4FEF7D8F8401B6428F6D90320ED
:1033900001B0F0BD20F001007067FEF7CDF80546E2
:1033A000706F80077FF570AFFEF7C6F8401B0228EC
:1033B0004FF00300F4D9A9E6A168306F002943D08B
:1033C000052939D0012957D140F001005AE000BF4A
:1033D00020F480503060FEF7AFF805463068800476
:1033E0007FF555AFFEF7A8F8401B02284FF0030009
:1033F000F4D98BE6306820F080703060FEF79CF8DE
:10340000022D05460CD100BF306880014CD5FEF777
:1034100093F8401B02284FF00300F5D976E600BF71
:10342000306880017FF56CAFFEF786F8401B0228FC
:103430004FF00300F4D969E640F004003067306FC4
:1034400040F001001EE000BF20F001003067306F47
:1034500020F004003067FEF76FF8054641F2883728
:10346000306F80077FF516AFFEF766F8401BB84255
:103470004FF00300F4D949E620F001003067306FC7
:1034800020F004003067FEF757F8054641F2883710
:10349000306F80073FF5FEAEFEF74EF8401BB84296
:1034A0004FF00300F4D931E604F12807B06A40F286
:1034B000F33188438ECF0843591E40EA02104FF47F
:1034C0007E426FF35F21B06202EB47204FF4FE02B1
:1034D00080B2E36B0844A16B02EB01414FF0FE4266
:1034E00001F4FE0102EB0362084402F0FE410844CD
:1034F0003063F06A4FF6F87120F00100F062706BF3
:10350000A26C884340EAC2007063F06A216C20F02C
:103510000C000843F062F06A616C20F0020008437E
:10352000F062F06A40F48030F062F06A40F40030FB
:10353000F062F06A40F48020F062F06A40F001002E
:10354000F062306840F080703060FDF7F5FF0446AF
:10355000306880013FF5D4AEFDF7EEFF001B022876
:103560004FF00300F4D9D1E5F06A20F00100F062D9
:10357000FDF7E2FF0546FDF7DFFFA842FBD0706BC9
:103580004FF6F871A26C884340EAC2007063F06A9B
:1035900040F00100F062002001B0F0BD000000002A
:1035A00000284DD02DE9F04F81B043F600040168AA
:1035B000C4F2000443F2000E43F6004CA142C4F2F0
:1035C000010EC4F2000C4FF00002826203D061458C
:1035D00018BF714542D1C26B0125C368A14203F1F6
:1035E000080305EB52124FEAD30303FB02F218BFA4
:1035F000714527D1102A34D890F8811031B90021B3
:1036000080F88010044600F0ABF82046022180F8D4
:103610008110D0E90019D0F818800D68B8F1806FDA
:1036200025F001050D608D6805F4F81E26D1B9F16D
:10363000000F1BD0B9F5800F20D1856B25BB19E099
:1036400001207047614518BF082A0AD80CF5744359
:103650009942CFD06145CDD0CEE700BFC2680F2AD6
:10366000B9D9012001B0BDE8F08F00BF856BB5F17D
:10367000805F06D10D6845F480550D605FEA4925ED
:1036800002D44FF0010C0FE0C468072C0AD30D6878
:1036900025F4807C056D45EA0C050D604FF0000CAB
:1036A00007E000BF4FF0000C0C6824F480740C603D
:1036B000C468C769836A47EA0E07C26B3B438768E1
:1036C0001A43B9F1000FD0E904BA42EA04028A6051
:1036D000426B856B436A42EA0302036A42EA0502CF
:1036E00042EA0B0242EA0A02D0E9126442EA030209
:1036F000836D42EA040242EA070242EA060242EA13
:10370000030242EA080242EA0902CA600ED00A6DC8
:10371000BCF1000F22F001020A6515D1CA68436DA1
:1037200022F000421A43CA600EE000BF8A680123FB
:1037300063F3CC228A608A68022363F34A228A6098
:103740000A6D22F001020A650021C0F884100121EF
:1037500080F88110002001B0BDE8F08F000000006B
:103760002DE9F04186B043F200010068C4F2010186
:10377000002688420596CDE903660296019603D09D
:1037800006B0BDE8F08100BF44F2E04040F60044DE
:10379000C5F60200C5F6020401AD4FF0020801694A
:1037A000052741F480510161016901F480510091C4
:1037B0000099016841F008010160016801F0080109
:1037C00000910099016841F04001016000682946BC
:1037D00000F0400000900098802001902046CDE944
:1037E000028604960597FDF7C3FD4FF460602946F5
:1037F000CDE9010804F540600597CDE90366FDF7C2
:10380000B7FD06B0BDE8F081704700000000000081
:10381000704700000000000070470000000000003A
:1038200090F83C20012A01D102207047B0B5CB6846
:1038300048F2FF7ED1E901C223F47C5322F4705296
:10384000CFF6F07E42EA03040CEA0E030A68234333
:1038500022F477220C691A4324F47623D0F800C0AE
:103860001A434B691A438B6A22F4742E23F4702393
:103870008A6940F200454CF48064C4F2010543EAD1
:103880000E03AC4243EA02430FD1002523F07C72C1
:103890004B6ACFF6F045CC6905EA03531A4324F08E
:1038A0000073096A1A4342EA0103CCF8443000214C
:1038B00080F83C100020B0BD90F83C20012A4FF069
:1038C00002025ED0B0B580F83D2040F2004C0268A4
:1038D000C4F2010C42F4806363455368D2F808E0F7
:1038E00002BF23F470034C68234341F2FF740D6858
:1038F000C4F2000423F07003A24243EA05035360BC
:103900000CDC40F2FF73C4F200039A4216DCB2F101
:10391000804F29D040F2004318E000BF40F2FF334F
:10392000C4F201039A4217DC41F60003C4F200031B
:103930009A4219D00023C4F2010309E040F60003C3
:10394000C4F200039A420FD040F60043C4F20003D1
:103950009A4209D00DE000BF44F20003C4F2010313
:103960009A4201D0624504D12EF080038968194340
:1039700091600022012180F83D1080F83C20BDE8D4
:10398000B04010467047000060B310B5044690F890
:103990003D0028B9002084F83C00204600F024F8BF
:1039A000022084F83D002068211D02F08DFA0120DC
:1039B00084F8480084F83E0084F83F0084F8400012
:1039C00084F8410084F8420084F8430084F84400FD
:1039D00084F8450084F8460084F8470084F83D00E8
:1039E000002010BD0120704780B586B0002200681D
:1039F000C4F20102002190420591CDE90311029128
:103A0000019101D006B080BD44F2E040C5F602004D
:103A1000026942F001020261026902F001020092B1
:103A2000009A026842F010020260006800F0100084
:103A3000009000984FF4804001900220CDE90201EF
:103A40000120059041F200000491C5F6020001A991
:103A5000FDF78EFC06B080BD90F83D1001291BD10A
:103A6000022180F83D10016841F2FF70C4F20000AD
:103A70008142C86840F00100C8600FDC40F2FF706E
:103A8000C4F20000814217DCB1F1804F2CD040F22B
:103A90000040C4F2000025E00120704740F2FF30F2
:103AA000C4F20100814213DC41F60000C4F20000C0
:103AB000814219D0002013E040F60000C4F200005B
:103AC000814211D040F60040C4F200000AE000BF7D
:103AD00044F20000C4F20100814205D040F20040EF
:103AE000C4F2010081420BD107228868C0F20102B2
:103AF00002400020062A18BFB2F5803F00D170476F
:103B0000086840F0010008600020704700000000D5
:103B1000704700000000000090F83C30012B01D1FC
:103B2000022070474FEAB202032A00F29180F0B5FA
:103B3000DFE802F0026626460368D1F80CE0D1E91E
:103B400000C51C6A41F2FF761A6AC4F2000622F030
:103B500001021A621A46B34252F8186F00F37E80CF
:103B600040F2FF77C4F20007BB4200F38580B3F157
:103B7000804F00F0998040F20047C4F2000791E0C6
:103B80000768D1E900C5D1E9023161F307153C6A44
:103B90003A6A22F480723A623A4652F81C6F26F072
:103BA000F30645EA06010CF00A0624F420651160CC
:103BB00045EA06213962116821F00C01116084E0A8
:103BC00003684FF2FF0ED1E90076D1E902C11C6A09
:103BD00036021A6A26EA0E0661F30F3622F4805284
:103BE0001A621A4607F00A0752F81C5F25F473455B
:103BF00046EA050124F42046116046EA07311EE03A
:103C000003684FF2FF0ED1E90076D1E902C11C6AC8
:103C100036021A6A26EA0E0661F30F3622F0100207
:103C20001A621A4607F00A0752F8185F25F473451E
:103C300046EA050124F0A006116046EA0711196260
:103C40004FEA0C23116821F4406111603DE000BF90
:103C50000121002280F83C200846704740F2FF37DF
:103C6000C4F20107BB4213DC41F60007C4F20007AF
:103C7000BB4219D0002713E040F60007C4F200074A
:103C8000BB4211D040F60047C4F200070AE000BF73
:103C900044F20007C4F20107BB4205D040F20047DE
:103CA000C4F20107BB421BD126F00306354324F0C2
:103CB0000A070CF00A066EF307159D6137441F6270
:103CC0009F6927F00C079F618B6811681943116089
:103CD0000021BDE8F040002280F83C2008467047F3
:103CE00046F00105E3E7000060B310B5044690F824
:103CF0003D0028B9002084F83C00204600F024F85C
:103D0000022084F83D002068211D02F0DDF801202A
:103D100084F8480084F83E0084F83F0084F84000AE
:103D200084F8410084F8420084F8430084F8440099
:103D300084F8450084F8460084F8470084F83D0084
:103D4000002010BD012070477047000000000000F7
:103D5000F0B581B004460068C5680669B10717D59B
:103D600015F0020114D06FF00201016101212177E9
:103D70008069800704D02046FFF7CAFE06E000BF36
:103D8000204600F0A5FA204600F0DAFA002020775D
:103D9000700719D515F0040016D020686FF00401E3
:103DA000016102212177806910F4407F04D0204610
:103DB000FFF7AEFE06E000BF204600F089FA20467D
:103DC00000F0BEFA00202077300717D515F0080064
:103DD00014D020686FF00801016104212177C069C7
:103DE000800703D02046FFF793FE05E0204600F051
:103DF0006FFA204600F0A4FA00202077F00619D5CB
:103E000015F0100016D020686FF010010161082134
:103E10002177C06910F4407F04D02046FFF778FE78
:103E200006E000BF204600F053FA204600F088FA72
:103E300000202077F00718BF15F0010006D0206899
:103E40006FF001010161204600F07EFA05F0800765
:103E500016F4025F18BF002F02D1F00509D410E05C
:103E600020686FF4025101612046FFF7D1FCF00594
:103E700007D537B120686FF4807101612046FFF7E4
:103E8000C3FC700609D515F0400006D020686FF01D
:103E900040010161204600F08BFAB0060CD515F008
:103EA000200009D020686FF020010161204601B098
:103EB000BDE8F040FFF7B0BC01B0F0BD000000006D
:103EC00090F83C30012B01D1022070474FEAB2023A
:103ED000052A00F20F81F0B5DFE802F004AE508A47
:103EE0002CE800BF0268136A156A23F0020325F06C
:103EF0000105156243F6FF75D2F804E0D2F818C048
:103F00008C68C4F201052343AA420F6840F356812E
:103F100044F20006C4F20106B24200F05A8144F6AF
:103F20000006C4F20106B24200F0538144F200469A
:103F30004BE100BF026843F6FF77C4F20107D2F8F5
:103F400020C0BA42136A23F4803313625368546D5D
:103F5000D1F800E08D6840F3D38044F20006C4F24B
:103F60000106B24200F0D78044F60006C4F2010612
:103F7000B24200F0D08044F20046C8E0026840F24D
:103F8000004542F48064C4F20105176AAC42136A2A
:103F900027F4007723F4807313625368D2F81CC0AF
:103FA0008E6847EA062407D1CF6840F2FF463F02F9
:103FB00024F44064B7433C4343F6FF77D1F800E074
:103FC000C4F20107BA4240F3BD8044F20005C4F2D6
:103FD0000105AA4200F0BD8044F60005C4F20105C7
:103FE000AA4200F0B68044F20045C4F20105AEE0FA
:103FF000026843F6FF77C4F20107D2F820C0BA4244
:10400000136A23F4805313625468D369D1F800E033
:104010008D6840F3B38044F20006C4F20106B24258
:1040200000F0B78044F60006C4F20106B24200F088
:10403000B08044F20046A8E0026840F2004542F435
:104040008064C4F20105176AAC42136A27F02007A6
:1040500023F0100313625368D2F818C08E6847EA41
:10406000061407D1CF686FF0400624F0C00406EABA
:1040700007173C4343F6FF77D1F800E0C4F201078D
:10408000BA4240F3BD8044F20005C4F20105AA42E1
:1040900000F0BD8044F60005C4F20105AA4200F01C
:1040A000B68044F20045C4F20105AEE0026843F672
:1040B000FF77C4F20107D2F820C0BA42136A23F492
:1040C000801313625368546DD1F800E08D6840F39B
:1040D000D38044F20006C4F20106B24200F0D78059
:1040E00044F60006C4F20106B24200F0D08044F269
:1040F0000046C8E00121002280F83C2008467047B5
:104100000026C4F20106B24205D040F20046C4F2D5
:104110000106B24204D14E6923F4803343EA0623F8
:104120004FF68C762CF40037CFF6FE7653600336CC
:1041300047EA0547264046EA0E03536549689165FC
:10414000BBE000BF0026C4F20106B24201D0AA4281
:1041500006D1D1E90556354323F4405343EA05130C
:104160004FF68C755360CFF6FE750CEA050747EAEB
:104170000E03D3614968D16314629FE00026C4F244
:104180000106B24205D040F20046C4F20106B24236
:1041900004D14E6924F4804444EA861448F6FF466C
:1041A0002CF40057CFF6FF665460334047EA0537DA
:1041B00043EA0E23D361496811647EE00026C4F20D
:1041C0000106B24205D040F20046C4F20106B242F6
:1041D00005D1CE6823F00C0326F004063343AA422F
:1041E0002ADD44F20005C4F20105AA422FD044F6AC
:1041F0000005C4F20105AA4229D044F2004522E09C
:104200000026C4F20106B24201D0AA4206D1D1E989
:104210000556354323F4406343EA850348F6FF45DA
:104220005360CFF6FF650CEA050747EA0E2393615A
:1042300049689163146241E00025C4F20105AA4275
:1042400005D040F20045C4F20105AA4206D12EF481
:104250004076D1E905542E4346EA040E4FF68C749D
:10426000C2F804E0CFF6FE740CEA04063743976107
:1042700049685163136221E00026C4F20106B2428C
:1042800005D040F20046C4F20106B24204D14E69A4
:1042900023F4802343EA862348F6FF462CF40017D4
:1042A000CFF6FF66536006F5407647EA055726408D
:1042B00046EA0E2353654968D16517620021BDE8BF
:1042C000F040002280F83C200846704700000000C3
:1042D000704700000000000060B310B5044690F87D
:1042E0003D0028B9002084F83C00204600F024F866
:1042F000022084F83D002068211D01F0E5FD012029
:1043000084F8480084F83E0084F83F0084F84000B8
:1043100084F8410084F8420084F8430084F84400A3
:1043200084F8450084F8460084F8470084F83D008E
:10433000002010BD01207047704700000000000001
:1043400070470000000000000068B0F1804F18BF07
:104350007047FDF751BA0000B0B5044690F83C0034
:1043600001284FF0020008BFB0BD012584F83C5081
:1043700084F83D00204601F053FE00284FF0010074
:1043800006D084F83D50002184F83C10B0BD00BF39
:104390002068C16821F04001C160C16821F48041FA
:1043A000C160002084F83D50002184F83C10B0BD6D
:1043B000704700000000000090F88410012901D12E
:1043C000022070472421C0F8881001680A680B6831
:1043D00022F0005223F001030B60002343660A60C1
:1043E0002021C0F8881080F8843000207047000039
:1043F000704700000000000070470000000000004F
:1044000090F88420012A01D10220704770B524223F
:10441000C0F888200268D0F864E0BEF1000FD2F83E
:1044200000C0136823F001031360936823F06063F6
:1044300041EA0301916019D091684AF2184E9368DD
:10444000C0F6000E5B0F4AF22045C1F34266C0F68B
:1044500000051EF80340E95C2301B3FBF1F11EF8EF
:104460000630AE5D1B01B3FBF6F301E00121012331
:10447000A0F86A102021A0F86830C2F800C0C0F887
:104480008810002180F88410002070BD000000001A
:1044900090F88420012A01D10220704770B52422AF
:1044A000C0F888200268D0F864E0BEF1000FD2F8AE
:1044B00000C0136823F001031360936823F0604386
:1044C00041EA0301916019D091684AF2184E93684D
:1044D000C0F6000E5B0F4AF22045C1F34266C0F6FB
:1044E00000051EF80340E95C2301B3FBF1F11EF85F
:1044F0000630AE5D1B01B3FBF6F301E001210123A1
:10450000A0F86A102021A0F86830C2F800C0C0F8F6
:104510008810002180F88410002070BD0000000089
:10452000704700000000000070470000000000001D
:10453000704700000000000070B5016840F62F02CF
:10454000CB691A40202A0A688E680BD102F0200439
:1045500006F080552D1917D0416F69B3BDE8704042
:10456000084700BF40F60F052B420DD0012540F251
:104570002014C1F20005C0F2004406EA050C02EA6C
:10458000040515EB0C0525D1DD06C46E16D5012CEE
:1045900014D112F0100511D010220A628968490660
:1045A00066D4B0F85C10B0F85E20B0F85E30002B36
:1045B00018BF914240F05C8270BD00BFDD0215D58E
:1045C00016F4800512D04FF480120A62BDE87040E4
:1045D000FFF7AABFDD0718BF12F4807540F01E81F7
:1045E0009D0706F0010E00F125812EE1190606D582
:1045F00002F0800106F40006891940F0BF825906D6
:1046000040F1008112F0400100F0FC80016851E8A7
:10461000001F026821F0400142E80013F3B1016875
:1046200051E8001F026821F0400142E80013002B0E
:104630001FBF016851E8001F026821F040011CBF44
:1046400042E80013002B09D0016851E8001F0268FE
:1046500021F0400142E80013002BD7D12021C0F8FF
:10466000881000218167BDE8704000F041BD00BFA7
:10467000D0F880100A68526893B2002B9CD0B0F832
:104680005C60B34298D2A0F85E20C969B1F5807F22
:1046900000F0AC80016851E8001F026821F48071CD
:1046A00042E80013F3B1016851E8001F026821F4E9
:1046B000807142E80013002B1FBF016851E8001F02
:1046C000026821F480711CBF42E80013002B09D05E
:1046D000016851E8001F026821F4807142E800136C
:1046E000002BD7D1016851E8021F026821F00101B7
:1046F00042E80213F3B1016851E8021F026821F099
:10470000010142E80213002B1FBF016851E8021F9C
:10471000026821F001011CBF42E80213002B09D0FE
:10472000016851E8021F026821F0010142E802130A
:10473000002BD7D1016851E8021F026821F0400127
:1047400042E80213F3B1016851E8021F026821F048
:10475000400142E80213002B1FBF016851E8021F0D
:10476000026821F040011CBF42E80213002B09D06F
:10477000016851E8021F026821F0400142E802137B
:10478000002BD7D12021C0F88C100021C166016810
:1047900051E8001F026821F0100142E80013F3B154
:1047A000016851E8001F026821F0100142E800137F
:1047B000002B1FBF016851E8001F026821F01001A3
:1047C0001CBF42E80013002B09D0016851E8001F0C
:1047D000026821F0100142E80013002BD7D1D0F875
:1047E000801004460846FBF74BFF20460221016774
:1047F000B0F85C10B0F85E20891A89B2BDE870404C
:10480000FFF7F6BD190240F1C58112F0804100F0BA
:10481000C181BDE87040FFF783BE00BF01250D6276
:10482000D0F8905045F00105C0F890509D0706F073
:10483000010E0AD5BEF1000F07D002240C62D0F899
:10484000904044F00404C0F890405C070AD5BEF1E3
:10485000000F07D004250D62D0F8905045F00205F6
:10486000C0F890501D070CD502F0200555EA0C0544
:1048700007D008250D62D0F8905045F00805C0F823
:1048800090501D050BD512F0806508D04FF40065DF
:104890000D62D0F8905045F02005C0F89050D0F847
:1048A0009050002D3FF488AE9B060BD502F02002FD
:1048B00006F08053D21805D0426F1AB104469047D3
:1048C00020462168D0F89020896801F0400102F06C
:1048D0002802891806D10446FFF72AFE0020C4F8F2
:1048E000900070BD016851E8001F026821F49071CA
:1048F00042E80013F3B1016851E8001F026821F497
:10490000907142E80013002B1FBF016851E8001F9F
:10491000026821F490711CBF42E80013002B09D0FB
:10492000016851E8001F026821F4907142E8001309
:10493000002BD7D14FF6FE71CEF6FF71026852E818
:10494000022F03680A4043E80226DEB1026852E8FB
:10495000022F03680A4043E80226002E1FBF0268A8
:1049600052E8022F03680A401CBF43E80226002ECB
:1049700008D0026852E8022F03680A4043E8022682
:10498000002EDBD1C16E012927D1016851E8001F3B
:10499000026821F0100142E80013F3B1016851E808
:1049A000001F026821F0100142E80013002B1FBF16
:1049B000016851E8001F026821F010011CBF42E8A5
:1049C0000013002B09D0016851E8001F026821F094
:1049D000100142E80013002BD7D12021C0F88C1021
:1049E0000021C166026841679168490640F1CE80A6
:1049F000016851E8021F026821F0400142E80213F9
:104A0000F3B1016851E8021F026821F0400142E859
:104A10000213002B1FBF016851E8021F026821F03A
:104A200040011CBF42E80213002B09D0016851E885
:104A3000021F026821F0400142E80213002BD7D187
:104A4000D0F88010002900F0A18046F229420446E7
:104A50000846C0F600020A65FCF7A6F800283FF4F5
:104A6000ABADD4F88000016DBDE87040084700BFD1
:104A7000891A026852E8002F036822F4907243E812
:104A80000026F6B1026852E8002F036822F4907203
:104A900043E80026002E1FBF026852E8002F03687B
:104AA00022F490721CBF43E80026002E09D0026851
:104AB00052E8002F036822F4907243E80026002E8B
:104AC000D7D14FF6FE72CEF6FF72036853E8023F6D
:104AD0000668134046E80235DDB1036853E8023F3B
:104AE0000668134046E80235002D1FBF036853E8EF
:104AF000023F066813401CBF46E80235002D08D06F
:104B0000036853E8023F0668134046E80235002D6B
:104B1000DBD12022C0F88C200022C26642670268E6
:104B200052E8002F036822F0100243E80026F6B195
:104B3000026852E8002F036822F0100243E80026C2
:104B4000002E1FBF026852E8002F036822F01002F7
:104B50001CBF43E80026002E09D0026852E8002F4F
:104B6000036822F0100243E80026002ED7D189B254
:104B700002220267BDE87040FFF73ABC816F00294E
:104B80003FF41AADBDE87040084700BFBDE8704073
:104B9000FFF7CEBCD9017FF50FADB2F1FF3FC8BF23
:104BA00070BDBDE87040FFF727BC000000000000AA
:104BB00010B5D8B10446D0F8880028B9002084F890
:104BC0008400204600F028F82420C4F888002068DB
:104BD000A16A0268002922F00101016002D020468A
:104BE00001F0FAFA204602F023F908B1012010BDC5
:104BF0002068416821F490414160816821F02A01D8
:104C00008160016841F0010101602046BDE810406B
:104C100001F052BB000000002DE9F041B8B00021C6
:104C20000446CDE93611CDE93411339102A8C021F3
:104C3000FBF77DFC47F2FF712068C4F20001884257
:104C400066DC44F20041C4F20001884200F0BE80FC
:104C500044F60041C4F20001884200F0118145F29F
:104C60000001C4F20001884240F08C8102A80026B5
:104C700003964FF00208CDF80880FDF7E5F908B17A
:104C8000FBF7F6FC44F2E04040F60044C5F60200B3
:104C9000C5F6020433AD0827816841F480118160B4
:104CA000816801F4801101910199016841F00401CA
:104CB0000160016801F0040101910199016841F06E
:104CC000080101600068294600F008000190019881
:104CD0004FF49850CDE93308A4F580603797CDE9BB
:104CE0003566FCF745FB04202946CDE9330820460C
:104CF0003797CDE93566FCF73BFB352005210022CF
:104D0000FCF73EFE3520FCF727FE38B0BDE8F08109
:104D100047F60001C4F20001884200F0838047F6A4
:104D20000041C4F20001884200F0FC8041F20041E1
:104D3000C4F20101884240F025810120029002A8BE
:104D40004FF00008CDF80C80FDF77EF908B1FBF7B5
:104D50008FFC44F2E04040F60045C5F60200C5F67F
:104D6000020533AC02260169072741F020010161E9
:104D7000016901F0200101910199016841F04001B0
:104D80000160016801F0400101910199016841F061
:104D9000040101600068214600F0040001900198C0
:104DA0004FF40450339005F54060CDE93468CDF8F8
:104DB000D8803797FCF7DCFA33A9C020CDE93687D5
:104DC00081E84101A5F580602146D9E002A80024D0
:104DD000039402250295FDF737F908B1FBF748FC6B
:104DE00044F2E040C5F60200816841F40031816080
:104DF000816801F4003101910199016841F00801D5
:104E00000160006800F00800019001986020CDE981
:104E100033050720379040F60040C5F60200CDE983
:104E20003544ACE002A80024039402250295FDF766
:104E30000BF908B1FBF71CFC44F2E040C5F6020098
:104E4000816841F080418160816801F08041019179
:104E50000199016841F002010160006840F60041DB
:104E600000F002000190C5F6020101981820CDE97A
:104E70003305CDE935440B203790A1F500607EE085
:104E800002A8002603964FF00208CDF80880FDF72F
:104E9000DBF808B1FBF7ECFB44F2E04040F60044DD
:104EA000C5F60200C5F6020433AD0827816841F457
:104EB00000218160816801F400210191019901685C
:104EC00041F002010160016801F0020101910199C4
:104ED000016841F0080101600068294600F00800FF
:104EE000019001984FF44040CDE93308A4F50060EB
:104EF0003797CDE93566FCF73BFA03202946CDE923
:104F0000330820463797CDE93566FCF731FA34206F
:104F100005210022FCF734FD3420FCF71DFD38B0DC
:104F2000BDE8F08102A80024039402250295FDF754
:104F30008BF808B1FBF79CFB44F2E040C5F6020099
:104F4000816841F000418160816801F00041019178
:104F50000199016841F010010160006840F60041CC
:104F600000F010000190C5F6020101980320CDE980
:104F70003305CDE935440820379001F5806033A929
:104F8000FCF7F6F938B0BDE8F08100000000000041
:104F9000D0F88C30202B07D10123002918BF002A1C
:104FA00006D11846704700BF02231846704700BF5D
:104FB00080B50023C36640F60043D0F800C0C5F6B4
:104FC00000039C4503D0DCF804301B0204D402F03B
:104FD00073F9002080BD00BF036853E800CFD0F80C
:104FE00000E04CF080634EE8003CBCF1000FEED0D6
:104FF000036853E800CFD0F800E04CF080634EE83F
:10500000003CBCF1000F1FBF036853E800CFD0F88D
:1050100000E04CF080631CBF4EE8003CBCF1000F88
:10502000D5D0036853E800CFD0F800E04CF080639F
:105030004EE8003CBCF1000FCED1C8E700000000F4
:1050400040F63C31C2F20041884218BF704740F23E
:105050007801C2F200410A78C878042A887037D8EB
:10506000DFE802F0042E1A280A0000BF0D38B0FA5B
:1050700080F040092DE000BF0D2829D1D1E90702B9
:105080004863486A8A638A6AC863C86A0A640A6BA2
:10509000C1E911021CE000BF4A7801EB020C0132A9
:1050A000D3B24A70182B8CF81C0013D30020487020
:1050B00003200EE00A38B0FA80F04009800008E0D2
:1050C0000D2811D00A2803D100204870022000E0EA
:1050D0000020087040F63C301622C2F20040002347
:1050E00001F8033FFFF754BF0620F2E7000000007D
:1050F0007047000000000000FEE700000000000014
:1051000080B540F2D4104AF20001C2F20040C4F26D
:1051100000011022022301600021C0E90211C0F841
:105120000F10426101228261C0E90733C0E9092200
:10513000C0E90B22C0E90D11C0E90F110422C0E93A
:105140001121C0E91321C0E91521C0E91711C0E9F7
:105150001912FBF799FE002808BF80BDBDE880400A
:10516000FBF786BA0000000080B540F274204AF2D6
:105170000041C2F20040C4F200011022022301608B
:105180000021C0E90211C0F80F10426101228261C2
:10519000C0E90733C0E90922C0E90B22C0E90D11BB
:1051A000C0E90F110422C0E91121C0E91321C0E9AF
:1051B0001521C0E91711C0E91912FBF765FE002897
:1051C00008BF80BDBDE88040FBF752BA0000000078
:1051D00080B545F6D9404AF22842C0F60000C0F634
:1051E0000002002103F038F940F2D011C2F2004170
:1051F000086080BD000000002DE9F04186B044F257
:10520000E0400027C5F602000597CDE90377CDE918
:105210000177016840F6004441F0800101600168B7
:10522000C5F6020401F0800100910099016841F087
:10523000010101600168002201F001010091009963
:10524000016841F00201016001684FF4006801F05B
:10525000020100910099016841F0100101600168AC
:1052600001F0100100910099016841F0080101600E
:10527000016801F0080100910099016841F04001C6
:105280000160016801F0400100910099016841F05E
:105290000401016000684FF4006100F00400009018
:1052A00000982046FCF738F901ADC0200190A4F524
:1052B000406029460226CDE90267CDE90476FCF775
:1052C00057F801A90320CDE90476C1C1A4F5006611
:1052D00029463046FCF74CF844202946CDE9010721
:1052E00030460397FCF744F801202946CDE9020730
:1052F0002046CDF804800497FCF73AF84FF480502C
:1053000001904FF488102946CDE902072046FCF7AA
:105310002FF84FF400502946CDE9010720460397A6
:10532000FCF726F806B0BDE8F081000000000000A0
:1053300080B540F2143045F20041C2F2004047F21D
:10534000B052C4F20001C1F27002C0E900120021A3
:1053500081600122C0E90321C0E90511C0E90711FC
:10536000FCF73EF908B1FBF783F940F21430002155
:10537000C2F20040FCF7E8F808B1FBF779F940F217
:1053800014300021C2F20040FCF706F9002808BFE3
:1053900080BDBDE88040FBF76BB900000000000055
:1053A00080B540F2683045F60001C2F2004047F295
:1053B000B052C4F20001C1F27002C0E90012002133
:1053C00081600122C0E90321C0E90511C0E907118C
:1053D000FCF706F908B1FBF74BF940F26830002101
:1053E000C2F20040FCF7B0F808B1FBF741F940F217
:1053F00068300021C2F20040FCF7CEF8002808BF58
:1054000080BDBDE88040FBF733B90000000000001C
:1054100080B540F2BC3045F60041C2F2004047F290
:10542000B052C4F20001C1F27002C0E900120021C2
:1054300081600122C0E90321C0E90511C0E907111B
:10544000FCF7CEF808B1FBF713F940F2BC300021AD
:10545000C2F20040FCF778F808B1FBF709F940F216
:10546000BC300021C2F20040FCF796F8002808BFCB
:1054700080BDBDE88040FBF7FBB8000000000000E5
:1054800010B540F6F40443F20000C2F20044C4F246
:105490000100032120604FF4800060600020A060C4
:1054A000C4E9031060614FF00051C4E90610C4E97B
:1054B0000800C4E90A004FF08040606304F138003E
:1054C0002421FBF734F82046FEF76AF8002808BFCD
:1054D00010BDBDE81040FBF7CBB800000000000095
:1054E000B0B5A4B0002568462C210024CDE91C44A9
:1054F000CDE91A44CDE91844CDE91644CDE9144468
:10550000CDE91244CDE91044CDE90E44CDE90C4477
:10551000C4F201050B94FBF70AF840F67C104FF635
:10552000FF71C2F20040C0E900548460C0E9031476
:10553000C0E90544FEF728FA08B1FBF799F840F6F0
:105540007C10C2F20040FEF7C7FE08B1FBF790F8EE
:1055500040F67C10C2F20040FEF7C6FB08B1FBF734
:1055600087F80720199010201A9040F67C1019A98E
:10557000C2F20040FEF7F0FE08B1FBF779F840F602
:105580007C1016A9C2F200400024CDE916441894FC
:10559000FEF792F908B1FBF76BF840F67C100FA903
:1055A000C2F2004000221594CDE91344CDE9114424
:1055B000CDE90F44FEF784FC08B1FBF759F840F63B
:1055C0007C100FA9C2F200400422FEF779FC08B15A
:1055D000FBF74EF840F67C100FA9C2F200400822FB
:1055E000FEF76EFC08B1FBF743F800240120CDE97B
:1055F0000C0440F67C100BA9C2F200400C220B9464
:105600000E94FEF789FA08B1FBF732F804944FF4D0
:105610000050CDE90244CDE90044CDE905040794EA
:105620004FF00070CDE908040A9440F67C14C2F2F1
:10563000004469462046FEF7F3F808B1FBF718F876
:1056400021680020A9422390CDE9210020901F90DD
:1056500002D024B0B0BD00BF44F2E041C5F6020163
:105660000A6842F010020A60096801F010011E91F8
:105670001E994FF428511F910221CDE9201022904C
:105680000120239041F20000C5F602001FA9FBF79C
:105690006FFE24B0B0BD000080B540F6A82044F6EF
:1056A0000041C2F20040C4F200010C2201604FF43C
:1056B000E13141600021C0E90211016142614FF412
:1056C0004072C0E90621C0E908118162FFF770FA53
:1056D00008B1FAF7CDFF40F6A8200021C2F2004041
:1056E000FEF7D6FE08B1FAF7C3FF40F6A820002166
:1056F000C2F20040FEF784FE08B1FAF7B9FF40F6A7
:10570000A820C2F20040FEF757FE002808BF80BD67
:10571000BDE88040FAF7ACBF80B540F63C3045F2BA
:105720000001C2F20040C4F200010C2201604FF4FB
:10573000E13141600021C0E90211016142614FF491
:105740004072C0E90621C0E908118162FFF730FA12
:1057500008B1FAF78DFF40F63C300021C2F200405C
:10576000FEF796FE08B1FAF783FF40F63C300021C1
:10577000C2F20040FEF744FE08B1FAF779FF40F6A6
:105780003C30C2F20040FEF717FE002808BF80BD83
:10579000BDE88040FAF76CBF80B540F6644047F63C
:1057A0000001C2F20040C4F200010C2201604FF47B
:1057B000E13141600021C0E902110161C0E9052128
:1057C000C0E90711C0E90911FFF7F2F908B1FAF7CA
:1057D0004FFF40F664400021C2F20040FEF758FE41
:1057E00008B1FAF745FF40F664400021C2F20040DC
:1057F000FEF706FE08B1FAF73BFF40F66440C2F23E
:105800000040FEF7D9FD002808BF80BDBDE88040FC
:10581000FAF72EBF0000000080B540F6F84047F6CA
:105820000041C2F20040C4F200010C2201604FF4BA
:10583000E13141600021C0E902110161C0E90521A7
:10584000C0E90711C0E90911FFF7B2F908B1FAF789
:105850000FFF40F6F8400021C2F20040FEF718FEAC
:1058600008B1FAF705FF40F6F8400021C2F2004007
:10587000FEF7C6FD08B1FAF7FBFE40F6F840C2F2AB
:105880000040FEF799FD002808BF80BDBDE88040BC
:10589000FAF7EEBE0000000080B540F6142044F296
:1058A0000041C2F20040C4F200010C2201604FF43A
:1058B000E13141600021C0E902110161C0E9052127
:1058C000C0E90711C0E90911FFF772F908B1FAF749
:1058D000CFFE40F614200021C2F20040FEF7D8FDB2
:1058E00008B1FAF7C5FE40F614200021C2F20040CC
:1058F000FEF786FD08B1FAF7BBFE40F61420C2F2AF
:105900000040FEF759FD002808BF80BDBDE880407B
:10591000FAF7AEBE0000000080B540F6D03041F28C
:105920000041C2F20040C4F201010C2201604FF4B8
:10593000E13141600021C0E90211016142614FF48F
:105940004072C0E90621C0E908118162FFF730F911
:1059500008B1FAF78DFE40F6D0300021C2F20040C7
:10596000FEF796FD08B1FAF783FE40F6D03000212D
:10597000C2F20040FEF744FD08B1FAF779FE40F6A6
:10598000D030C2F20040FEF717FD002808BF80BDEE
:10599000BDE88040FAF76CBE80B540F210400021AF
:1059A000C2F20040C4F208010160092101714FF404
:1059B0000071C180022141720021C0F80A10C1812A
:1059C000FCF732F8002808BF80BDBDE88040FAF738
:1059D0004FBE000000000000FEE7000000000000D5
:1059E000FEE70000000000000000000000000000D2
:1059F000EFF30980BFF36F8F154B1A681EF0100F7D
:105A000008BF20ED108A20E9F04F10602DE9090051
:105A10004FF0500080F31188BFF34F8FBFF36F8FAB
:105A200003F0C6FD4FF0000080F31188BDE80900C7
:105A300019680868B0E8F04F1EF0100F08BFB0EC0E
:105A4000108A80F30988BFF36F8F704700BF00BFD3
:105A5000C400002400000000F0B581B044F22C47DF
:105A6000C5F6020757F8042C02F00302032A03D1FB
:105A7000012001B0F0BD00BF054657F82C0C0C46C4
:105A800020F0806047F82C0CFBF756FD064600BF5F
:105A900057F82C0C000105D5FBF74EFD801B0228A2
:105AA000F6D964E057F8040CEE6895E80E0020F48F
:105AB0007C30012C40EA0130A2F101016FF35F213B
:105AC0004FF47E4202EB432247F8040C92B24FF0AF
:105AD000FE4302EB01004FF4FE012A6901EB06418F
